{
  "contractName": "Battleships",
  "abi": [
    {
      "inputs": [],
      "stateMutability": "nonpayable",
      "type": "constructor"
    },
    {
      "inputs": [],
      "name": "InvalidGameID",
      "type": "error"
    },
    {
      "inputs": [],
      "name": "NotInGame",
      "type": "error"
    },
    {
      "inputs": [],
      "name": "StakeAlreadyDeposited",
      "type": "error"
    },
    {
      "inputs": [
        {
          "internalType": "uint256",
          "name": "expectedStakeValue",
          "type": "uint256"
        }
      ],
      "name": "WrongStakeAmount",
      "type": "error"
    },
    {
      "anonymous": false,
      "inputs": [
        {
          "indexed": false,
          "internalType": "uint256",
          "name": "_gameID",
          "type": "uint256"
        }
      ],
      "name": "AcceptingBoards",
      "type": "event"
    },
    {
      "anonymous": false,
      "inputs": [
        {
          "indexed": false,
          "internalType": "uint256",
          "name": "_gameID",
          "type": "uint256"
        },
        {
          "indexed": false,
          "internalType": "address",
          "name": "_player",
          "type": "address"
        }
      ],
      "name": "BoardAcknowledgeEvent",
      "type": "event"
    },
    {
      "anonymous": false,
      "inputs": [
        {
          "indexed": false,
          "internalType": "uint256",
          "name": "_gameID",
          "type": "uint256"
        },
        {
          "indexed": false,
          "internalType": "address",
          "name": "_host",
          "type": "address"
        },
        {
          "indexed": false,
          "internalType": "address",
          "name": "_challenger",
          "type": "address"
        },
        {
          "indexed": false,
          "internalType": "uint256",
          "name": "_stakeValue",
          "type": "uint256"
        }
      ],
      "name": "GamePayable",
      "type": "event"
    },
    {
      "anonymous": false,
      "inputs": [
        {
          "indexed": false,
          "internalType": "uint256",
          "name": "_gameID",
          "type": "uint256"
        },
        {
          "indexed": false,
          "internalType": "address",
          "name": "_host",
          "type": "address"
        },
        {
          "indexed": false,
          "internalType": "address",
          "name": "_challenger",
          "type": "address"
        }
      ],
      "name": "GameStart",
      "type": "event"
    },
    {
      "anonymous": false,
      "inputs": [
        {
          "indexed": false,
          "internalType": "uint256",
          "name": "_gameID",
          "type": "uint256"
        }
      ],
      "name": "PlayerZeroTurn",
      "type": "event"
    },
    {
      "anonymous": false,
      "inputs": [
        {
          "indexed": false,
          "internalType": "uint256",
          "name": "_gameID",
          "type": "uint256"
        },
        {
          "indexed": false,
          "internalType": "address",
          "name": "_winner",
          "type": "address"
        }
      ],
      "name": "RequestBoard",
      "type": "event"
    },
    {
      "anonymous": false,
      "inputs": [
        {
          "indexed": false,
          "internalType": "address",
          "name": "_from",
          "type": "address"
        },
        {
          "indexed": false,
          "internalType": "address",
          "name": "_to",
          "type": "address"
        },
        {
          "indexed": false,
          "internalType": "uint256",
          "name": "_gameID",
          "type": "uint256"
        }
      ],
      "name": "ShareID",
      "type": "event"
    },
    {
      "anonymous": false,
      "inputs": [
        {
          "indexed": false,
          "internalType": "uint256",
          "name": "_gameID",
          "type": "uint256"
        },
        {
          "indexed": false,
          "internalType": "uint8",
          "name": "_location",
          "type": "uint8"
        },
        {
          "indexed": false,
          "internalType": "bool",
          "name": "_claim",
          "type": "bool"
        },
        {
          "indexed": false,
          "internalType": "bool",
          "name": "_validity",
          "type": "bool"
        }
      ],
      "name": "ShotsChecked",
      "type": "event"
    },
    {
      "anonymous": false,
      "inputs": [
        {
          "indexed": false,
          "internalType": "uint256",
          "name": "_gameID",
          "type": "uint256"
        },
        {
          "indexed": false,
          "internalType": "uint8",
          "name": "_location",
          "type": "uint8"
        }
      ],
      "name": "ShotsFired",
      "type": "event"
    },
    {
      "anonymous": false,
      "inputs": [
        {
          "indexed": false,
          "internalType": "uint256",
          "name": "_gameID",
          "type": "uint256"
        },
        {
          "indexed": false,
          "internalType": "address",
          "name": "_whoPaid",
          "type": "address"
        }
      ],
      "name": "StakePaid",
      "type": "event"
    },
    {
      "anonymous": false,
      "inputs": [
        {
          "indexed": false,
          "internalType": "uint256",
          "name": "_gameID",
          "type": "uint256"
        },
        {
          "indexed": false,
          "internalType": "address",
          "name": "_from",
          "type": "address"
        },
        {
          "indexed": false,
          "internalType": "address",
          "name": "_to",
          "type": "address"
        },
        {
          "indexed": false,
          "internalType": "uint256",
          "name": "_stakeValue",
          "type": "uint256"
        }
      ],
      "name": "SuggestedStake",
      "type": "event"
    },
    {
      "anonymous": false,
      "inputs": [
        {
          "indexed": false,
          "internalType": "uint256",
          "name": "_gameID",
          "type": "uint256"
        },
        {
          "indexed": false,
          "internalType": "address",
          "name": "_winner",
          "type": "address"
        }
      ],
      "name": "Victory",
      "type": "event"
    },
    {
      "inputs": [],
      "name": "BOARD_SIZE",
      "outputs": [
        {
          "internalType": "uint8",
          "name": "",
          "type": "uint8"
        }
      ],
      "stateMutability": "view",
      "type": "function",
      "constant": true
    },
    {
      "inputs": [],
      "name": "NUMBER_OF_SHIP_SQUARES",
      "outputs": [
        {
          "internalType": "uint8",
          "name": "",
          "type": "uint8"
        }
      ],
      "stateMutability": "view",
      "type": "function",
      "constant": true
    },
    {
      "inputs": [
        {
          "internalType": "bool",
          "name": "isPrivate",
          "type": "bool"
        }
      ],
      "name": "newGame",
      "outputs": [],
      "stateMutability": "nonpayable",
      "type": "function"
    },
    {
      "inputs": [
        {
          "internalType": "uint256",
          "name": "gameID",
          "type": "uint256"
        }
      ],
      "name": "joinGame",
      "outputs": [],
      "stateMutability": "nonpayable",
      "type": "function"
    },
    {
      "inputs": [
        {
          "internalType": "uint256",
          "name": "gameID",
          "type": "uint256"
        }
      ],
      "name": "checkGameState",
      "outputs": [
        {
          "internalType": "enum Battleships.GameStates",
          "name": "",
          "type": "uint8"
        }
      ],
      "stateMutability": "view",
      "type": "function",
      "constant": true
    },
    {
      "inputs": [
        {
          "internalType": "uint256",
          "name": "gameID",
          "type": "uint256"
        }
      ],
      "name": "checkGamePlayerOne",
      "outputs": [
        {
          "internalType": "address",
          "name": "",
          "type": "address"
        }
      ],
      "stateMutability": "view",
      "type": "function",
      "constant": true
    },
    {
      "inputs": [
        {
          "internalType": "uint256",
          "name": "gameID",
          "type": "uint256"
        }
      ],
      "name": "checkGamePlayerTwo",
      "outputs": [
        {
          "internalType": "address",
          "name": "",
          "type": "address"
        }
      ],
      "stateMutability": "view",
      "type": "function",
      "constant": true
    },
    {
      "inputs": [
        {
          "internalType": "uint256",
          "name": "gameID",
          "type": "uint256"
        },
        {
          "internalType": "uint256",
          "name": "stakeValue",
          "type": "uint256"
        }
      ],
      "name": "proposeStake",
      "outputs": [],
      "stateMutability": "nonpayable",
      "type": "function"
    },
    {
      "inputs": [
        {
          "internalType": "uint256",
          "name": "gameID",
          "type": "uint256"
        }
      ],
      "name": "checkStakePlayerOne",
      "outputs": [
        {
          "internalType": "uint256",
          "name": "",
          "type": "uint256"
        }
      ],
      "stateMutability": "view",
      "type": "function",
      "constant": true
    },
    {
      "inputs": [
        {
          "internalType": "uint256",
          "name": "gameID",
          "type": "uint256"
        }
      ],
      "name": "checkStakePlayerTwo",
      "outputs": [
        {
          "internalType": "uint256",
          "name": "",
          "type": "uint256"
        }
      ],
      "stateMutability": "view",
      "type": "function",
      "constant": true
    },
    {
      "inputs": [
        {
          "internalType": "uint256",
          "name": "gameID",
          "type": "uint256"
        }
      ],
      "name": "checkStakeGame",
      "outputs": [
        {
          "internalType": "uint256",
          "name": "",
          "type": "uint256"
        }
      ],
      "stateMutability": "view",
      "type": "function",
      "constant": true
    },
    {
      "inputs": [
        {
          "internalType": "uint256",
          "name": "gameID",
          "type": "uint256"
        }
      ],
      "name": "payStake",
      "outputs": [],
      "stateMutability": "payable",
      "type": "function",
      "payable": true
    },
    {
      "inputs": [
        {
          "internalType": "uint256",
          "name": "gameID",
          "type": "uint256"
        }
      ],
      "name": "checkPaymentPlayerOne",
      "outputs": [
        {
          "internalType": "bool",
          "name": "",
          "type": "bool"
        }
      ],
      "stateMutability": "view",
      "type": "function",
      "constant": true
    },
    {
      "inputs": [
        {
          "internalType": "uint256",
          "name": "gameID",
          "type": "uint256"
        }
      ],
      "name": "checkPaymentPlayerTwo",
      "outputs": [
        {
          "internalType": "bool",
          "name": "",
          "type": "bool"
        }
      ],
      "stateMutability": "view",
      "type": "function",
      "constant": true
    },
    {
      "inputs": [
        {
          "internalType": "uint256",
          "name": "gameID",
          "type": "uint256"
        }
      ],
      "name": "checkGamePayable",
      "outputs": [
        {
          "internalType": "bool",
          "name": "",
          "type": "bool"
        }
      ],
      "stateMutability": "view",
      "type": "function",
      "constant": true
    },
    {
      "inputs": [
        {
          "internalType": "uint256",
          "name": "gameID",
          "type": "uint256"
        },
        {
          "internalType": "bytes32",
          "name": "boardRoot",
          "type": "bytes32"
        }
      ],
      "name": "PlaceShips",
      "outputs": [],
      "stateMutability": "nonpayable",
      "type": "function"
    },
    {
      "inputs": [
        {
          "internalType": "uint256",
          "name": "gameID",
          "type": "uint256"
        }
      ],
      "name": "getPlayerOneBoardRoot",
      "outputs": [
        {
          "internalType": "bytes32",
          "name": "",
          "type": "bytes32"
        }
      ],
      "stateMutability": "view",
      "type": "function",
      "constant": true
    },
    {
      "inputs": [
        {
          "internalType": "uint256",
          "name": "gameID",
          "type": "uint256"
        }
      ],
      "name": "getPlayerTwoBoardRoot",
      "outputs": [
        {
          "internalType": "bytes32",
          "name": "",
          "type": "bytes32"
        }
      ],
      "stateMutability": "view",
      "type": "function",
      "constant": true
    },
    {
      "inputs": [
        {
          "internalType": "uint256",
          "name": "gameID",
          "type": "uint256"
        }
      ],
      "name": "getPlayerOneShotsBoard",
      "outputs": [
        {
          "internalType": "bool",
          "name": "",
          "type": "bool"
        }
      ],
      "stateMutability": "view",
      "type": "function",
      "constant": true
    },
    {
      "inputs": [
        {
          "internalType": "uint256",
          "name": "gameID",
          "type": "uint256"
        }
      ],
      "name": "getPlayerTwoShotsBoard",
      "outputs": [
        {
          "internalType": "bool",
          "name": "",
          "type": "bool"
        }
      ],
      "stateMutability": "view",
      "type": "function",
      "constant": true
    },
    {
      "inputs": [
        {
          "internalType": "uint256",
          "name": "gameID",
          "type": "uint256"
        },
        {
          "internalType": "uint8",
          "name": "location",
          "type": "uint8"
        }
      ],
      "name": "FireTorpedo",
      "outputs": [],
      "stateMutability": "nonpayable",
      "type": "function"
    },
    {
      "inputs": [
        {
          "internalType": "uint256",
          "name": "gameID",
          "type": "uint256"
        },
        {
          "internalType": "uint8",
          "name": "location",
          "type": "uint8"
        },
        {
          "internalType": "bool",
          "name": "isHit",
          "type": "bool"
        },
        {
          "internalType": "bytes32",
          "name": "leaf",
          "type": "bytes32"
        },
        {
          "internalType": "bytes32[]",
          "name": "proof",
          "type": "bytes32[]"
        }
      ],
      "name": "ConfirmShot",
      "outputs": [],
      "stateMutability": "nonpayable",
      "type": "function"
    },
    {
      "inputs": [
        {
          "internalType": "uint8",
          "name": "tile",
          "type": "uint8"
        },
        {
          "internalType": "bool",
          "name": "ship",
          "type": "bool"
        }
      ],
      "name": "GenLeafNode",
      "outputs": [
        {
          "internalType": "bytes32",
          "name": "",
          "type": "bytes32"
        }
      ],
      "stateMutability": "pure",
      "type": "function",
      "constant": true
    },
    {
      "inputs": [
        {
          "internalType": "uint8",
          "name": "tile",
          "type": "uint8"
        },
        {
          "internalType": "bool",
          "name": "ship",
          "type": "bool"
        }
      ],
      "name": "PreviewLeafNode",
      "outputs": [
        {
          "internalType": "bytes",
          "name": "",
          "type": "bytes"
        }
      ],
      "stateMutability": "pure",
      "type": "function",
      "constant": true
    },
    {
      "inputs": [
        {
          "internalType": "bytes32",
          "name": "leaf",
          "type": "bytes32"
        },
        {
          "internalType": "bytes32",
          "name": "root",
          "type": "bytes32"
        },
        {
          "internalType": "bytes32[]",
          "name": "proof",
          "type": "bytes32[]"
        }
      ],
      "name": "QuickCheck",
      "outputs": [
        {
          "internalType": "bool",
          "name": "",
          "type": "bool"
        }
      ],
      "stateMutability": "nonpayable",
      "type": "function"
    },
    {
      "inputs": [
        {
          "internalType": "bytes32",
          "name": "proof",
          "type": "bytes32"
        }
      ],
      "name": "EchoBytes",
      "outputs": [
        {
          "internalType": "bytes32",
          "name": "",
          "type": "bytes32"
        }
      ],
      "stateMutability": "pure",
      "type": "function",
      "constant": true
    },
    {
      "inputs": [
        {
          "internalType": "bytes32[]",
          "name": "proof",
          "type": "bytes32[]"
        }
      ],
      "name": "EchoProof",
      "outputs": [
        {
          "internalType": "bytes32[]",
          "name": "",
          "type": "bytes32[]"
        }
      ],
      "stateMutability": "pure",
      "type": "function",
      "constant": true
    },
    {
      "inputs": [
        {
          "internalType": "uint256",
          "name": "gameID",
          "type": "uint256"
        },
        {
          "internalType": "enum Battleships.GameStates",
          "name": "state",
          "type": "uint8"
        }
      ],
      "name": "ChangeState",
      "outputs": [],
      "stateMutability": "nonpayable",
      "type": "function"
    }
  ],
  "bytecode": "0x608060405234801561001057600080fd5b506001601b819055506001601c8190555033601d60006101000a81548173ffffffffffffffffffffffffffffffffffffffff021916908373ffffffffffffffffffffffffffffffffffffffff16021790555061520b806100716000396000f3fe6080604052600436106101b75760003560e01c806379fbd95d116100ec578063dc4a3e951161008a578063ea8202e911610064578063ea8202e9146106cc578063efaa55a014610709578063f28ae7dd14610732578063fba523b71461075b576101b7565b8063dc4a3e951461064f578063e0c6b52a1461067a578063e0dd9bb4146106a3576101b7565b8063aab41fc5116100c6578063aab41fc51461055b578063bd7c88f814610598578063c8e2ef5d146105d5578063d46d077714610612576101b7565b806379fbd95d146104b85780639a7e4cea146104e1578063aa3ee9151461051e576101b7565b80634278d9861161015957806354d83c651161013357806354d83c65146103d65780635f7dbd2b146104135780636930aa4d14610450578063699f5aeb1461047b576101b7565b80634278d9861461031f5780635345f5331461035c578063542c015114610399576101b7565b80630eeca53e116101955780630eeca53e1461025257806316337b89146102905780631de95425146102b95780632b170aac146102f6576101b7565b8063012b61f0146101bc57806302ecb0e8146101f95780630e37dcd014610236575b600080fd5b3480156101c857600080fd5b506101e360048036038101906101de9190614732565b610798565b6040516101f0919061477a565b60405180910390f35b34801561020557600080fd5b50610220600480360381019061021b9190614732565b610880565b60405161022d919061477a565b60405180910390f35b610250600480360381019061024b9190614732565b61093d565b005b34801561025e57600080fd5b50610279600480360381019061027491906147fa565b6111d3565b6040516102879291906148c2565b60405180910390f35b34801561029c57600080fd5b506102b760048036038101906102b2919061491c565b6111e3565b005b3480156102c557600080fd5b506102e060048036038101906102db9190614732565b6119aa565b6040516102ed919061499d565b60405180910390f35b34801561030257600080fd5b5061031d600480360381019061031891906149e4565b611a7a565b005b34801561032b57600080fd5b5061034660048036038101906103419190614732565b611ebe565b6040516103539190614a20565b60405180910390f35b34801561036857600080fd5b50610383600480360381019061037e9190614732565b611ed2565b604051610390919061477a565b60405180910390f35b3480156103a557600080fd5b506103c060048036038101906103bb9190614732565b611ee6565b6040516103cd919061477a565b60405180910390f35b3480156103e257600080fd5b506103fd60048036038101906103f89190614732565b611efa565b60405161040a919061477a565b60405180910390f35b34801561041f57600080fd5b5061043a60048036038101906104359190614732565b611fb7565b6040516104479190614a20565b60405180910390f35b34801561045c57600080fd5b50610465611fcb565b6040516104729190614a57565b60405180910390f35b34801561048757600080fd5b506104a2600480360381019061049d9190614732565b611fd0565b6040516104af9190614a81565b60405180910390f35b3480156104c457600080fd5b506104df60048036038101906104da9190614ac8565b6120ab565b005b3480156104ed57600080fd5b5061050860048036038101906105039190614732565b612987565b6040516105159190614bd9565b60405180910390f35b34801561052a57600080fd5b5061054560048036038101906105409190614732565b6129e5565b6040516105529190614a81565b60405180910390f35b34801561056757600080fd5b50610582600480360381019061057d9190614bf4565b612a95565b60405161058f919061477a565b60405180910390f35b3480156105a457600080fd5b506105bf60048036038101906105ba9190614c68565b612af1565b6040516105cc9190614a20565b60405180910390f35b3480156105e157600080fd5b506105fc60048036038101906105f79190614c68565b612b24565b6040516106099190614d38565b60405180910390f35b34801561061e57600080fd5b5061063960048036038101906106349190614732565b612b50565b604051610646919061499d565b60405180910390f35b34801561065b57600080fd5b50610664612c20565b6040516106719190614a57565b60405180910390f35b34801561068657600080fd5b506106a1600480360381019061069c9190614d7f565b612c25565b005b3480156106af57600080fd5b506106ca60048036038101906106c59190614dbf565b612cc4565b005b3480156106d857600080fd5b506106f360048036038101906106ee9190614dff565b613340565b6040516107009190614a20565b60405180910390f35b34801561071557600080fd5b50610730600480360381019061072b9190614732565b61334a565b005b34801561073e57600080fd5b5061075960048036038101906107549190614e2c565b61377e565b005b34801561076757600080fd5b50610782600480360381019061077d9190614732565b614084565b60405161078f9190614a81565b60405180910390f35b600080600083815260200190815260200160002060000160009054906101000a900460ff16801561080257506000808381526020019081526020016000206001016000600281106107ec576107eb614e6c565b5b6006020160000160009054906101000a900460ff165b8015610847575060008083815260200190815260200160002060010160016002811061083157610830614e6c565b5b6006020160000160009054906101000a900460ff165b156108765760008083815260200190815260200160002060000160019054906101000a900460ff16905061087b565b600090505b919050565b600080600083815260200190815260200160002060000160009054906101000a900460ff1680156108ea57506000808381526020019081526020016000206001016001600281106108d4576108d3614e6c565b5b6006020160000160009054906101000a900460ff165b156109335760008083815260200190815260200160002060010160016002811061091757610916614e6c565b5b6006020160000160019054906101000a900460ff169050610938565b600090505b919050565b8060008082815260200190815260200160002060000160009054906101000a900460ff1661096e5761096d614e9b565b5b813373ffffffffffffffffffffffffffffffffffffffff166000808381526020019081526020016000206001016000600281106109ae576109ad614e6c565b5b6006020160000160029054906101000a900473ffffffffffffffffffffffffffffffffffffffff1673ffffffffffffffffffffffffffffffffffffffff161480610a7257503373ffffffffffffffffffffffffffffffffffffffff16600080838152602001908152602001600020600101600160028110610a3257610a31614e6c565b5b6006020160000160029054906101000a900473ffffffffffffffffffffffffffffffffffffffff1673ffffffffffffffffffffffffffffffffffffffff16145b610a7f57610a7e614e9b565b5b8260026004600a811115610a9657610a95614b62565b5b81600a811115610aa957610aa8614b62565b5b14158015610adc57506006600a811115610ac657610ac5614b62565b5b81600a811115610ad957610ad8614b62565b5b14155b8015610b0d57506007600a811115610af757610af6614b62565b5b81600a811115610b0a57610b09614b62565b5b14155b8015610b3e57506005600a811115610b2857610b27614b62565b5b81600a811115610b3b57610b3a614b62565b5b14155b15610b9e5780600a811115610b5657610b55614b62565b5b600080848152602001908152602001600020600d0160009054906101000a900460ff16600a811115610b8b57610b8a614b62565b5b14610b9957610b98614e9b565b5b610dc6565b6000610ba983614134565b90506004600a811115610bbf57610bbe614b62565b5b82600a811115610bd257610bd1614b62565b5b03610caf57600081600060028110610bed57610bec614e6c565b5b602002015103610c525781600a811115610c0a57610c09614b62565b5b600080858152602001908152602001600020600d0160009054906101000a900460ff16600a811115610c3f57610c3e614b62565b5b14610c4d57610c4c614e9b565b5b610caa565b6006600a811115610c6657610c65614b62565b5b600080858152602001908152602001600020600d0160009054906101000a900460ff16600a811115610c9b57610c9a614b62565b5b14610ca957610ca8614e9b565b5b5b610dc4565b6007600a811115610cc357610cc2614b62565b5b82600a811115610cd657610cd5614b62565b5b03610db357600081600060028110610cf157610cf0614e6c565b5b602002015103610d565781600a811115610d0e57610d0d614b62565b5b600080858152602001908152602001600020600d0160009054906101000a900460ff16600a811115610d4357610d42614b62565b5b14610d5157610d50614e9b565b5b610dae565b6005600a811115610d6a57610d69614b62565b5b600080858152602001908152602001600020600d0160009054906101000a900460ff16600a811115610d9f57610d9e614b62565b5b14610dad57610dac614e9b565b5b5b610dc3565b6000610dc257610dc1614e9b565b5b5b5b505b600080868152602001908152602001600020600101600060028110610dee57610ded614e6c565b5b6006020160000160029054906101000a900473ffffffffffffffffffffffffffffffffffffffff1673ffffffffffffffffffffffffffffffffffffffff163373ffffffffffffffffffffffffffffffffffffffff16148015610e895750600080868152602001908152602001600020600101600060028110610e7357610e72614e6c565b5b6006020160000160019054906101000a900460ff165b80610f535750600080868152602001908152602001600020600101600160028110610eb757610eb6614e6c565b5b6006020160000160029054906101000a900473ffffffffffffffffffffffffffffffffffffffff1673ffffffffffffffffffffffffffffffffffffffff163373ffffffffffffffffffffffffffffffffffffffff16148015610f525750600080868152602001908152602001600020600101600160028110610f3c57610f3b614e6c565b5b6006020160000160019054906101000a900460ff165b5b15610f8a576040517f5e558b2300000000000000000000000000000000000000000000000000000000815260040160405180910390fd5b600080868152602001908152602001600020600e01543414610ff857600080868152602001908152602001600020600e01546040517f66cb868a000000000000000000000000000000000000000000000000000000008152600401610fef9190614a81565b60405180910390fd5b60008060008088815260200190815260200160002060010160006002811061102357611022614e6c565b5b6006020160000160029054906101000a900473ffffffffffffffffffffffffffffffffffffffff1673ffffffffffffffffffffffffffffffffffffffff163373ffffffffffffffffffffffffffffffffffffffff160361108a576000915060019050611093565b60019150600090505b600160008089815260200190815260200160002060010183600281106110bc576110bb614e6c565b5b6006020160000160016101000a81548160ff0219169083151502179055507f95ddb9abe17699603c18cef7bcfd33947d19c8eb237e01edac0bd509b481339e873360405161110b929190614eca565b60405180910390a1600080888152602001908152602001600020600101816002811061113a57611139614e6c565b5b6006020160000160019054906101000a900460ff16156111ca576003600080898152602001908152602001600020600d0160006101000a81548160ff0219169083600a81111561118d5761118c614b62565b5b02179055507f972651cf62ccc65bd2ba0fd996eb34701d5773844d3303545d5b4cb29738f104876040516111c19190614a81565b60405180910390a15b50505050505050565b3660008383915091509250929050565b8160008082815260200190815260200160002060000160009054906101000a900460ff1661121457611213614e9b565b5b823373ffffffffffffffffffffffffffffffffffffffff1660008083815260200190815260200160002060010160006002811061125457611253614e6c565b5b6006020160000160029054906101000a900473ffffffffffffffffffffffffffffffffffffffff1673ffffffffffffffffffffffffffffffffffffffff16148061131857503373ffffffffffffffffffffffffffffffffffffffff166000808381526020019081526020016000206001016001600281106112d8576112d7614e6c565b5b6006020160000160029054906101000a900473ffffffffffffffffffffffffffffffffffffffff1673ffffffffffffffffffffffffffffffffffffffff16145b61132557611324614e9b565b5b8360036004600a81111561133c5761133b614b62565b5b81600a81111561134f5761134e614b62565b5b1415801561138257506006600a81111561136c5761136b614b62565b5b81600a81111561137f5761137e614b62565b5b14155b80156113b357506007600a81111561139d5761139c614b62565b5b81600a8111156113b0576113af614b62565b5b14155b80156113e457506005600a8111156113ce576113cd614b62565b5b81600a8111156113e1576113e0614b62565b5b14155b156114445780600a8111156113fc576113fb614b62565b5b600080848152602001908152602001600020600d0160009054906101000a900460ff16600a81111561143157611430614b62565b5b1461143f5761143e614e9b565b5b61166c565b600061144f83614134565b90506004600a81111561146557611464614b62565b5b82600a81111561147857611477614b62565b5b036115555760008160006002811061149357611492614e6c565b5b6020020151036114f85781600a8111156114b0576114af614b62565b5b600080858152602001908152602001600020600d0160009054906101000a900460ff16600a8111156114e5576114e4614b62565b5b146114f3576114f2614e9b565b5b611550565b6006600a81111561150c5761150b614b62565b5b600080858152602001908152602001600020600d0160009054906101000a900460ff16600a81111561154157611540614b62565b5b1461154f5761154e614e9b565b5b5b61166a565b6007600a81111561156957611568614b62565b5b82600a81111561157c5761157b614b62565b5b036116595760008160006002811061159757611596614e6c565b5b6020020151036115fc5781600a8111156115b4576115b3614b62565b5b600080858152602001908152602001600020600d0160009054906101000a900460ff16600a8111156115e9576115e8614b62565b5b146115f7576115f6614e9b565b5b611654565b6005600a8111156116105761160f614b62565b5b600080858152602001908152602001600020600d0160009054906101000a900460ff16600a81111561164557611644614b62565b5b1461165357611652614e9b565b5b5b611669565b600061166857611667614e9b565b5b5b5b505b60008060008089815260200190815260200160002060010160006002811061169757611696614e6c565b5b6006020160000160029054906101000a900473ffffffffffffffffffffffffffffffffffffffff1673ffffffffffffffffffffffffffffffffffffffff163373ffffffffffffffffffffffffffffffffffffffff16146116fb576001915081611701565b60009150815b5060008089815260200190815260200160002060010160006002811061172a57611729614e6c565b5b6006020160000160029054906101000a900473ffffffffffffffffffffffffffffffffffffffff1673ffffffffffffffffffffffffffffffffffffffff163373ffffffffffffffffffffffffffffffffffffffff161461178e576000905080611794565b60019050805b506000801b6000808a815260200190815260200160002060010183600281106117c0576117bf614e6c565b5b6006020160020154146117d257600080fd5b6000601890506001601860000160006101000a81548160ff021916908315150217905550601460ff16601860010181905550600860ff16601860020181905550806000808b8152602001908152602001600020600101846002811061183a57611839614e6c565b5b600602016003016000820160009054906101000a900460ff168160000160006101000a81548160ff0219169083151502179055506001820154816001015560028201548160020155905050876000808b815260200190815260200160002060010184600281106118ad576118ac614e6c565b5b60060201600201819055507fde8cdabe60db81138d1e5580b73440f47ba010dbd18575d18bad0b750987001e89336040516118e9929190614eca565b60405180910390a16000801b6000808b8152602001908152602001600020600101836002811061191c5761191b614e6c565b5b60060201600201541461199f5760046000808b8152602001908152602001600020600d0160006101000a81548160ff0219169083600a81111561196257611961614b62565b5b02179055507ff751b3d5e96ffa95a434b79874df7e232b82d5c688a5d61fd7b5c5ce87247127896040516119969190614a81565b60405180910390a15b505050505050505050565b600080600083815260200190815260200160002060000160009054906101000a900460ff168015611a1457506000808381526020019081526020016000206001016000600281106119fe576119fd614e6c565b5b6006020160000160009054906101000a900460ff165b15611a7057600080838152602001908152602001600020600101600060028110611a4157611a40614e6c565b5b6006020160000160029054906101000a900473ffffffffffffffffffffffffffffffffffffffff169050611a75565b600090505b919050565b6000601b549050601b6000815480929190611a9490614f22565b9190505550600060019050600060129050338160000160026101000a81548173ffffffffffffffffffffffffffffffffffffffff021916908373ffffffffffffffffffffffffffffffffffffffff16021790555060018160000160006101000a81548160ff02191690831515021790555060008160000160016101000a81548160ff0219169083151502179055508082600101600060028110611b3a57611b39614e6c565b5b600602016000820160009054906101000a900460ff168160000160006101000a81548160ff0219169083151502179055506000820160019054906101000a900460ff168160000160016101000a81548160ff0219169083151502179055506000820160029054906101000a900473ffffffffffffffffffffffffffffffffffffffff168160000160026101000a81548173ffffffffffffffffffffffffffffffffffffffff021916908373ffffffffffffffffffffffffffffffffffffffff160217905550600182015481600101556002820154816002015560038201816003016000820160009054906101000a900460ff168160000160006101000a81548160ff02191690831515021790555060018201548160010155600282015481600201555050905050600082600d0160006101000a81548160ff0219169083600a811115611c8957611c88614b62565b5b0217905550838260100160016101000a81548160ff02191690831515021790555060018260000160006101000a81548160ff02191690831515021790555060008260000160016101000a81548160ff021916908315150217905550816000808581526020019081526020016000206000820160009054906101000a900460ff168160000160006101000a81548160ff0219169083151502179055506000820160019054906101000a900460ff168160000160016101000a81548160ff0219169083151502179055506001820181600101906002611d679291906144cc565b50600d820160009054906101000a900460ff1681600d0160006101000a81548160ff0219169083600a811115611da057611d9f614b62565b5b0217905550600e82015481600e0155600f82015481600f01556010820160009054906101000a900460ff168160100160006101000a81548160ff0219169083151502179055506010820160019054906101000a900460ff168160100160016101000a81548160ff0219169083151502179055506010820160029054906101000a900473ffffffffffffffffffffffffffffffffffffffff168160100160026101000a81548173ffffffffffffffffffffffffffffffffffffffff021916908373ffffffffffffffffffffffffffffffffffffffff1602179055509050507f1edfba130181c8da1b98834639c59b5287912fcc01104c5a7a6e6c8cd194e302303385604051611eb093929190614f6a565b60405180910390a150505050565b6000611ecb826001614251565b9050919050565b6000611edf82600161432d565b9050919050565b6000611ef382600061432d565b9050919050565b600080600083815260200190815260200160002060000160009054906101000a900460ff168015611f645750600080838152602001908152602001600020600101600060028110611f4e57611f4d614e6c565b5b6006020160000160009054906101000a900460ff165b15611fad57600080838152602001908152602001600020600101600060028110611f9157611f90614e6c565b5b6006020160000160019054906101000a900460ff169050611fb2565b600090505b919050565b6000611fc4826000614251565b9050919050565b601481565b600080600083815260200190815260200160002060000160009054906101000a900460ff16801561203a575060008083815260200190815260200160002060010160006002811061202457612023614e6c565b5b6006020160000160009054906101000a900460ff165b801561207f575060008083815260200190815260200160002060010160016002811061206957612068614e6c565b5b6006020160000160009054906101000a900460ff165b156120a157600080838152602001908152602001600020600e015490506120a6565b600090505b919050565b8560008082815260200190815260200160002060000160009054906101000a900460ff166120dc576120db614e9b565b5b863373ffffffffffffffffffffffffffffffffffffffff1660008083815260200190815260200160002060010160006002811061211c5761211b614e6c565b5b6006020160000160029054906101000a900473ffffffffffffffffffffffffffffffffffffffff1673ffffffffffffffffffffffffffffffffffffffff1614806121e057503373ffffffffffffffffffffffffffffffffffffffff166000808381526020019081526020016000206001016001600281106121a05761219f614e6c565b5b6006020160000160029054906101000a900473ffffffffffffffffffffffffffffffffffffffff1673ffffffffffffffffffffffffffffffffffffffff16145b6121ed576121ec614e9b565b5b866008806121fb9190614fa1565b60ff168160ff16106122105761220f614e9b565b5b8860076004600a81111561222757612226614b62565b5b81600a81111561223a57612239614b62565b5b1415801561226d57506006600a81111561225757612256614b62565b5b81600a81111561226a57612269614b62565b5b14155b801561229e57506007600a81111561228857612287614b62565b5b81600a81111561229b5761229a614b62565b5b14155b80156122cf57506005600a8111156122b9576122b8614b62565b5b81600a8111156122cc576122cb614b62565b5b14155b1561232f5780600a8111156122e7576122e6614b62565b5b600080848152602001908152602001600020600d0160009054906101000a900460ff16600a81111561231c5761231b614b62565b5b1461232a57612329614e9b565b5b612557565b600061233a83614134565b90506004600a8111156123505761234f614b62565b5b82600a81111561236357612362614b62565b5b036124405760008160006002811061237e5761237d614e6c565b5b6020020151036123e35781600a81111561239b5761239a614b62565b5b600080858152602001908152602001600020600d0160009054906101000a900460ff16600a8111156123d0576123cf614b62565b5b146123de576123dd614e9b565b5b61243b565b6006600a8111156123f7576123f6614b62565b5b600080858152602001908152602001600020600d0160009054906101000a900460ff16600a81111561242c5761242b614b62565b5b1461243a57612439614e9b565b5b5b612555565b6007600a81111561245457612453614b62565b5b82600a81111561246757612466614b62565b5b036125445760008160006002811061248257612481614e6c565b5b6020020151036124e75781600a81111561249f5761249e614b62565b5b600080858152602001908152602001600020600d0160009054906101000a900460ff16600a8111156124d4576124d3614b62565b5b146124e2576124e1614e9b565b5b61253f565b6005600a8111156124fb576124fa614b62565b5b600080858152602001908152602001600020600d0160009054906101000a900460ff16600a8111156125305761252f614b62565b5b1461253e5761253d614e9b565b5b5b612554565b600061255357612552614e9b565b5b5b5b505b60006125628c614134565b905060008060008e8152602001908152602001600020604051806101200160405290816000820160009054906101000a900460ff161515151581526020016000820160019054906101000a900460ff1615151515815260200160018201600280602002604051908101604052809291906000905b828210156126e1578382600602016040518060c00160405290816000820160009054906101000a900460ff161515151581526020016000820160019054906101000a900460ff161515151581526020016000820160029054906101000a900473ffffffffffffffffffffffffffffffffffffffff1673ffffffffffffffffffffffffffffffffffffffff1673ffffffffffffffffffffffffffffffffffffffff1681526020016001820154815260200160028201548152602001600382016040518060600160405290816000820160009054906101000a900460ff161515151581526020016001820154815260200160028201548152505081525050815260200190600101906125d6565b505050508152602001600d820160009054906101000a900460ff16600a81111561270e5761270d614b62565b5b600a8111156127205761271f614b62565b5b8152602001600e8201548152602001600f82015481526020016010820160009054906101000a900460ff161515151581526020016010820160019054906101000a900460ff161515151581526020016010820160029054906101000a900473ffffffffffffffffffffffffffffffffffffffff1673ffffffffffffffffffffffffffffffffffffffff1673ffffffffffffffffffffffffffffffffffffffff168152505090506127d08c8c612af1565b8a146127df576127de614e9b565b5b61282289898360400151856000600281106127fd576127fc614e6c565b5b60200201516002811061281357612812614e6c565b5b6020020151608001518d614419565b15612939576005600a81111561283b5761283a614b62565b5b6000808f8152602001908152602001600020600d0160009054906101000a900460ff16600a8111156128705761286f614b62565b5b146128b75760046000808f8152602001908152602001600020600d0160006101000a81548160ff0219169083600a8111156128ae576128ad614b62565b5b021790556128f5565b60066000808f8152602001908152602001600020600d0160006101000a81548160ff0219169083600a8111156128f0576128ef614b62565b5b021790555b507f6b7f4cb32e4557bb0ec1ac014e9cf98e7eb88491d66436be28084edaf4ae0d078d8d8d600160405161292c9493929190614fde565b60405180910390a1612978565b7f6b7f4cb32e4557bb0ec1ac014e9cf98e7eb88491d66436be28084edaf4ae0d078d8d8d600060405161296f9493929190614fde565b60405180910390a15b50505050505050505050505050565b600080600083815260200190815260200160002060000160009054906101000a900460ff16156129db57600080838152602001908152602001600020600d0160009054906101000a900460ff1690506129e0565b600a90505b919050565b600080600083815260200190815260200160002060000160009054906101000a900460ff168015612a4f5750600080838152602001908152602001600020600101600160028110612a3957612a38614e6c565b5b6006020160000160009054906101000a900460ff165b15612a8b57600080838152602001908152602001600020600101600160028110612a7c57612a7b614e6c565b5b60060201600101549050612a90565b600090505b919050565b600080612aa484848789614419565b90507f6b7f4cb32e4557bb0ec1ac014e9cf98e7eb88491d66436be28084edaf4ae0d07600080600084604051612add9493929190615099565b60405180910390a180915050949350505050565b60008282604051602001612b069291906150de565b60405160208183030381529060405280519060200120905092915050565b60608282604051602001612b399291906150de565b604051602081830303815290604052905092915050565b600080600083815260200190815260200160002060000160009054906101000a900460ff168015612bba5750600080838152602001908152602001600020600101600160028110612ba457612ba3614e6c565b5b6006020160000160009054906101000a900460ff165b15612c1657600080838152602001908152602001600020600101600160028110612be757612be6614e6c565b5b6006020160000160029054906101000a900473ffffffffffffffffffffffffffffffffffffffff169050612c1b565b600090505b919050565b600881565b601d60009054906101000a900473ffffffffffffffffffffffffffffffffffffffff1673ffffffffffffffffffffffffffffffffffffffff163373ffffffffffffffffffffffffffffffffffffffff1614612c8357612c82614e9b565b5b80600080848152602001908152602001600020600d0160006101000a81548160ff0219169083600a811115612cbb57612cba614b62565b5b02179055505050565b8160008082815260200190815260200160002060000160009054906101000a900460ff16612cf557612cf4614e9b565b5b823373ffffffffffffffffffffffffffffffffffffffff16600080838152602001908152602001600020600101600060028110612d3557612d34614e6c565b5b6006020160000160029054906101000a900473ffffffffffffffffffffffffffffffffffffffff1673ffffffffffffffffffffffffffffffffffffffff161480612df957503373ffffffffffffffffffffffffffffffffffffffff16600080838152602001908152602001600020600101600160028110612db957612db8614e6c565b5b6006020160000160029054906101000a900473ffffffffffffffffffffffffffffffffffffffff1673ffffffffffffffffffffffffffffffffffffffff16145b612e0657612e05614e9b565b5b82600880612e149190614fa1565b60ff168160ff1610612e2957612e28614e9b565b5b84600480600a811115612e3f57612e3e614b62565b5b81600a811115612e5257612e51614b62565b5b14158015612e8557506006600a811115612e6f57612e6e614b62565b5b81600a811115612e8257612e81614b62565b5b14155b8015612eb657506007600a811115612ea057612e9f614b62565b5b81600a811115612eb357612eb2614b62565b5b14155b8015612ee757506005600a811115612ed157612ed0614b62565b5b81600a811115612ee457612ee3614b62565b5b14155b15612f475780600a811115612eff57612efe614b62565b5b600080848152602001908152602001600020600d0160009054906101000a900460ff16600a811115612f3457612f33614b62565b5b14612f4257612f41614e9b565b5b61316f565b6000612f5283614134565b90506004600a811115612f6857612f67614b62565b5b82600a811115612f7b57612f7a614b62565b5b0361305857600081600060028110612f9657612f95614e6c565b5b602002015103612ffb5781600a811115612fb357612fb2614b62565b5b600080858152602001908152602001600020600d0160009054906101000a900460ff16600a811115612fe857612fe7614b62565b5b14612ff657612ff5614e9b565b5b613053565b6006600a81111561300f5761300e614b62565b5b600080858152602001908152602001600020600d0160009054906101000a900460ff16600a81111561304457613043614b62565b5b1461305257613051614e9b565b5b5b61316d565b6007600a81111561306c5761306b614b62565b5b82600a81111561307f5761307e614b62565b5b0361315c5760008160006002811061309a57613099614e6c565b5b6020020151036130ff5781600a8111156130b7576130b6614b62565b5b600080858152602001908152602001600020600d0160009054906101000a900460ff16600a8111156130ec576130eb614b62565b5b146130fa576130f9614e9b565b5b613157565b6005600a81111561311357613112614b62565b5b600080858152602001908152602001600020600d0160009054906101000a900460ff16600a81111561314857613147614b62565b5b1461315657613155614e9b565b5b5b61316c565b600061316b5761316a614e9b565b5b5b5b505b600061317a88614134565b90506004600a8111156131905761318f614b62565b5b6000808a8152602001908152602001600020600d0160009054906101000a900460ff16600a8111156131c5576131c4614b62565b5b1461320c5760076000808a8152602001908152602001600020600d0160006101000a81548160ff0219169083600a81111561320357613202614b62565b5b0217905561324a565b60056000808a8152602001908152602001600020600d0160006101000a81548160ff0219169083600a81111561324557613244614b62565b5b021790555b506000808981526020019081526020016000206001018160006002811061327457613273614e6c565b5b60200201516002811061328a57613289614e6c565b5b6006020160030160020160008154809291906132a590615107565b919050555060008060008a8152602001908152602001600020600101826000600281106132d5576132d4614e6c565b5b6020020151600281106132eb576132ea614e6c565b5b60060201600301600201540315613336577fdba0500edc5d1049fa27c54a56e9f0313f9a962ae79b418ea0cfdfb556593286888860405161332d929190615130565b60405180910390a15b5050505050505050565b6000819050919050565b600081036134af57601c5490505b601b5481116134a7576001151560008083815260200190815260200160002060000160009054906101000a900460ff1615151480156133dd57506000600a8111156133a6576133a5614b62565b5b600080838152602001908152602001600020600d0160009054906101000a900460ff16600a8111156133db576133da614b62565b5b145b801561346457503373ffffffffffffffffffffffffffffffffffffffff1660008083815260200190815260200160002060010160006002811061342357613422614e6c565b5b6006020160000160029054906101000a900473ffffffffffffffffffffffffffffffffffffffff1673ffffffffffffffffffffffffffffffffffffffff1614155b8015613490575060008082815260200190815260200160002060100160019054906101000a900460ff16155b6134a757808061349f90614f22565b915050613358565b80601c819055505b60008082815260200190815260200160002060000160009054906101000a900460ff166134df576134de614e9b565b5b600060129050338160000160026101000a81548173ffffffffffffffffffffffffffffffffffffffff021916908373ffffffffffffffffffffffffffffffffffffffff16021790555060018160000160006101000a81548160ff02191690831515021790555060008160000160016101000a81548160ff0219169083151502179055508060008084815260200190815260200160002060010160016002811061358b5761358a614e6c565b5b600602016000820160009054906101000a900460ff168160000160006101000a81548160ff0219169083151502179055506000820160019054906101000a900460ff168160000160016101000a81548160ff0219169083151502179055506000820160029054906101000a900473ffffffffffffffffffffffffffffffffffffffff168160000160026101000a81548173ffffffffffffffffffffffffffffffffffffffff021916908373ffffffffffffffffffffffffffffffffffffffff160217905550600182015481600101556002820154816002015560038201816003016000820160009054906101000a900460ff168160000160006101000a81548160ff021916908315150217905550600182015481600101556002820154816002015550509050506001600080848152602001908152602001600020600d0160006101000a81548160ff0219169083600a8111156136eb576136ea614b62565b5b02179055507fdf72bd9cb04731c1dfa0832a380e56504fda45508a7305083a9be0f343e934218260008085815260200190815260200160002060010160006002811061373a57613739614e6c565b5b6006020160000160029054906101000a900473ffffffffffffffffffffffffffffffffffffffff163360405161377293929190615159565b60405180910390a15050565b8160008082815260200190815260200160002060000160009054906101000a900460ff166137af576137ae614e9b565b5b823373ffffffffffffffffffffffffffffffffffffffff166000808381526020019081526020016000206001016000600281106137ef576137ee614e6c565b5b6006020160000160029054906101000a900473ffffffffffffffffffffffffffffffffffffffff1673ffffffffffffffffffffffffffffffffffffffff1614806138b357503373ffffffffffffffffffffffffffffffffffffffff1660008083815260200190815260200160002060010160016002811061387357613872614e6c565b5b6006020160000160029054906101000a900473ffffffffffffffffffffffffffffffffffffffff1673ffffffffffffffffffffffffffffffffffffffff16145b6138c0576138bf614e9b565b5b8360016004600a8111156138d7576138d6614b62565b5b81600a8111156138ea576138e9614b62565b5b1415801561391d57506006600a81111561390757613906614b62565b5b81600a81111561391a57613919614b62565b5b14155b801561394e57506007600a81111561393857613937614b62565b5b81600a81111561394b5761394a614b62565b5b14155b801561397f57506005600a81111561396957613968614b62565b5b81600a81111561397c5761397b614b62565b5b14155b156139df5780600a81111561399757613996614b62565b5b600080848152602001908152602001600020600d0160009054906101000a900460ff16600a8111156139cc576139cb614b62565b5b146139da576139d9614e9b565b5b613c07565b60006139ea83614134565b90506004600a811115613a00576139ff614b62565b5b82600a811115613a1357613a12614b62565b5b03613af057600081600060028110613a2e57613a2d614e6c565b5b602002015103613a935781600a811115613a4b57613a4a614b62565b5b600080858152602001908152602001600020600d0160009054906101000a900460ff16600a811115613a8057613a7f614b62565b5b14613a8e57613a8d614e9b565b5b613aeb565b6006600a811115613aa757613aa6614b62565b5b600080858152602001908152602001600020600d0160009054906101000a900460ff16600a811115613adc57613adb614b62565b5b14613aea57613ae9614e9b565b5b5b613c05565b6007600a811115613b0457613b03614b62565b5b82600a811115613b1757613b16614b62565b5b03613bf457600081600060028110613b3257613b31614e6c565b5b602002015103613b975781600a811115613b4f57613b4e614b62565b5b600080858152602001908152602001600020600d0160009054906101000a900460ff16600a811115613b8457613b83614b62565b5b14613b9257613b91614e9b565b5b613bef565b6005600a811115613bab57613baa614b62565b5b600080858152602001908152602001600020600d0160009054906101000a900460ff16600a811115613be057613bdf614b62565b5b14613bee57613bed614e9b565b5b5b613c04565b6000613c0357613c02614e9b565b5b5b5b505b6000806000888152602001908152602001600020604051806101200160405290816000820160009054906101000a900460ff161515151581526020016000820160019054906101000a900460ff1615151515815260200160018201600280602002604051908101604052809291906000905b82821015613d84578382600602016040518060c00160405290816000820160009054906101000a900460ff161515151581526020016000820160019054906101000a900460ff161515151581526020016000820160029054906101000a900473ffffffffffffffffffffffffffffffffffffffff1673ffffffffffffffffffffffffffffffffffffffff1673ffffffffffffffffffffffffffffffffffffffff1681526020016001820154815260200160028201548152602001600382016040518060600160405290816000820160009054906101000a900460ff16151515158152602001600182015481526020016002820154815250508152505081526020019060010190613c79565b505050508152602001600d820160009054906101000a900460ff16600a811115613db157613db0614b62565b5b600a811115613dc357613dc2614b62565b5b8152602001600e8201548152602001600f82015481526020016010820160009054906101000a900460ff161515151581526020016010820160019054906101000a900460ff161515151581526020016010820160029054906101000a900473ffffffffffffffffffffffffffffffffffffffff1673ffffffffffffffffffffffffffffffffffffffff1673ffffffffffffffffffffffffffffffffffffffff168152505090506000808260400151600060028110613e8457613e83614e6c565b5b60200201516040015173ffffffffffffffffffffffffffffffffffffffff163373ffffffffffffffffffffffffffffffffffffffff1603613ecc576001915060009050613ed5565b60009150600190505b600083604001518360028110613eee57613eed614e6c565b5b6020020151606001519050886000808c81526020019081526020016000206001018360028110613f2157613f20614e6c565b5b600602016001018190555060008114158015613f3c57508881145b1561401b57886000808c8152602001908152602001600020600e018190555060026000808c8152602001908152602001600020600d0160006101000a81548160ff0219169083600a811115613f9457613f93614b62565b5b02179055507fa63491c3e48c84a30c1a58128201bca4fd87bb84850cda339020ce19051e5a908a8560400151600060028110613fd357613fd2614e6c565b5b6020020151604001518660400151600160028110613ff457613ff3614e6c565b5b6020020151604001518c60405161400e9493929190615190565b60405180910390a1614078565b7f4adf94e8b5302c48b3df6533aa17748538d68a74af46f0a894839b61fbf3f1bf8a338660400151866002811061405557614054614e6c565b5b6020020151604001518c60405161406f9493929190615190565b60405180910390a15b50505050505050505050565b600080600083815260200190815260200160002060000160009054906101000a900460ff1680156140ee57506000808381526020019081526020016000206001016000600281106140d8576140d7614e6c565b5b6006020160000160009054906101000a900460ff165b1561412a5760008083815260200190815260200160002060010160006002811061411b5761411a614e6c565b5b6006020160010154905061412f565b600090505b919050565b61413c61462f565b61414461462f565b60008084815260200190815260200160002060010160006002811061416c5761416b614e6c565b5b6006020160000160029054906101000a900473ffffffffffffffffffffffffffffffffffffffff1673ffffffffffffffffffffffffffffffffffffffff163373ffffffffffffffffffffffffffffffffffffffff1603614209576000816000600281106141dc576141db614e6c565b5b6020020181815250506001816001600281106141fb576141fa614e6c565b5b602002018181525050614248565b60018160006002811061421f5761421e614e6c565b5b60200201818152505060008160016002811061423e5761423d614e6c565b5b6020020181815250505b80915050919050565b60008282600080838152602001908152602001600020600101816002811061427c5761427b614e6c565b5b6006020160000160009054906101000a900460ff1661429e5761429d614e9b565b5b60008083815260200190815260200160002050600281106142c2576142c1614e9b565b5b8460008082815260200190815260200160002060000160009054906101000a900460ff166142f3576142f2614e9b565b5b600080878152602001908152602001600020600101856002811061431a57614319614e6c565b5b6006020160020154935050505092915050565b60008282600080838152602001908152602001600020600101816002811061435857614357614e6c565b5b6006020160000160009054906101000a900460ff1661437a57614379614e9b565b5b600080838152602001908152602001600020506002811061439e5761439d614e9b565b5b8460008082815260200190815260200160002060000160009054906101000a900460ff166143cf576143ce614e9b565b5b60008087815260200190815260200160002060010185600281106143f6576143f5614e6c565b5b6006020160030160000160009054906101000a900460ff16935050505092915050565b600082614427868685614432565b149050949350505050565b60008082905060005b8585905081101561447e576144698287878481811061445d5761445c614e6c565b5b9050602002013561448a565b9150808061447690614f22565b91505061443b565b50809150509392505050565b60008183106144a25761449d82846144b5565b6144ad565b6144ac83836144b5565b5b905092915050565b600082600052816020526040600020905092915050565b826002600602810192821561461e579160060282015b8281111561461d5782826000820160009054906101000a900460ff168160000160006101000a81548160ff0219169083151502179055506000820160019054906101000a900460ff168160000160016101000a81548160ff0219169083151502179055506000820160029054906101000a900473ffffffffffffffffffffffffffffffffffffffff168160000160026101000a81548173ffffffffffffffffffffffffffffffffffffffff021916908373ffffffffffffffffffffffffffffffffffffffff160217905550600182015481600101556002820154816002015560038201816003016000820160009054906101000a900460ff168160000160006101000a81548160ff021916908315150217905550600182015481600101556002820154816002015550505050916006019190600601906144e2565b5b50905061462b9190614651565b5090565b6040518060400160405280600290602082028036833780820191505090505090565b5b808211156146ee57600080820160006101000a81549060ff02191690556000820160016101000a81549060ff02191690556000820160026101000a81549073ffffffffffffffffffffffffffffffffffffffff02191690556001820160009055600282016000905560038201600080820160006101000a81549060ff021916905560018201600090556002820160009055505050600601614652565b5090565b600080fd5b600080fd5b6000819050919050565b61470f816146fc565b811461471a57600080fd5b50565b60008135905061472c81614706565b92915050565b600060208284031215614748576147476146f2565b5b60006147568482850161471d565b91505092915050565b60008115159050919050565b6147748161475f565b82525050565b600060208201905061478f600083018461476b565b92915050565b600080fd5b600080fd5b600080fd5b60008083601f8401126147ba576147b9614795565b5b8235905067ffffffffffffffff8111156147d7576147d661479a565b5b6020830191508360208202830111156147f3576147f261479f565b5b9250929050565b60008060208385031215614811576148106146f2565b5b600083013567ffffffffffffffff81111561482f5761482e6146f7565b5b61483b858286016147a4565b92509250509250929050565b600082825260208201905092915050565b600080fd5b82818337505050565b60006148728385614847565b93507f07ffffffffffffffffffffffffffffffffffffffffffffffffffffffffffffff8311156148a5576148a4614858565b5b6020830292506148b683858461485d565b82840190509392505050565b600060208201905081810360008301526148dd818486614866565b90509392505050565b6000819050919050565b6148f9816148e6565b811461490457600080fd5b50565b600081359050614916816148f0565b92915050565b60008060408385031215614933576149326146f2565b5b60006149418582860161471d565b925050602061495285828601614907565b9150509250929050565b600073ffffffffffffffffffffffffffffffffffffffff82169050919050565b60006149878261495c565b9050919050565b6149978161497c565b82525050565b60006020820190506149b2600083018461498e565b92915050565b6149c18161475f565b81146149cc57600080fd5b50565b6000813590506149de816149b8565b92915050565b6000602082840312156149fa576149f96146f2565b5b6000614a08848285016149cf565b91505092915050565b614a1a816148e6565b82525050565b6000602082019050614a356000830184614a11565b92915050565b600060ff82169050919050565b614a5181614a3b565b82525050565b6000602082019050614a6c6000830184614a48565b92915050565b614a7b816146fc565b82525050565b6000602082019050614a966000830184614a72565b92915050565b614aa581614a3b565b8114614ab057600080fd5b50565b600081359050614ac281614a9c565b92915050565b60008060008060008060a08789031215614ae557614ae46146f2565b5b6000614af389828a0161471d565b9650506020614b0489828a01614ab3565b9550506040614b1589828a016149cf565b9450506060614b2689828a01614907565b935050608087013567ffffffffffffffff811115614b4757614b466146f7565b5b614b5389828a016147a4565b92509250509295509295509295565b7f4e487b7100000000000000000000000000000000000000000000000000000000600052602160045260246000fd5b600b8110614ba257614ba1614b62565b5b50565b6000819050614bb382614b91565b919050565b6000614bc382614ba5565b9050919050565b614bd381614bb8565b82525050565b6000602082019050614bee6000830184614bca565b92915050565b60008060008060608587031215614c0e57614c0d6146f2565b5b6000614c1c87828801614907565b9450506020614c2d87828801614907565b935050604085013567ffffffffffffffff811115614c4e57614c4d6146f7565b5b614c5a878288016147a4565b925092505092959194509250565b60008060408385031215614c7f57614c7e6146f2565b5b6000614c8d85828601614ab3565b9250506020614c9e858286016149cf565b9150509250929050565b600081519050919050565b600082825260208201905092915050565b60005b83811015614ce2578082015181840152602081019050614cc7565b60008484015250505050565b6000601f19601f8301169050919050565b6000614d0a82614ca8565b614d148185614cb3565b9350614d24818560208601614cc4565b614d2d81614cee565b840191505092915050565b60006020820190508181036000830152614d528184614cff565b905092915050565b600b8110614d6757600080fd5b50565b600081359050614d7981614d5a565b92915050565b60008060408385031215614d9657614d956146f2565b5b6000614da48582860161471d565b9250506020614db585828601614d6a565b9150509250929050565b60008060408385031215614dd657614dd56146f2565b5b6000614de48582860161471d565b9250506020614df585828601614ab3565b9150509250929050565b600060208284031215614e1557614e146146f2565b5b6000614e2384828501614907565b91505092915050565b60008060408385031215614e4357614e426146f2565b5b6000614e518582860161471d565b9250506020614e628582860161471d565b9150509250929050565b7f4e487b7100000000000000000000000000000000000000000000000000000000600052603260045260246000fd5b7f4e487b7100000000000000000000000000000000000000000000000000000000600052600160045260246000fd5b6000604082019050614edf6000830185614a72565b614eec602083018461498e565b9392505050565b7f4e487b7100000000000000000000000000000000000000000000000000000000600052601160045260246000fd5b6000614f2d826146fc565b91507fffffffffffffffffffffffffffffffffffffffffffffffffffffffffffffffff8203614f5f57614f5e614ef3565b5b600182019050919050565b6000606082019050614f7f600083018661498e565b614f8c602083018561498e565b614f996040830184614a72565b949350505050565b6000614fac82614a3b565b9150614fb783614a3b565b9250828202614fc581614a3b565b9150808214614fd757614fd6614ef3565b5b5092915050565b6000608082019050614ff36000830187614a72565b6150006020830186614a48565b61500d604083018561476b565b61501a606083018461476b565b95945050505050565b6000819050919050565b6000819050919050565b600061505261504d61504884615023565b61502d565b6146fc565b9050919050565b61506281615037565b82525050565b600061508361507e61507984615023565b61502d565b614a3b565b9050919050565b61509381615068565b82525050565b60006080820190506150ae6000830187615059565b6150bb602083018661508a565b6150c8604083018561476b565b6150d5606083018461476b565b95945050505050565b60006040820190506150f36000830185614a48565b615100602083018461476b565b9392505050565b6000615112826146fc565b91506000820361512557615124614ef3565b5b600182039050919050565b60006040820190506151456000830185614a72565b6151526020830184614a48565b9392505050565b600060608201905061516e6000830186614a72565b61517b602083018561498e565b615188604083018461498e565b949350505050565b60006080820190506151a56000830187614a72565b6151b2602083018661498e565b6151bf604083018561498e565b6151cc6060830184614a72565b9594505050505056fea264697066735822122023a64734c5bd8c4be1d68ee40e61f60a2edada6f0d9cc658def54641bd4201fe64736f6c63430008130033",
  "immutableReferences": {},
  "source": "// SPDX-License-Identifier: MIT\r\npragma solidity >=0.4.22 <0.9.0;\r\n\r\ncontract Battleships {\r\n    uint8 public constant NUMBER_OF_SHIP_SQUARES = 20;\r\n    uint8 public constant BOARD_SIZE = 8;\r\n    enum GameStates{\r\n        WAITING, \r\n        SETTING_STAKE, \r\n        ACCEPTING_PAYMENT,\r\n        PLACING_SHIPS, \r\n        P0_FIRING,\r\n        P1_CHECKING,\r\n        P1_FIRING,\r\n        P0_CHECKING,\r\n        CHECKING_WINNER,\r\n        DONE,\r\n        NONE\r\n    }\r\n\r\n    // In this struct we save the view a player has of its opponent's board\r\n    struct Board{\r\n        bool valid;\r\n        // N*N matrix of bits to store hits\r\n        // bool[BOARD_SIZE][BOARD_SIZE] shots;\r\n        // # of enemy pieces still left on the board\r\n        // goes down by one each time we receive one 'you hit' event\r\n        uint totalPieces;\r\n        // 8*8, we use this to avoid cheating\r\n        uint totalShots;\r\n    }\r\n\r\n    struct Player{\r\n        bool valid;\r\n        bool hasPaidStake;\r\n        address playerAddress;\r\n        uint proposedStake;\r\n        bytes32 boardTreeRoot;\r\n        Board shots_board;\r\n    }\r\n\r\n    struct Game{\r\n        bool valid;\r\n        bool canPay;\r\n        // host is always player[0]\r\n        Player[2] players;\r\n        GameStates state;\r\n        uint decidedStake;\r\n        // used for foul accusation, a foul is triggered after 5 blocks\r\n        uint blockNumber;\r\n        // player 0 or player 1\r\n        // might turn it into address, we will see\r\n        bool accuser;\r\n        // whether or not this game should be in the public pool of joinable games\r\n        bool privateGame;\r\n        address winner;\r\n    }\r\n\r\n    mapping(uint => Game) private openGames;\r\n\r\n    Game private gameTrampoline;\r\n    Player private playerTrampoline;\r\n    Board private trampolineBoard;\r\n    // used in generating UUIDs for the games\r\n    // for now we are gonna use this as-is\r\n    // start at 1 as 0 is used for a non-existing game\r\n    // TODO: deal with it overflowing\r\n    uint private gameCounter;\r\n    uint private lastOpenGame;\r\n    address private owner;\r\n\r\n    constructor() {\r\n        gameCounter = 1;\r\n        lastOpenGame = 1;\r\n        owner = msg.sender;\r\n    }\r\n\r\n    event ShareID(address _from, address _to, uint _gameID);\r\n    event GameStart(uint _gameID, address _host, address _challenger);\r\n    event SuggestedStake(uint _gameID, address _from, address _to, uint _stakeValue);\r\n    event GamePayable(uint _gameID, address _host, address _challenger, uint _stakeValue);\r\n    event StakePaid(uint _gameID, address _whoPaid);\r\n    event AcceptingBoards(uint _gameID);\r\n    event BoardAcknowledgeEvent(uint _gameID, address _player);\r\n    event PlayerZeroTurn(uint _gameID);\r\n    event ShotsFired(uint _gameID, uint8 _location);\r\n    event ShotsChecked(uint _gameID, uint8 _location, bool _claim, bool _validity);\r\n    event RequestBoard(uint _gameID, address _winner);\r\n    event Victory(uint _gameID, address _winner);\r\n\r\n    error InvalidGameID();\r\n    error NotInGame();\r\n    error StakeAlreadyDeposited();\r\n    error WrongStakeAmount(uint expectedStakeValue);\r\n\r\n    // Used for debug only\r\n    modifier ownerOnly(){\r\n        assert(msg.sender == owner);\r\n        _;\r\n    }\r\n\r\n    modifier gameExists(uint gameID){\r\n        assert(openGames[gameID].valid);\r\n        _;\r\n    }\r\n\r\n    modifier isInGame(uint gameID){\r\n        assert((openGames[gameID].players[0].playerAddress == msg.sender) || (openGames[gameID].players[1].playerAddress == msg.sender));\r\n        _;\r\n    }\r\n\r\n    modifier assertState(uint gameID, GameStates _state){\r\n        if(_state != GameStates.P0_FIRING && _state != GameStates.P1_FIRING && _state != GameStates.P0_CHECKING && _state != GameStates.P1_CHECKING)\r\n            assert(openGames[gameID].state == _state);\r\n        else{\r\n            // We check firing states with P0_FIRING and checking states with P0_CHECKING, for both players\r\n            uint[2] memory indexes = getIndexSender(gameID);\r\n            if(_state == GameStates.P0_FIRING){\r\n                if(indexes[0] == 0)\r\n                    assert(openGames[gameID].state == _state);\r\n                else\r\n                    assert(openGames[gameID].state == GameStates.P1_FIRING);\r\n            }\r\n            else if(_state == GameStates.P0_CHECKING){\r\n                if(indexes[0] == 0)\r\n                    assert(openGames[gameID].state == _state);\r\n                else\r\n                    assert(openGames[gameID].state == GameStates.P1_CHECKING);\r\n            }\r\n            else assert(false);\r\n        }\r\n        _;\r\n    }\r\n\r\n    modifier playerInRange(uint gameID, uint index){\r\n        assert(openGames[gameID].players[index].valid);\r\n        assert(index < openGames[gameID].players.length);\r\n        _;\r\n    }\r\n\r\n    modifier shotOnBoard(uint8 location){\r\n        assert(location < (BOARD_SIZE*BOARD_SIZE));\r\n        _;\r\n    }\r\n\r\n    function getIndexSender (uint gameID) view private returns(uint[2] memory) {\r\n        // indexes[0]: msg.sender index\r\n        // indexes[1]: msg.sender opponent's index\r\n        uint[2] memory indexes;\r\n        if(msg.sender == openGames[gameID].players[0].playerAddress){\r\n            indexes[0] = 0;\r\n            indexes[1] = 1;\r\n        } else {\r\n            indexes[0] = 1;\r\n            indexes[1] = 0;\r\n        }\r\n        return indexes;\r\n    }\r\n\r\n    // Code from OpenZeppelin's project\r\n    // https://github.com/OpenZeppelin\r\n    function verifyCalldata(\r\n    bytes32[] calldata proof,\r\n    bytes32 root,\r\n    bytes32 leaf\r\n    ) internal pure returns (bool) {\r\n        return processProofCalldata(proof, leaf) == root;\r\n    }\r\n\r\n    function processProofCalldata(\r\n        bytes32[] calldata proof,\r\n        bytes32 leaf\r\n    ) internal pure returns (bytes32) {\r\n        bytes32 computedHash = leaf;\r\n        for (uint256 i = 0; i < proof.length; i++) {\r\n            computedHash = _hashPair(computedHash, proof[i]);\r\n        }\r\n        return computedHash;\r\n    }\r\n\r\n    function _hashPair(bytes32 a, bytes32 b)\r\n        private\r\n        pure\r\n        returns(bytes32)\r\n    {\r\n        return a < b ? _efficientHash(a, b) : _efficientHash(b, a);\r\n    }\r\n\r\n    function _efficientHash(bytes32 a, bytes32 b)\r\n        private\r\n        pure\r\n        returns (bytes32 value)\r\n    {\r\n        assembly {\r\n            mstore(0x00, a)\r\n            mstore(0x20, b)\r\n            value := keccak256(0x00, 0x40)\r\n        }\r\n    }\r\n    // end of OpenZeppelin code\r\n\r\n    // create a Game value, add it to openGames, populate the Player[0]\r\n    function newGame(bool isPrivate) public {\r\n        uint gameID = gameCounter;\r\n        gameCounter++;\r\n        Game storage game = gameTrampoline;\r\n        Player storage host = playerTrampoline;\r\n        host.playerAddress = msg.sender;\r\n        host.valid = true;\r\n        host.hasPaidStake = false;\r\n        game.players[0] = host;\r\n        game.state = GameStates.WAITING;\r\n        game.privateGame = isPrivate;\r\n        game.valid = true;\r\n        game.canPay = false;\r\n        openGames[gameID] = game;\r\n        emit ShareID(address(this), msg.sender, gameID);\r\n        return;\r\n    }\r\n    \r\n    function joinGame(uint gameID) public {\r\n        if(gameID == 0){\r\n            // pick an unassigned game in sequential order\r\n            gameID = lastOpenGame;\r\n            while(gameID <= gameCounter){\r\n                // ignore games with sender as host (you can still join your own games directly if you're that lonely)\r\n                if(openGames[gameID].valid == true && \r\n                    openGames[gameID].state == GameStates.WAITING && \r\n                    openGames[gameID].players[0].playerAddress != msg.sender && \r\n                    !openGames[gameID].privateGame){\r\n                    break;\r\n                }\r\n                gameID++;\r\n            }\r\n            // update the lastOpenGame counter no matter what\r\n            lastOpenGame = gameID;\r\n        }\r\n        // if the game wasn't valid, throw an error\r\n        assert(openGames[gameID].valid);\r\n        // set msg sender as this game's player 2\r\n        Player storage challenger = playerTrampoline;\r\n        challenger.playerAddress = msg.sender;\r\n        challenger.valid = true;\r\n        challenger.hasPaidStake = false;\r\n        openGames[gameID].players[1] = challenger;\r\n        // update this game's status\r\n        openGames[gameID].state = GameStates.SETTING_STAKE;\r\n        // alert the players\r\n        emit GameStart(gameID, openGames[gameID].players[0].playerAddress, msg.sender);\r\n        return;\r\n    }\r\n\r\n    function checkGameState(uint gameID) public view returns (GameStates) {\r\n        if (openGames[gameID].valid){\r\n            return openGames[gameID].state;\r\n        }\r\n        else \r\n            return(GameStates.NONE);\r\n    }\r\n\r\n    function checkGamePlayerOne(uint gameID) public view returns (address) {\r\n        if (openGames[gameID].valid && openGames[gameID].players[0].valid){\r\n            return openGames[gameID].players[0].playerAddress;\r\n        }\r\n        else \r\n            return(address(0));\r\n    }\r\n\r\n    function checkGamePlayerTwo(uint gameID) public view returns (address) {\r\n        if (openGames[gameID].valid && openGames[gameID].players[1].valid){\r\n            return openGames[gameID].players[1].playerAddress;\r\n        }\r\n        else \r\n            return(address(0));\r\n    }\r\n\r\n    // Function to propose and agree upon a stake between players\r\n    function proposeStake(uint gameID, uint stakeValue) gameExists(gameID) isInGame(gameID) assertState(gameID, GameStates.SETTING_STAKE) public{\r\n        Game memory game = openGames[gameID];\r\n        // Check whether or not this player's opponent has already proposed a stake\r\n        uint opponentIndex;\r\n        uint stakerIndex;\r\n        if(msg.sender == game.players[0].playerAddress){\r\n            opponentIndex = 1;\r\n            stakerIndex = 0;\r\n        } else {\r\n            opponentIndex = 0;\r\n            stakerIndex = 1;\r\n        }\r\n        uint opponentStake = game.players[opponentIndex].proposedStake;\r\n        // set this player's proposed stake to their message\r\n        openGames[gameID].players[stakerIndex].proposedStake = stakeValue;\r\n        // if the opponent has proposed a stake we check whether or not it equals the one proposed by us\r\n        // 0 is not a valid stake\r\n        if(opponentStake != 0 && opponentStake == stakeValue){\r\n            openGames[gameID].decidedStake = stakeValue;\r\n            openGames[gameID].state = GameStates.ACCEPTING_PAYMENT;\r\n            emit GamePayable(gameID, game.players[0].playerAddress, game.players[1].playerAddress, stakeValue);\r\n        }else{\r\n            emit SuggestedStake(gameID, msg.sender, game.players[opponentIndex].playerAddress, stakeValue);\r\n        }\r\n        return;\r\n    }\r\n\r\n    function checkStakePlayerOne(uint gameID) public view returns (uint) {\r\n        if (openGames[gameID].valid && openGames[gameID].players[0].valid){\r\n            return openGames[gameID].players[0].proposedStake;\r\n        }\r\n        else \r\n            return(0);\r\n    }\r\n\r\n    function checkStakePlayerTwo(uint gameID) public view returns (uint) {\r\n        if (openGames[gameID].valid && openGames[gameID].players[1].valid){\r\n            return openGames[gameID].players[1].proposedStake;\r\n        }\r\n        else \r\n            return(0);\r\n    }\r\n\r\n    function checkStakeGame(uint gameID) public view returns (uint) {\r\n        if (openGames[gameID].valid && openGames[gameID].players[0].valid && openGames[gameID].players[1].valid)\r\n            return openGames[gameID].decidedStake;\r\n        else\r\n            return(0);\r\n    }\r\n    \r\n    function payStake(uint gameID) gameExists(gameID) isInGame(gameID) assertState(gameID, GameStates.ACCEPTING_PAYMENT) external payable {\r\n        if((msg.sender == openGames[gameID].players[0].playerAddress && openGames[gameID].players[0].hasPaidStake) ||\r\n            (msg.sender == openGames[gameID].players[1].playerAddress && openGames[gameID].players[1].hasPaidStake))\r\n            revert StakeAlreadyDeposited();\r\n        // only accept payments for the exact amount owed\r\n        if(msg.value != openGames[gameID].decidedStake)\r\n            revert WrongStakeAmount(openGames[gameID].decidedStake);\r\n        // now we check who the sender is\r\n        uint senderIndex;\r\n        uint challengerIndex;\r\n        if(msg.sender == openGames[gameID].players[0].playerAddress){\r\n            senderIndex = 0;\r\n            challengerIndex = 1;\r\n        }else{\r\n            senderIndex = 1;\r\n            challengerIndex = 0;\r\n        }\r\n        openGames[gameID].players[senderIndex].hasPaidStake = true;\r\n        emit StakePaid(gameID, msg.sender);\r\n        // if both players have paid the owed stake the game can move on to its next state\r\n        if(openGames[gameID].players[challengerIndex].hasPaidStake){\r\n            openGames[gameID].state = GameStates.PLACING_SHIPS;\r\n            emit AcceptingBoards(gameID);\r\n        }\r\n    }\r\n\r\n    function checkPaymentPlayerOne(uint gameID) public view returns (bool) {\r\n        if (openGames[gameID].valid && openGames[gameID].players[0].valid){\r\n            return openGames[gameID].players[0].hasPaidStake;\r\n        }\r\n        else \r\n            return(false);\r\n    }\r\n\r\n    function checkPaymentPlayerTwo(uint gameID) public view returns (bool) {\r\n        if (openGames[gameID].valid && openGames[gameID].players[1].valid){\r\n            return openGames[gameID].players[1].hasPaidStake;\r\n        }\r\n        else \r\n            return(false);\r\n    }\r\n\r\n    function checkGamePayable(uint gameID) public view returns (bool) {\r\n        if (openGames[gameID].valid && openGames[gameID].players[0].valid && openGames[gameID].players[1].valid)\r\n            return openGames[gameID].canPay;\r\n        else\r\n            return(false);\r\n    }\r\n    \r\n    function PlaceShips(uint gameID, bytes32 boardRoot) gameExists(gameID) isInGame(gameID) assertState(gameID, GameStates.PLACING_SHIPS) public{\r\n        uint index;\r\n        uint oppIdx;\r\n        msg.sender == openGames[gameID].players[0].playerAddress ? index = 0 : index = 1;\r\n        msg.sender == openGames[gameID].players[0].playerAddress ? oppIdx = 1 : oppIdx = 0;\r\n        require(openGames[gameID].players[index].boardTreeRoot == 0x0);\r\n        // Instantiate a new shots board\r\n        // Instantiate the Board struct itself and assign it to a player\r\n        Board storage playerBoard = trampolineBoard;\r\n        trampolineBoard.valid = true;\r\n        trampolineBoard.totalPieces = NUMBER_OF_SHIP_SQUARES;\r\n        trampolineBoard.totalShots = BOARD_SIZE;\r\n        openGames[gameID].players[index].shots_board = playerBoard;\r\n        // save the received boardRoot, finally\r\n        openGames[gameID].players[index].boardTreeRoot = boardRoot;\r\n        emit BoardAcknowledgeEvent(gameID, msg.sender);\r\n        if(openGames[gameID].players[oppIdx].boardTreeRoot != 0x0){\r\n            openGames[gameID].state = GameStates.P0_FIRING;\r\n            emit PlayerZeroTurn(gameID);\r\n        }\r\n    }\r\n\r\n    function getPlayerBoardRoot(uint gameID, uint index) playerInRange(gameID, index) gameExists(gameID) private view returns(bytes32){\r\n        return openGames[gameID].players[index].boardTreeRoot;\r\n    }\r\n\r\n    function getPlayerOneBoardRoot(uint gameID) public view returns (bytes32){\r\n        return getPlayerBoardRoot(gameID, 0);\r\n    }\r\n\r\n    function getPlayerTwoBoardRoot(uint gameID) public view returns (bytes32){\r\n        return getPlayerBoardRoot(gameID, 1);\r\n    }\r\n\r\n    // We should never have any use for these following functions\r\n    // Marking them as DEPRECATED now\r\n    // we will see if they survive the cutting room floor\r\n    \r\n    // DEPRECATED\r\n    function getPlayerShotsBoard(uint gameID, uint index) playerInRange(gameID, index) gameExists(gameID) private view returns(bool){\r\n        return openGames[gameID].players[index].shots_board.valid;\r\n    }\r\n\r\n    // DEPRECATED\r\n    function getPlayerOneShotsBoard(uint gameID) public view returns (bool){\r\n        return getPlayerShotsBoard(gameID, 0);\r\n    }\r\n\r\n    // DEPRECATED\r\n    function getPlayerTwoShotsBoard(uint gameID) public view returns (bool){\r\n        return getPlayerShotsBoard(gameID, 1);\r\n    }\r\n\r\n    // for info on what location is see \"Implementation of the user-side game board\" in README.md\r\n    function FireTorpedo(uint gameID, uint8 location) gameExists(gameID) isInGame(gameID) shotOnBoard(location) assertState(gameID, GameStates.P0_FIRING) public {\r\n        uint[2] memory indexes = getIndexSender(gameID);\r\n        // Rotate into correct next state\r\n        openGames[gameID].state == GameStates.P0_FIRING ? openGames[gameID].state = GameStates.P1_CHECKING : openGames[gameID].state = GameStates.P0_CHECKING;\r\n        // Now for some game logic\r\n        // whatever happens, we lower the totalShots counter of our system by one\r\n        openGames[gameID].players[indexes[0]].shots_board.totalShots--;\r\n        // Then we evaluate whether or not this is zero. If it is, This party wins automatically.\r\n        // We do this here to avoid opponents stalling out on the reply for 5 blocks on what is a foregone conclusion\r\n        if (openGames[gameID].players[indexes[0]].shots_board.totalShots == 0){\r\n            // VerifyWinner(gameID, index, oppIdx);\r\n        } else {\r\n            emit ShotsFired(gameID, location);\r\n        }\r\n    }\r\n    \r\n    function ConfirmShot(uint gameID, uint8 location, bool isHit, bytes32 leaf, bytes32[] calldata proof) gameExists(gameID) isInGame(gameID) shotOnBoard(location) assertState(gameID, GameStates.P0_CHECKING) public {\r\n        uint[2] memory indexes = getIndexSender(gameID);\r\n        // This very time consuming copy is needed because apparently using gameID directly causes a stack-too-deep issue.\r\n        Game memory tmpGame = openGames[gameID];\r\n        // make sure this node corresponds to the board tile and truth value we are checking\r\n        assert(leaf == GenLeafNode(location, isHit));\r\n        // execute the proof test\r\n        if(verifyCalldata(proof, tmpGame.players[indexes[0]].boardTreeRoot, leaf)){\r\n            // we could verify this user's proof\r\n            // rotate state\r\n            openGames[gameID].state == GameStates.P1_CHECKING ? openGames[gameID].state = GameStates.P1_FIRING : openGames[gameID].state = GameStates.P0_FIRING;\r\n            emit ShotsChecked(gameID, location, isHit, true);\r\n        } else {\r\n            // else we mark him as foul'd but do NOT rotate the state.\r\n            // TODO IMPLEMENT FOUL MECHANICS\r\n            emit ShotsChecked(gameID, location, isHit, false);\r\n        }\r\n    }\r\n\r\n    // this function generates a node locally in the same way a client would generate it\r\n    // it could be internal, we keep it public for now for debug purposes\r\n    function GenLeafNode(uint8 tile, bool ship) pure public returns (bytes32) {\r\n        return keccak256(abi.encode(tile,ship));\r\n    }\r\n\r\n    // a player who sees their address here will need to call VerifyWinner\r\n    function RequestWinnerBoard(uint gameID, address winnerAddress) private {\r\n        emit RequestBoard(gameID, winnerAddress);\r\n        // TODO: start foul counter\r\n    }\r\n\r\n    function VerifyWinner(\r\n    uint gameID, \r\n    uint winnerIndex, \r\n    uint8[] calldata tiles,\r\n    bool[] calldata ships,\r\n    bytes32[] calldata nodes,\r\n    bytes32[][] calldata proofs,\r\n    bytes32 root\r\n    ) gameExists(gameID) isInGame(gameID) assertState(gameID, GameStates.CHECKING_WINNER) private {\r\n        assert(root == openGames[gameID].players[winnerIndex].boardTreeRoot);\r\n        assert(tiles.length == (BOARD_SIZE*BOARD_SIZE));\r\n        assert(ships.length == (BOARD_SIZE*BOARD_SIZE));\r\n        // First operation: make sure this board really has the required number of ships on it\r\n        // and make sure the winner didn't send us a different board\r\n        // in the same cycle, verify that the node is part of the tree\r\n        // we already made sure this root is the correct one\r\n        uint8 shipsTotal = 0;\r\n        for(uint8 i = 0; i < (BOARD_SIZE*BOARD_SIZE); i++){\r\n            if(ships[i])\r\n                shipsTotal++;\r\n            assert(nodes[i] == GenLeafNode(tiles[i], ships[i]));\r\n            assert(verifyCalldata(proofs[i], root, nodes[i]));\r\n        }\r\n        assert(shipsTotal == NUMBER_OF_SHIP_SQUARES);\r\n        // we don't use a conditional branch to alert the other player, as a Foul has already been triggered.\r\n        address verifiedWinner = msg.sender;\r\n        openGames[gameID].canPay = true;\r\n        openGames[gameID].winner = verifiedWinner;\r\n        emit Victory(gameID, msg.sender);\r\n    }\r\n\r\n    // Assortment of debug functions\r\n    \r\n     function PreviewLeafNode(uint8 tile, bool ship) pure public returns (bytes memory) {\r\n        return abi.encode(tile, ship);\r\n    }\r\n\r\n    function QuickCheck(bytes32 leaf, bytes32 root, bytes32[] calldata proof) public returns (bool){\r\n        bool forTheDebugger = verifyCalldata(proof, root, leaf);\r\n        emit ShotsChecked(0, 0, false, forTheDebugger);\r\n        return forTheDebugger;\r\n    }\r\n    \r\n\r\n    function EchoBytes(bytes32 proof) pure public returns (bytes32) {\r\n        return proof;\r\n    }\r\n\r\n    function EchoProof(bytes32[] calldata proof) pure public returns (bytes32[] calldata) {\r\n        return proof;\r\n    }\r\n\r\n    function ChangeState(uint gameID, GameStates state) ownerOnly() public {\r\n        openGames[gameID].state = state;\r\n    }\r\n}",
  "sourcePath": "F:\\Documents\\Code\\School\\P2PBC\\Battleships\\contracts\\Battleships.sol",
  "compiler": {
    "name": "solc",
    "version": "0.8.19+commit.7dd6d404.Emscripten.clang"
  },
  "schemaVersion": "3.4.13",
  "updatedAt": "2023-05-24T19:45:45.232Z",
  "networkType": "ethereum",
  "devdoc": {
    "kind": "dev",
    "methods": {},
    "version": 1
  },
  "userdoc": {
    "kind": "user",
    "methods": {},
    "version": 1
  }
}