{
  "contractName": "Battleships",
  "abi": [
    {
      "inputs": [],
      "stateMutability": "nonpayable",
      "type": "constructor"
    },
    {
      "inputs": [
        {
          "internalType": "bool",
          "name": "isPrivate",
          "type": "bool"
        }
      ],
      "name": "newGame",
      "outputs": [
        {
          "internalType": "uint256",
          "name": "",
          "type": "uint256"
        }
      ],
      "stateMutability": "nonpayable",
      "type": "function"
    },
    {
      "inputs": [
        {
          "internalType": "uint256",
          "name": "gameID",
          "type": "uint256"
        }
      ],
      "name": "checkGameState",
      "outputs": [
        {
          "internalType": "uint256",
          "name": "",
          "type": "uint256"
        }
      ],
      "stateMutability": "view",
      "type": "function"
    },
    {
      "inputs": [
        {
          "internalType": "uint256",
          "name": "gameID",
          "type": "uint256"
        }
      ],
      "name": "checkGamePlayerOne",
      "outputs": [
        {
          "internalType": "address",
          "name": "",
          "type": "address"
        }
      ],
      "stateMutability": "view",
      "type": "function"
    },
    {
      "inputs": [
        {
          "internalType": "uint256",
          "name": "gameID",
          "type": "uint256"
        }
      ],
      "name": "checkGamePlayerTwo",
      "outputs": [
        {
          "internalType": "address",
          "name": "",
          "type": "address"
        }
      ],
      "stateMutability": "view",
      "type": "function"
    }
  ],
  "bytecode": "0x608060405234801561001057600080fd5b506000600281905550610edd806100286000396000f3fe608060405234801561001057600080fd5b506004361061004c5760003560e01c80631de95425146100515780632b170aac146100815780639a7e4cea146100b1578063d46d0777146100e1575b600080fd5b61006b60048036038101906100669190610ce9565b610111565b6040516100789190610d57565b60405180910390f35b61009b60048036038101906100969190610daa565b610160565b6040516100a89190610de6565b60405180910390f35b6100cb60048036038101906100c69190610ce9565b610424565b6040516100d89190610de6565b60405180910390f35b6100fb60048036038101906100f69190610ce9565b610454565b6040516101089190610d57565b60405180910390f35b60008061011d836104a3565b905080600001511561015557806020015160008151811061014157610140610e01565b5b60200260200101516020015191505061015b565b60009150505b919050565b60008060025490506002600081548092919061017b90610e5f565b9190505550600080600083815260200190815260200160002090506000816001016000815481106101af576101ae610e01565b5b90600052602060002090600d02019050338160000160016101000a81548173ffffffffffffffffffffffffffffffffffffffff021916908373ffffffffffffffffffffffffffffffffffffffff160217905550808260010160008154811061021a57610219610e01565b5b90600052602060002090600d02016000820160009054906101000a900460ff168160000160006101000a81548160ff0219169083151502179055506000820160019054906101000a900473ffffffffffffffffffffffffffffffffffffffff168160000160016101000a81548173ffffffffffffffffffffffffffffffffffffffff021916908373ffffffffffffffffffffffffffffffffffffffff160217905550600182015481600101556002820154816002015560038201816003016000820160009054906101000a900460ff168160000160006101000a81548160ff021916908315150217905550600182018160010190600861031b929190610995565b5060098201548160090155505090505060008260020181905550848260040160016101000a81548160ff021916908315150217905550816000808581526020019081526020016000206000820160009054906101000a900460ff168160000160006101000a81548160ff02191690831515021790555060018201816001019080546103a79291906109df565b5060028201548160020155600382015481600301556004820160009054906101000a900460ff168160040160006101000a81548160ff0219169083151502179055506004820160019054906101000a900460ff168160040160016101000a81548160ff021916908315150217905550905050829350505050919050565b600080610430836104a3565b905080600001511561044957806040015191505061044f565b60089150505b919050565b600080610460836104a3565b905080600001511561049857806020015160018151811061048457610483610e01565b5b60200260200101516020015191505061049e565b60009150505b919050565b6104ab610b37565b6104b3610b37565b60008084815260200190815260200160002060000160009054906101000a900460ff1615610720576000808481526020019081526020016000206040518060c00160405290816000820160009054906101000a900460ff1615151515815260200160018201805480602002602001604051908101604052809291908181526020016000905b828210156106c757838290600052602060002090600d02016040518060a00160405290816000820160009054906101000a900460ff161515151581526020016000820160019054906101000a900473ffffffffffffffffffffffffffffffffffffffff1673ffffffffffffffffffffffffffffffffffffffff1673ffffffffffffffffffffffffffffffffffffffff1681526020016001820154815260200160028201548152602001600382016040518060600160405290816000820160009054906101000a900460ff1615151515815260200160018201600880602002604051908101604052809291906000905b828210156106a25783820160088060200260405190810160405280929190826008801561068e576020028201916000905b82829054906101000a900460ff161515815260200190600101906020826000010492830192600103820291508084116106585790505b505050505081526020019060010190610627565b5050505081526020016009820154815250508152505081526020019060010190610538565b50505050815260200160028201548152602001600382015481526020016004820160009054906101000a900460ff161515151581526020016004820160019054906101000a900460ff161515151581525050905061098c565b6001600084815260200190815260200160002060000160009054906101000a900460ff161561098b57600160008481526020019081526020016000206040518060c00160405290816000820160009054906101000a900460ff1615151515815260200160018201805480602002602001604051908101604052809291908181526020016000905b8282101561093657838290600052602060002090600d02016040518060a00160405290816000820160009054906101000a900460ff161515151581526020016000820160019054906101000a900473ffffffffffffffffffffffffffffffffffffffff1673ffffffffffffffffffffffffffffffffffffffff1673ffffffffffffffffffffffffffffffffffffffff1681526020016001820154815260200160028201548152602001600382016040518060600160405290816000820160009054906101000a900460ff1615151515815260200160018201600880602002604051908101604052809291906000905b82821015610911578382016008806020026040519081016040528092919082600880156108fd576020028201916000905b82829054906101000a900460ff161515815260200190600101906020826000010492830192600103820291508084116108c75790505b505050505081526020019060010190610896565b50505050815260200160098201548152505081525050815260200190600101906107a7565b50505050815260200160028201548152602001600382015481526020016004820160009054906101000a900460ff161515151581526020016004820160019054906101000a900460ff16151515158152505090505b5b80915050919050565b82600881019282156109ce579182015b828111156109cd5782829060086109bd929190610b73565b50916001019190600101906109a5565b5b5090506109db9190610bbe565b5090565b82805482825590600052602060002090600d028101928215610b2657600052602060002091600d0282015b82811115610b255782826000820160009054906101000a900460ff168160000160006101000a81548160ff0219169083151502179055506000820160019054906101000a900473ffffffffffffffffffffffffffffffffffffffff168160000160016101000a81548173ffffffffffffffffffffffffffffffffffffffff021916908373ffffffffffffffffffffffffffffffffffffffff160217905550600182015481600101556002820154816002015560038201816003016000820160009054906101000a900460ff168160000160006101000a81548160ff0219169083151502179055506001820181600101906008610b07929190610995565b50600982015481600901555050505091600d019190600d0190610a0a565b5b509050610b339190610be2565b5090565b6040518060c001604052806000151581526020016060815260200160008152602001600081526020016000151581526020016000151581525090565b826008601f01602090048101928215610bad5791601f016020900482015b82811115610bac578254825591600101919060010190610b91565b5b509050610bba9190610c77565b5090565b5b80821115610bde5760008181610bd59190610c94565b50600101610bbf565b5090565b5b80821115610c7357600080820160006101000a81549060ff02191690556000820160016101000a81549073ffffffffffffffffffffffffffffffffffffffff02191690556001820160009055600282016000905560038201600080820160006101000a81549060ff0219169055600182016000610c609190610c9b565b6009820160009055505050600d01610be3565b5090565b5b80821115610c90576000816000905550600101610c78565b5090565b5060009055565b508060080190610cab9190610bbe565b50565b600080fd5b6000819050919050565b610cc681610cb3565b8114610cd157600080fd5b50565b600081359050610ce381610cbd565b92915050565b600060208284031215610cff57610cfe610cae565b5b6000610d0d84828501610cd4565b91505092915050565b600073ffffffffffffffffffffffffffffffffffffffff82169050919050565b6000610d4182610d16565b9050919050565b610d5181610d36565b82525050565b6000602082019050610d6c6000830184610d48565b92915050565b60008115159050919050565b610d8781610d72565b8114610d9257600080fd5b50565b600081359050610da481610d7e565b92915050565b600060208284031215610dc057610dbf610cae565b5b6000610dce84828501610d95565b91505092915050565b610de081610cb3565b82525050565b6000602082019050610dfb6000830184610dd7565b92915050565b7f4e487b7100000000000000000000000000000000000000000000000000000000600052603260045260246000fd5b7f4e487b7100000000000000000000000000000000000000000000000000000000600052601160045260246000fd5b6000610e6a82610cb3565b91507fffffffffffffffffffffffffffffffffffffffffffffffffffffffffffffffff8203610e9c57610e9b610e30565b5b60018201905091905056fea2646970667358221220a04f19f77780d5f60e81e5faf3110229a2fd89eb0ad4573ed783d1ba9abdff3b64736f6c63430008130033",
  "immutableReferences": {},
  "source": "// SPDX-License-Identifier: MIT\r\npragma solidity >=0.4.22 <0.9.0;\r\n\r\ncontract Battleships {\r\n        struct Board{\r\n            bool valid;\r\n            // N*N matrix of bits to store hits\r\n            bool[8][8] shots;\r\n            uint totalPieces;\r\n        }\r\n\r\n        struct Player{\r\n            bool valid;\r\n            address playerAddress;\r\n            uint proposedStake;\r\n            bytes32 boardTreeRoot;\r\n            Board shots_board;\r\n        }\r\n\r\n        struct Game{\r\n            bool valid;\r\n            // host is always player[0]\r\n            Player[] players;\r\n            // 0: waiting; 1: setting stake; 2: placing ships; \r\n            // 3: player[0] firing turn; 4: player[1] response turn; \r\n            // 5: player[1] firing turn; 6: player[0] response turn; \r\n            // 7: done; 8: doesn't exist\r\n            uint state;\r\n            // used for foul accusation, a foul is triggered after 5 blocks\r\n            uint blockNumber;\r\n            // player 0 or player 1\r\n            // might turn it into address, we will see\r\n            bool accuser;\r\n            // not required: whether or not this game should be in the public pool of joinable games\r\n            bool privateGame;\r\n        }\r\n\r\n    // define a set of games available to join and a set of games already full\r\n    mapping(uint => Game) private openGames;\r\n    mapping(uint => Game) private fullGames;\r\n    // used in generating UUIDs for the games\r\n    // for now we are gonna use this as-is\r\n    // TODO: deal with it overflowing\r\n    uint private gameCounter;\r\n\r\n    constructor() {\r\n        gameCounter = 0;\r\n    }\r\n\r\n    // create a Game value, add it to openGames, populate the Player[0]\r\n    function newGame(bool isPrivate) public returns (uint) {\r\n        uint gameID = gameCounter;\r\n        gameCounter++;\r\n        Game storage game = openGames[gameID];\r\n        Player storage host = game.players[0];\r\n        host.playerAddress = msg.sender;\r\n        game.players[0] = host;\r\n        game.state = 0;\r\n        game.privateGame = isPrivate;\r\n        openGames[gameID] = game;\r\n        return gameID;\r\n    }\r\n\r\n    function getGamePosition (uint gameID) private view returns (Game memory){\r\n        Game memory gameChecked;\r\n        if(openGames[gameID].valid){\r\n            gameChecked = openGames[gameID];\r\n        }\r\n        else if(fullGames[gameID].valid){\r\n             gameChecked = fullGames[gameID];\r\n        }\r\n        return gameChecked;\r\n    }\r\n\r\n    function checkGameState(uint gameID) public view returns (uint) {\r\n        Game memory game = getGamePosition(gameID);\r\n        if (game.valid){\r\n            return game.state;\r\n        }\r\n        else \r\n            return(8);\r\n    }\r\n\r\n    function checkGamePlayerOne(uint gameID) public view returns (address) {\r\n        Game memory game = getGamePosition(gameID);\r\n        if (game.valid){\r\n            return game.players[0].playerAddress;\r\n        }\r\n        else \r\n            return(address(0));\r\n    }\r\n\r\n    function checkGamePlayerTwo(uint gameID) public view returns (address) {\r\n        Game memory game = getGamePosition(gameID);\r\n        if (game.valid){\r\n            return game.players[1].playerAddress;\r\n        }\r\n        else \r\n            return(address(0));\r\n    }\r\n}",
  "sourcePath": "F:\\Documents\\Code\\School\\P2PBC\\Battleships\\contracts\\Battleships.sol",
  "compiler": {
    "name": "solc",
    "version": "0.8.19+commit.7dd6d404.Emscripten.clang"
  },
  "schemaVersion": "3.4.13",
  "updatedAt": "2023-05-16T15:05:59.176Z",
  "devdoc": {
    "kind": "dev",
    "methods": {},
    "version": 1
  },
  "userdoc": {
    "kind": "user",
    "methods": {},
    "version": 1
  }
}