{
  "contractName": "Battleships",
  "abi": [
    {
      "inputs": [],
      "stateMutability": "nonpayable",
      "type": "constructor"
    },
    {
      "inputs": [
        {
          "internalType": "bool",
          "name": "isPrivate",
          "type": "bool"
        }
      ],
      "name": "newGame",
      "outputs": [
        {
          "internalType": "uint256",
          "name": "",
          "type": "uint256"
        }
      ],
      "stateMutability": "nonpayable",
      "type": "function"
    },
    {
      "inputs": [
        {
          "internalType": "uint256",
          "name": "gameID",
          "type": "uint256"
        }
      ],
      "name": "getGamePosition",
      "outputs": [
        {
          "components": [
            {
              "internalType": "bool",
              "name": "valid",
              "type": "bool"
            },
            {
              "components": [
                {
                  "internalType": "bool",
                  "name": "valid",
                  "type": "bool"
                },
                {
                  "internalType": "address",
                  "name": "playerAddress",
                  "type": "address"
                },
                {
                  "internalType": "uint256",
                  "name": "proposedStake",
                  "type": "uint256"
                },
                {
                  "internalType": "bytes32",
                  "name": "boardTreeRoot",
                  "type": "bytes32"
                },
                {
                  "components": [
                    {
                      "internalType": "bool",
                      "name": "valid",
                      "type": "bool"
                    },
                    {
                      "internalType": "bool[8][8]",
                      "name": "shots",
                      "type": "bool[8][8]"
                    },
                    {
                      "internalType": "uint256",
                      "name": "totalPieces",
                      "type": "uint256"
                    }
                  ],
                  "internalType": "struct Battleships.Board",
                  "name": "shots_board",
                  "type": "tuple"
                }
              ],
              "internalType": "struct Battleships.Player[]",
              "name": "players",
              "type": "tuple[]"
            },
            {
              "internalType": "uint256",
              "name": "state",
              "type": "uint256"
            },
            {
              "internalType": "uint256",
              "name": "blockNumber",
              "type": "uint256"
            },
            {
              "internalType": "bool",
              "name": "accuser",
              "type": "bool"
            },
            {
              "internalType": "bool",
              "name": "privateGame",
              "type": "bool"
            }
          ],
          "internalType": "struct Battleships.Game",
          "name": "",
          "type": "tuple"
        }
      ],
      "stateMutability": "view",
      "type": "function",
      "constant": true
    },
    {
      "inputs": [
        {
          "internalType": "uint256",
          "name": "gameID",
          "type": "uint256"
        }
      ],
      "name": "checkGameState",
      "outputs": [
        {
          "internalType": "uint256",
          "name": "",
          "type": "uint256"
        }
      ],
      "stateMutability": "view",
      "type": "function",
      "constant": true
    },
    {
      "inputs": [
        {
          "internalType": "uint256",
          "name": "gameID",
          "type": "uint256"
        }
      ],
      "name": "checkGamePlayerOne",
      "outputs": [
        {
          "internalType": "address",
          "name": "",
          "type": "address"
        }
      ],
      "stateMutability": "view",
      "type": "function",
      "constant": true
    },
    {
      "inputs": [
        {
          "internalType": "uint256",
          "name": "gameID",
          "type": "uint256"
        }
      ],
      "name": "checkGamePlayerTwo",
      "outputs": [
        {
          "internalType": "address",
          "name": "",
          "type": "address"
        }
      ],
      "stateMutability": "view",
      "type": "function",
      "constant": true
    }
  ],
  "bytecode": "0x608060405234801561001057600080fd5b50600060028190555061129f806100286000396000f3fe608060405234801561001057600080fd5b50600436106100575760003560e01c80631de954251461005c5780632b170aac1461008c5780639a7e4cea146100bc578063b1669f60146100ec578063d46d07771461011c575b600080fd5b61007660048036038101906100719190610d24565b61014c565b6040516100839190610d92565b60405180910390f35b6100a660048036038101906100a19190610de5565b61019b565b6040516100b39190610e21565b60405180910390f35b6100d660048036038101906100d19190610d24565b61045f565b6040516100e39190610e21565b60405180910390f35b61010660048036038101906101019190610d24565b61048f565b60405161011391906111a1565b60405180910390f35b61013660048036038101906101319190610d24565b610981565b6040516101439190610d92565b60405180910390f35b6000806101588361048f565b905080600001511561019057806020015160008151811061017c5761017b6111c3565b5b602002602001015160200151915050610196565b60009150505b919050565b6000806002549050600260008154809291906101b690611221565b9190505550600080600083815260200190815260200160002090506000816001016000815481106101ea576101e96111c3565b5b90600052602060002090600d02019050338160000160016101000a81548173ffffffffffffffffffffffffffffffffffffffff021916908373ffffffffffffffffffffffffffffffffffffffff1602179055508082600101600081548110610255576102546111c3565b5b90600052602060002090600d02016000820160009054906101000a900460ff168160000160006101000a81548160ff0219169083151502179055506000820160019054906101000a900473ffffffffffffffffffffffffffffffffffffffff168160000160016101000a81548173ffffffffffffffffffffffffffffffffffffffff021916908373ffffffffffffffffffffffffffffffffffffffff160217905550600182015481600101556002820154816002015560038201816003016000820160009054906101000a900460ff168160000160006101000a81548160ff02191690831515021790555060018201816001019060086103569291906109d0565b5060098201548160090155505090505060008260020181905550848260040160016101000a81548160ff021916908315150217905550816000808581526020019081526020016000206000820160009054906101000a900460ff168160000160006101000a81548160ff02191690831515021790555060018201816001019080546103e2929190610a1a565b5060028201548160020155600382015481600301556004820160009054906101000a900460ff168160040160006101000a81548160ff0219169083151502179055506004820160019054906101000a900460ff168160040160016101000a81548160ff021916908315150217905550905050829350505050919050565b60008061046b8361048f565b905080600001511561048457806040015191505061048a565b60089150505b919050565b610497610b72565b61049f610b72565b60008084815260200190815260200160002060000160009054906101000a900460ff161561070c576000808481526020019081526020016000206040518060c00160405290816000820160009054906101000a900460ff1615151515815260200160018201805480602002602001604051908101604052809291908181526020016000905b828210156106b357838290600052602060002090600d02016040518060a00160405290816000820160009054906101000a900460ff161515151581526020016000820160019054906101000a900473ffffffffffffffffffffffffffffffffffffffff1673ffffffffffffffffffffffffffffffffffffffff1673ffffffffffffffffffffffffffffffffffffffff1681526020016001820154815260200160028201548152602001600382016040518060600160405290816000820160009054906101000a900460ff1615151515815260200160018201600880602002604051908101604052809291906000905b8282101561068e5783820160088060200260405190810160405280929190826008801561067a576020028201916000905b82829054906101000a900460ff161515815260200190600101906020826000010492830192600103820291508084116106445790505b505050505081526020019060010190610613565b5050505081526020016009820154815250508152505081526020019060010190610524565b50505050815260200160028201548152602001600382015481526020016004820160009054906101000a900460ff161515151581526020016004820160019054906101000a900460ff1615151515815250509050610978565b6001600084815260200190815260200160002060000160009054906101000a900460ff161561097757600160008481526020019081526020016000206040518060c00160405290816000820160009054906101000a900460ff1615151515815260200160018201805480602002602001604051908101604052809291908181526020016000905b8282101561092257838290600052602060002090600d02016040518060a00160405290816000820160009054906101000a900460ff161515151581526020016000820160019054906101000a900473ffffffffffffffffffffffffffffffffffffffff1673ffffffffffffffffffffffffffffffffffffffff1673ffffffffffffffffffffffffffffffffffffffff1681526020016001820154815260200160028201548152602001600382016040518060600160405290816000820160009054906101000a900460ff1615151515815260200160018201600880602002604051908101604052809291906000905b828210156108fd578382016008806020026040519081016040528092919082600880156108e9576020028201916000905b82829054906101000a900460ff161515815260200190600101906020826000010492830192600103820291508084116108b35790505b505050505081526020019060010190610882565b5050505081526020016009820154815250508152505081526020019060010190610793565b50505050815260200160028201548152602001600382015481526020016004820160009054906101000a900460ff161515151581526020016004820160019054906101000a900460ff16151515158152505090505b5b80915050919050565b60008061098d8361048f565b90508060000151156109c55780602001516001815181106109b1576109b06111c3565b5b6020026020010151602001519150506109cb565b60009150505b919050565b8260088101928215610a09579182015b82811115610a085782829060086109f8929190610bae565b50916001019190600101906109e0565b5b509050610a169190610bf9565b5090565b82805482825590600052602060002090600d028101928215610b6157600052602060002091600d0282015b82811115610b605782826000820160009054906101000a900460ff168160000160006101000a81548160ff0219169083151502179055506000820160019054906101000a900473ffffffffffffffffffffffffffffffffffffffff168160000160016101000a81548173ffffffffffffffffffffffffffffffffffffffff021916908373ffffffffffffffffffffffffffffffffffffffff160217905550600182015481600101556002820154816002015560038201816003016000820160009054906101000a900460ff168160000160006101000a81548160ff0219169083151502179055506001820181600101906008610b429291906109d0565b50600982015481600901555050505091600d019190600d0190610a45565b5b509050610b6e9190610c1d565b5090565b6040518060c001604052806000151581526020016060815260200160008152602001600081526020016000151581526020016000151581525090565b826008601f01602090048101928215610be85791601f016020900482015b82811115610be7578254825591600101919060010190610bcc565b5b509050610bf59190610cb2565b5090565b5b80821115610c195760008181610c109190610ccf565b50600101610bfa565b5090565b5b80821115610cae57600080820160006101000a81549060ff02191690556000820160016101000a81549073ffffffffffffffffffffffffffffffffffffffff02191690556001820160009055600282016000905560038201600080820160006101000a81549060ff0219169055600182016000610c9b9190610cd6565b6009820160009055505050600d01610c1e565b5090565b5b80821115610ccb576000816000905550600101610cb3565b5090565b5060009055565b508060080190610ce69190610bf9565b50565b600080fd5b6000819050919050565b610d0181610cee565b8114610d0c57600080fd5b50565b600081359050610d1e81610cf8565b92915050565b600060208284031215610d3a57610d39610ce9565b5b6000610d4884828501610d0f565b91505092915050565b600073ffffffffffffffffffffffffffffffffffffffff82169050919050565b6000610d7c82610d51565b9050919050565b610d8c81610d71565b82525050565b6000602082019050610da76000830184610d83565b92915050565b60008115159050919050565b610dc281610dad565b8114610dcd57600080fd5b50565b600081359050610ddf81610db9565b92915050565b600060208284031215610dfb57610dfa610ce9565b5b6000610e0984828501610dd0565b91505092915050565b610e1b81610cee565b82525050565b6000602082019050610e366000830184610e12565b92915050565b610e4581610dad565b82525050565b600081519050919050565b600082825260208201905092915050565b6000819050602082019050919050565b610e8081610d71565b82525050565b610e8f81610cee565b82525050565b6000819050919050565b610ea881610e95565b82525050565b600060089050919050565b600081905092915050565b6000819050919050565b600060089050919050565b600081905092915050565b6000819050919050565b6000610efa8383610e3c565b60208301905092915050565b6000602082019050919050565b610f1c81610ece565b610f268184610ed9565b9250610f3182610ee4565b8060005b83811015610f62578151610f498782610eee565b9650610f5483610f06565b925050600181019050610f35565b505050505050565b6000610f768383610f13565b6101008301905092915050565b6000602082019050919050565b610f9981610eae565b610fa38184610eb9565b9250610fae82610ec4565b8060005b83811015610fdf578151610fc68782610f6a565b9650610fd183610f83565b925050600181019050610fb2565b505050505050565b61084082016000820151610ffe6000850182610e3c565b5060208201516110116020850182610f90565b506040820151611025610820850182610e86565b50505050565b6108c0820160008201516110426000850182610e3c565b5060208201516110556020850182610e77565b5060408201516110686040850182610e86565b50606082015161107b6060850182610e9f565b50608082015161108e6080850182610fe7565b50505050565b60006110a0838361102b565b6108c08301905092915050565b6000602082019050919050565b60006110c582610e4b565b6110cf8185610e56565b93506110da83610e67565b8060005b8381101561110b5781516110f28882611094565b97506110fd836110ad565b9250506001810190506110de565b5085935050505092915050565b600060c0830160008301516111306000860182610e3c565b506020830151848203602086015261114882826110ba565b915050604083015161115d6040860182610e86565b5060608301516111706060860182610e86565b5060808301516111836080860182610e3c565b5060a083015161119660a0860182610e3c565b508091505092915050565b600060208201905081810360008301526111bb8184611118565b905092915050565b7f4e487b7100000000000000000000000000000000000000000000000000000000600052603260045260246000fd5b7f4e487b7100000000000000000000000000000000000000000000000000000000600052601160045260246000fd5b600061122c82610cee565b91507fffffffffffffffffffffffffffffffffffffffffffffffffffffffffffffffff820361125e5761125d6111f2565b5b60018201905091905056fea264697066735822122016bc62e63a205a5a73f7f21a98bae95f7f12947198971b8b78923cb9dc4f48b864736f6c63430008130033",
  "immutableReferences": {},
  "source": "// SPDX-License-Identifier: MIT\r\npragma solidity >=0.4.22 <0.9.0;\r\n\r\ncontract Battleships {\r\n        struct Board{\r\n            bool valid;\r\n            // N*N matrix of bits to store hits\r\n            bool[8][8] shots;\r\n            uint totalPieces;\r\n        }\r\n\r\n        struct Player{\r\n            bool valid;\r\n            address playerAddress;\r\n            uint proposedStake;\r\n            bytes32 boardTreeRoot;\r\n            Board shots_board;\r\n        }\r\n\r\n        struct Game{\r\n            bool valid;\r\n            // host is always player[0]\r\n            Player[] players;\r\n            // 0: waiting; 1: setting stake; 2: placing ships; \r\n            // 3: player[0] firing turn; 4: player[1] response turn; \r\n            // 5: player[1] firing turn; 6: player[0] response turn; \r\n            // 7: done; 8: doesn't exist\r\n            uint state;\r\n            // used for foul accusation, a foul is triggered after 5 blocks\r\n            uint blockNumber;\r\n            // player 0 or player 1\r\n            // might turn it into address, we will see\r\n            bool accuser;\r\n            // not required: whether or not this game should be in the public pool of joinable games\r\n            bool privateGame;\r\n        }\r\n\r\n    // define a set of games available to join and a set of games already full\r\n    mapping(uint => Game) private openGames;\r\n    mapping(uint => Game) private fullGames;\r\n    // used in generating UUIDs for the games\r\n    // for now we are gonna use this as-is\r\n    // TODO: deal with it overflowing\r\n    uint private gameCounter;\r\n\r\n    constructor() {\r\n        gameCounter = 0;\r\n    }\r\n\r\n    // create a Game value, add it to openGames, populate the Player[0]\r\n    function newGame(bool isPrivate) public returns (uint) {\r\n        uint gameID = gameCounter;\r\n        gameCounter++;\r\n        Game storage game = openGames[gameID];\r\n        Player storage host = game.players[0];\r\n        host.playerAddress = msg.sender;\r\n        game.players[0] = host;\r\n        game.state = 0;\r\n        game.privateGame = isPrivate;\r\n        openGames[gameID] = game;\r\n        return gameID;\r\n    }\r\n\r\n    function getGamePosition (uint gameID) public view returns (Game memory){\r\n        Game memory gameChecked;\r\n        if(openGames[gameID].valid){\r\n            gameChecked = openGames[gameID];\r\n        }\r\n        else if(fullGames[gameID].valid){\r\n             gameChecked = fullGames[gameID];\r\n        }\r\n        return gameChecked;\r\n    }\r\n\r\n    function checkGameState(uint gameID) public view returns (uint) {\r\n        Game memory game = getGamePosition(gameID);\r\n        if (game.valid){\r\n            return game.state;\r\n        }\r\n        else \r\n            return(8);\r\n    }\r\n\r\n    function checkGamePlayerOne(uint gameID) public view returns (address) {\r\n        Game memory game = getGamePosition(gameID);\r\n        if (game.valid){\r\n            return game.players[0].playerAddress;\r\n        }\r\n        else \r\n            return(address(0));\r\n    }\r\n\r\n    function checkGamePlayerTwo(uint gameID) public view returns (address) {\r\n        Game memory game = getGamePosition(gameID);\r\n        if (game.valid){\r\n            return game.players[1].playerAddress;\r\n        }\r\n        else \r\n            return(address(0));\r\n    }\r\n}",
  "sourcePath": "F:\\Documents\\Code\\School\\P2PBC\\Battleships\\contracts\\Battleships.sol",
  "compiler": {
    "name": "solc",
    "version": "0.8.19+commit.7dd6d404.Emscripten.clang"
  },
  "schemaVersion": "3.4.13",
  "updatedAt": "2023-05-16T18:48:39.033Z",
  "networkType": "ethereum",
  "devdoc": {
    "kind": "dev",
    "methods": {},
    "version": 1
  },
  "userdoc": {
    "kind": "user",
    "methods": {},
    "version": 1
  }
}