{
  "contractName": "Battleships",
  "abi": [
    {
      "inputs": [],
      "stateMutability": "nonpayable",
      "type": "constructor"
    },
    {
      "anonymous": false,
      "inputs": [
        {
          "indexed": false,
          "internalType": "uint256",
          "name": "_id",
          "type": "uint256"
        },
        {
          "indexed": false,
          "internalType": "address",
          "name": "_host",
          "type": "address"
        },
        {
          "indexed": false,
          "internalType": "address",
          "name": "_challenger",
          "type": "address"
        }
      ],
      "name": "GameStart",
      "type": "event"
    },
    {
      "anonymous": false,
      "inputs": [
        {
          "indexed": false,
          "internalType": "address",
          "name": "_from",
          "type": "address"
        },
        {
          "indexed": false,
          "internalType": "address",
          "name": "_to",
          "type": "address"
        },
        {
          "indexed": false,
          "internalType": "uint256",
          "name": "_id",
          "type": "uint256"
        }
      ],
      "name": "ShareID",
      "type": "event"
    },
    {
      "inputs": [
        {
          "internalType": "bool",
          "name": "isPrivate",
          "type": "bool"
        }
      ],
      "name": "newGame",
      "outputs": [],
      "stateMutability": "nonpayable",
      "type": "function"
    },
    {
      "inputs": [
        {
          "internalType": "uint256",
          "name": "gameID",
          "type": "uint256"
        }
      ],
      "name": "checkGameState",
      "outputs": [
        {
          "internalType": "uint256",
          "name": "",
          "type": "uint256"
        }
      ],
      "stateMutability": "view",
      "type": "function",
      "constant": true
    },
    {
      "inputs": [
        {
          "internalType": "uint256",
          "name": "gameID",
          "type": "uint256"
        }
      ],
      "name": "checkGamePlayerOne",
      "outputs": [
        {
          "internalType": "address",
          "name": "",
          "type": "address"
        }
      ],
      "stateMutability": "view",
      "type": "function",
      "constant": true
    },
    {
      "inputs": [
        {
          "internalType": "uint256",
          "name": "gameID",
          "type": "uint256"
        }
      ],
      "name": "checkGamePlayerTwo",
      "outputs": [
        {
          "internalType": "address",
          "name": "",
          "type": "address"
        }
      ],
      "stateMutability": "view",
      "type": "function",
      "constant": true
    },
    {
      "inputs": [
        {
          "internalType": "uint256",
          "name": "gameID",
          "type": "uint256"
        }
      ],
      "name": "joinGame",
      "outputs": [],
      "stateMutability": "nonpayable",
      "type": "function"
    }
  ],
  "bytecode": "0x608060405234801561001057600080fd5b506001602c819055506001602d8190555061112c806100306000396000f3fe608060405234801561001057600080fd5b50600436106100575760003560e01c80631de954251461005c5780632b170aac1461008c5780639a7e4cea146100a8578063d46d0777146100d8578063efaa55a014610108575b600080fd5b61007660048036038101906100719190610e9b565b610124565b6040516100839190610f09565b60405180910390f35b6100a660048036038101906100a19190610f5c565b610170565b005b6100c260048036038101906100bd9190610e9b565b610466565b6040516100cf9190610f98565b60405180910390f35b6100f260048036038101906100ed9190610e9b565b610496565b6040516100ff9190610f09565b60405180910390f35b610122600480360381019061011d9190610e9b565b6104e2565b005b600080610130836107d8565b905080600001511561016557806020015160006002811061015457610153610fb3565b5b60200201516020015191505061016b565b60009150505b919050565b6000602c549050602c600081548092919061018a90611011565b91905055506000600190506000601f9050338160000160016101000a81548173ffffffffffffffffffffffffffffffffffffffff021916908373ffffffffffffffffffffffffffffffffffffffff16021790555060018160000160006101000a81548160ff021916908315150217905550808260010160006002811061021357610212610fb3565b5b600d02016000820160009054906101000a900460ff168160000160006101000a81548160ff0219169083151502179055506000820160019054906101000a900473ffffffffffffffffffffffffffffffffffffffff168160000160016101000a81548173ffffffffffffffffffffffffffffffffffffffff021916908373ffffffffffffffffffffffffffffffffffffffff160217905550600182015481600101556002820154816002015560038201816003016000820160009054906101000a900460ff168160000160006101000a81548160ff021916908315150217905550600182018160010190600861030a929190610a5f565b50600982015481600901555050905050600082601b01819055508382601d0160016101000a81548160ff02191690831515021790555060018260000160006101000a81548160ff021916908315150217905550816000808581526020019081526020016000206000820160009054906101000a900460ff168160000160006101000a81548160ff02191690831515021790555060018201816001019060026103b3929190610aa9565b50601b82015481601b0155601c82015481601c0155601d820160009054906101000a900460ff1681601d0160006101000a81548160ff021916908315150217905550601d820160019054906101000a900460ff1681601d0160016101000a81548160ff0219169083151502179055509050507f1edfba130181c8da1b98834639c59b5287912fcc01104c5a7a6e6c8cd194e30230338560405161045893929190611059565b60405180910390a150505050565b600080610472836107d8565b905080600001511561048b578060400151915050610491565b60089150505b919050565b6000806104a2836107d8565b90508060000151156104d75780602001516001600281106104c6576104c5610fb3565b5b6020020151602001519150506104dd565b60009150505b919050565b6000810361056957602d5490505b6000151560008083815260200190815260200160002060000160009054906101000a900460ff16151514801561053b57506000806000838152602001908152602001600020601b0154145b80156105495750602c548111155b1561056157808061055990611011565b9150506104f0565b80602d819055505b60008082815260200190815260200160002060000160009054906101000a900460ff1661059957610598611090565b5b6000601f9050338160000160016101000a81548173ffffffffffffffffffffffffffffffffffffffff021916908373ffffffffffffffffffffffffffffffffffffffff16021790555060018160000160006101000a81548160ff0219169083151502179055508060008084815260200190815260200160002060010160016002811061062857610627610fb3565b5b600d02016000820160009054906101000a900460ff168160000160006101000a81548160ff0219169083151502179055506000820160019054906101000a900473ffffffffffffffffffffffffffffffffffffffff168160000160016101000a81548173ffffffffffffffffffffffffffffffffffffffff021916908373ffffffffffffffffffffffffffffffffffffffff160217905550600182015481600101556002820154816002015560038201816003016000820160009054906101000a900460ff168160000160006101000a81548160ff021916908315150217905550600182018160010190600861071f929190610a5f565b506009820154816009015550509050506001600080848152602001908152602001600020601b01819055507fdf72bd9cb04731c1dfa0832a380e56504fda45508a7305083a9be0f343e934218260008085815260200190815260200160002060010160006002811061079457610793610fb3565b5b600d020160000160019054906101000a900473ffffffffffffffffffffffffffffffffffffffff16336040516107cc939291906110bf565b60405180910390a15050565b6107e0610bec565b6107e8610bec565b600083036107f9576107f8611090565b5b60008084815260200190815260200160002060000160009054906101000a900460ff1661082957610828611090565b5b6000808481526020019081526020016000206040518060c00160405290816000820160009054906101000a900460ff1615151515815260200160018201600280602002604051908101604052809291906000905b82821015610a02578382600d02016040518060a00160405290816000820160009054906101000a900460ff161515151581526020016000820160019054906101000a900473ffffffffffffffffffffffffffffffffffffffff1673ffffffffffffffffffffffffffffffffffffffff1673ffffffffffffffffffffffffffffffffffffffff1681526020016001820154815260200160028201548152602001600382016040518060600160405290816000820160009054906101000a900460ff1615151515815260200160018201600880602002604051908101604052809291906000905b828210156109dd578382016008806020026040519081016040528092919082600880156109c9576020028201916000905b82829054906101000a900460ff161515815260200190600101906020826000010492830192600103820291508084116109935790505b505050505081526020019060010190610962565b505050508152602001600982015481525050815250508152602001906001019061087d565b505050508152602001601b8201548152602001601c8201548152602001601d820160009054906101000a900460ff16151515158152602001601d820160019054906101000a900460ff161515151581525050905080915050919050565b8260088101928215610a98579182015b82811115610a97578282906008610a87929190610c2e565b5091600101919060010190610a6f565b5b509050610aa59190610c79565b5090565b826002600d028101928215610bdb5791600d0282015b82811115610bda5782826000820160009054906101000a900460ff168160000160006101000a81548160ff0219169083151502179055506000820160019054906101000a900473ffffffffffffffffffffffffffffffffffffffff168160000160016101000a81548173ffffffffffffffffffffffffffffffffffffffff021916908373ffffffffffffffffffffffffffffffffffffffff160217905550600182015481600101556002820154816002015560038201816003016000820160009054906101000a900460ff168160000160006101000a81548160ff0219169083151502179055506001820181600101906008610bbc929190610a5f565b50600982015481600901555050505091600d019190600d0190610abf565b5b509050610be89190610c9d565b5090565b6040518060c00160405280600015158152602001610c08610d32565b815260200160008152602001600081526020016000151581526020016000151581525090565b826008601f01602090048101928215610c685791601f016020900482015b82811115610c67578254825591600101919060010190610c4c565b5b509050610c759190610d5f565b5090565b5b80821115610c995760008181610c909190610d7c565b50600101610c7a565b5090565b5b80821115610d2e57600080820160006101000a81549060ff02191690556000820160016101000a81549073ffffffffffffffffffffffffffffffffffffffff02191690556001820160009055600282016000905560038201600080820160006101000a81549060ff0219169055600182016000610d1b9190610d83565b6009820160009055505050600d01610c9e565b5090565b60405180604001604052806002905b610d49610d96565b815260200190600190039081610d415790505090565b5b80821115610d78576000816000905550600101610d60565b5090565b5060009055565b508060080190610d939190610c79565b50565b6040518060a00160405280600015158152602001600073ffffffffffffffffffffffffffffffffffffffff1681526020016000815260200160008019168152602001610de0610de6565b81525090565b6040518060600160405280600015158152602001610e02610e0f565b8152602001600081525090565b6040518061010001604052806008905b610e27610e3d565b815260200190600190039081610e1f5790505090565b604051806101000160405280600890602082028036833780820191505090505090565b600080fd5b6000819050919050565b610e7881610e65565b8114610e8357600080fd5b50565b600081359050610e9581610e6f565b92915050565b600060208284031215610eb157610eb0610e60565b5b6000610ebf84828501610e86565b91505092915050565b600073ffffffffffffffffffffffffffffffffffffffff82169050919050565b6000610ef382610ec8565b9050919050565b610f0381610ee8565b82525050565b6000602082019050610f1e6000830184610efa565b92915050565b60008115159050919050565b610f3981610f24565b8114610f4457600080fd5b50565b600081359050610f5681610f30565b92915050565b600060208284031215610f7257610f71610e60565b5b6000610f8084828501610f47565b91505092915050565b610f9281610e65565b82525050565b6000602082019050610fad6000830184610f89565b92915050565b7f4e487b7100000000000000000000000000000000000000000000000000000000600052603260045260246000fd5b7f4e487b7100000000000000000000000000000000000000000000000000000000600052601160045260246000fd5b600061101c82610e65565b91507fffffffffffffffffffffffffffffffffffffffffffffffffffffffffffffffff820361104e5761104d610fe2565b5b600182019050919050565b600060608201905061106e6000830186610efa565b61107b6020830185610efa565b6110886040830184610f89565b949350505050565b7f4e487b7100000000000000000000000000000000000000000000000000000000600052600160045260246000fd5b60006060820190506110d46000830186610f89565b6110e16020830185610efa565b6110ee6040830184610efa565b94935050505056fea2646970667358221220b8687ec5e91b42b5560e025bb19ae5a4d450c172aca283c1b189936d58696cd764736f6c63430008130033",
  "immutableReferences": {},
  "source": "// SPDX-License-Identifier: MIT\r\npragma solidity >=0.4.22 <0.9.0;\r\n\r\ncontract Battleships {\r\n        struct Board{\r\n            bool valid;\r\n            // N*N matrix of bits to store hits\r\n            bool[8][8] shots;\r\n            uint totalPieces;\r\n        }\r\n\r\n        struct Player{\r\n            bool valid;\r\n            address playerAddress;\r\n            uint proposedStake;\r\n            bytes32 boardTreeRoot;\r\n            Board shots_board;\r\n        }\r\n\r\n        struct Game{\r\n            bool valid;\r\n            // host is always player[0]\r\n            Player[2] players;\r\n            // 0: waiting; 1: setting stake; 2: placing ships; \r\n            // 3: player[0] firing turn; 4: player[1] response turn; \r\n            // 5: player[1] firing turn; 6: player[0] response turn; \r\n            // 7: done; 8: doesn't exist\r\n            uint state;\r\n            // used for foul accusation, a foul is triggered after 5 blocks\r\n            uint blockNumber;\r\n            // player 0 or player 1\r\n            // might turn it into address, we will see\r\n            bool accuser;\r\n            // not required: whether or not this game should be in the public pool of joinable games\r\n            bool privateGame;\r\n        }\r\n\r\n    mapping(uint => Game) private openGames;\r\n\r\n    Game private gameTrampoline;\r\n    Player private playerTrampoline;\r\n    // used in generating UUIDs for the games\r\n    // for now we are gonna use this as-is\r\n    // start at 1 as 0 is used for a non-existing game\r\n    // TODO: deal with it overflowing\r\n    uint private gameCounter;\r\n    uint private lastOpenGame;\r\n\r\n    constructor() {\r\n        gameCounter = 1;\r\n        lastOpenGame = 1;\r\n    }\r\n\r\n    event ShareID(address _from, address _to, uint _id);\r\n    event GameStart(uint _id, address _host, address _challenger);\r\n\r\n    // create a Game value, add it to openGames, populate the Player[0]\r\n    function newGame(bool isPrivate) public {\r\n        uint gameID = gameCounter;\r\n        gameCounter++;\r\n        Game storage game = gameTrampoline;\r\n        Player storage host = playerTrampoline;\r\n        host.playerAddress = msg.sender;\r\n        host.valid = true;\r\n        game.players[0] = host;\r\n        game.state = 0;\r\n        game.privateGame = isPrivate;\r\n        game.valid = true;\r\n        openGames[gameID] = game;\r\n        emit ShareID(address(this), msg.sender, gameID);\r\n        return;\r\n    }\r\n\r\n    // fails when called on gameID of 0 (non-existing game)\r\n    function getGamePosition (uint gameID) private view returns (Game memory){\r\n        Game memory gameChecked;\r\n        assert(gameID != 0);\r\n        assert(openGames[gameID].valid);\r\n        gameChecked = openGames[gameID];\r\n        return gameChecked;\r\n    }\r\n\r\n    function checkGameState(uint gameID) public view returns (uint) {\r\n        Game memory game = getGamePosition(gameID);\r\n        if (game.valid){\r\n            return game.state;\r\n        }\r\n        else \r\n            return(8);\r\n    }\r\n\r\n    function checkGamePlayerOne(uint gameID) public view returns (address) {\r\n        Game memory game = getGamePosition(gameID);\r\n        if (game.valid){\r\n            return game.players[0].playerAddress;\r\n        }\r\n        else \r\n            return(address(0));\r\n    }\r\n\r\n    function checkGamePlayerTwo(uint gameID) public view returns (address) {\r\n        Game memory game = getGamePosition(gameID);\r\n        if (game.valid){\r\n            return game.players[1].playerAddress;\r\n        }\r\n        else \r\n            return(address(0));\r\n    }\r\n\r\n    function joinGame(uint gameID) public {\r\n        if(gameID == 0){\r\n            // pick an unassigned game in sequential order\r\n            gameID = lastOpenGame;\r\n            while(openGames[gameID].valid == false && openGames[gameID].state == 0 && gameID <= gameCounter){\r\n                gameID++;\r\n            }\r\n            // update the lastOpenGame counter no matter what\r\n            lastOpenGame = gameID;\r\n        }\r\n        // if the game wasn't valid, throw an error\r\n        assert(openGames[gameID].valid);\r\n        // set msg sender as this game's player 2\r\n        Player storage challenger = playerTrampoline;\r\n        challenger.playerAddress = msg.sender;\r\n        challenger.valid = true;\r\n        openGames[gameID].players[1] = challenger;\r\n        // update this game's status\r\n        openGames[gameID].state = 1;\r\n        // alert the players\r\n        emit GameStart(gameID, openGames[gameID].players[0].playerAddress, msg.sender);\r\n        return;\r\n    }\r\n}",
  "sourcePath": "F:\\Documents\\Code\\School\\P2PBC\\Battleships\\contracts\\Battleships.sol",
  "compiler": {
    "name": "solc",
    "version": "0.8.19+commit.7dd6d404.Emscripten.clang"
  },
  "schemaVersion": "3.4.13",
  "updatedAt": "2023-05-18T14:49:48.902Z",
  "networkType": "ethereum",
  "devdoc": {
    "kind": "dev",
    "methods": {},
    "version": 1
  },
  "userdoc": {
    "kind": "user",
    "methods": {},
    "version": 1
  }
}