{
  "contractName": "Battleships",
  "abi": [
    {
      "inputs": [],
      "stateMutability": "nonpayable",
      "type": "constructor"
    },
    {
      "inputs": [],
      "name": "InvalidGameID",
      "type": "error"
    },
    {
      "inputs": [],
      "name": "NotInGame",
      "type": "error"
    },
    {
      "inputs": [],
      "name": "StakeAlreadyDeposited",
      "type": "error"
    },
    {
      "inputs": [
        {
          "internalType": "uint256",
          "name": "expectedStakeValue",
          "type": "uint256"
        }
      ],
      "name": "WrongStakeAmount",
      "type": "error"
    },
    {
      "anonymous": false,
      "inputs": [
        {
          "indexed": false,
          "internalType": "uint256",
          "name": "_gameID",
          "type": "uint256"
        }
      ],
      "name": "AcceptingBoards",
      "type": "event"
    },
    {
      "anonymous": false,
      "inputs": [
        {
          "indexed": false,
          "internalType": "uint256",
          "name": "_gameID",
          "type": "uint256"
        },
        {
          "indexed": false,
          "internalType": "address",
          "name": "_player",
          "type": "address"
        }
      ],
      "name": "BoardAcknowledgeEvent",
      "type": "event"
    },
    {
      "anonymous": false,
      "inputs": [
        {
          "indexed": false,
          "internalType": "uint256",
          "name": "_gameID",
          "type": "uint256"
        },
        {
          "indexed": false,
          "internalType": "address",
          "name": "_host",
          "type": "address"
        },
        {
          "indexed": false,
          "internalType": "address",
          "name": "_challenger",
          "type": "address"
        },
        {
          "indexed": false,
          "internalType": "uint256",
          "name": "_stakeValue",
          "type": "uint256"
        }
      ],
      "name": "GamePayable",
      "type": "event"
    },
    {
      "anonymous": false,
      "inputs": [
        {
          "indexed": false,
          "internalType": "uint256",
          "name": "_gameID",
          "type": "uint256"
        },
        {
          "indexed": false,
          "internalType": "address",
          "name": "_host",
          "type": "address"
        },
        {
          "indexed": false,
          "internalType": "address",
          "name": "_challenger",
          "type": "address"
        }
      ],
      "name": "GameStart",
      "type": "event"
    },
    {
      "anonymous": false,
      "inputs": [
        {
          "indexed": false,
          "internalType": "uint256",
          "name": "_gameID",
          "type": "uint256"
        }
      ],
      "name": "PlayerZeroTurn",
      "type": "event"
    },
    {
      "anonymous": false,
      "inputs": [
        {
          "indexed": false,
          "internalType": "uint256",
          "name": "_gameID",
          "type": "uint256"
        },
        {
          "indexed": false,
          "internalType": "address",
          "name": "_winner",
          "type": "address"
        }
      ],
      "name": "RequestBoard",
      "type": "event"
    },
    {
      "anonymous": false,
      "inputs": [
        {
          "indexed": false,
          "internalType": "address",
          "name": "_from",
          "type": "address"
        },
        {
          "indexed": false,
          "internalType": "address",
          "name": "_to",
          "type": "address"
        },
        {
          "indexed": false,
          "internalType": "uint256",
          "name": "_gameID",
          "type": "uint256"
        }
      ],
      "name": "ShareID",
      "type": "event"
    },
    {
      "anonymous": false,
      "inputs": [
        {
          "indexed": false,
          "internalType": "uint256",
          "name": "_gameID",
          "type": "uint256"
        },
        {
          "indexed": false,
          "internalType": "uint8",
          "name": "_location",
          "type": "uint8"
        },
        {
          "indexed": false,
          "internalType": "bool",
          "name": "_claim",
          "type": "bool"
        },
        {
          "indexed": false,
          "internalType": "bool",
          "name": "_validity",
          "type": "bool"
        }
      ],
      "name": "ShotsChecked",
      "type": "event"
    },
    {
      "anonymous": false,
      "inputs": [
        {
          "indexed": false,
          "internalType": "uint256",
          "name": "_gameID",
          "type": "uint256"
        },
        {
          "indexed": false,
          "internalType": "uint8",
          "name": "_location",
          "type": "uint8"
        }
      ],
      "name": "ShotsFired",
      "type": "event"
    },
    {
      "anonymous": false,
      "inputs": [
        {
          "indexed": false,
          "internalType": "uint256",
          "name": "_gameID",
          "type": "uint256"
        },
        {
          "indexed": false,
          "internalType": "address",
          "name": "_whoPaid",
          "type": "address"
        }
      ],
      "name": "StakePaid",
      "type": "event"
    },
    {
      "anonymous": false,
      "inputs": [
        {
          "indexed": false,
          "internalType": "uint256",
          "name": "_gameID",
          "type": "uint256"
        },
        {
          "indexed": false,
          "internalType": "address",
          "name": "_from",
          "type": "address"
        },
        {
          "indexed": false,
          "internalType": "address",
          "name": "_to",
          "type": "address"
        },
        {
          "indexed": false,
          "internalType": "uint256",
          "name": "_stakeValue",
          "type": "uint256"
        }
      ],
      "name": "SuggestedStake",
      "type": "event"
    },
    {
      "anonymous": false,
      "inputs": [
        {
          "indexed": false,
          "internalType": "uint256",
          "name": "_gameID",
          "type": "uint256"
        },
        {
          "indexed": false,
          "internalType": "address",
          "name": "_winner",
          "type": "address"
        }
      ],
      "name": "Victory",
      "type": "event"
    },
    {
      "inputs": [],
      "name": "BOARD_SIZE",
      "outputs": [
        {
          "internalType": "uint8",
          "name": "",
          "type": "uint8"
        }
      ],
      "stateMutability": "view",
      "type": "function"
    },
    {
      "inputs": [],
      "name": "NUMBER_OF_SHIP_SQUARES",
      "outputs": [
        {
          "internalType": "uint8",
          "name": "",
          "type": "uint8"
        }
      ],
      "stateMutability": "view",
      "type": "function"
    },
    {
      "inputs": [
        {
          "internalType": "bool",
          "name": "isPrivate",
          "type": "bool"
        }
      ],
      "name": "newGame",
      "outputs": [],
      "stateMutability": "nonpayable",
      "type": "function"
    },
    {
      "inputs": [
        {
          "internalType": "uint256",
          "name": "gameID",
          "type": "uint256"
        }
      ],
      "name": "joinGame",
      "outputs": [],
      "stateMutability": "nonpayable",
      "type": "function"
    },
    {
      "inputs": [
        {
          "internalType": "uint256",
          "name": "gameID",
          "type": "uint256"
        }
      ],
      "name": "checkGameState",
      "outputs": [
        {
          "internalType": "enum Battleships.GameStates",
          "name": "",
          "type": "uint8"
        }
      ],
      "stateMutability": "view",
      "type": "function"
    },
    {
      "inputs": [
        {
          "internalType": "uint256",
          "name": "gameID",
          "type": "uint256"
        }
      ],
      "name": "checkGamePlayerOne",
      "outputs": [
        {
          "internalType": "address",
          "name": "",
          "type": "address"
        }
      ],
      "stateMutability": "view",
      "type": "function"
    },
    {
      "inputs": [
        {
          "internalType": "uint256",
          "name": "gameID",
          "type": "uint256"
        }
      ],
      "name": "checkGamePlayerTwo",
      "outputs": [
        {
          "internalType": "address",
          "name": "",
          "type": "address"
        }
      ],
      "stateMutability": "view",
      "type": "function"
    },
    {
      "inputs": [
        {
          "internalType": "uint256",
          "name": "gameID",
          "type": "uint256"
        },
        {
          "internalType": "uint256",
          "name": "stakeValue",
          "type": "uint256"
        }
      ],
      "name": "proposeStake",
      "outputs": [],
      "stateMutability": "nonpayable",
      "type": "function"
    },
    {
      "inputs": [
        {
          "internalType": "uint256",
          "name": "gameID",
          "type": "uint256"
        }
      ],
      "name": "checkStakePlayerOne",
      "outputs": [
        {
          "internalType": "uint256",
          "name": "",
          "type": "uint256"
        }
      ],
      "stateMutability": "view",
      "type": "function"
    },
    {
      "inputs": [
        {
          "internalType": "uint256",
          "name": "gameID",
          "type": "uint256"
        }
      ],
      "name": "checkStakePlayerTwo",
      "outputs": [
        {
          "internalType": "uint256",
          "name": "",
          "type": "uint256"
        }
      ],
      "stateMutability": "view",
      "type": "function"
    },
    {
      "inputs": [
        {
          "internalType": "uint256",
          "name": "gameID",
          "type": "uint256"
        }
      ],
      "name": "checkStakeGame",
      "outputs": [
        {
          "internalType": "uint256",
          "name": "",
          "type": "uint256"
        }
      ],
      "stateMutability": "view",
      "type": "function"
    },
    {
      "inputs": [
        {
          "internalType": "uint256",
          "name": "gameID",
          "type": "uint256"
        }
      ],
      "name": "payStake",
      "outputs": [],
      "stateMutability": "payable",
      "type": "function"
    },
    {
      "inputs": [
        {
          "internalType": "uint256",
          "name": "gameID",
          "type": "uint256"
        }
      ],
      "name": "checkPaymentPlayerOne",
      "outputs": [
        {
          "internalType": "bool",
          "name": "",
          "type": "bool"
        }
      ],
      "stateMutability": "view",
      "type": "function"
    },
    {
      "inputs": [
        {
          "internalType": "uint256",
          "name": "gameID",
          "type": "uint256"
        }
      ],
      "name": "checkPaymentPlayerTwo",
      "outputs": [
        {
          "internalType": "bool",
          "name": "",
          "type": "bool"
        }
      ],
      "stateMutability": "view",
      "type": "function"
    },
    {
      "inputs": [
        {
          "internalType": "uint256",
          "name": "gameID",
          "type": "uint256"
        }
      ],
      "name": "checkGamePayable",
      "outputs": [
        {
          "internalType": "bool",
          "name": "",
          "type": "bool"
        }
      ],
      "stateMutability": "view",
      "type": "function"
    },
    {
      "inputs": [
        {
          "internalType": "uint256",
          "name": "gameID",
          "type": "uint256"
        },
        {
          "internalType": "bytes32",
          "name": "boardRoot",
          "type": "bytes32"
        }
      ],
      "name": "PlaceShips",
      "outputs": [],
      "stateMutability": "nonpayable",
      "type": "function"
    },
    {
      "inputs": [
        {
          "internalType": "uint256",
          "name": "gameID",
          "type": "uint256"
        }
      ],
      "name": "getPlayerOneBoardRoot",
      "outputs": [
        {
          "internalType": "bytes32",
          "name": "",
          "type": "bytes32"
        }
      ],
      "stateMutability": "view",
      "type": "function"
    },
    {
      "inputs": [
        {
          "internalType": "uint256",
          "name": "gameID",
          "type": "uint256"
        }
      ],
      "name": "getPlayerTwoBoardRoot",
      "outputs": [
        {
          "internalType": "bytes32",
          "name": "",
          "type": "bytes32"
        }
      ],
      "stateMutability": "view",
      "type": "function"
    },
    {
      "inputs": [
        {
          "internalType": "uint256",
          "name": "gameID",
          "type": "uint256"
        }
      ],
      "name": "getPlayerOneShotsBoard",
      "outputs": [
        {
          "internalType": "bool",
          "name": "",
          "type": "bool"
        }
      ],
      "stateMutability": "view",
      "type": "function"
    },
    {
      "inputs": [
        {
          "internalType": "uint256",
          "name": "gameID",
          "type": "uint256"
        }
      ],
      "name": "getPlayerTwoShotsBoard",
      "outputs": [
        {
          "internalType": "bool",
          "name": "",
          "type": "bool"
        }
      ],
      "stateMutability": "view",
      "type": "function"
    },
    {
      "inputs": [
        {
          "internalType": "uint256",
          "name": "gameID",
          "type": "uint256"
        },
        {
          "internalType": "uint8",
          "name": "location",
          "type": "uint8"
        }
      ],
      "name": "FireTorpedo",
      "outputs": [],
      "stateMutability": "nonpayable",
      "type": "function"
    },
    {
      "inputs": [
        {
          "internalType": "uint256",
          "name": "gameID",
          "type": "uint256"
        },
        {
          "internalType": "uint8",
          "name": "location",
          "type": "uint8"
        },
        {
          "internalType": "bool",
          "name": "isHit",
          "type": "bool"
        },
        {
          "internalType": "bytes32",
          "name": "leaf",
          "type": "bytes32"
        },
        {
          "internalType": "bytes32[]",
          "name": "proof",
          "type": "bytes32[]"
        }
      ],
      "name": "ConfirmShot",
      "outputs": [],
      "stateMutability": "nonpayable",
      "type": "function"
    },
    {
      "inputs": [
        {
          "internalType": "uint8",
          "name": "tile",
          "type": "uint8"
        },
        {
          "internalType": "bool",
          "name": "ship",
          "type": "bool"
        }
      ],
      "name": "GenLeafNode",
      "outputs": [
        {
          "internalType": "bytes32",
          "name": "",
          "type": "bytes32"
        }
      ],
      "stateMutability": "pure",
      "type": "function"
    },
    {
      "inputs": [
        {
          "internalType": "uint256",
          "name": "gameID",
          "type": "uint256"
        },
        {
          "internalType": "uint8[]",
          "name": "tiles",
          "type": "uint8[]"
        },
        {
          "internalType": "bool[]",
          "name": "ships",
          "type": "bool[]"
        },
        {
          "internalType": "bytes32[]",
          "name": "nodes",
          "type": "bytes32[]"
        },
        {
          "internalType": "bytes32[][]",
          "name": "proofs",
          "type": "bytes32[][]"
        },
        {
          "internalType": "bytes32",
          "name": "root",
          "type": "bytes32"
        }
      ],
      "name": "VerifyWinner",
      "outputs": [],
      "stateMutability": "nonpayable",
      "type": "function"
    },
    {
      "inputs": [
        {
          "internalType": "uint8",
          "name": "tile",
          "type": "uint8"
        },
        {
          "internalType": "bool",
          "name": "ship",
          "type": "bool"
        }
      ],
      "name": "PreviewLeafNode",
      "outputs": [
        {
          "internalType": "bytes",
          "name": "",
          "type": "bytes"
        }
      ],
      "stateMutability": "pure",
      "type": "function"
    },
    {
      "inputs": [
        {
          "internalType": "bytes32",
          "name": "leaf",
          "type": "bytes32"
        },
        {
          "internalType": "bytes32",
          "name": "root",
          "type": "bytes32"
        },
        {
          "internalType": "bytes32[]",
          "name": "proof",
          "type": "bytes32[]"
        }
      ],
      "name": "QuickCheck",
      "outputs": [
        {
          "internalType": "bool",
          "name": "",
          "type": "bool"
        }
      ],
      "stateMutability": "nonpayable",
      "type": "function"
    },
    {
      "inputs": [
        {
          "internalType": "bytes32",
          "name": "proof",
          "type": "bytes32"
        }
      ],
      "name": "EchoBytes",
      "outputs": [
        {
          "internalType": "bytes32",
          "name": "",
          "type": "bytes32"
        }
      ],
      "stateMutability": "pure",
      "type": "function"
    },
    {
      "inputs": [
        {
          "internalType": "bytes32[]",
          "name": "proof",
          "type": "bytes32[]"
        }
      ],
      "name": "EchoProof",
      "outputs": [
        {
          "internalType": "bytes32[]",
          "name": "",
          "type": "bytes32[]"
        }
      ],
      "stateMutability": "pure",
      "type": "function"
    },
    {
      "inputs": [
        {
          "internalType": "uint256",
          "name": "gameID",
          "type": "uint256"
        },
        {
          "internalType": "enum Battleships.GameStates",
          "name": "state",
          "type": "uint8"
        }
      ],
      "name": "ChangeState",
      "outputs": [],
      "stateMutability": "nonpayable",
      "type": "function"
    },
    {
      "inputs": [
        {
          "internalType": "uint256",
          "name": "gameID",
          "type": "uint256"
        },
        {
          "internalType": "address",
          "name": "winner",
          "type": "address"
        }
      ],
      "name": "SetWinner",
      "outputs": [],
      "stateMutability": "nonpayable",
      "type": "function"
    }
  ],
  "bytecode": "0x608060405234801561001057600080fd5b506001602381905550600160248190555033602560006101000a81548173ffffffffffffffffffffffffffffffffffffffff021916908373ffffffffffffffffffffffffffffffffffffffff160217905550615adb80620000726000396000f3fe6080604052600436106101cd5760003560e01c806395287e96116100f7578063d46d077711610095578063ea8202e911610064578063ea8202e914610734578063efaa55a014610771578063f28ae7dd1461079a578063fba523b7146107c3576101cd565b8063d46d07771461067a578063dc4a3e95146106b7578063e0c6b52a146106e2578063e0dd9bb41461070b576101cd565b8063aab41fc5116100d1578063aab41fc51461059a578063ac2f9423146105d7578063bd7c88f814610600578063c8e2ef5d1461063d576101cd565b806395287e96146104f75780639a7e4cea14610520578063aa3ee9151461055d576101cd565b80634278d9861161016f5780635f7dbd2b1161013e5780635f7dbd2b146104295780636930aa4d14610466578063699f5aeb1461049157806379fbd95d146104ce576101cd565b80634278d986146103355780635345f53314610372578063542c0151146103af57806354d83c65146103ec576101cd565b80630eeca53e116101ab5780630eeca53e1461026857806316337b89146102a65780631de95425146102cf5780632b170aac1461030c576101cd565b8063012b61f0146101d257806302ecb0e81461020f5780630e37dcd01461024c575b600080fd5b3480156101de57600080fd5b506101f960048036038101906101f49190614cbc565b610800565b6040516102069190614d04565b60405180910390f35b34801561021b57600080fd5b5061023660048036038101906102319190614cbc565b6108e8565b6040516102439190614d04565b60405180910390f35b61026660048036038101906102619190614cbc565b6109a5565b005b34801561027457600080fd5b5061028f600480360381019061028a9190614d84565b61123b565b60405161029d929190614e4c565b60405180910390f35b3480156102b257600080fd5b506102cd60048036038101906102c89190614ea6565b61124b565b005b3480156102db57600080fd5b506102f660048036038101906102f19190614cbc565b611a9a565b6040516103039190614f27565b60405180910390f35b34801561031857600080fd5b50610333600480360381019061032e9190614f6e565b611b6a565b005b34801561034157600080fd5b5061035c60048036038101906103579190614cbc565b611fc5565b6040516103699190614faa565b60405180910390f35b34801561037e57600080fd5b5061039960048036038101906103949190614cbc565b611fd9565b6040516103a69190614d04565b60405180910390f35b3480156103bb57600080fd5b506103d660048036038101906103d19190614cbc565b611fed565b6040516103e39190614d04565b60405180910390f35b3480156103f857600080fd5b50610413600480360381019061040e9190614cbc565b612001565b6040516104209190614d04565b60405180910390f35b34801561043557600080fd5b50610450600480360381019061044b9190614cbc565b6120be565b60405161045d9190614faa565b60405180910390f35b34801561047257600080fd5b5061047b6120d2565b6040516104889190614fe1565b60405180910390f35b34801561049d57600080fd5b506104b860048036038101906104b39190614cbc565b6120d7565b6040516104c5919061500b565b60405180910390f35b3480156104da57600080fd5b506104f560048036038101906104f09190615052565b6121b2565b005b34801561050357600080fd5b5061051e600480360381019061051991906151ee565b612895565b005b34801561052c57600080fd5b5061054760048036038101906105429190614cbc565b612c60565b6040516105549190615375565b60405180910390f35b34801561056957600080fd5b50610584600480360381019061057f9190614cbc565b612cbe565b604051610591919061500b565b60405180910390f35b3480156105a657600080fd5b506105c160048036038101906105bc9190615390565b612d6e565b6040516105ce9190614d04565b60405180910390f35b3480156105e357600080fd5b506105fe60048036038101906105f99190615430565b612dca565b005b34801561060c57600080fd5b5061062760048036038101906106229190615470565b612e80565b6040516106349190614faa565b60405180910390f35b34801561064957600080fd5b50610664600480360381019061065f9190615470565b612eb3565b6040516106719190615540565b60405180910390f35b34801561068657600080fd5b506106a1600480360381019061069c9190614cbc565b612edf565b6040516106ae9190614f27565b60405180910390f35b3480156106c357600080fd5b506106cc612faf565b6040516106d99190614fe1565b60405180910390f35b3480156106ee57600080fd5b5061070960048036038101906107049190615587565b612fb4565b005b34801561071757600080fd5b50610732600480360381019061072d91906155c7565b613053565b005b34801561074057600080fd5b5061075b60048036038101906107569190615607565b61376f565b6040516107689190614faa565b60405180910390f35b34801561077d57600080fd5b5061079860048036038101906107939190614cbc565b613779565b005b3480156107a657600080fd5b506107c160048036038101906107bc9190615634565b613bc4565b005b3480156107cf57600080fd5b506107ea60048036038101906107e59190614cbc565b614534565b6040516107f7919061500b565b60405180910390f35b600080600083815260200190815260200160002060000160009054906101000a900460ff16801561086a575060008083815260200190815260200160002060010160006002811061085457610853615674565b5b6008020160000160009054906101000a900460ff165b80156108af575060008083815260200190815260200160002060010160016002811061089957610898615674565b5b6008020160000160009054906101000a900460ff165b156108de5760008083815260200190815260200160002060000160019054906101000a900460ff1690506108e3565b600090505b919050565b600080600083815260200190815260200160002060000160009054906101000a900460ff168015610952575060008083815260200190815260200160002060010160016002811061093c5761093b615674565b5b6008020160000160009054906101000a900460ff165b1561099b5760008083815260200190815260200160002060010160016002811061097f5761097e615674565b5b6008020160000160019054906101000a900460ff1690506109a0565b600090505b919050565b8060008082815260200190815260200160002060000160009054906101000a900460ff166109d6576109d56156a3565b5b813373ffffffffffffffffffffffffffffffffffffffff16600080838152602001908152602001600020600101600060028110610a1657610a15615674565b5b6008020160000160029054906101000a900473ffffffffffffffffffffffffffffffffffffffff1673ffffffffffffffffffffffffffffffffffffffff161480610ada57503373ffffffffffffffffffffffffffffffffffffffff16600080838152602001908152602001600020600101600160028110610a9a57610a99615674565b5b6008020160000160029054906101000a900473ffffffffffffffffffffffffffffffffffffffff1673ffffffffffffffffffffffffffffffffffffffff16145b610ae757610ae66156a3565b5b8260026004600a811115610afe57610afd6152fe565b5b81600a811115610b1157610b106152fe565b5b14158015610b4457506006600a811115610b2e57610b2d6152fe565b5b81600a811115610b4157610b406152fe565b5b14155b8015610b7557506007600a811115610b5f57610b5e6152fe565b5b81600a811115610b7257610b716152fe565b5b14155b8015610ba657506005600a811115610b9057610b8f6152fe565b5b81600a811115610ba357610ba26152fe565b5b14155b15610c065780600a811115610bbe57610bbd6152fe565b5b60008084815260200190815260200160002060110160009054906101000a900460ff16600a811115610bf357610bf26152fe565b5b14610c0157610c006156a3565b5b610e2e565b6000610c11836145e4565b90506004600a811115610c2757610c266152fe565b5b82600a811115610c3a57610c396152fe565b5b03610d1757600081600060028110610c5557610c54615674565b5b602002015103610cba5781600a811115610c7257610c716152fe565b5b60008085815260200190815260200160002060110160009054906101000a900460ff16600a811115610ca757610ca66152fe565b5b14610cb557610cb46156a3565b5b610d12565b6006600a811115610cce57610ccd6152fe565b5b60008085815260200190815260200160002060110160009054906101000a900460ff16600a811115610d0357610d026152fe565b5b14610d1157610d106156a3565b5b5b610e2c565b6007600a811115610d2b57610d2a6152fe565b5b82600a811115610d3e57610d3d6152fe565b5b03610e1b57600081600060028110610d5957610d58615674565b5b602002015103610dbe5781600a811115610d7657610d756152fe565b5b60008085815260200190815260200160002060110160009054906101000a900460ff16600a811115610dab57610daa6152fe565b5b14610db957610db86156a3565b5b610e16565b6005600a811115610dd257610dd16152fe565b5b60008085815260200190815260200160002060110160009054906101000a900460ff16600a811115610e0757610e066152fe565b5b14610e1557610e146156a3565b5b5b610e2b565b6000610e2a57610e296156a3565b5b5b5b505b600080868152602001908152602001600020600101600060028110610e5657610e55615674565b5b6008020160000160029054906101000a900473ffffffffffffffffffffffffffffffffffffffff1673ffffffffffffffffffffffffffffffffffffffff163373ffffffffffffffffffffffffffffffffffffffff16148015610ef15750600080868152602001908152602001600020600101600060028110610edb57610eda615674565b5b6008020160000160019054906101000a900460ff165b80610fbb5750600080868152602001908152602001600020600101600160028110610f1f57610f1e615674565b5b6008020160000160029054906101000a900473ffffffffffffffffffffffffffffffffffffffff1673ffffffffffffffffffffffffffffffffffffffff163373ffffffffffffffffffffffffffffffffffffffff16148015610fba5750600080868152602001908152602001600020600101600160028110610fa457610fa3615674565b5b6008020160000160019054906101000a900460ff165b5b15610ff2576040517f5e558b2300000000000000000000000000000000000000000000000000000000815260040160405180910390fd5b60008086815260200190815260200160002060120154341461106057600080868152602001908152602001600020601201546040517f66cb868a000000000000000000000000000000000000000000000000000000008152600401611057919061500b565b60405180910390fd5b60008060008088815260200190815260200160002060010160006002811061108b5761108a615674565b5b6008020160000160029054906101000a900473ffffffffffffffffffffffffffffffffffffffff1673ffffffffffffffffffffffffffffffffffffffff163373ffffffffffffffffffffffffffffffffffffffff16036110f25760009150600190506110fb565b60019150600090505b6001600080898152602001908152602001600020600101836002811061112457611123615674565b5b6008020160000160016101000a81548160ff0219169083151502179055507f95ddb9abe17699603c18cef7bcfd33947d19c8eb237e01edac0bd509b481339e87336040516111739291906156d2565b60405180910390a160008088815260200190815260200160002060010181600281106111a2576111a1615674565b5b6008020160000160019054906101000a900460ff161561123257600360008089815260200190815260200160002060110160006101000a81548160ff0219169083600a8111156111f5576111f46152fe565b5b02179055507f972651cf62ccc65bd2ba0fd996eb34701d5773844d3303545d5b4cb29738f10487604051611229919061500b565b60405180910390a15b50505050505050565b3660008383915091509250929050565b8160008082815260200190815260200160002060000160009054906101000a900460ff1661127c5761127b6156a3565b5b823373ffffffffffffffffffffffffffffffffffffffff166000808381526020019081526020016000206001016000600281106112bc576112bb615674565b5b6008020160000160029054906101000a900473ffffffffffffffffffffffffffffffffffffffff1673ffffffffffffffffffffffffffffffffffffffff16148061138057503373ffffffffffffffffffffffffffffffffffffffff166000808381526020019081526020016000206001016001600281106113405761133f615674565b5b6008020160000160029054906101000a900473ffffffffffffffffffffffffffffffffffffffff1673ffffffffffffffffffffffffffffffffffffffff16145b61138d5761138c6156a3565b5b8360036004600a8111156113a4576113a36152fe565b5b81600a8111156113b7576113b66152fe565b5b141580156113ea57506006600a8111156113d4576113d36152fe565b5b81600a8111156113e7576113e66152fe565b5b14155b801561141b57506007600a811115611405576114046152fe565b5b81600a811115611418576114176152fe565b5b14155b801561144c57506005600a811115611436576114356152fe565b5b81600a811115611449576114486152fe565b5b14155b156114ac5780600a811115611464576114636152fe565b5b60008084815260200190815260200160002060110160009054906101000a900460ff16600a811115611499576114986152fe565b5b146114a7576114a66156a3565b5b6116d4565b60006114b7836145e4565b90506004600a8111156114cd576114cc6152fe565b5b82600a8111156114e0576114df6152fe565b5b036115bd576000816000600281106114fb576114fa615674565b5b6020020151036115605781600a811115611518576115176152fe565b5b60008085815260200190815260200160002060110160009054906101000a900460ff16600a81111561154d5761154c6152fe565b5b1461155b5761155a6156a3565b5b6115b8565b6006600a811115611574576115736152fe565b5b60008085815260200190815260200160002060110160009054906101000a900460ff16600a8111156115a9576115a86152fe565b5b146115b7576115b66156a3565b5b5b6116d2565b6007600a8111156115d1576115d06152fe565b5b82600a8111156115e4576115e36152fe565b5b036116c1576000816000600281106115ff576115fe615674565b5b6020020151036116645781600a81111561161c5761161b6152fe565b5b60008085815260200190815260200160002060110160009054906101000a900460ff16600a811115611651576116506152fe565b5b1461165f5761165e6156a3565b5b6116bc565b6005600a811115611678576116776152fe565b5b60008085815260200190815260200160002060110160009054906101000a900460ff16600a8111156116ad576116ac6152fe565b5b146116bb576116ba6156a3565b5b5b6116d1565b60006116d0576116cf6156a3565b5b5b5b505b6000806000808981526020019081526020016000206001016000600281106116ff576116fe615674565b5b6008020160000160029054906101000a900473ffffffffffffffffffffffffffffffffffffffff1673ffffffffffffffffffffffffffffffffffffffff163373ffffffffffffffffffffffffffffffffffffffff1614611763576001915081611769565b60009150815b5060008089815260200190815260200160002060010160006002811061179257611791615674565b5b6008020160000160029054906101000a900473ffffffffffffffffffffffffffffffffffffffff1673ffffffffffffffffffffffffffffffffffffffff163373ffffffffffffffffffffffffffffffffffffffff16146117f65760009050806117fc565b60019050805b506000801b6000808a8152602001908152602001600020600101836002811061182857611827615674565b5b60080201600201541461183a57600080fd5b6000601e90506001601e60000160006101000a81548160ff021916908315150217905550601460ff16601e60010181905550600880611879919061572a565b60ff16601e6002018190555060005b600880611895919061572a565b60ff168110156118ea576000601e60030182604081106118b8576118b7615674565b5b602091828204019190066101000a81548160ff02191690831515021790555080806118e290615767565b915050611888565b50806000808b8152602001908152602001600020600101846002811061191357611912615674565b5b600802016003016000820160009054906101000a900460ff168160000160006101000a81548160ff021916908315150217905550600182015481600101556002820154816002015560038201816003019060406119719291906149b9565b50905050876000808b8152602001908152602001600020600101846002811061199d5761199c615674565b5b60080201600201819055507fde8cdabe60db81138d1e5580b73440f47ba010dbd18575d18bad0b750987001e89336040516119d99291906156d2565b60405180910390a16000801b6000808b81526020019081526020016000206001018360028110611a0c57611a0b615674565b5b600802016002015414611a8f5760046000808b815260200190815260200160002060110160006101000a81548160ff0219169083600a811115611a5257611a516152fe565b5b02179055507ff751b3d5e96ffa95a434b79874df7e232b82d5c688a5d61fd7b5c5ce8724712789604051611a86919061500b565b60405180910390a15b505050505050505050565b600080600083815260200190815260200160002060000160009054906101000a900460ff168015611b045750600080838152602001908152602001600020600101600060028110611aee57611aed615674565b5b6008020160000160009054906101000a900460ff165b15611b6057600080838152602001908152602001600020600101600060028110611b3157611b30615674565b5b6008020160000160029054906101000a900473ffffffffffffffffffffffffffffffffffffffff169050611b65565b600090505b919050565b6000602354905060236000815480929190611b8490615767565b9190505550600060019050600060169050338160000160026101000a81548173ffffffffffffffffffffffffffffffffffffffff021916908373ffffffffffffffffffffffffffffffffffffffff16021790555060018160000160006101000a81548160ff02191690831515021790555060008160000160016101000a81548160ff0219169083151502179055508082600101600060028110611c2a57611c29615674565b5b600802016000820160009054906101000a900460ff168160000160006101000a81548160ff0219169083151502179055506000820160019054906101000a900460ff168160000160016101000a81548160ff0219169083151502179055506000820160029054906101000a900473ffffffffffffffffffffffffffffffffffffffff168160000160026101000a81548173ffffffffffffffffffffffffffffffffffffffff021916908373ffffffffffffffffffffffffffffffffffffffff160217905550600182015481600101556002820154816002015560038201816003016000820160009054906101000a900460ff168160000160006101000a81548160ff02191690831515021790555060018201548160010155600282015481600201556003820181600301906040611d629291906149b9565b50505090505060008260110160006101000a81548160ff0219169083600a811115611d9057611d8f6152fe565b5b0217905550838260140160016101000a81548160ff02191690831515021790555060018260000160006101000a81548160ff02191690831515021790555060008260000160016101000a81548160ff021916908315150217905550816000808581526020019081526020016000206000820160009054906101000a900460ff168160000160006101000a81548160ff0219169083151502179055506000820160019054906101000a900460ff168160000160016101000a81548160ff0219169083151502179055506001820181600101906002611e6e929190614a04565b506011820160009054906101000a900460ff168160110160006101000a81548160ff0219169083600a811115611ea757611ea66152fe565b5b021790555060128201548160120155601382015481601301556014820160009054906101000a900460ff168160140160006101000a81548160ff0219169083151502179055506014820160019054906101000a900460ff168160140160016101000a81548160ff0219169083151502179055506014820160029054906101000a900473ffffffffffffffffffffffffffffffffffffffff168160140160026101000a81548173ffffffffffffffffffffffffffffffffffffffff021916908373ffffffffffffffffffffffffffffffffffffffff1602179055509050507f1edfba130181c8da1b98834639c59b5287912fcc01104c5a7a6e6c8cd194e302303385604051611fb7939291906157af565b60405180910390a150505050565b6000611fd2826001614701565b9050919050565b6000611fe68260016147dd565b9050919050565b6000611ffa8260006147dd565b9050919050565b600080600083815260200190815260200160002060000160009054906101000a900460ff16801561206b575060008083815260200190815260200160002060010160006002811061205557612054615674565b5b6008020160000160009054906101000a900460ff165b156120b45760008083815260200190815260200160002060010160006002811061209857612097615674565b5b6008020160000160019054906101000a900460ff1690506120b9565b600090505b919050565b60006120cb826000614701565b9050919050565b601481565b600080600083815260200190815260200160002060000160009054906101000a900460ff168015612141575060008083815260200190815260200160002060010160006002811061212b5761212a615674565b5b6008020160000160009054906101000a900460ff165b801561218657506000808381526020019081526020016000206001016001600281106121705761216f615674565b5b6008020160000160009054906101000a900460ff165b156121a8576000808381526020019081526020016000206012015490506121ad565b600090505b919050565b60008087815260200190815260200160002060000160009054906101000a900460ff166121e2576121e16156a3565b5b6008806121ef919061572a565b60ff168560ff1610612204576122036156a3565b5b3373ffffffffffffffffffffffffffffffffffffffff1660008088815260200190815260200160002060010160006002811061224357612242615674565b5b6008020160000160029054906101000a900473ffffffffffffffffffffffffffffffffffffffff1673ffffffffffffffffffffffffffffffffffffffff16036122e2576007600a81111561229a576122996152fe565b5b60008088815260200190815260200160002060110160009054906101000a900460ff16600a8111156122cf576122ce6152fe565b5b146122dd576122dc6156a3565b5b6123d1565b3373ffffffffffffffffffffffffffffffffffffffff1660008088815260200190815260200160002060010160016002811061232157612320615674565b5b6008020160000160029054906101000a900473ffffffffffffffffffffffffffffffffffffffff1673ffffffffffffffffffffffffffffffffffffffff16036123c0576005600a811115612378576123776152fe565b5b60008088815260200190815260200160002060110160009054906101000a900460ff16600a8111156123ad576123ac6152fe565b5b146123bb576123ba6156a3565b5b6123d0565b60006123cf576123ce6156a3565b5b5b5b60006123dc876145e4565b90506123e88686612e80565b84146123f7576123f66156a3565b5b61244983836000808b81526020019081526020016000206001018460006002811061242557612424615674565b5b60200201516002811061243b5761243a615674565b5b6008020160020154876148c9565b1561284c57841561273a576000808881526020019081526020016000206001018160016002811061247d5761247c615674565b5b60200201516002811061249357612492615674565b5b600802016003016003018660ff16604081106124b2576124b1615674565b5b602091828204019190069054906101000a900460ff1661273957600080888152602001908152602001600020600101816001600281106124f5576124f4615674565b5b60200201516002811061250b5761250a615674565b5b600802016003016001016000815480929190612526906157e6565b919050555060016000808981526020019081526020016000206001018260016002811061255657612555615674565b5b60200201516002811061256c5761256b615674565b5b600802016003016003018760ff166040811061258b5761258a615674565b5b602091828204019190066101000a81548160ff0219169083151502179055506000806000898152602001908152602001600020600101826001600281106125d5576125d4615674565b5b6020020151600281106125eb576125ea615674565b5b600802016003016001015403612738576000808881526020019081526020016000206001018160016002811061262457612623615674565b5b60200201516002811061263a57612639615674565b5b6008020160000160029054906101000a900473ffffffffffffffffffffffffffffffffffffffff1660008089815260200190815260200160002060140160026101000a81548173ffffffffffffffffffffffffffffffffffffffff021916908373ffffffffffffffffffffffffffffffffffffffff160217905550600860008089815260200190815260200160002060110160006101000a81548160ff0219169083600a8111156126ee576126ed6152fe565b5b0217905550612732876000808a815260200190815260200160002060140160029054906101000a900473ffffffffffffffffffffffffffffffffffffffff166148e2565b5061288d565b5b5b6005600a81111561274e5761274d6152fe565b5b60008089815260200190815260200160002060110160009054906101000a900460ff16600a811115612783576127826152fe565b5b146127ca57600460008089815260200190815260200160002060110160006101000a81548160ff0219169083600a8111156127c1576127c06152fe565b5b02179055612808565b600660008089815260200190815260200160002060110160006101000a81548160ff0219169083600a811115612803576128026152fe565b5b021790555b507f6b7f4cb32e4557bb0ec1ac014e9cf98e7eb88491d66436be28084edaf4ae0d07878787600160405161283f949392919061580f565b60405180910390a161288b565b7f6b7f4cb32e4557bb0ec1ac014e9cf98e7eb88491d66436be28084edaf4ae0d078787876000604051612882949392919061580f565b60405180910390a15b505b505050505050565b60008060008c815260200190815260200160002060000160009054906101000a900460ff166128c7576128c66156a3565b5b6000808c81526020019081526020016000206001016000600281106128ef576128ee615674565b5b6008020160000160029054906101000a900473ffffffffffffffffffffffffffffffffffffffff1673ffffffffffffffffffffffffffffffffffffffff166000808d815260200190815260200160002060140160029054906101000a900473ffffffffffffffffffffffffffffffffffffffff1673ffffffffffffffffffffffffffffffffffffffff1603612987576000905061298c565b600190505b3373ffffffffffffffffffffffffffffffffffffffff166000808d815260200190815260200160002060140160029054906101000a900473ffffffffffffffffffffffffffffffffffffffff1673ffffffffffffffffffffffffffffffffffffffff16146129fd576129fc6156a3565b5b6000808c81526020019081526020016000206001018160028110612a2457612a23615674565b5b60080201600201548214612a3b57612a3a6156a3565b5b600880612a48919061572a565b60ff168a8a905014612a5d57612a5c6156a3565b5b600880612a6a919061572a565b60ff168888905014612a7f57612a7e6156a3565b5b6000805b600880612a90919061572a565b60ff168160ff161015612bd35789898260ff16818110612ab357612ab2615674565b5b9050602002016020810190612ac89190614f6e565b15612adc578180612ad890615854565b9250505b612b3a8c8c8360ff16818110612af557612af4615674565b5b9050602002016020810190612b0a919061587d565b8b8b8460ff16818110612b2057612b1f615674565b5b9050602002016020810190612b359190614f6e565b612e80565b88888360ff16818110612b5057612b4f615674565b5b9050602002013514612b6557612b646156a3565b5b612bb386868360ff16818110612b7e57612b7d615674565b5b9050602002810190612b9091906158b9565b868b8b8660ff16818110612ba757612ba6615674565b5b905060200201356148c9565b612bc057612bbf6156a3565b5b8080612bcb90615854565b915050612a83565b50601460ff168160ff1614612beb57612bea6156a3565b5b60016000808e815260200190815260200160002060000160016101000a81548160ff0219169083151502179055507fc2815c82adc4278d6e044948482e0d16acf9a6369fc96eff02ffc7e7cd5f39d08c33604051612c4a9291906156d2565b60405180910390a1505050505050505050505050565b600080600083815260200190815260200160002060000160009054906101000a900460ff1615612cb45760008083815260200190815260200160002060110160009054906101000a900460ff169050612cb9565b600a90505b919050565b600080600083815260200190815260200160002060000160009054906101000a900460ff168015612d285750600080838152602001908152602001600020600101600160028110612d1257612d11615674565b5b6008020160000160009054906101000a900460ff165b15612d6457600080838152602001908152602001600020600101600160028110612d5557612d54615674565b5b60080201600101549050612d69565b600090505b919050565b600080612d7d848487896148c9565b90507f6b7f4cb32e4557bb0ec1ac014e9cf98e7eb88491d66436be28084edaf4ae0d07600080600084604051612db69493929190615992565b60405180910390a180915050949350505050565b602560009054906101000a900473ffffffffffffffffffffffffffffffffffffffff1673ffffffffffffffffffffffffffffffffffffffff163373ffffffffffffffffffffffffffffffffffffffff1614612e2857612e276156a3565b5b8060008084815260200190815260200160002060140160026101000a81548173ffffffffffffffffffffffffffffffffffffffff021916908373ffffffffffffffffffffffffffffffffffffffff1602179055505050565b60008282604051602001612e959291906159d7565b60405160208183030381529060405280519060200120905092915050565b60608282604051602001612ec89291906159d7565b604051602081830303815290604052905092915050565b600080600083815260200190815260200160002060000160009054906101000a900460ff168015612f495750600080838152602001908152602001600020600101600160028110612f3357612f32615674565b5b6008020160000160009054906101000a900460ff165b15612fa557600080838152602001908152602001600020600101600160028110612f7657612f75615674565b5b6008020160000160029054906101000a900473ffffffffffffffffffffffffffffffffffffffff169050612faa565b600090505b919050565b600881565b602560009054906101000a900473ffffffffffffffffffffffffffffffffffffffff1673ffffffffffffffffffffffffffffffffffffffff163373ffffffffffffffffffffffffffffffffffffffff1614613012576130116156a3565b5b8060008084815260200190815260200160002060110160006101000a81548160ff0219169083600a81111561304a576130496152fe565b5b02179055505050565b8160008082815260200190815260200160002060000160009054906101000a900460ff16613084576130836156a3565b5b823373ffffffffffffffffffffffffffffffffffffffff166000808381526020019081526020016000206001016000600281106130c4576130c3615674565b5b6008020160000160029054906101000a900473ffffffffffffffffffffffffffffffffffffffff1673ffffffffffffffffffffffffffffffffffffffff16148061318857503373ffffffffffffffffffffffffffffffffffffffff1660008083815260200190815260200160002060010160016002811061314857613147615674565b5b6008020160000160029054906101000a900473ffffffffffffffffffffffffffffffffffffffff1673ffffffffffffffffffffffffffffffffffffffff16145b613195576131946156a3565b5b826008806131a3919061572a565b60ff168160ff16106131b8576131b76156a3565b5b84600480600a8111156131ce576131cd6152fe565b5b81600a8111156131e1576131e06152fe565b5b1415801561321457506006600a8111156131fe576131fd6152fe565b5b81600a811115613211576132106152fe565b5b14155b801561324557506007600a81111561322f5761322e6152fe565b5b81600a811115613242576132416152fe565b5b14155b801561327657506005600a8111156132605761325f6152fe565b5b81600a811115613273576132726152fe565b5b14155b156132d65780600a81111561328e5761328d6152fe565b5b60008084815260200190815260200160002060110160009054906101000a900460ff16600a8111156132c3576132c26152fe565b5b146132d1576132d06156a3565b5b6134fe565b60006132e1836145e4565b90506004600a8111156132f7576132f66152fe565b5b82600a81111561330a576133096152fe565b5b036133e75760008160006002811061332557613324615674565b5b60200201510361338a5781600a811115613342576133416152fe565b5b60008085815260200190815260200160002060110160009054906101000a900460ff16600a811115613377576133766152fe565b5b14613385576133846156a3565b5b6133e2565b6006600a81111561339e5761339d6152fe565b5b60008085815260200190815260200160002060110160009054906101000a900460ff16600a8111156133d3576133d26152fe565b5b146133e1576133e06156a3565b5b5b6134fc565b6007600a8111156133fb576133fa6152fe565b5b82600a81111561340e5761340d6152fe565b5b036134eb5760008160006002811061342957613428615674565b5b60200201510361348e5781600a811115613446576134456152fe565b5b60008085815260200190815260200160002060110160009054906101000a900460ff16600a81111561347b5761347a6152fe565b5b14613489576134886156a3565b5b6134e6565b6005600a8111156134a2576134a16152fe565b5b60008085815260200190815260200160002060110160009054906101000a900460ff16600a8111156134d7576134d66152fe565b5b146134e5576134e46156a3565b5b5b6134fb565b60006134fa576134f96156a3565b5b5b5b505b6000613509886145e4565b90506004600a81111561351f5761351e6152fe565b5b6000808a815260200190815260200160002060110160009054906101000a900460ff16600a811115613554576135536152fe565b5b1461359b5760076000808a815260200190815260200160002060110160006101000a81548160ff0219169083600a811115613592576135916152fe565b5b021790556135d9565b60056000808a815260200190815260200160002060110160006101000a81548160ff0219169083600a8111156135d4576135d36152fe565b5b021790555b506000808981526020019081526020016000206001018160006002811061360357613602615674565b5b60200201516002811061361957613618615674565b5b600802016003016002016000815480929190613634906157e6565b919050555060008060008a81526020019081526020016000206001018260006002811061366457613663615674565b5b60200201516002811061367a57613679615674565b5b60080201600301600201540361372b57336000808a815260200190815260200160002060140160026101000a81548173ffffffffffffffffffffffffffffffffffffffff021916908373ffffffffffffffffffffffffffffffffffffffff16021790555060086000808a815260200190815260200160002060110160006101000a81548160ff0219169083600a811115613717576137166152fe565b5b021790555061372688336148e2565b613765565b7fdba0500edc5d1049fa27c54a56e9f0313f9a962ae79b418ea0cfdfb556593286888860405161375c929190615a00565b60405180910390a15b5050505050505050565b6000819050919050565b600081036138de5760245490505b60235481116138d6576001151560008083815260200190815260200160002060000160009054906101000a900460ff16151514801561380c57506000600a8111156137d5576137d46152fe565b5b60008083815260200190815260200160002060110160009054906101000a900460ff16600a81111561380a576138096152fe565b5b145b801561389357503373ffffffffffffffffffffffffffffffffffffffff1660008083815260200190815260200160002060010160006002811061385257613851615674565b5b6008020160000160029054906101000a900473ffffffffffffffffffffffffffffffffffffffff1673ffffffffffffffffffffffffffffffffffffffff1614155b80156138bf575060008082815260200190815260200160002060140160019054906101000a900460ff16155b6138d65780806138ce90615767565b915050613787565b806024819055505b60008082815260200190815260200160002060000160009054906101000a900460ff1661390e5761390d6156a3565b5b600060169050338160000160026101000a81548173ffffffffffffffffffffffffffffffffffffffff021916908373ffffffffffffffffffffffffffffffffffffffff16021790555060018160000160006101000a81548160ff02191690831515021790555060008160000160016101000a81548160ff021916908315150217905550806000808481526020019081526020016000206001016001600281106139ba576139b9615674565b5b600802016000820160009054906101000a900460ff168160000160006101000a81548160ff0219169083151502179055506000820160019054906101000a900460ff168160000160016101000a81548160ff0219169083151502179055506000820160029054906101000a900473ffffffffffffffffffffffffffffffffffffffff168160000160026101000a81548173ffffffffffffffffffffffffffffffffffffffff021916908373ffffffffffffffffffffffffffffffffffffffff160217905550600182015481600101556002820154816002015560038201816003016000820160009054906101000a900460ff168160000160006101000a81548160ff02191690831515021790555060018201548160010155600282015481600201556003820181600301906040613af29291906149b9565b505050905050600160008084815260200190815260200160002060110160006101000a81548160ff0219169083600a811115613b3157613b306152fe565b5b02179055507fdf72bd9cb04731c1dfa0832a380e56504fda45508a7305083a9be0f343e9342182600080858152602001908152602001600020600101600060028110613b8057613b7f615674565b5b6008020160000160029054906101000a900473ffffffffffffffffffffffffffffffffffffffff1633604051613bb893929190615a29565b60405180910390a15050565b8160008082815260200190815260200160002060000160009054906101000a900460ff16613bf557613bf46156a3565b5b823373ffffffffffffffffffffffffffffffffffffffff16600080838152602001908152602001600020600101600060028110613c3557613c34615674565b5b6008020160000160029054906101000a900473ffffffffffffffffffffffffffffffffffffffff1673ffffffffffffffffffffffffffffffffffffffff161480613cf957503373ffffffffffffffffffffffffffffffffffffffff16600080838152602001908152602001600020600101600160028110613cb957613cb8615674565b5b6008020160000160029054906101000a900473ffffffffffffffffffffffffffffffffffffffff1673ffffffffffffffffffffffffffffffffffffffff16145b613d0657613d056156a3565b5b8360016004600a811115613d1d57613d1c6152fe565b5b81600a811115613d3057613d2f6152fe565b5b14158015613d6357506006600a811115613d4d57613d4c6152fe565b5b81600a811115613d6057613d5f6152fe565b5b14155b8015613d9457506007600a811115613d7e57613d7d6152fe565b5b81600a811115613d9157613d906152fe565b5b14155b8015613dc557506005600a811115613daf57613dae6152fe565b5b81600a811115613dc257613dc16152fe565b5b14155b15613e255780600a811115613ddd57613ddc6152fe565b5b60008084815260200190815260200160002060110160009054906101000a900460ff16600a811115613e1257613e116152fe565b5b14613e2057613e1f6156a3565b5b61404d565b6000613e30836145e4565b90506004600a811115613e4657613e456152fe565b5b82600a811115613e5957613e586152fe565b5b03613f3657600081600060028110613e7457613e73615674565b5b602002015103613ed95781600a811115613e9157613e906152fe565b5b60008085815260200190815260200160002060110160009054906101000a900460ff16600a811115613ec657613ec56152fe565b5b14613ed457613ed36156a3565b5b613f31565b6006600a811115613eed57613eec6152fe565b5b60008085815260200190815260200160002060110160009054906101000a900460ff16600a811115613f2257613f216152fe565b5b14613f3057613f2f6156a3565b5b5b61404b565b6007600a811115613f4a57613f496152fe565b5b82600a811115613f5d57613f5c6152fe565b5b0361403a57600081600060028110613f7857613f77615674565b5b602002015103613fdd5781600a811115613f9557613f946152fe565b5b60008085815260200190815260200160002060110160009054906101000a900460ff16600a811115613fca57613fc96152fe565b5b14613fd857613fd76156a3565b5b614035565b6005600a811115613ff157613ff06152fe565b5b60008085815260200190815260200160002060110160009054906101000a900460ff16600a811115614026576140256152fe565b5b14614034576140336156a3565b5b5b61404a565b6000614049576140486156a3565b5b5b5b505b6000806000888152602001908152602001600020604051806101200160405290816000820160009054906101000a900460ff161515151581526020016000820160019054906101000a900460ff1615151515815260200160018201600280602002604051908101604052809291906000905b82821015614234578382600802016040518060c00160405290816000820160009054906101000a900460ff161515151581526020016000820160019054906101000a900460ff161515151581526020016000820160029054906101000a900473ffffffffffffffffffffffffffffffffffffffff1673ffffffffffffffffffffffffffffffffffffffff1673ffffffffffffffffffffffffffffffffffffffff1681526020016001820154815260200160028201548152602001600382016040518060800160405290816000820160009054906101000a900460ff16151515158152602001600182015481526020016002820154815260200160038201604080602002604051908101604052809291908260408015614218576020028201916000905b82829054906101000a900460ff161515815260200190600101906020826000010492830192600103820291508084116141e25790505b50505050508152505081525050815260200190600101906140bf565b5050505081526020016011820160009054906101000a900460ff16600a811115614261576142606152fe565b5b600a811115614273576142726152fe565b5b815260200160128201548152602001601382015481526020016014820160009054906101000a900460ff161515151581526020016014820160019054906101000a900460ff161515151581526020016014820160029054906101000a900473ffffffffffffffffffffffffffffffffffffffff1673ffffffffffffffffffffffffffffffffffffffff1673ffffffffffffffffffffffffffffffffffffffff16815250509050600080826040015160006002811061433457614333615674565b5b60200201516040015173ffffffffffffffffffffffffffffffffffffffff163373ffffffffffffffffffffffffffffffffffffffff160361437c576001915060009050614385565b60009150600190505b60008360400151836002811061439e5761439d615674565b5b6020020151606001519050886000808c815260200190815260200160002060010183600281106143d1576143d0615674565b5b6008020160010181905550600081141580156143ec57508881145b156144cb57886000808c81526020019081526020016000206012018190555060026000808c815260200190815260200160002060110160006101000a81548160ff0219169083600a811115614444576144436152fe565b5b02179055507fa63491c3e48c84a30c1a58128201bca4fd87bb84850cda339020ce19051e5a908a856040015160006002811061448357614482615674565b5b60200201516040015186604001516001600281106144a4576144a3615674565b5b6020020151604001518c6040516144be9493929190615a60565b60405180910390a1614528565b7f4adf94e8b5302c48b3df6533aa17748538d68a74af46f0a894839b61fbf3f1bf8a338660400151866002811061450557614504615674565b5b6020020151604001518c60405161451f9493929190615a60565b60405180910390a15b50505050505050505050565b600080600083815260200190815260200160002060000160009054906101000a900460ff16801561459e575060008083815260200190815260200160002060010160006002811061458857614587615674565b5b6008020160000160009054906101000a900460ff165b156145da576000808381526020019081526020016000206001016000600281106145cb576145ca615674565b5b600802016001015490506145df565b600090505b919050565b6145ec614b7e565b6145f4614b7e565b60008084815260200190815260200160002060010160006002811061461c5761461b615674565b5b6008020160000160029054906101000a900473ffffffffffffffffffffffffffffffffffffffff1673ffffffffffffffffffffffffffffffffffffffff163373ffffffffffffffffffffffffffffffffffffffff16036146b95760008160006002811061468c5761468b615674565b5b6020020181815250506001816001600281106146ab576146aa615674565b5b6020020181815250506146f8565b6001816000600281106146cf576146ce615674565b5b6020020181815250506000816001600281106146ee576146ed615674565b5b6020020181815250505b80915050919050565b60008282600080838152602001908152602001600020600101816002811061472c5761472b615674565b5b6008020160000160009054906101000a900460ff1661474e5761474d6156a3565b5b6000808381526020019081526020016000205060028110614772576147716156a3565b5b8460008082815260200190815260200160002060000160009054906101000a900460ff166147a3576147a26156a3565b5b60008087815260200190815260200160002060010185600281106147ca576147c9615674565b5b6008020160020154935050505092915050565b60008282600080838152602001908152602001600020600101816002811061480857614807615674565b5b6008020160000160009054906101000a900460ff1661482a576148296156a3565b5b600080838152602001908152602001600020506002811061484e5761484d6156a3565b5b8460008082815260200190815260200160002060000160009054906101000a900460ff1661487f5761487e6156a3565b5b60008087815260200190815260200160002060010185600281106148a6576148a5615674565b5b6008020160030160000160009054906101000a900460ff16935050505092915050565b6000826148d786868561491f565b149050949350505050565b7fc53d54ea71e800bb40731cf938b78bbb3e167ca69808d9e2945e2f018b3c406782826040516149139291906156d2565b60405180910390a15050565b60008082905060005b8585905081101561496b576149568287878481811061494a57614949615674565b5b90506020020135614977565b9150808061496390615767565b915050614928565b50809150509392505050565b600081831061498f5761498a82846149a2565b61499a565b61499983836149a2565b5b905092915050565b600082600052816020526040600020905092915050565b826040601f016020900481019282156149f35791601f016020900482015b828111156149f25782548255916001019190600101906149d7565b5b509050614a009190614ba0565b5090565b8260026008028101928215614b6d579160080282015b82811115614b6c5782826000820160009054906101000a900460ff168160000160006101000a81548160ff0219169083151502179055506000820160019054906101000a900460ff168160000160016101000a81548160ff0219169083151502179055506000820160029054906101000a900473ffffffffffffffffffffffffffffffffffffffff168160000160026101000a81548173ffffffffffffffffffffffffffffffffffffffff021916908373ffffffffffffffffffffffffffffffffffffffff160217905550600182015481600101556002820154816002015560038201816003016000820160009054906101000a900460ff168160000160006101000a81548160ff02191690831515021790555060018201548160010155600282015481600201556003820181600301906040614b589291906149b9565b505050505091600801919060080190614a1a565b5b509050614b7a9190614bbd565b5090565b6040518060400160405280600290602082028036833780820191505090505090565b5b80821115614bb9576000816000905550600101614ba1565b5090565b5b80821115614c6a57600080820160006101000a81549060ff02191690556000820160016101000a81549060ff02191690556000820160026101000a81549073ffffffffffffffffffffffffffffffffffffffff02191690556001820160009055600282016000905560038201600080820160006101000a81549060ff021916905560018201600090556002820160009055600382016000614c5f9190614c6e565b505050600801614bbe565b5090565b506000815560010160009055565b600080fd5b600080fd5b6000819050919050565b614c9981614c86565b8114614ca457600080fd5b50565b600081359050614cb681614c90565b92915050565b600060208284031215614cd257614cd1614c7c565b5b6000614ce084828501614ca7565b91505092915050565b60008115159050919050565b614cfe81614ce9565b82525050565b6000602082019050614d196000830184614cf5565b92915050565b600080fd5b600080fd5b600080fd5b60008083601f840112614d4457614d43614d1f565b5b8235905067ffffffffffffffff811115614d6157614d60614d24565b5b602083019150836020820283011115614d7d57614d7c614d29565b5b9250929050565b60008060208385031215614d9b57614d9a614c7c565b5b600083013567ffffffffffffffff811115614db957614db8614c81565b5b614dc585828601614d2e565b92509250509250929050565b600082825260208201905092915050565b600080fd5b82818337505050565b6000614dfc8385614dd1565b93507f07ffffffffffffffffffffffffffffffffffffffffffffffffffffffffffffff831115614e2f57614e2e614de2565b5b602083029250614e40838584614de7565b82840190509392505050565b60006020820190508181036000830152614e67818486614df0565b90509392505050565b6000819050919050565b614e8381614e70565b8114614e8e57600080fd5b50565b600081359050614ea081614e7a565b92915050565b60008060408385031215614ebd57614ebc614c7c565b5b6000614ecb85828601614ca7565b9250506020614edc85828601614e91565b9150509250929050565b600073ffffffffffffffffffffffffffffffffffffffff82169050919050565b6000614f1182614ee6565b9050919050565b614f2181614f06565b82525050565b6000602082019050614f3c6000830184614f18565b92915050565b614f4b81614ce9565b8114614f5657600080fd5b50565b600081359050614f6881614f42565b92915050565b600060208284031215614f8457614f83614c7c565b5b6000614f9284828501614f59565b91505092915050565b614fa481614e70565b82525050565b6000602082019050614fbf6000830184614f9b565b92915050565b600060ff82169050919050565b614fdb81614fc5565b82525050565b6000602082019050614ff66000830184614fd2565b92915050565b61500581614c86565b82525050565b60006020820190506150206000830184614ffc565b92915050565b61502f81614fc5565b811461503a57600080fd5b50565b60008135905061504c81615026565b92915050565b60008060008060008060a0878903121561506f5761506e614c7c565b5b600061507d89828a01614ca7565b965050602061508e89828a0161503d565b955050604061509f89828a01614f59565b94505060606150b089828a01614e91565b935050608087013567ffffffffffffffff8111156150d1576150d0614c81565b5b6150dd89828a01614d2e565b92509250509295509295509295565b60008083601f84011261510257615101614d1f565b5b8235905067ffffffffffffffff81111561511f5761511e614d24565b5b60208301915083602082028301111561513b5761513a614d29565b5b9250929050565b60008083601f84011261515857615157614d1f565b5b8235905067ffffffffffffffff81111561517557615174614d24565b5b60208301915083602082028301111561519157615190614d29565b5b9250929050565b60008083601f8401126151ae576151ad614d1f565b5b8235905067ffffffffffffffff8111156151cb576151ca614d24565b5b6020830191508360208202830111156151e7576151e6614d29565b5b9250929050565b60008060008060008060008060008060c08b8d03121561521157615210614c7c565b5b600061521f8d828e01614ca7565b9a505060208b013567ffffffffffffffff8111156152405761523f614c81565b5b61524c8d828e016150ec565b995099505060408b013567ffffffffffffffff81111561526f5761526e614c81565b5b61527b8d828e01615142565b975097505060608b013567ffffffffffffffff81111561529e5761529d614c81565b5b6152aa8d828e01614d2e565b955095505060808b013567ffffffffffffffff8111156152cd576152cc614c81565b5b6152d98d828e01615198565b935093505060a06152ec8d828e01614e91565b9150509295989b9194979a5092959850565b7f4e487b7100000000000000000000000000000000000000000000000000000000600052602160045260246000fd5b600b811061533e5761533d6152fe565b5b50565b600081905061534f8261532d565b919050565b600061535f82615341565b9050919050565b61536f81615354565b82525050565b600060208201905061538a6000830184615366565b92915050565b600080600080606085870312156153aa576153a9614c7c565b5b60006153b887828801614e91565b94505060206153c987828801614e91565b935050604085013567ffffffffffffffff8111156153ea576153e9614c81565b5b6153f687828801614d2e565b925092505092959194509250565b61540d81614f06565b811461541857600080fd5b50565b60008135905061542a81615404565b92915050565b6000806040838503121561544757615446614c7c565b5b600061545585828601614ca7565b92505060206154668582860161541b565b9150509250929050565b6000806040838503121561548757615486614c7c565b5b60006154958582860161503d565b92505060206154a685828601614f59565b9150509250929050565b600081519050919050565b600082825260208201905092915050565b60005b838110156154ea5780820151818401526020810190506154cf565b60008484015250505050565b6000601f19601f8301169050919050565b6000615512826154b0565b61551c81856154bb565b935061552c8185602086016154cc565b615535816154f6565b840191505092915050565b6000602082019050818103600083015261555a8184615507565b905092915050565b600b811061556f57600080fd5b50565b60008135905061558181615562565b92915050565b6000806040838503121561559e5761559d614c7c565b5b60006155ac85828601614ca7565b92505060206155bd85828601615572565b9150509250929050565b600080604083850312156155de576155dd614c7c565b5b60006155ec85828601614ca7565b92505060206155fd8582860161503d565b9150509250929050565b60006020828403121561561d5761561c614c7c565b5b600061562b84828501614e91565b91505092915050565b6000806040838503121561564b5761564a614c7c565b5b600061565985828601614ca7565b925050602061566a85828601614ca7565b9150509250929050565b7f4e487b7100000000000000000000000000000000000000000000000000000000600052603260045260246000fd5b7f4e487b7100000000000000000000000000000000000000000000000000000000600052600160045260246000fd5b60006040820190506156e76000830185614ffc565b6156f46020830184614f18565b9392505050565b7f4e487b7100000000000000000000000000000000000000000000000000000000600052601160045260246000fd5b600061573582614fc5565b915061574083614fc5565b925082820261574e81614fc5565b91508082146157605761575f6156fb565b5b5092915050565b600061577282614c86565b91507fffffffffffffffffffffffffffffffffffffffffffffffffffffffffffffffff82036157a4576157a36156fb565b5b600182019050919050565b60006060820190506157c46000830186614f18565b6157d16020830185614f18565b6157de6040830184614ffc565b949350505050565b60006157f182614c86565b915060008203615804576158036156fb565b5b600182039050919050565b60006080820190506158246000830187614ffc565b6158316020830186614fd2565b61583e6040830185614cf5565b61584b6060830184614cf5565b95945050505050565b600061585f82614fc5565b915060ff8203615872576158716156fb565b5b600182019050919050565b60006020828403121561589357615892614c7c565b5b60006158a18482850161503d565b91505092915050565b600080fd5b600080fd5b600080fd5b600080833560016020038436030381126158d6576158d56158aa565b5b80840192508235915067ffffffffffffffff8211156158f8576158f76158af565b5b602083019250602082023603831315615914576159136158b4565b5b509250929050565b6000819050919050565b6000819050919050565b600061594b6159466159418461591c565b615926565b614c86565b9050919050565b61595b81615930565b82525050565b600061597c6159776159728461591c565b615926565b614fc5565b9050919050565b61598c81615961565b82525050565b60006080820190506159a76000830187615952565b6159b46020830186615983565b6159c16040830185614cf5565b6159ce6060830184614cf5565b95945050505050565b60006040820190506159ec6000830185614fd2565b6159f96020830184614cf5565b9392505050565b6000604082019050615a156000830185614ffc565b615a226020830184614fd2565b9392505050565b6000606082019050615a3e6000830186614ffc565b615a4b6020830185614f18565b615a586040830184614f18565b949350505050565b6000608082019050615a756000830187614ffc565b615a826020830186614f18565b615a8f6040830185614f18565b615a9c6060830184614ffc565b9594505050505056fea264697066735822122082e53b64b2f3183360c9e4343dfff8d2ce3f003f35e3970b34cc2619da16ae6c64736f6c63430008130033",
  "immutableReferences": {},
  "source": "// SPDX-License-Identifier: MIT\r\npragma solidity >=0.4.22 <0.9.0;\r\n\r\ncontract Battleships {\r\n    uint8 public constant NUMBER_OF_SHIP_SQUARES = 20;\r\n    uint8 public constant BOARD_SIZE = 8;\r\n    enum GameStates{\r\n        WAITING, \r\n        SETTING_STAKE, \r\n        ACCEPTING_PAYMENT,\r\n        PLACING_SHIPS, \r\n        P0_FIRING,\r\n        P1_CHECKING,\r\n        P1_FIRING,\r\n        P0_CHECKING,\r\n        CHECKING_WINNER,\r\n        DONE,\r\n        NONE\r\n    }\r\n\r\n    // In this struct we save the view a player has of its opponent's board\r\n    struct Board{\r\n        bool valid;\r\n        // N*N matrix of bits to store hits\r\n        // bool[BOARD_SIZE][BOARD_SIZE] shots;\r\n        // # of enemy pieces still left on the board\r\n        // goes down by one each time we receive one 'you hit' event\r\n        uint totalPieces;\r\n        // 8*8, we use this to avoid cheating\r\n        uint totalShots;\r\n        bool[BOARD_SIZE*BOARD_SIZE] board; \r\n    }\r\n\r\n    struct Player{\r\n        bool valid;\r\n        bool hasPaidStake;\r\n        address playerAddress;\r\n        uint proposedStake;\r\n        bytes32 boardTreeRoot;\r\n        Board shots_board;\r\n    }\r\n\r\n    struct Game{\r\n        bool valid;\r\n        bool canPay;\r\n        // host is always player[0]\r\n        Player[2] players;\r\n        GameStates state;\r\n        uint decidedStake;\r\n        // used for foul accusation, a foul is triggered after 5 blocks\r\n        uint blockNumber;\r\n        // player 0 or player 1\r\n        // might turn it into address, we will see\r\n        bool accuser;\r\n        // whether or not this game should be in the public pool of joinable games\r\n        bool privateGame;\r\n        address winner;\r\n    }\r\n\r\n    mapping(uint => Game) private openGames;\r\n\r\n    Game private gameTrampoline;\r\n    Player private playerTrampoline;\r\n    Board private trampolineBoard;\r\n    // used in generating UUIDs for the games\r\n    // for now we are gonna use this as-is\r\n    // start at 1 as 0 is used for a non-existing game\r\n    // TODO: deal with it overflowing\r\n    uint private gameCounter;\r\n    uint private lastOpenGame;\r\n    address private owner;\r\n\r\n    constructor() {\r\n        gameCounter = 1;\r\n        lastOpenGame = 1;\r\n        owner = msg.sender;\r\n    }\r\n\r\n    event ShareID(address _from, address _to, uint _gameID);\r\n    event GameStart(uint _gameID, address _host, address _challenger);\r\n    event SuggestedStake(uint _gameID, address _from, address _to, uint _stakeValue);\r\n    event GamePayable(uint _gameID, address _host, address _challenger, uint _stakeValue);\r\n    event StakePaid(uint _gameID, address _whoPaid);\r\n    event AcceptingBoards(uint _gameID);\r\n    event BoardAcknowledgeEvent(uint _gameID, address _player);\r\n    event PlayerZeroTurn(uint _gameID);\r\n    event ShotsFired(uint _gameID, uint8 _location);\r\n    event ShotsChecked(uint _gameID, uint8 _location, bool _claim, bool _validity);\r\n    event RequestBoard(uint _gameID, address _winner);\r\n    event Victory(uint _gameID, address _winner);\r\n\r\n    error InvalidGameID();\r\n    error NotInGame();\r\n    error StakeAlreadyDeposited();\r\n    error WrongStakeAmount(uint expectedStakeValue);\r\n\r\n    // Used for debug only\r\n    modifier ownerOnly(){\r\n        assert(msg.sender == owner);\r\n        _;\r\n    }\r\n\r\n    modifier gameExists(uint gameID){\r\n        assert(openGames[gameID].valid);\r\n        _;\r\n    }\r\n\r\n    modifier isInGame(uint gameID){\r\n        assert((openGames[gameID].players[0].playerAddress == msg.sender) || (openGames[gameID].players[1].playerAddress == msg.sender));\r\n        _;\r\n    }\r\n\r\n    modifier assertState(uint gameID, GameStates _state){\r\n        if(_state != GameStates.P0_FIRING && _state != GameStates.P1_FIRING && _state != GameStates.P0_CHECKING && _state != GameStates.P1_CHECKING)\r\n            assert(openGames[gameID].state == _state);\r\n        else{\r\n            // We check firing states with P0_FIRING and checking states with P0_CHECKING, for both players\r\n            uint[2] memory indexes = getIndexSender(gameID);\r\n            if(_state == GameStates.P0_FIRING){\r\n                if(indexes[0] == 0)\r\n                    assert(openGames[gameID].state == _state);\r\n                else\r\n                    assert(openGames[gameID].state == GameStates.P1_FIRING);\r\n            }\r\n            else if(_state == GameStates.P0_CHECKING){\r\n                if(indexes[0] == 0)\r\n                    assert(openGames[gameID].state == _state);\r\n                else\r\n                    assert(openGames[gameID].state == GameStates.P1_CHECKING);\r\n            }\r\n            else assert(false);\r\n        }\r\n        _;\r\n    }\r\n\r\n    modifier playerInRange(uint gameID, uint index){\r\n        assert(openGames[gameID].players[index].valid);\r\n        assert(index < openGames[gameID].players.length);\r\n        _;\r\n    }\r\n\r\n    modifier shotOnBoard(uint8 location){\r\n        assert(location < (BOARD_SIZE*BOARD_SIZE));\r\n        _;\r\n    }\r\n\r\n    modifier isWinner(uint gameID){\r\n        assert(openGames[gameID].winner == msg.sender);\r\n        _;\r\n    }\r\n\r\n    function getIndexSender (uint gameID) view private returns(uint[2] memory) {\r\n        // indexes[0]: msg.sender index\r\n        // indexes[1]: msg.sender opponent's index\r\n        uint[2] memory indexes;\r\n        if(msg.sender == openGames[gameID].players[0].playerAddress){\r\n            indexes[0] = 0;\r\n            indexes[1] = 1;\r\n        } else {\r\n            indexes[0] = 1;\r\n            indexes[1] = 0;\r\n        }\r\n        return indexes;\r\n    }\r\n\r\n    // Code from OpenZeppelin's project\r\n    // https://github.com/OpenZeppelin\r\n    function verifyCalldata(\r\n    bytes32[] calldata proof,\r\n    bytes32 root,\r\n    bytes32 leaf\r\n    ) internal pure returns (bool) {\r\n        return processProofCalldata(proof, leaf) == root;\r\n    }\r\n\r\n    function processProofCalldata(\r\n        bytes32[] calldata proof,\r\n        bytes32 leaf\r\n    ) internal pure returns (bytes32) {\r\n        bytes32 computedHash = leaf;\r\n        for (uint256 i = 0; i < proof.length; i++) {\r\n            computedHash = _hashPair(computedHash, proof[i]);\r\n        }\r\n        return computedHash;\r\n    }\r\n\r\n    function _hashPair(bytes32 a, bytes32 b)\r\n        private\r\n        pure\r\n        returns(bytes32)\r\n    {\r\n        return a < b ? _efficientHash(a, b) : _efficientHash(b, a);\r\n    }\r\n\r\n    function _efficientHash(bytes32 a, bytes32 b)\r\n        private\r\n        pure\r\n        returns (bytes32 value)\r\n    {\r\n        assembly {\r\n            mstore(0x00, a)\r\n            mstore(0x20, b)\r\n            value := keccak256(0x00, 0x40)\r\n        }\r\n    }\r\n    // end of OpenZeppelin code\r\n\r\n    // create a Game value, add it to openGames, populate the Player[0]\r\n    function newGame(bool isPrivate) public {\r\n        uint gameID = gameCounter;\r\n        gameCounter++;\r\n        Game storage game = gameTrampoline;\r\n        Player storage host = playerTrampoline;\r\n        host.playerAddress = msg.sender;\r\n        host.valid = true;\r\n        host.hasPaidStake = false;\r\n        game.players[0] = host;\r\n        game.state = GameStates.WAITING;\r\n        game.privateGame = isPrivate;\r\n        game.valid = true;\r\n        game.canPay = false;\r\n        openGames[gameID] = game;\r\n        emit ShareID(address(this), msg.sender, gameID);\r\n        return;\r\n    }\r\n    \r\n    function joinGame(uint gameID) public {\r\n        if(gameID == 0){\r\n            // pick an unassigned game in sequential order\r\n            gameID = lastOpenGame;\r\n            while(gameID <= gameCounter){\r\n                // ignore games with sender as host (you can still join your own games directly if you're that lonely)\r\n                if(openGames[gameID].valid == true && \r\n                    openGames[gameID].state == GameStates.WAITING && \r\n                    openGames[gameID].players[0].playerAddress != msg.sender && \r\n                    !openGames[gameID].privateGame){\r\n                    break;\r\n                }\r\n                gameID++;\r\n            }\r\n            // update the lastOpenGame counter no matter what\r\n            lastOpenGame = gameID;\r\n        }\r\n        // if the game wasn't valid, throw an error\r\n        assert(openGames[gameID].valid);\r\n        // set msg sender as this game's player 2\r\n        Player storage challenger = playerTrampoline;\r\n        challenger.playerAddress = msg.sender;\r\n        challenger.valid = true;\r\n        challenger.hasPaidStake = false;\r\n        openGames[gameID].players[1] = challenger;\r\n        // update this game's status\r\n        openGames[gameID].state = GameStates.SETTING_STAKE;\r\n        // alert the players\r\n        emit GameStart(gameID, openGames[gameID].players[0].playerAddress, msg.sender);\r\n        return;\r\n    }\r\n\r\n    function checkGameState(uint gameID) public view returns (GameStates) {\r\n        if (openGames[gameID].valid){\r\n            return openGames[gameID].state;\r\n        }\r\n        else \r\n            return(GameStates.NONE);\r\n    }\r\n\r\n    function checkGamePlayerOne(uint gameID) public view returns (address) {\r\n        if (openGames[gameID].valid && openGames[gameID].players[0].valid){\r\n            return openGames[gameID].players[0].playerAddress;\r\n        }\r\n        else \r\n            return(address(0));\r\n    }\r\n\r\n    function checkGamePlayerTwo(uint gameID) public view returns (address) {\r\n        if (openGames[gameID].valid && openGames[gameID].players[1].valid){\r\n            return openGames[gameID].players[1].playerAddress;\r\n        }\r\n        else \r\n            return(address(0));\r\n    }\r\n\r\n    // Function to propose and agree upon a stake between players\r\n    function proposeStake(uint gameID, uint stakeValue) gameExists(gameID) isInGame(gameID) assertState(gameID, GameStates.SETTING_STAKE) public{\r\n        Game memory game = openGames[gameID];\r\n        // Check whether or not this player's opponent has already proposed a stake\r\n        uint opponentIndex;\r\n        uint stakerIndex;\r\n        if(msg.sender == game.players[0].playerAddress){\r\n            opponentIndex = 1;\r\n            stakerIndex = 0;\r\n        } else {\r\n            opponentIndex = 0;\r\n            stakerIndex = 1;\r\n        }\r\n        uint opponentStake = game.players[opponentIndex].proposedStake;\r\n        // set this player's proposed stake to their message\r\n        openGames[gameID].players[stakerIndex].proposedStake = stakeValue;\r\n        // if the opponent has proposed a stake we check whether or not it equals the one proposed by us\r\n        // 0 is not a valid stake\r\n        if(opponentStake != 0 && opponentStake == stakeValue){\r\n            openGames[gameID].decidedStake = stakeValue;\r\n            openGames[gameID].state = GameStates.ACCEPTING_PAYMENT;\r\n            emit GamePayable(gameID, game.players[0].playerAddress, game.players[1].playerAddress, stakeValue);\r\n        }else{\r\n            emit SuggestedStake(gameID, msg.sender, game.players[opponentIndex].playerAddress, stakeValue);\r\n        }\r\n        return;\r\n    }\r\n\r\n    function checkStakePlayerOne(uint gameID) public view returns (uint) {\r\n        if (openGames[gameID].valid && openGames[gameID].players[0].valid){\r\n            return openGames[gameID].players[0].proposedStake;\r\n        }\r\n        else \r\n            return(0);\r\n    }\r\n\r\n    function checkStakePlayerTwo(uint gameID) public view returns (uint) {\r\n        if (openGames[gameID].valid && openGames[gameID].players[1].valid){\r\n            return openGames[gameID].players[1].proposedStake;\r\n        }\r\n        else \r\n            return(0);\r\n    }\r\n\r\n    function checkStakeGame(uint gameID) public view returns (uint) {\r\n        if (openGames[gameID].valid && openGames[gameID].players[0].valid && openGames[gameID].players[1].valid)\r\n            return openGames[gameID].decidedStake;\r\n        else\r\n            return(0);\r\n    }\r\n    \r\n    function payStake(uint gameID) gameExists(gameID) isInGame(gameID) assertState(gameID, GameStates.ACCEPTING_PAYMENT) external payable {\r\n        if((msg.sender == openGames[gameID].players[0].playerAddress && openGames[gameID].players[0].hasPaidStake) ||\r\n            (msg.sender == openGames[gameID].players[1].playerAddress && openGames[gameID].players[1].hasPaidStake))\r\n            revert StakeAlreadyDeposited();\r\n        // only accept payments for the exact amount owed\r\n        if(msg.value != openGames[gameID].decidedStake)\r\n            revert WrongStakeAmount(openGames[gameID].decidedStake);\r\n        // now we check who the sender is\r\n        uint senderIndex;\r\n        uint challengerIndex;\r\n        if(msg.sender == openGames[gameID].players[0].playerAddress){\r\n            senderIndex = 0;\r\n            challengerIndex = 1;\r\n        }else{\r\n            senderIndex = 1;\r\n            challengerIndex = 0;\r\n        }\r\n        openGames[gameID].players[senderIndex].hasPaidStake = true;\r\n        emit StakePaid(gameID, msg.sender);\r\n        // if both players have paid the owed stake the game can move on to its next state\r\n        if(openGames[gameID].players[challengerIndex].hasPaidStake){\r\n            openGames[gameID].state = GameStates.PLACING_SHIPS;\r\n            emit AcceptingBoards(gameID);\r\n        }\r\n    }\r\n\r\n    function checkPaymentPlayerOne(uint gameID) public view returns (bool) {\r\n        if (openGames[gameID].valid && openGames[gameID].players[0].valid){\r\n            return openGames[gameID].players[0].hasPaidStake;\r\n        }\r\n        else \r\n            return(false);\r\n    }\r\n\r\n    function checkPaymentPlayerTwo(uint gameID) public view returns (bool) {\r\n        if (openGames[gameID].valid && openGames[gameID].players[1].valid){\r\n            return openGames[gameID].players[1].hasPaidStake;\r\n        }\r\n        else \r\n            return(false);\r\n    }\r\n\r\n    function checkGamePayable(uint gameID) public view returns (bool) {\r\n        if (openGames[gameID].valid && openGames[gameID].players[0].valid && openGames[gameID].players[1].valid)\r\n            return openGames[gameID].canPay;\r\n        else\r\n            return(false);\r\n    }\r\n    \r\n    function PlaceShips(uint gameID, bytes32 boardRoot) gameExists(gameID) isInGame(gameID) assertState(gameID, GameStates.PLACING_SHIPS) public{\r\n        uint index;\r\n        uint oppIdx;\r\n        msg.sender == openGames[gameID].players[0].playerAddress ? index = 0 : index = 1;\r\n        msg.sender == openGames[gameID].players[0].playerAddress ? oppIdx = 1 : oppIdx = 0;\r\n        require(openGames[gameID].players[index].boardTreeRoot == 0x0);\r\n        // Instantiate a new shots board\r\n        // Instantiate the Board struct itself and assign it to a player\r\n        Board storage playerBoard = trampolineBoard;\r\n        trampolineBoard.valid = true;\r\n        trampolineBoard.totalPieces = NUMBER_OF_SHIP_SQUARES;\r\n        trampolineBoard.totalShots = (BOARD_SIZE*BOARD_SIZE);\r\n        for(uint i = 0; i < (BOARD_SIZE*BOARD_SIZE); i++){\r\n            trampolineBoard.board[i] = false;\r\n        }\r\n        openGames[gameID].players[index].shots_board = playerBoard;\r\n        // save the received boardRoot, finally\r\n        openGames[gameID].players[index].boardTreeRoot = boardRoot;\r\n        emit BoardAcknowledgeEvent(gameID, msg.sender);\r\n        if(openGames[gameID].players[oppIdx].boardTreeRoot != 0x0){\r\n            openGames[gameID].state = GameStates.P0_FIRING;\r\n            emit PlayerZeroTurn(gameID);\r\n        }\r\n    }\r\n\r\n    function getPlayerBoardRoot(uint gameID, uint index) playerInRange(gameID, index) gameExists(gameID) private view returns(bytes32){\r\n        return openGames[gameID].players[index].boardTreeRoot;\r\n    }\r\n\r\n    function getPlayerOneBoardRoot(uint gameID) public view returns (bytes32){\r\n        return getPlayerBoardRoot(gameID, 0);\r\n    }\r\n\r\n    function getPlayerTwoBoardRoot(uint gameID) public view returns (bytes32){\r\n        return getPlayerBoardRoot(gameID, 1);\r\n    }\r\n\r\n    // We should never have any use for these following functions\r\n    // Marking them as DEPRECATED now\r\n    // we will see if they survive the cutting room floor\r\n    \r\n    // DEPRECATED\r\n    function getPlayerShotsBoard(uint gameID, uint index) playerInRange(gameID, index) gameExists(gameID) private view returns(bool){\r\n        return openGames[gameID].players[index].shots_board.valid;\r\n    }\r\n\r\n    // DEPRECATED\r\n    function getPlayerOneShotsBoard(uint gameID) public view returns (bool){\r\n        return getPlayerShotsBoard(gameID, 0);\r\n    }\r\n\r\n    // DEPRECATED\r\n    function getPlayerTwoShotsBoard(uint gameID) public view returns (bool){\r\n        return getPlayerShotsBoard(gameID, 1);\r\n    }\r\n\r\n    // for info on what location is see \"Implementation of the user-side game board\" in README.md\r\n    function FireTorpedo(uint gameID, uint8 location) gameExists(gameID) isInGame(gameID) shotOnBoard(location) assertState(gameID, GameStates.P0_FIRING) public {\r\n        uint[2] memory indexes = getIndexSender(gameID);\r\n        // Rotate into correct next state\r\n        openGames[gameID].state == GameStates.P0_FIRING ? openGames[gameID].state = GameStates.P1_CHECKING : openGames[gameID].state = GameStates.P0_CHECKING;\r\n        // Now for some game logic\r\n        // whatever happens, we lower the totalShots counter of our system by one\r\n        openGames[gameID].players[indexes[0]].shots_board.totalShots--;\r\n        // Then we evaluate whether or not this is zero. If it is, This party wins automatically.\r\n        // We do this here to avoid opponents stalling out on the reply for 5 blocks on what is a foregone conclusion\r\n        if (openGames[gameID].players[indexes[0]].shots_board.totalShots == 0){\r\n            openGames[gameID].winner = msg.sender;\r\n            openGames[gameID].state = GameStates.CHECKING_WINNER;\r\n            RequestWinnerBoard(gameID, msg.sender);\r\n        } else {\r\n            emit ShotsFired(gameID, location);\r\n        }\r\n    }\r\n    /*\r\n     gameExists(gameID) isInGame(gameID) shotOnBoard(location) assertState(gameID, GameStates.P0_CHECKING)\r\n    */\r\n    function ConfirmShot(uint gameID, uint8 location, bool isHit, bytes32 leaf, bytes32[] calldata proof) public {\r\n        // we assert manually rather than with modifiers to avoid a stack-too-deep error\r\n        assert(openGames[gameID].valid);\r\n        assert(location < (BOARD_SIZE*BOARD_SIZE));\r\n        if(openGames[gameID].players[0].playerAddress == msg.sender){\r\n            assert(openGames[gameID].state == GameStates.P0_CHECKING);\r\n        } else if (openGames[gameID].players[1].playerAddress == msg.sender){\r\n            assert(openGames[gameID].state == GameStates.P1_CHECKING);\r\n        } else {\r\n            assert(false);\r\n        }\r\n        uint[2] memory indexes = getIndexSender(gameID);\r\n        // make sure this node corresponds to the board tile and truth value we are checking\r\n        assert(leaf == GenLeafNode(location, isHit));\r\n        // execute the proof test\r\n        if(verifyCalldata(proof, openGames[gameID].players[indexes[0]].boardTreeRoot, leaf)){\r\n            // we could verify this user's proof\r\n            if (isHit){\r\n                // decrement our opponent's view of our total pieces\r\n                // only if the shot landed on a previously undeclared tile\r\n                // alas this is needed as the user might just keep asking for the same time over and over\r\n                // I don't know why they would do this, but they can\r\n                if(!openGames[gameID].players[indexes[1]].shots_board.board[location]){\r\n                    openGames[gameID].players[indexes[1]].shots_board.totalPieces--;\r\n                    openGames[gameID].players[indexes[1]].shots_board.board[location] = true;\r\n                    // if this was our last piece, we lost\r\n                    if(openGames[gameID].players[indexes[1]].shots_board.totalPieces == 0){\r\n                        openGames[gameID].winner = openGames[gameID].players[indexes[1]].playerAddress;\r\n                        openGames[gameID].state = GameStates.CHECKING_WINNER;\r\n                        RequestWinnerBoard(gameID, openGames[gameID].winner);\r\n                        return;\r\n                    }\r\n                }   \r\n            }\r\n            // rotate state\r\n            openGames[gameID].state == GameStates.P1_CHECKING ? openGames[gameID].state = GameStates.P1_FIRING : openGames[gameID].state = GameStates.P0_FIRING;\r\n            emit ShotsChecked(gameID, location, isHit, true);\r\n        } else {\r\n            // else we mark him as foul'd but do NOT rotate the state.\r\n            // TODO IMPLEMENT FOUL MECHANICS\r\n            emit ShotsChecked(gameID, location, isHit, false);\r\n        }\r\n    }\r\n\r\n    // this function generates a node locally in the same way a client would generate it\r\n    // it could be internal, we keep it public for now for debug purposes\r\n    function GenLeafNode(uint8 tile, bool ship) pure public returns (bytes32) {\r\n        return keccak256(abi.encode(tile,ship));\r\n    }\r\n\r\n    // a player who sees their address here will need to call VerifyWinner\r\n    function RequestWinnerBoard(uint gameID, address winnerAddress) private {\r\n        emit RequestBoard(gameID, winnerAddress);\r\n        // TODO: start foul counter\r\n    }\r\n\r\n    // sadly using our modifiers here runs into a stack too deep compilation issue\r\n    // ergo we must assert a few security values by hand\r\n    function VerifyWinner(\r\n    uint gameID,  \r\n    uint8[] calldata tiles,\r\n    bool[] calldata ships,\r\n    bytes32[] calldata nodes,\r\n    bytes32[][] calldata proofs,\r\n    bytes32 root\r\n    ) public {\r\n        uint winnerIndex;\r\n        assert(openGames[gameID].valid);\r\n        if(openGames[gameID].winner == openGames[gameID].players[0].playerAddress){\r\n            winnerIndex = 0;\r\n        } else {\r\n            winnerIndex = 1;\r\n        }\r\n        assert(openGames[gameID].winner == msg.sender);\r\n        assert(root == openGames[gameID].players[winnerIndex].boardTreeRoot);\r\n        assert(tiles.length == (BOARD_SIZE*BOARD_SIZE));\r\n        assert(ships.length == (BOARD_SIZE*BOARD_SIZE));\r\n        // First operation: make sure this board really has the required number of ships on it\r\n        // and make sure the winner didn't send us a different board\r\n        // in the same cycle, verify that the node is part of the tree\r\n        // we already made sure this root is the correct one\r\n        uint8 shipsTotal = 0;\r\n        for(uint8 i = 0; i < (BOARD_SIZE*BOARD_SIZE); i++){\r\n            if(ships[i])\r\n                shipsTotal++;\r\n            assert(nodes[i] == GenLeafNode(tiles[i], ships[i]));\r\n            assert(verifyCalldata(proofs[i], root, nodes[i]));\r\n        }\r\n        assert(shipsTotal == NUMBER_OF_SHIP_SQUARES);\r\n        // we don't use a conditional branch to alert the other player, as a Foul has already been triggered.\r\n        openGames[gameID].canPay = true;\r\n        emit Victory(gameID, msg.sender);\r\n    }\r\n\r\n    // Assortment of debug functions\r\n    \r\n     function PreviewLeafNode(uint8 tile, bool ship) pure public returns (bytes memory) {\r\n        return abi.encode(tile, ship);\r\n    }\r\n\r\n    function QuickCheck(bytes32 leaf, bytes32 root, bytes32[] calldata proof) public returns (bool){\r\n        bool forTheDebugger = verifyCalldata(proof, root, leaf);\r\n        emit ShotsChecked(0, 0, false, forTheDebugger);\r\n        return forTheDebugger;\r\n    }\r\n\r\n    function EchoBytes(bytes32 proof) pure public returns (bytes32) {\r\n        return proof;\r\n    }\r\n\r\n    function EchoProof(bytes32[] calldata proof) pure public returns (bytes32[] calldata) {\r\n        return proof;\r\n    }\r\n\r\n    function ChangeState(uint gameID, GameStates state) ownerOnly() public {\r\n        openGames[gameID].state = state;\r\n    }\r\n\r\n    function SetWinner(uint gameID, address winner) ownerOnly() public {\r\n        openGames[gameID].winner = winner;\r\n    }\r\n}",
  "sourcePath": "F:\\Documents\\Code\\School\\P2PBC\\Battleships\\contracts\\Battleships.sol",
  "compiler": {
    "name": "solc",
    "version": "0.8.19+commit.7dd6d404.Emscripten.clang"
  },
  "schemaVersion": "3.4.13",
  "updatedAt": "2023-05-25T11:44:29.115Z",
  "devdoc": {
    "kind": "dev",
    "methods": {},
    "version": 1
  },
  "userdoc": {
    "kind": "user",
    "methods": {},
    "version": 1
  }
}