{
  "contractName": "Battleships",
  "abi": [
    {
      "inputs": [],
      "stateMutability": "nonpayable",
      "type": "constructor"
    },
    {
      "inputs": [],
      "name": "InvalidGameID",
      "type": "error"
    },
    {
      "inputs": [],
      "name": "NotInGame",
      "type": "error"
    },
    {
      "inputs": [],
      "name": "StakeAlreadyDeposited",
      "type": "error"
    },
    {
      "inputs": [
        {
          "internalType": "uint256",
          "name": "expectedStakeValue",
          "type": "uint256"
        }
      ],
      "name": "WrongStakeAmount",
      "type": "error"
    },
    {
      "anonymous": false,
      "inputs": [
        {
          "indexed": false,
          "internalType": "uint256",
          "name": "_gameID",
          "type": "uint256"
        }
      ],
      "name": "AcceptingBoards",
      "type": "event"
    },
    {
      "anonymous": false,
      "inputs": [
        {
          "indexed": false,
          "internalType": "uint256",
          "name": "_gameID",
          "type": "uint256"
        },
        {
          "indexed": false,
          "internalType": "address",
          "name": "_player",
          "type": "address"
        }
      ],
      "name": "BoardAcknowledgeEvent",
      "type": "event"
    },
    {
      "anonymous": false,
      "inputs": [
        {
          "indexed": false,
          "internalType": "uint256",
          "name": "_gameID",
          "type": "uint256"
        },
        {
          "indexed": false,
          "internalType": "address",
          "name": "_accused",
          "type": "address"
        },
        {
          "indexed": false,
          "internalType": "uint256",
          "name": "_block",
          "type": "uint256"
        }
      ],
      "name": "Foul",
      "type": "event"
    },
    {
      "anonymous": false,
      "inputs": [
        {
          "indexed": false,
          "internalType": "uint256",
          "name": "_gameID",
          "type": "uint256"
        },
        {
          "indexed": false,
          "internalType": "address",
          "name": "_host",
          "type": "address"
        },
        {
          "indexed": false,
          "internalType": "address",
          "name": "_challenger",
          "type": "address"
        },
        {
          "indexed": false,
          "internalType": "uint256",
          "name": "_stakeValue",
          "type": "uint256"
        }
      ],
      "name": "GamePayable",
      "type": "event"
    },
    {
      "anonymous": false,
      "inputs": [
        {
          "indexed": false,
          "internalType": "uint256",
          "name": "_gameID",
          "type": "uint256"
        },
        {
          "indexed": false,
          "internalType": "address",
          "name": "_host",
          "type": "address"
        },
        {
          "indexed": false,
          "internalType": "address",
          "name": "_challenger",
          "type": "address"
        }
      ],
      "name": "GameStart",
      "type": "event"
    },
    {
      "anonymous": false,
      "inputs": [
        {
          "indexed": false,
          "internalType": "uint256",
          "name": "_gameID",
          "type": "uint256"
        }
      ],
      "name": "PlayerZeroTurn",
      "type": "event"
    },
    {
      "anonymous": false,
      "inputs": [
        {
          "indexed": false,
          "internalType": "uint256",
          "name": "_gameID",
          "type": "uint256"
        },
        {
          "indexed": false,
          "internalType": "address",
          "name": "_winner",
          "type": "address"
        }
      ],
      "name": "RequestBoard",
      "type": "event"
    },
    {
      "anonymous": false,
      "inputs": [
        {
          "indexed": false,
          "internalType": "address",
          "name": "_from",
          "type": "address"
        },
        {
          "indexed": false,
          "internalType": "address",
          "name": "_to",
          "type": "address"
        },
        {
          "indexed": false,
          "internalType": "uint256",
          "name": "_gameID",
          "type": "uint256"
        }
      ],
      "name": "ShareID",
      "type": "event"
    },
    {
      "anonymous": false,
      "inputs": [
        {
          "indexed": false,
          "internalType": "uint256",
          "name": "_gameID",
          "type": "uint256"
        },
        {
          "indexed": false,
          "internalType": "uint8",
          "name": "_location",
          "type": "uint8"
        },
        {
          "indexed": false,
          "internalType": "bool",
          "name": "_claim",
          "type": "bool"
        },
        {
          "indexed": false,
          "internalType": "bool",
          "name": "_validity",
          "type": "bool"
        }
      ],
      "name": "ShotsChecked",
      "type": "event"
    },
    {
      "anonymous": false,
      "inputs": [
        {
          "indexed": false,
          "internalType": "uint256",
          "name": "_gameID",
          "type": "uint256"
        },
        {
          "indexed": false,
          "internalType": "uint8",
          "name": "_location",
          "type": "uint8"
        }
      ],
      "name": "ShotsFired",
      "type": "event"
    },
    {
      "anonymous": false,
      "inputs": [
        {
          "indexed": false,
          "internalType": "uint256",
          "name": "_gameID",
          "type": "uint256"
        },
        {
          "indexed": false,
          "internalType": "address",
          "name": "_whoPaid",
          "type": "address"
        }
      ],
      "name": "StakePaid",
      "type": "event"
    },
    {
      "anonymous": false,
      "inputs": [
        {
          "indexed": false,
          "internalType": "uint256",
          "name": "_gameID",
          "type": "uint256"
        },
        {
          "indexed": false,
          "internalType": "address",
          "name": "_from",
          "type": "address"
        },
        {
          "indexed": false,
          "internalType": "address",
          "name": "_to",
          "type": "address"
        },
        {
          "indexed": false,
          "internalType": "uint256",
          "name": "_stakeValue",
          "type": "uint256"
        }
      ],
      "name": "SuggestedStake",
      "type": "event"
    },
    {
      "anonymous": false,
      "inputs": [
        {
          "indexed": false,
          "internalType": "uint256",
          "name": "_gameID",
          "type": "uint256"
        },
        {
          "indexed": false,
          "internalType": "address",
          "name": "_winner",
          "type": "address"
        }
      ],
      "name": "Victory",
      "type": "event"
    },
    {
      "inputs": [],
      "name": "BOARD_SIZE",
      "outputs": [
        {
          "internalType": "uint8",
          "name": "",
          "type": "uint8"
        }
      ],
      "stateMutability": "view",
      "type": "function"
    },
    {
      "inputs": [],
      "name": "NUMBER_OF_SHIP_SQUARES",
      "outputs": [
        {
          "internalType": "uint8",
          "name": "",
          "type": "uint8"
        }
      ],
      "stateMutability": "view",
      "type": "function"
    },
    {
      "inputs": [
        {
          "internalType": "bool",
          "name": "isPrivate",
          "type": "bool"
        }
      ],
      "name": "newGame",
      "outputs": [],
      "stateMutability": "nonpayable",
      "type": "function"
    },
    {
      "inputs": [
        {
          "internalType": "uint256",
          "name": "gameID",
          "type": "uint256"
        }
      ],
      "name": "joinGame",
      "outputs": [],
      "stateMutability": "nonpayable",
      "type": "function"
    },
    {
      "inputs": [
        {
          "internalType": "uint256",
          "name": "gameID",
          "type": "uint256"
        }
      ],
      "name": "checkGameState",
      "outputs": [
        {
          "internalType": "enum Battleships.GameStates",
          "name": "",
          "type": "uint8"
        }
      ],
      "stateMutability": "view",
      "type": "function"
    },
    {
      "inputs": [
        {
          "internalType": "uint256",
          "name": "gameID",
          "type": "uint256"
        },
        {
          "internalType": "uint256",
          "name": "index",
          "type": "uint256"
        }
      ],
      "name": "checkGamePlayer",
      "outputs": [
        {
          "internalType": "address",
          "name": "",
          "type": "address"
        }
      ],
      "stateMutability": "view",
      "type": "function"
    },
    {
      "inputs": [
        {
          "internalType": "uint256",
          "name": "gameID",
          "type": "uint256"
        },
        {
          "internalType": "uint256",
          "name": "stakeValue",
          "type": "uint256"
        }
      ],
      "name": "proposeStake",
      "outputs": [],
      "stateMutability": "nonpayable",
      "type": "function"
    },
    {
      "inputs": [
        {
          "internalType": "uint256",
          "name": "gameID",
          "type": "uint256"
        }
      ],
      "name": "checkStakePlayerOne",
      "outputs": [
        {
          "internalType": "uint256",
          "name": "",
          "type": "uint256"
        }
      ],
      "stateMutability": "view",
      "type": "function"
    },
    {
      "inputs": [
        {
          "internalType": "uint256",
          "name": "gameID",
          "type": "uint256"
        }
      ],
      "name": "checkStakePlayerTwo",
      "outputs": [
        {
          "internalType": "uint256",
          "name": "",
          "type": "uint256"
        }
      ],
      "stateMutability": "view",
      "type": "function"
    },
    {
      "inputs": [
        {
          "internalType": "uint256",
          "name": "gameID",
          "type": "uint256"
        }
      ],
      "name": "checkStakeGame",
      "outputs": [
        {
          "internalType": "uint256",
          "name": "",
          "type": "uint256"
        }
      ],
      "stateMutability": "view",
      "type": "function"
    },
    {
      "inputs": [
        {
          "internalType": "uint256",
          "name": "gameID",
          "type": "uint256"
        }
      ],
      "name": "payStake",
      "outputs": [],
      "stateMutability": "payable",
      "type": "function"
    },
    {
      "inputs": [
        {
          "internalType": "uint256",
          "name": "gameID",
          "type": "uint256"
        }
      ],
      "name": "checkGamePayable",
      "outputs": [
        {
          "internalType": "bool",
          "name": "",
          "type": "bool"
        }
      ],
      "stateMutability": "view",
      "type": "function"
    },
    {
      "inputs": [
        {
          "internalType": "uint256",
          "name": "gameID",
          "type": "uint256"
        },
        {
          "internalType": "bytes32",
          "name": "boardRoot",
          "type": "bytes32"
        }
      ],
      "name": "PlaceShips",
      "outputs": [],
      "stateMutability": "nonpayable",
      "type": "function"
    },
    {
      "inputs": [
        {
          "internalType": "uint256",
          "name": "gameID",
          "type": "uint256"
        },
        {
          "internalType": "uint8",
          "name": "location",
          "type": "uint8"
        }
      ],
      "name": "FireTorpedo",
      "outputs": [],
      "stateMutability": "nonpayable",
      "type": "function"
    },
    {
      "inputs": [
        {
          "internalType": "uint256",
          "name": "gameID",
          "type": "uint256"
        },
        {
          "internalType": "uint8",
          "name": "location",
          "type": "uint8"
        },
        {
          "internalType": "bool",
          "name": "isHit",
          "type": "bool"
        },
        {
          "internalType": "bytes32",
          "name": "leaf",
          "type": "bytes32"
        },
        {
          "internalType": "bytes32[]",
          "name": "proof",
          "type": "bytes32[]"
        }
      ],
      "name": "ConfirmShot",
      "outputs": [],
      "stateMutability": "nonpayable",
      "type": "function"
    },
    {
      "inputs": [
        {
          "internalType": "uint8",
          "name": "tile",
          "type": "uint8"
        },
        {
          "internalType": "bool",
          "name": "ship",
          "type": "bool"
        }
      ],
      "name": "GenLeafNode",
      "outputs": [
        {
          "internalType": "bytes32",
          "name": "",
          "type": "bytes32"
        }
      ],
      "stateMutability": "pure",
      "type": "function"
    },
    {
      "inputs": [
        {
          "internalType": "uint256",
          "name": "gameID",
          "type": "uint256"
        },
        {
          "internalType": "uint8[]",
          "name": "tiles",
          "type": "uint8[]"
        },
        {
          "internalType": "bool[]",
          "name": "ships",
          "type": "bool[]"
        },
        {
          "internalType": "bytes32[]",
          "name": "nodes",
          "type": "bytes32[]"
        },
        {
          "internalType": "bytes32[][]",
          "name": "proofs",
          "type": "bytes32[][]"
        },
        {
          "internalType": "bytes32",
          "name": "root",
          "type": "bytes32"
        }
      ],
      "name": "VerifyWinner",
      "outputs": [],
      "stateMutability": "nonpayable",
      "type": "function"
    },
    {
      "inputs": [
        {
          "internalType": "uint256",
          "name": "gameID",
          "type": "uint256"
        }
      ],
      "name": "WithdrawWinnings",
      "outputs": [],
      "stateMutability": "nonpayable",
      "type": "function"
    },
    {
      "inputs": [
        {
          "internalType": "uint256",
          "name": "gameID",
          "type": "uint256"
        }
      ],
      "name": "FoulAccusation",
      "outputs": [],
      "stateMutability": "nonpayable",
      "type": "function"
    },
    {
      "inputs": [
        {
          "internalType": "uint256",
          "name": "gameID",
          "type": "uint256"
        }
      ],
      "name": "CheckFoulTimer",
      "outputs": [],
      "stateMutability": "nonpayable",
      "type": "function"
    },
    {
      "inputs": [
        {
          "internalType": "uint256",
          "name": "gameID",
          "type": "uint256"
        },
        {
          "internalType": "enum Battleships.GameStates",
          "name": "state",
          "type": "uint8"
        }
      ],
      "name": "ChangeState",
      "outputs": [],
      "stateMutability": "nonpayable",
      "type": "function"
    },
    {
      "inputs": [
        {
          "internalType": "uint256",
          "name": "gameID",
          "type": "uint256"
        },
        {
          "internalType": "address",
          "name": "winner",
          "type": "address"
        }
      ],
      "name": "SetWinner",
      "outputs": [],
      "stateMutability": "nonpayable",
      "type": "function"
    }
  ],
  "bytecode": "0x608060405234801561001057600080fd5b506001602481905550600160258190555033602660016101000a81548173ffffffffffffffffffffffffffffffffffffffff021916908373ffffffffffffffffffffffffffffffffffffffff1602179055506005602660006101000a81548160ff021916908360ff160217905550615e8e806200008e6000396000f3fe6080604052600436106101355760003560e01c80639a7e4cea116100ab578063e0c6b52a1161006f578063e0c6b52a14610439578063e0dd9bb414610462578063efaa55a01461048b578063f28ae7dd146104b4578063f7b68ea9146104dd578063fba523b71461050657610135565b80639a7e4cea1461032e578063aa3ee9151461036b578063ac2f9423146103a8578063bd7c88f8146103d1578063dc4a3e951461040e57610135565b80636930aa4d116100fd5780636930aa4d1461020e578063699f5aeb1461023957806374f760e41461027657806379fbd95d1461029f57806395287e96146102c857806399396b11146102f157610135565b8063012b61f01461013a5780630e37dcd01461017757806316337b89146101935780632b170aac146101bc5780633c2d3a88146101e5575b600080fd5b34801561014657600080fd5b50610161600480360381019061015c9190615242565b610543565b60405161016e919061528a565b60405180910390f35b610191600480360381019061018c9190615242565b61062b565b005b34801561019f57600080fd5b506101ba60048036038101906101b591906152db565b610ec1565b005b3480156101c857600080fd5b506101e360048036038101906101de9190615347565b611710565b005b3480156101f157600080fd5b5061020c60048036038101906102079190615242565b611ba5565b005b34801561021a57600080fd5b50610223611dd4565b6040516102309190615390565b60405180910390f35b34801561024557600080fd5b50610260600480360381019061025b9190615242565b611dd9565b60405161026d91906153ba565b60405180910390f35b34801561028257600080fd5b5061029d60048036038101906102989190615242565b611eb4565b005b3480156102ab57600080fd5b506102c660048036038101906102c19190615466565b612381565b005b3480156102d457600080fd5b506102ef60048036038101906102ea9190615602565b612a6d565b005b3480156102fd57600080fd5b5061031860048036038101906103139190615712565b612ecd565b6040516103259190615793565b60405180910390f35b34801561033a57600080fd5b5061035560048036038101906103509190615242565b612f9c565b6040516103629190615825565b60405180910390f35b34801561037757600080fd5b50610392600480360381019061038d9190615242565b612ffa565b60405161039f91906153ba565b60405180910390f35b3480156103b457600080fd5b506103cf60048036038101906103ca919061586c565b6130aa565b005b3480156103dd57600080fd5b506103f860048036038101906103f391906158ac565b613102565b60405161040591906158fb565b60405180910390f35b34801561041a57600080fd5b50610423613135565b6040516104309190615390565b60405180910390f35b34801561044557600080fd5b50610460600480360381019061045b919061593b565b61313a565b005b34801561046e57600080fd5b506104896004803603810190610484919061597b565b61317b565b005b34801561049757600080fd5b506104b260048036038101906104ad9190615242565b61380e565b005b3480156104c057600080fd5b506104db60048036038101906104d69190615712565b613c59565b005b3480156104e957600080fd5b5061050460048036038101906104ff9190615242565b614604565b005b34801561051257600080fd5b5061052d60048036038101906105289190615242565b614a39565b60405161053a91906153ba565b60405180910390f35b600080600083815260200190815260200160002060000160009054906101000a900460ff1680156105ad5750600080838152602001908152602001600020600101600060028110610597576105966159bb565b5b6008020160000160009054906101000a900460ff165b80156105f257506000808381526020019081526020016000206001016001600281106105dc576105db6159bb565b5b6008020160000160009054906101000a900460ff165b156106215760008083815260200190815260200160002060000160019054906101000a900460ff169050610626565b600090505b919050565b8060008082815260200190815260200160002060000160009054906101000a900460ff1661065c5761065b6159ea565b5b813373ffffffffffffffffffffffffffffffffffffffff1660008083815260200190815260200160002060010160006002811061069c5761069b6159bb565b5b6008020160000160029054906101000a900473ffffffffffffffffffffffffffffffffffffffff1673ffffffffffffffffffffffffffffffffffffffff16148061076057503373ffffffffffffffffffffffffffffffffffffffff166000808381526020019081526020016000206001016001600281106107205761071f6159bb565b5b6008020160000160029054906101000a900473ffffffffffffffffffffffffffffffffffffffff1673ffffffffffffffffffffffffffffffffffffffff16145b61076d5761076c6159ea565b5b8260026004600b811115610784576107836157ae565b5b81600b811115610797576107966157ae565b5b141580156107ca57506006600b8111156107b4576107b36157ae565b5b81600b8111156107c7576107c66157ae565b5b14155b80156107fb57506007600b8111156107e5576107e46157ae565b5b81600b8111156107f8576107f76157ae565b5b14155b801561082c57506005600b811115610816576108156157ae565b5b81600b811115610829576108286157ae565b5b14155b1561088c5780600b811115610844576108436157ae565b5b60008084815260200190815260200160002060110160009054906101000a900460ff16600b811115610879576108786157ae565b5b14610887576108866159ea565b5b610ab4565b600061089783614ae9565b90506004600b8111156108ad576108ac6157ae565b5b82600b8111156108c0576108bf6157ae565b5b0361099d576000816000600281106108db576108da6159bb565b5b6020020151036109405781600b8111156108f8576108f76157ae565b5b60008085815260200190815260200160002060110160009054906101000a900460ff16600b81111561092d5761092c6157ae565b5b1461093b5761093a6159ea565b5b610998565b6006600b811115610954576109536157ae565b5b60008085815260200190815260200160002060110160009054906101000a900460ff16600b811115610989576109886157ae565b5b14610997576109966159ea565b5b5b610ab2565b6007600b8111156109b1576109b06157ae565b5b82600b8111156109c4576109c36157ae565b5b03610aa1576000816000600281106109df576109de6159bb565b5b602002015103610a445781600b8111156109fc576109fb6157ae565b5b60008085815260200190815260200160002060110160009054906101000a900460ff16600b811115610a3157610a306157ae565b5b14610a3f57610a3e6159ea565b5b610a9c565b6005600b811115610a5857610a576157ae565b5b60008085815260200190815260200160002060110160009054906101000a900460ff16600b811115610a8d57610a8c6157ae565b5b14610a9b57610a9a6159ea565b5b5b610ab1565b6000610ab057610aaf6159ea565b5b5b5b505b600080868152602001908152602001600020600101600060028110610adc57610adb6159bb565b5b6008020160000160029054906101000a900473ffffffffffffffffffffffffffffffffffffffff1673ffffffffffffffffffffffffffffffffffffffff163373ffffffffffffffffffffffffffffffffffffffff16148015610b775750600080868152602001908152602001600020600101600060028110610b6157610b606159bb565b5b6008020160000160019054906101000a900460ff165b80610c415750600080868152602001908152602001600020600101600160028110610ba557610ba46159bb565b5b6008020160000160029054906101000a900473ffffffffffffffffffffffffffffffffffffffff1673ffffffffffffffffffffffffffffffffffffffff163373ffffffffffffffffffffffffffffffffffffffff16148015610c405750600080868152602001908152602001600020600101600160028110610c2a57610c296159bb565b5b6008020160000160019054906101000a900460ff165b5b15610c78576040517f5e558b2300000000000000000000000000000000000000000000000000000000815260040160405180910390fd5b600080868152602001908152602001600020601201543414610ce657600080868152602001908152602001600020601201546040517f66cb868a000000000000000000000000000000000000000000000000000000008152600401610cdd91906153ba565b60405180910390fd5b600080600080888152602001908152602001600020600101600060028110610d1157610d106159bb565b5b6008020160000160029054906101000a900473ffffffffffffffffffffffffffffffffffffffff1673ffffffffffffffffffffffffffffffffffffffff163373ffffffffffffffffffffffffffffffffffffffff1603610d78576000915060019050610d81565b60019150600090505b60016000808981526020019081526020016000206001018360028110610daa57610da96159bb565b5b6008020160000160016101000a81548160ff0219169083151502179055507f95ddb9abe17699603c18cef7bcfd33947d19c8eb237e01edac0bd509b481339e8733604051610df9929190615a19565b60405180910390a16000808881526020019081526020016000206001018160028110610e2857610e276159bb565b5b6008020160000160019054906101000a900460ff1615610eb857600360008089815260200190815260200160002060110160006101000a81548160ff0219169083600b811115610e7b57610e7a6157ae565b5b02179055507f972651cf62ccc65bd2ba0fd996eb34701d5773844d3303545d5b4cb29738f10487604051610eaf91906153ba565b60405180910390a15b50505050505050565b8160008082815260200190815260200160002060000160009054906101000a900460ff16610ef257610ef16159ea565b5b823373ffffffffffffffffffffffffffffffffffffffff16600080838152602001908152602001600020600101600060028110610f3257610f316159bb565b5b6008020160000160029054906101000a900473ffffffffffffffffffffffffffffffffffffffff1673ffffffffffffffffffffffffffffffffffffffff161480610ff657503373ffffffffffffffffffffffffffffffffffffffff16600080838152602001908152602001600020600101600160028110610fb657610fb56159bb565b5b6008020160000160029054906101000a900473ffffffffffffffffffffffffffffffffffffffff1673ffffffffffffffffffffffffffffffffffffffff16145b611003576110026159ea565b5b8360036004600b81111561101a576110196157ae565b5b81600b81111561102d5761102c6157ae565b5b1415801561106057506006600b81111561104a576110496157ae565b5b81600b81111561105d5761105c6157ae565b5b14155b801561109157506007600b81111561107b5761107a6157ae565b5b81600b81111561108e5761108d6157ae565b5b14155b80156110c257506005600b8111156110ac576110ab6157ae565b5b81600b8111156110bf576110be6157ae565b5b14155b156111225780600b8111156110da576110d96157ae565b5b60008084815260200190815260200160002060110160009054906101000a900460ff16600b81111561110f5761110e6157ae565b5b1461111d5761111c6159ea565b5b61134a565b600061112d83614ae9565b90506004600b811115611143576111426157ae565b5b82600b811115611156576111556157ae565b5b0361123357600081600060028110611171576111706159bb565b5b6020020151036111d65781600b81111561118e5761118d6157ae565b5b60008085815260200190815260200160002060110160009054906101000a900460ff16600b8111156111c3576111c26157ae565b5b146111d1576111d06159ea565b5b61122e565b6006600b8111156111ea576111e96157ae565b5b60008085815260200190815260200160002060110160009054906101000a900460ff16600b81111561121f5761121e6157ae565b5b1461122d5761122c6159ea565b5b5b611348565b6007600b811115611247576112466157ae565b5b82600b81111561125a576112596157ae565b5b0361133757600081600060028110611275576112746159bb565b5b6020020151036112da5781600b811115611292576112916157ae565b5b60008085815260200190815260200160002060110160009054906101000a900460ff16600b8111156112c7576112c66157ae565b5b146112d5576112d46159ea565b5b611332565b6005600b8111156112ee576112ed6157ae565b5b60008085815260200190815260200160002060110160009054906101000a900460ff16600b811115611323576113226157ae565b5b14611331576113306159ea565b5b5b611347565b6000611346576113456159ea565b5b5b5b505b600080600080898152602001908152602001600020600101600060028110611375576113746159bb565b5b6008020160000160029054906101000a900473ffffffffffffffffffffffffffffffffffffffff1673ffffffffffffffffffffffffffffffffffffffff163373ffffffffffffffffffffffffffffffffffffffff16146113d95760019150816113df565b60009150815b50600080898152602001908152602001600020600101600060028110611408576114076159bb565b5b6008020160000160029054906101000a900473ffffffffffffffffffffffffffffffffffffffff1673ffffffffffffffffffffffffffffffffffffffff163373ffffffffffffffffffffffffffffffffffffffff161461146c576000905080611472565b60019050805b506000801b6000808a8152602001908152602001600020600101836002811061149e5761149d6159bb565b5b6008020160020154146114b057600080fd5b6000601f90506001601f60000160006101000a81548160ff021916908315150217905550601460ff16601f600101819055506008806114ef9190615a71565b60ff16601f6002018190555060005b60088061150b9190615a71565b60ff16811015611560576000601f600301826040811061152e5761152d6159bb565b5b602091828204019190066101000a81548160ff021916908315150217905550808061155890615aae565b9150506114fe565b50806000808b81526020019081526020016000206001018460028110611589576115886159bb565b5b600802016003016000820160009054906101000a900460ff168160000160006101000a81548160ff021916908315150217905550600182015481600101556002820154816002015560038201816003019060406115e7929190614f3f565b50905050876000808b81526020019081526020016000206001018460028110611613576116126159bb565b5b60080201600201819055507fde8cdabe60db81138d1e5580b73440f47ba010dbd18575d18bad0b750987001e893360405161164f929190615a19565b60405180910390a16000801b6000808b81526020019081526020016000206001018360028110611682576116816159bb565b5b6008020160020154146117055760046000808b815260200190815260200160002060110160006101000a81548160ff0219169083600b8111156116c8576116c76157ae565b5b02179055507ff751b3d5e96ffa95a434b79874df7e232b82d5c688a5d61fd7b5c5ce87247127896040516116fc91906153ba565b60405180910390a15b505050505050505050565b600060245490506024600081548092919061172a90615aae565b9190505550600060019050600060179050338160000160026101000a81548173ffffffffffffffffffffffffffffffffffffffff021916908373ffffffffffffffffffffffffffffffffffffffff16021790555060018160000160006101000a81548160ff02191690831515021790555060008160000160016101000a81548160ff02191690831515021790555080826001016000600281106117d0576117cf6159bb565b5b600802016000820160009054906101000a900460ff168160000160006101000a81548160ff0219169083151502179055506000820160019054906101000a900460ff168160000160016101000a81548160ff0219169083151502179055506000820160029054906101000a900473ffffffffffffffffffffffffffffffffffffffff168160000160026101000a81548173ffffffffffffffffffffffffffffffffffffffff021916908373ffffffffffffffffffffffffffffffffffffffff160217905550600182015481600101556002820154816002015560038201816003016000820160009054906101000a900460ff168160000160006101000a81548160ff02191690831515021790555060018201548160010155600282015481600201556003820181600301906040611908929190614f3f565b50505090505060008260110160006101000a81548160ff0219169083600b811115611936576119356157ae565b5b0217905550838260140160146101000a81548160ff02191690831515021790555060018260000160006101000a81548160ff02191690831515021790555060008260000160016101000a81548160ff021916908315150217905550816000808581526020019081526020016000206000820160009054906101000a900460ff168160000160006101000a81548160ff0219169083151502179055506000820160019054906101000a900460ff168160000160016101000a81548160ff0219169083151502179055506001820181600101906002611a14929190614f8a565b506011820160009054906101000a900460ff168160110160006101000a81548160ff0219169083600b811115611a4d57611a4c6157ae565b5b021790555060128201548160120155601382015481601301556014820160009054906101000a900473ffffffffffffffffffffffffffffffffffffffff168160140160006101000a81548173ffffffffffffffffffffffffffffffffffffffff021916908373ffffffffffffffffffffffffffffffffffffffff1602179055506014820160149054906101000a900460ff168160140160146101000a81548160ff0219169083151502179055506015820160009054906101000a900473ffffffffffffffffffffffffffffffffffffffff168160150160006101000a81548173ffffffffffffffffffffffffffffffffffffffff021916908373ffffffffffffffffffffffffffffffffffffffff1602179055509050507f1edfba130181c8da1b98834639c59b5287912fcc01104c5a7a6e6c8cd194e302303385604051611b9793929190615af6565b60405180910390a150505050565b8060008082815260200190815260200160002060000160009054906101000a900460ff16611bd657611bd56159ea565b5b813373ffffffffffffffffffffffffffffffffffffffff16600080838152602001908152602001600020600101600060028110611c1657611c156159bb565b5b6008020160000160029054906101000a900473ffffffffffffffffffffffffffffffffffffffff1673ffffffffffffffffffffffffffffffffffffffff161480611cda57503373ffffffffffffffffffffffffffffffffffffffff16600080838152602001908152602001600020600101600160028110611c9a57611c996159bb565b5b6008020160000160029054906101000a900473ffffffffffffffffffffffffffffffffffffffff1673ffffffffffffffffffffffffffffffffffffffff16145b611ce757611ce66159ea565b5b600073ffffffffffffffffffffffffffffffffffffffff1660008085815260200190815260200160002060140160009054906101000a900473ffffffffffffffffffffffffffffffffffffffff1673ffffffffffffffffffffffffffffffffffffffff1603611d5557600080fd5b602660009054906101000a900460ff1660ff1643611d739190615b2d565b600080858152602001908152602001600020601301541015611dcf57611dce8360008086815260200190815260200160002060140160009054906101000a900473ffffffffffffffffffffffffffffffffffffffff16614c06565b5b505050565b601481565b600080600083815260200190815260200160002060000160009054906101000a900460ff168015611e435750600080838152602001908152602001600020600101600060028110611e2d57611e2c6159bb565b5b6008020160000160009054906101000a900460ff165b8015611e885750600080838152602001908152602001600020600101600160028110611e7257611e716159bb565b5b6008020160000160009054906101000a900460ff165b15611eaa57600080838152602001908152602001600020601201549050611eaf565b600090505b919050565b8060008082815260200190815260200160002060000160009054906101000a900460ff16611ee557611ee46159ea565b5b813373ffffffffffffffffffffffffffffffffffffffff1660008083815260200190815260200160002060150160009054906101000a900473ffffffffffffffffffffffffffffffffffffffff1673ffffffffffffffffffffffffffffffffffffffff1614611f5757611f566159ea565b5b8260096004600b811115611f6e57611f6d6157ae565b5b81600b811115611f8157611f806157ae565b5b14158015611fb457506006600b811115611f9e57611f9d6157ae565b5b81600b811115611fb157611fb06157ae565b5b14155b8015611fe557506007600b811115611fcf57611fce6157ae565b5b81600b811115611fe257611fe16157ae565b5b14155b801561201657506005600b81111561200057611fff6157ae565b5b81600b811115612013576120126157ae565b5b14155b156120765780600b81111561202e5761202d6157ae565b5b60008084815260200190815260200160002060110160009054906101000a900460ff16600b811115612063576120626157ae565b5b14612071576120706159ea565b5b61229e565b600061208183614ae9565b90506004600b811115612097576120966157ae565b5b82600b8111156120aa576120a96157ae565b5b03612187576000816000600281106120c5576120c46159bb565b5b60200201510361212a5781600b8111156120e2576120e16157ae565b5b60008085815260200190815260200160002060110160009054906101000a900460ff16600b811115612117576121166157ae565b5b14612125576121246159ea565b5b612182565b6006600b81111561213e5761213d6157ae565b5b60008085815260200190815260200160002060110160009054906101000a900460ff16600b811115612173576121726157ae565b5b14612181576121806159ea565b5b5b61229c565b6007600b81111561219b5761219a6157ae565b5b82600b8111156121ae576121ad6157ae565b5b0361228b576000816000600281106121c9576121c86159bb565b5b60200201510361222e5781600b8111156121e6576121e56157ae565b5b60008085815260200190815260200160002060110160009054906101000a900460ff16600b81111561221b5761221a6157ae565b5b14612229576122286159ea565b5b612286565b6005600b811115612242576122416157ae565b5b60008085815260200190815260200160002060110160009054906101000a900460ff16600b811115612277576122766157ae565b5b14612285576122846159ea565b5b5b61229b565b600061229a576122996159ea565b5b5b5b505b60006002600080888152602001908152602001600020601201546122c29190615b61565b9050600a60008088815260200190815260200160002060110160006101000a81548160ff0219169083600b8111156122fd576122fc6157ae565b5b021790555060003373ffffffffffffffffffffffffffffffffffffffff168260405161232890615bd4565b60006040518083038185875af1925050503d8060008114612365576040519150601f19603f3d011682016040523d82523d6000602084013e61236a565b606091505b505090508061237857600080fd5b50505050505050565b60008087815260200190815260200160002060000160009054906101000a900460ff166123b1576123b06159ea565b5b6008806123be9190615a71565b60ff168560ff16106123d3576123d26159ea565b5b3373ffffffffffffffffffffffffffffffffffffffff16600080888152602001908152602001600020600101600060028110612412576124116159bb565b5b6008020160000160029054906101000a900473ffffffffffffffffffffffffffffffffffffffff1673ffffffffffffffffffffffffffffffffffffffff16036124b1576007600b811115612469576124686157ae565b5b60008088815260200190815260200160002060110160009054906101000a900460ff16600b81111561249e5761249d6157ae565b5b146124ac576124ab6159ea565b5b6125a0565b3373ffffffffffffffffffffffffffffffffffffffff166000808881526020019081526020016000206001016001600281106124f0576124ef6159bb565b5b6008020160000160029054906101000a900473ffffffffffffffffffffffffffffffffffffffff1673ffffffffffffffffffffffffffffffffffffffff160361258f576005600b811115612547576125466157ae565b5b60008088815260200190815260200160002060110160009054906101000a900460ff16600b81111561257c5761257b6157ae565b5b1461258a576125896159ea565b5b61259f565b600061259e5761259d6159ea565b5b5b5b60006125ab87614ae9565b90506125b78686613102565b84146125c6576125c56159ea565b5b61261883836000808b8152602001908152602001600020600101846000600281106125f4576125f36159bb565b5b60200201516002811061260a576126096159bb565b5b600802016002015487614cdb565b15612a245761262687614cf4565b84156129125760008088815260200190815260200160002060010181600160028110612655576126546159bb565b5b60200201516002811061266b5761266a6159bb565b5b600802016003016003018660ff166040811061268a576126896159bb565b5b602091828204019190069054906101000a900460ff1661291157600080888152602001908152602001600020600101816001600281106126cd576126cc6159bb565b5b6020020151600281106126e3576126e26159bb565b5b6008020160030160010160008154809291906126fe90615be9565b919050555060016000808981526020019081526020016000206001018260016002811061272e5761272d6159bb565b5b602002015160028110612744576127436159bb565b5b600802016003016003018760ff1660408110612763576127626159bb565b5b602091828204019190066101000a81548160ff0219169083151502179055506000806000898152602001908152602001600020600101826001600281106127ad576127ac6159bb565b5b6020020151600281106127c3576127c26159bb565b5b60080201600301600101540361291057600080888152602001908152602001600020600101816001600281106127fc576127fb6159bb565b5b602002015160028110612812576128116159bb565b5b6008020160000160029054906101000a900473ffffffffffffffffffffffffffffffffffffffff1660008089815260200190815260200160002060150160006101000a81548173ffffffffffffffffffffffffffffffffffffffff021916908373ffffffffffffffffffffffffffffffffffffffff160217905550600860008089815260200190815260200160002060110160006101000a81548160ff0219169083600b8111156128c6576128c56157ae565b5b021790555061290a876000808a815260200190815260200160002060150160009054906101000a900473ffffffffffffffffffffffffffffffffffffffff16614e68565b50612a65565b5b5b6005600b811115612926576129256157ae565b5b60008089815260200190815260200160002060110160009054906101000a900460ff16600b81111561295b5761295a6157ae565b5b146129a257600460008089815260200190815260200160002060110160006101000a81548160ff0219169083600b811115612999576129986157ae565b5b021790556129e0565b600660008089815260200190815260200160002060110160006101000a81548160ff0219169083600b8111156129db576129da6157ae565b5b021790555b507f6b7f4cb32e4557bb0ec1ac014e9cf98e7eb88491d66436be28084edaf4ae0d078787876001604051612a179493929190615c12565b60405180910390a1612a63565b7f6b7f4cb32e4557bb0ec1ac014e9cf98e7eb88491d66436be28084edaf4ae0d078787876000604051612a5a9493929190615c12565b60405180910390a15b505b505050505050565b60008060008c815260200190815260200160002060000160009054906101000a900460ff16612a9f57612a9e6159ea565b5b6008600b811115612ab357612ab26157ae565b5b6000808d815260200190815260200160002060110160009054906101000a900460ff16600b811115612ae857612ae76157ae565b5b14612af657612af56159ea565b5b6000808c8152602001908152602001600020600101600060028110612b1e57612b1d6159bb565b5b6008020160000160029054906101000a900473ffffffffffffffffffffffffffffffffffffffff1673ffffffffffffffffffffffffffffffffffffffff166000808d815260200190815260200160002060150160009054906101000a900473ffffffffffffffffffffffffffffffffffffffff1673ffffffffffffffffffffffffffffffffffffffff1603612bb65760009050612bbb565b600190505b3373ffffffffffffffffffffffffffffffffffffffff166000808d815260200190815260200160002060150160009054906101000a900473ffffffffffffffffffffffffffffffffffffffff1673ffffffffffffffffffffffffffffffffffffffff1614612c2c57612c2b6159ea565b5b6000808c81526020019081526020016000206001018160028110612c5357612c526159bb565b5b60080201600201548214612c6a57612c696159ea565b5b600880612c779190615a71565b60ff168a8a905014612c8c57612c8b6159ea565b5b600880612c999190615a71565b60ff168888905014612cae57612cad6159ea565b5b6000805b600880612cbf9190615a71565b60ff168160ff161015612e025789898260ff16818110612ce257612ce16159bb565b5b9050602002016020810190612cf79190615347565b15612d0b578180612d0790615c57565b9250505b612d698c8c8360ff16818110612d2457612d236159bb565b5b9050602002016020810190612d399190615c80565b8b8b8460ff16818110612d4f57612d4e6159bb565b5b9050602002016020810190612d649190615347565b613102565b88888360ff16818110612d7f57612d7e6159bb565b5b9050602002013514612d9457612d936159ea565b5b612de286868360ff16818110612dad57612dac6159bb565b5b9050602002810190612dbf9190615cbc565b868b8b8660ff16818110612dd657612dd56159bb565b5b90506020020135614cdb565b612def57612dee6159ea565b5b8080612dfa90615c57565b915050612cb2565b50601460ff168160ff1614612e1a57612e196159ea565b5b60016000808e815260200190815260200160002060000160016101000a81548160ff02191690831515021790555060096000808e815260200190815260200160002060110160006101000a81548160ff0219169083600b811115612e8157612e806157ae565b5b02179055507fc2815c82adc4278d6e044948482e0d16acf9a6369fc96eff02ffc7e7cd5f39d08c33604051612eb7929190615a19565b60405180910390a1505050505050505050505050565b600080600084815260200190815260200160002060000160009054906101000a900460ff168015612f3657506000808481526020019081526020016000206001018260028110612f2057612f1f6159bb565b5b6008020160000160009054906101000a900460ff165b15612f91576000808481526020019081526020016000206001018260028110612f6257612f616159bb565b5b6008020160000160029054906101000a900473ffffffffffffffffffffffffffffffffffffffff169050612f96565b600090505b92915050565b600080600083815260200190815260200160002060000160009054906101000a900460ff1615612ff05760008083815260200190815260200160002060110160009054906101000a900460ff169050612ff5565b600b90505b919050565b600080600083815260200190815260200160002060000160009054906101000a900460ff168015613064575060008083815260200190815260200160002060010160016002811061304e5761304d6159bb565b5b6008020160000160009054906101000a900460ff165b156130a057600080838152602001908152602001600020600101600160028110613091576130906159bb565b5b600802016001015490506130a5565b600090505b919050565b8060008084815260200190815260200160002060150160006101000a81548173ffffffffffffffffffffffffffffffffffffffff021916908373ffffffffffffffffffffffffffffffffffffffff1602179055505050565b60008282604051602001613117929190615d1f565b60405160208183030381529060405280519060200120905092915050565b600881565b8060008084815260200190815260200160002060110160006101000a81548160ff0219169083600b811115613172576131716157ae565b5b02179055505050565b8160008082815260200190815260200160002060000160009054906101000a900460ff166131ac576131ab6159ea565b5b823373ffffffffffffffffffffffffffffffffffffffff166000808381526020019081526020016000206001016000600281106131ec576131eb6159bb565b5b6008020160000160029054906101000a900473ffffffffffffffffffffffffffffffffffffffff1673ffffffffffffffffffffffffffffffffffffffff1614806132b057503373ffffffffffffffffffffffffffffffffffffffff166000808381526020019081526020016000206001016001600281106132705761326f6159bb565b5b6008020160000160029054906101000a900473ffffffffffffffffffffffffffffffffffffffff1673ffffffffffffffffffffffffffffffffffffffff16145b6132bd576132bc6159ea565b5b826008806132cb9190615a71565b60ff168160ff16106132e0576132df6159ea565b5b84600480600b8111156132f6576132f56157ae565b5b81600b811115613309576133086157ae565b5b1415801561333c57506006600b811115613326576133256157ae565b5b81600b811115613339576133386157ae565b5b14155b801561336d57506007600b811115613357576133566157ae565b5b81600b81111561336a576133696157ae565b5b14155b801561339e57506005600b811115613388576133876157ae565b5b81600b81111561339b5761339a6157ae565b5b14155b156133fe5780600b8111156133b6576133b56157ae565b5b60008084815260200190815260200160002060110160009054906101000a900460ff16600b8111156133eb576133ea6157ae565b5b146133f9576133f86159ea565b5b613626565b600061340983614ae9565b90506004600b81111561341f5761341e6157ae565b5b82600b811115613432576134316157ae565b5b0361350f5760008160006002811061344d5761344c6159bb565b5b6020020151036134b25781600b81111561346a576134696157ae565b5b60008085815260200190815260200160002060110160009054906101000a900460ff16600b81111561349f5761349e6157ae565b5b146134ad576134ac6159ea565b5b61350a565b6006600b8111156134c6576134c56157ae565b5b60008085815260200190815260200160002060110160009054906101000a900460ff16600b8111156134fb576134fa6157ae565b5b14613509576135086159ea565b5b5b613624565b6007600b811115613523576135226157ae565b5b82600b811115613536576135356157ae565b5b0361361357600081600060028110613551576135506159bb565b5b6020020151036135b65781600b81111561356e5761356d6157ae565b5b60008085815260200190815260200160002060110160009054906101000a900460ff16600b8111156135a3576135a26157ae565b5b146135b1576135b06159ea565b5b61360e565b6005600b8111156135ca576135c96157ae565b5b60008085815260200190815260200160002060110160009054906101000a900460ff16600b8111156135ff576135fe6157ae565b5b1461360d5761360c6159ea565b5b5b613623565b6000613622576136216159ea565b5b5b5b505b61362f87614cf4565b600061363a88614ae9565b90506004600b8111156136505761364f6157ae565b5b6000808a815260200190815260200160002060110160009054906101000a900460ff16600b811115613685576136846157ae565b5b146136cc5760076000808a815260200190815260200160002060110160006101000a81548160ff0219169083600b8111156136c3576136c26157ae565b5b0217905561370a565b60056000808a815260200190815260200160002060110160006101000a81548160ff0219169083600b811115613705576137046157ae565b5b021790555b5060008089815260200190815260200160002060010181600060028110613734576137336159bb565b5b60200201516002811061374a576137496159bb565b5b60080201600301600201600081548092919061376590615be9565b919050555060008060008a815260200190815260200160002060010182600060028110613795576137946159bb565b5b6020020151600281106137ab576137aa6159bb565b5b6008020160030160020154036137ca576137c58833614c06565b613804565b7fdba0500edc5d1049fa27c54a56e9f0313f9a962ae79b418ea0cfdfb55659328688886040516137fb929190615d48565b60405180910390a15b5050505050505050565b600081036139735760255490505b602454811161396b576001151560008083815260200190815260200160002060000160009054906101000a900460ff1615151480156138a157506000600b81111561386a576138696157ae565b5b60008083815260200190815260200160002060110160009054906101000a900460ff16600b81111561389f5761389e6157ae565b5b145b801561392857503373ffffffffffffffffffffffffffffffffffffffff166000808381526020019081526020016000206001016000600281106138e7576138e66159bb565b5b6008020160000160029054906101000a900473ffffffffffffffffffffffffffffffffffffffff1673ffffffffffffffffffffffffffffffffffffffff1614155b8015613954575060008082815260200190815260200160002060140160149054906101000a900460ff16155b61396b57808061396390615aae565b91505061381c565b806025819055505b60008082815260200190815260200160002060000160009054906101000a900460ff166139a3576139a26159ea565b5b600060179050338160000160026101000a81548173ffffffffffffffffffffffffffffffffffffffff021916908373ffffffffffffffffffffffffffffffffffffffff16021790555060018160000160006101000a81548160ff02191690831515021790555060008160000160016101000a81548160ff02191690831515021790555080600080848152602001908152602001600020600101600160028110613a4f57613a4e6159bb565b5b600802016000820160009054906101000a900460ff168160000160006101000a81548160ff0219169083151502179055506000820160019054906101000a900460ff168160000160016101000a81548160ff0219169083151502179055506000820160029054906101000a900473ffffffffffffffffffffffffffffffffffffffff168160000160026101000a81548173ffffffffffffffffffffffffffffffffffffffff021916908373ffffffffffffffffffffffffffffffffffffffff160217905550600182015481600101556002820154816002015560038201816003016000820160009054906101000a900460ff168160000160006101000a81548160ff02191690831515021790555060018201548160010155600282015481600201556003820181600301906040613b87929190614f3f565b505050905050600160008084815260200190815260200160002060110160006101000a81548160ff0219169083600b811115613bc657613bc56157ae565b5b02179055507fdf72bd9cb04731c1dfa0832a380e56504fda45508a7305083a9be0f343e9342182600080858152602001908152602001600020600101600060028110613c1557613c146159bb565b5b6008020160000160029054906101000a900473ffffffffffffffffffffffffffffffffffffffff1633604051613c4d93929190615d71565b60405180910390a15050565b8160008082815260200190815260200160002060000160009054906101000a900460ff16613c8a57613c896159ea565b5b823373ffffffffffffffffffffffffffffffffffffffff16600080838152602001908152602001600020600101600060028110613cca57613cc96159bb565b5b6008020160000160029054906101000a900473ffffffffffffffffffffffffffffffffffffffff1673ffffffffffffffffffffffffffffffffffffffff161480613d8e57503373ffffffffffffffffffffffffffffffffffffffff16600080838152602001908152602001600020600101600160028110613d4e57613d4d6159bb565b5b6008020160000160029054906101000a900473ffffffffffffffffffffffffffffffffffffffff1673ffffffffffffffffffffffffffffffffffffffff16145b613d9b57613d9a6159ea565b5b8360016004600b811115613db257613db16157ae565b5b81600b811115613dc557613dc46157ae565b5b14158015613df857506006600b811115613de257613de16157ae565b5b81600b811115613df557613df46157ae565b5b14155b8015613e2957506007600b811115613e1357613e126157ae565b5b81600b811115613e2657613e256157ae565b5b14155b8015613e5a57506005600b811115613e4457613e436157ae565b5b81600b811115613e5757613e566157ae565b5b14155b15613eba5780600b811115613e7257613e716157ae565b5b60008084815260200190815260200160002060110160009054906101000a900460ff16600b811115613ea757613ea66157ae565b5b14613eb557613eb46159ea565b5b6140e2565b6000613ec583614ae9565b90506004600b811115613edb57613eda6157ae565b5b82600b811115613eee57613eed6157ae565b5b03613fcb57600081600060028110613f0957613f086159bb565b5b602002015103613f6e5781600b811115613f2657613f256157ae565b5b60008085815260200190815260200160002060110160009054906101000a900460ff16600b811115613f5b57613f5a6157ae565b5b14613f6957613f686159ea565b5b613fc6565b6006600b811115613f8257613f816157ae565b5b60008085815260200190815260200160002060110160009054906101000a900460ff16600b811115613fb757613fb66157ae565b5b14613fc557613fc46159ea565b5b5b6140e0565b6007600b811115613fdf57613fde6157ae565b5b82600b811115613ff257613ff16157ae565b5b036140cf5760008160006002811061400d5761400c6159bb565b5b6020020151036140725781600b81111561402a576140296157ae565b5b60008085815260200190815260200160002060110160009054906101000a900460ff16600b81111561405f5761405e6157ae565b5b1461406d5761406c6159ea565b5b6140ca565b6005600b811115614086576140856157ae565b5b60008085815260200190815260200160002060110160009054906101000a900460ff16600b8111156140bb576140ba6157ae565b5b146140c9576140c86159ea565b5b5b6140df565b60006140de576140dd6159ea565b5b5b5b505b6000806000888152602001908152602001600020604051806101200160405290816000820160009054906101000a900460ff161515151581526020016000820160019054906101000a900460ff1615151515815260200160018201600280602002604051908101604052809291906000905b828210156142c9578382600802016040518060c00160405290816000820160009054906101000a900460ff161515151581526020016000820160019054906101000a900460ff161515151581526020016000820160029054906101000a900473ffffffffffffffffffffffffffffffffffffffff1673ffffffffffffffffffffffffffffffffffffffff1673ffffffffffffffffffffffffffffffffffffffff1681526020016001820154815260200160028201548152602001600382016040518060800160405290816000820160009054906101000a900460ff161515151581526020016001820154815260200160028201548152602001600382016040806020026040519081016040528092919082604080156142ad576020028201916000905b82829054906101000a900460ff161515815260200190600101906020826000010492830192600103820291508084116142775790505b5050505050815250508152505081526020019060010190614154565b5050505081526020016011820160009054906101000a900460ff16600b8111156142f6576142f56157ae565b5b600b811115614308576143076157ae565b5b815260200160128201548152602001601382015481526020016014820160009054906101000a900473ffffffffffffffffffffffffffffffffffffffff1673ffffffffffffffffffffffffffffffffffffffff1673ffffffffffffffffffffffffffffffffffffffff1681526020016014820160149054906101000a900460ff161515151581526020016015820160009054906101000a900473ffffffffffffffffffffffffffffffffffffffff1673ffffffffffffffffffffffffffffffffffffffff1673ffffffffffffffffffffffffffffffffffffffff168152505090506000808260400151600060028110614404576144036159bb565b5b60200201516040015173ffffffffffffffffffffffffffffffffffffffff163373ffffffffffffffffffffffffffffffffffffffff160361444c576001915060009050614455565b60009150600190505b60008360400151836002811061446e5761446d6159bb565b5b6020020151606001519050886000808c815260200190815260200160002060010183600281106144a1576144a06159bb565b5b6008020160010181905550600081141580156144bc57508881145b1561459b57886000808c81526020019081526020016000206012018190555060026000808c815260200190815260200160002060110160006101000a81548160ff0219169083600b811115614514576145136157ae565b5b02179055507fa63491c3e48c84a30c1a58128201bca4fd87bb84850cda339020ce19051e5a908a8560400151600060028110614553576145526159bb565b5b6020020151604001518660400151600160028110614574576145736159bb565b5b6020020151604001518c60405161458e9493929190615da8565b60405180910390a16145f8565b7f4adf94e8b5302c48b3df6533aa17748538d68a74af46f0a894839b61fbf3f1bf8a33866040015186600281106145d5576145d46159bb565b5b6020020151604001518c6040516145ef9493929190615da8565b60405180910390a15b50505050505050505050565b8060008082815260200190815260200160002060000160009054906101000a900460ff16614635576146346159ea565b5b600080600084815260200190815260200160002060010160006002811061465f5761465e6159bb565b5b6008020160000160029054906101000a900473ffffffffffffffffffffffffffffffffffffffff1673ffffffffffffffffffffffffffffffffffffffff163373ffffffffffffffffffffffffffffffffffffffff160361476a57600090506006600b8111156146d1576146d06157ae565b5b60008085815260200190815260200160002060110160009054906101000a900460ff16600b811115614706576147056157ae565b5b148061475857506005600b811115614721576147206157ae565b5b60008085815260200190815260200160002060110160009054906101000a900460ff16600b811115614756576147556157ae565b5b145b614765576147646159ea565b5b6148ae565b600080848152602001908152602001600020600101600160028110614792576147916159bb565b5b6008020160000160029054906101000a900473ffffffffffffffffffffffffffffffffffffffff1673ffffffffffffffffffffffffffffffffffffffff163373ffffffffffffffffffffffffffffffffffffffff160361489d57600190506004600b811115614804576148036157ae565b5b60008085815260200190815260200160002060110160009054906101000a900460ff16600b811115614839576148386157ae565b5b148061488b57506007600b811115614854576148536157ae565b5b60008085815260200190815260200160002060110160009054906101000a900460ff16600b811115614889576148886157ae565b5b145b614898576148976159ea565b5b6148ad565b60006148ac576148ab6159ea565b5b5b5b600073ffffffffffffffffffffffffffffffffffffffff1660008085815260200190815260200160002060140160009054906101000a900473ffffffffffffffffffffffffffffffffffffffff1673ffffffffffffffffffffffffffffffffffffffff161461491c57600080fd5b3360008085815260200190815260200160002060140160006101000a81548173ffffffffffffffffffffffffffffffffffffffff021916908373ffffffffffffffffffffffffffffffffffffffff16021790555043600080858152602001908152602001600020601301819055507f0bf978ab2586eab9e083eec06f934bd39c6da770feb9502455f09c4cf17b1bec836000808681526020019081526020016000206001018360016149ce9190615ded565b600281106149df576149de6159bb565b5b6008020160000160029054906101000a900473ffffffffffffffffffffffffffffffffffffffff1660008087815260200190815260200160002060130154604051614a2c93929190615e21565b60405180910390a1505050565b600080600083815260200190815260200160002060000160009054906101000a900460ff168015614aa35750600080838152602001908152602001600020600101600060028110614a8d57614a8c6159bb565b5b6008020160000160009054906101000a900460ff165b15614adf57600080838152602001908152602001600020600101600060028110614ad057614acf6159bb565b5b60080201600101549050614ae4565b600090505b919050565b614af1615104565b614af9615104565b600080848152602001908152602001600020600101600060028110614b2157614b206159bb565b5b6008020160000160029054906101000a900473ffffffffffffffffffffffffffffffffffffffff1673ffffffffffffffffffffffffffffffffffffffff163373ffffffffffffffffffffffffffffffffffffffff1603614bbe57600081600060028110614b9157614b906159bb565b5b602002018181525050600181600160028110614bb057614baf6159bb565b5b602002018181525050614bfd565b600181600060028110614bd457614bd36159bb565b5b602002018181525050600081600160028110614bf357614bf26159bb565b5b6020020181815250505b80915050919050565b8060008084815260200190815260200160002060150160006101000a81548173ffffffffffffffffffffffffffffffffffffffff021916908373ffffffffffffffffffffffffffffffffffffffff160217905550600860008084815260200190815260200160002060110160006101000a81548160ff0219169083600b811115614c9357614c926157ae565b5b0217905550614cd78260008085815260200190815260200160002060150160009054906101000a900473ffffffffffffffffffffffffffffffffffffffff16614e68565b5050565b600082614ce9868685614ea5565b149050949350505050565b600073ffffffffffffffffffffffffffffffffffffffff1660008083815260200190815260200160002060140160009054906101000a900473ffffffffffffffffffffffffffffffffffffffff1673ffffffffffffffffffffffffffffffffffffffff1614158015614dc757503373ffffffffffffffffffffffffffffffffffffffff1660008083815260200190815260200160002060140160009054906101000a900473ffffffffffffffffffffffffffffffffffffffff1673ffffffffffffffffffffffffffffffffffffffff1614155b15614e6557602660009054906101000a900460ff1660ff1643614dea9190615b2d565b600080838152602001908152602001600020601301541015614e0f57614e0e6159ea565b5b600080600083815260200190815260200160002060140160006101000a81548173ffffffffffffffffffffffffffffffffffffffff021916908373ffffffffffffffffffffffffffffffffffffffff1602179055505b50565b7fc53d54ea71e800bb40731cf938b78bbb3e167ca69808d9e2945e2f018b3c40678282604051614e99929190615a19565b60405180910390a15050565b60008082905060005b85859050811015614ef157614edc82878784818110614ed057614ecf6159bb565b5b90506020020135614efd565b91508080614ee990615aae565b915050614eae565b50809150509392505050565b6000818310614f1557614f108284614f28565b614f20565b614f1f8383614f28565b5b905092915050565b600082600052816020526040600020905092915050565b826040601f01602090048101928215614f795791601f016020900482015b82811115614f78578254825591600101919060010190614f5d565b5b509050614f869190615126565b5090565b82600260080281019282156150f3579160080282015b828111156150f25782826000820160009054906101000a900460ff168160000160006101000a81548160ff0219169083151502179055506000820160019054906101000a900460ff168160000160016101000a81548160ff0219169083151502179055506000820160029054906101000a900473ffffffffffffffffffffffffffffffffffffffff168160000160026101000a81548173ffffffffffffffffffffffffffffffffffffffff021916908373ffffffffffffffffffffffffffffffffffffffff160217905550600182015481600101556002820154816002015560038201816003016000820160009054906101000a900460ff168160000160006101000a81548160ff021916908315150217905550600182015481600101556002820154816002015560038201816003019060406150de929190614f3f565b505050505091600801919060080190614fa0565b5b5090506151009190615143565b5090565b6040518060400160405280600290602082028036833780820191505090505090565b5b8082111561513f576000816000905550600101615127565b5090565b5b808211156151f057600080820160006101000a81549060ff02191690556000820160016101000a81549060ff02191690556000820160026101000a81549073ffffffffffffffffffffffffffffffffffffffff02191690556001820160009055600282016000905560038201600080820160006101000a81549060ff0219169055600182016000905560028201600090556003820160006151e591906151f4565b505050600801615144565b5090565b506000815560010160009055565b600080fd5b600080fd5b6000819050919050565b61521f8161520c565b811461522a57600080fd5b50565b60008135905061523c81615216565b92915050565b60006020828403121561525857615257615202565b5b60006152668482850161522d565b91505092915050565b60008115159050919050565b6152848161526f565b82525050565b600060208201905061529f600083018461527b565b92915050565b6000819050919050565b6152b8816152a5565b81146152c357600080fd5b50565b6000813590506152d5816152af565b92915050565b600080604083850312156152f2576152f1615202565b5b60006153008582860161522d565b9250506020615311858286016152c6565b9150509250929050565b6153248161526f565b811461532f57600080fd5b50565b6000813590506153418161531b565b92915050565b60006020828403121561535d5761535c615202565b5b600061536b84828501615332565b91505092915050565b600060ff82169050919050565b61538a81615374565b82525050565b60006020820190506153a56000830184615381565b92915050565b6153b48161520c565b82525050565b60006020820190506153cf60008301846153ab565b92915050565b6153de81615374565b81146153e957600080fd5b50565b6000813590506153fb816153d5565b92915050565b600080fd5b600080fd5b600080fd5b60008083601f84011261542657615425615401565b5b8235905067ffffffffffffffff81111561544357615442615406565b5b60208301915083602082028301111561545f5761545e61540b565b5b9250929050565b60008060008060008060a0878903121561548357615482615202565b5b600061549189828a0161522d565b96505060206154a289828a016153ec565b95505060406154b389828a01615332565b94505060606154c489828a016152c6565b935050608087013567ffffffffffffffff8111156154e5576154e4615207565b5b6154f189828a01615410565b92509250509295509295509295565b60008083601f84011261551657615515615401565b5b8235905067ffffffffffffffff81111561553357615532615406565b5b60208301915083602082028301111561554f5761554e61540b565b5b9250929050565b60008083601f84011261556c5761556b615401565b5b8235905067ffffffffffffffff81111561558957615588615406565b5b6020830191508360208202830111156155a5576155a461540b565b5b9250929050565b60008083601f8401126155c2576155c1615401565b5b8235905067ffffffffffffffff8111156155df576155de615406565b5b6020830191508360208202830111156155fb576155fa61540b565b5b9250929050565b60008060008060008060008060008060c08b8d03121561562557615624615202565b5b60006156338d828e0161522d565b9a505060208b013567ffffffffffffffff81111561565457615653615207565b5b6156608d828e01615500565b995099505060408b013567ffffffffffffffff81111561568357615682615207565b5b61568f8d828e01615556565b975097505060608b013567ffffffffffffffff8111156156b2576156b1615207565b5b6156be8d828e01615410565b955095505060808b013567ffffffffffffffff8111156156e1576156e0615207565b5b6156ed8d828e016155ac565b935093505060a06157008d828e016152c6565b9150509295989b9194979a5092959850565b6000806040838503121561572957615728615202565b5b60006157378582860161522d565b92505060206157488582860161522d565b9150509250929050565b600073ffffffffffffffffffffffffffffffffffffffff82169050919050565b600061577d82615752565b9050919050565b61578d81615772565b82525050565b60006020820190506157a86000830184615784565b92915050565b7f4e487b7100000000000000000000000000000000000000000000000000000000600052602160045260246000fd5b600c81106157ee576157ed6157ae565b5b50565b60008190506157ff826157dd565b919050565b600061580f826157f1565b9050919050565b61581f81615804565b82525050565b600060208201905061583a6000830184615816565b92915050565b61584981615772565b811461585457600080fd5b50565b60008135905061586681615840565b92915050565b6000806040838503121561588357615882615202565b5b60006158918582860161522d565b92505060206158a285828601615857565b9150509250929050565b600080604083850312156158c3576158c2615202565b5b60006158d1858286016153ec565b92505060206158e285828601615332565b9150509250929050565b6158f5816152a5565b82525050565b600060208201905061591060008301846158ec565b92915050565b600c811061592357600080fd5b50565b60008135905061593581615916565b92915050565b6000806040838503121561595257615951615202565b5b60006159608582860161522d565b925050602061597185828601615926565b9150509250929050565b6000806040838503121561599257615991615202565b5b60006159a08582860161522d565b92505060206159b1858286016153ec565b9150509250929050565b7f4e487b7100000000000000000000000000000000000000000000000000000000600052603260045260246000fd5b7f4e487b7100000000000000000000000000000000000000000000000000000000600052600160045260246000fd5b6000604082019050615a2e60008301856153ab565b615a3b6020830184615784565b9392505050565b7f4e487b7100000000000000000000000000000000000000000000000000000000600052601160045260246000fd5b6000615a7c82615374565b9150615a8783615374565b9250828202615a9581615374565b9150808214615aa757615aa6615a42565b5b5092915050565b6000615ab98261520c565b91507fffffffffffffffffffffffffffffffffffffffffffffffffffffffffffffffff8203615aeb57615aea615a42565b5b600182019050919050565b6000606082019050615b0b6000830186615784565b615b186020830185615784565b615b2560408301846153ab565b949350505050565b6000615b388261520c565b9150615b438361520c565b9250828201905080821115615b5b57615b5a615a42565b5b92915050565b6000615b6c8261520c565b9150615b778361520c565b9250828202615b858161520c565b91508282048414831517615b9c57615b9b615a42565b5b5092915050565b600081905092915050565b50565b6000615bbe600083615ba3565b9150615bc982615bae565b600082019050919050565b6000615bdf82615bb1565b9150819050919050565b6000615bf48261520c565b915060008203615c0757615c06615a42565b5b600182039050919050565b6000608082019050615c2760008301876153ab565b615c346020830186615381565b615c41604083018561527b565b615c4e606083018461527b565b95945050505050565b6000615c6282615374565b915060ff8203615c7557615c74615a42565b5b600182019050919050565b600060208284031215615c9657615c95615202565b5b6000615ca4848285016153ec565b91505092915050565b600080fd5b600080fd5b600080fd5b60008083356001602003843603038112615cd957615cd8615cad565b5b80840192508235915067ffffffffffffffff821115615cfb57615cfa615cb2565b5b602083019250602082023603831315615d1757615d16615cb7565b5b509250929050565b6000604082019050615d346000830185615381565b615d41602083018461527b565b9392505050565b6000604082019050615d5d60008301856153ab565b615d6a6020830184615381565b9392505050565b6000606082019050615d8660008301866153ab565b615d936020830185615784565b615da06040830184615784565b949350505050565b6000608082019050615dbd60008301876153ab565b615dca6020830186615784565b615dd76040830185615784565b615de460608301846153ab565b95945050505050565b6000615df88261520c565b9150615e038361520c565b9250828203905081811115615e1b57615e1a615a42565b5b92915050565b6000606082019050615e3660008301866153ab565b615e436020830185615784565b615e5060408301846153ab565b94935050505056fea2646970667358221220d3a74443dbb763517d89f90733ded6ee637d416fad47991bcafa2c60061cc7d864736f6c63430008130033",
  "immutableReferences": {},
  "source": "// SPDX-License-Identifier: MIT\r\npragma solidity >=0.4.22 <0.9.0;\r\n\r\ncontract Battleships {\r\n    uint8 public constant NUMBER_OF_SHIP_SQUARES = 20;\r\n    uint8 public constant BOARD_SIZE = 8;\r\n    enum GameStates{\r\n        WAITING, \r\n        SETTING_STAKE, \r\n        ACCEPTING_PAYMENT,\r\n        PLACING_SHIPS, \r\n        P0_FIRING,\r\n        P1_CHECKING,\r\n        P1_FIRING,\r\n        P0_CHECKING,\r\n        CHECKING_WINNER,\r\n        PAYABLE,\r\n        DONE,\r\n        NONE\r\n    }\r\n\r\n    // In this struct we save the view a player has of its opponent's board\r\n    struct Board{\r\n        bool valid;\r\n        // N*N matrix of bits to store hits\r\n        // bool[BOARD_SIZE][BOARD_SIZE] shots;\r\n        // # of enemy pieces still left on the board\r\n        // goes down by one each time we receive one 'you hit' event\r\n        uint totalPieces;\r\n        // 8*8, we use this to avoid cheating\r\n        uint totalShots;\r\n        bool[BOARD_SIZE*BOARD_SIZE] board; \r\n    }\r\n\r\n    struct Player{\r\n        bool valid;\r\n        bool hasPaidStake;\r\n        address playerAddress;\r\n        uint proposedStake;\r\n        bytes32 boardTreeRoot;\r\n        Board shots_board;\r\n    }\r\n\r\n    struct Game{\r\n        bool valid;\r\n        bool canPay;\r\n        // host is always player[0]\r\n        Player[2] players;\r\n        GameStates state;\r\n        uint decidedStake;\r\n        // used for foul accusation, a foul is triggered after 5 blocks\r\n        uint blockNumber;\r\n        // player 0 or player 1\r\n        // might turn it into address, we will see\r\n        address accuser;\r\n        // whether or not this game should be in the public pool of joinable games\r\n        bool privateGame;\r\n        address winner;\r\n    }\r\n\r\n    mapping(uint => Game) private openGames;\r\n\r\n    Game private gameTrampoline;\r\n    Player private playerTrampoline;\r\n    Board private trampolineBoard;\r\n    // used in generating UUIDs for the games\r\n    // for now we are gonna use this as-is\r\n    // start at 1 as 0 is used for a non-existing game\r\n    // TODO: deal with it overflowing\r\n    uint private gameCounter;\r\n    uint private lastOpenGame;\r\n    uint8 private foulBlockLen;\r\n    address private owner;\r\n\r\n    constructor() {\r\n        gameCounter = 1;\r\n        lastOpenGame = 1;\r\n        owner = msg.sender;\r\n        // this could be passed as parameter\r\n        foulBlockLen = 5;\r\n    }\r\n\r\n    event ShareID(address _from, address _to, uint _gameID);\r\n    event GameStart(uint _gameID, address _host, address _challenger);\r\n    event SuggestedStake(uint _gameID, address _from, address _to, uint _stakeValue);\r\n    event GamePayable(uint _gameID, address _host, address _challenger, uint _stakeValue);\r\n    event StakePaid(uint _gameID, address _whoPaid);\r\n    event AcceptingBoards(uint _gameID);\r\n    event BoardAcknowledgeEvent(uint _gameID, address _player);\r\n    event PlayerZeroTurn(uint _gameID);\r\n    event ShotsFired(uint _gameID, uint8 _location);\r\n    event ShotsChecked(uint _gameID, uint8 _location, bool _claim, bool _validity);\r\n    event RequestBoard(uint _gameID, address _winner);\r\n    event Victory(uint _gameID, address _winner);\r\n    event Foul(uint _gameID, address _accused, uint _block);\r\n\r\n    error InvalidGameID();\r\n    error NotInGame();\r\n    error StakeAlreadyDeposited();\r\n    error WrongStakeAmount(uint expectedStakeValue);\r\n\r\n    modifier gameExists(uint gameID){\r\n        assert(openGames[gameID].valid);\r\n        _;\r\n    }\r\n\r\n    modifier isInGame(uint gameID){\r\n        assert((openGames[gameID].players[0].playerAddress == msg.sender) || (openGames[gameID].players[1].playerAddress == msg.sender));\r\n        _;\r\n    }\r\n\r\n    modifier assertState(uint gameID, GameStates _state){\r\n        if(_state != GameStates.P0_FIRING && _state != GameStates.P1_FIRING && _state != GameStates.P0_CHECKING && _state != GameStates.P1_CHECKING)\r\n            assert(openGames[gameID].state == _state);\r\n        else{\r\n            // We check firing states with P0_FIRING and checking states with P0_CHECKING, for both players\r\n            uint[2] memory indexes = getIndexSender(gameID);\r\n            if(_state == GameStates.P0_FIRING){\r\n                if(indexes[0] == 0)\r\n                    assert(openGames[gameID].state == _state);\r\n                else\r\n                    assert(openGames[gameID].state == GameStates.P1_FIRING);\r\n            }\r\n            else if(_state == GameStates.P0_CHECKING){\r\n                if(indexes[0] == 0)\r\n                    assert(openGames[gameID].state == _state);\r\n                else\r\n                    assert(openGames[gameID].state == GameStates.P1_CHECKING);\r\n            }\r\n            else assert(false);\r\n        }\r\n        _;\r\n    }\r\n\r\n    modifier playerInRange(uint gameID, uint index){\r\n        assert(openGames[gameID].players[index].valid);\r\n        assert(index < openGames[gameID].players.length);\r\n        _;\r\n    }\r\n\r\n    modifier shotOnBoard(uint8 location){\r\n        assert(location < (BOARD_SIZE*BOARD_SIZE));\r\n        _;\r\n    }\r\n\r\n    modifier isWinner(uint gameID){\r\n        assert(openGames[gameID].winner == msg.sender);\r\n        _;\r\n    }\r\n\r\n    function getIndexSender (uint gameID) view private returns(uint[2] memory) {\r\n        // indexes[0]: msg.sender index\r\n        // indexes[1]: msg.sender opponent's index\r\n        uint[2] memory indexes;\r\n        if(msg.sender == openGames[gameID].players[0].playerAddress){\r\n            indexes[0] = 0;\r\n            indexes[1] = 1;\r\n        } else {\r\n            indexes[0] = 1;\r\n            indexes[1] = 0;\r\n        }\r\n        return indexes;\r\n    }\r\n\r\n    // Code from OpenZeppelin's project\r\n    // https://github.com/OpenZeppelin\r\n    function verifyCalldata(\r\n    bytes32[] calldata proof,\r\n    bytes32 root,\r\n    bytes32 leaf\r\n    ) internal pure returns (bool) {\r\n        return processProofCalldata(proof, leaf) == root;\r\n    }\r\n\r\n    function processProofCalldata(\r\n        bytes32[] calldata proof,\r\n        bytes32 leaf\r\n    ) internal pure returns (bytes32) {\r\n        bytes32 computedHash = leaf;\r\n        for (uint256 i = 0; i < proof.length; i++) {\r\n            computedHash = _hashPair(computedHash, proof[i]);\r\n        }\r\n        return computedHash;\r\n    }\r\n\r\n    function _hashPair(bytes32 a, bytes32 b)\r\n        private\r\n        pure\r\n        returns(bytes32)\r\n    {\r\n        return a < b ? _efficientHash(a, b) : _efficientHash(b, a);\r\n    }\r\n\r\n    function _efficientHash(bytes32 a, bytes32 b)\r\n        private\r\n        pure\r\n        returns (bytes32 value)\r\n    {\r\n        assembly {\r\n            mstore(0x00, a)\r\n            mstore(0x20, b)\r\n            value := keccak256(0x00, 0x40)\r\n        }\r\n    }\r\n    // end of OpenZeppelin code\r\n\r\n    // create a Game value, add it to openGames, populate the Player[0]\r\n    function newGame(bool isPrivate) public {\r\n        uint gameID = gameCounter;\r\n        gameCounter++;\r\n        Game storage game = gameTrampoline;\r\n        Player storage host = playerTrampoline;\r\n        host.playerAddress = msg.sender;\r\n        host.valid = true;\r\n        host.hasPaidStake = false;\r\n        game.players[0] = host;\r\n        game.state = GameStates.WAITING;\r\n        game.privateGame = isPrivate;\r\n        game.valid = true;\r\n        game.canPay = false;\r\n        openGames[gameID] = game;\r\n        emit ShareID(address(this), msg.sender, gameID);\r\n        return;\r\n    }\r\n    \r\n    function joinGame(uint gameID) public {\r\n        if(gameID == 0){\r\n            // pick an unassigned game in sequential order\r\n            gameID = lastOpenGame;\r\n            while(gameID <= gameCounter){\r\n                // ignore games with sender as host (you can still join your own games directly if you're that lonely)\r\n                if(openGames[gameID].valid == true && \r\n                    openGames[gameID].state == GameStates.WAITING && \r\n                    openGames[gameID].players[0].playerAddress != msg.sender && \r\n                    !openGames[gameID].privateGame){\r\n                    break;\r\n                }\r\n                gameID++;\r\n            }\r\n            // update the lastOpenGame counter no matter what\r\n            lastOpenGame = gameID;\r\n        }\r\n        // if the game wasn't valid, throw an error\r\n        assert(openGames[gameID].valid);\r\n        // set msg sender as this game's player 2\r\n        Player storage challenger = playerTrampoline;\r\n        challenger.playerAddress = msg.sender;\r\n        challenger.valid = true;\r\n        challenger.hasPaidStake = false;\r\n        openGames[gameID].players[1] = challenger;\r\n        // update this game's status\r\n        openGames[gameID].state = GameStates.SETTING_STAKE;\r\n        // alert the players\r\n        emit GameStart(gameID, openGames[gameID].players[0].playerAddress, msg.sender);\r\n        return;\r\n    }\r\n\r\n    function checkGameState(uint gameID) public view returns (GameStates) {\r\n        if (openGames[gameID].valid){\r\n            return openGames[gameID].state;\r\n        }\r\n        else \r\n            return(GameStates.NONE);\r\n    }\r\n\r\n    function checkGamePlayer(uint gameID, uint index) public view returns (address) {\r\n        if (openGames[gameID].valid && openGames[gameID].players[index].valid){\r\n            return openGames[gameID].players[index].playerAddress;\r\n        }\r\n        else \r\n            return(address(0));\r\n    }\r\n\r\n    // Function to propose and agree upon a stake between players\r\n    function proposeStake(uint gameID, uint stakeValue) gameExists(gameID) isInGame(gameID) assertState(gameID, GameStates.SETTING_STAKE) public{\r\n        Game memory game = openGames[gameID];\r\n        // Check whether or not this player's opponent has already proposed a stake\r\n        uint opponentIndex;\r\n        uint stakerIndex;\r\n        if(msg.sender == game.players[0].playerAddress){\r\n            opponentIndex = 1;\r\n            stakerIndex = 0;\r\n        } else {\r\n            opponentIndex = 0;\r\n            stakerIndex = 1;\r\n        }\r\n        uint opponentStake = game.players[opponentIndex].proposedStake;\r\n        // set this player's proposed stake to their message\r\n        openGames[gameID].players[stakerIndex].proposedStake = stakeValue;\r\n        // if the opponent has proposed a stake we check whether or not it equals the one proposed by us\r\n        // 0 is not a valid stake\r\n        if(opponentStake != 0 && opponentStake == stakeValue){\r\n            openGames[gameID].decidedStake = stakeValue;\r\n            openGames[gameID].state = GameStates.ACCEPTING_PAYMENT;\r\n            emit GamePayable(gameID, game.players[0].playerAddress, game.players[1].playerAddress, stakeValue);\r\n        }else{\r\n            emit SuggestedStake(gameID, msg.sender, game.players[opponentIndex].playerAddress, stakeValue);\r\n        }\r\n        return;\r\n    }\r\n\r\n    function checkStakePlayerOne(uint gameID) public view returns (uint) {\r\n        if (openGames[gameID].valid && openGames[gameID].players[0].valid){\r\n            return openGames[gameID].players[0].proposedStake;\r\n        }\r\n        else \r\n            return(0);\r\n    }\r\n\r\n    function checkStakePlayerTwo(uint gameID) public view returns (uint) {\r\n        if (openGames[gameID].valid && openGames[gameID].players[1].valid){\r\n            return openGames[gameID].players[1].proposedStake;\r\n        }\r\n        else \r\n            return(0);\r\n    }\r\n\r\n    function checkStakeGame(uint gameID) public view returns (uint) {\r\n        if (openGames[gameID].valid && openGames[gameID].players[0].valid && openGames[gameID].players[1].valid)\r\n            return openGames[gameID].decidedStake;\r\n        else\r\n            return(0);\r\n    }\r\n    \r\n    function payStake(uint gameID) gameExists(gameID) isInGame(gameID) assertState(gameID, GameStates.ACCEPTING_PAYMENT) external payable {\r\n        if((msg.sender == openGames[gameID].players[0].playerAddress && openGames[gameID].players[0].hasPaidStake) ||\r\n            (msg.sender == openGames[gameID].players[1].playerAddress && openGames[gameID].players[1].hasPaidStake))\r\n            revert StakeAlreadyDeposited();\r\n        // only accept payments for the exact amount owed\r\n        if(msg.value != openGames[gameID].decidedStake)\r\n            revert WrongStakeAmount(openGames[gameID].decidedStake);\r\n        // now we check who the sender is\r\n        uint senderIndex;\r\n        uint challengerIndex;\r\n        if(msg.sender == openGames[gameID].players[0].playerAddress){\r\n            senderIndex = 0;\r\n            challengerIndex = 1;\r\n        }else{\r\n            senderIndex = 1;\r\n            challengerIndex = 0;\r\n        }\r\n        openGames[gameID].players[senderIndex].hasPaidStake = true;\r\n        emit StakePaid(gameID, msg.sender);\r\n        // if both players have paid the owed stake the game can move on to its next state\r\n        if(openGames[gameID].players[challengerIndex].hasPaidStake){\r\n            openGames[gameID].state = GameStates.PLACING_SHIPS;\r\n            emit AcceptingBoards(gameID);\r\n        }\r\n    }\r\n    \r\n    function checkGamePayable(uint gameID) public view returns (bool) {\r\n        if (openGames[gameID].valid && openGames[gameID].players[0].valid && openGames[gameID].players[1].valid)\r\n            return openGames[gameID].canPay;\r\n        else\r\n            return(false);\r\n    }\r\n    \r\n    function PlaceShips(uint gameID, bytes32 boardRoot) gameExists(gameID) isInGame(gameID) assertState(gameID, GameStates.PLACING_SHIPS) public{\r\n        uint index;\r\n        uint oppIdx;\r\n        msg.sender == openGames[gameID].players[0].playerAddress ? index = 0 : index = 1;\r\n        msg.sender == openGames[gameID].players[0].playerAddress ? oppIdx = 1 : oppIdx = 0;\r\n        require(openGames[gameID].players[index].boardTreeRoot == 0x0);\r\n        // Instantiate a new shots board\r\n        // Instantiate the Board struct itself and assign it to a player\r\n        Board storage playerBoard = trampolineBoard;\r\n        trampolineBoard.valid = true;\r\n        trampolineBoard.totalPieces = NUMBER_OF_SHIP_SQUARES;\r\n        trampolineBoard.totalShots = (BOARD_SIZE*BOARD_SIZE);\r\n        for(uint i = 0; i < (BOARD_SIZE*BOARD_SIZE); i++){\r\n            trampolineBoard.board[i] = false;\r\n        }\r\n        openGames[gameID].players[index].shots_board = playerBoard;\r\n        // save the received boardRoot, finally\r\n        openGames[gameID].players[index].boardTreeRoot = boardRoot;\r\n        emit BoardAcknowledgeEvent(gameID, msg.sender);\r\n        if(openGames[gameID].players[oppIdx].boardTreeRoot != 0x0){\r\n            openGames[gameID].state = GameStates.P0_FIRING;\r\n            emit PlayerZeroTurn(gameID);\r\n        }\r\n    }\r\n\r\n    function TestWinner(uint gameID, address claimant) private {\r\n        openGames[gameID].winner = claimant;\r\n        openGames[gameID].state = GameStates.CHECKING_WINNER;\r\n        RequestWinnerBoard(gameID, openGames[gameID].winner);\r\n    }\r\n\r\n    // for info on what location is see \"Implementation of the user-side game board\" in README.md\r\n    function FireTorpedo(uint gameID, uint8 location) gameExists(gameID) isInGame(gameID) shotOnBoard(location) assertState(gameID, GameStates.P0_FIRING) public {\r\n        // if we got past the modifiers, this means the shot is valid\r\n        // let's clear any potential fouls for this user\r\n        ClearFoul(gameID);\r\n        uint[2] memory indexes = getIndexSender(gameID);\r\n        // Rotate into correct next state\r\n        openGames[gameID].state == GameStates.P0_FIRING ? openGames[gameID].state = GameStates.P1_CHECKING : openGames[gameID].state = GameStates.P0_CHECKING;\r\n        // Now for some game logic\r\n        // whatever happens, we lower the totalShots counter of our system by one\r\n        openGames[gameID].players[indexes[0]].shots_board.totalShots--;\r\n        // Then we evaluate whether or not this is zero. If it is, This party wins automatically.\r\n        // We do this here to avoid opponents stalling out on the reply for 5 blocks on what is a foregone conclusion\r\n        if (openGames[gameID].players[indexes[0]].shots_board.totalShots == 0){\r\n            TestWinner(gameID, msg.sender);\r\n        } else {\r\n            emit ShotsFired(gameID, location);\r\n        }\r\n    }\r\n    /*\r\n     gameExists(gameID) isInGame(gameID) shotOnBoard(location) assertState(gameID, GameStates.P0_CHECKING)\r\n    */\r\n    function ConfirmShot(uint gameID, uint8 location, bool isHit, bytes32 leaf, bytes32[] calldata proof) public {\r\n        // we assert manually rather than with modifiers to avoid a stack-too-deep error\r\n        assert(openGames[gameID].valid);\r\n        assert(location < (BOARD_SIZE*BOARD_SIZE));\r\n        if(openGames[gameID].players[0].playerAddress == msg.sender){\r\n            assert(openGames[gameID].state == GameStates.P0_CHECKING);\r\n        } else if (openGames[gameID].players[1].playerAddress == msg.sender){\r\n            assert(openGames[gameID].state == GameStates.P1_CHECKING);\r\n        } else {\r\n            assert(false);\r\n        }\r\n        uint[2] memory indexes = getIndexSender(gameID);\r\n        // make sure this node corresponds to the board tile and truth value we are checking\r\n        assert(leaf == GenLeafNode(location, isHit));\r\n        // execute the proof test\r\n        if(verifyCalldata(proof, openGames[gameID].players[indexes[0]].boardTreeRoot, leaf)){\r\n            // if we got this far it means the reply is valid\r\n            // let's clear any potential fouls for this user\r\n            ClearFoul(gameID);\r\n            // we could verify this user's proof\r\n            if (isHit){\r\n                // decrement our opponent's view of our total pieces\r\n                // only if the shot landed on a previously undeclared tile\r\n                // alas this is needed as the user might just keep asking for the same time over and over\r\n                // I don't know why they would do this, but they can\r\n                if(!openGames[gameID].players[indexes[1]].shots_board.board[location]){\r\n                    openGames[gameID].players[indexes[1]].shots_board.totalPieces--;\r\n                    openGames[gameID].players[indexes[1]].shots_board.board[location] = true;\r\n                    // if this was our last piece, we lost\r\n                    if(openGames[gameID].players[indexes[1]].shots_board.totalPieces == 0){\r\n                        openGames[gameID].winner = openGames[gameID].players[indexes[1]].playerAddress;\r\n                        openGames[gameID].state = GameStates.CHECKING_WINNER;\r\n                        RequestWinnerBoard(gameID, openGames[gameID].winner);\r\n                        return;\r\n                    }\r\n                }   \r\n            }\r\n            // rotate state\r\n            openGames[gameID].state == GameStates.P1_CHECKING ? openGames[gameID].state = GameStates.P1_FIRING : openGames[gameID].state = GameStates.P0_FIRING;\r\n            emit ShotsChecked(gameID, location, isHit, true);\r\n        } else {\r\n            // else we emit a 'shot failed to validate' message\r\n            // keep in mind the foul for this user is NOT triggered automatically.\r\n            emit ShotsChecked(gameID, location, isHit, false);\r\n        }\r\n    }\r\n\r\n    // this function generates a node locally in the same way a client would generate it\r\n    // it could be internal, we keep it public for now for debug purposes\r\n    function GenLeafNode(uint8 tile, bool ship) pure public returns (bytes32) {\r\n        return keccak256(abi.encode(tile,ship));\r\n    }\r\n\r\n    // a player who sees their address here will need to call VerifyWinner\r\n    function RequestWinnerBoard(uint gameID, address winnerAddress) private {\r\n        emit RequestBoard(gameID, winnerAddress);\r\n        // TODO: start foul counter\r\n    }\r\n\r\n    // sadly using our modifiers here runs into a stack too deep compilation issue\r\n    // ergo we must assert a few security values by hand\r\n    // yes, the 'tiles' array is completely useless but we will leave it there for now\r\n    // it could be useful for future expansions into 5d battleships\r\n    function VerifyWinner(\r\n    uint gameID,  \r\n    uint8[] calldata tiles,\r\n    bool[] calldata ships,\r\n    bytes32[] calldata nodes,\r\n    bytes32[][] calldata proofs,\r\n    bytes32 root\r\n    ) public {\r\n        uint winnerIndex;\r\n        assert(openGames[gameID].valid);\r\n        assert(openGames[gameID].state == GameStates.CHECKING_WINNER);\r\n        if(openGames[gameID].winner == openGames[gameID].players[0].playerAddress){\r\n            winnerIndex = 0;\r\n        } else {\r\n            winnerIndex = 1;\r\n        }\r\n        assert(openGames[gameID].winner == msg.sender);\r\n        assert(root == openGames[gameID].players[winnerIndex].boardTreeRoot);\r\n        assert(tiles.length == (BOARD_SIZE*BOARD_SIZE));\r\n        assert(ships.length == (BOARD_SIZE*BOARD_SIZE));\r\n        // First operation: make sure this board really has the required number of ships on it\r\n        // and make sure the winner didn't send us a different board\r\n        // in the same cycle, verify that the node is part of the tree\r\n        // we already made sure this root is the correct one\r\n        uint8 shipsTotal = 0;\r\n        for(uint8 i = 0; i < (BOARD_SIZE*BOARD_SIZE); i++){\r\n            if(ships[i])\r\n                shipsTotal++;\r\n            assert(nodes[i] == GenLeafNode(tiles[i], ships[i]));\r\n            assert(verifyCalldata(proofs[i], root, nodes[i]));\r\n        }\r\n        assert(shipsTotal == NUMBER_OF_SHIP_SQUARES);\r\n        // we don't use a conditional branch to alert the other player, as a Foul has already been triggered.\r\n        openGames[gameID].canPay = true;\r\n        openGames[gameID].state = GameStates.PAYABLE;\r\n        emit Victory(gameID, msg.sender);\r\n    }\r\n\r\n    function WithdrawWinnings(uint gameID) gameExists(gameID) isWinner(gameID) assertState(gameID, GameStates.PAYABLE) external {\r\n        uint amountOwed = openGames[gameID].decidedStake*2;\r\n        openGames[gameID].state = GameStates.DONE;\r\n        (bool success, ) = msg.sender.call{value:amountOwed}(\"\");\r\n        require(success);\r\n    }\r\n\r\n    // TODO: Unit test everything below this\r\n\r\n    // a player can accuse another player of being afk if they don't act within X blocks\r\n    // for this to happen, the state has to be one they don't control\r\n    function FoulAccusation(uint gameID) gameExists(gameID) public {\r\n        uint senderIndex;\r\n        if(msg.sender == openGames[gameID].players[0].playerAddress){\r\n            senderIndex = 0;\r\n            assert(openGames[gameID].state == GameStates.P1_FIRING || openGames[gameID].state == GameStates.P1_CHECKING);\r\n        } else if (msg.sender == openGames[gameID].players[1].playerAddress){\r\n            senderIndex = 1;\r\n            assert(openGames[gameID].state == GameStates.P0_FIRING || openGames[gameID].state == GameStates.P0_CHECKING);\r\n        } else {\r\n            assert(false);\r\n        }\r\n        require(openGames[gameID].accuser == address(0));\r\n        // very important: this is the only place where accuser can be set to anything other than 0\r\n        openGames[gameID].accuser = msg.sender;\r\n        openGames[gameID].blockNumber = block.number;\r\n        emit Foul(gameID, openGames[gameID].players[1 - senderIndex].playerAddress, openGames[gameID].blockNumber);\r\n    }\r\n\r\n    function CheckFoulTimer(uint gameID) gameExists(gameID) isInGame(gameID) public {\r\n        require(openGames[gameID].accuser != address(0));\r\n        if(openGames[gameID].blockNumber < (block.number + foulBlockLen)){\r\n            // the other player abandoned this game\r\n            TestWinner(gameID, openGames[gameID].accuser);\r\n        }\r\n    }\r\n\r\n    // a foul can only be cleared by properly advancing the state\r\n    // thus this function has to be called from within our check/fire functions\r\n    function ClearFoul(uint gameID) private {\r\n        if(openGames[gameID].accuser != address(0) && openGames[gameID].accuser != msg.sender){\r\n            // if we are out of time to context the foul this function will fail\r\n            assert(openGames[gameID].blockNumber >= (block.number + foulBlockLen));\r\n            // else it will clear the foul\r\n            openGames[gameID].accuser = address(0);\r\n        }\r\n    }\r\n\r\n    // Assortment of debug functions\r\n\r\n    function ChangeState(uint gameID, GameStates state) public {\r\n        openGames[gameID].state = state;\r\n    }\r\n\r\n    function SetWinner(uint gameID, address winner) public {\r\n        openGames[gameID].winner = winner;\r\n    }\r\n    \r\n/*\r\n    // this function is not currently used in any test file\r\n    function checkPaymentPlayer(uint gameID, uint index) public view returns (bool) {\r\n        if (openGames[gameID].valid && openGames[gameID].players[index].valid){\r\n            return openGames[gameID].players[index].hasPaidStake;\r\n        }\r\n        else \r\n            return(false);\r\n    }\r\n\r\n    function getPlayerBoardRoot(uint gameID, uint index) playerInRange(gameID, index) gameExists(gameID) public view returns(bytes32){\r\n        return openGames[gameID].players[index].boardTreeRoot;\r\n    }\r\n\r\n    function getPlayerShotsBoard(uint gameID, uint index) playerInRange(gameID, index) gameExists(gameID) public view returns(bool){\r\n        return openGames[gameID].players[index].shots_board.valid;\r\n    }\r\n\r\n    function ChangeState(uint gameID, GameStates state) ownerOnly() public {\r\n        openGames[gameID].state = state;\r\n    }\r\n\r\n    function SetWinner(uint gameID, address winner) ownerOnly() public {\r\n        openGames[gameID].winner = winner;\r\n    }\r\n    */\r\n}",
  "sourcePath": "F:\\Documents\\Code\\School\\P2PBC\\Battleships\\contracts\\Battleships.sol",
  "compiler": {
    "name": "solc",
    "version": "0.8.19+commit.7dd6d404.Emscripten.clang"
  },
  "schemaVersion": "3.4.13",
  "updatedAt": "2023-05-25T16:55:59.184Z",
  "devdoc": {
    "kind": "dev",
    "methods": {},
    "version": 1
  },
  "userdoc": {
    "kind": "user",
    "methods": {},
    "version": 1
  }
}