{
  "contractName": "Battleships",
  "abi": [
    {
      "inputs": [],
      "stateMutability": "nonpayable",
      "type": "constructor"
    },
    {
      "inputs": [],
      "name": "InvalidGameID",
      "type": "error"
    },
    {
      "inputs": [],
      "name": "NoOpenGames",
      "type": "error"
    },
    {
      "inputs": [],
      "name": "NotInGame",
      "type": "error"
    },
    {
      "inputs": [],
      "name": "StakeAlreadyDeposited",
      "type": "error"
    },
    {
      "inputs": [
        {
          "internalType": "uint256",
          "name": "expectedStakeValue",
          "type": "uint256"
        }
      ],
      "name": "WrongStakeAmount",
      "type": "error"
    },
    {
      "anonymous": false,
      "inputs": [
        {
          "indexed": false,
          "internalType": "uint256",
          "name": "_gameID",
          "type": "uint256"
        }
      ],
      "name": "AcceptingBoards",
      "type": "event"
    },
    {
      "anonymous": false,
      "inputs": [
        {
          "indexed": false,
          "internalType": "uint256",
          "name": "_gameID",
          "type": "uint256"
        },
        {
          "indexed": false,
          "internalType": "address",
          "name": "_player",
          "type": "address"
        }
      ],
      "name": "BoardAcknowledgeEvent",
      "type": "event"
    },
    {
      "anonymous": false,
      "inputs": [
        {
          "indexed": false,
          "internalType": "uint256",
          "name": "_gameID",
          "type": "uint256"
        },
        {
          "indexed": false,
          "internalType": "address",
          "name": "_accused",
          "type": "address"
        },
        {
          "indexed": false,
          "internalType": "uint256",
          "name": "_block",
          "type": "uint256"
        }
      ],
      "name": "Foul",
      "type": "event"
    },
    {
      "anonymous": false,
      "inputs": [
        {
          "indexed": false,
          "internalType": "uint256",
          "name": "_gameID",
          "type": "uint256"
        }
      ],
      "name": "GameEnded",
      "type": "event"
    },
    {
      "anonymous": false,
      "inputs": [
        {
          "indexed": false,
          "internalType": "uint256",
          "name": "_gameID",
          "type": "uint256"
        },
        {
          "indexed": false,
          "internalType": "address",
          "name": "_host",
          "type": "address"
        },
        {
          "indexed": false,
          "internalType": "address",
          "name": "_challenger",
          "type": "address"
        },
        {
          "indexed": false,
          "internalType": "uint256",
          "name": "_stakeValue",
          "type": "uint256"
        }
      ],
      "name": "GamePayable",
      "type": "event"
    },
    {
      "anonymous": false,
      "inputs": [
        {
          "indexed": false,
          "internalType": "uint256",
          "name": "_gameID",
          "type": "uint256"
        },
        {
          "indexed": false,
          "internalType": "address",
          "name": "_host",
          "type": "address"
        },
        {
          "indexed": false,
          "internalType": "address",
          "name": "_challenger",
          "type": "address"
        }
      ],
      "name": "GameStart",
      "type": "event"
    },
    {
      "anonymous": false,
      "inputs": [
        {
          "indexed": false,
          "internalType": "uint256",
          "name": "_gameID",
          "type": "uint256"
        }
      ],
      "name": "PlayerZeroTurn",
      "type": "event"
    },
    {
      "anonymous": false,
      "inputs": [
        {
          "indexed": false,
          "internalType": "uint256",
          "name": "_gameID",
          "type": "uint256"
        },
        {
          "indexed": false,
          "internalType": "address",
          "name": "_winner",
          "type": "address"
        }
      ],
      "name": "RequestBoard",
      "type": "event"
    },
    {
      "anonymous": false,
      "inputs": [
        {
          "indexed": false,
          "internalType": "address",
          "name": "_from",
          "type": "address"
        },
        {
          "indexed": false,
          "internalType": "address",
          "name": "_to",
          "type": "address"
        },
        {
          "indexed": false,
          "internalType": "uint256",
          "name": "_gameID",
          "type": "uint256"
        }
      ],
      "name": "ShareID",
      "type": "event"
    },
    {
      "anonymous": false,
      "inputs": [
        {
          "indexed": false,
          "internalType": "uint256",
          "name": "_gameID",
          "type": "uint256"
        },
        {
          "indexed": false,
          "internalType": "uint8",
          "name": "_location",
          "type": "uint8"
        },
        {
          "indexed": false,
          "internalType": "bool",
          "name": "_claim",
          "type": "bool"
        },
        {
          "indexed": false,
          "internalType": "bool",
          "name": "_validity",
          "type": "bool"
        },
        {
          "indexed": false,
          "internalType": "address",
          "name": "_from",
          "type": "address"
        }
      ],
      "name": "ShotsChecked",
      "type": "event"
    },
    {
      "anonymous": false,
      "inputs": [
        {
          "indexed": false,
          "internalType": "uint256",
          "name": "_gameID",
          "type": "uint256"
        },
        {
          "indexed": false,
          "internalType": "uint8",
          "name": "_location",
          "type": "uint8"
        },
        {
          "indexed": false,
          "internalType": "address",
          "name": "_from",
          "type": "address"
        }
      ],
      "name": "ShotsFired",
      "type": "event"
    },
    {
      "anonymous": false,
      "inputs": [
        {
          "indexed": false,
          "internalType": "uint256",
          "name": "_gameID",
          "type": "uint256"
        },
        {
          "indexed": false,
          "internalType": "address",
          "name": "_whoPaid",
          "type": "address"
        }
      ],
      "name": "StakePaid",
      "type": "event"
    },
    {
      "anonymous": false,
      "inputs": [
        {
          "indexed": false,
          "internalType": "uint256",
          "name": "_gameID",
          "type": "uint256"
        },
        {
          "indexed": false,
          "internalType": "address",
          "name": "_from",
          "type": "address"
        },
        {
          "indexed": false,
          "internalType": "address",
          "name": "_to",
          "type": "address"
        },
        {
          "indexed": false,
          "internalType": "uint256",
          "name": "_stakeValue",
          "type": "uint256"
        }
      ],
      "name": "SuggestedStake",
      "type": "event"
    },
    {
      "anonymous": false,
      "inputs": [
        {
          "indexed": false,
          "internalType": "uint256",
          "name": "_gameID",
          "type": "uint256"
        },
        {
          "indexed": false,
          "internalType": "address",
          "name": "_winner",
          "type": "address"
        }
      ],
      "name": "Victory",
      "type": "event"
    },
    {
      "inputs": [],
      "name": "BOARD_SIZE",
      "outputs": [
        {
          "internalType": "uint8",
          "name": "",
          "type": "uint8"
        }
      ],
      "stateMutability": "view",
      "type": "function",
      "constant": true
    },
    {
      "inputs": [],
      "name": "NUMBER_OF_SHIP_SQUARES",
      "outputs": [
        {
          "internalType": "uint8",
          "name": "",
          "type": "uint8"
        }
      ],
      "stateMutability": "view",
      "type": "function",
      "constant": true
    },
    {
      "inputs": [
        {
          "internalType": "bool",
          "name": "isPrivate",
          "type": "bool"
        }
      ],
      "name": "newGame",
      "outputs": [],
      "stateMutability": "nonpayable",
      "type": "function"
    },
    {
      "inputs": [
        {
          "internalType": "uint256",
          "name": "gameID",
          "type": "uint256"
        }
      ],
      "name": "joinGame",
      "outputs": [],
      "stateMutability": "nonpayable",
      "type": "function"
    },
    {
      "inputs": [
        {
          "internalType": "uint256",
          "name": "gameID",
          "type": "uint256"
        }
      ],
      "name": "checkGameState",
      "outputs": [
        {
          "internalType": "enum Battleships.GameStates",
          "name": "",
          "type": "uint8"
        }
      ],
      "stateMutability": "view",
      "type": "function",
      "constant": true
    },
    {
      "inputs": [
        {
          "internalType": "uint256",
          "name": "gameID",
          "type": "uint256"
        },
        {
          "internalType": "uint256",
          "name": "index",
          "type": "uint256"
        }
      ],
      "name": "checkGamePlayer",
      "outputs": [
        {
          "internalType": "address",
          "name": "",
          "type": "address"
        }
      ],
      "stateMutability": "view",
      "type": "function",
      "constant": true
    },
    {
      "inputs": [
        {
          "internalType": "uint256",
          "name": "gameID",
          "type": "uint256"
        },
        {
          "internalType": "uint256",
          "name": "stakeValue",
          "type": "uint256"
        }
      ],
      "name": "proposeStake",
      "outputs": [],
      "stateMutability": "nonpayable",
      "type": "function"
    },
    {
      "inputs": [
        {
          "internalType": "uint256",
          "name": "gameID",
          "type": "uint256"
        }
      ],
      "name": "checkStakePlayerOne",
      "outputs": [
        {
          "internalType": "uint256",
          "name": "",
          "type": "uint256"
        }
      ],
      "stateMutability": "view",
      "type": "function",
      "constant": true
    },
    {
      "inputs": [
        {
          "internalType": "uint256",
          "name": "gameID",
          "type": "uint256"
        }
      ],
      "name": "checkStakePlayerTwo",
      "outputs": [
        {
          "internalType": "uint256",
          "name": "",
          "type": "uint256"
        }
      ],
      "stateMutability": "view",
      "type": "function",
      "constant": true
    },
    {
      "inputs": [
        {
          "internalType": "uint256",
          "name": "gameID",
          "type": "uint256"
        }
      ],
      "name": "checkStakeGame",
      "outputs": [
        {
          "internalType": "uint256",
          "name": "",
          "type": "uint256"
        }
      ],
      "stateMutability": "view",
      "type": "function",
      "constant": true
    },
    {
      "inputs": [
        {
          "internalType": "uint256",
          "name": "gameID",
          "type": "uint256"
        }
      ],
      "name": "payStake",
      "outputs": [],
      "stateMutability": "payable",
      "type": "function",
      "payable": true
    },
    {
      "inputs": [
        {
          "internalType": "uint256",
          "name": "gameID",
          "type": "uint256"
        }
      ],
      "name": "declineStake",
      "outputs": [],
      "stateMutability": "nonpayable",
      "type": "function"
    },
    {
      "inputs": [
        {
          "internalType": "uint256",
          "name": "gameID",
          "type": "uint256"
        }
      ],
      "name": "checkGamePayable",
      "outputs": [
        {
          "internalType": "bool",
          "name": "",
          "type": "bool"
        }
      ],
      "stateMutability": "view",
      "type": "function",
      "constant": true
    },
    {
      "inputs": [
        {
          "internalType": "uint256",
          "name": "gameID",
          "type": "uint256"
        },
        {
          "internalType": "bytes32",
          "name": "boardRoot",
          "type": "bytes32"
        }
      ],
      "name": "PlaceShips",
      "outputs": [],
      "stateMutability": "nonpayable",
      "type": "function"
    },
    {
      "inputs": [
        {
          "internalType": "uint256",
          "name": "gameID",
          "type": "uint256"
        },
        {
          "internalType": "uint8",
          "name": "location",
          "type": "uint8"
        }
      ],
      "name": "FireTorpedo",
      "outputs": [],
      "stateMutability": "nonpayable",
      "type": "function"
    },
    {
      "inputs": [
        {
          "internalType": "uint256",
          "name": "gameID",
          "type": "uint256"
        },
        {
          "internalType": "uint8",
          "name": "location",
          "type": "uint8"
        },
        {
          "internalType": "bool",
          "name": "isHit",
          "type": "bool"
        },
        {
          "internalType": "bytes32",
          "name": "leaf",
          "type": "bytes32"
        },
        {
          "internalType": "bytes32[]",
          "name": "proof",
          "type": "bytes32[]"
        }
      ],
      "name": "ConfirmShot",
      "outputs": [],
      "stateMutability": "nonpayable",
      "type": "function"
    },
    {
      "inputs": [
        {
          "internalType": "uint8",
          "name": "tile",
          "type": "uint8"
        },
        {
          "internalType": "bool",
          "name": "ship",
          "type": "bool"
        }
      ],
      "name": "GenLeafNode",
      "outputs": [
        {
          "internalType": "bytes32",
          "name": "",
          "type": "bytes32"
        }
      ],
      "stateMutability": "pure",
      "type": "function",
      "constant": true
    },
    {
      "inputs": [
        {
          "internalType": "uint256",
          "name": "gameID",
          "type": "uint256"
        },
        {
          "internalType": "uint8[]",
          "name": "tiles",
          "type": "uint8[]"
        },
        {
          "internalType": "bool[]",
          "name": "ships",
          "type": "bool[]"
        },
        {
          "internalType": "bytes32[]",
          "name": "nodes",
          "type": "bytes32[]"
        },
        {
          "internalType": "bytes32[][]",
          "name": "proofs",
          "type": "bytes32[][]"
        },
        {
          "internalType": "bytes32",
          "name": "root",
          "type": "bytes32"
        }
      ],
      "name": "VerifyWinner",
      "outputs": [],
      "stateMutability": "nonpayable",
      "type": "function"
    },
    {
      "inputs": [
        {
          "internalType": "uint256",
          "name": "gameID",
          "type": "uint256"
        }
      ],
      "name": "AbandonGame",
      "outputs": [],
      "stateMutability": "nonpayable",
      "type": "function"
    },
    {
      "inputs": [
        {
          "internalType": "uint256",
          "name": "gameID",
          "type": "uint256"
        }
      ],
      "name": "WithdrawWinnings",
      "outputs": [],
      "stateMutability": "nonpayable",
      "type": "function"
    },
    {
      "inputs": [
        {
          "internalType": "uint256",
          "name": "gameID",
          "type": "uint256"
        }
      ],
      "name": "FoulAccusation",
      "outputs": [],
      "stateMutability": "nonpayable",
      "type": "function"
    },
    {
      "inputs": [
        {
          "internalType": "uint256",
          "name": "gameID",
          "type": "uint256"
        }
      ],
      "name": "CheckFoulTimer",
      "outputs": [],
      "stateMutability": "nonpayable",
      "type": "function"
    },
    {
      "inputs": [
        {
          "internalType": "uint256",
          "name": "gameID",
          "type": "uint256"
        },
        {
          "internalType": "enum Battleships.GameStates",
          "name": "state",
          "type": "uint8"
        },
        {
          "internalType": "address",
          "name": "winner",
          "type": "address"
        }
      ],
      "name": "ChangeState",
      "outputs": [],
      "stateMutability": "nonpayable",
      "type": "function"
    }
  ],
  "bytecode": "0x608060405234801561001057600080fd5b50600160248190556025556026805460ff196101003302166001600160a81b031990911617600517905561357b806100496000396000f3fe6080604052600436106101405760003560e01c806399396b11116100b6578063e0dd9bb41161006f578063e0dd9bb4146103cb578063e6f4a9b7146103eb578063efaa55a01461040b578063f28ae7dd1461042b578063f7b68ea91461044b578063fba523b71461046b57600080fd5b806399396b11146102c45780639a2b17be146102fc5780639a7e4cea1461031c578063aa3ee91514610349578063bd7c88f814610369578063dc4a3e95146103b657600080fd5b80633c2d3a88116101085780633c2d3a88146101ef5780636930aa4d1461020f578063699f5aeb1461023657806374f760e41461026457806379fbd95d1461028457806395287e96146102a457600080fd5b8063012b61f01461014557806307e79cb31461017a5780630e37dcd01461019c57806316337b89146101af5780632b170aac146101cf575b600080fd5b34801561015157600080fd5b5061016561016036600461307b565b61048b565b60405190151581526020015b60405180910390f35b34801561018657600080fd5b5061019a610195366004613094565b610504565b005b61019a6101aa36600461307b565b610589565b3480156101bb57600080fd5b5061019a6101ca3660046130e6565b610885565b3480156101db57600080fd5b5061019a6101ea366004613116565b610bf3565b3480156101fb57600080fd5b5061019a61020a36600461307b565b610e34565b34801561021b57600080fd5b50610224601481565b60405160ff9091168152602001610171565b34801561024257600080fd5b5061025661025136600461307b565b610f28565b604051908152602001610171565b34801561027057600080fd5b5061019a61027f36600461307b565b610f8f565b34801561029057600080fd5b5061019a61029f366004613197565b6110a8565b3480156102b057600080fd5b5061019a6102bf366004613211565b61155a565b3480156102d057600080fd5b506102e46102df3660046130e6565b6118c6565b6040516001600160a01b039091168152602001610171565b34801561030857600080fd5b5061019a61031736600461307b565b611956565b34801561032857600080fd5b5061033c61033736600461307b565b611bc1565b6040516101719190613301565b34801561035557600080fd5b5061025661036436600461307b565b611bf9565b34801561037557600080fd5b50610256610384366004613329565b6040805160ff939093166020808501919091529115158382015280518084038201815260609093019052815191012090565b3480156103c257600080fd5b50610224600881565b3480156103d757600080fd5b5061019a6103e6366004613360565b611c51565b3480156103f757600080fd5b5061019a61040636600461307b565b611f16565b34801561041757600080fd5b5061019a61042636600461307b565b6121c7565b34801561043757600080fd5b5061019a6104463660046130e6565b61243f565b34801561045757600080fd5b5061019a61046636600461307b565b612871565b34801561047757600080fd5b5061025661048636600461307b565b612b67565b60008181526020819052604081205460ff1680156104ba575060008281526020819052604090206001015460ff165b80156104d7575060008281526020819052604090206009015460ff165b156104f75750600090815260208190526040902054610100900460ff1690565b506000919050565b919050565b60265461010090046001600160a01b03163314610523576105236133a2565b6000838152602081905260409020601101805483919060ff1916600183600b811115610551576105516132eb565b021790555060009283526020839052604090922060150180546001600160a01b0319166001600160a01b039093169290921790915550565b600081815260208190526040902054819060ff166105a9576105a96133a2565b60008281526020819052604090206001015482906001600160a01b0362010000909104163314806105fa57506000818152602081905260409020600901546001600160a01b03620100009091041633145b610606576106066133a2565b8260038060008381526020819052604090206011015460ff16600b811115610630576106306132eb565b1461063d5761063d6133a2565b60008581526020819052604081206001019060080201546201000090046001600160a01b0316331480156106875750600085815260208190526040902060010154610100900460ff165b806106d257506000858152602081905260409020600901546201000090046001600160a01b0316331480156106d25750600085815260208190526040902060090154610100900460ff165b156106f057604051635e558b2360e01b815260040160405180910390fd5b600085815260208190526040902060120154341461073c5760008581526020819052604090819020601201549051633365c34560e11b8152600481019190915260240160405180910390fd5b60008581526020819052604081206001015481906201000090046001600160a01b031633036107715750600090506001610779565b506001905060005b60008781526020819052604090206001908101836002811061079d5761079d61338c565b6008020180549115156101000261ff00199092169190911790556107c087612c0a565b604080518881523360208201527f95ddb9abe17699603c18cef7bcfd33947d19c8eb237e01edac0bd509b481339e910160405180910390a16000878152602081905260409020600101816002811061081a5761081a61338c565b6008020154610100900460ff161561087c5760008781526020818152604091829020601101805460ff1916600417905590518881527ff751b3d5e96ffa95a434b79874df7e232b82d5c688a5d61fd7b5c5ce8724712791015b60405180910390a15b50505050505050565b600082815260208190526040902054829060ff166108a5576108a56133a2565b60008381526020819052604090206001015483906001600160a01b0362010000909104163314806108f657506000818152602081905260409020600901546001600160a01b03620100009091041633145b610902576109026133a2565b8360018060008381526020819052604090206011015460ff16600b81111561092c5761092c6132eb565b14610939576109396133a2565b600086815260208190526040812081906001018160080201546201000090046001600160a01b03163314610971576001915081610977565b60009150815b5060008881526020819052604081206001019060080201546201000090046001600160a01b031633146109ad57506000806109b2565b506001805b50600088815260208190526040902060010182600281106109d5576109d561338c565b60080201600201546000801b146109eb57600080fd5b601f805460ff191660011781556014602055610a086008806133ce565b60ff1660215560005b610a1c6008806133ce565b60ff16811015610a6d57600060228260408110610a3b57610a3b61338c565b602091828204019190066101000a81548160ff0219169083151502179055508080610a65906133f1565b915050610a11565b50600089815260208190526040902081906001018460028110610a9257610a9261338c565b8254600891909102919091016003818101805460ff191660ff90941615159390931783556001840154600483015560028401546005830155610adb916006019084016040612e23565b505050600089815260208190526040902088906001018460028110610b0257610b0261338c565b6008020160020155604080518a81523360208201527fde8cdabe60db81138d1e5580b73440f47ba010dbd18575d18bad0b750987001e910160405180910390a160008981526020819052604090206001018260028110610b6457610b6461338c565b60080201600201546000801b14610be85760008981526020818152604091829020601181018054600260ff199091161790556001015482518c8152620100009091046001600160a01b031691810191909152338183015290517fdf72bd9cb04731c1dfa0832a380e56504fda45508a7305083a9be0f343e934219181900360600190a15b505050505050505050565b602480549081906000610c05836133f1565b90915550506017805461ff001960ff1962010000338102821661ff01600160b01b03199094169390931760019081178381168087556002805462010000600160b01b031961ffff1990911660ff94851615159097169690961761010080840485161515021795909516908690046001600160a01b0316909502949094178355601854600355601954600455601a80546005805490941695161515949094178255601b54600655601c546007559392839291610cc46008601d6040612e23565b5050505060118301805460ff1990811690915560148401805460ff60a01b1916600160a01b88151502179055835461ffff1990811660019081178655600087815260208190526040902080549384168217815586549390921660ff61010094859004161515909302929092178217815584925090610d49908281019084016002612e66565b50601182810154908201805460ff9092169160ff1916600183600b811115610d7357610d736132eb565b021790555060128281015490820155601380830154908201556014808301805491830180546001600160a01b03198082166001600160a01b039586169081178455935460ff600160a01b91829004161515026001600160a81b03199092169093171790556015938401549390920180549092169216919091179055604080513081523360208201529081018490527f1edfba130181c8da1b98834639c59b5287912fcc01104c5a7a6e6c8cd194e3029060600160405180910390a150505050565b600081815260208190526040902054819060ff16610e5457610e546133a2565b60008281526020819052604090206001015482906001600160a01b036201000090910416331480610ea557506000818152602081905260409020600901546001600160a01b03620100009091041633145b610eb157610eb16133a2565b6000838152602081905260409020601401546001600160a01b0316610ed557600080fd5b602654610ee59060ff164361340a565b6000848152602081905260409020601301541015610f2357600083815260208190526040902060140154610f239084906001600160a01b0316612ca5565b505050565b60008181526020819052604081205460ff168015610f57575060008281526020819052604090206001015460ff165b8015610f74575060008281526020819052604090206009015460ff165b156104f7575060009081526020819052604090206012015490565b600081815260208190526040902054819060ff16610faf57610faf6133a2565b60008281526020819052604090206015015482906001600160a01b03163314610fda57610fda6133a2565b8260098060008381526020819052604090206011015460ff16600b811115611004576110046132eb565b14611011576110116133a2565b60008581526020819052604081206012015461102e90600261341d565b600087815260208190526040808220601101805460ff1916600a1790555191925090339083908381818185875af1925050503d806000811461108c576040519150601f19603f3d011682016040523d82523d6000602084013e611091565b606091505b505090508061109f57600080fd5b61087c87612cf3565b60008681526020819052604090205460ff166110c6576110c66133a2565b6110d16008806133ce565b60ff168560ff16106110e5576110e56133a2565b60008681526020819052604090206001015433620100009091046001600160a01b0316036111485760075b60008781526020819052604090206011015460ff16600b811115611136576111366132eb565b14611143576111436133a2565b61117f565b60008681526020819052604090206009015433620100009091046001600160a01b031603611177576005611110565b61117f6133a2565b600061118a87612bb2565b6040805160ff8916602080830191909152881515828401528251808303840181526060909201909252805191012090915084146111c9576111c96133a2565b6000878152602081905260409020815173__Merkle________________________________91637ffe9d8c91869186916001909101906002811061120f5761120f61338c565b6008020160020154886040518563ffffffff1660e01b81526004016112379493929190613434565b602060405180830381865af4158015611254573d6000803e3d6000fd5b505050506040513d601f19601f82011682018060405250810190611278919061347a565b156115015761128687612c0a565b841561143a5760008781526020818152604090912090820151600190910190600281106112b5576112b561338c565b600802016003016003018660ff16604081106112d3576112d361338c565b602081049091015460ff601f9092166101000a90041661143a5760008781526020818152604090912090820151600190910190600281106113165761131661338c565b60080201600301600101600081548092919061133190613497565b90915550506000878152602081905260409020600190810182826020020151600281106113605761136061338c565b600802016003016003018760ff166040811061137e5761137e61338c565b602091828204019190066101000a81548160ff021916908315150217905550600080888152602001908152602001600020600101816001600281106113c5576113c561338c565b6020020151600281106113da576113da61338c565b600802016003016001015460000361143a57600087815260208181526040909120908201516114349189916001909101906002811061141b5761141b61338c565b60080201546201000090046001600160a01b0316612ca5565b50611552565b600560008881526020819052604090206011015460ff16600b811115611462576114626132eb565b1461148b576000878152602081905260409020601101805460ff191660049081179091556114ab565b6000878152602081905260409020601101805460ff191660069081179091555b506040805188815260ff88166020820152861515818301526001606082015233608082015290517f5daf1a84388bd8a6d3801b570a2f677e0915dd586765606221fbc8516e99ca2d9181900360a00190a161087c565b6040805188815260ff8816602082015286151591810191909152600060608201523360808201527f5daf1a84388bd8a6d3801b570a2f677e0915dd586765606221fbc8516e99ca2d9060a001610873565b505050505050565b60008a81526020819052604081205460ff16611578576115786133a2565b600860008c81526020819052604090206011015460ff16600b8111156115a0576115a06132eb565b146115ad576115ad6133a2565b60008b815260208190526040902060018101546015909101546001600160a01b036201000090920482169116036115e6575060006115ea565b5060015b60008b8152602081905260409020601501546001600160a01b03163314611613576116136133a2565b60008b815260208190526040902060010181600281106116355761163561338c565b6008020160020154821461164b5761164b6133a2565b6116566008806133ce565b60ff168914611667576116676133a2565b6116726008806133ce565b60ff168714611683576116836133a2565b6000805b6116926008806133ce565b60ff168160ff1610156118385789898260ff168181106116b4576116b461338c565b90506020020160208101906116c99190613116565b156116dc57816116d8816134ae565b9250505b6117338c8c8360ff168181106116f4576116f461338c565b905060200201602081019061170991906134cd565b8b8b8460ff1681811061171e5761171e61338c565b90506020020160208101906103849190613116565b88888360ff168181106117485761174861338c565b905060200201351461175c5761175c6133a2565b73__Merkle________________________________637ffe9d8c87878460ff1681811061178b5761178b61338c565b905060200281019061179d91906134e8565b878c8c8760ff168181106117b3576117b361338c565b905060200201356040518563ffffffff1660e01b81526004016117d99493929190613434565b602060405180830381865af41580156117f6573d6000803e3d6000fd5b505050506040513d601f19601f8201168201806040525081019061181a919061347a565b611826576118266133a2565b80611830816134ae565b915050611687565b5060ff811660141461184c5761184c6133a2565b60008c8152602081905260409020805461010061ff0019909116178155601101805460ff191660091790556118808c612c0a565b604080518d81523360208201527fc2815c82adc4278d6e044948482e0d16acf9a6369fc96eff02ffc7e7cd5f39d0910160405180910390a1505050505050505050505050565b60008281526020819052604081205460ff16801561190a5750600083815260208190526040902060010182600281106119015761190161338c565b600802015460ff165b1561194c57600083815260208190526040902060010182600281106119315761193161338c565b60080201546201000090046001600160a01b03169050611950565b5060005b92915050565b600081815260208190526040902054819060ff16611976576119766133a2565b60008281526020819052604090206001015482906001600160a01b0362010000909104163314806119c757506000818152602081905260409020600901546001600160a01b03620100009091041633145b6119d3576119d36133a2565b6000838152602081905260408120600101546201000090046001600160a01b03163303611a0257506001611a06565b5060005b60008481526020819052604090206001018160028110611a2857611a2861338c565b6008020154610100900460ff168015611a7957506000848152602081905260409020600190810190611a5b908390613532565b60028110611a6b57611a6b61338c565b6008020154610100900460ff165b15611aab576000848152602081905260409020611aa6908590600101836002811061141b5761141b61338c565b611bbb565b60008481526020819052604090206001018160028110611acd57611acd61338c565b6008020154610100900460ff1615611b7f5760008481526020819052604081206001018260028110611b0157611b0161338c565b600802015460008681526020819052604090819020601201549051620100009092046001600160a01b03169160006040518083038185875af1925050503d8060008114611b6a576040519150601f19603f3d011682016040523d82523d6000602084013e611b6f565b606091505b5050905080611b7d57600080fd5b505b6040518481527fce24807f7e4b60b4e641462f13029fa5e5f79075bbc3f8e5cd43ecd19661d7609060200160405180910390a1611bbb84612cf3565b50505050565b60008181526020819052604081205460ff1615611bf1575060009081526020819052604090206011015460ff1690565b50600b919050565b60008181526020819052604081205460ff168015611c28575060008281526020819052604090206009015460ff165b156104f75760008281526020819052604090206001908101905b60080201600101549050919050565b600082815260208190526040902054829060ff16611c7157611c716133a2565b60008381526020819052604090206001015483906001600160a01b036201000090910416331480611cc257506000818152602081905260409020600901546001600160a01b03620100009091041633145b611cce57611cce6133a2565b82611cda6008806133ce565b60ff168160ff1610611cee57611cee6133a2565b8460046000611cfc83612bb2565b9050600482600b811115611d1257611d126132eb565b03611d71578051600003611d6a5781600b811115611d3257611d326132eb565b60008481526020819052604090206011015460ff16600b811115611d5857611d586132eb565b14611d6557611d656133a2565b611db4565b6006611d32565b600782600b811115611d8557611d856132eb565b03611dac578051600003611da55781600b811115611d3257611d326132eb565b6005611d32565b611db46133a2565b50611dbe87612c0a565b6000611dc988612bb2565b9050600460008981526020819052604090206011015460ff16600b811115611df357611df36132eb565b14611e1c576000888152602081905260409020601101805460ff19166007908117909155611e3c565b6000888152602081905260409020601101805460ff191660059081179091555b506000888152602081905260409020815160019091019060028110611e6357611e6361338c565b600802016003016002016000815480929190611e7e90613497565b90915550506000888152602081905260409020815160019091019060028110611ea957611ea961338c565b6008020160030160020154600003611eca57611ec58833612ca5565b611f0c565b6040805189815260ff89166020820152338183015290517f14ba1310e28cb93a7363176f97b4b776f03e7b3d2f8845631ff3fdecd770cc739181900360600190a15b5050505050505050565b600081815260208190526040902054819060ff16611f3657611f366133a2565b60008281526020819052604090206001015482906001600160a01b036201000090910416331480611f8757506000818152602081905260409020600901546001600160a01b03620100009091041633145b611f9357611f936133a2565b8260038060008381526020819052604090206011015460ff16600b811115611fbd57611fbd6132eb565b14611fca57611fca6133a2565b60008581526020819052604081206001019060080201546201000090046001600160a01b0316331480156120145750600085815260208190526040902060010154610100900460ff165b8061205f57506000858152602081905260409020600901546201000090046001600160a01b03163314801561205f5750600085815260208190526040902060090154610100900460ff165b1561207d57604051635e558b2360e01b815260040160405180910390fd5b60008581526020819052604081206001015481906201000090046001600160a01b031633036120b257506000905060016120ba565b506001905060005b600087815260208190526040902060010181600281106120dc576120dc61338c565b6008020154610100900460ff161561218e57600087815260208190526040812060010182600281106121105761211061338c565b600802015460008981526020819052604090819020601201549051620100009092046001600160a01b03169160006040518083038185875af1925050503d8060008114612179576040519150601f19603f3d011682016040523d82523d6000602084013e61217e565b606091505b505090508061218c57600080fd5b505b61219787612cf3565b6040518781527fce24807f7e4b60b4e641462f13029fa5e5f79075bbc3f8e5cd43ecd19661d76090602001610873565b8060000361228c57506025545b60245481101561228c5760008181526020819052604090205460ff1615156001148015612224575060008181526020819052604081206011015460ff16600b811115612222576122226132eb565b145b801561225157506000818152602081905260409020600101546001600160a01b0362010000909104163314155b80156122765750600081815260208190526040902060140154600160a01b900460ff16155b61228c5780612284816133f1565b9150506121d4565b60008181526020819052604090205460ff166122bb57604051630251ee3760e01b815260040160405180910390fd5b60008181526020819052604081206011015460ff16600b8111156122e1576122e16132eb565b146122ee576122ee6133a2565b6122f981600161340a565b6025556017805461ff001960ff1962010000338102821661ff01600160b01b03199094169390931760011782811685556000868152602081905260409081902060098101805480861660ff95861615159081178355895461ffff19909216971696909617610100968790048516151590960295909517808655875462010000600160b01b0319909116908790046001600160a01b0316909602959095178455601854600a860155601954600b860155601a8054600c8701805490951693161515929092178355601b54600d860155601c54600e86015585949192916123e691600f90910190601d90612e23565b50505060008481526020818152604091829020601101805460ff1916600117905590518581527f972651cf62ccc65bd2ba0fd996eb34701d5773844d3303545d5b4cb29738f10493500190505b60405180910390a15050565b600082815260208190526040902054829060ff1661245f5761245f6133a2565b60008381526020819052604090206001015483906001600160a01b0362010000909104163314806124b057506000818152602081905260409020600901546001600160a01b03620100009091041633145b6124bc576124bc6133a2565b8360028060008381526020819052604090206011015460ff16600b8111156124e6576124e66132eb565b146124f3576124f36133a2565b600086815260208181526040808320815161012081018352815460ff808216151583526101009091041615159381019390935281518083018352909183019060018301600286835b82821015612636576040805160c081018252600884028601805460ff80821615158452610100820481161515602080860191909152620100009092046001600160a01b031684860152600183015460608086019190915260028401546080808701919091528651908101875260038501805490931615158152600485015493810193909352600584015483870152855161080081018088529596949560a0880195928501926006880191826000855b825461010083900a900460ff1615158152602060019283018181049485019490930390920291018084116125ea579050505050505081525050815250508152602001906001019061253b565b50505090825250601182015460209091019060ff16600b81111561265c5761265c6132eb565b600b81111561266d5761266d6132eb565b815260128201546020820152601382015460408083019190915260148301546001600160a01b038082166060850152600160a01b90910460ff161515608084015260159093015490921660a0909101528101519091506000908190816020020151604001516001600160a01b031633036126ed57506001905060006126f5565b506000905060015b60008360400151836002811061270d5761270d61338c565b6020020151606001519050886000808c8152602001908152602001600020600101836002811061273f5761273f61338c565b60080201600101819055508060001415801561275a57508881145b156127e95760008a81526020818152604091829020601281018c9055601101805460ff191660031790558582015180518301519082015183015183518e81526001600160a01b03928316938101939093521681830152606081018b905290517fa63491c3e48c84a30c1a58128201bca4fd87bb84850cda339020ce19051e5a90916080908290030190a1612865565b7f4adf94e8b5302c48b3df6533aa17748538d68a74af46f0a894839b61fbf3f1bf8a33866040015186600281106128225761282261338c565b6020020151604001518c60405161285c94939291909384526001600160a01b03928316602085015291166040830152606082015260800190565b60405180910390a15b50505050505050505050565b600081815260208190526040902054819060ff16612891576128916133a2565b6000828152602081905260408120600101546201000090046001600160a01b031633036128c0575060006128eb565b6000838152602081905260409020600901546201000090046001600160a01b031633036128eb575060015b600660008481526020819052604090206011015460ff16600b811115612913576129136132eb565b14806129445750600560008481526020819052604090206011015460ff16600b811115612942576129426132eb565b145b1561295c578015612957576129576133a2565b612a90565b600460008481526020819052604090206011015460ff16600b811115612984576129846132eb565b14806129b55750600760008481526020819052604090206011015460ff16600b8111156129b3576129b36132eb565b145b156129ca5780600114612957576129576133a2565b600360008481526020819052604090206011015460ff16600b8111156129f2576129f26132eb565b03612a325760008381526020819052604090206001018160028110612a1957612a1961338c565b6008020154610100900460ff16612957576129576133a2565b600860008481526020819052604090206011015460ff16600b811115612a5a57612a5a6132eb565b03612a88576000838152602081905260409020601501546001600160a01b03163303612957576129576133a2565b612a906133a2565b6000838152602081905260409020601401546001600160a01b031615612ab557600080fd5b60008381526020819052604090206014810180546001600160a01b031916331790554360138201557f0bf978ab2586eab9e083eec06f934bd39c6da770feb9502455f09c4cf17b1bec908490600190810190612b12908590613532565b60028110612b2257612b2261338c565b600802015460008681526020818152604091829020601301548251948552620100009093046001600160a01b03169084015282015260600160405180910390a1505050565b60008181526020819052604081205460ff168015612b96575060008281526020819052604090206001015460ff165b156104f757600082815260208190526040812060010190611c42565b612bba612f58565b612bc2612f58565b6000838152602081905260409020600101546201000090046001600160a01b03163303612bf9576000815260016020820152611950565b600181526000602082015292915050565b6000818152602081905260409020601401546001600160a01b031615801590612c4d57506000818152602081905260409020601401546001600160a01b03163314155b15612ca257602654612c629060ff164361340a565b6000828152602081905260409020601301541115612c8257612c826133a2565b600081815260208190526040902060140180546001600160a01b03191690555b50565b60008281526020819052604090206015810180546001600160a01b0384166001600160a01b031990911681179091556011909101805460ff19166008179055612cef908390612de5565b5050565b600081815260208190526040812060048101805460ff1990811690915560058201839055600682018390556007820183905560088201839055600c820180549091169055600d8101829055600e8101829055600f8101829055601081018290556001810180546001600160b01b0319908116825560028301849055600383018490556009830180549091169055600a8201839055600b8201839055815461ffff19168255909190612da49082612f76565b5060118101805460ff1916905560006012820181905560138201556014810180546001600160a81b031916905560150180546001600160a01b031916905550565b604080518381526001600160a01b03831660208201527fc53d54ea71e800bb40731cf938b78bbb3e167ca69808d9e2945e2f018b3c40679101612433565b600283019183908215612e565791601f016020900482015b82811115612e56578254825591600101919060010190612e3b565b50612e62929150613012565b5090565b601083019183908215612f4c579160080282015b82811115612f4c578254825460ff918216151560ff1980831682178655865461010090819004851615150261ff001990921661ffff19909316929092171780855585546001600160a01b036201000091829004160262010000600160b01b031990911617845560018086015490850155600280860154908501556003808601805491860180549290941615159190921617825560048086015490850155600580860154908501558491849190612f3860068085019086016040612e23565b505050505091600801919060080190612e7a565b50612e62929150613027565b60405180604001604052806002906020820280368337509192915050565b5080546001600160b01b03191681556000600182018190556002820181905560038201805460ff191681556004830182905560058301829055600683018290556007830182905550506008810180546001600160b01b0319168155600060098301819055600a8301819055600b8301805460ff19168155600c8401829055600d8401829055600e8401829055600f909301819055909181611bbb565b5b80821115612e625760008155600101613013565b80821115612e625780546001600160b01b03191681556000600182018190556002820181905560038201805460ff191690556004820181905560058201819055600682018190556007820155600801613027565b60006020828403121561308d57600080fd5b5035919050565b6000806000606084860312156130a957600080fd5b833592506020840135600c81106130bf57600080fd5b915060408401356001600160a01b03811681146130db57600080fd5b809150509250925092565b600080604083850312156130f957600080fd5b50508035926020909101359150565b8015158114612ca257600080fd5b60006020828403121561312857600080fd5b813561313381613108565b9392505050565b803560ff811681146104ff57600080fd5b60008083601f84011261315d57600080fd5b50813567ffffffffffffffff81111561317557600080fd5b6020830191508360208260051b850101111561319057600080fd5b9250929050565b60008060008060008060a087890312156131b057600080fd5b863595506131c06020880161313a565b945060408701356131d081613108565b935060608701359250608087013567ffffffffffffffff8111156131f357600080fd5b6131ff89828a0161314b565b979a9699509497509295939492505050565b60008060008060008060008060008060c08b8d03121561323057600080fd5b8a35995060208b013567ffffffffffffffff8082111561324f57600080fd5b61325b8e838f0161314b565b909b50995060408d013591508082111561327457600080fd5b6132808e838f0161314b565b909950975060608d013591508082111561329957600080fd5b6132a58e838f0161314b565b909750955060808d01359150808211156132be57600080fd5b506132cb8d828e0161314b565b9150809450508092505060a08b013590509295989b9194979a5092959850565b634e487b7160e01b600052602160045260246000fd5b60208101600c831061332357634e487b7160e01b600052602160045260246000fd5b91905290565b6000806040838503121561333c57600080fd5b6133458361313a565b9150602083013561335581613108565b809150509250929050565b6000806040838503121561337357600080fd5b823591506133836020840161313a565b90509250929050565b634e487b7160e01b600052603260045260246000fd5b634e487b7160e01b600052600160045260246000fd5b634e487b7160e01b600052601160045260246000fd5b60ff81811683821602908116908181146133ea576133ea6133b8565b5092915050565b600060018201613403576134036133b8565b5060010190565b80820180821115611950576119506133b8565b8082028115828204841417611950576119506133b8565b6060808252810184905260006001600160fb1b0385111561345457600080fd5b8460051b8087608085013760208301949094525060408101919091520160800192915050565b60006020828403121561348c57600080fd5b815161313381613108565b6000816134a6576134a66133b8565b506000190190565b600060ff821660ff81036134c4576134c46133b8565b60010192915050565b6000602082840312156134df57600080fd5b6131338261313a565b6000808335601e198436030181126134ff57600080fd5b83018035915067ffffffffffffffff82111561351a57600080fd5b6020019150600581901b360382131561319057600080fd5b81810381811115611950576119506133b856fea2646970667358221220862a5dc087efe603be439e55b670eff637ff6969359145c675bfb8a173a9a0bc64736f6c63430008130033",
  "immutableReferences": {},
  "source": "// SPDX-License-Identifier: MIT\r\npragma solidity >=0.4.22 <0.9.0;\r\n\r\nimport { Merkle } from \"./Merkle.sol\";\r\n\r\ncontract Battleships {\r\n    uint8 public constant NUMBER_OF_SHIP_SQUARES = 20;\r\n    uint8 public constant BOARD_SIZE = 8;\r\n    enum GameStates{\r\n        WAITING, \r\n        PLACING_SHIPS, \r\n        SETTING_STAKE, \r\n        ACCEPTING_PAYMENT,\r\n        P0_FIRING,\r\n        P1_CHECKING,\r\n        P1_FIRING,\r\n        P0_CHECKING,\r\n        CHECKING_WINNER,\r\n        PAYABLE,\r\n        DONE,\r\n        NONE\r\n    }\r\n\r\n    // In this struct we save the view a player has of its opponent's board\r\n    struct Board{\r\n        bool valid;\r\n        // N*N matrix of bits to store hits\r\n        // bool[BOARD_SIZE][BOARD_SIZE] shots;\r\n        // # of enemy pieces still left on the board\r\n        // goes down by one each time we receive one 'you hit' event\r\n        uint totalPieces;\r\n        // 8*8, we use this to avoid cheating\r\n        uint totalShots;\r\n        bool[BOARD_SIZE*BOARD_SIZE] board; \r\n    }\r\n\r\n    struct Player{\r\n        bool valid;\r\n        bool hasPaidStake;\r\n        address playerAddress;\r\n        uint proposedStake;\r\n        bytes32 boardTreeRoot;\r\n        Board shots_board;\r\n    }\r\n\r\n    struct Game{\r\n        bool valid;\r\n        bool canPay;\r\n        // host is always player[0]\r\n        Player[2] players;\r\n        GameStates state;\r\n        uint decidedStake;\r\n        // used for foul accusation, a foul is triggered after 5 blocks\r\n        uint blockNumber;\r\n        // player 0 or player 1\r\n        // might turn it into address, we will see\r\n        address accuser;\r\n        // whether or not this game should be in the public pool of joinable games\r\n        bool privateGame;\r\n        address winner;\r\n    }\r\n\r\n    mapping(uint => Game) private openGames;\r\n\r\n    Game private gameTrampoline;\r\n    Player private playerTrampoline;\r\n    Board private trampolineBoard;\r\n    // used in generating UUIDs for the games\r\n    // for now we are gonna use this as-is\r\n    // start at 1 as 0 is used for a non-existing game\r\n    // we just don't deal with it overflowing because it's realistically impossible\r\n    uint private gameCounter;\r\n    uint private lastOpenGame;\r\n    uint8 private foulBlockLen;\r\n    address private owner;\r\n\r\n    constructor() {\r\n        gameCounter = 1;\r\n        lastOpenGame = 1;\r\n        owner = msg.sender;\r\n        // this could be passed as parameter\r\n        foulBlockLen = 5;\r\n    }\r\n\r\n    event ShareID(address _from, address _to, uint _gameID);\r\n    event GameStart(uint _gameID, address _host, address _challenger);\r\n    event SuggestedStake(uint _gameID, address _from, address _to, uint _stakeValue);\r\n    event GamePayable(uint _gameID, address _host, address _challenger, uint _stakeValue);\r\n    event StakePaid(uint _gameID, address _whoPaid);\r\n    event AcceptingBoards(uint _gameID);\r\n    event BoardAcknowledgeEvent(uint _gameID, address _player);\r\n    event PlayerZeroTurn(uint _gameID);\r\n    event ShotsFired(uint _gameID, uint8 _location, address _from);\r\n    event ShotsChecked(uint _gameID, uint8 _location, bool _claim, bool _validity, address _from);\r\n    event RequestBoard(uint _gameID, address _winner);\r\n    event Victory(uint _gameID, address _winner);\r\n    event Foul(uint _gameID, address _accused, uint _block);\r\n    event GameEnded(uint _gameID);\r\n\r\n    error NoOpenGames();\r\n    error InvalidGameID();\r\n    error NotInGame();\r\n    error StakeAlreadyDeposited();\r\n    error WrongStakeAmount(uint expectedStakeValue);\r\n\r\n    modifier gameExists(uint gameID){\r\n        assert(openGames[gameID].valid);\r\n        _;\r\n    }\r\n\r\n    modifier isInGame(uint gameID){\r\n        assert((openGames[gameID].players[0].playerAddress == msg.sender) || (openGames[gameID].players[1].playerAddress == msg.sender));\r\n        _;\r\n    }\r\n\r\n    modifier assertState(uint gameID, GameStates _state){\r\n        if(_state != GameStates.P0_FIRING && _state != GameStates.P1_FIRING && _state != GameStates.P0_CHECKING && _state != GameStates.P1_CHECKING)\r\n            assert(openGames[gameID].state == _state);\r\n        else{\r\n            // We check firing states with P0_FIRING and checking states with P0_CHECKING, for both players\r\n            uint[2] memory indexes = getIndexSender(gameID);\r\n            if(_state == GameStates.P0_FIRING){\r\n                if(indexes[0] == 0)\r\n                    assert(openGames[gameID].state == _state);\r\n                else\r\n                    assert(openGames[gameID].state == GameStates.P1_FIRING);\r\n            }\r\n            else if(_state == GameStates.P0_CHECKING){\r\n                if(indexes[0] == 0)\r\n                    assert(openGames[gameID].state == _state);\r\n                else\r\n                    assert(openGames[gameID].state == GameStates.P1_CHECKING);\r\n            }\r\n            else assert(false);\r\n        }\r\n        _;\r\n    }\r\n\r\n    modifier playerInRange(uint gameID, uint index){\r\n        assert(openGames[gameID].players[index].valid);\r\n        assert(index < openGames[gameID].players.length);\r\n        _;\r\n    }\r\n\r\n    modifier shotOnBoard(uint8 location){\r\n        assert(location < (BOARD_SIZE*BOARD_SIZE));\r\n        _;\r\n    }\r\n\r\n    modifier isWinner(uint gameID){\r\n        assert(openGames[gameID].winner == msg.sender);\r\n        _;\r\n    }\r\n\r\n    function getIndexSender (uint gameID) view private returns(uint[2] memory) {\r\n        // indexes[0]: msg.sender index\r\n        // indexes[1]: msg.sender opponent's index\r\n        uint[2] memory indexes;\r\n        if(msg.sender == openGames[gameID].players[0].playerAddress){\r\n            indexes[0] = 0;\r\n            indexes[1] = 1;\r\n        } else {\r\n            indexes[0] = 1;\r\n            indexes[1] = 0;\r\n        }\r\n        return indexes;\r\n    }\r\n\r\n    // create a Game value, add it to openGames, populate the Player[0]\r\n    function newGame(bool isPrivate) public {\r\n        uint gameID = gameCounter;\r\n        gameCounter++;\r\n        Game storage game = gameTrampoline;\r\n        Player storage host = playerTrampoline;\r\n        host.playerAddress = msg.sender;\r\n        host.valid = true;\r\n        host.hasPaidStake = false;\r\n        game.players[0] = host;\r\n        game.state = GameStates.WAITING;\r\n        game.privateGame = isPrivate;\r\n        game.valid = true;\r\n        game.canPay = false;\r\n        openGames[gameID] = game;\r\n        emit ShareID(address(this), msg.sender, gameID);\r\n        return;\r\n    }\r\n    \r\n    function joinGame(uint gameID) public {\r\n        if(gameID == 0){\r\n            // pick an unassigned game in sequential order\r\n            gameID = lastOpenGame;\r\n            while (gameID < gameCounter){\r\n                // ignore games with sender as host (you can still join your own games directly if you're that lonely)\r\n                if(openGames[gameID].valid == true && \r\n                    openGames[gameID].state == GameStates.WAITING && \r\n                    openGames[gameID].players[0].playerAddress != msg.sender && \r\n                    !openGames[gameID].privateGame){\r\n                    break;\r\n                }\r\n                gameID++;\r\n            }\r\n        }\r\n        // if the game wasn't valid, throw an error\r\n        if(!openGames[gameID].valid)\r\n            revert NoOpenGames();\r\n\r\n        assert(openGames[gameID].state == GameStates.WAITING);\r\n\r\n        // update the lastOpenGame counter no matter what\r\n        lastOpenGame = gameID + 1;\r\n        // set msg sender as this game's player 2\r\n        Player storage challenger = playerTrampoline;\r\n        challenger.playerAddress = msg.sender;\r\n        challenger.valid = true;\r\n        challenger.hasPaidStake = false;\r\n        openGames[gameID].players[1] = challenger;\r\n        // update this game's status\r\n        openGames[gameID].state = GameStates.PLACING_SHIPS;\r\n        // alert the players\r\n        emit AcceptingBoards(gameID);\r\n        return;\r\n    }\r\n\r\n    function checkGameState(uint gameID) public view returns (GameStates) {\r\n        if (openGames[gameID].valid){\r\n            return openGames[gameID].state;\r\n        }\r\n        else \r\n            return(GameStates.NONE);\r\n    }\r\n\r\n    function checkGamePlayer(uint gameID, uint index) public view returns (address) {\r\n        if (openGames[gameID].valid && openGames[gameID].players[index].valid){\r\n            return openGames[gameID].players[index].playerAddress;\r\n        }\r\n        else \r\n            return(address(0));\r\n    }\r\n\r\n    // Function to propose and agree upon a stake between players\r\n    function proposeStake(uint gameID, uint stakeValue) gameExists(gameID) isInGame(gameID) assertState(gameID, GameStates.SETTING_STAKE) public{\r\n        Game memory game = openGames[gameID];\r\n        // Check whether or not this player's opponent has already proposed a stake\r\n        uint opponentIndex;\r\n        uint stakerIndex;\r\n        if(msg.sender == game.players[0].playerAddress){\r\n            opponentIndex = 1;\r\n            stakerIndex = 0;\r\n        } else {\r\n            opponentIndex = 0;\r\n            stakerIndex = 1;\r\n        }\r\n        uint opponentStake = game.players[opponentIndex].proposedStake;\r\n        // set this player's proposed stake to their message\r\n        openGames[gameID].players[stakerIndex].proposedStake = stakeValue;\r\n        // if the opponent has proposed a stake we check whether or not it equals the one proposed by us\r\n        // 0 is not a valid stake\r\n        if(opponentStake != 0 && opponentStake == stakeValue){\r\n            openGames[gameID].decidedStake = stakeValue;\r\n            openGames[gameID].state = GameStates.ACCEPTING_PAYMENT;\r\n            emit GamePayable(gameID, game.players[0].playerAddress, game.players[1].playerAddress, stakeValue);\r\n        }else{\r\n            emit SuggestedStake(gameID, msg.sender, game.players[opponentIndex].playerAddress, stakeValue);\r\n        }\r\n        return;\r\n    }\r\n\r\n    function checkStakePlayerOne(uint gameID) public view returns (uint) {\r\n        if (openGames[gameID].valid && openGames[gameID].players[0].valid){\r\n            return openGames[gameID].players[0].proposedStake;\r\n        }\r\n        else \r\n            return(0);\r\n    }\r\n\r\n    function checkStakePlayerTwo(uint gameID) public view returns (uint) {\r\n        if (openGames[gameID].valid && openGames[gameID].players[1].valid){\r\n            return openGames[gameID].players[1].proposedStake;\r\n        }\r\n        else \r\n            return(0);\r\n    }\r\n\r\n    function checkStakeGame(uint gameID) public view returns (uint) {\r\n        if (openGames[gameID].valid && openGames[gameID].players[0].valid && openGames[gameID].players[1].valid)\r\n            return openGames[gameID].decidedStake;\r\n        else\r\n            return(0);\r\n    }\r\n    \r\n    function payStake(uint gameID) gameExists(gameID) isInGame(gameID) assertState(gameID, GameStates.ACCEPTING_PAYMENT) external payable {\r\n        if((msg.sender == openGames[gameID].players[0].playerAddress && openGames[gameID].players[0].hasPaidStake) ||\r\n            (msg.sender == openGames[gameID].players[1].playerAddress && openGames[gameID].players[1].hasPaidStake))\r\n            revert StakeAlreadyDeposited();\r\n        // only accept payments for the exact amount owed\r\n        if(msg.value != openGames[gameID].decidedStake)\r\n            revert WrongStakeAmount(openGames[gameID].decidedStake);\r\n        // now we check who the sender is\r\n        uint senderIndex;\r\n        uint challengerIndex;\r\n        if(msg.sender == openGames[gameID].players[0].playerAddress){\r\n            senderIndex = 0;\r\n            challengerIndex = 1;\r\n        }else{\r\n            senderIndex = 1;\r\n            challengerIndex = 0;\r\n        }\r\n        openGames[gameID].players[senderIndex].hasPaidStake = true;\r\n        // Clear possible foul\r\n        ClearFoul(gameID);\r\n        emit StakePaid(gameID, msg.sender);\r\n        // if both players have paid the owed stake the game can move on to its next state\r\n        if(openGames[gameID].players[challengerIndex].hasPaidStake){\r\n            openGames[gameID].state = GameStates.P0_FIRING;\r\n            emit PlayerZeroTurn(gameID);\r\n        }\r\n    }\r\n\r\n    function deleteGame(uint gameID) internal{ \r\n        delete openGames[gameID].players[0].shots_board;\r\n        delete openGames[gameID].players[1].shots_board;\r\n        delete openGames[gameID].players[0];\r\n        delete openGames[gameID].players[1];\r\n        delete openGames[gameID];\r\n    }\r\n\r\n    function declineStake(uint gameID) gameExists(gameID) isInGame(gameID) assertState(gameID, GameStates.ACCEPTING_PAYMENT) external {\r\n        // if this player has already paid the stake, they can't decline it\r\n        if((msg.sender == openGames[gameID].players[0].playerAddress && openGames[gameID].players[0].hasPaidStake) ||\r\n            (msg.sender == openGames[gameID].players[1].playerAddress && openGames[gameID].players[1].hasPaidStake))\r\n            revert StakeAlreadyDeposited();\r\n        // now we check who the sender is\r\n        uint senderIndex;\r\n        uint challengerIndex;\r\n        if(msg.sender == openGames[gameID].players[0].playerAddress){\r\n            senderIndex = 0;\r\n            challengerIndex = 1;\r\n        }else{\r\n            senderIndex = 1;\r\n            challengerIndex = 0;\r\n        }\r\n        // check if the opponent has already paid its stake\r\n        if(openGames[gameID].players[challengerIndex].hasPaidStake){\r\n            // if they have, we refund it\r\n            (bool success, ) = openGames[gameID].players[challengerIndex].playerAddress.call{value:openGames[gameID].decidedStake}(\"\");\r\n            require(success);\r\n        }\r\n        // then we delete the game\r\n        deleteGame(gameID);\r\n        emit GameEnded(gameID);\r\n    }\r\n    \r\n    function checkGamePayable(uint gameID) public view returns (bool) {\r\n        if (openGames[gameID].valid && openGames[gameID].players[0].valid && openGames[gameID].players[1].valid)\r\n            return openGames[gameID].canPay;\r\n        else\r\n            return(false);\r\n    }\r\n    \r\n    function PlaceShips(uint gameID, bytes32 boardRoot) gameExists(gameID) isInGame(gameID) assertState(gameID, GameStates.PLACING_SHIPS) public{\r\n        uint index;\r\n        uint oppIdx;\r\n        msg.sender == openGames[gameID].players[0].playerAddress ? index = 0 : index = 1;\r\n        msg.sender == openGames[gameID].players[0].playerAddress ? oppIdx = 1 : oppIdx = 0;\r\n        require(openGames[gameID].players[index].boardTreeRoot == 0x0);\r\n        // Instantiate a new shots board\r\n        // Instantiate the Board struct itself and assign it to a player\r\n        Board storage playerBoard = trampolineBoard;\r\n        trampolineBoard.valid = true;\r\n        trampolineBoard.totalPieces = NUMBER_OF_SHIP_SQUARES;\r\n        trampolineBoard.totalShots = (BOARD_SIZE*BOARD_SIZE);\r\n        for(uint i = 0; i < (BOARD_SIZE*BOARD_SIZE); i++){\r\n            trampolineBoard.board[i] = false;\r\n        }\r\n        openGames[gameID].players[index].shots_board = playerBoard;\r\n        // save the received boardRoot, finally\r\n        openGames[gameID].players[index].boardTreeRoot = boardRoot;\r\n        emit BoardAcknowledgeEvent(gameID, msg.sender);\r\n        if(openGames[gameID].players[oppIdx].boardTreeRoot != 0x0){\r\n            openGames[gameID].state = GameStates.SETTING_STAKE;\r\n            emit GameStart(gameID, openGames[gameID].players[0].playerAddress, msg.sender);\r\n        }\r\n    }\r\n\r\n    function TestWinner(uint gameID, address claimant) private {\r\n        openGames[gameID].winner = claimant;\r\n        openGames[gameID].state = GameStates.CHECKING_WINNER;\r\n        RequestWinnerBoard(gameID, openGames[gameID].winner);\r\n    }\r\n\r\n    // for info on what location is see \"Implementation of the user-side game board\" in README.md\r\n    function FireTorpedo(uint gameID, uint8 location) gameExists(gameID) isInGame(gameID) shotOnBoard(location) assertState(gameID, GameStates.P0_FIRING) public {\r\n        // if we got past the modifiers, this means the shot is valid\r\n        // let's clear any potential fouls for this user\r\n        ClearFoul(gameID);\r\n        uint[2] memory indexes = getIndexSender(gameID);\r\n        // Rotate into correct next state\r\n        openGames[gameID].state == GameStates.P0_FIRING ? openGames[gameID].state = GameStates.P1_CHECKING : openGames[gameID].state = GameStates.P0_CHECKING;\r\n        // Now for some game logic\r\n        // whatever happens, we lower the totalShots counter of our system by one\r\n        openGames[gameID].players[indexes[0]].shots_board.totalShots--;\r\n        // Then we evaluate whether or not this is zero. If it is, This party wins automatically.\r\n        // We do this here to avoid opponents stalling out on the reply for 5 blocks on what is a foregone conclusion\r\n        if (openGames[gameID].players[indexes[0]].shots_board.totalShots == 0){\r\n            TestWinner(gameID, msg.sender);\r\n        } else {\r\n            emit ShotsFired(gameID, location, msg.sender);\r\n        }\r\n    }\r\n\r\n    function ConfirmShot(uint gameID, uint8 location, bool isHit, bytes32 leaf, bytes32[] calldata proof) public {\r\n        // we assert manually rather than with modifiers to avoid a stack-too-deep error\r\n        assert(openGames[gameID].valid);\r\n        assert(location < (BOARD_SIZE*BOARD_SIZE));\r\n        if(openGames[gameID].players[0].playerAddress == msg.sender){\r\n            assert(openGames[gameID].state == GameStates.P0_CHECKING);\r\n        } else if (openGames[gameID].players[1].playerAddress == msg.sender){\r\n            assert(openGames[gameID].state == GameStates.P1_CHECKING);\r\n        } else {\r\n            assert(false);\r\n        }\r\n        uint[2] memory indexes = getIndexSender(gameID);\r\n        // make sure this node corresponds to the board tile and truth value we are checking\r\n        assert(leaf == GenLeafNode(location, isHit));\r\n        // execute the proof test\r\n        if(Merkle.verifyCalldata(proof, openGames[gameID].players[indexes[0]].boardTreeRoot, leaf)){\r\n            // if we got this far it means the reply is valid\r\n            // let's clear any potential fouls for this user\r\n            ClearFoul(gameID);\r\n            // we could verify this user's proof\r\n            if (isHit){\r\n                // decrement our opponent's view of our total pieces\r\n                // only if the shot landed on a previously undeclared tile\r\n                // alas this is needed as the user might just keep asking for the same time over and over\r\n                // I don't know why they would do this, but they can\r\n                if(!openGames[gameID].players[indexes[1]].shots_board.board[location]){\r\n                    openGames[gameID].players[indexes[1]].shots_board.totalPieces--;\r\n                    openGames[gameID].players[indexes[1]].shots_board.board[location] = true;\r\n                    // if this was our last piece, we lost\r\n                    if(openGames[gameID].players[indexes[1]].shots_board.totalPieces == 0){\r\n                        /*\r\n                        openGames[gameID].winner = openGames[gameID].players[indexes[1]].playerAddress;\r\n                        openGames[gameID].state = GameStates.CHECKING_WINNER;\r\n                        RequestWinnerBoard(gameID, openGames[gameID].winner);\r\n                        */\r\n                        TestWinner(gameID, openGames[gameID].players[indexes[1]].playerAddress);\r\n                        return;\r\n                    }\r\n                }   \r\n            }\r\n            // rotate state\r\n            openGames[gameID].state == GameStates.P1_CHECKING ? openGames[gameID].state = GameStates.P1_FIRING : openGames[gameID].state = GameStates.P0_FIRING;\r\n            emit ShotsChecked(gameID, location, isHit, true, msg.sender);\r\n        } else {\r\n            // else we emit a 'shot failed to validate' message\r\n            // keep in mind the foul for this user is NOT triggered automatically.\r\n            emit ShotsChecked(gameID, location, isHit, false, msg.sender);\r\n        }\r\n    }\r\n\r\n    // this function generates a node locally in the same way a client would generate it\r\n    // it could be internal, we keep it public for now for debug purposes\r\n    function GenLeafNode(uint8 tile, bool ship) pure public returns (bytes32) {\r\n        return keccak256(abi.encode(tile,ship));\r\n    }\r\n\r\n    // a player who sees their address here will need to call VerifyWinner\r\n    function RequestWinnerBoard(uint gameID, address winnerAddress) private {\r\n        emit RequestBoard(gameID, winnerAddress);\r\n    }\r\n\r\n    // sadly using our modifiers here runs into a stack too deep compilation issue\r\n    // ergo we must assert a few security values by hand\r\n    // yes, the 'tiles' array is completely useless but we will leave it there for now\r\n    // it could be useful for future expansions into 5d battleships\r\n    function VerifyWinner(\r\n    uint gameID,  \r\n    uint8[] calldata tiles,\r\n    bool[] calldata ships,\r\n    bytes32[] calldata nodes,\r\n    bytes32[][] calldata proofs,\r\n    bytes32 root\r\n    ) public {\r\n        uint winnerIndex;\r\n        assert(openGames[gameID].valid);\r\n        assert(openGames[gameID].state == GameStates.CHECKING_WINNER);\r\n        if(openGames[gameID].winner == openGames[gameID].players[0].playerAddress){\r\n            winnerIndex = 0;\r\n        } else {\r\n            winnerIndex = 1;\r\n        }\r\n        assert(openGames[gameID].winner == msg.sender);\r\n        assert(root == openGames[gameID].players[winnerIndex].boardTreeRoot);\r\n        assert(tiles.length == (BOARD_SIZE*BOARD_SIZE));\r\n        assert(ships.length == (BOARD_SIZE*BOARD_SIZE));\r\n        // First operation: make sure this board really has the required number of ships on it\r\n        // and make sure the winner didn't send us a different board\r\n        // in the same cycle, verify that the node is part of the tree\r\n        // we already made sure this root is the correct one\r\n        uint8 shipsTotal = 0;\r\n        for(uint8 i = 0; i < (BOARD_SIZE*BOARD_SIZE); i++){\r\n            if(ships[i])\r\n                shipsTotal++;\r\n            assert(nodes[i] == GenLeafNode(tiles[i], ships[i]));\r\n            assert(Merkle.verifyCalldata(proofs[i], root, nodes[i]));\r\n        }\r\n        assert(shipsTotal == NUMBER_OF_SHIP_SQUARES);\r\n        // we don't use a conditional branch to alert the other player, as a Foul has already been triggered.\r\n        openGames[gameID].canPay = true;\r\n        openGames[gameID].state = GameStates.PAYABLE;\r\n        ClearFoul(gameID);\r\n        emit Victory(gameID, msg.sender);\r\n    }\r\n\r\n    function AbandonGame(uint gameID) gameExists(gameID) isInGame(gameID) external {\r\n        // see if the game has a second player\r\n        uint opponentIndex;\r\n        if(msg.sender == openGames[gameID].players[0].playerAddress){\r\n            opponentIndex = 1;\r\n        } else {\r\n            opponentIndex = 0;\r\n        }\r\n        // check if both have paid the stake\r\n        if(openGames[gameID].players[opponentIndex].hasPaidStake && openGames[gameID].players[1 - opponentIndex].hasPaidStake){\r\n            // if they have, we declare the opponent the winner\r\n            TestWinner(gameID, openGames[gameID].players[opponentIndex].playerAddress);\r\n        } else {\r\n            // if only the opponent has paid the stake, we refund it\r\n            if(openGames[gameID].players[opponentIndex].hasPaidStake){\r\n                (bool success, ) = openGames[gameID].players[opponentIndex].playerAddress.call{value:openGames[gameID].decidedStake}(\"\");\r\n                require(success);\r\n            }\r\n            // this delition only happens in this branch as the game will be deleted normally from testwinner otherwise\r\n            emit GameEnded(gameID);\r\n            deleteGame(gameID);\r\n        } // we keep the stake if the user cancelling the game has paid it. If they want the stake back because their oppoent is afk they should declare a foul instead of cancelling\r\n    }\r\n\r\n    function WithdrawWinnings(uint gameID) gameExists(gameID) isWinner(gameID) assertState(gameID, GameStates.PAYABLE) external {\r\n        uint amountOwed = openGames[gameID].decidedStake*2;\r\n        openGames[gameID].state = GameStates.DONE;\r\n        (bool success, ) = msg.sender.call{value:amountOwed}(\"\");\r\n        require(success);\r\n        deleteGame(gameID);\r\n    }\r\n\r\n    // a player can accuse another player of being afk if they don't act within X blocks\r\n    // for this to happen, the state has to be one they don't control\r\n    function FoulAccusation(uint gameID) gameExists(gameID) public {\r\n        uint senderIndex;\r\n        if(msg.sender == openGames[gameID].players[0].playerAddress)\r\n            senderIndex = 0;\r\n        else if (msg.sender == openGames[gameID].players[1].playerAddress)\r\n            senderIndex = 1;\r\n        // if the game is stuck waiting on Player 1, only accept accusations from Player 0\r\n        if(openGames[gameID].state == GameStates.P1_FIRING || openGames[gameID].state == GameStates.P1_CHECKING){\r\n            assert(senderIndex == 0);\r\n        // if the game is stuck waiting on Player 0, only accept accusations from Player 1\r\n        } else if (openGames[gameID].state == GameStates.P0_FIRING || openGames[gameID].state == GameStates.P0_CHECKING){\r\n            assert(senderIndex == 1);\r\n        } \r\n        // if the game is stuck accepting payments, only accept accusations by the side which hasn't paid yet\r\n        else if(openGames[gameID].state == GameStates.ACCEPTING_PAYMENT){\r\n            assert(openGames[gameID].players[senderIndex].hasPaidStake);\r\n        }\r\n        // if the game is stuck checking the winner, because a user isn't providing their board, only accept fouls from the non-winner\r\n        else if(openGames[gameID].state == GameStates.CHECKING_WINNER)\r\n            assert(msg.sender != openGames[gameID].winner);\r\n        else {\r\n            assert(false);\r\n        }\r\n        \r\n        require(openGames[gameID].accuser == address(0));\r\n        // very important: this is the only place where accuser can be set to anything other than 0\r\n        openGames[gameID].accuser = msg.sender;\r\n        openGames[gameID].blockNumber = block.number;\r\n        emit Foul(gameID, openGames[gameID].players[1 - senderIndex].playerAddress, openGames[gameID].blockNumber);\r\n    }\r\n\r\n    function CheckFoulTimer(uint gameID) gameExists(gameID) isInGame(gameID) public {\r\n        require(openGames[gameID].accuser != address(0));\r\n        if(openGames[gameID].blockNumber < (block.number + foulBlockLen)){\r\n            // the other player abandoned this game\r\n            TestWinner(gameID, openGames[gameID].accuser);\r\n        }\r\n    }\r\n\r\n    // a foul can only be cleared by properly advancing the state\r\n    // thus this function has to be called from within our check/fire functions\r\n    function ClearFoul(uint gameID) private {\r\n        if(openGames[gameID].accuser != address(0) && openGames[gameID].accuser != msg.sender){\r\n            // if we are out of time to context the foul this function will fail\r\n            assert(openGames[gameID].blockNumber <= (block.number + foulBlockLen));\r\n            // else it will clear the foul\r\n            // just like setting the accuser, this is THE ONLY place in the contract where this assignment is made.\r\n            openGames[gameID].accuser = address(0);\r\n        }\r\n    }\r\n\r\n    // Assortment of debug functions\r\n    // Despite the name, this function also sets the winner to a given address\r\n    // the main use for it is testing endgame stages of the contract without having to manually play a game\r\n    \r\n    function ChangeState(uint gameID, GameStates state, address winner) public {\r\n        assert(msg.sender == owner);\r\n        openGames[gameID].state = state;\r\n        openGames[gameID].winner = winner;\r\n    }\r\n    \r\n}",
  "sourcePath": "F:\\Documents\\Code\\School\\P2PBC\\Battleships\\contracts\\Battleships.sol",
  "compiler": {
    "name": "solc",
    "version": "0.8.19+commit.7dd6d404.Emscripten.clang"
  },
  "schemaVersion": "3.4.13",
  "updatedAt": "2023-05-30T15:59:44.477Z",
  "networkType": "ethereum",
  "devdoc": {
    "kind": "dev",
    "methods": {},
    "version": 1
  },
  "userdoc": {
    "kind": "user",
    "methods": {},
    "version": 1
  }
}