{
  "contractName": "Battleships",
  "abi": [
    {
      "inputs": [],
      "stateMutability": "nonpayable",
      "type": "constructor"
    },
    {
      "inputs": [],
      "name": "InvalidGameID",
      "type": "error"
    },
    {
      "inputs": [],
      "name": "NotInGame",
      "type": "error"
    },
    {
      "inputs": [],
      "name": "StakeAlreadyDeposited",
      "type": "error"
    },
    {
      "inputs": [
        {
          "internalType": "uint256",
          "name": "expectedStakeValue",
          "type": "uint256"
        }
      ],
      "name": "WrongStakeAmount",
      "type": "error"
    },
    {
      "anonymous": false,
      "inputs": [
        {
          "indexed": false,
          "internalType": "uint256",
          "name": "_gameID",
          "type": "uint256"
        }
      ],
      "name": "AcceptingBoards",
      "type": "event"
    },
    {
      "anonymous": false,
      "inputs": [
        {
          "indexed": false,
          "internalType": "uint256",
          "name": "_gameID",
          "type": "uint256"
        },
        {
          "indexed": false,
          "internalType": "address",
          "name": "_player",
          "type": "address"
        }
      ],
      "name": "BoardAcknowledgeEvent",
      "type": "event"
    },
    {
      "anonymous": false,
      "inputs": [
        {
          "indexed": false,
          "internalType": "uint256",
          "name": "_gameID",
          "type": "uint256"
        },
        {
          "indexed": false,
          "internalType": "address",
          "name": "_host",
          "type": "address"
        },
        {
          "indexed": false,
          "internalType": "address",
          "name": "_challenger",
          "type": "address"
        },
        {
          "indexed": false,
          "internalType": "uint256",
          "name": "_stakeValue",
          "type": "uint256"
        }
      ],
      "name": "GamePayable",
      "type": "event"
    },
    {
      "anonymous": false,
      "inputs": [
        {
          "indexed": false,
          "internalType": "uint256",
          "name": "_gameID",
          "type": "uint256"
        },
        {
          "indexed": false,
          "internalType": "address",
          "name": "_host",
          "type": "address"
        },
        {
          "indexed": false,
          "internalType": "address",
          "name": "_challenger",
          "type": "address"
        }
      ],
      "name": "GameStart",
      "type": "event"
    },
    {
      "anonymous": false,
      "inputs": [
        {
          "indexed": false,
          "internalType": "uint256",
          "name": "_gameID",
          "type": "uint256"
        }
      ],
      "name": "PlayerZeroTurn",
      "type": "event"
    },
    {
      "anonymous": false,
      "inputs": [
        {
          "indexed": false,
          "internalType": "address",
          "name": "_from",
          "type": "address"
        },
        {
          "indexed": false,
          "internalType": "address",
          "name": "_to",
          "type": "address"
        },
        {
          "indexed": false,
          "internalType": "uint256",
          "name": "_gameID",
          "type": "uint256"
        }
      ],
      "name": "ShareID",
      "type": "event"
    },
    {
      "anonymous": false,
      "inputs": [
        {
          "indexed": false,
          "internalType": "uint256",
          "name": "_gameID",
          "type": "uint256"
        },
        {
          "indexed": false,
          "internalType": "uint8",
          "name": "_location",
          "type": "uint8"
        },
        {
          "indexed": false,
          "internalType": "bool",
          "name": "_claim",
          "type": "bool"
        },
        {
          "indexed": false,
          "internalType": "bool",
          "name": "_validity",
          "type": "bool"
        }
      ],
      "name": "ShotsChecked",
      "type": "event"
    },
    {
      "anonymous": false,
      "inputs": [
        {
          "indexed": false,
          "internalType": "uint256",
          "name": "_gameID",
          "type": "uint256"
        },
        {
          "indexed": false,
          "internalType": "uint8",
          "name": "_location",
          "type": "uint8"
        }
      ],
      "name": "ShotsFired",
      "type": "event"
    },
    {
      "anonymous": false,
      "inputs": [
        {
          "indexed": false,
          "internalType": "uint256",
          "name": "_gameID",
          "type": "uint256"
        },
        {
          "indexed": false,
          "internalType": "address",
          "name": "_whoPaid",
          "type": "address"
        }
      ],
      "name": "StakePaid",
      "type": "event"
    },
    {
      "anonymous": false,
      "inputs": [
        {
          "indexed": false,
          "internalType": "uint256",
          "name": "_gameID",
          "type": "uint256"
        },
        {
          "indexed": false,
          "internalType": "address",
          "name": "_from",
          "type": "address"
        },
        {
          "indexed": false,
          "internalType": "address",
          "name": "_to",
          "type": "address"
        },
        {
          "indexed": false,
          "internalType": "uint256",
          "name": "_stakeValue",
          "type": "uint256"
        }
      ],
      "name": "SuggestedStake",
      "type": "event"
    },
    {
      "anonymous": false,
      "inputs": [
        {
          "indexed": false,
          "internalType": "uint256",
          "name": "_gameID",
          "type": "uint256"
        },
        {
          "indexed": false,
          "internalType": "address",
          "name": "_winner",
          "type": "address"
        }
      ],
      "name": "Victory",
      "type": "event"
    },
    {
      "inputs": [],
      "name": "BOARD_SIZE",
      "outputs": [
        {
          "internalType": "uint8",
          "name": "",
          "type": "uint8"
        }
      ],
      "stateMutability": "view",
      "type": "function",
      "constant": true
    },
    {
      "inputs": [],
      "name": "NUMBER_OF_SHIP_SQUARES",
      "outputs": [
        {
          "internalType": "uint8",
          "name": "",
          "type": "uint8"
        }
      ],
      "stateMutability": "view",
      "type": "function",
      "constant": true
    },
    {
      "inputs": [
        {
          "internalType": "bool",
          "name": "isPrivate",
          "type": "bool"
        }
      ],
      "name": "newGame",
      "outputs": [],
      "stateMutability": "nonpayable",
      "type": "function"
    },
    {
      "inputs": [
        {
          "internalType": "uint256",
          "name": "gameID",
          "type": "uint256"
        }
      ],
      "name": "joinGame",
      "outputs": [],
      "stateMutability": "nonpayable",
      "type": "function"
    },
    {
      "inputs": [
        {
          "internalType": "uint256",
          "name": "gameID",
          "type": "uint256"
        }
      ],
      "name": "checkGameState",
      "outputs": [
        {
          "internalType": "enum Battleships.GameStates",
          "name": "",
          "type": "uint8"
        }
      ],
      "stateMutability": "view",
      "type": "function",
      "constant": true
    },
    {
      "inputs": [
        {
          "internalType": "uint256",
          "name": "gameID",
          "type": "uint256"
        }
      ],
      "name": "checkGamePlayerOne",
      "outputs": [
        {
          "internalType": "address",
          "name": "",
          "type": "address"
        }
      ],
      "stateMutability": "view",
      "type": "function",
      "constant": true
    },
    {
      "inputs": [
        {
          "internalType": "uint256",
          "name": "gameID",
          "type": "uint256"
        }
      ],
      "name": "checkGamePlayerTwo",
      "outputs": [
        {
          "internalType": "address",
          "name": "",
          "type": "address"
        }
      ],
      "stateMutability": "view",
      "type": "function",
      "constant": true
    },
    {
      "inputs": [
        {
          "internalType": "uint256",
          "name": "gameID",
          "type": "uint256"
        },
        {
          "internalType": "uint256",
          "name": "stakeValue",
          "type": "uint256"
        }
      ],
      "name": "proposeStake",
      "outputs": [],
      "stateMutability": "nonpayable",
      "type": "function"
    },
    {
      "inputs": [
        {
          "internalType": "uint256",
          "name": "gameID",
          "type": "uint256"
        }
      ],
      "name": "checkStakePlayerOne",
      "outputs": [
        {
          "internalType": "uint256",
          "name": "",
          "type": "uint256"
        }
      ],
      "stateMutability": "view",
      "type": "function",
      "constant": true
    },
    {
      "inputs": [
        {
          "internalType": "uint256",
          "name": "gameID",
          "type": "uint256"
        }
      ],
      "name": "checkStakePlayerTwo",
      "outputs": [
        {
          "internalType": "uint256",
          "name": "",
          "type": "uint256"
        }
      ],
      "stateMutability": "view",
      "type": "function",
      "constant": true
    },
    {
      "inputs": [
        {
          "internalType": "uint256",
          "name": "gameID",
          "type": "uint256"
        }
      ],
      "name": "checkStakeGame",
      "outputs": [
        {
          "internalType": "uint256",
          "name": "",
          "type": "uint256"
        }
      ],
      "stateMutability": "view",
      "type": "function",
      "constant": true
    },
    {
      "inputs": [
        {
          "internalType": "uint256",
          "name": "gameID",
          "type": "uint256"
        }
      ],
      "name": "payStake",
      "outputs": [],
      "stateMutability": "payable",
      "type": "function",
      "payable": true
    },
    {
      "inputs": [
        {
          "internalType": "uint256",
          "name": "gameID",
          "type": "uint256"
        }
      ],
      "name": "checkPaymentPlayerOne",
      "outputs": [
        {
          "internalType": "bool",
          "name": "",
          "type": "bool"
        }
      ],
      "stateMutability": "view",
      "type": "function",
      "constant": true
    },
    {
      "inputs": [
        {
          "internalType": "uint256",
          "name": "gameID",
          "type": "uint256"
        }
      ],
      "name": "checkPaymentPlayerTwo",
      "outputs": [
        {
          "internalType": "bool",
          "name": "",
          "type": "bool"
        }
      ],
      "stateMutability": "view",
      "type": "function",
      "constant": true
    },
    {
      "inputs": [
        {
          "internalType": "uint256",
          "name": "gameID",
          "type": "uint256"
        }
      ],
      "name": "checkGamePayable",
      "outputs": [
        {
          "internalType": "bool",
          "name": "",
          "type": "bool"
        }
      ],
      "stateMutability": "view",
      "type": "function",
      "constant": true
    },
    {
      "inputs": [
        {
          "internalType": "uint256",
          "name": "gameID",
          "type": "uint256"
        },
        {
          "internalType": "bytes32",
          "name": "boardRoot",
          "type": "bytes32"
        }
      ],
      "name": "PlaceShips",
      "outputs": [],
      "stateMutability": "nonpayable",
      "type": "function"
    },
    {
      "inputs": [
        {
          "internalType": "uint256",
          "name": "gameID",
          "type": "uint256"
        }
      ],
      "name": "getPlayerOneBoardRoot",
      "outputs": [
        {
          "internalType": "bytes32",
          "name": "",
          "type": "bytes32"
        }
      ],
      "stateMutability": "view",
      "type": "function",
      "constant": true
    },
    {
      "inputs": [
        {
          "internalType": "uint256",
          "name": "gameID",
          "type": "uint256"
        }
      ],
      "name": "getPlayerTwoBoardRoot",
      "outputs": [
        {
          "internalType": "bytes32",
          "name": "",
          "type": "bytes32"
        }
      ],
      "stateMutability": "view",
      "type": "function",
      "constant": true
    },
    {
      "inputs": [
        {
          "internalType": "uint256",
          "name": "gameID",
          "type": "uint256"
        }
      ],
      "name": "getPlayerOneShotsBoard",
      "outputs": [
        {
          "internalType": "bool",
          "name": "",
          "type": "bool"
        }
      ],
      "stateMutability": "view",
      "type": "function",
      "constant": true
    },
    {
      "inputs": [
        {
          "internalType": "uint256",
          "name": "gameID",
          "type": "uint256"
        }
      ],
      "name": "getPlayerTwoShotsBoard",
      "outputs": [
        {
          "internalType": "bool",
          "name": "",
          "type": "bool"
        }
      ],
      "stateMutability": "view",
      "type": "function",
      "constant": true
    },
    {
      "inputs": [
        {
          "internalType": "uint256",
          "name": "gameID",
          "type": "uint256"
        },
        {
          "internalType": "uint8",
          "name": "location",
          "type": "uint8"
        }
      ],
      "name": "FireTorpedo",
      "outputs": [],
      "stateMutability": "nonpayable",
      "type": "function"
    },
    {
      "inputs": [
        {
          "internalType": "uint256",
          "name": "gameID",
          "type": "uint256"
        },
        {
          "internalType": "uint8",
          "name": "location",
          "type": "uint8"
        },
        {
          "internalType": "bool",
          "name": "isHit",
          "type": "bool"
        },
        {
          "internalType": "bytes32",
          "name": "leaf",
          "type": "bytes32"
        },
        {
          "internalType": "bytes32[]",
          "name": "proof",
          "type": "bytes32[]"
        }
      ],
      "name": "ConfirmShot",
      "outputs": [],
      "stateMutability": "nonpayable",
      "type": "function"
    },
    {
      "inputs": [
        {
          "internalType": "bytes32",
          "name": "proof",
          "type": "bytes32"
        }
      ],
      "name": "EchoBytes",
      "outputs": [
        {
          "internalType": "bytes32",
          "name": "",
          "type": "bytes32"
        }
      ],
      "stateMutability": "pure",
      "type": "function",
      "constant": true
    },
    {
      "inputs": [
        {
          "internalType": "bytes32[]",
          "name": "proof",
          "type": "bytes32[]"
        }
      ],
      "name": "EchoProof",
      "outputs": [
        {
          "internalType": "bytes32[]",
          "name": "",
          "type": "bytes32[]"
        }
      ],
      "stateMutability": "pure",
      "type": "function",
      "constant": true
    }
  ],
  "bytecode": "0x608060405234801561001057600080fd5b506001601b819055506001601c81905550614c6a806100306000396000f3fe60806040526004361061014b5760003560e01c80636930aa4d116100b6578063dc4a3e951161006f578063dc4a3e951461052c578063e0dd9bb414610557578063ea8202e914610580578063efaa55a0146105bd578063f28ae7dd146105e6578063fba523b71461060f5761014b565b80636930aa4d146103e4578063699f5aeb1461040f57806379fbd95d1461044c5780639a7e4cea14610475578063aa3ee915146104b2578063d46d0777146104ef5761014b565b80632b170aac116101085780632b170aac1461028a5780634278d986146102b35780635345f533146102f0578063542c01511461032d57806354d83c651461036a5780635f7dbd2b146103a75761014b565b8063012b61f01461015057806302ecb0e81461018d5780630e37dcd0146101ca5780630eeca53e146101e657806316337b89146102245780631de954251461024d575b600080fd5b34801561015c57600080fd5b5061017760048036038101906101729190614440565b61064c565b6040516101849190614488565b60405180910390f35b34801561019957600080fd5b506101b460048036038101906101af9190614440565b610734565b6040516101c19190614488565b60405180910390f35b6101e460048036038101906101df9190614440565b6107f1565b005b3480156101f257600080fd5b5061020d60048036038101906102089190614508565b611084565b60405161021b9291906145d0565b60405180910390f35b34801561023057600080fd5b5061024b6004803603810190610246919061462a565b611094565b005b34801561025957600080fd5b50610274600480360381019061026f9190614440565b611858565b60405161028191906146ab565b60405180910390f35b34801561029657600080fd5b506102b160048036038101906102ac91906146f2565b611928565b005b3480156102bf57600080fd5b506102da60048036038101906102d59190614440565b611d6c565b6040516102e7919061472e565b60405180910390f35b3480156102fc57600080fd5b5061031760048036038101906103129190614440565b611d80565b6040516103249190614488565b60405180910390f35b34801561033957600080fd5b50610354600480360381019061034f9190614440565b611d94565b6040516103619190614488565b60405180910390f35b34801561037657600080fd5b50610391600480360381019061038c9190614440565b611da8565b60405161039e9190614488565b60405180910390f35b3480156103b357600080fd5b506103ce60048036038101906103c99190614440565b611e65565b6040516103db919061472e565b60405180910390f35b3480156103f057600080fd5b506103f9611e79565b6040516104069190614765565b60405180910390f35b34801561041b57600080fd5b5061043660048036038101906104319190614440565b611e7e565b604051610443919061478f565b60405180910390f35b34801561045857600080fd5b50610473600480360381019061046e91906147d6565b611f59565b005b34801561048157600080fd5b5061049c60048036038101906104979190614440565b612819565b6040516104a991906148e7565b60405180910390f35b3480156104be57600080fd5b506104d960048036038101906104d49190614440565b612877565b6040516104e6919061478f565b60405180910390f35b3480156104fb57600080fd5b5061051660048036038101906105119190614440565b612927565b60405161052391906146ab565b60405180910390f35b34801561053857600080fd5b506105416129f7565b60405161054e9190614765565b60405180910390f35b34801561056357600080fd5b5061057e60048036038101906105799190614902565b6129fc565b005b34801561058c57600080fd5b506105a760048036038101906105a29190614942565b613051565b6040516105b4919061472e565b60405180910390f35b3480156105c957600080fd5b506105e460048036038101906105df9190614440565b61305b565b005b3480156105f257600080fd5b5061060d6004803603810190610608919061496f565b61348f565b005b34801561061b57600080fd5b5061063660048036038101906106319190614440565b613d92565b604051610643919061478f565b60405180910390f35b600080600083815260200190815260200160002060000160009054906101000a900460ff1680156106b657506000808381526020019081526020016000206001016000600281106106a05761069f6149af565b5b6006020160000160009054906101000a900460ff165b80156106fb57506000808381526020019081526020016000206001016001600281106106e5576106e46149af565b5b6006020160000160009054906101000a900460ff165b1561072a5760008083815260200190815260200160002060000160019054906101000a900460ff16905061072f565b600090505b919050565b600080600083815260200190815260200160002060000160009054906101000a900460ff16801561079e5750600080838152602001908152602001600020600101600160028110610788576107876149af565b5b6006020160000160009054906101000a900460ff165b156107e7576000808381526020019081526020016000206001016001600281106107cb576107ca6149af565b5b6006020160000160019054906101000a900460ff1690506107ec565b600090505b919050565b8060008082815260200190815260200160002060000160009054906101000a900460ff16610822576108216149de565b5b813373ffffffffffffffffffffffffffffffffffffffff16600080838152602001908152602001600020600101600060028110610862576108616149af565b5b6006020160000160029054906101000a900473ffffffffffffffffffffffffffffffffffffffff1673ffffffffffffffffffffffffffffffffffffffff16148061092657503373ffffffffffffffffffffffffffffffffffffffff166000808381526020019081526020016000206001016001600281106108e6576108e56149af565b5b6006020160000160029054906101000a900473ffffffffffffffffffffffffffffffffffffffff1673ffffffffffffffffffffffffffffffffffffffff16145b610933576109326149de565b5b8260026004600981111561094a57610949614870565b5b81600981111561095d5761095c614870565b5b14158061098f57506006600981111561097957610978614870565b5b81600981111561098c5761098b614870565b5b14155b806109bf5750600760098111156109a9576109a8614870565b5b8160098111156109bc576109bb614870565b5b14155b806109ef5750600560098111156109d9576109d8614870565b5b8160098111156109ec576109eb614870565b5b14155b15610a4f57806009811115610a0757610a06614870565b5b600080848152602001908152602001600020600d0160009054906101000a900460ff166009811115610a3c57610a3b614870565b5b14610a4a57610a496149de565b5b610c77565b6000610a5a83613e42565b905060046009811115610a7057610a6f614870565b5b826009811115610a8357610a82614870565b5b03610b6057600081600060028110610a9e57610a9d6149af565b5b602002015103610b0357816009811115610abb57610aba614870565b5b600080858152602001908152602001600020600d0160009054906101000a900460ff166009811115610af057610aef614870565b5b14610afe57610afd6149de565b5b610b5b565b60066009811115610b1757610b16614870565b5b600080858152602001908152602001600020600d0160009054906101000a900460ff166009811115610b4c57610b4b614870565b5b14610b5a57610b596149de565b5b5b610c75565b60076009811115610b7457610b73614870565b5b826009811115610b8757610b86614870565b5b03610c6457600081600060028110610ba257610ba16149af565b5b602002015103610c0757816009811115610bbf57610bbe614870565b5b600080858152602001908152602001600020600d0160009054906101000a900460ff166009811115610bf457610bf3614870565b5b14610c0257610c016149de565b5b610c5f565b60056009811115610c1b57610c1a614870565b5b600080858152602001908152602001600020600d0160009054906101000a900460ff166009811115610c5057610c4f614870565b5b14610c5e57610c5d6149de565b5b5b610c74565b6000610c7357610c726149de565b5b5b5b505b600080868152602001908152602001600020600101600060028110610c9f57610c9e6149af565b5b6006020160000160029054906101000a900473ffffffffffffffffffffffffffffffffffffffff1673ffffffffffffffffffffffffffffffffffffffff163373ffffffffffffffffffffffffffffffffffffffff16148015610d3a5750600080868152602001908152602001600020600101600060028110610d2457610d236149af565b5b6006020160000160019054906101000a900460ff165b80610e045750600080868152602001908152602001600020600101600160028110610d6857610d676149af565b5b6006020160000160029054906101000a900473ffffffffffffffffffffffffffffffffffffffff1673ffffffffffffffffffffffffffffffffffffffff163373ffffffffffffffffffffffffffffffffffffffff16148015610e035750600080868152602001908152602001600020600101600160028110610ded57610dec6149af565b5b6006020160000160019054906101000a900460ff165b5b15610e3b576040517f5e558b2300000000000000000000000000000000000000000000000000000000815260040160405180910390fd5b600080868152602001908152602001600020600e01543414610ea957600080868152602001908152602001600020600e01546040517f66cb868a000000000000000000000000000000000000000000000000000000008152600401610ea0919061478f565b60405180910390fd5b600080600080888152602001908152602001600020600101600060028110610ed457610ed36149af565b5b6006020160000160029054906101000a900473ffffffffffffffffffffffffffffffffffffffff1673ffffffffffffffffffffffffffffffffffffffff163373ffffffffffffffffffffffffffffffffffffffff1603610f3b576000915060019050610f44565b60019150600090505b60016000808981526020019081526020016000206001018360028110610f6d57610f6c6149af565b5b6006020160000160016101000a81548160ff0219169083151502179055507f95ddb9abe17699603c18cef7bcfd33947d19c8eb237e01edac0bd509b481339e8733604051610fbc929190614a0d565b60405180910390a16000808881526020019081526020016000206001018160028110610feb57610fea6149af565b5b6006020160000160019054906101000a900460ff161561107b576003600080898152602001908152602001600020600d0160006101000a81548160ff0219169083600981111561103e5761103d614870565b5b02179055507f972651cf62ccc65bd2ba0fd996eb34701d5773844d3303545d5b4cb29738f10487604051611072919061478f565b60405180910390a15b50505050505050565b3660008383915091509250929050565b8160008082815260200190815260200160002060000160009054906101000a900460ff166110c5576110c46149de565b5b823373ffffffffffffffffffffffffffffffffffffffff16600080838152602001908152602001600020600101600060028110611105576111046149af565b5b6006020160000160029054906101000a900473ffffffffffffffffffffffffffffffffffffffff1673ffffffffffffffffffffffffffffffffffffffff1614806111c957503373ffffffffffffffffffffffffffffffffffffffff16600080838152602001908152602001600020600101600160028110611189576111886149af565b5b6006020160000160029054906101000a900473ffffffffffffffffffffffffffffffffffffffff1673ffffffffffffffffffffffffffffffffffffffff16145b6111d6576111d56149de565b5b836003600460098111156111ed576111ec614870565b5b816009811115611200576111ff614870565b5b14158061123257506006600981111561121c5761121b614870565b5b81600981111561122f5761122e614870565b5b14155b8061126257506007600981111561124c5761124b614870565b5b81600981111561125f5761125e614870565b5b14155b8061129257506005600981111561127c5761127b614870565b5b81600981111561128f5761128e614870565b5b14155b156112f2578060098111156112aa576112a9614870565b5b600080848152602001908152602001600020600d0160009054906101000a900460ff1660098111156112df576112de614870565b5b146112ed576112ec6149de565b5b61151a565b60006112fd83613e42565b90506004600981111561131357611312614870565b5b82600981111561132657611325614870565b5b0361140357600081600060028110611341576113406149af565b5b6020020151036113a65781600981111561135e5761135d614870565b5b600080858152602001908152602001600020600d0160009054906101000a900460ff16600981111561139357611392614870565b5b146113a1576113a06149de565b5b6113fe565b600660098111156113ba576113b9614870565b5b600080858152602001908152602001600020600d0160009054906101000a900460ff1660098111156113ef576113ee614870565b5b146113fd576113fc6149de565b5b5b611518565b6007600981111561141757611416614870565b5b82600981111561142a57611429614870565b5b0361150757600081600060028110611445576114446149af565b5b6020020151036114aa5781600981111561146257611461614870565b5b600080858152602001908152602001600020600d0160009054906101000a900460ff16600981111561149757611496614870565b5b146114a5576114a46149de565b5b611502565b600560098111156114be576114bd614870565b5b600080858152602001908152602001600020600d0160009054906101000a900460ff1660098111156114f3576114f2614870565b5b14611501576115006149de565b5b5b611517565b6000611516576115156149de565b5b5b5b505b600080600080898152602001908152602001600020600101600060028110611545576115446149af565b5b6006020160000160029054906101000a900473ffffffffffffffffffffffffffffffffffffffff1673ffffffffffffffffffffffffffffffffffffffff163373ffffffffffffffffffffffffffffffffffffffff16146115a95760019150816115af565b60009150815b506000808981526020019081526020016000206001016000600281106115d8576115d76149af565b5b6006020160000160029054906101000a900473ffffffffffffffffffffffffffffffffffffffff1673ffffffffffffffffffffffffffffffffffffffff163373ffffffffffffffffffffffffffffffffffffffff161461163c576000905080611642565b60019050805b506000801b6000808a8152602001908152602001600020600101836002811061166e5761166d6149af565b5b60060201600201541461168057600080fd5b6000601890506001601860000160006101000a81548160ff021916908315150217905550601460ff16601860010181905550600860ff16601860020181905550806000808b815260200190815260200160002060010184600281106116e8576116e76149af565b5b600602016003016000820160009054906101000a900460ff168160000160006101000a81548160ff0219169083151502179055506001820154816001015560028201548160020155905050876000808b8152602001908152602001600020600101846002811061175b5761175a6149af565b5b60060201600201819055507fde8cdabe60db81138d1e5580b73440f47ba010dbd18575d18bad0b750987001e8933604051611797929190614a0d565b60405180910390a16000801b6000808b815260200190815260200160002060010183600281106117ca576117c96149af565b5b60060201600201541461184d5760046000808b8152602001908152602001600020600d0160006101000a81548160ff021916908360098111156118105761180f614870565b5b02179055507ff751b3d5e96ffa95a434b79874df7e232b82d5c688a5d61fd7b5c5ce8724712789604051611844919061478f565b60405180910390a15b505050505050505050565b600080600083815260200190815260200160002060000160009054906101000a900460ff1680156118c257506000808381526020019081526020016000206001016000600281106118ac576118ab6149af565b5b6006020160000160009054906101000a900460ff165b1561191e576000808381526020019081526020016000206001016000600281106118ef576118ee6149af565b5b6006020160000160029054906101000a900473ffffffffffffffffffffffffffffffffffffffff169050611923565b600090505b919050565b6000601b549050601b600081548092919061194290614a65565b9190505550600060019050600060129050338160000160026101000a81548173ffffffffffffffffffffffffffffffffffffffff021916908373ffffffffffffffffffffffffffffffffffffffff16021790555060018160000160006101000a81548160ff02191690831515021790555060008160000160016101000a81548160ff02191690831515021790555080826001016000600281106119e8576119e76149af565b5b600602016000820160009054906101000a900460ff168160000160006101000a81548160ff0219169083151502179055506000820160019054906101000a900460ff168160000160016101000a81548160ff0219169083151502179055506000820160029054906101000a900473ffffffffffffffffffffffffffffffffffffffff168160000160026101000a81548173ffffffffffffffffffffffffffffffffffffffff021916908373ffffffffffffffffffffffffffffffffffffffff160217905550600182015481600101556002820154816002015560038201816003016000820160009054906101000a900460ff168160000160006101000a81548160ff02191690831515021790555060018201548160010155600282015481600201555050905050600082600d0160006101000a81548160ff02191690836009811115611b3757611b36614870565b5b0217905550838260100160016101000a81548160ff02191690831515021790555060018260000160006101000a81548160ff02191690831515021790555060008260000160016101000a81548160ff021916908315150217905550816000808581526020019081526020016000206000820160009054906101000a900460ff168160000160006101000a81548160ff0219169083151502179055506000820160019054906101000a900460ff168160000160016101000a81548160ff0219169083151502179055506001820181600101906002611c159291906141da565b50600d820160009054906101000a900460ff1681600d0160006101000a81548160ff02191690836009811115611c4e57611c4d614870565b5b0217905550600e82015481600e0155600f82015481600f01556010820160009054906101000a900460ff168160100160006101000a81548160ff0219169083151502179055506010820160019054906101000a900460ff168160100160016101000a81548160ff0219169083151502179055506010820160029054906101000a900473ffffffffffffffffffffffffffffffffffffffff168160100160026101000a81548173ffffffffffffffffffffffffffffffffffffffff021916908373ffffffffffffffffffffffffffffffffffffffff1602179055509050507f1edfba130181c8da1b98834639c59b5287912fcc01104c5a7a6e6c8cd194e302303385604051611d5e93929190614aad565b60405180910390a150505050565b6000611d79826001613f5f565b9050919050565b6000611d8d82600161403b565b9050919050565b6000611da182600061403b565b9050919050565b600080600083815260200190815260200160002060000160009054906101000a900460ff168015611e125750600080838152602001908152602001600020600101600060028110611dfc57611dfb6149af565b5b6006020160000160009054906101000a900460ff165b15611e5b57600080838152602001908152602001600020600101600060028110611e3f57611e3e6149af565b5b6006020160000160019054906101000a900460ff169050611e60565b600090505b919050565b6000611e72826000613f5f565b9050919050565b601481565b600080600083815260200190815260200160002060000160009054906101000a900460ff168015611ee85750600080838152602001908152602001600020600101600060028110611ed257611ed16149af565b5b6006020160000160009054906101000a900460ff165b8015611f2d5750600080838152602001908152602001600020600101600160028110611f1757611f166149af565b5b6006020160000160009054906101000a900460ff165b15611f4f57600080838152602001908152602001600020600e01549050611f54565b600090505b919050565b8560008082815260200190815260200160002060000160009054906101000a900460ff16611f8a57611f896149de565b5b863373ffffffffffffffffffffffffffffffffffffffff16600080838152602001908152602001600020600101600060028110611fca57611fc96149af565b5b6006020160000160029054906101000a900473ffffffffffffffffffffffffffffffffffffffff1673ffffffffffffffffffffffffffffffffffffffff16148061208e57503373ffffffffffffffffffffffffffffffffffffffff1660008083815260200190815260200160002060010160016002811061204e5761204d6149af565b5b6006020160000160029054906101000a900473ffffffffffffffffffffffffffffffffffffffff1673ffffffffffffffffffffffffffffffffffffffff16145b61209b5761209a6149de565b5b866008806120a99190614ae4565b60ff168160ff16106120be576120bd6149de565b5b886007600460098111156120d5576120d4614870565b5b8160098111156120e8576120e7614870565b5b14158061211a57506006600981111561210457612103614870565b5b81600981111561211757612116614870565b5b14155b8061214a57506007600981111561213457612133614870565b5b81600981111561214757612146614870565b5b14155b8061217a57506005600981111561216457612163614870565b5b81600981111561217757612176614870565b5b14155b156121da5780600981111561219257612191614870565b5b600080848152602001908152602001600020600d0160009054906101000a900460ff1660098111156121c7576121c6614870565b5b146121d5576121d46149de565b5b612402565b60006121e583613e42565b9050600460098111156121fb576121fa614870565b5b82600981111561220e5761220d614870565b5b036122eb57600081600060028110612229576122286149af565b5b60200201510361228e5781600981111561224657612245614870565b5b600080858152602001908152602001600020600d0160009054906101000a900460ff16600981111561227b5761227a614870565b5b14612289576122886149de565b5b6122e6565b600660098111156122a2576122a1614870565b5b600080858152602001908152602001600020600d0160009054906101000a900460ff1660098111156122d7576122d6614870565b5b146122e5576122e46149de565b5b5b612400565b600760098111156122ff576122fe614870565b5b82600981111561231257612311614870565b5b036123ef5760008160006002811061232d5761232c6149af565b5b6020020151036123925781600981111561234a57612349614870565b5b600080858152602001908152602001600020600d0160009054906101000a900460ff16600981111561237f5761237e614870565b5b1461238d5761238c6149de565b5b6123ea565b600560098111156123a6576123a5614870565b5b600080858152602001908152602001600020600d0160009054906101000a900460ff1660098111156123db576123da614870565b5b146123e9576123e86149de565b5b5b6123ff565b60006123fe576123fd6149de565b5b5b5b505b600061240d8c613e42565b905060008060008e8152602001908152602001600020604051806101200160405290816000820160009054906101000a900460ff161515151581526020016000820160019054906101000a900460ff1615151515815260200160018201600280602002604051908101604052809291906000905b8282101561258c578382600602016040518060c00160405290816000820160009054906101000a900460ff161515151581526020016000820160019054906101000a900460ff161515151581526020016000820160029054906101000a900473ffffffffffffffffffffffffffffffffffffffff1673ffffffffffffffffffffffffffffffffffffffff1673ffffffffffffffffffffffffffffffffffffffff1681526020016001820154815260200160028201548152602001600382016040518060600160405290816000820160009054906101000a900460ff16151515158152602001600182015481526020016002820154815250508152505081526020019060010190612481565b505050508152602001600d820160009054906101000a900460ff1660098111156125b9576125b8614870565b5b60098111156125cb576125ca614870565b5b8152602001600e8201548152602001600f82015481526020016010820160009054906101000a900460ff161515151581526020016010820160019054906101000a900460ff161515151581526020016010820160029054906101000a900473ffffffffffffffffffffffffffffffffffffffff1673ffffffffffffffffffffffffffffffffffffffff1673ffffffffffffffffffffffffffffffffffffffff168152505090506126b4898983604001518560006002811061268f5761268e6149af565b5b6020020151600281106126a5576126a46149af565b5b6020020151608001518d614127565b156127cb57600560098111156126cd576126cc614870565b5b6000808f8152602001908152602001600020600d0160009054906101000a900460ff16600981111561270257612701614870565b5b146127495760046000808f8152602001908152602001600020600d0160006101000a81548160ff021916908360098111156127405761273f614870565b5b02179055612787565b60066000808f8152602001908152602001600020600d0160006101000a81548160ff0219169083600981111561278257612781614870565b5b021790555b507f6b7f4cb32e4557bb0ec1ac014e9cf98e7eb88491d66436be28084edaf4ae0d078d8d8d60016040516127be9493929190614b21565b60405180910390a161280a565b7f6b7f4cb32e4557bb0ec1ac014e9cf98e7eb88491d66436be28084edaf4ae0d078d8d8d60006040516128019493929190614b21565b60405180910390a15b50505050505050505050505050565b600080600083815260200190815260200160002060000160009054906101000a900460ff161561286d57600080838152602001908152602001600020600d0160009054906101000a900460ff169050612872565b600990505b919050565b600080600083815260200190815260200160002060000160009054906101000a900460ff1680156128e157506000808381526020019081526020016000206001016001600281106128cb576128ca6149af565b5b6006020160000160009054906101000a900460ff165b1561291d5760008083815260200190815260200160002060010160016002811061290e5761290d6149af565b5b60060201600101549050612922565b600090505b919050565b600080600083815260200190815260200160002060000160009054906101000a900460ff168015612991575060008083815260200190815260200160002060010160016002811061297b5761297a6149af565b5b6006020160000160009054906101000a900460ff165b156129ed576000808381526020019081526020016000206001016001600281106129be576129bd6149af565b5b6006020160000160029054906101000a900473ffffffffffffffffffffffffffffffffffffffff1690506129f2565b600090505b919050565b600881565b8160008082815260200190815260200160002060000160009054906101000a900460ff16612a2d57612a2c6149de565b5b823373ffffffffffffffffffffffffffffffffffffffff16600080838152602001908152602001600020600101600060028110612a6d57612a6c6149af565b5b6006020160000160029054906101000a900473ffffffffffffffffffffffffffffffffffffffff1673ffffffffffffffffffffffffffffffffffffffff161480612b3157503373ffffffffffffffffffffffffffffffffffffffff16600080838152602001908152602001600020600101600160028110612af157612af06149af565b5b6006020160000160029054906101000a900473ffffffffffffffffffffffffffffffffffffffff1673ffffffffffffffffffffffffffffffffffffffff16145b612b3e57612b3d6149de565b5b836004806009811115612b5457612b53614870565b5b816009811115612b6757612b66614870565b5b141580612b99575060066009811115612b8357612b82614870565b5b816009811115612b9657612b95614870565b5b14155b80612bc9575060076009811115612bb357612bb2614870565b5b816009811115612bc657612bc5614870565b5b14155b80612bf9575060056009811115612be357612be2614870565b5b816009811115612bf657612bf5614870565b5b14155b15612c5957806009811115612c1157612c10614870565b5b600080848152602001908152602001600020600d0160009054906101000a900460ff166009811115612c4657612c45614870565b5b14612c5457612c536149de565b5b612e81565b6000612c6483613e42565b905060046009811115612c7a57612c79614870565b5b826009811115612c8d57612c8c614870565b5b03612d6a57600081600060028110612ca857612ca76149af565b5b602002015103612d0d57816009811115612cc557612cc4614870565b5b600080858152602001908152602001600020600d0160009054906101000a900460ff166009811115612cfa57612cf9614870565b5b14612d0857612d076149de565b5b612d65565b60066009811115612d2157612d20614870565b5b600080858152602001908152602001600020600d0160009054906101000a900460ff166009811115612d5657612d55614870565b5b14612d6457612d636149de565b5b5b612e7f565b60076009811115612d7e57612d7d614870565b5b826009811115612d9157612d90614870565b5b03612e6e57600081600060028110612dac57612dab6149af565b5b602002015103612e1157816009811115612dc957612dc8614870565b5b600080858152602001908152602001600020600d0160009054906101000a900460ff166009811115612dfe57612dfd614870565b5b14612e0c57612e0b6149de565b5b612e69565b60056009811115612e2557612e24614870565b5b600080858152602001908152602001600020600d0160009054906101000a900460ff166009811115612e5a57612e59614870565b5b14612e6857612e676149de565b5b5b612e7e565b6000612e7d57612e7c6149de565b5b5b5b505b6000612e8c87613e42565b905060046009811115612ea257612ea1614870565b5b600080898152602001908152602001600020600d0160009054906101000a900460ff166009811115612ed757612ed6614870565b5b14612f1e576007600080898152602001908152602001600020600d0160006101000a81548160ff02191690836009811115612f1557612f14614870565b5b02179055612f5c565b6005600080898152602001908152602001600020600d0160006101000a81548160ff02191690836009811115612f5757612f56614870565b5b021790555b5060008088815260200190815260200160002060010181600060028110612f8657612f856149af565b5b602002015160028110612f9c57612f9b6149af565b5b600602016003016002016000815480929190612fb790614b66565b9190505550600080600089815260200190815260200160002060010182600060028110612fe757612fe66149af565b5b602002015160028110612ffd57612ffc6149af565b5b60060201600301600201540315613048577fdba0500edc5d1049fa27c54a56e9f0313f9a962ae79b418ea0cfdfb556593286878760405161303f929190614b8f565b60405180910390a15b50505050505050565b6000819050919050565b600081036131c057601c5490505b601b5481116131b8576001151560008083815260200190815260200160002060000160009054906101000a900460ff1615151480156130ee5750600060098111156130b7576130b6614870565b5b600080838152602001908152602001600020600d0160009054906101000a900460ff1660098111156130ec576130eb614870565b5b145b801561317557503373ffffffffffffffffffffffffffffffffffffffff16600080838152602001908152602001600020600101600060028110613134576131336149af565b5b6006020160000160029054906101000a900473ffffffffffffffffffffffffffffffffffffffff1673ffffffffffffffffffffffffffffffffffffffff1614155b80156131a1575060008082815260200190815260200160002060100160019054906101000a900460ff16155b6131b85780806131b090614a65565b915050613069565b80601c819055505b60008082815260200190815260200160002060000160009054906101000a900460ff166131f0576131ef6149de565b5b600060129050338160000160026101000a81548173ffffffffffffffffffffffffffffffffffffffff021916908373ffffffffffffffffffffffffffffffffffffffff16021790555060018160000160006101000a81548160ff02191690831515021790555060008160000160016101000a81548160ff0219169083151502179055508060008084815260200190815260200160002060010160016002811061329c5761329b6149af565b5b600602016000820160009054906101000a900460ff168160000160006101000a81548160ff0219169083151502179055506000820160019054906101000a900460ff168160000160016101000a81548160ff0219169083151502179055506000820160029054906101000a900473ffffffffffffffffffffffffffffffffffffffff168160000160026101000a81548173ffffffffffffffffffffffffffffffffffffffff021916908373ffffffffffffffffffffffffffffffffffffffff160217905550600182015481600101556002820154816002015560038201816003016000820160009054906101000a900460ff168160000160006101000a81548160ff021916908315150217905550600182015481600101556002820154816002015550509050506001600080848152602001908152602001600020600d0160006101000a81548160ff021916908360098111156133fc576133fb614870565b5b02179055507fdf72bd9cb04731c1dfa0832a380e56504fda45508a7305083a9be0f343e934218260008085815260200190815260200160002060010160006002811061344b5761344a6149af565b5b6006020160000160029054906101000a900473ffffffffffffffffffffffffffffffffffffffff163360405161348393929190614bb8565b60405180910390a15050565b8160008082815260200190815260200160002060000160009054906101000a900460ff166134c0576134bf6149de565b5b823373ffffffffffffffffffffffffffffffffffffffff16600080838152602001908152602001600020600101600060028110613500576134ff6149af565b5b6006020160000160029054906101000a900473ffffffffffffffffffffffffffffffffffffffff1673ffffffffffffffffffffffffffffffffffffffff1614806135c457503373ffffffffffffffffffffffffffffffffffffffff16600080838152602001908152602001600020600101600160028110613584576135836149af565b5b6006020160000160029054906101000a900473ffffffffffffffffffffffffffffffffffffffff1673ffffffffffffffffffffffffffffffffffffffff16145b6135d1576135d06149de565b5b836001600460098111156135e8576135e7614870565b5b8160098111156135fb576135fa614870565b5b14158061362d57506006600981111561361757613616614870565b5b81600981111561362a57613629614870565b5b14155b8061365d57506007600981111561364757613646614870565b5b81600981111561365a57613659614870565b5b14155b8061368d57506005600981111561367757613676614870565b5b81600981111561368a57613689614870565b5b14155b156136ed578060098111156136a5576136a4614870565b5b600080848152602001908152602001600020600d0160009054906101000a900460ff1660098111156136da576136d9614870565b5b146136e8576136e76149de565b5b613915565b60006136f883613e42565b90506004600981111561370e5761370d614870565b5b82600981111561372157613720614870565b5b036137fe5760008160006002811061373c5761373b6149af565b5b6020020151036137a15781600981111561375957613758614870565b5b600080858152602001908152602001600020600d0160009054906101000a900460ff16600981111561378e5761378d614870565b5b1461379c5761379b6149de565b5b6137f9565b600660098111156137b5576137b4614870565b5b600080858152602001908152602001600020600d0160009054906101000a900460ff1660098111156137ea576137e9614870565b5b146137f8576137f76149de565b5b5b613913565b6007600981111561381257613811614870565b5b82600981111561382557613824614870565b5b03613902576000816000600281106138405761383f6149af565b5b6020020151036138a55781600981111561385d5761385c614870565b5b600080858152602001908152602001600020600d0160009054906101000a900460ff16600981111561389257613891614870565b5b146138a05761389f6149de565b5b6138fd565b600560098111156138b9576138b8614870565b5b600080858152602001908152602001600020600d0160009054906101000a900460ff1660098111156138ee576138ed614870565b5b146138fc576138fb6149de565b5b5b613912565b6000613911576139106149de565b5b5b5b505b6000806000888152602001908152602001600020604051806101200160405290816000820160009054906101000a900460ff161515151581526020016000820160019054906101000a900460ff1615151515815260200160018201600280602002604051908101604052809291906000905b82821015613a92578382600602016040518060c00160405290816000820160009054906101000a900460ff161515151581526020016000820160019054906101000a900460ff161515151581526020016000820160029054906101000a900473ffffffffffffffffffffffffffffffffffffffff1673ffffffffffffffffffffffffffffffffffffffff1673ffffffffffffffffffffffffffffffffffffffff1681526020016001820154815260200160028201548152602001600382016040518060600160405290816000820160009054906101000a900460ff16151515158152602001600182015481526020016002820154815250508152505081526020019060010190613987565b505050508152602001600d820160009054906101000a900460ff166009811115613abf57613abe614870565b5b6009811115613ad157613ad0614870565b5b8152602001600e8201548152602001600f82015481526020016010820160009054906101000a900460ff161515151581526020016010820160019054906101000a900460ff161515151581526020016010820160029054906101000a900473ffffffffffffffffffffffffffffffffffffffff1673ffffffffffffffffffffffffffffffffffffffff1673ffffffffffffffffffffffffffffffffffffffff168152505090506000808260400151600060028110613b9257613b916149af565b5b60200201516040015173ffffffffffffffffffffffffffffffffffffffff163373ffffffffffffffffffffffffffffffffffffffff1603613bda576001915060009050613be3565b60009150600190505b600083604001518360028110613bfc57613bfb6149af565b5b6020020151606001519050886000808c81526020019081526020016000206001018360028110613c2f57613c2e6149af565b5b600602016001018190555060008114158015613c4a57508881145b15613d2957886000808c8152602001908152602001600020600e018190555060026000808c8152602001908152602001600020600d0160006101000a81548160ff02191690836009811115613ca257613ca1614870565b5b02179055507fa63491c3e48c84a30c1a58128201bca4fd87bb84850cda339020ce19051e5a908a8560400151600060028110613ce157613ce06149af565b5b6020020151604001518660400151600160028110613d0257613d016149af565b5b6020020151604001518c604051613d1c9493929190614bef565b60405180910390a1613d86565b7f4adf94e8b5302c48b3df6533aa17748538d68a74af46f0a894839b61fbf3f1bf8a3386604001518660028110613d6357613d626149af565b5b6020020151604001518c604051613d7d9493929190614bef565b60405180910390a15b50505050505050505050565b600080600083815260200190815260200160002060000160009054906101000a900460ff168015613dfc5750600080838152602001908152602001600020600101600060028110613de657613de56149af565b5b6006020160000160009054906101000a900460ff165b15613e3857600080838152602001908152602001600020600101600060028110613e2957613e286149af565b5b60060201600101549050613e3d565b600090505b919050565b613e4a61433d565b613e5261433d565b600080848152602001908152602001600020600101600060028110613e7a57613e796149af565b5b6006020160000160029054906101000a900473ffffffffffffffffffffffffffffffffffffffff1673ffffffffffffffffffffffffffffffffffffffff163373ffffffffffffffffffffffffffffffffffffffff1603613f1757600081600060028110613eea57613ee96149af565b5b602002018181525050600181600160028110613f0957613f086149af565b5b602002018181525050613f56565b600181600060028110613f2d57613f2c6149af565b5b602002018181525050600081600160028110613f4c57613f4b6149af565b5b6020020181815250505b80915050919050565b600082826000808381526020019081526020016000206001018160028110613f8a57613f896149af565b5b6006020160000160009054906101000a900460ff16613fac57613fab6149de565b5b6000808381526020019081526020016000205060028110613fd057613fcf6149de565b5b8460008082815260200190815260200160002060000160009054906101000a900460ff16614001576140006149de565b5b6000808781526020019081526020016000206001018560028110614028576140276149af565b5b6006020160020154935050505092915050565b600082826000808381526020019081526020016000206001018160028110614066576140656149af565b5b6006020160000160009054906101000a900460ff16614088576140876149de565b5b60008083815260200190815260200160002050600281106140ac576140ab6149de565b5b8460008082815260200190815260200160002060000160009054906101000a900460ff166140dd576140dc6149de565b5b6000808781526020019081526020016000206001018560028110614104576141036149af565b5b6006020160030160000160009054906101000a900460ff16935050505092915050565b600082614135868685614140565b149050949350505050565b60008082905060005b8585905081101561418c576141778287878481811061416b5761416a6149af565b5b90506020020135614198565b9150808061418490614a65565b915050614149565b50809150509392505050565b60008183106141b0576141ab82846141c3565b6141bb565b6141ba83836141c3565b5b905092915050565b600082600052816020526040600020905092915050565b826002600602810192821561432c579160060282015b8281111561432b5782826000820160009054906101000a900460ff168160000160006101000a81548160ff0219169083151502179055506000820160019054906101000a900460ff168160000160016101000a81548160ff0219169083151502179055506000820160029054906101000a900473ffffffffffffffffffffffffffffffffffffffff168160000160026101000a81548173ffffffffffffffffffffffffffffffffffffffff021916908373ffffffffffffffffffffffffffffffffffffffff160217905550600182015481600101556002820154816002015560038201816003016000820160009054906101000a900460ff168160000160006101000a81548160ff021916908315150217905550600182015481600101556002820154816002015550505050916006019190600601906141f0565b5b509050614339919061435f565b5090565b6040518060400160405280600290602082028036833780820191505090505090565b5b808211156143fc57600080820160006101000a81549060ff02191690556000820160016101000a81549060ff02191690556000820160026101000a81549073ffffffffffffffffffffffffffffffffffffffff02191690556001820160009055600282016000905560038201600080820160006101000a81549060ff021916905560018201600090556002820160009055505050600601614360565b5090565b600080fd5b600080fd5b6000819050919050565b61441d8161440a565b811461442857600080fd5b50565b60008135905061443a81614414565b92915050565b60006020828403121561445657614455614400565b5b60006144648482850161442b565b91505092915050565b60008115159050919050565b6144828161446d565b82525050565b600060208201905061449d6000830184614479565b92915050565b600080fd5b600080fd5b600080fd5b60008083601f8401126144c8576144c76144a3565b5b8235905067ffffffffffffffff8111156144e5576144e46144a8565b5b602083019150836020820283011115614501576145006144ad565b5b9250929050565b6000806020838503121561451f5761451e614400565b5b600083013567ffffffffffffffff81111561453d5761453c614405565b5b614549858286016144b2565b92509250509250929050565b600082825260208201905092915050565b600080fd5b82818337505050565b60006145808385614555565b93507f07ffffffffffffffffffffffffffffffffffffffffffffffffffffffffffffff8311156145b3576145b2614566565b5b6020830292506145c483858461456b565b82840190509392505050565b600060208201905081810360008301526145eb818486614574565b90509392505050565b6000819050919050565b614607816145f4565b811461461257600080fd5b50565b600081359050614624816145fe565b92915050565b6000806040838503121561464157614640614400565b5b600061464f8582860161442b565b925050602061466085828601614615565b9150509250929050565b600073ffffffffffffffffffffffffffffffffffffffff82169050919050565b60006146958261466a565b9050919050565b6146a58161468a565b82525050565b60006020820190506146c0600083018461469c565b92915050565b6146cf8161446d565b81146146da57600080fd5b50565b6000813590506146ec816146c6565b92915050565b60006020828403121561470857614707614400565b5b6000614716848285016146dd565b91505092915050565b614728816145f4565b82525050565b6000602082019050614743600083018461471f565b92915050565b600060ff82169050919050565b61475f81614749565b82525050565b600060208201905061477a6000830184614756565b92915050565b6147898161440a565b82525050565b60006020820190506147a46000830184614780565b92915050565b6147b381614749565b81146147be57600080fd5b50565b6000813590506147d0816147aa565b92915050565b60008060008060008060a087890312156147f3576147f2614400565b5b600061480189828a0161442b565b965050602061481289828a016147c1565b955050604061482389828a016146dd565b945050606061483489828a01614615565b935050608087013567ffffffffffffffff81111561485557614854614405565b5b61486189828a016144b2565b92509250509295509295509295565b7f4e487b7100000000000000000000000000000000000000000000000000000000600052602160045260246000fd5b600a81106148b0576148af614870565b5b50565b60008190506148c18261489f565b919050565b60006148d1826148b3565b9050919050565b6148e1816148c6565b82525050565b60006020820190506148fc60008301846148d8565b92915050565b6000806040838503121561491957614918614400565b5b60006149278582860161442b565b9250506020614938858286016147c1565b9150509250929050565b60006020828403121561495857614957614400565b5b600061496684828501614615565b91505092915050565b6000806040838503121561498657614985614400565b5b60006149948582860161442b565b92505060206149a58582860161442b565b9150509250929050565b7f4e487b7100000000000000000000000000000000000000000000000000000000600052603260045260246000fd5b7f4e487b7100000000000000000000000000000000000000000000000000000000600052600160045260246000fd5b6000604082019050614a226000830185614780565b614a2f602083018461469c565b9392505050565b7f4e487b7100000000000000000000000000000000000000000000000000000000600052601160045260246000fd5b6000614a708261440a565b91507fffffffffffffffffffffffffffffffffffffffffffffffffffffffffffffffff8203614aa257614aa1614a36565b5b600182019050919050565b6000606082019050614ac2600083018661469c565b614acf602083018561469c565b614adc6040830184614780565b949350505050565b6000614aef82614749565b9150614afa83614749565b9250828202614b0881614749565b9150808214614b1a57614b19614a36565b5b5092915050565b6000608082019050614b366000830187614780565b614b436020830186614756565b614b506040830185614479565b614b5d6060830184614479565b95945050505050565b6000614b718261440a565b915060008203614b8457614b83614a36565b5b600182039050919050565b6000604082019050614ba46000830185614780565b614bb16020830184614756565b9392505050565b6000606082019050614bcd6000830186614780565b614bda602083018561469c565b614be7604083018461469c565b949350505050565b6000608082019050614c046000830187614780565b614c11602083018661469c565b614c1e604083018561469c565b614c2b6060830184614780565b9594505050505056fea26469706673582212208cab68d40a8594ddd998a904128f5e0402f7cbd2f160524771a1d40f5dd3c33164736f6c63430008130033",
  "immutableReferences": {},
  "source": "// SPDX-License-Identifier: MIT\r\npragma solidity >=0.4.22 <0.9.0;\r\n\r\ncontract Battleships {\r\n    uint8 public constant NUMBER_OF_SHIP_SQUARES = 20;\r\n    uint8 public constant BOARD_SIZE = 8;\r\n    enum GameStates{\r\n        WAITING, \r\n        SETTING_STAKE, \r\n        ACCEPTING_PAYMENT,\r\n        PLACING_SHIPS, \r\n        P0_FIRING,\r\n        P1_CHECKING,\r\n        P1_FIRING,\r\n        P0_CHECKING,\r\n        DONE,\r\n        NONE\r\n    }\r\n\r\n    // In this struct we save the view a player has of its opponent's board\r\n    struct Board{\r\n        bool valid;\r\n        // N*N matrix of bits to store hits\r\n        // bool[BOARD_SIZE][BOARD_SIZE] shots;\r\n        // # of enemy pieces still left on the board\r\n        // goes down by one each time we receive one 'you hit' event\r\n        uint totalPieces;\r\n        // 8*8, we use this to avoid cheating\r\n        uint totalShots;\r\n    }\r\n\r\n    struct Player{\r\n        bool valid;\r\n        bool hasPaidStake;\r\n        address playerAddress;\r\n        uint proposedStake;\r\n        bytes32 boardTreeRoot;\r\n        Board shots_board;\r\n    }\r\n\r\n    struct Game{\r\n        bool valid;\r\n        bool canPay;\r\n        // host is always player[0]\r\n        Player[2] players;\r\n        GameStates state;\r\n        uint decidedStake;\r\n        // used for foul accusation, a foul is triggered after 5 blocks\r\n        uint blockNumber;\r\n        // player 0 or player 1\r\n        // might turn it into address, we will see\r\n        bool accuser;\r\n        // whether or not this game should be in the public pool of joinable games\r\n        bool privateGame;\r\n        address winner;\r\n    }\r\n\r\n    mapping(uint => Game) private openGames;\r\n\r\n    Game private gameTrampoline;\r\n    Player private playerTrampoline;\r\n    Board private trampolineBoard;\r\n    // used in generating UUIDs for the games\r\n    // for now we are gonna use this as-is\r\n    // start at 1 as 0 is used for a non-existing game\r\n    // TODO: deal with it overflowing\r\n    uint private gameCounter;\r\n    uint private lastOpenGame;\r\n\r\n    constructor() {\r\n        gameCounter = 1;\r\n        lastOpenGame = 1;\r\n    }\r\n\r\n    event ShareID(address _from, address _to, uint _gameID);\r\n    event GameStart(uint _gameID, address _host, address _challenger);\r\n    event SuggestedStake(uint _gameID, address _from, address _to, uint _stakeValue);\r\n    event GamePayable(uint _gameID, address _host, address _challenger, uint _stakeValue);\r\n    event StakePaid(uint _gameID, address _whoPaid);\r\n    event AcceptingBoards(uint _gameID);\r\n    event BoardAcknowledgeEvent(uint _gameID, address _player);\r\n    event PlayerZeroTurn(uint _gameID);\r\n    event ShotsFired(uint _gameID, uint8 _location);\r\n    event ShotsChecked(uint _gameID, uint8 _location, bool _claim, bool _validity);\r\n    event Victory(uint _gameID, address _winner);\r\n\r\n    error InvalidGameID();\r\n    error NotInGame();\r\n    error StakeAlreadyDeposited();\r\n    error WrongStakeAmount(uint expectedStakeValue);\r\n\r\n    modifier gameExists(uint gameID){\r\n        assert(openGames[gameID].valid);\r\n        _;\r\n    }\r\n\r\n    modifier isInGame(uint gameID){\r\n        assert((openGames[gameID].players[0].playerAddress == msg.sender) || (openGames[gameID].players[1].playerAddress == msg.sender));\r\n        _;\r\n    }\r\n\r\n    modifier assertState(uint gameID, GameStates _state){\r\n        if(_state != GameStates.P0_FIRING || _state != GameStates.P1_FIRING || _state != GameStates.P0_CHECKING || _state != GameStates.P1_CHECKING)\r\n            assert(openGames[gameID].state == _state);\r\n        else{\r\n            // We check firing states with P0_FIRING and checking states with P0_CHECKING, for both players\r\n            uint[2] memory indexes = getIndexSender(gameID);\r\n            if(_state == GameStates.P0_FIRING){\r\n                if(indexes[0] == 0)\r\n                    assert(openGames[gameID].state == _state);\r\n                else\r\n                    assert(openGames[gameID].state == GameStates.P1_FIRING);\r\n            }\r\n            else if(_state == GameStates.P0_CHECKING){\r\n                if(indexes[0] == 0)\r\n                    assert(openGames[gameID].state == _state);\r\n                else\r\n                    assert(openGames[gameID].state == GameStates.P1_CHECKING);\r\n            }\r\n            else assert(false);\r\n        }\r\n        _;\r\n    }\r\n\r\n    modifier playerInRange(uint gameID, uint index){\r\n        assert(openGames[gameID].players[index].valid);\r\n        assert(index < openGames[gameID].players.length);\r\n        _;\r\n    }\r\n\r\n    modifier shotOnBoard(uint8 location){\r\n        assert(location < (BOARD_SIZE*BOARD_SIZE));\r\n        _;\r\n    }\r\n\r\n    function getIndexSender (uint gameID) view private returns(uint[2] memory) {\r\n        // indexes[0]: msg.sender index\r\n        // indexes[1]: msg.sender opponent's index\r\n        uint[2] memory indexes;\r\n        if(msg.sender == openGames[gameID].players[0].playerAddress){\r\n            indexes[0] = 0;\r\n            indexes[1] = 1;\r\n        } else {\r\n            indexes[0] = 1;\r\n            indexes[1] = 0;\r\n        }\r\n        return indexes;\r\n    }\r\n\r\n    // Code from OpenZeppelin's project\r\n    // https://github.com/OpenZeppelin\r\n    function verifyCalldata(\r\n    bytes32[] calldata proof,\r\n    bytes32 root,\r\n    bytes32 leaf\r\n    ) internal pure returns (bool) {\r\n        return processProofCalldata(proof, leaf) == root;\r\n    }\r\n\r\n    function processProofCalldata(\r\n        bytes32[] calldata proof,\r\n        bytes32 leaf\r\n    ) internal pure returns (bytes32) {\r\n        bytes32 computedHash = leaf;\r\n        for (uint256 i = 0; i < proof.length; i++) {\r\n            computedHash = _hashPair(computedHash, proof[i]);\r\n        }\r\n        return computedHash;\r\n    }\r\n\r\n    function _hashPair(bytes32 a, bytes32 b)\r\n        private\r\n        pure\r\n        returns(bytes32)\r\n    {\r\n        return a < b ? _efficientHash(a, b) : _efficientHash(b, a);\r\n    }\r\n\r\n    function _efficientHash(bytes32 a, bytes32 b)\r\n        private\r\n        pure\r\n        returns (bytes32 value)\r\n    {\r\n        assembly {\r\n            mstore(0x00, a)\r\n            mstore(0x20, b)\r\n            value := keccak256(0x00, 0x40)\r\n        }\r\n    }\r\n    // end of OpenZeppelin code\r\n\r\n    // create a Game value, add it to openGames, populate the Player[0]\r\n    function newGame(bool isPrivate) public {\r\n        uint gameID = gameCounter;\r\n        gameCounter++;\r\n        Game storage game = gameTrampoline;\r\n        Player storage host = playerTrampoline;\r\n        host.playerAddress = msg.sender;\r\n        host.valid = true;\r\n        host.hasPaidStake = false;\r\n        game.players[0] = host;\r\n        game.state = GameStates.WAITING;\r\n        game.privateGame = isPrivate;\r\n        game.valid = true;\r\n        game.canPay = false;\r\n        openGames[gameID] = game;\r\n        emit ShareID(address(this), msg.sender, gameID);\r\n        return;\r\n    }\r\n    \r\n    function joinGame(uint gameID) public {\r\n        if(gameID == 0){\r\n            // pick an unassigned game in sequential order\r\n            gameID = lastOpenGame;\r\n            while(gameID <= gameCounter){\r\n                // ignore games with sender as host (you can still join your own games directly if you're that lonely)\r\n                if(openGames[gameID].valid == true && \r\n                    openGames[gameID].state == GameStates.WAITING && \r\n                    openGames[gameID].players[0].playerAddress != msg.sender && \r\n                    !openGames[gameID].privateGame){\r\n                    break;\r\n                }\r\n                gameID++;\r\n            }\r\n            // update the lastOpenGame counter no matter what\r\n            lastOpenGame = gameID;\r\n        }\r\n        // if the game wasn't valid, throw an error\r\n        assert(openGames[gameID].valid);\r\n        // set msg sender as this game's player 2\r\n        Player storage challenger = playerTrampoline;\r\n        challenger.playerAddress = msg.sender;\r\n        challenger.valid = true;\r\n        challenger.hasPaidStake = false;\r\n        openGames[gameID].players[1] = challenger;\r\n        // update this game's status\r\n        openGames[gameID].state = GameStates.SETTING_STAKE;\r\n        // alert the players\r\n        emit GameStart(gameID, openGames[gameID].players[0].playerAddress, msg.sender);\r\n        return;\r\n    }\r\n\r\n    function checkGameState(uint gameID) public view returns (GameStates) {\r\n        if (openGames[gameID].valid){\r\n            return openGames[gameID].state;\r\n        }\r\n        else \r\n            return(GameStates.NONE);\r\n    }\r\n\r\n    function checkGamePlayerOne(uint gameID) public view returns (address) {\r\n        if (openGames[gameID].valid && openGames[gameID].players[0].valid){\r\n            return openGames[gameID].players[0].playerAddress;\r\n        }\r\n        else \r\n            return(address(0));\r\n    }\r\n\r\n    function checkGamePlayerTwo(uint gameID) public view returns (address) {\r\n        if (openGames[gameID].valid && openGames[gameID].players[1].valid){\r\n            return openGames[gameID].players[1].playerAddress;\r\n        }\r\n        else \r\n            return(address(0));\r\n    }\r\n\r\n    // Function to propose and agree upon a stake between players\r\n    function proposeStake(uint gameID, uint stakeValue) gameExists(gameID) isInGame(gameID) assertState(gameID, GameStates.SETTING_STAKE) public{\r\n        Game memory game = openGames[gameID];\r\n        // Check whether or not this player's opponent has already proposed a stake\r\n        uint opponentIndex;\r\n        uint stakerIndex;\r\n        if(msg.sender == game.players[0].playerAddress){\r\n            opponentIndex = 1;\r\n            stakerIndex = 0;\r\n        } else {\r\n            opponentIndex = 0;\r\n            stakerIndex = 1;\r\n        }\r\n        uint opponentStake = game.players[opponentIndex].proposedStake;\r\n        // set this player's proposed stake to their message\r\n        openGames[gameID].players[stakerIndex].proposedStake = stakeValue;\r\n        // if the opponent has proposed a stake we check whether or not it equals the one proposed by us\r\n        // 0 is not a valid stake\r\n        if(opponentStake != 0 && opponentStake == stakeValue){\r\n            openGames[gameID].decidedStake = stakeValue;\r\n            openGames[gameID].state = GameStates.ACCEPTING_PAYMENT;\r\n            emit GamePayable(gameID, game.players[0].playerAddress, game.players[1].playerAddress, stakeValue);\r\n        }else{\r\n            emit SuggestedStake(gameID, msg.sender, game.players[opponentIndex].playerAddress, stakeValue);\r\n        }\r\n        return;\r\n    }\r\n\r\n    function checkStakePlayerOne(uint gameID) public view returns (uint) {\r\n        if (openGames[gameID].valid && openGames[gameID].players[0].valid){\r\n            return openGames[gameID].players[0].proposedStake;\r\n        }\r\n        else \r\n            return(0);\r\n    }\r\n\r\n    function checkStakePlayerTwo(uint gameID) public view returns (uint) {\r\n        if (openGames[gameID].valid && openGames[gameID].players[1].valid){\r\n            return openGames[gameID].players[1].proposedStake;\r\n        }\r\n        else \r\n            return(0);\r\n    }\r\n\r\n    function checkStakeGame(uint gameID) public view returns (uint) {\r\n        if (openGames[gameID].valid && openGames[gameID].players[0].valid && openGames[gameID].players[1].valid)\r\n            return openGames[gameID].decidedStake;\r\n        else\r\n            return(0);\r\n    }\r\n    \r\n    function payStake(uint gameID) gameExists(gameID) isInGame(gameID) assertState(gameID, GameStates.ACCEPTING_PAYMENT) external payable {\r\n        if((msg.sender == openGames[gameID].players[0].playerAddress && openGames[gameID].players[0].hasPaidStake) ||\r\n            (msg.sender == openGames[gameID].players[1].playerAddress && openGames[gameID].players[1].hasPaidStake))\r\n            revert StakeAlreadyDeposited();\r\n        // only accept payments for the exact amount owed\r\n        if(msg.value != openGames[gameID].decidedStake)\r\n            revert WrongStakeAmount(openGames[gameID].decidedStake);\r\n        // now we check who the sender is\r\n        uint senderIndex;\r\n        uint challengerIndex;\r\n        if(msg.sender == openGames[gameID].players[0].playerAddress){\r\n            senderIndex = 0;\r\n            challengerIndex = 1;\r\n        }else{\r\n            senderIndex = 1;\r\n            challengerIndex = 0;\r\n        }\r\n        openGames[gameID].players[senderIndex].hasPaidStake = true;\r\n        emit StakePaid(gameID, msg.sender);\r\n        // if both players have paid the owed stake the game can move on to its next state\r\n        if(openGames[gameID].players[challengerIndex].hasPaidStake){\r\n            openGames[gameID].state = GameStates.PLACING_SHIPS;\r\n            emit AcceptingBoards(gameID);\r\n        }\r\n    }\r\n\r\n    function checkPaymentPlayerOne(uint gameID) public view returns (bool) {\r\n        if (openGames[gameID].valid && openGames[gameID].players[0].valid){\r\n            return openGames[gameID].players[0].hasPaidStake;\r\n        }\r\n        else \r\n            return(false);\r\n    }\r\n\r\n    function checkPaymentPlayerTwo(uint gameID) public view returns (bool) {\r\n        if (openGames[gameID].valid && openGames[gameID].players[1].valid){\r\n            return openGames[gameID].players[1].hasPaidStake;\r\n        }\r\n        else \r\n            return(false);\r\n    }\r\n\r\n    function checkGamePayable(uint gameID) public view returns (bool) {\r\n        if (openGames[gameID].valid && openGames[gameID].players[0].valid && openGames[gameID].players[1].valid)\r\n            return openGames[gameID].canPay;\r\n        else\r\n            return(false);\r\n    }\r\n    \r\n    function PlaceShips(uint gameID, bytes32 boardRoot) gameExists(gameID) isInGame(gameID) assertState(gameID, GameStates.PLACING_SHIPS) public{\r\n        uint index;\r\n        uint oppIdx;\r\n        msg.sender == openGames[gameID].players[0].playerAddress ? index = 0 : index = 1;\r\n        msg.sender == openGames[gameID].players[0].playerAddress ? oppIdx = 1 : oppIdx = 0;\r\n        require(openGames[gameID].players[index].boardTreeRoot == 0x0);\r\n        // Instantiate a new shots board\r\n        // Instantiate the Board struct itself and assign it to a player\r\n        Board storage playerBoard = trampolineBoard;\r\n        trampolineBoard.valid = true;\r\n        trampolineBoard.totalPieces = NUMBER_OF_SHIP_SQUARES;\r\n        trampolineBoard.totalShots = BOARD_SIZE;\r\n        openGames[gameID].players[index].shots_board = playerBoard;\r\n        // save the received boardRoot, finally\r\n        openGames[gameID].players[index].boardTreeRoot = boardRoot;\r\n        emit BoardAcknowledgeEvent(gameID, msg.sender);\r\n        if(openGames[gameID].players[oppIdx].boardTreeRoot != 0x0){\r\n            openGames[gameID].state = GameStates.P0_FIRING;\r\n            emit PlayerZeroTurn(gameID);\r\n        }\r\n    }\r\n\r\n    function getPlayerBoardRoot(uint gameID, uint index) playerInRange(gameID, index) gameExists(gameID) private view returns(bytes32){\r\n        return openGames[gameID].players[index].boardTreeRoot;\r\n    }\r\n\r\n    function getPlayerOneBoardRoot(uint gameID) public view returns (bytes32){\r\n        return getPlayerBoardRoot(gameID, 0);\r\n    }\r\n\r\n    function getPlayerTwoBoardRoot(uint gameID) public view returns (bytes32){\r\n        return getPlayerBoardRoot(gameID, 1);\r\n    }\r\n\r\n    // We should never have any use for these following functions\r\n    // Marking them as DEPRECATED now\r\n    // we will see if they survive the cutting room floor\r\n    \r\n    // DEPRECATED\r\n    function getPlayerShotsBoard(uint gameID, uint index) playerInRange(gameID, index) gameExists(gameID) private view returns(bool){\r\n        return openGames[gameID].players[index].shots_board.valid;\r\n    }\r\n\r\n    // DEPRECATED\r\n    function getPlayerOneShotsBoard(uint gameID) public view returns (bool){\r\n        return getPlayerShotsBoard(gameID, 0);\r\n    }\r\n\r\n    // DEPRECATED\r\n    function getPlayerTwoShotsBoard(uint gameID) public view returns (bool){\r\n        return getPlayerShotsBoard(gameID, 1);\r\n    }\r\n\r\n    // TODO: Write Tests for everything below this line\r\n    // for info on what location is see \"Implementation of the user-side game board\" in README.md\r\n    function FireTorpedo(uint gameID, uint8 location) gameExists(gameID) isInGame(gameID) assertState(gameID, GameStates.P0_FIRING) public {\r\n        uint[2] memory indexes = getIndexSender(gameID);\r\n        // Rotate into correct next state\r\n        openGames[gameID].state == GameStates.P0_FIRING ? openGames[gameID].state = GameStates.P1_CHECKING : openGames[gameID].state = GameStates.P0_CHECKING;\r\n        // Now for some game logic\r\n        // whatever happens, we lower the totalShots counter of our system by one\r\n        openGames[gameID].players[indexes[0]].shots_board.totalShots--;\r\n        // Then we evaluate whether or not this is zero. If it is, This party wins automatically.\r\n        // We do this here to avoid opponents stalling out on the reply for 5 blocks on what is a foregone conclusion\r\n        if (openGames[gameID].players[indexes[0]].shots_board.totalShots == 0){\r\n            // VerifyWinner(gameID, index, oppIdx);\r\n        } else {\r\n            emit ShotsFired(gameID, location);\r\n        }\r\n    }\r\n    \r\n    function ConfirmShot(uint gameID, uint8 location, bool isHit, bytes32 leaf, bytes32[] calldata proof) gameExists(gameID) isInGame(gameID) shotOnBoard(location) assertState(gameID, GameStates.P0_CHECKING) public {\r\n        uint[2] memory indexes = getIndexSender(gameID);\r\n        // This very time consuming copy is needed because apparently using gameID directly causes a stack-too-deep issue.\r\n        Game memory tmpGame = openGames[gameID];\r\n        // execute the proof test\r\n        if(verifyCalldata(proof, tmpGame.players[indexes[0]].boardTreeRoot, leaf)){\r\n            // we could verify this user's proof\r\n            // rotate state\r\n            openGames[gameID].state == GameStates.P1_CHECKING ? openGames[gameID].state = GameStates.P1_FIRING : openGames[gameID].state = GameStates.P0_FIRING;\r\n            emit ShotsChecked(gameID, location, isHit, true);\r\n        } else {\r\n            // else we mark him as foul'd but do NOT rotate the state.\r\n            // TODO IMPLEMENT FOUL MECHANICS\r\n            emit ShotsChecked(gameID, location, isHit, false);\r\n        }\r\n    }\r\n    \r\n    function EchoBytes(bytes32 proof) pure public returns (bytes32) {\r\n        return proof;\r\n    }\r\n\r\n    function EchoProof(bytes32[] calldata proof) pure public returns (bytes32[] calldata) {\r\n        return proof;\r\n    }\r\n\r\n    /*\r\n    function VerifyWinner(uint gameID, uint winnerIndex, uint loserIndex) private {\r\n        address verifiedWinner;\r\n        // TODO: verify the merkle board for the winner first of all\r\n        // this requires asking the winner for their board\r\n        // if that fails, verify it for the loser and pay THEM out if it succeeds\r\n\r\n        // finally set the contract as payable\r\n        openGames[gameID].canPay = true;\r\n        openGames[gameID].winner = verifiedWinner;\r\n        emit Victory(gameID, msg.sender);\r\n    }\r\n    */\r\n}",
  "sourcePath": "F:\\Documents\\Code\\School\\P2PBC\\Battleships\\contracts\\Battleships.sol",
  "compiler": {
    "name": "solc",
    "version": "0.8.19+commit.7dd6d404.Emscripten.clang"
  },
  "schemaVersion": "3.4.13",
  "updatedAt": "2023-05-23T17:40:25.897Z",
  "networkType": "ethereum",
  "devdoc": {
    "kind": "dev",
    "methods": {},
    "version": 1
  },
  "userdoc": {
    "kind": "user",
    "methods": {},
    "version": 1
  }
}