{
  "contractName": "Battleships",
  "abi": [
    {
      "inputs": [],
      "stateMutability": "nonpayable",
      "type": "constructor"
    },
    {
      "inputs": [],
      "name": "InvalidGameID",
      "type": "error"
    },
    {
      "inputs": [],
      "name": "NotInGame",
      "type": "error"
    },
    {
      "inputs": [],
      "name": "StakeAlreadyDeposited",
      "type": "error"
    },
    {
      "inputs": [
        {
          "internalType": "uint256",
          "name": "expectedStakeValue",
          "type": "uint256"
        }
      ],
      "name": "WrongStakeAmount",
      "type": "error"
    },
    {
      "anonymous": false,
      "inputs": [
        {
          "indexed": false,
          "internalType": "uint256",
          "name": "_gameID",
          "type": "uint256"
        }
      ],
      "name": "AcceptingBoards",
      "type": "event"
    },
    {
      "anonymous": false,
      "inputs": [
        {
          "indexed": false,
          "internalType": "uint256",
          "name": "_gameID",
          "type": "uint256"
        },
        {
          "indexed": false,
          "internalType": "address",
          "name": "_host",
          "type": "address"
        },
        {
          "indexed": false,
          "internalType": "address",
          "name": "_challenger",
          "type": "address"
        },
        {
          "indexed": false,
          "internalType": "uint256",
          "name": "_stakeValue",
          "type": "uint256"
        }
      ],
      "name": "GamePayable",
      "type": "event"
    },
    {
      "anonymous": false,
      "inputs": [
        {
          "indexed": false,
          "internalType": "uint256",
          "name": "_gameID",
          "type": "uint256"
        },
        {
          "indexed": false,
          "internalType": "address",
          "name": "_host",
          "type": "address"
        },
        {
          "indexed": false,
          "internalType": "address",
          "name": "_challenger",
          "type": "address"
        }
      ],
      "name": "GameStart",
      "type": "event"
    },
    {
      "anonymous": false,
      "inputs": [
        {
          "indexed": false,
          "internalType": "uint256",
          "name": "_gameID",
          "type": "uint256"
        }
      ],
      "name": "PlayerZeroRound",
      "type": "event"
    },
    {
      "anonymous": false,
      "inputs": [
        {
          "indexed": false,
          "internalType": "address",
          "name": "_from",
          "type": "address"
        },
        {
          "indexed": false,
          "internalType": "address",
          "name": "_to",
          "type": "address"
        },
        {
          "indexed": false,
          "internalType": "uint256",
          "name": "_gameID",
          "type": "uint256"
        }
      ],
      "name": "ShareID",
      "type": "event"
    },
    {
      "anonymous": false,
      "inputs": [
        {
          "indexed": false,
          "internalType": "uint256",
          "name": "_gameID",
          "type": "uint256"
        },
        {
          "indexed": false,
          "internalType": "uint8",
          "name": "_x",
          "type": "uint8"
        },
        {
          "indexed": false,
          "internalType": "uint8",
          "name": "y",
          "type": "uint8"
        }
      ],
      "name": "ShotsFired",
      "type": "event"
    },
    {
      "anonymous": false,
      "inputs": [
        {
          "indexed": false,
          "internalType": "uint256",
          "name": "_gameID",
          "type": "uint256"
        },
        {
          "indexed": false,
          "internalType": "address",
          "name": "_whoPaid",
          "type": "address"
        }
      ],
      "name": "StakePaid",
      "type": "event"
    },
    {
      "anonymous": false,
      "inputs": [
        {
          "indexed": false,
          "internalType": "uint256",
          "name": "_gameID",
          "type": "uint256"
        },
        {
          "indexed": false,
          "internalType": "address",
          "name": "_from",
          "type": "address"
        },
        {
          "indexed": false,
          "internalType": "address",
          "name": "_to",
          "type": "address"
        },
        {
          "indexed": false,
          "internalType": "uint256",
          "name": "_stakeValue",
          "type": "uint256"
        }
      ],
      "name": "SuggestedStake",
      "type": "event"
    },
    {
      "anonymous": false,
      "inputs": [
        {
          "indexed": false,
          "internalType": "uint256",
          "name": "_gameID",
          "type": "uint256"
        },
        {
          "indexed": false,
          "internalType": "address",
          "name": "_winner",
          "type": "address"
        }
      ],
      "name": "Victory",
      "type": "event"
    },
    {
      "inputs": [],
      "name": "BOARD_SIZE",
      "outputs": [
        {
          "internalType": "uint8",
          "name": "",
          "type": "uint8"
        }
      ],
      "stateMutability": "view",
      "type": "function",
      "constant": true
    },
    {
      "inputs": [],
      "name": "NUMBER_OF_SHIP_SQUARES",
      "outputs": [
        {
          "internalType": "uint8",
          "name": "",
          "type": "uint8"
        }
      ],
      "stateMutability": "view",
      "type": "function",
      "constant": true
    },
    {
      "inputs": [
        {
          "internalType": "bool",
          "name": "isPrivate",
          "type": "bool"
        }
      ],
      "name": "newGame",
      "outputs": [],
      "stateMutability": "nonpayable",
      "type": "function"
    },
    {
      "inputs": [
        {
          "internalType": "uint256",
          "name": "gameID",
          "type": "uint256"
        }
      ],
      "name": "joinGame",
      "outputs": [],
      "stateMutability": "nonpayable",
      "type": "function"
    },
    {
      "inputs": [
        {
          "internalType": "uint256",
          "name": "gameID",
          "type": "uint256"
        }
      ],
      "name": "checkGameState",
      "outputs": [
        {
          "internalType": "enum Battleships.GameStates",
          "name": "",
          "type": "uint8"
        }
      ],
      "stateMutability": "view",
      "type": "function",
      "constant": true
    },
    {
      "inputs": [
        {
          "internalType": "uint256",
          "name": "gameID",
          "type": "uint256"
        }
      ],
      "name": "checkGamePlayerOne",
      "outputs": [
        {
          "internalType": "address",
          "name": "",
          "type": "address"
        }
      ],
      "stateMutability": "view",
      "type": "function",
      "constant": true
    },
    {
      "inputs": [
        {
          "internalType": "uint256",
          "name": "gameID",
          "type": "uint256"
        }
      ],
      "name": "checkGamePlayerTwo",
      "outputs": [
        {
          "internalType": "address",
          "name": "",
          "type": "address"
        }
      ],
      "stateMutability": "view",
      "type": "function",
      "constant": true
    },
    {
      "inputs": [
        {
          "internalType": "uint256",
          "name": "gameID",
          "type": "uint256"
        },
        {
          "internalType": "uint256",
          "name": "stakeValue",
          "type": "uint256"
        }
      ],
      "name": "proposeStake",
      "outputs": [],
      "stateMutability": "nonpayable",
      "type": "function"
    },
    {
      "inputs": [
        {
          "internalType": "uint256",
          "name": "gameID",
          "type": "uint256"
        }
      ],
      "name": "checkStakePlayerOne",
      "outputs": [
        {
          "internalType": "uint256",
          "name": "",
          "type": "uint256"
        }
      ],
      "stateMutability": "view",
      "type": "function",
      "constant": true
    },
    {
      "inputs": [
        {
          "internalType": "uint256",
          "name": "gameID",
          "type": "uint256"
        }
      ],
      "name": "checkStakePlayerTwo",
      "outputs": [
        {
          "internalType": "uint256",
          "name": "",
          "type": "uint256"
        }
      ],
      "stateMutability": "view",
      "type": "function",
      "constant": true
    },
    {
      "inputs": [
        {
          "internalType": "uint256",
          "name": "gameID",
          "type": "uint256"
        }
      ],
      "name": "checkStakeGame",
      "outputs": [
        {
          "internalType": "uint256",
          "name": "",
          "type": "uint256"
        }
      ],
      "stateMutability": "view",
      "type": "function",
      "constant": true
    },
    {
      "inputs": [
        {
          "internalType": "uint256",
          "name": "gameID",
          "type": "uint256"
        }
      ],
      "name": "payStake",
      "outputs": [],
      "stateMutability": "payable",
      "type": "function",
      "payable": true
    },
    {
      "inputs": [
        {
          "internalType": "uint256",
          "name": "gameID",
          "type": "uint256"
        }
      ],
      "name": "checkPaymentPlayerOne",
      "outputs": [
        {
          "internalType": "bool",
          "name": "",
          "type": "bool"
        }
      ],
      "stateMutability": "view",
      "type": "function",
      "constant": true
    },
    {
      "inputs": [
        {
          "internalType": "uint256",
          "name": "gameID",
          "type": "uint256"
        }
      ],
      "name": "checkPaymentPlayerTwo",
      "outputs": [
        {
          "internalType": "bool",
          "name": "",
          "type": "bool"
        }
      ],
      "stateMutability": "view",
      "type": "function",
      "constant": true
    },
    {
      "inputs": [
        {
          "internalType": "uint256",
          "name": "gameID",
          "type": "uint256"
        }
      ],
      "name": "checkGamePayable",
      "outputs": [
        {
          "internalType": "bool",
          "name": "",
          "type": "bool"
        }
      ],
      "stateMutability": "view",
      "type": "function",
      "constant": true
    },
    {
      "inputs": [
        {
          "internalType": "uint256",
          "name": "gameID",
          "type": "uint256"
        },
        {
          "internalType": "bytes32",
          "name": "boardRoot",
          "type": "bytes32"
        }
      ],
      "name": "PlaceShips",
      "outputs": [],
      "stateMutability": "nonpayable",
      "type": "function"
    },
    {
      "inputs": [
        {
          "internalType": "uint256",
          "name": "gameID",
          "type": "uint256"
        },
        {
          "internalType": "uint8",
          "name": "location_x",
          "type": "uint8"
        },
        {
          "internalType": "uint8",
          "name": "location_y",
          "type": "uint8"
        }
      ],
      "name": "FireTorpedo",
      "outputs": [],
      "stateMutability": "nonpayable",
      "type": "function"
    }
  ],
  "bytecode": "0x608060405234801561001057600080fd5b506001604381905550600160448190555061331e806100306000396000f3fe6080604052600436106100fe5760003560e01c80636930aa4d11610095578063d46d077711610064578063d46d077714610370578063dc4a3e95146103ad578063efaa55a0146103d8578063f28ae7dd14610401578063fba523b71461042a576100fe565b80636930aa4d1461028e578063699f5aeb146102b95780639a7e4cea146102f6578063aa3ee91514610333576100fe565b80631de95425116100d15780631de95425146101c25780632b170aac146101ff5780634f0bdb961461022857806354d83c6514610251576100fe565b8063012b61f01461010357806302ecb0e8146101405780630e37dcd01461017d57806316337b8914610199575b600080fd5b34801561010f57600080fd5b5061012a60048036038101906101259190612d6e565b610467565b6040516101379190612db6565b60405180910390f35b34801561014c57600080fd5b5061016760048036038101906101629190612d6e565b61054f565b6040516101749190612db6565b60405180910390f35b61019760048036038101906101929190612d6e565b61060c565b005b3480156101a557600080fd5b506101c060048036038101906101bb9190612e07565b610bb4565b005b3480156101ce57600080fd5b506101e960048036038101906101e49190612d6e565b611121565b6040516101f69190612e88565b60405180910390f35b34801561020b57600080fd5b5061022660048036038101906102219190612ecf565b6111f1565b005b34801561023457600080fd5b5061024f600480360381019061024a9190612f35565b61164c565b005b34801561025d57600080fd5b5061027860048036038101906102739190612d6e565b6119d9565b6040516102859190612db6565b60405180910390f35b34801561029a57600080fd5b506102a3611a96565b6040516102b09190612f97565b60405180910390f35b3480156102c557600080fd5b506102e060048036038101906102db9190612d6e565b611a9b565b6040516102ed9190612fc1565b60405180910390f35b34801561030257600080fd5b5061031d60048036038101906103189190612d6e565b611b76565b60405161032a9190613053565b60405180910390f35b34801561033f57600080fd5b5061035a60048036038101906103559190612d6e565b611bd4565b6040516103679190612fc1565b60405180910390f35b34801561037c57600080fd5b5061039760048036038101906103929190612d6e565b611c84565b6040516103a49190612e88565b60405180910390f35b3480156103b957600080fd5b506103c2611d54565b6040516103cf9190612f97565b60405180910390f35b3480156103e457600080fd5b506103ff60048036038101906103fa9190612d6e565b611d59565b005b34801561040d57600080fd5b506104286004803603810190610423919061306e565b6121a4565b005b34801561043657600080fd5b50610451600480360381019061044c9190612d6e565b61285b565b60405161045e9190612fc1565b60405180910390f35b600080600083815260200190815260200160002060000160009054906101000a900460ff1680156104d157506000808381526020019081526020016000206001016000600281106104bb576104ba6130ae565b5b600e020160000160009054906101000a900460ff165b80156105165750600080838152602001908152602001600020600101600160028110610500576104ff6130ae565b5b600e020160000160009054906101000a900460ff165b156105455760008083815260200190815260200160002060000160019054906101000a900460ff16905061054a565b600090505b919050565b600080600083815260200190815260200160002060000160009054906101000a900460ff1680156105b957506000808381526020019081526020016000206001016001600281106105a3576105a26130ae565b5b600e020160000160009054906101000a900460ff165b15610602576000808381526020019081526020016000206001016001600281106105e6576105e56130ae565b5b600e020160000160019054906101000a900460ff169050610607565b600090505b919050565b8060008082815260200190815260200160002060000160009054906101000a900460ff1661063d5761063c6130dd565b5b813373ffffffffffffffffffffffffffffffffffffffff1660008083815260200190815260200160002060010160006002811061067d5761067c6130ae565b5b600e020160000160029054906101000a900473ffffffffffffffffffffffffffffffffffffffff1673ffffffffffffffffffffffffffffffffffffffff16148061074157503373ffffffffffffffffffffffffffffffffffffffff16600080838152602001908152602001600020600101600160028110610701576107006130ae565b5b600e020160000160029054906101000a900473ffffffffffffffffffffffffffffffffffffffff1673ffffffffffffffffffffffffffffffffffffffff16145b61074e5761074d6130dd565b5b82600280600981111561076457610763612fdc565b5b600080848152602001908152602001600020601d0160009054906101000a900460ff16600981111561079957610798612fdc565b5b146107a7576107a66130dd565b5b6000808681526020019081526020016000206001016000600281106107cf576107ce6130ae565b5b600e020160000160029054906101000a900473ffffffffffffffffffffffffffffffffffffffff1673ffffffffffffffffffffffffffffffffffffffff163373ffffffffffffffffffffffffffffffffffffffff1614801561086a5750600080868152602001908152602001600020600101600060028110610854576108536130ae565b5b600e020160000160019054906101000a900460ff165b806109345750600080868152602001908152602001600020600101600160028110610898576108976130ae565b5b600e020160000160029054906101000a900473ffffffffffffffffffffffffffffffffffffffff1673ffffffffffffffffffffffffffffffffffffffff163373ffffffffffffffffffffffffffffffffffffffff16148015610933575060008086815260200190815260200160002060010160016002811061091d5761091c6130ae565b5b600e020160000160019054906101000a900460ff165b5b1561096b576040517f5e558b2300000000000000000000000000000000000000000000000000000000815260040160405180910390fd5b600080868152602001908152602001600020601e015434146109d957600080868152602001908152602001600020601e01546040517f66cb868a0000000000000000000000000000000000000000000000000000000081526004016109d09190612fc1565b60405180910390fd5b600080600080888152602001908152602001600020600101600060028110610a0457610a036130ae565b5b600e020160000160029054906101000a900473ffffffffffffffffffffffffffffffffffffffff1673ffffffffffffffffffffffffffffffffffffffff163373ffffffffffffffffffffffffffffffffffffffff1603610a6b576000915060019050610a74565b60019150600090505b60016000808981526020019081526020016000206001018360028110610a9d57610a9c6130ae565b5b600e020160000160016101000a81548160ff0219169083151502179055507f95ddb9abe17699603c18cef7bcfd33947d19c8eb237e01edac0bd509b481339e8733604051610aec92919061310c565b60405180910390a16000808881526020019081526020016000206001018160028110610b1b57610b1a6130ae565b5b600e020160000160019054906101000a900460ff1615610bab576003600080898152602001908152602001600020601d0160006101000a81548160ff02191690836009811115610b6e57610b6d612fdc565b5b02179055507f972651cf62ccc65bd2ba0fd996eb34701d5773844d3303545d5b4cb29738f10487604051610ba29190612fc1565b60405180910390a15b50505050505050565b8160008082815260200190815260200160002060000160009054906101000a900460ff16610be557610be46130dd565b5b823373ffffffffffffffffffffffffffffffffffffffff16600080838152602001908152602001600020600101600060028110610c2557610c246130ae565b5b600e020160000160029054906101000a900473ffffffffffffffffffffffffffffffffffffffff1673ffffffffffffffffffffffffffffffffffffffff161480610ce957503373ffffffffffffffffffffffffffffffffffffffff16600080838152602001908152602001600020600101600160028110610ca957610ca86130ae565b5b600e020160000160029054906101000a900473ffffffffffffffffffffffffffffffffffffffff1673ffffffffffffffffffffffffffffffffffffffff16145b610cf657610cf56130dd565b5b836003806009811115610d0c57610d0b612fdc565b5b600080848152602001908152602001600020601d0160009054906101000a900460ff166009811115610d4157610d40612fdc565b5b14610d4f57610d4e6130dd565b5b600080600080898152602001908152602001600020600101600060028110610d7a57610d796130ae565b5b600e020160000160029054906101000a900473ffffffffffffffffffffffffffffffffffffffff1673ffffffffffffffffffffffffffffffffffffffff163373ffffffffffffffffffffffffffffffffffffffff1614610dde576001915081610de4565b60009150815b50600080898152602001908152602001600020600101600060028110610e0d57610e0c6130ae565b5b600e020160000160029054906101000a900473ffffffffffffffffffffffffffffffffffffffff1673ffffffffffffffffffffffffffffffffffffffff163373ffffffffffffffffffffffffffffffffffffffff1614610e71576000905080610e77565b60019050805b506000801b6000808a81526020019081526020016000206001018360028110610ea357610ea26130ae565b5b600e02016002015414610eb557600080fd5b60005b600860ff168160ff161015610f4e5760005b600860ff168160ff161015610f3a576000603b8360ff1660088110610ef257610ef16130ae565b5b018260ff1660088110610f0857610f076130ae565b5b602091828204019190066101000a81548160ff0219169083151502179055508080610f3290613164565b915050610eca565b508080610f4690613164565b915050610eb8565b506000603b90506000603090506001603060000160006101000a81548160ff021916908315150217905550816030600101906008610f8d9291906129ce565b50601460ff16603060090181905550600860ff166030600a0181905550806000808c81526020019081526020016000206001018560028110610fd257610fd16130ae565b5b600e02016003016000820160009054906101000a900460ff168160000160006101000a81548160ff021916908315150217905550600182018160010190600861101c929190612a18565b5060098201548160090155600a82015481600a0155905050886000808c8152602001908152602001600020600101856002811061105c5761105b6130ae565b5b600e0201600201819055506000801b6000808c81526020019081526020016000206001018460028110611092576110916130ae565b5b600e020160020154146111155760046000808c8152602001908152602001600020601d0160006101000a81548160ff021916908360098111156110d8576110d7612fdc565b5b02179055507f634435215205b1bf0c66d892142dc6817dd04fb0fdb9153d12aef7dfb8685df68a60405161110c9190612fc1565b60405180910390a15b50505050505050505050565b600080600083815260200190815260200160002060000160009054906101000a900460ff16801561118b5750600080838152602001908152602001600020600101600060028110611175576111746130ae565b5b600e020160000160009054906101000a900460ff165b156111e7576000808381526020019081526020016000206001016000600281106111b8576111b76130ae565b5b600e020160000160029054906101000a900473ffffffffffffffffffffffffffffffffffffffff1690506111ec565b600090505b919050565b600060435490506043600081548092919061120b9061318d565b9190505550600060019050600060229050338160000160026101000a81548173ffffffffffffffffffffffffffffffffffffffff021916908373ffffffffffffffffffffffffffffffffffffffff16021790555060018160000160006101000a81548160ff02191690831515021790555060008160000160016101000a81548160ff02191690831515021790555080826001016000600281106112b1576112b06130ae565b5b600e02016000820160009054906101000a900460ff168160000160006101000a81548160ff0219169083151502179055506000820160019054906101000a900460ff168160000160016101000a81548160ff0219169083151502179055506000820160029054906101000a900473ffffffffffffffffffffffffffffffffffffffff168160000160026101000a81548173ffffffffffffffffffffffffffffffffffffffff021916908373ffffffffffffffffffffffffffffffffffffffff160217905550600182015481600101556002820154816002015560038201816003016000820160009054906101000a900460ff168160000160006101000a81548160ff02191690831515021790555060018201816001019060086113d5929190612a18565b5060098201548160090155600a82015481600a01555050905050600082601d0160006101000a81548160ff0219169083600981111561141757611416612fdc565b5b0217905550838260200160016101000a81548160ff02191690831515021790555060018260000160006101000a81548160ff02191690831515021790555060008260000160016101000a81548160ff021916908315150217905550816000808581526020019081526020016000206000820160009054906101000a900460ff168160000160006101000a81548160ff0219169083151502179055506000820160019054906101000a900460ff168160000160016101000a81548160ff02191690831515021790555060018201816001019060026114f5929190612a62565b50601d820160009054906101000a900460ff1681601d0160006101000a81548160ff0219169083600981111561152e5761152d612fdc565b5b0217905550601e82015481601e0155601f82015481601f01556020820160009054906101000a900460ff168160200160006101000a81548160ff0219169083151502179055506020820160019054906101000a900460ff168160200160016101000a81548160ff0219169083151502179055506020820160029054906101000a900473ffffffffffffffffffffffffffffffffffffffff168160200160026101000a81548173ffffffffffffffffffffffffffffffffffffffff021916908373ffffffffffffffffffffffffffffffffffffffff1602179055509050507f1edfba130181c8da1b98834639c59b5287912fcc01104c5a7a6e6c8cd194e30230338560405161163e939291906131d5565b60405180910390a150505050565b8260008082815260200190815260200160002060000160009054906101000a900460ff1661167d5761167c6130dd565b5b833373ffffffffffffffffffffffffffffffffffffffff166000808381526020019081526020016000206001016000600281106116bd576116bc6130ae565b5b600e020160000160029054906101000a900473ffffffffffffffffffffffffffffffffffffffff1673ffffffffffffffffffffffffffffffffffffffff16148061178157503373ffffffffffffffffffffffffffffffffffffffff16600080838152602001908152602001600020600101600160028110611741576117406130ae565b5b600e020160000160029054906101000a900473ffffffffffffffffffffffffffffffffffffffff1673ffffffffffffffffffffffffffffffffffffffff16145b61178e5761178d6130dd565b5b60008060008060008981526020019081526020016000206001016000600281106117bb576117ba6130ae565b5b600e020160000160029054906101000a900473ffffffffffffffffffffffffffffffffffffffff1673ffffffffffffffffffffffffffffffffffffffff163373ffffffffffffffffffffffffffffffffffffffff160361182657600092506001915060049050611833565b6001925060009150600690505b80600981111561184657611845612fdc565b5b6000808a8152602001908152602001600020601d0160009054906101000a900460ff16600981111561187b5761187a612fdc565b5b14611889576118886130dd565b5b6004600981111561189d5761189c612fdc565b5b8160098111156118b0576118af612fdc565b5b146118bf5760079050806118c5565b60059050805b50806000808a8152602001908152602001600020601d0160006101000a81548160ff021916908360098111156118fe576118fd612fdc565b5b0217905550600080898152602001908152602001600020600101836002811061192a576119296130ae565b5b600e0201600301600a0160008154809291906119459061320c565b919050555060008060008a81526020019081526020016000206001018460028110611973576119726130ae565b5b600e0201600301600a0154036119935761198e88848461290b565b6119cf565b7f82b4f53f1ba969cf3586a92ca6d045b7aa2a6143fdeb1e95fe678548ab53f9f58888886040516119c693929190613235565b60405180910390a15b5050505050505050565b600080600083815260200190815260200160002060000160009054906101000a900460ff168015611a435750600080838152602001908152602001600020600101600060028110611a2d57611a2c6130ae565b5b600e020160000160009054906101000a900460ff165b15611a8c57600080838152602001908152602001600020600101600060028110611a7057611a6f6130ae565b5b600e020160000160019054906101000a900460ff169050611a91565b600090505b919050565b601481565b600080600083815260200190815260200160002060000160009054906101000a900460ff168015611b055750600080838152602001908152602001600020600101600060028110611aef57611aee6130ae565b5b600e020160000160009054906101000a900460ff165b8015611b4a5750600080838152602001908152602001600020600101600160028110611b3457611b336130ae565b5b600e020160000160009054906101000a900460ff165b15611b6c57600080838152602001908152602001600020601e01549050611b71565b600090505b919050565b600080600083815260200190815260200160002060000160009054906101000a900460ff1615611bca57600080838152602001908152602001600020601d0160009054906101000a900460ff169050611bcf565b600990505b919050565b600080600083815260200190815260200160002060000160009054906101000a900460ff168015611c3e5750600080838152602001908152602001600020600101600160028110611c2857611c276130ae565b5b600e020160000160009054906101000a900460ff165b15611c7a57600080838152602001908152602001600020600101600160028110611c6b57611c6a6130ae565b5b600e0201600101549050611c7f565b600090505b919050565b600080600083815260200190815260200160002060000160009054906101000a900460ff168015611cee5750600080838152602001908152602001600020600101600160028110611cd857611cd76130ae565b5b600e020160000160009054906101000a900460ff165b15611d4a57600080838152602001908152602001600020600101600160028110611d1b57611d1a6130ae565b5b600e020160000160029054906101000a900473ffffffffffffffffffffffffffffffffffffffff169050611d4f565b600090505b919050565b600881565b60008103611ebe5760445490505b6043548111611eb6576001151560008083815260200190815260200160002060000160009054906101000a900460ff161515148015611dec575060006009811115611db557611db4612fdc565b5b600080838152602001908152602001600020601d0160009054906101000a900460ff166009811115611dea57611de9612fdc565b5b145b8015611e7357503373ffffffffffffffffffffffffffffffffffffffff16600080838152602001908152602001600020600101600060028110611e3257611e316130ae565b5b600e020160000160029054906101000a900473ffffffffffffffffffffffffffffffffffffffff1673ffffffffffffffffffffffffffffffffffffffff1614155b8015611e9f575060008082815260200190815260200160002060200160019054906101000a900460ff16155b611eb6578080611eae9061318d565b915050611d67565b806044819055505b60008082815260200190815260200160002060000160009054906101000a900460ff16611eee57611eed6130dd565b5b600060229050338160000160026101000a81548173ffffffffffffffffffffffffffffffffffffffff021916908373ffffffffffffffffffffffffffffffffffffffff16021790555060018160000160006101000a81548160ff02191690831515021790555060008160000160016101000a81548160ff02191690831515021790555080600080848152602001908152602001600020600101600160028110611f9a57611f996130ae565b5b600e02016000820160009054906101000a900460ff168160000160006101000a81548160ff0219169083151502179055506000820160019054906101000a900460ff168160000160016101000a81548160ff0219169083151502179055506000820160029054906101000a900473ffffffffffffffffffffffffffffffffffffffff168160000160026101000a81548173ffffffffffffffffffffffffffffffffffffffff021916908373ffffffffffffffffffffffffffffffffffffffff160217905550600182015481600101556002820154816002015560038201816003016000820160009054906101000a900460ff168160000160006101000a81548160ff02191690831515021790555060018201816001019060086120be929190612a18565b5060098201548160090155600a82015481600a015550509050506001600080848152602001908152602001600020601d0160006101000a81548160ff0219169083600981111561211157612110612fdc565b5b02179055507fdf72bd9cb04731c1dfa0832a380e56504fda45508a7305083a9be0f343e93421826000808581526020019081526020016000206001016000600281106121605761215f6130ae565b5b600e020160000160029054906101000a900473ffffffffffffffffffffffffffffffffffffffff16336040516121989392919061326c565b60405180910390a15050565b8160008082815260200190815260200160002060000160009054906101000a900460ff166121d5576121d46130dd565b5b823373ffffffffffffffffffffffffffffffffffffffff16600080838152602001908152602001600020600101600060028110612215576122146130ae565b5b600e020160000160029054906101000a900473ffffffffffffffffffffffffffffffffffffffff1673ffffffffffffffffffffffffffffffffffffffff1614806122d957503373ffffffffffffffffffffffffffffffffffffffff16600080838152602001908152602001600020600101600160028110612299576122986130ae565b5b600e020160000160029054906101000a900473ffffffffffffffffffffffffffffffffffffffff1673ffffffffffffffffffffffffffffffffffffffff16145b6122e6576122e56130dd565b5b8360018060098111156122fc576122fb612fdc565b5b600080848152602001908152602001600020601d0160009054906101000a900460ff16600981111561233157612330612fdc565b5b1461233f5761233e6130dd565b5b6000806000888152602001908152602001600020604051806101200160405290816000820160009054906101000a900460ff161515151581526020016000820160019054906101000a900460ff1615151515815260200160018201600280602002604051908101604052809291906000905b8282101561255b578382600e02016040518060c00160405290816000820160009054906101000a900460ff161515151581526020016000820160019054906101000a900460ff161515151581526020016000820160029054906101000a900473ffffffffffffffffffffffffffffffffffffffff1673ffffffffffffffffffffffffffffffffffffffff1673ffffffffffffffffffffffffffffffffffffffff1681526020016001820154815260200160028201548152602001600382016040518060800160405290816000820160009054906101000a900460ff1615151515815260200160018201600880602002604051908101604052809291906000905b8282101561252c57838201600880602002604051908101604052809291908260088015612518576020028201916000905b82829054906101000a900460ff161515815260200190600101906020826000010492830192600103820291508084116124e25790505b5050505050815260200190600101906124b1565b50505050815260200160098201548152602001600a8201548152505081525050815260200190600101906123b1565b505050508152602001601d820160009054906101000a900460ff16600981111561258857612587612fdc565b5b600981111561259a57612599612fdc565b5b8152602001601e8201548152602001601f82015481526020016020820160009054906101000a900460ff161515151581526020016020820160019054906101000a900460ff161515151581526020016020820160029054906101000a900473ffffffffffffffffffffffffffffffffffffffff1673ffffffffffffffffffffffffffffffffffffffff1673ffffffffffffffffffffffffffffffffffffffff16815250509050600080826040015160006002811061265b5761265a6130ae565b5b60200201516040015173ffffffffffffffffffffffffffffffffffffffff163373ffffffffffffffffffffffffffffffffffffffff16036126a35760019150600090506126ac565b60009150600190505b6000836040015183600281106126c5576126c46130ae565b5b6020020151606001519050886000808c815260200190815260200160002060010183600281106126f8576126f76130ae565b5b600e0201600101819055506000811415801561271357508881145b156127f257886000808c8152602001908152602001600020601e018190555060026000808c8152602001908152602001600020601d0160006101000a81548160ff0219169083600981111561276b5761276a612fdc565b5b02179055507fa63491c3e48c84a30c1a58128201bca4fd87bb84850cda339020ce19051e5a908a85604001516000600281106127aa576127a96130ae565b5b60200201516040015186604001516001600281106127cb576127ca6130ae565b5b6020020151604001518c6040516127e594939291906132a3565b60405180910390a161284f565b7f4adf94e8b5302c48b3df6533aa17748538d68a74af46f0a894839b61fbf3f1bf8a338660400151866002811061282c5761282b6130ae565b5b6020020151604001518c60405161284694939291906132a3565b60405180910390a15b50505050505050505050565b600080600083815260200190815260200160002060000160009054906101000a900460ff1680156128c557506000808381526020019081526020016000206001016000600281106128af576128ae6130ae565b5b600e020160000160009054906101000a900460ff165b15612901576000808381526020019081526020016000206001016000600281106128f2576128f16130ae565b5b600e0201600101549050612906565b600090505b919050565b6000600160008086815260200190815260200160002060000160016101000a81548160ff0219169083151502179055508060008086815260200190815260200160002060200160026101000a81548173ffffffffffffffffffffffffffffffffffffffff021916908373ffffffffffffffffffffffffffffffffffffffff1602179055507fc2815c82adc4278d6e044948482e0d16acf9a6369fc96eff02ffc7e7cd5f39d084336040516129c092919061310c565b60405180910390a150505050565b8260088101928215612a07579182015b82811115612a065782829060086129f6929190612bdc565b50916001019190600101906129de565b5b509050612a149190612c27565b5090565b8260088101928215612a51579182015b82811115612a50578282906008612a40929190612bdc565b5091600101919060010190612a28565b5b509050612a5e9190612c27565b5090565b826002600e028101928215612bcb5791600e0282015b82811115612bca5782826000820160009054906101000a900460ff168160000160006101000a81548160ff0219169083151502179055506000820160019054906101000a900460ff168160000160016101000a81548160ff0219169083151502179055506000820160029054906101000a900473ffffffffffffffffffffffffffffffffffffffff168160000160026101000a81548173ffffffffffffffffffffffffffffffffffffffff021916908373ffffffffffffffffffffffffffffffffffffffff160217905550600182015481600101556002820154816002015560038201816003016000820160009054906101000a900460ff168160000160006101000a81548160ff0219169083151502179055506001820181600101906008612ba2929190612a18565b5060098201548160090155600a82015481600a01555050505091600e019190600e0190612a78565b5b509050612bd89190612c4b565b5090565b826008601f01602090048101928215612c165791601f016020900482015b82811115612c15578254825591600101919060010190612bfa565b5b509050612c239190612cfc565b5090565b5b80821115612c475760008181612c3e9190612d19565b50600101612c28565b5090565b5b80821115612cf857600080820160006101000a81549060ff02191690556000820160016101000a81549060ff02191690556000820160026101000a81549073ffffffffffffffffffffffffffffffffffffffff02191690556001820160009055600282016000905560038201600080820160006101000a81549060ff0219169055600182016000612cdd9190612d20565b6009820160009055600a820160009055505050600e01612c4c565b5090565b5b80821115612d15576000816000905550600101612cfd565b5090565b5060009055565b508060080190612d309190612c27565b50565b600080fd5b6000819050919050565b612d4b81612d38565b8114612d5657600080fd5b50565b600081359050612d6881612d42565b92915050565b600060208284031215612d8457612d83612d33565b5b6000612d9284828501612d59565b91505092915050565b60008115159050919050565b612db081612d9b565b82525050565b6000602082019050612dcb6000830184612da7565b92915050565b6000819050919050565b612de481612dd1565b8114612def57600080fd5b50565b600081359050612e0181612ddb565b92915050565b60008060408385031215612e1e57612e1d612d33565b5b6000612e2c85828601612d59565b9250506020612e3d85828601612df2565b9150509250929050565b600073ffffffffffffffffffffffffffffffffffffffff82169050919050565b6000612e7282612e47565b9050919050565b612e8281612e67565b82525050565b6000602082019050612e9d6000830184612e79565b92915050565b612eac81612d9b565b8114612eb757600080fd5b50565b600081359050612ec981612ea3565b92915050565b600060208284031215612ee557612ee4612d33565b5b6000612ef384828501612eba565b91505092915050565b600060ff82169050919050565b612f1281612efc565b8114612f1d57600080fd5b50565b600081359050612f2f81612f09565b92915050565b600080600060608486031215612f4e57612f4d612d33565b5b6000612f5c86828701612d59565b9350506020612f6d86828701612f20565b9250506040612f7e86828701612f20565b9150509250925092565b612f9181612efc565b82525050565b6000602082019050612fac6000830184612f88565b92915050565b612fbb81612d38565b82525050565b6000602082019050612fd66000830184612fb2565b92915050565b7f4e487b7100000000000000000000000000000000000000000000000000000000600052602160045260246000fd5b600a811061301c5761301b612fdc565b5b50565b600081905061302d8261300b565b919050565b600061303d8261301f565b9050919050565b61304d81613032565b82525050565b60006020820190506130686000830184613044565b92915050565b6000806040838503121561308557613084612d33565b5b600061309385828601612d59565b92505060206130a485828601612d59565b9150509250929050565b7f4e487b7100000000000000000000000000000000000000000000000000000000600052603260045260246000fd5b7f4e487b7100000000000000000000000000000000000000000000000000000000600052600160045260246000fd5b60006040820190506131216000830185612fb2565b61312e6020830184612e79565b9392505050565b7f4e487b7100000000000000000000000000000000000000000000000000000000600052601160045260246000fd5b600061316f82612efc565b915060ff820361318257613181613135565b5b600182019050919050565b600061319882612d38565b91507fffffffffffffffffffffffffffffffffffffffffffffffffffffffffffffffff82036131ca576131c9613135565b5b600182019050919050565b60006060820190506131ea6000830186612e79565b6131f76020830185612e79565b6132046040830184612fb2565b949350505050565b600061321782612d38565b91506000820361322a57613229613135565b5b600182039050919050565b600060608201905061324a6000830186612fb2565b6132576020830185612f88565b6132646040830184612f88565b949350505050565b60006060820190506132816000830186612fb2565b61328e6020830185612e79565b61329b6040830184612e79565b949350505050565b60006080820190506132b86000830187612fb2565b6132c56020830186612e79565b6132d26040830185612e79565b6132df6060830184612fb2565b9594505050505056fea2646970667358221220c519b7f95f0e9ad0dca16cc2c42fd00ba4a02e60f96497f3f80524088afd574a64736f6c63430008130033",
  "immutableReferences": {},
  "source": "// SPDX-License-Identifier: MIT\r\npragma solidity >=0.4.22 <0.9.0;\r\n\r\ncontract Battleships {\r\n    uint8 public constant NUMBER_OF_SHIP_SQUARES = 20;\r\n    uint8 public constant BOARD_SIZE = 8;\r\n    enum GameStates{\r\n        WAITING, \r\n        SETTING_STAKE, \r\n        ACCEPTING_PAYMENT,\r\n        PLACING_SHIPS, \r\n        P0_FIRING,\r\n        P1_CHECKING,\r\n        P1_FIRING,\r\n        P0_CHECKING,\r\n        DONE,\r\n        NONE\r\n    }\r\n\r\n    // In this struct we save the view a player has of its opponent's board\r\n    struct Board{\r\n        bool valid;\r\n        // N*N matrix of bits to store hits\r\n        bool[BOARD_SIZE][BOARD_SIZE] shots;\r\n        // # of enemy pieces still left on the board\r\n        // goes down by one each time we receive one 'you hit' event\r\n        uint totalPieces;\r\n        // 8*8, we use this to avoid cheating\r\n        uint totalShots;\r\n    }\r\n\r\n    struct Player{\r\n        bool valid;\r\n        bool hasPaidStake;\r\n        address playerAddress;\r\n        uint proposedStake;\r\n        bytes32 boardTreeRoot;\r\n        Board shots_board;\r\n    }\r\n\r\n    struct Game{\r\n        bool valid;\r\n        bool canPay;\r\n        // host is always player[0]\r\n        Player[2] players;\r\n        GameStates state;\r\n        uint decidedStake;\r\n        // used for foul accusation, a foul is triggered after 5 blocks\r\n        uint blockNumber;\r\n        // player 0 or player 1\r\n        // might turn it into address, we will see\r\n        bool accuser;\r\n        // whether or not this game should be in the public pool of joinable games\r\n        bool privateGame;\r\n        address winner;\r\n    }\r\n\r\n    mapping(uint => Game) private openGames;\r\n\r\n    Game private gameTrampoline;\r\n    Player private playerTrampoline;\r\n    Board private trampolineBoard;\r\n    bool[BOARD_SIZE][BOARD_SIZE] private trampolineShots;\r\n    // used in generating UUIDs for the games\r\n    // for now we are gonna use this as-is\r\n    // start at 1 as 0 is used for a non-existing game\r\n    // TODO: deal with it overflowing\r\n    uint private gameCounter;\r\n    uint private lastOpenGame;\r\n\r\n    constructor() {\r\n        gameCounter = 1;\r\n        lastOpenGame = 1;\r\n    }\r\n\r\n    event ShareID(address _from, address _to, uint _gameID);\r\n    event GameStart(uint _gameID, address _host, address _challenger);\r\n    event SuggestedStake(uint _gameID, address _from, address _to, uint _stakeValue);\r\n    event GamePayable(uint _gameID, address _host, address _challenger, uint _stakeValue);\r\n    event StakePaid(uint _gameID, address _whoPaid);\r\n    event AcceptingBoards(uint _gameID);\r\n    event PlayerZeroRound(uint _gameID);\r\n    event ShotsFired(uint _gameID, uint8 _x, uint8 y);\r\n    event Victory(uint _gameID, address _winner);\r\n\r\n    error InvalidGameID();\r\n    error NotInGame();\r\n    error StakeAlreadyDeposited();\r\n    error WrongStakeAmount(uint expectedStakeValue);\r\n\r\n    modifier gameExists(uint gameID){\r\n        assert(openGames[gameID].valid);\r\n        _;\r\n    }\r\n\r\n    modifier isInGame(uint gameID){\r\n        assert((openGames[gameID].players[0].playerAddress == msg.sender) || (openGames[gameID].players[1].playerAddress == msg.sender));\r\n        _;\r\n    }\r\n\r\n    modifier assertState(uint gameID, GameStates _state){\r\n        assert(openGames[gameID].state == _state);\r\n        _;\r\n    }\r\n\r\n    // create a Game value, add it to openGames, populate the Player[0]\r\n    function newGame(bool isPrivate) public {\r\n        uint gameID = gameCounter;\r\n        gameCounter++;\r\n        Game storage game = gameTrampoline;\r\n        Player storage host = playerTrampoline;\r\n        host.playerAddress = msg.sender;\r\n        host.valid = true;\r\n        host.hasPaidStake = false;\r\n        game.players[0] = host;\r\n        game.state = GameStates.WAITING;\r\n        game.privateGame = isPrivate;\r\n        game.valid = true;\r\n        game.canPay = false;\r\n        openGames[gameID] = game;\r\n        emit ShareID(address(this), msg.sender, gameID);\r\n        return;\r\n    }\r\n    \r\n    function joinGame(uint gameID) public {\r\n        if(gameID == 0){\r\n            // pick an unassigned game in sequential order\r\n            gameID = lastOpenGame;\r\n            while(gameID <= gameCounter){\r\n                // ignore games with sender as host (you can still join your own games directly if you're that lonely)\r\n                if(openGames[gameID].valid == true && \r\n                    openGames[gameID].state == GameStates.WAITING && \r\n                    openGames[gameID].players[0].playerAddress != msg.sender && \r\n                    !openGames[gameID].privateGame){\r\n                    break;\r\n                }\r\n                gameID++;\r\n            }\r\n            // update the lastOpenGame counter no matter what\r\n            lastOpenGame = gameID;\r\n        }\r\n        // if the game wasn't valid, throw an error\r\n        assert(openGames[gameID].valid);\r\n        // set msg sender as this game's player 2\r\n        Player storage challenger = playerTrampoline;\r\n        challenger.playerAddress = msg.sender;\r\n        challenger.valid = true;\r\n        challenger.hasPaidStake = false;\r\n        openGames[gameID].players[1] = challenger;\r\n        // update this game's status\r\n        openGames[gameID].state = GameStates.SETTING_STAKE;\r\n        // alert the players\r\n        emit GameStart(gameID, openGames[gameID].players[0].playerAddress, msg.sender);\r\n        return;\r\n    }\r\n\r\n    function checkGameState(uint gameID) public view returns (GameStates) {\r\n        if (openGames[gameID].valid){\r\n            return openGames[gameID].state;\r\n        }\r\n        else \r\n            return(GameStates.NONE);\r\n    }\r\n\r\n    function checkGamePlayerOne(uint gameID) public view returns (address) {\r\n        if (openGames[gameID].valid && openGames[gameID].players[0].valid){\r\n            return openGames[gameID].players[0].playerAddress;\r\n        }\r\n        else \r\n            return(address(0));\r\n    }\r\n\r\n    function checkGamePlayerTwo(uint gameID) public view returns (address) {\r\n        if (openGames[gameID].valid && openGames[gameID].players[1].valid){\r\n            return openGames[gameID].players[1].playerAddress;\r\n        }\r\n        else \r\n            return(address(0));\r\n    }\r\n\r\n    // Function to propose and agree upon a stake between players\r\n    function proposeStake(uint gameID, uint stakeValue) gameExists(gameID) isInGame(gameID) assertState(gameID, GameStates.SETTING_STAKE) public{\r\n        Game memory game = openGames[gameID];\r\n        // Check whether or not this player's opponent has already proposed a stake\r\n        uint opponentIndex;\r\n        uint stakerIndex;\r\n        if(msg.sender == game.players[0].playerAddress){\r\n            opponentIndex = 1;\r\n            stakerIndex = 0;\r\n        } else {\r\n            opponentIndex = 0;\r\n            stakerIndex = 1;\r\n        }\r\n        uint opponentStake = game.players[opponentIndex].proposedStake;\r\n        // set this player's proposed stake to their message\r\n        openGames[gameID].players[stakerIndex].proposedStake = stakeValue;\r\n        // if the opponent has proposed a stake we check whether or not it equals the one proposed by us\r\n        // 0 is not a valid stake\r\n        if(opponentStake != 0 && opponentStake == stakeValue){\r\n            openGames[gameID].decidedStake = stakeValue;\r\n            openGames[gameID].state = GameStates.ACCEPTING_PAYMENT;\r\n            emit GamePayable(gameID, game.players[0].playerAddress, game.players[1].playerAddress, stakeValue);\r\n        }else{\r\n            emit SuggestedStake(gameID, msg.sender, game.players[opponentIndex].playerAddress, stakeValue);\r\n        }\r\n        return;\r\n    }\r\n\r\n    function checkStakePlayerOne(uint gameID) public view returns (uint) {\r\n        if (openGames[gameID].valid && openGames[gameID].players[0].valid){\r\n            return openGames[gameID].players[0].proposedStake;\r\n        }\r\n        else \r\n            return(0);\r\n    }\r\n\r\n    function checkStakePlayerTwo(uint gameID) public view returns (uint) {\r\n        if (openGames[gameID].valid && openGames[gameID].players[1].valid){\r\n            return openGames[gameID].players[1].proposedStake;\r\n        }\r\n        else \r\n            return(0);\r\n    }\r\n\r\n    function checkStakeGame(uint gameID) public view returns (uint) {\r\n        if (openGames[gameID].valid && openGames[gameID].players[0].valid && openGames[gameID].players[1].valid)\r\n            return openGames[gameID].decidedStake;\r\n        else\r\n            return(0);\r\n    }\r\n    \r\n    function payStake(uint gameID) gameExists(gameID) isInGame(gameID) assertState(gameID, GameStates.ACCEPTING_PAYMENT) external payable {\r\n        if((msg.sender == openGames[gameID].players[0].playerAddress && openGames[gameID].players[0].hasPaidStake) ||\r\n            (msg.sender == openGames[gameID].players[1].playerAddress && openGames[gameID].players[1].hasPaidStake))\r\n            revert StakeAlreadyDeposited();\r\n        // only accept payments for the exact amount owed\r\n        if(msg.value != openGames[gameID].decidedStake)\r\n            revert WrongStakeAmount(openGames[gameID].decidedStake);\r\n        // now we check who the sender is\r\n        uint senderIndex;\r\n        uint challengerIndex;\r\n        if(msg.sender == openGames[gameID].players[0].playerAddress){\r\n            senderIndex = 0;\r\n            challengerIndex = 1;\r\n        }else{\r\n            senderIndex = 1;\r\n            challengerIndex = 0;\r\n        }\r\n        openGames[gameID].players[senderIndex].hasPaidStake = true;\r\n        emit StakePaid(gameID, msg.sender);\r\n        // if both players have paid the owed stake the game can move on to its next state\r\n        if(openGames[gameID].players[challengerIndex].hasPaidStake){\r\n            openGames[gameID].state = GameStates.PLACING_SHIPS;\r\n            emit AcceptingBoards(gameID);\r\n        }\r\n    }\r\n\r\n    function checkPaymentPlayerOne(uint gameID) public view returns (bool) {\r\n        if (openGames[gameID].valid && openGames[gameID].players[0].valid){\r\n            return openGames[gameID].players[0].hasPaidStake;\r\n        }\r\n        else \r\n            return(false);\r\n    }\r\n\r\n    function checkPaymentPlayerTwo(uint gameID) public view returns (bool) {\r\n        if (openGames[gameID].valid && openGames[gameID].players[1].valid){\r\n            return openGames[gameID].players[1].hasPaidStake;\r\n        }\r\n        else \r\n            return(false);\r\n    }\r\n\r\n    function checkGamePayable(uint gameID) public view returns (bool) {\r\n        if (openGames[gameID].valid && openGames[gameID].players[0].valid && openGames[gameID].players[1].valid)\r\n            return openGames[gameID].canPay;\r\n        else\r\n            return(false);\r\n    }\r\n    \r\n    // TODO: Write Tests for everything below this line\r\n    // TODO: Maybe move the Board instantiation outside of this function\r\n    function PlaceShips(uint gameID, bytes32 boardRoot) gameExists(gameID) isInGame(gameID) assertState(gameID, GameStates.PLACING_SHIPS) public{\r\n        uint index;\r\n        uint oppIdx;\r\n        msg.sender == openGames[gameID].players[0].playerAddress ? index = 0 : index = 1;\r\n        msg.sender == openGames[gameID].players[0].playerAddress ? oppIdx = 1 : oppIdx = 0;\r\n        require(openGames[gameID].players[index].boardTreeRoot == 0x0);\r\n        // Instantiate a new shots board\r\n        // this would be incredibly inefficient on anything larger than our current values\r\n        // since we are playing HUMAN games, we use human values of BOARD_SIZE\r\n        // otherwise a sparse implementation is preferred\r\n        for(uint8 i = 0; i < BOARD_SIZE; i++){\r\n            for(uint8 j = 0; j < BOARD_SIZE; j++){\r\n                trampolineShots[i][j] = false;\r\n            }\r\n        }\r\n        // Instantiate the Board struct itself and assign it to a player\r\n        bool[BOARD_SIZE][BOARD_SIZE] storage playerShots = trampolineShots;\r\n        Board storage playerBoard = trampolineBoard;\r\n        trampolineBoard.valid = true;\r\n        trampolineBoard.shots = playerShots;\r\n        trampolineBoard.totalPieces = NUMBER_OF_SHIP_SQUARES;\r\n        trampolineBoard.totalShots = BOARD_SIZE;\r\n        openGames[gameID].players[index].shots_board = playerBoard;\r\n        // save the received boardRoot, finally\r\n        openGames[gameID].players[index].boardTreeRoot = boardRoot;\r\n        if(openGames[gameID].players[oppIdx].boardTreeRoot != 0x0){\r\n            openGames[gameID].state = GameStates.P0_FIRING;\r\n            emit PlayerZeroRound(gameID);\r\n        }\r\n    }\r\n\r\n    // TODO: Write getter functions for the player boards and the tree\r\n\r\n    function VerifyWinner(uint gameID, uint winnerIndex, uint loserIndex) private {\r\n        address verifiedWinner;\r\n        // TODO: verify the merkle board for the winner first of all\r\n        // this requires asking the winner for their board\r\n        // if that fails, verify it for the loser and pay THEM out if it succeeds\r\n\r\n        // finally set the contract as payable\r\n        openGames[gameID].canPay = true;\r\n        openGames[gameID].winner = verifiedWinner;\r\n        emit Victory(gameID, msg.sender);\r\n    }\r\n\r\n    // locations are 0-indexed\r\n    function FireTorpedo(uint gameID, uint8 location_x, uint8 location_y) gameExists(gameID) isInGame(gameID) public {\r\n        uint index;\r\n        uint oppIdx;\r\n        GameStates legalState;\r\n        if(msg.sender == openGames[gameID].players[0].playerAddress){\r\n            index = 0;\r\n            oppIdx = 1;\r\n            legalState = GameStates.P0_FIRING;\r\n        } else {\r\n            index = 1;\r\n            oppIdx = 0;\r\n            legalState = GameStates.P1_FIRING;\r\n        }\r\n        assert(openGames[gameID].state == legalState);\r\n        // Rotate into correct next state\r\n        legalState == GameStates.P0_FIRING ? legalState = GameStates.P1_CHECKING : legalState = GameStates.P0_CHECKING;\r\n        openGames[gameID].state = legalState;\r\n        // Now for some game logic\r\n        // whatever happens, we lower the totalShots counter of our system by one\r\n        openGames[gameID].players[index].shots_board.totalShots--;\r\n        // Then we evaluate whether or not this is zero. If it is, This party wins automatically.\r\n        // We do this here to avoid opponents stalling out on the reply for 5 blocks on what is a foregone conclusion\r\n        if (openGames[gameID].players[index].shots_board.totalShots == 0){\r\n            VerifyWinner(gameID, index, oppIdx);\r\n        } else {\r\n            emit ShotsFired(gameID, location_x, location_y);\r\n        }\r\n    }\r\n}",
  "sourcePath": "F:\\Documents\\Code\\School\\P2PBC\\Battleships\\contracts\\Battleships.sol",
  "compiler": {
    "name": "solc",
    "version": "0.8.19+commit.7dd6d404.Emscripten.clang"
  },
  "schemaVersion": "3.4.13",
  "updatedAt": "2023-05-20T23:10:24.081Z",
  "networkType": "ethereum",
  "devdoc": {
    "kind": "dev",
    "methods": {},
    "version": 1
  },
  "userdoc": {
    "kind": "user",
    "methods": {},
    "version": 1
  }
}