{
  "contractName": "Battleships",
  "abi": [
    {
      "inputs": [],
      "stateMutability": "nonpayable",
      "type": "constructor"
    },
    {
      "inputs": [],
      "name": "InvalidGameID",
      "type": "error"
    },
    {
      "inputs": [],
      "name": "NotInGame",
      "type": "error"
    },
    {
      "inputs": [],
      "name": "StakeAlreadyDeposited",
      "type": "error"
    },
    {
      "inputs": [
        {
          "internalType": "uint256",
          "name": "expectedStakeValue",
          "type": "uint256"
        }
      ],
      "name": "WrongStakeAmount",
      "type": "error"
    },
    {
      "anonymous": false,
      "inputs": [
        {
          "indexed": false,
          "internalType": "uint256",
          "name": "_gameID",
          "type": "uint256"
        }
      ],
      "name": "AcceptingBoards",
      "type": "event"
    },
    {
      "anonymous": false,
      "inputs": [
        {
          "indexed": false,
          "internalType": "uint256",
          "name": "_gameID",
          "type": "uint256"
        },
        {
          "indexed": false,
          "internalType": "address",
          "name": "_player",
          "type": "address"
        }
      ],
      "name": "BoardAcknowledgeEvent",
      "type": "event"
    },
    {
      "anonymous": false,
      "inputs": [
        {
          "indexed": false,
          "internalType": "uint256",
          "name": "_gameID",
          "type": "uint256"
        },
        {
          "indexed": false,
          "internalType": "address",
          "name": "_host",
          "type": "address"
        },
        {
          "indexed": false,
          "internalType": "address",
          "name": "_challenger",
          "type": "address"
        },
        {
          "indexed": false,
          "internalType": "uint256",
          "name": "_stakeValue",
          "type": "uint256"
        }
      ],
      "name": "GamePayable",
      "type": "event"
    },
    {
      "anonymous": false,
      "inputs": [
        {
          "indexed": false,
          "internalType": "uint256",
          "name": "_gameID",
          "type": "uint256"
        },
        {
          "indexed": false,
          "internalType": "address",
          "name": "_host",
          "type": "address"
        },
        {
          "indexed": false,
          "internalType": "address",
          "name": "_challenger",
          "type": "address"
        }
      ],
      "name": "GameStart",
      "type": "event"
    },
    {
      "anonymous": false,
      "inputs": [
        {
          "indexed": false,
          "internalType": "uint256",
          "name": "_gameID",
          "type": "uint256"
        }
      ],
      "name": "PlayerZeroTurn",
      "type": "event"
    },
    {
      "anonymous": false,
      "inputs": [
        {
          "indexed": false,
          "internalType": "uint256",
          "name": "_gameID",
          "type": "uint256"
        },
        {
          "indexed": false,
          "internalType": "address",
          "name": "_winner",
          "type": "address"
        }
      ],
      "name": "RequestBoard",
      "type": "event"
    },
    {
      "anonymous": false,
      "inputs": [
        {
          "indexed": false,
          "internalType": "address",
          "name": "_from",
          "type": "address"
        },
        {
          "indexed": false,
          "internalType": "address",
          "name": "_to",
          "type": "address"
        },
        {
          "indexed": false,
          "internalType": "uint256",
          "name": "_gameID",
          "type": "uint256"
        }
      ],
      "name": "ShareID",
      "type": "event"
    },
    {
      "anonymous": false,
      "inputs": [
        {
          "indexed": false,
          "internalType": "uint256",
          "name": "_gameID",
          "type": "uint256"
        },
        {
          "indexed": false,
          "internalType": "uint8",
          "name": "_location",
          "type": "uint8"
        },
        {
          "indexed": false,
          "internalType": "bool",
          "name": "_claim",
          "type": "bool"
        },
        {
          "indexed": false,
          "internalType": "bool",
          "name": "_validity",
          "type": "bool"
        }
      ],
      "name": "ShotsChecked",
      "type": "event"
    },
    {
      "anonymous": false,
      "inputs": [
        {
          "indexed": false,
          "internalType": "uint256",
          "name": "_gameID",
          "type": "uint256"
        },
        {
          "indexed": false,
          "internalType": "uint8",
          "name": "_location",
          "type": "uint8"
        }
      ],
      "name": "ShotsFired",
      "type": "event"
    },
    {
      "anonymous": false,
      "inputs": [
        {
          "indexed": false,
          "internalType": "uint256",
          "name": "_gameID",
          "type": "uint256"
        },
        {
          "indexed": false,
          "internalType": "address",
          "name": "_whoPaid",
          "type": "address"
        }
      ],
      "name": "StakePaid",
      "type": "event"
    },
    {
      "anonymous": false,
      "inputs": [
        {
          "indexed": false,
          "internalType": "uint256",
          "name": "_gameID",
          "type": "uint256"
        },
        {
          "indexed": false,
          "internalType": "address",
          "name": "_from",
          "type": "address"
        },
        {
          "indexed": false,
          "internalType": "address",
          "name": "_to",
          "type": "address"
        },
        {
          "indexed": false,
          "internalType": "uint256",
          "name": "_stakeValue",
          "type": "uint256"
        }
      ],
      "name": "SuggestedStake",
      "type": "event"
    },
    {
      "anonymous": false,
      "inputs": [
        {
          "indexed": false,
          "internalType": "uint256",
          "name": "_gameID",
          "type": "uint256"
        },
        {
          "indexed": false,
          "internalType": "address",
          "name": "_winner",
          "type": "address"
        }
      ],
      "name": "Victory",
      "type": "event"
    },
    {
      "inputs": [],
      "name": "BOARD_SIZE",
      "outputs": [
        {
          "internalType": "uint8",
          "name": "",
          "type": "uint8"
        }
      ],
      "stateMutability": "view",
      "type": "function",
      "constant": true
    },
    {
      "inputs": [],
      "name": "NUMBER_OF_SHIP_SQUARES",
      "outputs": [
        {
          "internalType": "uint8",
          "name": "",
          "type": "uint8"
        }
      ],
      "stateMutability": "view",
      "type": "function",
      "constant": true
    },
    {
      "inputs": [
        {
          "internalType": "bool",
          "name": "isPrivate",
          "type": "bool"
        }
      ],
      "name": "newGame",
      "outputs": [],
      "stateMutability": "nonpayable",
      "type": "function"
    },
    {
      "inputs": [
        {
          "internalType": "uint256",
          "name": "gameID",
          "type": "uint256"
        }
      ],
      "name": "joinGame",
      "outputs": [],
      "stateMutability": "nonpayable",
      "type": "function"
    },
    {
      "inputs": [
        {
          "internalType": "uint256",
          "name": "gameID",
          "type": "uint256"
        }
      ],
      "name": "checkGameState",
      "outputs": [
        {
          "internalType": "enum Battleships.GameStates",
          "name": "",
          "type": "uint8"
        }
      ],
      "stateMutability": "view",
      "type": "function",
      "constant": true
    },
    {
      "inputs": [
        {
          "internalType": "uint256",
          "name": "gameID",
          "type": "uint256"
        }
      ],
      "name": "checkGamePlayerOne",
      "outputs": [
        {
          "internalType": "address",
          "name": "",
          "type": "address"
        }
      ],
      "stateMutability": "view",
      "type": "function",
      "constant": true
    },
    {
      "inputs": [
        {
          "internalType": "uint256",
          "name": "gameID",
          "type": "uint256"
        }
      ],
      "name": "checkGamePlayerTwo",
      "outputs": [
        {
          "internalType": "address",
          "name": "",
          "type": "address"
        }
      ],
      "stateMutability": "view",
      "type": "function",
      "constant": true
    },
    {
      "inputs": [
        {
          "internalType": "uint256",
          "name": "gameID",
          "type": "uint256"
        },
        {
          "internalType": "uint256",
          "name": "stakeValue",
          "type": "uint256"
        }
      ],
      "name": "proposeStake",
      "outputs": [],
      "stateMutability": "nonpayable",
      "type": "function"
    },
    {
      "inputs": [
        {
          "internalType": "uint256",
          "name": "gameID",
          "type": "uint256"
        }
      ],
      "name": "checkStakePlayerOne",
      "outputs": [
        {
          "internalType": "uint256",
          "name": "",
          "type": "uint256"
        }
      ],
      "stateMutability": "view",
      "type": "function",
      "constant": true
    },
    {
      "inputs": [
        {
          "internalType": "uint256",
          "name": "gameID",
          "type": "uint256"
        }
      ],
      "name": "checkStakePlayerTwo",
      "outputs": [
        {
          "internalType": "uint256",
          "name": "",
          "type": "uint256"
        }
      ],
      "stateMutability": "view",
      "type": "function",
      "constant": true
    },
    {
      "inputs": [
        {
          "internalType": "uint256",
          "name": "gameID",
          "type": "uint256"
        }
      ],
      "name": "checkStakeGame",
      "outputs": [
        {
          "internalType": "uint256",
          "name": "",
          "type": "uint256"
        }
      ],
      "stateMutability": "view",
      "type": "function",
      "constant": true
    },
    {
      "inputs": [
        {
          "internalType": "uint256",
          "name": "gameID",
          "type": "uint256"
        }
      ],
      "name": "payStake",
      "outputs": [],
      "stateMutability": "payable",
      "type": "function",
      "payable": true
    },
    {
      "inputs": [
        {
          "internalType": "uint256",
          "name": "gameID",
          "type": "uint256"
        }
      ],
      "name": "checkPaymentPlayerOne",
      "outputs": [
        {
          "internalType": "bool",
          "name": "",
          "type": "bool"
        }
      ],
      "stateMutability": "view",
      "type": "function",
      "constant": true
    },
    {
      "inputs": [
        {
          "internalType": "uint256",
          "name": "gameID",
          "type": "uint256"
        }
      ],
      "name": "checkPaymentPlayerTwo",
      "outputs": [
        {
          "internalType": "bool",
          "name": "",
          "type": "bool"
        }
      ],
      "stateMutability": "view",
      "type": "function",
      "constant": true
    },
    {
      "inputs": [
        {
          "internalType": "uint256",
          "name": "gameID",
          "type": "uint256"
        }
      ],
      "name": "checkGamePayable",
      "outputs": [
        {
          "internalType": "bool",
          "name": "",
          "type": "bool"
        }
      ],
      "stateMutability": "view",
      "type": "function",
      "constant": true
    },
    {
      "inputs": [
        {
          "internalType": "uint256",
          "name": "gameID",
          "type": "uint256"
        },
        {
          "internalType": "bytes32",
          "name": "boardRoot",
          "type": "bytes32"
        }
      ],
      "name": "PlaceShips",
      "outputs": [],
      "stateMutability": "nonpayable",
      "type": "function"
    },
    {
      "inputs": [
        {
          "internalType": "uint256",
          "name": "gameID",
          "type": "uint256"
        }
      ],
      "name": "getPlayerOneBoardRoot",
      "outputs": [
        {
          "internalType": "bytes32",
          "name": "",
          "type": "bytes32"
        }
      ],
      "stateMutability": "view",
      "type": "function",
      "constant": true
    },
    {
      "inputs": [
        {
          "internalType": "uint256",
          "name": "gameID",
          "type": "uint256"
        }
      ],
      "name": "getPlayerTwoBoardRoot",
      "outputs": [
        {
          "internalType": "bytes32",
          "name": "",
          "type": "bytes32"
        }
      ],
      "stateMutability": "view",
      "type": "function",
      "constant": true
    },
    {
      "inputs": [
        {
          "internalType": "uint256",
          "name": "gameID",
          "type": "uint256"
        }
      ],
      "name": "getPlayerOneShotsBoard",
      "outputs": [
        {
          "internalType": "bool",
          "name": "",
          "type": "bool"
        }
      ],
      "stateMutability": "view",
      "type": "function",
      "constant": true
    },
    {
      "inputs": [
        {
          "internalType": "uint256",
          "name": "gameID",
          "type": "uint256"
        }
      ],
      "name": "getPlayerTwoShotsBoard",
      "outputs": [
        {
          "internalType": "bool",
          "name": "",
          "type": "bool"
        }
      ],
      "stateMutability": "view",
      "type": "function",
      "constant": true
    },
    {
      "inputs": [
        {
          "internalType": "uint256",
          "name": "gameID",
          "type": "uint256"
        },
        {
          "internalType": "uint8",
          "name": "location",
          "type": "uint8"
        }
      ],
      "name": "FireTorpedo",
      "outputs": [],
      "stateMutability": "nonpayable",
      "type": "function"
    },
    {
      "inputs": [
        {
          "internalType": "uint256",
          "name": "gameID",
          "type": "uint256"
        },
        {
          "internalType": "uint8",
          "name": "location",
          "type": "uint8"
        },
        {
          "internalType": "bool",
          "name": "isHit",
          "type": "bool"
        },
        {
          "internalType": "bytes32",
          "name": "leaf",
          "type": "bytes32"
        },
        {
          "internalType": "bytes32[]",
          "name": "proof",
          "type": "bytes32[]"
        }
      ],
      "name": "ConfirmShot",
      "outputs": [],
      "stateMutability": "nonpayable",
      "type": "function"
    },
    {
      "inputs": [
        {
          "internalType": "uint8",
          "name": "tile",
          "type": "uint8"
        },
        {
          "internalType": "bool",
          "name": "ship",
          "type": "bool"
        }
      ],
      "name": "GenLeafNode",
      "outputs": [
        {
          "internalType": "bytes32",
          "name": "",
          "type": "bytes32"
        }
      ],
      "stateMutability": "pure",
      "type": "function",
      "constant": true
    },
    {
      "inputs": [
        {
          "internalType": "uint256",
          "name": "gameID",
          "type": "uint256"
        },
        {
          "internalType": "uint8[]",
          "name": "tiles",
          "type": "uint8[]"
        },
        {
          "internalType": "bool[]",
          "name": "ships",
          "type": "bool[]"
        },
        {
          "internalType": "bytes32[]",
          "name": "nodes",
          "type": "bytes32[]"
        },
        {
          "internalType": "bytes32[][]",
          "name": "proofs",
          "type": "bytes32[][]"
        },
        {
          "internalType": "bytes32",
          "name": "root",
          "type": "bytes32"
        }
      ],
      "name": "VerifyWinner",
      "outputs": [],
      "stateMutability": "nonpayable",
      "type": "function"
    },
    {
      "inputs": [
        {
          "internalType": "uint8",
          "name": "tile",
          "type": "uint8"
        },
        {
          "internalType": "bool",
          "name": "ship",
          "type": "bool"
        }
      ],
      "name": "PreviewLeafNode",
      "outputs": [
        {
          "internalType": "bytes",
          "name": "",
          "type": "bytes"
        }
      ],
      "stateMutability": "pure",
      "type": "function",
      "constant": true
    },
    {
      "inputs": [
        {
          "internalType": "bytes32",
          "name": "leaf",
          "type": "bytes32"
        },
        {
          "internalType": "bytes32",
          "name": "root",
          "type": "bytes32"
        },
        {
          "internalType": "bytes32[]",
          "name": "proof",
          "type": "bytes32[]"
        }
      ],
      "name": "QuickCheck",
      "outputs": [
        {
          "internalType": "bool",
          "name": "",
          "type": "bool"
        }
      ],
      "stateMutability": "nonpayable",
      "type": "function"
    },
    {
      "inputs": [
        {
          "internalType": "bytes32",
          "name": "proof",
          "type": "bytes32"
        }
      ],
      "name": "EchoBytes",
      "outputs": [
        {
          "internalType": "bytes32",
          "name": "",
          "type": "bytes32"
        }
      ],
      "stateMutability": "pure",
      "type": "function",
      "constant": true
    },
    {
      "inputs": [
        {
          "internalType": "bytes32[]",
          "name": "proof",
          "type": "bytes32[]"
        }
      ],
      "name": "EchoProof",
      "outputs": [
        {
          "internalType": "bytes32[]",
          "name": "",
          "type": "bytes32[]"
        }
      ],
      "stateMutability": "pure",
      "type": "function",
      "constant": true
    },
    {
      "inputs": [
        {
          "internalType": "uint256",
          "name": "gameID",
          "type": "uint256"
        },
        {
          "internalType": "enum Battleships.GameStates",
          "name": "state",
          "type": "uint8"
        }
      ],
      "name": "ChangeState",
      "outputs": [],
      "stateMutability": "nonpayable",
      "type": "function"
    },
    {
      "inputs": [
        {
          "internalType": "uint256",
          "name": "gameID",
          "type": "uint256"
        },
        {
          "internalType": "address",
          "name": "winner",
          "type": "address"
        }
      ],
      "name": "SetWinner",
      "outputs": [],
      "stateMutability": "nonpayable",
      "type": "function"
    }
  ],
  "bytecode": "0x608060405234801561001057600080fd5b506001601b819055506001601c8190555033601d60006101000a81548173ffffffffffffffffffffffffffffffffffffffff021916908373ffffffffffffffffffffffffffffffffffffffff16021790555061583180620000726000396000f3fe6080604052600436106101cd5760003560e01c806395287e96116100f7578063d46d077711610095578063ea8202e911610064578063ea8202e914610734578063efaa55a014610771578063f28ae7dd1461079a578063fba523b7146107c3576101cd565b8063d46d07771461067a578063dc4a3e95146106b7578063e0c6b52a146106e2578063e0dd9bb41461070b576101cd565b8063aab41fc5116100d1578063aab41fc51461059a578063ac2f9423146105d7578063bd7c88f814610600578063c8e2ef5d1461063d576101cd565b806395287e96146104f75780639a7e4cea14610520578063aa3ee9151461055d576101cd565b80634278d9861161016f5780635f7dbd2b1161013e5780635f7dbd2b146104295780636930aa4d14610466578063699f5aeb1461049157806379fbd95d146104ce576101cd565b80634278d986146103355780635345f53314610372578063542c0151146103af57806354d83c65146103ec576101cd565b80630eeca53e116101ab5780630eeca53e1461026857806316337b89146102a65780631de95425146102cf5780632b170aac1461030c576101cd565b8063012b61f0146101d257806302ecb0e81461020f5780630e37dcd01461024c575b600080fd5b3480156101de57600080fd5b506101f960048036038101906101f49190614a12565b610800565b6040516102069190614a5a565b60405180910390f35b34801561021b57600080fd5b5061023660048036038101906102319190614a12565b6108e8565b6040516102439190614a5a565b60405180910390f35b61026660048036038101906102619190614a12565b6109a5565b005b34801561027457600080fd5b5061028f600480360381019061028a9190614ada565b61123b565b60405161029d929190614ba2565b60405180910390f35b3480156102b257600080fd5b506102cd60048036038101906102c89190614bfc565b61124b565b005b3480156102db57600080fd5b506102f660048036038101906102f19190614a12565b611a1d565b6040516103039190614c7d565b60405180910390f35b34801561031857600080fd5b50610333600480360381019061032e9190614cc4565b611aed565b005b34801561034157600080fd5b5061035c60048036038101906103579190614a12565b611f31565b6040516103699190614d00565b60405180910390f35b34801561037e57600080fd5b5061039960048036038101906103949190614a12565b611f45565b6040516103a69190614a5a565b60405180910390f35b3480156103bb57600080fd5b506103d660048036038101906103d19190614a12565b611f59565b6040516103e39190614a5a565b60405180910390f35b3480156103f857600080fd5b50610413600480360381019061040e9190614a12565b611f6d565b6040516104209190614a5a565b60405180910390f35b34801561043557600080fd5b50610450600480360381019061044b9190614a12565b61202a565b60405161045d9190614d00565b60405180910390f35b34801561047257600080fd5b5061047b61203e565b6040516104889190614d37565b60405180910390f35b34801561049d57600080fd5b506104b860048036038101906104b39190614a12565b612043565b6040516104c59190614d61565b60405180910390f35b3480156104da57600080fd5b506104f560048036038101906104f09190614da8565b61211e565b005b34801561050357600080fd5b5061051e60048036038101906105199190614f44565b612709565b005b34801561052c57600080fd5b5061054760048036038101906105429190614a12565b612ad4565b60405161055491906150cb565b60405180910390f35b34801561056957600080fd5b50610584600480360381019061057f9190614a12565b612b32565b6040516105919190614d61565b60405180910390f35b3480156105a657600080fd5b506105c160048036038101906105bc91906150e6565b612be2565b6040516105ce9190614a5a565b60405180910390f35b3480156105e357600080fd5b506105fe60048036038101906105f99190615186565b612c3e565b005b34801561060c57600080fd5b50610627600480360381019061062291906151c6565b612cf4565b6040516106349190614d00565b60405180910390f35b34801561064957600080fd5b50610664600480360381019061065f91906151c6565b612d27565b6040516106719190615296565b60405180910390f35b34801561068657600080fd5b506106a1600480360381019061069c9190614a12565b612d53565b6040516106ae9190614c7d565b60405180910390f35b3480156106c357600080fd5b506106cc612e23565b6040516106d99190614d37565b60405180910390f35b3480156106ee57600080fd5b50610709600480360381019061070491906152dd565b612e28565b005b34801561071757600080fd5b50610732600480360381019061072d919061531d565b612ec7565b005b34801561074057600080fd5b5061075b6004803603810190610756919061535d565b6135e3565b6040516107689190614d00565b60405180910390f35b34801561077d57600080fd5b5061079860048036038101906107939190614a12565b6135ed565b005b3480156107a657600080fd5b506107c160048036038101906107bc919061538a565b613a21565b005b3480156107cf57600080fd5b506107ea60048036038101906107e59190614a12565b614327565b6040516107f79190614d61565b60405180910390f35b600080600083815260200190815260200160002060000160009054906101000a900460ff16801561086a5750600080838152602001908152602001600020600101600060028110610854576108536153ca565b5b6006020160000160009054906101000a900460ff165b80156108af5750600080838152602001908152602001600020600101600160028110610899576108986153ca565b5b6006020160000160009054906101000a900460ff165b156108de5760008083815260200190815260200160002060000160019054906101000a900460ff1690506108e3565b600090505b919050565b600080600083815260200190815260200160002060000160009054906101000a900460ff168015610952575060008083815260200190815260200160002060010160016002811061093c5761093b6153ca565b5b6006020160000160009054906101000a900460ff165b1561099b5760008083815260200190815260200160002060010160016002811061097f5761097e6153ca565b5b6006020160000160019054906101000a900460ff1690506109a0565b600090505b919050565b8060008082815260200190815260200160002060000160009054906101000a900460ff166109d6576109d56153f9565b5b813373ffffffffffffffffffffffffffffffffffffffff16600080838152602001908152602001600020600101600060028110610a1657610a156153ca565b5b6006020160000160029054906101000a900473ffffffffffffffffffffffffffffffffffffffff1673ffffffffffffffffffffffffffffffffffffffff161480610ada57503373ffffffffffffffffffffffffffffffffffffffff16600080838152602001908152602001600020600101600160028110610a9a57610a996153ca565b5b6006020160000160029054906101000a900473ffffffffffffffffffffffffffffffffffffffff1673ffffffffffffffffffffffffffffffffffffffff16145b610ae757610ae66153f9565b5b8260026004600a811115610afe57610afd615054565b5b81600a811115610b1157610b10615054565b5b14158015610b4457506006600a811115610b2e57610b2d615054565b5b81600a811115610b4157610b40615054565b5b14155b8015610b7557506007600a811115610b5f57610b5e615054565b5b81600a811115610b7257610b71615054565b5b14155b8015610ba657506005600a811115610b9057610b8f615054565b5b81600a811115610ba357610ba2615054565b5b14155b15610c065780600a811115610bbe57610bbd615054565b5b600080848152602001908152602001600020600d0160009054906101000a900460ff16600a811115610bf357610bf2615054565b5b14610c0157610c006153f9565b5b610e2e565b6000610c11836143d7565b90506004600a811115610c2757610c26615054565b5b82600a811115610c3a57610c39615054565b5b03610d1757600081600060028110610c5557610c546153ca565b5b602002015103610cba5781600a811115610c7257610c71615054565b5b600080858152602001908152602001600020600d0160009054906101000a900460ff16600a811115610ca757610ca6615054565b5b14610cb557610cb46153f9565b5b610d12565b6006600a811115610cce57610ccd615054565b5b600080858152602001908152602001600020600d0160009054906101000a900460ff16600a811115610d0357610d02615054565b5b14610d1157610d106153f9565b5b5b610e2c565b6007600a811115610d2b57610d2a615054565b5b82600a811115610d3e57610d3d615054565b5b03610e1b57600081600060028110610d5957610d586153ca565b5b602002015103610dbe5781600a811115610d7657610d75615054565b5b600080858152602001908152602001600020600d0160009054906101000a900460ff16600a811115610dab57610daa615054565b5b14610db957610db86153f9565b5b610e16565b6005600a811115610dd257610dd1615054565b5b600080858152602001908152602001600020600d0160009054906101000a900460ff16600a811115610e0757610e06615054565b5b14610e1557610e146153f9565b5b5b610e2b565b6000610e2a57610e296153f9565b5b5b5b505b600080868152602001908152602001600020600101600060028110610e5657610e556153ca565b5b6006020160000160029054906101000a900473ffffffffffffffffffffffffffffffffffffffff1673ffffffffffffffffffffffffffffffffffffffff163373ffffffffffffffffffffffffffffffffffffffff16148015610ef15750600080868152602001908152602001600020600101600060028110610edb57610eda6153ca565b5b6006020160000160019054906101000a900460ff165b80610fbb5750600080868152602001908152602001600020600101600160028110610f1f57610f1e6153ca565b5b6006020160000160029054906101000a900473ffffffffffffffffffffffffffffffffffffffff1673ffffffffffffffffffffffffffffffffffffffff163373ffffffffffffffffffffffffffffffffffffffff16148015610fba5750600080868152602001908152602001600020600101600160028110610fa457610fa36153ca565b5b6006020160000160019054906101000a900460ff165b5b15610ff2576040517f5e558b2300000000000000000000000000000000000000000000000000000000815260040160405180910390fd5b600080868152602001908152602001600020600e0154341461106057600080868152602001908152602001600020600e01546040517f66cb868a0000000000000000000000000000000000000000000000000000000081526004016110579190614d61565b60405180910390fd5b60008060008088815260200190815260200160002060010160006002811061108b5761108a6153ca565b5b6006020160000160029054906101000a900473ffffffffffffffffffffffffffffffffffffffff1673ffffffffffffffffffffffffffffffffffffffff163373ffffffffffffffffffffffffffffffffffffffff16036110f25760009150600190506110fb565b60019150600090505b60016000808981526020019081526020016000206001018360028110611124576111236153ca565b5b6006020160000160016101000a81548160ff0219169083151502179055507f95ddb9abe17699603c18cef7bcfd33947d19c8eb237e01edac0bd509b481339e8733604051611173929190615428565b60405180910390a160008088815260200190815260200160002060010181600281106111a2576111a16153ca565b5b6006020160000160019054906101000a900460ff1615611232576003600080898152602001908152602001600020600d0160006101000a81548160ff0219169083600a8111156111f5576111f4615054565b5b02179055507f972651cf62ccc65bd2ba0fd996eb34701d5773844d3303545d5b4cb29738f104876040516112299190614d61565b60405180910390a15b50505050505050565b3660008383915091509250929050565b8160008082815260200190815260200160002060000160009054906101000a900460ff1661127c5761127b6153f9565b5b823373ffffffffffffffffffffffffffffffffffffffff166000808381526020019081526020016000206001016000600281106112bc576112bb6153ca565b5b6006020160000160029054906101000a900473ffffffffffffffffffffffffffffffffffffffff1673ffffffffffffffffffffffffffffffffffffffff16148061138057503373ffffffffffffffffffffffffffffffffffffffff166000808381526020019081526020016000206001016001600281106113405761133f6153ca565b5b6006020160000160029054906101000a900473ffffffffffffffffffffffffffffffffffffffff1673ffffffffffffffffffffffffffffffffffffffff16145b61138d5761138c6153f9565b5b8360036004600a8111156113a4576113a3615054565b5b81600a8111156113b7576113b6615054565b5b141580156113ea57506006600a8111156113d4576113d3615054565b5b81600a8111156113e7576113e6615054565b5b14155b801561141b57506007600a81111561140557611404615054565b5b81600a81111561141857611417615054565b5b14155b801561144c57506005600a81111561143657611435615054565b5b81600a81111561144957611448615054565b5b14155b156114ac5780600a81111561146457611463615054565b5b600080848152602001908152602001600020600d0160009054906101000a900460ff16600a81111561149957611498615054565b5b146114a7576114a66153f9565b5b6116d4565b60006114b7836143d7565b90506004600a8111156114cd576114cc615054565b5b82600a8111156114e0576114df615054565b5b036115bd576000816000600281106114fb576114fa6153ca565b5b6020020151036115605781600a81111561151857611517615054565b5b600080858152602001908152602001600020600d0160009054906101000a900460ff16600a81111561154d5761154c615054565b5b1461155b5761155a6153f9565b5b6115b8565b6006600a81111561157457611573615054565b5b600080858152602001908152602001600020600d0160009054906101000a900460ff16600a8111156115a9576115a8615054565b5b146115b7576115b66153f9565b5b5b6116d2565b6007600a8111156115d1576115d0615054565b5b82600a8111156115e4576115e3615054565b5b036116c1576000816000600281106115ff576115fe6153ca565b5b6020020151036116645781600a81111561161c5761161b615054565b5b600080858152602001908152602001600020600d0160009054906101000a900460ff16600a81111561165157611650615054565b5b1461165f5761165e6153f9565b5b6116bc565b6005600a81111561167857611677615054565b5b600080858152602001908152602001600020600d0160009054906101000a900460ff16600a8111156116ad576116ac615054565b5b146116bb576116ba6153f9565b5b5b6116d1565b60006116d0576116cf6153f9565b5b5b5b505b6000806000808981526020019081526020016000206001016000600281106116ff576116fe6153ca565b5b6006020160000160029054906101000a900473ffffffffffffffffffffffffffffffffffffffff1673ffffffffffffffffffffffffffffffffffffffff163373ffffffffffffffffffffffffffffffffffffffff1614611763576001915081611769565b60009150815b50600080898152602001908152602001600020600101600060028110611792576117916153ca565b5b6006020160000160029054906101000a900473ffffffffffffffffffffffffffffffffffffffff1673ffffffffffffffffffffffffffffffffffffffff163373ffffffffffffffffffffffffffffffffffffffff16146117f65760009050806117fc565b60019050805b506000801b6000808a81526020019081526020016000206001018360028110611828576118276153ca565b5b60060201600201541461183a57600080fd5b6000601890506001601860000160006101000a81548160ff021916908315150217905550601460ff166018600101819055506008806118799190615480565b60ff16601860020181905550806000808b815260200190815260200160002060010184600281106118ad576118ac6153ca565b5b600602016003016000820160009054906101000a900460ff168160000160006101000a81548160ff0219169083151502179055506001820154816001015560028201548160020155905050876000808b815260200190815260200160002060010184600281106119205761191f6153ca565b5b60060201600201819055507fde8cdabe60db81138d1e5580b73440f47ba010dbd18575d18bad0b750987001e893360405161195c929190615428565b60405180910390a16000801b6000808b8152602001908152602001600020600101836002811061198f5761198e6153ca565b5b600602016002015414611a125760046000808b8152602001908152602001600020600d0160006101000a81548160ff0219169083600a8111156119d5576119d4615054565b5b02179055507ff751b3d5e96ffa95a434b79874df7e232b82d5c688a5d61fd7b5c5ce8724712789604051611a099190614d61565b60405180910390a15b505050505050505050565b600080600083815260200190815260200160002060000160009054906101000a900460ff168015611a875750600080838152602001908152602001600020600101600060028110611a7157611a706153ca565b5b6006020160000160009054906101000a900460ff165b15611ae357600080838152602001908152602001600020600101600060028110611ab457611ab36153ca565b5b6006020160000160029054906101000a900473ffffffffffffffffffffffffffffffffffffffff169050611ae8565b600090505b919050565b6000601b549050601b6000815480929190611b07906154bd565b9190505550600060019050600060129050338160000160026101000a81548173ffffffffffffffffffffffffffffffffffffffff021916908373ffffffffffffffffffffffffffffffffffffffff16021790555060018160000160006101000a81548160ff02191690831515021790555060008160000160016101000a81548160ff0219169083151502179055508082600101600060028110611bad57611bac6153ca565b5b600602016000820160009054906101000a900460ff168160000160006101000a81548160ff0219169083151502179055506000820160019054906101000a900460ff168160000160016101000a81548160ff0219169083151502179055506000820160029054906101000a900473ffffffffffffffffffffffffffffffffffffffff168160000160026101000a81548173ffffffffffffffffffffffffffffffffffffffff021916908373ffffffffffffffffffffffffffffffffffffffff160217905550600182015481600101556002820154816002015560038201816003016000820160009054906101000a900460ff168160000160006101000a81548160ff02191690831515021790555060018201548160010155600282015481600201555050905050600082600d0160006101000a81548160ff0219169083600a811115611cfc57611cfb615054565b5b0217905550838260100160016101000a81548160ff02191690831515021790555060018260000160006101000a81548160ff02191690831515021790555060008260000160016101000a81548160ff021916908315150217905550816000808581526020019081526020016000206000820160009054906101000a900460ff168160000160006101000a81548160ff0219169083151502179055506000820160019054906101000a900460ff168160000160016101000a81548160ff0219169083151502179055506001820181600101906002611dda9291906147ac565b50600d820160009054906101000a900460ff1681600d0160006101000a81548160ff0219169083600a811115611e1357611e12615054565b5b0217905550600e82015481600e0155600f82015481600f01556010820160009054906101000a900460ff168160100160006101000a81548160ff0219169083151502179055506010820160019054906101000a900460ff168160100160016101000a81548160ff0219169083151502179055506010820160029054906101000a900473ffffffffffffffffffffffffffffffffffffffff168160100160026101000a81548173ffffffffffffffffffffffffffffffffffffffff021916908373ffffffffffffffffffffffffffffffffffffffff1602179055509050507f1edfba130181c8da1b98834639c59b5287912fcc01104c5a7a6e6c8cd194e302303385604051611f2393929190615505565b60405180910390a150505050565b6000611f3e8260016144f4565b9050919050565b6000611f528260016145d0565b9050919050565b6000611f668260006145d0565b9050919050565b600080600083815260200190815260200160002060000160009054906101000a900460ff168015611fd75750600080838152602001908152602001600020600101600060028110611fc157611fc06153ca565b5b6006020160000160009054906101000a900460ff165b1561202057600080838152602001908152602001600020600101600060028110612004576120036153ca565b5b6006020160000160019054906101000a900460ff169050612025565b600090505b919050565b60006120378260006144f4565b9050919050565b601481565b600080600083815260200190815260200160002060000160009054906101000a900460ff1680156120ad5750600080838152602001908152602001600020600101600060028110612097576120966153ca565b5b6006020160000160009054906101000a900460ff165b80156120f257506000808381526020019081526020016000206001016001600281106120dc576120db6153ca565b5b6006020160000160009054906101000a900460ff165b1561211457600080838152602001908152602001600020600e01549050612119565b600090505b919050565b60008087815260200190815260200160002060000160009054906101000a900460ff1661214e5761214d6153f9565b5b60088061215b9190615480565b60ff168560ff16106121705761216f6153f9565b5b3373ffffffffffffffffffffffffffffffffffffffff166000808881526020019081526020016000206001016000600281106121af576121ae6153ca565b5b6006020160000160029054906101000a900473ffffffffffffffffffffffffffffffffffffffff1673ffffffffffffffffffffffffffffffffffffffff160361224e576007600a81111561220657612205615054565b5b600080888152602001908152602001600020600d0160009054906101000a900460ff16600a81111561223b5761223a615054565b5b14612249576122486153f9565b5b61233d565b3373ffffffffffffffffffffffffffffffffffffffff1660008088815260200190815260200160002060010160016002811061228d5761228c6153ca565b5b6006020160000160029054906101000a900473ffffffffffffffffffffffffffffffffffffffff1673ffffffffffffffffffffffffffffffffffffffff160361232c576005600a8111156122e4576122e3615054565b5b600080888152602001908152602001600020600d0160009054906101000a900460ff16600a81111561231957612318615054565b5b14612327576123266153f9565b5b61233c565b600061233b5761233a6153f9565b5b5b5b6000612348876143d7565b90506123548686612cf4565b8414612363576123626153f9565b5b6123b583836000808b815260200190815260200160002060010184600060028110612391576123906153ca565b5b6020020151600281106123a7576123a66153ca565b5b6006020160020154876146bc565b156126c05784156125ae57600080888152602001908152602001600020600101816001600281106123e9576123e86153ca565b5b6020020151600281106123ff576123fe6153ca565b5b60060201600301600101600081548092919061241a9061553c565b919050555060008060008981526020019081526020016000206001018260016002811061244a576124496153ca565b5b6020020151600281106124605761245f6153ca565b5b6006020160030160010154036125ad5760008088815260200190815260200160002060010181600160028110612499576124986153ca565b5b6020020151600281106124af576124ae6153ca565b5b6006020160000160029054906101000a900473ffffffffffffffffffffffffffffffffffffffff1660008089815260200190815260200160002060100160026101000a81548173ffffffffffffffffffffffffffffffffffffffff021916908373ffffffffffffffffffffffffffffffffffffffff1602179055506008600080898152602001908152602001600020600d0160006101000a81548160ff0219169083600a81111561256357612562615054565b5b02179055506125a7876000808a815260200190815260200160002060100160029054906101000a900473ffffffffffffffffffffffffffffffffffffffff166146d5565b50612701565b5b6005600a8111156125c2576125c1615054565b5b600080898152602001908152602001600020600d0160009054906101000a900460ff16600a8111156125f7576125f6615054565b5b1461263e576004600080898152602001908152602001600020600d0160006101000a81548160ff0219169083600a81111561263557612634615054565b5b0217905561267c565b6006600080898152602001908152602001600020600d0160006101000a81548160ff0219169083600a81111561267757612676615054565b5b021790555b507f6b7f4cb32e4557bb0ec1ac014e9cf98e7eb88491d66436be28084edaf4ae0d0787878760016040516126b39493929190615565565b60405180910390a16126ff565b7f6b7f4cb32e4557bb0ec1ac014e9cf98e7eb88491d66436be28084edaf4ae0d0787878760006040516126f69493929190615565565b60405180910390a15b505b505050505050565b60008060008c815260200190815260200160002060000160009054906101000a900460ff1661273b5761273a6153f9565b5b6000808c8152602001908152602001600020600101600060028110612763576127626153ca565b5b6006020160000160029054906101000a900473ffffffffffffffffffffffffffffffffffffffff1673ffffffffffffffffffffffffffffffffffffffff166000808d815260200190815260200160002060100160029054906101000a900473ffffffffffffffffffffffffffffffffffffffff1673ffffffffffffffffffffffffffffffffffffffff16036127fb5760009050612800565b600190505b3373ffffffffffffffffffffffffffffffffffffffff166000808d815260200190815260200160002060100160029054906101000a900473ffffffffffffffffffffffffffffffffffffffff1673ffffffffffffffffffffffffffffffffffffffff1614612871576128706153f9565b5b6000808c81526020019081526020016000206001018160028110612898576128976153ca565b5b600602016002015482146128af576128ae6153f9565b5b6008806128bc9190615480565b60ff168a8a9050146128d1576128d06153f9565b5b6008806128de9190615480565b60ff1688889050146128f3576128f26153f9565b5b6000805b6008806129049190615480565b60ff168160ff161015612a475789898260ff16818110612927576129266153ca565b5b905060200201602081019061293c9190614cc4565b1561295057818061294c906155aa565b9250505b6129ae8c8c8360ff16818110612969576129686153ca565b5b905060200201602081019061297e91906155d3565b8b8b8460ff16818110612994576129936153ca565b5b90506020020160208101906129a99190614cc4565b612cf4565b88888360ff168181106129c4576129c36153ca565b5b90506020020135146129d9576129d86153f9565b5b612a2786868360ff168181106129f2576129f16153ca565b5b9050602002810190612a04919061560f565b868b8b8660ff16818110612a1b57612a1a6153ca565b5b905060200201356146bc565b612a3457612a336153f9565b5b8080612a3f906155aa565b9150506128f7565b50601460ff168160ff1614612a5f57612a5e6153f9565b5b60016000808e815260200190815260200160002060000160016101000a81548160ff0219169083151502179055507fc2815c82adc4278d6e044948482e0d16acf9a6369fc96eff02ffc7e7cd5f39d08c33604051612abe929190615428565b60405180910390a1505050505050505050505050565b600080600083815260200190815260200160002060000160009054906101000a900460ff1615612b2857600080838152602001908152602001600020600d0160009054906101000a900460ff169050612b2d565b600a90505b919050565b600080600083815260200190815260200160002060000160009054906101000a900460ff168015612b9c5750600080838152602001908152602001600020600101600160028110612b8657612b856153ca565b5b6006020160000160009054906101000a900460ff165b15612bd857600080838152602001908152602001600020600101600160028110612bc957612bc86153ca565b5b60060201600101549050612bdd565b600090505b919050565b600080612bf1848487896146bc565b90507f6b7f4cb32e4557bb0ec1ac014e9cf98e7eb88491d66436be28084edaf4ae0d07600080600084604051612c2a94939291906156e8565b60405180910390a180915050949350505050565b601d60009054906101000a900473ffffffffffffffffffffffffffffffffffffffff1673ffffffffffffffffffffffffffffffffffffffff163373ffffffffffffffffffffffffffffffffffffffff1614612c9c57612c9b6153f9565b5b8060008084815260200190815260200160002060100160026101000a81548173ffffffffffffffffffffffffffffffffffffffff021916908373ffffffffffffffffffffffffffffffffffffffff1602179055505050565b60008282604051602001612d0992919061572d565b60405160208183030381529060405280519060200120905092915050565b60608282604051602001612d3c92919061572d565b604051602081830303815290604052905092915050565b600080600083815260200190815260200160002060000160009054906101000a900460ff168015612dbd5750600080838152602001908152602001600020600101600160028110612da757612da66153ca565b5b6006020160000160009054906101000a900460ff165b15612e1957600080838152602001908152602001600020600101600160028110612dea57612de96153ca565b5b6006020160000160029054906101000a900473ffffffffffffffffffffffffffffffffffffffff169050612e1e565b600090505b919050565b600881565b601d60009054906101000a900473ffffffffffffffffffffffffffffffffffffffff1673ffffffffffffffffffffffffffffffffffffffff163373ffffffffffffffffffffffffffffffffffffffff1614612e8657612e856153f9565b5b80600080848152602001908152602001600020600d0160006101000a81548160ff0219169083600a811115612ebe57612ebd615054565b5b02179055505050565b8160008082815260200190815260200160002060000160009054906101000a900460ff16612ef857612ef76153f9565b5b823373ffffffffffffffffffffffffffffffffffffffff16600080838152602001908152602001600020600101600060028110612f3857612f376153ca565b5b6006020160000160029054906101000a900473ffffffffffffffffffffffffffffffffffffffff1673ffffffffffffffffffffffffffffffffffffffff161480612ffc57503373ffffffffffffffffffffffffffffffffffffffff16600080838152602001908152602001600020600101600160028110612fbc57612fbb6153ca565b5b6006020160000160029054906101000a900473ffffffffffffffffffffffffffffffffffffffff1673ffffffffffffffffffffffffffffffffffffffff16145b613009576130086153f9565b5b826008806130179190615480565b60ff168160ff161061302c5761302b6153f9565b5b84600480600a81111561304257613041615054565b5b81600a81111561305557613054615054565b5b1415801561308857506006600a81111561307257613071615054565b5b81600a81111561308557613084615054565b5b14155b80156130b957506007600a8111156130a3576130a2615054565b5b81600a8111156130b6576130b5615054565b5b14155b80156130ea57506005600a8111156130d4576130d3615054565b5b81600a8111156130e7576130e6615054565b5b14155b1561314a5780600a81111561310257613101615054565b5b600080848152602001908152602001600020600d0160009054906101000a900460ff16600a81111561313757613136615054565b5b14613145576131446153f9565b5b613372565b6000613155836143d7565b90506004600a81111561316b5761316a615054565b5b82600a81111561317e5761317d615054565b5b0361325b57600081600060028110613199576131986153ca565b5b6020020151036131fe5781600a8111156131b6576131b5615054565b5b600080858152602001908152602001600020600d0160009054906101000a900460ff16600a8111156131eb576131ea615054565b5b146131f9576131f86153f9565b5b613256565b6006600a81111561321257613211615054565b5b600080858152602001908152602001600020600d0160009054906101000a900460ff16600a81111561324757613246615054565b5b14613255576132546153f9565b5b5b613370565b6007600a81111561326f5761326e615054565b5b82600a81111561328257613281615054565b5b0361335f5760008160006002811061329d5761329c6153ca565b5b6020020151036133025781600a8111156132ba576132b9615054565b5b600080858152602001908152602001600020600d0160009054906101000a900460ff16600a8111156132ef576132ee615054565b5b146132fd576132fc6153f9565b5b61335a565b6005600a81111561331657613315615054565b5b600080858152602001908152602001600020600d0160009054906101000a900460ff16600a81111561334b5761334a615054565b5b14613359576133586153f9565b5b5b61336f565b600061336e5761336d6153f9565b5b5b5b505b600061337d886143d7565b90506004600a81111561339357613392615054565b5b6000808a8152602001908152602001600020600d0160009054906101000a900460ff16600a8111156133c8576133c7615054565b5b1461340f5760076000808a8152602001908152602001600020600d0160006101000a81548160ff0219169083600a81111561340657613405615054565b5b0217905561344d565b60056000808a8152602001908152602001600020600d0160006101000a81548160ff0219169083600a81111561344857613447615054565b5b021790555b5060008089815260200190815260200160002060010181600060028110613477576134766153ca565b5b60200201516002811061348d5761348c6153ca565b5b6006020160030160020160008154809291906134a89061553c565b919050555060008060008a8152602001908152602001600020600101826000600281106134d8576134d76153ca565b5b6020020151600281106134ee576134ed6153ca565b5b60060201600301600201540361359f57336000808a815260200190815260200160002060100160026101000a81548173ffffffffffffffffffffffffffffffffffffffff021916908373ffffffffffffffffffffffffffffffffffffffff16021790555060086000808a8152602001908152602001600020600d0160006101000a81548160ff0219169083600a81111561358b5761358a615054565b5b021790555061359a88336146d5565b6135d9565b7fdba0500edc5d1049fa27c54a56e9f0313f9a962ae79b418ea0cfdfb55659328688886040516135d0929190615756565b60405180910390a15b5050505050505050565b6000819050919050565b6000810361375257601c5490505b601b54811161374a576001151560008083815260200190815260200160002060000160009054906101000a900460ff16151514801561368057506000600a81111561364957613648615054565b5b600080838152602001908152602001600020600d0160009054906101000a900460ff16600a81111561367e5761367d615054565b5b145b801561370757503373ffffffffffffffffffffffffffffffffffffffff166000808381526020019081526020016000206001016000600281106136c6576136c56153ca565b5b6006020160000160029054906101000a900473ffffffffffffffffffffffffffffffffffffffff1673ffffffffffffffffffffffffffffffffffffffff1614155b8015613733575060008082815260200190815260200160002060100160019054906101000a900460ff16155b61374a578080613742906154bd565b9150506135fb565b80601c819055505b60008082815260200190815260200160002060000160009054906101000a900460ff16613782576137816153f9565b5b600060129050338160000160026101000a81548173ffffffffffffffffffffffffffffffffffffffff021916908373ffffffffffffffffffffffffffffffffffffffff16021790555060018160000160006101000a81548160ff02191690831515021790555060008160000160016101000a81548160ff0219169083151502179055508060008084815260200190815260200160002060010160016002811061382e5761382d6153ca565b5b600602016000820160009054906101000a900460ff168160000160006101000a81548160ff0219169083151502179055506000820160019054906101000a900460ff168160000160016101000a81548160ff0219169083151502179055506000820160029054906101000a900473ffffffffffffffffffffffffffffffffffffffff168160000160026101000a81548173ffffffffffffffffffffffffffffffffffffffff021916908373ffffffffffffffffffffffffffffffffffffffff160217905550600182015481600101556002820154816002015560038201816003016000820160009054906101000a900460ff168160000160006101000a81548160ff021916908315150217905550600182015481600101556002820154816002015550509050506001600080848152602001908152602001600020600d0160006101000a81548160ff0219169083600a81111561398e5761398d615054565b5b02179055507fdf72bd9cb04731c1dfa0832a380e56504fda45508a7305083a9be0f343e93421826000808581526020019081526020016000206001016000600281106139dd576139dc6153ca565b5b6006020160000160029054906101000a900473ffffffffffffffffffffffffffffffffffffffff1633604051613a159392919061577f565b60405180910390a15050565b8160008082815260200190815260200160002060000160009054906101000a900460ff16613a5257613a516153f9565b5b823373ffffffffffffffffffffffffffffffffffffffff16600080838152602001908152602001600020600101600060028110613a9257613a916153ca565b5b6006020160000160029054906101000a900473ffffffffffffffffffffffffffffffffffffffff1673ffffffffffffffffffffffffffffffffffffffff161480613b5657503373ffffffffffffffffffffffffffffffffffffffff16600080838152602001908152602001600020600101600160028110613b1657613b156153ca565b5b6006020160000160029054906101000a900473ffffffffffffffffffffffffffffffffffffffff1673ffffffffffffffffffffffffffffffffffffffff16145b613b6357613b626153f9565b5b8360016004600a811115613b7a57613b79615054565b5b81600a811115613b8d57613b8c615054565b5b14158015613bc057506006600a811115613baa57613ba9615054565b5b81600a811115613bbd57613bbc615054565b5b14155b8015613bf157506007600a811115613bdb57613bda615054565b5b81600a811115613bee57613bed615054565b5b14155b8015613c2257506005600a811115613c0c57613c0b615054565b5b81600a811115613c1f57613c1e615054565b5b14155b15613c825780600a811115613c3a57613c39615054565b5b600080848152602001908152602001600020600d0160009054906101000a900460ff16600a811115613c6f57613c6e615054565b5b14613c7d57613c7c6153f9565b5b613eaa565b6000613c8d836143d7565b90506004600a811115613ca357613ca2615054565b5b82600a811115613cb657613cb5615054565b5b03613d9357600081600060028110613cd157613cd06153ca565b5b602002015103613d365781600a811115613cee57613ced615054565b5b600080858152602001908152602001600020600d0160009054906101000a900460ff16600a811115613d2357613d22615054565b5b14613d3157613d306153f9565b5b613d8e565b6006600a811115613d4a57613d49615054565b5b600080858152602001908152602001600020600d0160009054906101000a900460ff16600a811115613d7f57613d7e615054565b5b14613d8d57613d8c6153f9565b5b5b613ea8565b6007600a811115613da757613da6615054565b5b82600a811115613dba57613db9615054565b5b03613e9757600081600060028110613dd557613dd46153ca565b5b602002015103613e3a5781600a811115613df257613df1615054565b5b600080858152602001908152602001600020600d0160009054906101000a900460ff16600a811115613e2757613e26615054565b5b14613e3557613e346153f9565b5b613e92565b6005600a811115613e4e57613e4d615054565b5b600080858152602001908152602001600020600d0160009054906101000a900460ff16600a811115613e8357613e82615054565b5b14613e9157613e906153f9565b5b5b613ea7565b6000613ea657613ea56153f9565b5b5b5b505b6000806000888152602001908152602001600020604051806101200160405290816000820160009054906101000a900460ff161515151581526020016000820160019054906101000a900460ff1615151515815260200160018201600280602002604051908101604052809291906000905b82821015614027578382600602016040518060c00160405290816000820160009054906101000a900460ff161515151581526020016000820160019054906101000a900460ff161515151581526020016000820160029054906101000a900473ffffffffffffffffffffffffffffffffffffffff1673ffffffffffffffffffffffffffffffffffffffff1673ffffffffffffffffffffffffffffffffffffffff1681526020016001820154815260200160028201548152602001600382016040518060600160405290816000820160009054906101000a900460ff16151515158152602001600182015481526020016002820154815250508152505081526020019060010190613f1c565b505050508152602001600d820160009054906101000a900460ff16600a81111561405457614053615054565b5b600a81111561406657614065615054565b5b8152602001600e8201548152602001600f82015481526020016010820160009054906101000a900460ff161515151581526020016010820160019054906101000a900460ff161515151581526020016010820160029054906101000a900473ffffffffffffffffffffffffffffffffffffffff1673ffffffffffffffffffffffffffffffffffffffff1673ffffffffffffffffffffffffffffffffffffffff168152505090506000808260400151600060028110614127576141266153ca565b5b60200201516040015173ffffffffffffffffffffffffffffffffffffffff163373ffffffffffffffffffffffffffffffffffffffff160361416f576001915060009050614178565b60009150600190505b600083604001518360028110614191576141906153ca565b5b6020020151606001519050886000808c815260200190815260200160002060010183600281106141c4576141c36153ca565b5b6006020160010181905550600081141580156141df57508881145b156142be57886000808c8152602001908152602001600020600e018190555060026000808c8152602001908152602001600020600d0160006101000a81548160ff0219169083600a81111561423757614236615054565b5b02179055507fa63491c3e48c84a30c1a58128201bca4fd87bb84850cda339020ce19051e5a908a8560400151600060028110614276576142756153ca565b5b6020020151604001518660400151600160028110614297576142966153ca565b5b6020020151604001518c6040516142b194939291906157b6565b60405180910390a161431b565b7f4adf94e8b5302c48b3df6533aa17748538d68a74af46f0a894839b61fbf3f1bf8a33866040015186600281106142f8576142f76153ca565b5b6020020151604001518c60405161431294939291906157b6565b60405180910390a15b50505050505050505050565b600080600083815260200190815260200160002060000160009054906101000a900460ff168015614391575060008083815260200190815260200160002060010160006002811061437b5761437a6153ca565b5b6006020160000160009054906101000a900460ff165b156143cd576000808381526020019081526020016000206001016000600281106143be576143bd6153ca565b5b600602016001015490506143d2565b600090505b919050565b6143df61490f565b6143e761490f565b60008084815260200190815260200160002060010160006002811061440f5761440e6153ca565b5b6006020160000160029054906101000a900473ffffffffffffffffffffffffffffffffffffffff1673ffffffffffffffffffffffffffffffffffffffff163373ffffffffffffffffffffffffffffffffffffffff16036144ac5760008160006002811061447f5761447e6153ca565b5b60200201818152505060018160016002811061449e5761449d6153ca565b5b6020020181815250506144eb565b6001816000600281106144c2576144c16153ca565b5b6020020181815250506000816001600281106144e1576144e06153ca565b5b6020020181815250505b80915050919050565b60008282600080838152602001908152602001600020600101816002811061451f5761451e6153ca565b5b6006020160000160009054906101000a900460ff16614541576145406153f9565b5b6000808381526020019081526020016000205060028110614565576145646153f9565b5b8460008082815260200190815260200160002060000160009054906101000a900460ff16614596576145956153f9565b5b60008087815260200190815260200160002060010185600281106145bd576145bc6153ca565b5b6006020160020154935050505092915050565b6000828260008083815260200190815260200160002060010181600281106145fb576145fa6153ca565b5b6006020160000160009054906101000a900460ff1661461d5761461c6153f9565b5b6000808381526020019081526020016000205060028110614641576146406153f9565b5b8460008082815260200190815260200160002060000160009054906101000a900460ff16614672576146716153f9565b5b6000808781526020019081526020016000206001018560028110614699576146986153ca565b5b6006020160030160000160009054906101000a900460ff16935050505092915050565b6000826146ca868685614712565b149050949350505050565b7fc53d54ea71e800bb40731cf938b78bbb3e167ca69808d9e2945e2f018b3c40678282604051614706929190615428565b60405180910390a15050565b60008082905060005b8585905081101561475e576147498287878481811061473d5761473c6153ca565b5b9050602002013561476a565b91508080614756906154bd565b91505061471b565b50809150509392505050565b60008183106147825761477d8284614795565b61478d565b61478c8383614795565b5b905092915050565b600082600052816020526040600020905092915050565b82600260060281019282156148fe579160060282015b828111156148fd5782826000820160009054906101000a900460ff168160000160006101000a81548160ff0219169083151502179055506000820160019054906101000a900460ff168160000160016101000a81548160ff0219169083151502179055506000820160029054906101000a900473ffffffffffffffffffffffffffffffffffffffff168160000160026101000a81548173ffffffffffffffffffffffffffffffffffffffff021916908373ffffffffffffffffffffffffffffffffffffffff160217905550600182015481600101556002820154816002015560038201816003016000820160009054906101000a900460ff168160000160006101000a81548160ff021916908315150217905550600182015481600101556002820154816002015550505050916006019190600601906147c2565b5b50905061490b9190614931565b5090565b6040518060400160405280600290602082028036833780820191505090505090565b5b808211156149ce57600080820160006101000a81549060ff02191690556000820160016101000a81549060ff02191690556000820160026101000a81549073ffffffffffffffffffffffffffffffffffffffff02191690556001820160009055600282016000905560038201600080820160006101000a81549060ff021916905560018201600090556002820160009055505050600601614932565b5090565b600080fd5b600080fd5b6000819050919050565b6149ef816149dc565b81146149fa57600080fd5b50565b600081359050614a0c816149e6565b92915050565b600060208284031215614a2857614a276149d2565b5b6000614a36848285016149fd565b91505092915050565b60008115159050919050565b614a5481614a3f565b82525050565b6000602082019050614a6f6000830184614a4b565b92915050565b600080fd5b600080fd5b600080fd5b60008083601f840112614a9a57614a99614a75565b5b8235905067ffffffffffffffff811115614ab757614ab6614a7a565b5b602083019150836020820283011115614ad357614ad2614a7f565b5b9250929050565b60008060208385031215614af157614af06149d2565b5b600083013567ffffffffffffffff811115614b0f57614b0e6149d7565b5b614b1b85828601614a84565b92509250509250929050565b600082825260208201905092915050565b600080fd5b82818337505050565b6000614b528385614b27565b93507f07ffffffffffffffffffffffffffffffffffffffffffffffffffffffffffffff831115614b8557614b84614b38565b5b602083029250614b96838584614b3d565b82840190509392505050565b60006020820190508181036000830152614bbd818486614b46565b90509392505050565b6000819050919050565b614bd981614bc6565b8114614be457600080fd5b50565b600081359050614bf681614bd0565b92915050565b60008060408385031215614c1357614c126149d2565b5b6000614c21858286016149fd565b9250506020614c3285828601614be7565b9150509250929050565b600073ffffffffffffffffffffffffffffffffffffffff82169050919050565b6000614c6782614c3c565b9050919050565b614c7781614c5c565b82525050565b6000602082019050614c926000830184614c6e565b92915050565b614ca181614a3f565b8114614cac57600080fd5b50565b600081359050614cbe81614c98565b92915050565b600060208284031215614cda57614cd96149d2565b5b6000614ce884828501614caf565b91505092915050565b614cfa81614bc6565b82525050565b6000602082019050614d156000830184614cf1565b92915050565b600060ff82169050919050565b614d3181614d1b565b82525050565b6000602082019050614d4c6000830184614d28565b92915050565b614d5b816149dc565b82525050565b6000602082019050614d766000830184614d52565b92915050565b614d8581614d1b565b8114614d9057600080fd5b50565b600081359050614da281614d7c565b92915050565b60008060008060008060a08789031215614dc557614dc46149d2565b5b6000614dd389828a016149fd565b9650506020614de489828a01614d93565b9550506040614df589828a01614caf565b9450506060614e0689828a01614be7565b935050608087013567ffffffffffffffff811115614e2757614e266149d7565b5b614e3389828a01614a84565b92509250509295509295509295565b60008083601f840112614e5857614e57614a75565b5b8235905067ffffffffffffffff811115614e7557614e74614a7a565b5b602083019150836020820283011115614e9157614e90614a7f565b5b9250929050565b60008083601f840112614eae57614ead614a75565b5b8235905067ffffffffffffffff811115614ecb57614eca614a7a565b5b602083019150836020820283011115614ee757614ee6614a7f565b5b9250929050565b60008083601f840112614f0457614f03614a75565b5b8235905067ffffffffffffffff811115614f2157614f20614a7a565b5b602083019150836020820283011115614f3d57614f3c614a7f565b5b9250929050565b60008060008060008060008060008060c08b8d031215614f6757614f666149d2565b5b6000614f758d828e016149fd565b9a505060208b013567ffffffffffffffff811115614f9657614f956149d7565b5b614fa28d828e01614e42565b995099505060408b013567ffffffffffffffff811115614fc557614fc46149d7565b5b614fd18d828e01614e98565b975097505060608b013567ffffffffffffffff811115614ff457614ff36149d7565b5b6150008d828e01614a84565b955095505060808b013567ffffffffffffffff811115615023576150226149d7565b5b61502f8d828e01614eee565b935093505060a06150428d828e01614be7565b9150509295989b9194979a5092959850565b7f4e487b7100000000000000000000000000000000000000000000000000000000600052602160045260246000fd5b600b811061509457615093615054565b5b50565b60008190506150a582615083565b919050565b60006150b582615097565b9050919050565b6150c5816150aa565b82525050565b60006020820190506150e060008301846150bc565b92915050565b60008060008060608587031215615100576150ff6149d2565b5b600061510e87828801614be7565b945050602061511f87828801614be7565b935050604085013567ffffffffffffffff8111156151405761513f6149d7565b5b61514c87828801614a84565b925092505092959194509250565b61516381614c5c565b811461516e57600080fd5b50565b6000813590506151808161515a565b92915050565b6000806040838503121561519d5761519c6149d2565b5b60006151ab858286016149fd565b92505060206151bc85828601615171565b9150509250929050565b600080604083850312156151dd576151dc6149d2565b5b60006151eb85828601614d93565b92505060206151fc85828601614caf565b9150509250929050565b600081519050919050565b600082825260208201905092915050565b60005b83811015615240578082015181840152602081019050615225565b60008484015250505050565b6000601f19601f8301169050919050565b600061526882615206565b6152728185615211565b9350615282818560208601615222565b61528b8161524c565b840191505092915050565b600060208201905081810360008301526152b0818461525d565b905092915050565b600b81106152c557600080fd5b50565b6000813590506152d7816152b8565b92915050565b600080604083850312156152f4576152f36149d2565b5b6000615302858286016149fd565b9250506020615313858286016152c8565b9150509250929050565b60008060408385031215615334576153336149d2565b5b6000615342858286016149fd565b925050602061535385828601614d93565b9150509250929050565b600060208284031215615373576153726149d2565b5b600061538184828501614be7565b91505092915050565b600080604083850312156153a1576153a06149d2565b5b60006153af858286016149fd565b92505060206153c0858286016149fd565b9150509250929050565b7f4e487b7100000000000000000000000000000000000000000000000000000000600052603260045260246000fd5b7f4e487b7100000000000000000000000000000000000000000000000000000000600052600160045260246000fd5b600060408201905061543d6000830185614d52565b61544a6020830184614c6e565b9392505050565b7f4e487b7100000000000000000000000000000000000000000000000000000000600052601160045260246000fd5b600061548b82614d1b565b915061549683614d1b565b92508282026154a481614d1b565b91508082146154b6576154b5615451565b5b5092915050565b60006154c8826149dc565b91507fffffffffffffffffffffffffffffffffffffffffffffffffffffffffffffffff82036154fa576154f9615451565b5b600182019050919050565b600060608201905061551a6000830186614c6e565b6155276020830185614c6e565b6155346040830184614d52565b949350505050565b6000615547826149dc565b91506000820361555a57615559615451565b5b600182039050919050565b600060808201905061557a6000830187614d52565b6155876020830186614d28565b6155946040830185614a4b565b6155a16060830184614a4b565b95945050505050565b60006155b582614d1b565b915060ff82036155c8576155c7615451565b5b600182019050919050565b6000602082840312156155e9576155e86149d2565b5b60006155f784828501614d93565b91505092915050565b600080fd5b600080fd5b600080fd5b6000808335600160200384360303811261562c5761562b615600565b5b80840192508235915067ffffffffffffffff82111561564e5761564d615605565b5b60208301925060208202360383131561566a5761566961560a565b5b509250929050565b6000819050919050565b6000819050919050565b60006156a161569c61569784615672565b61567c565b6149dc565b9050919050565b6156b181615686565b82525050565b60006156d26156cd6156c884615672565b61567c565b614d1b565b9050919050565b6156e2816156b7565b82525050565b60006080820190506156fd60008301876156a8565b61570a60208301866156d9565b6157176040830185614a4b565b6157246060830184614a4b565b95945050505050565b60006040820190506157426000830185614d28565b61574f6020830184614a4b565b9392505050565b600060408201905061576b6000830185614d52565b6157786020830184614d28565b9392505050565b60006060820190506157946000830186614d52565b6157a16020830185614c6e565b6157ae6040830184614c6e565b949350505050565b60006080820190506157cb6000830187614d52565b6157d86020830186614c6e565b6157e56040830185614c6e565b6157f26060830184614d52565b9594505050505056fea2646970667358221220dd93887a13b6baf87cbb58f6ae0dfac3afbefd4b1dde9a6e1745c8384201cbca64736f6c63430008130033",
  "immutableReferences": {},
  "source": "// SPDX-License-Identifier: MIT\r\npragma solidity >=0.4.22 <0.9.0;\r\n\r\ncontract Battleships {\r\n    uint8 public constant NUMBER_OF_SHIP_SQUARES = 20;\r\n    uint8 public constant BOARD_SIZE = 8;\r\n    enum GameStates{\r\n        WAITING, \r\n        SETTING_STAKE, \r\n        ACCEPTING_PAYMENT,\r\n        PLACING_SHIPS, \r\n        P0_FIRING,\r\n        P1_CHECKING,\r\n        P1_FIRING,\r\n        P0_CHECKING,\r\n        CHECKING_WINNER,\r\n        DONE,\r\n        NONE\r\n    }\r\n\r\n    // In this struct we save the view a player has of its opponent's board\r\n    struct Board{\r\n        bool valid;\r\n        // N*N matrix of bits to store hits\r\n        // bool[BOARD_SIZE][BOARD_SIZE] shots;\r\n        // # of enemy pieces still left on the board\r\n        // goes down by one each time we receive one 'you hit' event\r\n        uint totalPieces;\r\n        // 8*8, we use this to avoid cheating\r\n        uint totalShots;\r\n    }\r\n\r\n    struct Player{\r\n        bool valid;\r\n        bool hasPaidStake;\r\n        address playerAddress;\r\n        uint proposedStake;\r\n        bytes32 boardTreeRoot;\r\n        Board shots_board;\r\n    }\r\n\r\n    struct Game{\r\n        bool valid;\r\n        bool canPay;\r\n        // host is always player[0]\r\n        Player[2] players;\r\n        GameStates state;\r\n        uint decidedStake;\r\n        // used for foul accusation, a foul is triggered after 5 blocks\r\n        uint blockNumber;\r\n        // player 0 or player 1\r\n        // might turn it into address, we will see\r\n        bool accuser;\r\n        // whether or not this game should be in the public pool of joinable games\r\n        bool privateGame;\r\n        address winner;\r\n    }\r\n\r\n    mapping(uint => Game) private openGames;\r\n\r\n    Game private gameTrampoline;\r\n    Player private playerTrampoline;\r\n    Board private trampolineBoard;\r\n    // used in generating UUIDs for the games\r\n    // for now we are gonna use this as-is\r\n    // start at 1 as 0 is used for a non-existing game\r\n    // TODO: deal with it overflowing\r\n    uint private gameCounter;\r\n    uint private lastOpenGame;\r\n    address private owner;\r\n\r\n    constructor() {\r\n        gameCounter = 1;\r\n        lastOpenGame = 1;\r\n        owner = msg.sender;\r\n    }\r\n\r\n    event ShareID(address _from, address _to, uint _gameID);\r\n    event GameStart(uint _gameID, address _host, address _challenger);\r\n    event SuggestedStake(uint _gameID, address _from, address _to, uint _stakeValue);\r\n    event GamePayable(uint _gameID, address _host, address _challenger, uint _stakeValue);\r\n    event StakePaid(uint _gameID, address _whoPaid);\r\n    event AcceptingBoards(uint _gameID);\r\n    event BoardAcknowledgeEvent(uint _gameID, address _player);\r\n    event PlayerZeroTurn(uint _gameID);\r\n    event ShotsFired(uint _gameID, uint8 _location);\r\n    event ShotsChecked(uint _gameID, uint8 _location, bool _claim, bool _validity);\r\n    event RequestBoard(uint _gameID, address _winner);\r\n    event Victory(uint _gameID, address _winner);\r\n\r\n    error InvalidGameID();\r\n    error NotInGame();\r\n    error StakeAlreadyDeposited();\r\n    error WrongStakeAmount(uint expectedStakeValue);\r\n\r\n    // Used for debug only\r\n    modifier ownerOnly(){\r\n        assert(msg.sender == owner);\r\n        _;\r\n    }\r\n\r\n    modifier gameExists(uint gameID){\r\n        assert(openGames[gameID].valid);\r\n        _;\r\n    }\r\n\r\n    modifier isInGame(uint gameID){\r\n        assert((openGames[gameID].players[0].playerAddress == msg.sender) || (openGames[gameID].players[1].playerAddress == msg.sender));\r\n        _;\r\n    }\r\n\r\n    modifier assertState(uint gameID, GameStates _state){\r\n        if(_state != GameStates.P0_FIRING && _state != GameStates.P1_FIRING && _state != GameStates.P0_CHECKING && _state != GameStates.P1_CHECKING)\r\n            assert(openGames[gameID].state == _state);\r\n        else{\r\n            // We check firing states with P0_FIRING and checking states with P0_CHECKING, for both players\r\n            uint[2] memory indexes = getIndexSender(gameID);\r\n            if(_state == GameStates.P0_FIRING){\r\n                if(indexes[0] == 0)\r\n                    assert(openGames[gameID].state == _state);\r\n                else\r\n                    assert(openGames[gameID].state == GameStates.P1_FIRING);\r\n            }\r\n            else if(_state == GameStates.P0_CHECKING){\r\n                if(indexes[0] == 0)\r\n                    assert(openGames[gameID].state == _state);\r\n                else\r\n                    assert(openGames[gameID].state == GameStates.P1_CHECKING);\r\n            }\r\n            else assert(false);\r\n        }\r\n        _;\r\n    }\r\n\r\n    modifier playerInRange(uint gameID, uint index){\r\n        assert(openGames[gameID].players[index].valid);\r\n        assert(index < openGames[gameID].players.length);\r\n        _;\r\n    }\r\n\r\n    modifier shotOnBoard(uint8 location){\r\n        assert(location < (BOARD_SIZE*BOARD_SIZE));\r\n        _;\r\n    }\r\n\r\n    modifier isWinner(uint gameID){\r\n        assert(openGames[gameID].winner == msg.sender);\r\n        _;\r\n    }\r\n\r\n    function getIndexSender (uint gameID) view private returns(uint[2] memory) {\r\n        // indexes[0]: msg.sender index\r\n        // indexes[1]: msg.sender opponent's index\r\n        uint[2] memory indexes;\r\n        if(msg.sender == openGames[gameID].players[0].playerAddress){\r\n            indexes[0] = 0;\r\n            indexes[1] = 1;\r\n        } else {\r\n            indexes[0] = 1;\r\n            indexes[1] = 0;\r\n        }\r\n        return indexes;\r\n    }\r\n\r\n    // Code from OpenZeppelin's project\r\n    // https://github.com/OpenZeppelin\r\n    function verifyCalldata(\r\n    bytes32[] calldata proof,\r\n    bytes32 root,\r\n    bytes32 leaf\r\n    ) internal pure returns (bool) {\r\n        return processProofCalldata(proof, leaf) == root;\r\n    }\r\n\r\n    function processProofCalldata(\r\n        bytes32[] calldata proof,\r\n        bytes32 leaf\r\n    ) internal pure returns (bytes32) {\r\n        bytes32 computedHash = leaf;\r\n        for (uint256 i = 0; i < proof.length; i++) {\r\n            computedHash = _hashPair(computedHash, proof[i]);\r\n        }\r\n        return computedHash;\r\n    }\r\n\r\n    function _hashPair(bytes32 a, bytes32 b)\r\n        private\r\n        pure\r\n        returns(bytes32)\r\n    {\r\n        return a < b ? _efficientHash(a, b) : _efficientHash(b, a);\r\n    }\r\n\r\n    function _efficientHash(bytes32 a, bytes32 b)\r\n        private\r\n        pure\r\n        returns (bytes32 value)\r\n    {\r\n        assembly {\r\n            mstore(0x00, a)\r\n            mstore(0x20, b)\r\n            value := keccak256(0x00, 0x40)\r\n        }\r\n    }\r\n    // end of OpenZeppelin code\r\n\r\n    // create a Game value, add it to openGames, populate the Player[0]\r\n    function newGame(bool isPrivate) public {\r\n        uint gameID = gameCounter;\r\n        gameCounter++;\r\n        Game storage game = gameTrampoline;\r\n        Player storage host = playerTrampoline;\r\n        host.playerAddress = msg.sender;\r\n        host.valid = true;\r\n        host.hasPaidStake = false;\r\n        game.players[0] = host;\r\n        game.state = GameStates.WAITING;\r\n        game.privateGame = isPrivate;\r\n        game.valid = true;\r\n        game.canPay = false;\r\n        openGames[gameID] = game;\r\n        emit ShareID(address(this), msg.sender, gameID);\r\n        return;\r\n    }\r\n    \r\n    function joinGame(uint gameID) public {\r\n        if(gameID == 0){\r\n            // pick an unassigned game in sequential order\r\n            gameID = lastOpenGame;\r\n            while(gameID <= gameCounter){\r\n                // ignore games with sender as host (you can still join your own games directly if you're that lonely)\r\n                if(openGames[gameID].valid == true && \r\n                    openGames[gameID].state == GameStates.WAITING && \r\n                    openGames[gameID].players[0].playerAddress != msg.sender && \r\n                    !openGames[gameID].privateGame){\r\n                    break;\r\n                }\r\n                gameID++;\r\n            }\r\n            // update the lastOpenGame counter no matter what\r\n            lastOpenGame = gameID;\r\n        }\r\n        // if the game wasn't valid, throw an error\r\n        assert(openGames[gameID].valid);\r\n        // set msg sender as this game's player 2\r\n        Player storage challenger = playerTrampoline;\r\n        challenger.playerAddress = msg.sender;\r\n        challenger.valid = true;\r\n        challenger.hasPaidStake = false;\r\n        openGames[gameID].players[1] = challenger;\r\n        // update this game's status\r\n        openGames[gameID].state = GameStates.SETTING_STAKE;\r\n        // alert the players\r\n        emit GameStart(gameID, openGames[gameID].players[0].playerAddress, msg.sender);\r\n        return;\r\n    }\r\n\r\n    function checkGameState(uint gameID) public view returns (GameStates) {\r\n        if (openGames[gameID].valid){\r\n            return openGames[gameID].state;\r\n        }\r\n        else \r\n            return(GameStates.NONE);\r\n    }\r\n\r\n    function checkGamePlayerOne(uint gameID) public view returns (address) {\r\n        if (openGames[gameID].valid && openGames[gameID].players[0].valid){\r\n            return openGames[gameID].players[0].playerAddress;\r\n        }\r\n        else \r\n            return(address(0));\r\n    }\r\n\r\n    function checkGamePlayerTwo(uint gameID) public view returns (address) {\r\n        if (openGames[gameID].valid && openGames[gameID].players[1].valid){\r\n            return openGames[gameID].players[1].playerAddress;\r\n        }\r\n        else \r\n            return(address(0));\r\n    }\r\n\r\n    // Function to propose and agree upon a stake between players\r\n    function proposeStake(uint gameID, uint stakeValue) gameExists(gameID) isInGame(gameID) assertState(gameID, GameStates.SETTING_STAKE) public{\r\n        Game memory game = openGames[gameID];\r\n        // Check whether or not this player's opponent has already proposed a stake\r\n        uint opponentIndex;\r\n        uint stakerIndex;\r\n        if(msg.sender == game.players[0].playerAddress){\r\n            opponentIndex = 1;\r\n            stakerIndex = 0;\r\n        } else {\r\n            opponentIndex = 0;\r\n            stakerIndex = 1;\r\n        }\r\n        uint opponentStake = game.players[opponentIndex].proposedStake;\r\n        // set this player's proposed stake to their message\r\n        openGames[gameID].players[stakerIndex].proposedStake = stakeValue;\r\n        // if the opponent has proposed a stake we check whether or not it equals the one proposed by us\r\n        // 0 is not a valid stake\r\n        if(opponentStake != 0 && opponentStake == stakeValue){\r\n            openGames[gameID].decidedStake = stakeValue;\r\n            openGames[gameID].state = GameStates.ACCEPTING_PAYMENT;\r\n            emit GamePayable(gameID, game.players[0].playerAddress, game.players[1].playerAddress, stakeValue);\r\n        }else{\r\n            emit SuggestedStake(gameID, msg.sender, game.players[opponentIndex].playerAddress, stakeValue);\r\n        }\r\n        return;\r\n    }\r\n\r\n    function checkStakePlayerOne(uint gameID) public view returns (uint) {\r\n        if (openGames[gameID].valid && openGames[gameID].players[0].valid){\r\n            return openGames[gameID].players[0].proposedStake;\r\n        }\r\n        else \r\n            return(0);\r\n    }\r\n\r\n    function checkStakePlayerTwo(uint gameID) public view returns (uint) {\r\n        if (openGames[gameID].valid && openGames[gameID].players[1].valid){\r\n            return openGames[gameID].players[1].proposedStake;\r\n        }\r\n        else \r\n            return(0);\r\n    }\r\n\r\n    function checkStakeGame(uint gameID) public view returns (uint) {\r\n        if (openGames[gameID].valid && openGames[gameID].players[0].valid && openGames[gameID].players[1].valid)\r\n            return openGames[gameID].decidedStake;\r\n        else\r\n            return(0);\r\n    }\r\n    \r\n    function payStake(uint gameID) gameExists(gameID) isInGame(gameID) assertState(gameID, GameStates.ACCEPTING_PAYMENT) external payable {\r\n        if((msg.sender == openGames[gameID].players[0].playerAddress && openGames[gameID].players[0].hasPaidStake) ||\r\n            (msg.sender == openGames[gameID].players[1].playerAddress && openGames[gameID].players[1].hasPaidStake))\r\n            revert StakeAlreadyDeposited();\r\n        // only accept payments for the exact amount owed\r\n        if(msg.value != openGames[gameID].decidedStake)\r\n            revert WrongStakeAmount(openGames[gameID].decidedStake);\r\n        // now we check who the sender is\r\n        uint senderIndex;\r\n        uint challengerIndex;\r\n        if(msg.sender == openGames[gameID].players[0].playerAddress){\r\n            senderIndex = 0;\r\n            challengerIndex = 1;\r\n        }else{\r\n            senderIndex = 1;\r\n            challengerIndex = 0;\r\n        }\r\n        openGames[gameID].players[senderIndex].hasPaidStake = true;\r\n        emit StakePaid(gameID, msg.sender);\r\n        // if both players have paid the owed stake the game can move on to its next state\r\n        if(openGames[gameID].players[challengerIndex].hasPaidStake){\r\n            openGames[gameID].state = GameStates.PLACING_SHIPS;\r\n            emit AcceptingBoards(gameID);\r\n        }\r\n    }\r\n\r\n    function checkPaymentPlayerOne(uint gameID) public view returns (bool) {\r\n        if (openGames[gameID].valid && openGames[gameID].players[0].valid){\r\n            return openGames[gameID].players[0].hasPaidStake;\r\n        }\r\n        else \r\n            return(false);\r\n    }\r\n\r\n    function checkPaymentPlayerTwo(uint gameID) public view returns (bool) {\r\n        if (openGames[gameID].valid && openGames[gameID].players[1].valid){\r\n            return openGames[gameID].players[1].hasPaidStake;\r\n        }\r\n        else \r\n            return(false);\r\n    }\r\n\r\n    function checkGamePayable(uint gameID) public view returns (bool) {\r\n        if (openGames[gameID].valid && openGames[gameID].players[0].valid && openGames[gameID].players[1].valid)\r\n            return openGames[gameID].canPay;\r\n        else\r\n            return(false);\r\n    }\r\n    \r\n    function PlaceShips(uint gameID, bytes32 boardRoot) gameExists(gameID) isInGame(gameID) assertState(gameID, GameStates.PLACING_SHIPS) public{\r\n        uint index;\r\n        uint oppIdx;\r\n        msg.sender == openGames[gameID].players[0].playerAddress ? index = 0 : index = 1;\r\n        msg.sender == openGames[gameID].players[0].playerAddress ? oppIdx = 1 : oppIdx = 0;\r\n        require(openGames[gameID].players[index].boardTreeRoot == 0x0);\r\n        // Instantiate a new shots board\r\n        // Instantiate the Board struct itself and assign it to a player\r\n        Board storage playerBoard = trampolineBoard;\r\n        trampolineBoard.valid = true;\r\n        trampolineBoard.totalPieces = NUMBER_OF_SHIP_SQUARES;\r\n        trampolineBoard.totalShots = (BOARD_SIZE*BOARD_SIZE);\r\n        openGames[gameID].players[index].shots_board = playerBoard;\r\n        // save the received boardRoot, finally\r\n        openGames[gameID].players[index].boardTreeRoot = boardRoot;\r\n        emit BoardAcknowledgeEvent(gameID, msg.sender);\r\n        if(openGames[gameID].players[oppIdx].boardTreeRoot != 0x0){\r\n            openGames[gameID].state = GameStates.P0_FIRING;\r\n            emit PlayerZeroTurn(gameID);\r\n        }\r\n    }\r\n\r\n    function getPlayerBoardRoot(uint gameID, uint index) playerInRange(gameID, index) gameExists(gameID) private view returns(bytes32){\r\n        return openGames[gameID].players[index].boardTreeRoot;\r\n    }\r\n\r\n    function getPlayerOneBoardRoot(uint gameID) public view returns (bytes32){\r\n        return getPlayerBoardRoot(gameID, 0);\r\n    }\r\n\r\n    function getPlayerTwoBoardRoot(uint gameID) public view returns (bytes32){\r\n        return getPlayerBoardRoot(gameID, 1);\r\n    }\r\n\r\n    // We should never have any use for these following functions\r\n    // Marking them as DEPRECATED now\r\n    // we will see if they survive the cutting room floor\r\n    \r\n    // DEPRECATED\r\n    function getPlayerShotsBoard(uint gameID, uint index) playerInRange(gameID, index) gameExists(gameID) private view returns(bool){\r\n        return openGames[gameID].players[index].shots_board.valid;\r\n    }\r\n\r\n    // DEPRECATED\r\n    function getPlayerOneShotsBoard(uint gameID) public view returns (bool){\r\n        return getPlayerShotsBoard(gameID, 0);\r\n    }\r\n\r\n    // DEPRECATED\r\n    function getPlayerTwoShotsBoard(uint gameID) public view returns (bool){\r\n        return getPlayerShotsBoard(gameID, 1);\r\n    }\r\n\r\n    // for info on what location is see \"Implementation of the user-side game board\" in README.md\r\n    function FireTorpedo(uint gameID, uint8 location) gameExists(gameID) isInGame(gameID) shotOnBoard(location) assertState(gameID, GameStates.P0_FIRING) public {\r\n        uint[2] memory indexes = getIndexSender(gameID);\r\n        // Rotate into correct next state\r\n        openGames[gameID].state == GameStates.P0_FIRING ? openGames[gameID].state = GameStates.P1_CHECKING : openGames[gameID].state = GameStates.P0_CHECKING;\r\n        // Now for some game logic\r\n        // whatever happens, we lower the totalShots counter of our system by one\r\n        openGames[gameID].players[indexes[0]].shots_board.totalShots--;\r\n        // Then we evaluate whether or not this is zero. If it is, This party wins automatically.\r\n        // We do this here to avoid opponents stalling out on the reply for 5 blocks on what is a foregone conclusion\r\n        if (openGames[gameID].players[indexes[0]].shots_board.totalShots == 0){\r\n            openGames[gameID].winner = msg.sender;\r\n            openGames[gameID].state = GameStates.CHECKING_WINNER;\r\n            RequestWinnerBoard(gameID, msg.sender);\r\n        } else {\r\n            emit ShotsFired(gameID, location);\r\n        }\r\n    }\r\n    /*\r\n     gameExists(gameID) isInGame(gameID) shotOnBoard(location) assertState(gameID, GameStates.P0_CHECKING)\r\n    */\r\n    function ConfirmShot(uint gameID, uint8 location, bool isHit, bytes32 leaf, bytes32[] calldata proof) public {\r\n        // we assert manually rather than with modifiers to avoid a stack-too-deep error\r\n        assert(openGames[gameID].valid);\r\n        assert(location < (BOARD_SIZE*BOARD_SIZE));\r\n        if(openGames[gameID].players[0].playerAddress == msg.sender){\r\n            assert(openGames[gameID].state == GameStates.P0_CHECKING);\r\n        } else if (openGames[gameID].players[1].playerAddress == msg.sender){\r\n            assert(openGames[gameID].state == GameStates.P1_CHECKING);\r\n        } else {\r\n            assert(false);\r\n        }\r\n        uint[2] memory indexes = getIndexSender(gameID);\r\n        // make sure this node corresponds to the board tile and truth value we are checking\r\n        assert(leaf == GenLeafNode(location, isHit));\r\n        // execute the proof test\r\n        if(verifyCalldata(proof, openGames[gameID].players[indexes[0]].boardTreeRoot, leaf)){\r\n            // we could verify this user's proof\r\n            if (isHit){\r\n                // decrement our opponent's view of our total pieces\r\n                openGames[gameID].players[indexes[1]].shots_board.totalPieces--;\r\n                // if this was our last piece, we lost\r\n                if(openGames[gameID].players[indexes[1]].shots_board.totalPieces == 0){\r\n                    openGames[gameID].winner = openGames[gameID].players[indexes[1]].playerAddress;\r\n                    openGames[gameID].state = GameStates.CHECKING_WINNER;\r\n                    RequestWinnerBoard(gameID, openGames[gameID].winner);\r\n                    return;\r\n                }\r\n            }\r\n            // rotate state\r\n            openGames[gameID].state == GameStates.P1_CHECKING ? openGames[gameID].state = GameStates.P1_FIRING : openGames[gameID].state = GameStates.P0_FIRING;\r\n            emit ShotsChecked(gameID, location, isHit, true);\r\n        } else {\r\n            // else we mark him as foul'd but do NOT rotate the state.\r\n            // TODO IMPLEMENT FOUL MECHANICS\r\n            emit ShotsChecked(gameID, location, isHit, false);\r\n        }\r\n    }\r\n\r\n    // this function generates a node locally in the same way a client would generate it\r\n    // it could be internal, we keep it public for now for debug purposes\r\n    function GenLeafNode(uint8 tile, bool ship) pure public returns (bytes32) {\r\n        return keccak256(abi.encode(tile,ship));\r\n    }\r\n\r\n    // a player who sees their address here will need to call VerifyWinner\r\n    function RequestWinnerBoard(uint gameID, address winnerAddress) private {\r\n        emit RequestBoard(gameID, winnerAddress);\r\n        // TODO: start foul counter\r\n    }\r\n\r\n    // sadly using our modifiers here runs into a stack too deep compilation issue\r\n    // ergo we must assert a few security values by hand\r\n    function VerifyWinner(\r\n    uint gameID,  \r\n    uint8[] calldata tiles,\r\n    bool[] calldata ships,\r\n    bytes32[] calldata nodes,\r\n    bytes32[][] calldata proofs,\r\n    bytes32 root\r\n    ) public {\r\n        uint winnerIndex;\r\n        assert(openGames[gameID].valid);\r\n        if(openGames[gameID].winner == openGames[gameID].players[0].playerAddress){\r\n            winnerIndex = 0;\r\n        } else {\r\n            winnerIndex = 1;\r\n        }\r\n        assert(openGames[gameID].winner == msg.sender);\r\n        assert(root == openGames[gameID].players[winnerIndex].boardTreeRoot);\r\n        assert(tiles.length == (BOARD_SIZE*BOARD_SIZE));\r\n        assert(ships.length == (BOARD_SIZE*BOARD_SIZE));\r\n        // First operation: make sure this board really has the required number of ships on it\r\n        // and make sure the winner didn't send us a different board\r\n        // in the same cycle, verify that the node is part of the tree\r\n        // we already made sure this root is the correct one\r\n        uint8 shipsTotal = 0;\r\n        for(uint8 i = 0; i < (BOARD_SIZE*BOARD_SIZE); i++){\r\n            if(ships[i])\r\n                shipsTotal++;\r\n            assert(nodes[i] == GenLeafNode(tiles[i], ships[i]));\r\n            assert(verifyCalldata(proofs[i], root, nodes[i]));\r\n        }\r\n        assert(shipsTotal == NUMBER_OF_SHIP_SQUARES);\r\n        // we don't use a conditional branch to alert the other player, as a Foul has already been triggered.\r\n        openGames[gameID].canPay = true;\r\n        emit Victory(gameID, msg.sender);\r\n    }\r\n\r\n    // Assortment of debug functions\r\n    \r\n     function PreviewLeafNode(uint8 tile, bool ship) pure public returns (bytes memory) {\r\n        return abi.encode(tile, ship);\r\n    }\r\n\r\n    function QuickCheck(bytes32 leaf, bytes32 root, bytes32[] calldata proof) public returns (bool){\r\n        bool forTheDebugger = verifyCalldata(proof, root, leaf);\r\n        emit ShotsChecked(0, 0, false, forTheDebugger);\r\n        return forTheDebugger;\r\n    }\r\n\r\n    function EchoBytes(bytes32 proof) pure public returns (bytes32) {\r\n        return proof;\r\n    }\r\n\r\n    function EchoProof(bytes32[] calldata proof) pure public returns (bytes32[] calldata) {\r\n        return proof;\r\n    }\r\n\r\n    function ChangeState(uint gameID, GameStates state) ownerOnly() public {\r\n        openGames[gameID].state = state;\r\n    }\r\n\r\n    function SetWinner(uint gameID, address winner) ownerOnly() public {\r\n        openGames[gameID].winner = winner;\r\n    }\r\n}",
  "sourcePath": "F:\\Documents\\Code\\School\\P2PBC\\Battleships\\contracts\\Battleships.sol",
  "compiler": {
    "name": "solc",
    "version": "0.8.19+commit.7dd6d404.Emscripten.clang"
  },
  "schemaVersion": "3.4.13",
  "updatedAt": "2023-05-25T04:05:31.544Z",
  "networkType": "ethereum",
  "devdoc": {
    "kind": "dev",
    "methods": {},
    "version": 1
  },
  "userdoc": {
    "kind": "user",
    "methods": {},
    "version": 1
  }
}