{
  "contractName": "Battleships",
  "abi": [
    {
      "inputs": [],
      "stateMutability": "nonpayable",
      "type": "constructor"
    },
    {
      "inputs": [],
      "name": "InvalidGameID",
      "type": "error"
    },
    {
      "inputs": [],
      "name": "NoOpenGames",
      "type": "error"
    },
    {
      "inputs": [],
      "name": "NotInGame",
      "type": "error"
    },
    {
      "inputs": [],
      "name": "StakeAlreadyDeposited",
      "type": "error"
    },
    {
      "inputs": [
        {
          "internalType": "uint256",
          "name": "expectedStakeValue",
          "type": "uint256"
        }
      ],
      "name": "WrongStakeAmount",
      "type": "error"
    },
    {
      "anonymous": false,
      "inputs": [
        {
          "indexed": false,
          "internalType": "uint256",
          "name": "_gameID",
          "type": "uint256"
        }
      ],
      "name": "AcceptingBoards",
      "type": "event"
    },
    {
      "anonymous": false,
      "inputs": [
        {
          "indexed": false,
          "internalType": "uint256",
          "name": "_gameID",
          "type": "uint256"
        },
        {
          "indexed": false,
          "internalType": "address",
          "name": "_player",
          "type": "address"
        }
      ],
      "name": "BoardAcknowledgeEvent",
      "type": "event"
    },
    {
      "anonymous": false,
      "inputs": [
        {
          "indexed": false,
          "internalType": "uint256",
          "name": "_gameID",
          "type": "uint256"
        },
        {
          "indexed": false,
          "internalType": "address",
          "name": "_accused",
          "type": "address"
        },
        {
          "indexed": false,
          "internalType": "uint256",
          "name": "_block",
          "type": "uint256"
        }
      ],
      "name": "Foul",
      "type": "event"
    },
    {
      "anonymous": false,
      "inputs": [
        {
          "indexed": false,
          "internalType": "uint256",
          "name": "_gameID",
          "type": "uint256"
        }
      ],
      "name": "GameEnded",
      "type": "event"
    },
    {
      "anonymous": false,
      "inputs": [
        {
          "indexed": false,
          "internalType": "uint256",
          "name": "_gameID",
          "type": "uint256"
        },
        {
          "indexed": false,
          "internalType": "address",
          "name": "_host",
          "type": "address"
        },
        {
          "indexed": false,
          "internalType": "address",
          "name": "_challenger",
          "type": "address"
        },
        {
          "indexed": false,
          "internalType": "uint256",
          "name": "_stakeValue",
          "type": "uint256"
        }
      ],
      "name": "GamePayable",
      "type": "event"
    },
    {
      "anonymous": false,
      "inputs": [
        {
          "indexed": false,
          "internalType": "uint256",
          "name": "_gameID",
          "type": "uint256"
        },
        {
          "indexed": false,
          "internalType": "address",
          "name": "_host",
          "type": "address"
        },
        {
          "indexed": false,
          "internalType": "address",
          "name": "_challenger",
          "type": "address"
        }
      ],
      "name": "GameStart",
      "type": "event"
    },
    {
      "anonymous": false,
      "inputs": [
        {
          "indexed": false,
          "internalType": "uint256",
          "name": "_gameID",
          "type": "uint256"
        }
      ],
      "name": "PlayerZeroTurn",
      "type": "event"
    },
    {
      "anonymous": false,
      "inputs": [
        {
          "indexed": false,
          "internalType": "uint256",
          "name": "_gameID",
          "type": "uint256"
        },
        {
          "indexed": false,
          "internalType": "address",
          "name": "_winner",
          "type": "address"
        }
      ],
      "name": "RequestBoard",
      "type": "event"
    },
    {
      "anonymous": false,
      "inputs": [
        {
          "indexed": false,
          "internalType": "address",
          "name": "_from",
          "type": "address"
        },
        {
          "indexed": false,
          "internalType": "address",
          "name": "_to",
          "type": "address"
        },
        {
          "indexed": false,
          "internalType": "uint256",
          "name": "_gameID",
          "type": "uint256"
        }
      ],
      "name": "ShareID",
      "type": "event"
    },
    {
      "anonymous": false,
      "inputs": [
        {
          "indexed": false,
          "internalType": "uint256",
          "name": "_gameID",
          "type": "uint256"
        },
        {
          "indexed": false,
          "internalType": "uint8",
          "name": "_location",
          "type": "uint8"
        },
        {
          "indexed": false,
          "internalType": "bool",
          "name": "_claim",
          "type": "bool"
        },
        {
          "indexed": false,
          "internalType": "bool",
          "name": "_validity",
          "type": "bool"
        },
        {
          "indexed": false,
          "internalType": "address",
          "name": "_from",
          "type": "address"
        }
      ],
      "name": "ShotsChecked",
      "type": "event"
    },
    {
      "anonymous": false,
      "inputs": [
        {
          "indexed": false,
          "internalType": "uint256",
          "name": "_gameID",
          "type": "uint256"
        },
        {
          "indexed": false,
          "internalType": "uint8",
          "name": "_location",
          "type": "uint8"
        },
        {
          "indexed": false,
          "internalType": "address",
          "name": "_from",
          "type": "address"
        }
      ],
      "name": "ShotsFired",
      "type": "event"
    },
    {
      "anonymous": false,
      "inputs": [
        {
          "indexed": false,
          "internalType": "uint256",
          "name": "_gameID",
          "type": "uint256"
        },
        {
          "indexed": false,
          "internalType": "address",
          "name": "_whoPaid",
          "type": "address"
        }
      ],
      "name": "StakePaid",
      "type": "event"
    },
    {
      "anonymous": false,
      "inputs": [
        {
          "indexed": false,
          "internalType": "uint256",
          "name": "_gameID",
          "type": "uint256"
        },
        {
          "indexed": false,
          "internalType": "address",
          "name": "_from",
          "type": "address"
        },
        {
          "indexed": false,
          "internalType": "address",
          "name": "_to",
          "type": "address"
        },
        {
          "indexed": false,
          "internalType": "uint256",
          "name": "_stakeValue",
          "type": "uint256"
        }
      ],
      "name": "SuggestedStake",
      "type": "event"
    },
    {
      "anonymous": false,
      "inputs": [
        {
          "indexed": false,
          "internalType": "uint256",
          "name": "_gameID",
          "type": "uint256"
        },
        {
          "indexed": false,
          "internalType": "address",
          "name": "_winner",
          "type": "address"
        }
      ],
      "name": "Victory",
      "type": "event"
    },
    {
      "inputs": [],
      "name": "BOARD_SIZE",
      "outputs": [
        {
          "internalType": "uint8",
          "name": "",
          "type": "uint8"
        }
      ],
      "stateMutability": "view",
      "type": "function",
      "constant": true
    },
    {
      "inputs": [],
      "name": "NUMBER_OF_SHIP_SQUARES",
      "outputs": [
        {
          "internalType": "uint8",
          "name": "",
          "type": "uint8"
        }
      ],
      "stateMutability": "view",
      "type": "function",
      "constant": true
    },
    {
      "inputs": [
        {
          "internalType": "bool",
          "name": "isPrivate",
          "type": "bool"
        }
      ],
      "name": "newGame",
      "outputs": [],
      "stateMutability": "nonpayable",
      "type": "function"
    },
    {
      "inputs": [
        {
          "internalType": "uint256",
          "name": "gameID",
          "type": "uint256"
        }
      ],
      "name": "joinGame",
      "outputs": [],
      "stateMutability": "nonpayable",
      "type": "function"
    },
    {
      "inputs": [
        {
          "internalType": "uint256",
          "name": "gameID",
          "type": "uint256"
        }
      ],
      "name": "checkGameState",
      "outputs": [
        {
          "internalType": "enum Battleships.GameStates",
          "name": "",
          "type": "uint8"
        }
      ],
      "stateMutability": "view",
      "type": "function",
      "constant": true
    },
    {
      "inputs": [
        {
          "internalType": "uint256",
          "name": "gameID",
          "type": "uint256"
        },
        {
          "internalType": "uint256",
          "name": "index",
          "type": "uint256"
        }
      ],
      "name": "checkGamePlayer",
      "outputs": [
        {
          "internalType": "address",
          "name": "",
          "type": "address"
        }
      ],
      "stateMutability": "view",
      "type": "function",
      "constant": true
    },
    {
      "inputs": [
        {
          "internalType": "uint256",
          "name": "gameID",
          "type": "uint256"
        },
        {
          "internalType": "uint256",
          "name": "stakeValue",
          "type": "uint256"
        }
      ],
      "name": "proposeStake",
      "outputs": [],
      "stateMutability": "nonpayable",
      "type": "function"
    },
    {
      "inputs": [
        {
          "internalType": "uint256",
          "name": "gameID",
          "type": "uint256"
        }
      ],
      "name": "checkStakePlayerOne",
      "outputs": [
        {
          "internalType": "uint256",
          "name": "",
          "type": "uint256"
        }
      ],
      "stateMutability": "view",
      "type": "function",
      "constant": true
    },
    {
      "inputs": [
        {
          "internalType": "uint256",
          "name": "gameID",
          "type": "uint256"
        }
      ],
      "name": "checkStakePlayerTwo",
      "outputs": [
        {
          "internalType": "uint256",
          "name": "",
          "type": "uint256"
        }
      ],
      "stateMutability": "view",
      "type": "function",
      "constant": true
    },
    {
      "inputs": [
        {
          "internalType": "uint256",
          "name": "gameID",
          "type": "uint256"
        }
      ],
      "name": "checkStakeGame",
      "outputs": [
        {
          "internalType": "uint256",
          "name": "",
          "type": "uint256"
        }
      ],
      "stateMutability": "view",
      "type": "function",
      "constant": true
    },
    {
      "inputs": [
        {
          "internalType": "uint256",
          "name": "gameID",
          "type": "uint256"
        }
      ],
      "name": "payStake",
      "outputs": [],
      "stateMutability": "payable",
      "type": "function",
      "payable": true
    },
    {
      "inputs": [
        {
          "internalType": "uint256",
          "name": "gameID",
          "type": "uint256"
        }
      ],
      "name": "declineStake",
      "outputs": [],
      "stateMutability": "nonpayable",
      "type": "function"
    },
    {
      "inputs": [
        {
          "internalType": "uint256",
          "name": "gameID",
          "type": "uint256"
        }
      ],
      "name": "checkGamePayable",
      "outputs": [
        {
          "internalType": "bool",
          "name": "",
          "type": "bool"
        }
      ],
      "stateMutability": "view",
      "type": "function",
      "constant": true
    },
    {
      "inputs": [
        {
          "internalType": "uint256",
          "name": "gameID",
          "type": "uint256"
        },
        {
          "internalType": "bytes32",
          "name": "boardRoot",
          "type": "bytes32"
        }
      ],
      "name": "PlaceShips",
      "outputs": [],
      "stateMutability": "nonpayable",
      "type": "function"
    },
    {
      "inputs": [
        {
          "internalType": "uint256",
          "name": "gameID",
          "type": "uint256"
        },
        {
          "internalType": "uint8",
          "name": "location",
          "type": "uint8"
        }
      ],
      "name": "FireTorpedo",
      "outputs": [],
      "stateMutability": "nonpayable",
      "type": "function"
    },
    {
      "inputs": [
        {
          "internalType": "uint256",
          "name": "gameID",
          "type": "uint256"
        },
        {
          "internalType": "uint8",
          "name": "location",
          "type": "uint8"
        },
        {
          "internalType": "bool",
          "name": "isHit",
          "type": "bool"
        },
        {
          "internalType": "bytes32",
          "name": "leaf",
          "type": "bytes32"
        },
        {
          "internalType": "bytes32[]",
          "name": "proof",
          "type": "bytes32[]"
        }
      ],
      "name": "ConfirmShot",
      "outputs": [],
      "stateMutability": "nonpayable",
      "type": "function"
    },
    {
      "inputs": [
        {
          "internalType": "uint8",
          "name": "tile",
          "type": "uint8"
        },
        {
          "internalType": "bool",
          "name": "ship",
          "type": "bool"
        }
      ],
      "name": "GenLeafNode",
      "outputs": [
        {
          "internalType": "bytes32",
          "name": "",
          "type": "bytes32"
        }
      ],
      "stateMutability": "pure",
      "type": "function",
      "constant": true
    },
    {
      "inputs": [
        {
          "internalType": "uint256",
          "name": "gameID",
          "type": "uint256"
        },
        {
          "internalType": "uint8[]",
          "name": "tiles",
          "type": "uint8[]"
        },
        {
          "internalType": "bool[]",
          "name": "ships",
          "type": "bool[]"
        },
        {
          "internalType": "bytes32[]",
          "name": "nodes",
          "type": "bytes32[]"
        },
        {
          "internalType": "bytes32[][]",
          "name": "proofs",
          "type": "bytes32[][]"
        },
        {
          "internalType": "bytes32",
          "name": "root",
          "type": "bytes32"
        }
      ],
      "name": "VerifyWinner",
      "outputs": [],
      "stateMutability": "nonpayable",
      "type": "function"
    },
    {
      "inputs": [
        {
          "internalType": "bytes32",
          "name": "node",
          "type": "bytes32"
        }
      ],
      "name": "echoNodeBytes",
      "outputs": [
        {
          "internalType": "bytes32",
          "name": "",
          "type": "bytes32"
        }
      ],
      "stateMutability": "pure",
      "type": "function",
      "constant": true
    },
    {
      "inputs": [
        {
          "internalType": "uint256",
          "name": "gameID",
          "type": "uint256"
        }
      ],
      "name": "AbandonGame",
      "outputs": [],
      "stateMutability": "nonpayable",
      "type": "function"
    },
    {
      "inputs": [
        {
          "internalType": "uint256",
          "name": "gameID",
          "type": "uint256"
        }
      ],
      "name": "WithdrawWinnings",
      "outputs": [],
      "stateMutability": "nonpayable",
      "type": "function"
    },
    {
      "inputs": [
        {
          "internalType": "uint256",
          "name": "gameID",
          "type": "uint256"
        }
      ],
      "name": "FoulAccusation",
      "outputs": [],
      "stateMutability": "nonpayable",
      "type": "function"
    },
    {
      "inputs": [
        {
          "internalType": "uint256",
          "name": "gameID",
          "type": "uint256"
        }
      ],
      "name": "CheckFoulTimer",
      "outputs": [],
      "stateMutability": "nonpayable",
      "type": "function"
    },
    {
      "inputs": [
        {
          "internalType": "uint256",
          "name": "gameID",
          "type": "uint256"
        },
        {
          "internalType": "enum Battleships.GameStates",
          "name": "state",
          "type": "uint8"
        },
        {
          "internalType": "address",
          "name": "winner",
          "type": "address"
        }
      ],
      "name": "ChangeState",
      "outputs": [],
      "stateMutability": "nonpayable",
      "type": "function"
    }
  ],
  "bytecode": "0x608060405234801561001057600080fd5b50600160248190556025556026805460ff196101003302166001600160a81b031990911617600517905561388d806100496000396000f3fe60806040526004361061014b5760003560e01c80639a2b17be116100b6578063e0dd9bb41161006f578063e0dd9bb4146103f4578063e6f4a9b714610414578063efaa55a014610434578063f28ae7dd14610454578063f7b68ea914610474578063fba523b71461049457600080fd5b80639a2b17be146103075780639a7e4cea14610327578063aa3ee91514610354578063b549fe7014610374578063bd7c88f814610392578063dc4a3e95146103df57600080fd5b80636930aa4d116101085780636930aa4d1461021a578063699f5aeb1461024157806374f760e41461026f57806379fbd95d1461028f57806395287e96146102af57806399396b11146102cf57600080fd5b8063012b61f01461015057806307e79cb3146101855780630e37dcd0146101a757806316337b89146101ba5780632b170aac146101da5780633c2d3a88146101fa575b600080fd5b34801561015c57600080fd5b5061017061016b36600461338d565b6104b4565b60405190151581526020015b60405180910390f35b34801561019157600080fd5b506101a56101a03660046133a6565b61052d565b005b6101a56101b536600461338d565b6105b2565b3480156101c657600080fd5b506101a56101d53660046133f8565b6108af565b3480156101e657600080fd5b506101a56101f5366004613428565b610c1d565b34801561020657600080fd5b506101a561021536600461338d565b610e5e565b34801561022657600080fd5b5061022f601481565b60405160ff909116815260200161017c565b34801561024d57600080fd5b5061026161025c36600461338d565b610f52565b60405190815260200161017c565b34801561027b57600080fd5b506101a561028a36600461338d565b610fb9565b34801561029b57600080fd5b506101a56102aa3660046134a9565b6110d2565b3480156102bb57600080fd5b506101a56102ca366004613523565b611584565b3480156102db57600080fd5b506102ef6102ea3660046133f8565b611bd8565b6040516001600160a01b03909116815260200161017c565b34801561031357600080fd5b506101a561032236600461338d565b611c68565b34801561033357600080fd5b5061034761034236600461338d565b611ed3565b60405161017c9190613613565b34801561036057600080fd5b5061026161036f36600461338d565b611f0b565b34801561038057600080fd5b5061026161038f36600461338d565b90565b34801561039e57600080fd5b506102616103ad36600461363b565b6040805160ff939093166020808501919091529115158382015280518084038201815260609093019052815191012090565b3480156103eb57600080fd5b5061022f600881565b34801561040057600080fd5b506101a561040f366004613672565b611f63565b34801561042057600080fd5b506101a561042f36600461338d565b612228565b34801561044057600080fd5b506101a561044f36600461338d565b6124d9565b34801561046057600080fd5b506101a561046f3660046133f8565b612751565b34801561048057600080fd5b506101a561048f36600461338d565b612b83565b3480156104a057600080fd5b506102616104af36600461338d565b612e79565b60008181526020819052604081205460ff1680156104e3575060008281526020819052604090206001015460ff165b8015610500575060008281526020819052604090206009015460ff165b156105205750600090815260208190526040902054610100900460ff1690565b506000919050565b919050565b60265461010090046001600160a01b0316331461054c5761054c6136b4565b6000838152602081905260409020601101805483919060ff1916600183600b81111561057a5761057a6135fd565b021790555060009283526020839052604090922060150180546001600160a01b0319166001600160a01b039093169290921790915550565b600081815260208190526040902054819060ff166105d2576105d26136b4565b60008281526020819052604090206001015482906001600160a01b03620100009091041633148061062357506000818152602081905260409020600901546001600160a01b03620100009091041633145b61062f5761062f6136b4565b8260038060008381526020819052604090206011015460ff16600b811115610659576106596135fd565b14610666576106666136b4565b60008581526020819052604081206001019060080201546201000090046001600160a01b0316331480156106b05750600085815260208190526040902060010154610100900460ff165b806106fb57506000858152602081905260409020600901546201000090046001600160a01b0316331480156106fb5750600085815260208190526040902060090154610100900460ff165b1561071957604051635e558b2360e01b815260040160405180910390fd5b60008581526020819052604090206012015434146107665760008581526020819052604090819020601201549051633365c34560e11b815260048101919091526024015b60405180910390fd5b60008581526020819052604081206001015481906201000090046001600160a01b0316330361079b57506000905060016107a3565b506001905060005b6000878152602081905260409020600190810183600281106107c7576107c761369e565b6008020180549115156101000261ff00199092169190911790556107ea87612f1c565b604080518881523360208201527f95ddb9abe17699603c18cef7bcfd33947d19c8eb237e01edac0bd509b481339e910160405180910390a1600087815260208190526040902060010181600281106108445761084461369e565b6008020154610100900460ff16156108a65760008781526020818152604091829020601101805460ff1916600417905590518881527ff751b3d5e96ffa95a434b79874df7e232b82d5c688a5d61fd7b5c5ce8724712791015b60405180910390a15b50505050505050565b600082815260208190526040902054829060ff166108cf576108cf6136b4565b60008381526020819052604090206001015483906001600160a01b03620100009091041633148061092057506000818152602081905260409020600901546001600160a01b03620100009091041633145b61092c5761092c6136b4565b8360018060008381526020819052604090206011015460ff16600b811115610956576109566135fd565b14610963576109636136b4565b600086815260208190526040812081906001018160080201546201000090046001600160a01b0316331461099b5760019150816109a1565b60009150815b5060008881526020819052604081206001019060080201546201000090046001600160a01b031633146109d757506000806109dc565b506001805b50600088815260208190526040902060010182600281106109ff576109ff61369e565b60080201600201546000801b14610a1557600080fd5b601f805460ff191660011781556014602055610a326008806136e0565b60ff1660215560005b610a466008806136e0565b60ff16811015610a9757600060228260408110610a6557610a6561369e565b602091828204019190066101000a81548160ff0219169083151502179055508080610a8f90613703565b915050610a3b565b50600089815260208190526040902081906001018460028110610abc57610abc61369e565b8254600891909102919091016003818101805460ff191660ff90941615159390931783556001840154600483015560028401546005830155610b05916006019084016040613135565b505050600089815260208190526040902088906001018460028110610b2c57610b2c61369e565b6008020160020155604080518a81523360208201527fde8cdabe60db81138d1e5580b73440f47ba010dbd18575d18bad0b750987001e910160405180910390a160008981526020819052604090206001018260028110610b8e57610b8e61369e565b60080201600201546000801b14610c125760008981526020818152604091829020601181018054600260ff199091161790556001015482518c8152620100009091046001600160a01b031691810191909152338183015290517fdf72bd9cb04731c1dfa0832a380e56504fda45508a7305083a9be0f343e934219181900360600190a15b505050505050505050565b602480549081906000610c2f83613703565b90915550506017805461ff001960ff1962010000338102821661ff01600160b01b03199094169390931760019081178381168087556002805462010000600160b01b031961ffff1990911660ff94851615159097169690961761010080840485161515021795909516908690046001600160a01b0316909502949094178355601854600355601954600455601a80546005805490941695161515949094178255601b54600655601c546007559392839291610cee6008601d6040613135565b5050505060118301805460ff1990811690915560148401805460ff60a01b1916600160a01b88151502179055835461ffff1990811660019081178655600087815260208190526040902080549384168217815586549390921660ff61010094859004161515909302929092178217815584925090610d73908281019084016002613178565b50601182810154908201805460ff9092169160ff1916600183600b811115610d9d57610d9d6135fd565b021790555060128281015490820155601380830154908201556014808301805491830180546001600160a01b03198082166001600160a01b039586169081178455935460ff600160a01b91829004161515026001600160a81b03199092169093171790556015938401549390920180549092169216919091179055604080513081523360208201529081018490527f1edfba130181c8da1b98834639c59b5287912fcc01104c5a7a6e6c8cd194e3029060600160405180910390a150505050565b600081815260208190526040902054819060ff16610e7e57610e7e6136b4565b60008281526020819052604090206001015482906001600160a01b036201000090910416331480610ecf57506000818152602081905260409020600901546001600160a01b03620100009091041633145b610edb57610edb6136b4565b6000838152602081905260409020601401546001600160a01b0316610eff57600080fd5b602654610f0f9060ff164361371c565b6000848152602081905260409020601301541015610f4d57600083815260208190526040902060140154610f4d9084906001600160a01b0316612fb7565b505050565b60008181526020819052604081205460ff168015610f81575060008281526020819052604090206001015460ff165b8015610f9e575060008281526020819052604090206009015460ff165b15610520575060009081526020819052604090206012015490565b600081815260208190526040902054819060ff16610fd957610fd96136b4565b60008281526020819052604090206015015482906001600160a01b03163314611004576110046136b4565b8260098060008381526020819052604090206011015460ff16600b81111561102e5761102e6135fd565b1461103b5761103b6136b4565b60008581526020819052604081206012015461105890600261372f565b600087815260208190526040808220601101805460ff1916600a1790555191925090339083908381818185875af1925050503d80600081146110b6576040519150601f19603f3d011682016040523d82523d6000602084013e6110bb565b606091505b50509050806110c957600080fd5b6108a687613005565b60008681526020819052604090205460ff166110f0576110f06136b4565b6110fb6008806136e0565b60ff168560ff161061110f5761110f6136b4565b60008681526020819052604090206001015433620100009091046001600160a01b0316036111725760075b60008781526020819052604090206011015460ff16600b811115611160576111606135fd565b1461116d5761116d6136b4565b6111a9565b60008681526020819052604090206009015433620100009091046001600160a01b0316036111a157600561113a565b6111a96136b4565b60006111b487612ec4565b6040805160ff8916602080830191909152881515828401528251808303840181526060909201909252805191012090915084146111f3576111f36136b4565b6000878152602081905260409020815173__Merkle________________________________91637ffe9d8c9186918691600190910190600281106112395761123961369e565b6008020160020154886040518563ffffffff1660e01b81526004016112619493929190613746565b602060405180830381865af415801561127e573d6000803e3d6000fd5b505050506040513d601f19601f820116820180604052508101906112a2919061378c565b1561152b576112b087612f1c565b84156114645760008781526020818152604090912090820151600190910190600281106112df576112df61369e565b600802016003016003018660ff16604081106112fd576112fd61369e565b602081049091015460ff601f9092166101000a9004166114645760008781526020818152604090912090820151600190910190600281106113405761134061369e565b60080201600301600101600081548092919061135b906137a9565b909155505060008781526020819052604090206001908101828260200201516002811061138a5761138a61369e565b600802016003016003018760ff16604081106113a8576113a861369e565b602091828204019190066101000a81548160ff021916908315150217905550600080888152602001908152602001600020600101816001600281106113ef576113ef61369e565b6020020151600281106114045761140461369e565b6008020160030160010154600003611464576000878152602081815260409091209082015161145e918991600190910190600281106114455761144561369e565b60080201546201000090046001600160a01b0316612fb7565b5061157c565b600560008881526020819052604090206011015460ff16600b81111561148c5761148c6135fd565b146114b5576000878152602081905260409020601101805460ff191660049081179091556114d5565b6000878152602081905260409020601101805460ff191660069081179091555b506040805188815260ff88166020820152861515818301526001606082015233608082015290517f5daf1a84388bd8a6d3801b570a2f677e0915dd586765606221fbc8516e99ca2d9181900360a00190a16108a6565b6040805188815260ff8816602082015286151591810191909152600060608201523360808201527f5daf1a84388bd8a6d3801b570a2f677e0915dd586765606221fbc8516e99ca2d9060a00161089d565b505050505050565b60008a81526020819052604081205460ff166115d85760405162461bcd60e51b815260206004820152601360248201527211d85b5948191bd95cc81b9bdd08195e1a5cdd606a1b604482015260640161075d565b600860008c81526020819052604090206011015460ff16600b811115611600576116006135fd565b1461165e5760405162461bcd60e51b815260206004820152602860248201527f47616d65206973206e6f7420696e2074686520434845434b494e475f57494e4e604482015267455220737461746560c01b606482015260840161075d565b60008b815260208190526040902060018101546015909101546001600160a01b036201000090920482169116036116975750600061169b565b5060015b60008b8152602081905260409020601501546001600160a01b031633146117135760405162461bcd60e51b815260206004820152602660248201527f4f6e6c79207468652077696e6e65722063616e2076657269667920746865697260448201526508189bd85c9960d21b606482015260840161075d565b60008b815260208190526040902060010181600281106117355761173561369e565b600802016002015482146117aa5760405162461bcd60e51b815260206004820152603660248201527f54686520726f6f742070726f766964656420646f6573206e6f74206d61746368604482015275081d1a19481c9bdbdd081bd9881d1a1948189bd85c9960521b606482015260840161075d565b6117b56008806136e0565b60ff1689146118165760405162461bcd60e51b815260206004820152602760248201527f5468652074696c6573206172726179206973206e6f742074686520636f72726560448201526663742073697a6560c81b606482015260840161075d565b6118216008806136e0565b60ff1687146118825760405162461bcd60e51b815260206004820152602760248201527f546865207368697073206172726179206973206e6f742074686520636f72726560448201526663742073697a6560c81b606482015260840161075d565b6000805b6118916008806136e0565b60ff168160ff161015611aee5789898260ff168181106118b3576118b361369e565b90506020020160208101906118c89190613428565b156118db57816118d7816137c0565b9250505b6119328c8c8360ff168181106118f3576118f361369e565b905060200201602081019061190891906137df565b8b8b8460ff1681811061191d5761191d61369e565b90506020020160208101906103ad9190613428565b88888360ff168181106119475761194761369e565b90506020020135146119b65760405162461bcd60e51b815260206004820152603260248201527f546865206e6f646520646f6573206e6f74206d61746368207468652074696c6560448201527108185b99081cda1a5c081c1c9bdd9a59195960721b606482015260840161075d565b73__Merkle________________________________637ffe9d8c87878460ff168181106119e5576119e561369e565b90506020028101906119f791906137fa565b878c8c8760ff16818110611a0d57611a0d61369e565b905060200201356040518563ffffffff1660e01b8152600401611a339493929190613746565b602060405180830381865af4158015611a50573d6000803e3d6000fd5b505050506040513d601f19601f82011682018060405250810190611a74919061378c565b611adc5760405162461bcd60e51b815260206004820152603360248201527f5468652070726f6f6620646f6573206e6f74206d617463682074686520726f6f6044820152721d08185b99081b9bd919481c1c9bdd9a591959606a1b606482015260840161075d565b80611ae6816137c0565b915050611886565b5060ff8116601414611b5e5760405162461bcd60e51b815260206004820152603360248201527f54686520626f61726420646f6573206e6f7420686176652074686520636f7272604482015272656374206e756d626572206f6620736869707360681b606482015260840161075d565b60008c8152602081905260409020805461010061ff0019909116178155601101805460ff19166009179055611b928c612f1c565b604080518d81523360208201527fc2815c82adc4278d6e044948482e0d16acf9a6369fc96eff02ffc7e7cd5f39d0910160405180910390a1505050505050505050505050565b60008281526020819052604081205460ff168015611c1c575060008381526020819052604090206001018260028110611c1357611c1361369e565b600802015460ff165b15611c5e5760008381526020819052604090206001018260028110611c4357611c4361369e565b60080201546201000090046001600160a01b03169050611c62565b5060005b92915050565b600081815260208190526040902054819060ff16611c8857611c886136b4565b60008281526020819052604090206001015482906001600160a01b036201000090910416331480611cd957506000818152602081905260409020600901546001600160a01b03620100009091041633145b611ce557611ce56136b4565b6000838152602081905260408120600101546201000090046001600160a01b03163303611d1457506001611d18565b5060005b60008481526020819052604090206001018160028110611d3a57611d3a61369e565b6008020154610100900460ff168015611d8b57506000848152602081905260409020600190810190611d6d908390613844565b60028110611d7d57611d7d61369e565b6008020154610100900460ff165b15611dbd576000848152602081905260409020611db890859060010183600281106114455761144561369e565b611ecd565b60008481526020819052604090206001018160028110611ddf57611ddf61369e565b6008020154610100900460ff1615611e915760008481526020819052604081206001018260028110611e1357611e1361369e565b600802015460008681526020819052604090819020601201549051620100009092046001600160a01b03169160006040518083038185875af1925050503d8060008114611e7c576040519150601f19603f3d011682016040523d82523d6000602084013e611e81565b606091505b5050905080611e8f57600080fd5b505b6040518481527fce24807f7e4b60b4e641462f13029fa5e5f79075bbc3f8e5cd43ecd19661d7609060200160405180910390a1611ecd84613005565b50505050565b60008181526020819052604081205460ff1615611f03575060009081526020819052604090206011015460ff1690565b50600b919050565b60008181526020819052604081205460ff168015611f3a575060008281526020819052604090206009015460ff165b156105205760008281526020819052604090206001908101905b60080201600101549050919050565b600082815260208190526040902054829060ff16611f8357611f836136b4565b60008381526020819052604090206001015483906001600160a01b036201000090910416331480611fd457506000818152602081905260409020600901546001600160a01b03620100009091041633145b611fe057611fe06136b4565b82611fec6008806136e0565b60ff168160ff1610612000576120006136b4565b846004600061200e83612ec4565b9050600482600b811115612024576120246135fd565b0361208357805160000361207c5781600b811115612044576120446135fd565b60008481526020819052604090206011015460ff16600b81111561206a5761206a6135fd565b14612077576120776136b4565b6120c6565b6006612044565b600782600b811115612097576120976135fd565b036120be5780516000036120b75781600b811115612044576120446135fd565b6005612044565b6120c66136b4565b506120d087612f1c565b60006120db88612ec4565b9050600460008981526020819052604090206011015460ff16600b811115612105576121056135fd565b1461212e576000888152602081905260409020601101805460ff1916600790811790915561214e565b6000888152602081905260409020601101805460ff191660059081179091555b5060008881526020819052604090208151600190910190600281106121755761217561369e565b600802016003016002016000815480929190612190906137a9565b909155505060008881526020819052604090208151600190910190600281106121bb576121bb61369e565b60080201600301600201546000036121dc576121d78833612fb7565b61221e565b6040805189815260ff89166020820152338183015290517f14ba1310e28cb93a7363176f97b4b776f03e7b3d2f8845631ff3fdecd770cc739181900360600190a15b5050505050505050565b600081815260208190526040902054819060ff16612248576122486136b4565b60008281526020819052604090206001015482906001600160a01b03620100009091041633148061229957506000818152602081905260409020600901546001600160a01b03620100009091041633145b6122a5576122a56136b4565b8260038060008381526020819052604090206011015460ff16600b8111156122cf576122cf6135fd565b146122dc576122dc6136b4565b60008581526020819052604081206001019060080201546201000090046001600160a01b0316331480156123265750600085815260208190526040902060010154610100900460ff165b8061237157506000858152602081905260409020600901546201000090046001600160a01b0316331480156123715750600085815260208190526040902060090154610100900460ff165b1561238f57604051635e558b2360e01b815260040160405180910390fd5b60008581526020819052604081206001015481906201000090046001600160a01b031633036123c457506000905060016123cc565b506001905060005b600087815260208190526040902060010181600281106123ee576123ee61369e565b6008020154610100900460ff16156124a057600087815260208190526040812060010182600281106124225761242261369e565b600802015460008981526020819052604090819020601201549051620100009092046001600160a01b03169160006040518083038185875af1925050503d806000811461248b576040519150601f19603f3d011682016040523d82523d6000602084013e612490565b606091505b505090508061249e57600080fd5b505b6124a987613005565b6040518781527fce24807f7e4b60b4e641462f13029fa5e5f79075bbc3f8e5cd43ecd19661d7609060200161089d565b8060000361259e57506025545b60245481101561259e5760008181526020819052604090205460ff1615156001148015612536575060008181526020819052604081206011015460ff16600b811115612534576125346135fd565b145b801561256357506000818152602081905260409020600101546001600160a01b0362010000909104163314155b80156125885750600081815260208190526040902060140154600160a01b900460ff16155b61259e578061259681613703565b9150506124e6565b60008181526020819052604090205460ff166125cd57604051630251ee3760e01b815260040160405180910390fd5b60008181526020819052604081206011015460ff16600b8111156125f3576125f36135fd565b14612600576126006136b4565b61260b81600161371c565b6025556017805461ff001960ff1962010000338102821661ff01600160b01b03199094169390931760011782811685556000868152602081905260409081902060098101805480861660ff95861615159081178355895461ffff19909216971696909617610100968790048516151590960295909517808655875462010000600160b01b0319909116908790046001600160a01b0316909602959095178455601854600a860155601954600b860155601a8054600c8701805490951693161515929092178355601b54600d860155601c54600e86015585949192916126f891600f90910190601d90613135565b50505060008481526020818152604091829020601101805460ff1916600117905590518581527f972651cf62ccc65bd2ba0fd996eb34701d5773844d3303545d5b4cb29738f10493500190505b60405180910390a15050565b600082815260208190526040902054829060ff16612771576127716136b4565b60008381526020819052604090206001015483906001600160a01b0362010000909104163314806127c257506000818152602081905260409020600901546001600160a01b03620100009091041633145b6127ce576127ce6136b4565b8360028060008381526020819052604090206011015460ff16600b8111156127f8576127f86135fd565b14612805576128056136b4565b600086815260208181526040808320815161012081018352815460ff808216151583526101009091041615159381019390935281518083018352909183019060018301600286835b82821015612948576040805160c081018252600884028601805460ff80821615158452610100820481161515602080860191909152620100009092046001600160a01b031684860152600183015460608086019190915260028401546080808701919091528651908101875260038501805490931615158152600485015493810193909352600584015483870152855161080081018088529596949560a0880195928501926006880191826000855b825461010083900a900460ff1615158152602060019283018181049485019490930390920291018084116128fc579050505050505081525050815250508152602001906001019061284d565b50505090825250601182015460209091019060ff16600b81111561296e5761296e6135fd565b600b81111561297f5761297f6135fd565b815260128201546020820152601382015460408083019190915260148301546001600160a01b038082166060850152600160a01b90910460ff161515608084015260159093015490921660a0909101528101519091506000908190816020020151604001516001600160a01b031633036129ff5750600190506000612a07565b506000905060015b600083604001518360028110612a1f57612a1f61369e565b6020020151606001519050886000808c81526020019081526020016000206001018360028110612a5157612a5161369e565b600802016001018190555080600014158015612a6c57508881145b15612afb5760008a81526020818152604091829020601281018c9055601101805460ff191660031790558582015180518301519082015183015183518e81526001600160a01b03928316938101939093521681830152606081018b905290517fa63491c3e48c84a30c1a58128201bca4fd87bb84850cda339020ce19051e5a90916080908290030190a1612b77565b7f4adf94e8b5302c48b3df6533aa17748538d68a74af46f0a894839b61fbf3f1bf8a3386604001518660028110612b3457612b3461369e565b6020020151604001518c604051612b6e94939291909384526001600160a01b03928316602085015291166040830152606082015260800190565b60405180910390a15b50505050505050505050565b600081815260208190526040902054819060ff16612ba357612ba36136b4565b6000828152602081905260408120600101546201000090046001600160a01b03163303612bd257506000612bfd565b6000838152602081905260409020600901546201000090046001600160a01b03163303612bfd575060015b600660008481526020819052604090206011015460ff16600b811115612c2557612c256135fd565b1480612c565750600560008481526020819052604090206011015460ff16600b811115612c5457612c546135fd565b145b15612c6e578015612c6957612c696136b4565b612da2565b600460008481526020819052604090206011015460ff16600b811115612c9657612c966135fd565b1480612cc75750600760008481526020819052604090206011015460ff16600b811115612cc557612cc56135fd565b145b15612cdc5780600114612c6957612c696136b4565b600360008481526020819052604090206011015460ff16600b811115612d0457612d046135fd565b03612d445760008381526020819052604090206001018160028110612d2b57612d2b61369e565b6008020154610100900460ff16612c6957612c696136b4565b600860008481526020819052604090206011015460ff16600b811115612d6c57612d6c6135fd565b03612d9a576000838152602081905260409020601501546001600160a01b03163303612c6957612c696136b4565b612da26136b4565b6000838152602081905260409020601401546001600160a01b031615612dc757600080fd5b60008381526020819052604090206014810180546001600160a01b031916331790554360138201557f0bf978ab2586eab9e083eec06f934bd39c6da770feb9502455f09c4cf17b1bec908490600190810190612e24908590613844565b60028110612e3457612e3461369e565b600802015460008681526020818152604091829020601301548251948552620100009093046001600160a01b03169084015282015260600160405180910390a1505050565b60008181526020819052604081205460ff168015612ea8575060008281526020819052604090206001015460ff165b1561052057600082815260208190526040812060010190611f54565b612ecc61326a565b612ed461326a565b6000838152602081905260409020600101546201000090046001600160a01b03163303612f0b576000815260016020820152611c62565b600181526000602082015292915050565b6000818152602081905260409020601401546001600160a01b031615801590612f5f57506000818152602081905260409020601401546001600160a01b03163314155b15612fb457602654612f749060ff164361371c565b6000828152602081905260409020601301541115612f9457612f946136b4565b600081815260208190526040902060140180546001600160a01b03191690555b50565b60008281526020819052604090206015810180546001600160a01b0384166001600160a01b031990911681179091556011909101805460ff191660081790556130019083906130f7565b5050565b600081815260208190526040812060048101805460ff1990811690915560058201839055600682018390556007820183905560088201839055600c820180549091169055600d8101829055600e8101829055600f8101829055601081018290556001810180546001600160b01b0319908116825560028301849055600383018490556009830180549091169055600a8201839055600b8201839055815461ffff191682559091906130b69082613288565b5060118101805460ff1916905560006012820181905560138201556014810180546001600160a81b031916905560150180546001600160a01b031916905550565b604080518381526001600160a01b03831660208201527fc53d54ea71e800bb40731cf938b78bbb3e167ca69808d9e2945e2f018b3c40679101612745565b6002830191839082156131685791601f016020900482015b8281111561316857825482559160010191906001019061314d565b50613174929150613324565b5090565b60108301918390821561325e579160080282015b8281111561325e578254825460ff918216151560ff1980831682178655865461010090819004851615150261ff001990921661ffff19909316929092171780855585546001600160a01b036201000091829004160262010000600160b01b03199091161784556001808601549085015560028086015490850155600380860180549186018054929094161515919092161782556004808601549085015560058086015490850155849184919061324a60068085019086016040613135565b50505050509160080191906008019061318c565b50613174929150613339565b60405180604001604052806002906020820280368337509192915050565b5080546001600160b01b03191681556000600182018190556002820181905560038201805460ff191681556004830182905560058301829055600683018290556007830182905550506008810180546001600160b01b0319168155600060098301819055600a8301819055600b8301805460ff19168155600c8401829055600d8401829055600e8401829055600f909301819055909181611ecd565b5b808211156131745760008155600101613325565b808211156131745780546001600160b01b03191681556000600182018190556002820181905560038201805460ff191690556004820181905560058201819055600682018190556007820155600801613339565b60006020828403121561339f57600080fd5b5035919050565b6000806000606084860312156133bb57600080fd5b833592506020840135600c81106133d157600080fd5b915060408401356001600160a01b03811681146133ed57600080fd5b809150509250925092565b6000806040838503121561340b57600080fd5b50508035926020909101359150565b8015158114612fb457600080fd5b60006020828403121561343a57600080fd5b81356134458161341a565b9392505050565b803560ff8116811461052857600080fd5b60008083601f84011261346f57600080fd5b50813567ffffffffffffffff81111561348757600080fd5b6020830191508360208260051b85010111156134a257600080fd5b9250929050565b60008060008060008060a087890312156134c257600080fd5b863595506134d26020880161344c565b945060408701356134e28161341a565b935060608701359250608087013567ffffffffffffffff81111561350557600080fd5b61351189828a0161345d565b979a9699509497509295939492505050565b60008060008060008060008060008060c08b8d03121561354257600080fd5b8a35995060208b013567ffffffffffffffff8082111561356157600080fd5b61356d8e838f0161345d565b909b50995060408d013591508082111561358657600080fd5b6135928e838f0161345d565b909950975060608d01359150808211156135ab57600080fd5b6135b78e838f0161345d565b909750955060808d01359150808211156135d057600080fd5b506135dd8d828e0161345d565b9150809450508092505060a08b013590509295989b9194979a5092959850565b634e487b7160e01b600052602160045260246000fd5b60208101600c831061363557634e487b7160e01b600052602160045260246000fd5b91905290565b6000806040838503121561364e57600080fd5b6136578361344c565b915060208301356136678161341a565b809150509250929050565b6000806040838503121561368557600080fd5b823591506136956020840161344c565b90509250929050565b634e487b7160e01b600052603260045260246000fd5b634e487b7160e01b600052600160045260246000fd5b634e487b7160e01b600052601160045260246000fd5b60ff81811683821602908116908181146136fc576136fc6136ca565b5092915050565b600060018201613715576137156136ca565b5060010190565b80820180821115611c6257611c626136ca565b8082028115828204841417611c6257611c626136ca565b6060808252810184905260006001600160fb1b0385111561376657600080fd5b8460051b8087608085013760208301949094525060408101919091520160800192915050565b60006020828403121561379e57600080fd5b81516134458161341a565b6000816137b8576137b86136ca565b506000190190565b600060ff821660ff81036137d6576137d66136ca565b60010192915050565b6000602082840312156137f157600080fd5b6134458261344c565b6000808335601e1984360301811261381157600080fd5b83018035915067ffffffffffffffff82111561382c57600080fd5b6020019150600581901b36038213156134a257600080fd5b81810381811115611c6257611c626136ca56fea2646970667358221220eea3e8e4bbc51f34529ec856692b8cf73fabee2b630736412dc7e2b633405ed264736f6c63430008130033",
  "immutableReferences": {},
  "source": "// SPDX-License-Identifier: MIT\r\npragma solidity >=0.4.22 <0.9.0;\r\n\r\nimport { Merkle } from \"./Merkle.sol\";\r\n\r\ncontract Battleships {\r\n    uint8 public constant NUMBER_OF_SHIP_SQUARES = 20;\r\n    uint8 public constant BOARD_SIZE = 8;\r\n    enum GameStates{\r\n        WAITING, \r\n        PLACING_SHIPS, \r\n        SETTING_STAKE, \r\n        ACCEPTING_PAYMENT,\r\n        P0_FIRING,\r\n        P1_CHECKING,\r\n        P1_FIRING,\r\n        P0_CHECKING,\r\n        CHECKING_WINNER,\r\n        PAYABLE,\r\n        DONE,\r\n        NONE\r\n    }\r\n\r\n    // In this struct we save the view a player has of its opponent's board\r\n    struct Board{\r\n        bool valid;\r\n        // N*N matrix of bits to store hits\r\n        // bool[BOARD_SIZE][BOARD_SIZE] shots;\r\n        // # of enemy pieces still left on the board\r\n        // goes down by one each time we receive one 'you hit' event\r\n        uint totalPieces;\r\n        // 8*8, we use this to avoid cheating\r\n        uint totalShots;\r\n        bool[BOARD_SIZE*BOARD_SIZE] board; \r\n    }\r\n\r\n    struct Player{\r\n        bool valid;\r\n        bool hasPaidStake;\r\n        address playerAddress;\r\n        uint proposedStake;\r\n        bytes32 boardTreeRoot;\r\n        Board shots_board;\r\n    }\r\n\r\n    struct Game{\r\n        bool valid;\r\n        bool canPay;\r\n        // host is always player[0]\r\n        Player[2] players;\r\n        GameStates state;\r\n        uint decidedStake;\r\n        // used for foul accusation, a foul is triggered after 5 blocks\r\n        uint blockNumber;\r\n        // player 0 or player 1\r\n        // might turn it into address, we will see\r\n        address accuser;\r\n        // whether or not this game should be in the public pool of joinable games\r\n        bool privateGame;\r\n        address winner;\r\n    }\r\n\r\n    mapping(uint => Game) private openGames;\r\n\r\n    Game private gameTrampoline;\r\n    Player private playerTrampoline;\r\n    Board private trampolineBoard;\r\n    // used in generating UUIDs for the games\r\n    // for now we are gonna use this as-is\r\n    // start at 1 as 0 is used for a non-existing game\r\n    // we just don't deal with it overflowing because it's realistically impossible\r\n    uint private gameCounter;\r\n    uint private lastOpenGame;\r\n    uint8 private foulBlockLen;\r\n    address private owner;\r\n\r\n    constructor() {\r\n        gameCounter = 1;\r\n        lastOpenGame = 1;\r\n        owner = msg.sender;\r\n        // this could be passed as parameter\r\n        foulBlockLen = 5;\r\n    }\r\n\r\n    event ShareID(address _from, address _to, uint _gameID);\r\n    event GameStart(uint _gameID, address _host, address _challenger);\r\n    event SuggestedStake(uint _gameID, address _from, address _to, uint _stakeValue);\r\n    event GamePayable(uint _gameID, address _host, address _challenger, uint _stakeValue);\r\n    event StakePaid(uint _gameID, address _whoPaid);\r\n    event AcceptingBoards(uint _gameID);\r\n    event BoardAcknowledgeEvent(uint _gameID, address _player);\r\n    event PlayerZeroTurn(uint _gameID);\r\n    event ShotsFired(uint _gameID, uint8 _location, address _from);\r\n    event ShotsChecked(uint _gameID, uint8 _location, bool _claim, bool _validity, address _from);\r\n    event RequestBoard(uint _gameID, address _winner);\r\n    event Victory(uint _gameID, address _winner);\r\n    event Foul(uint _gameID, address _accused, uint _block);\r\n    event GameEnded(uint _gameID);\r\n\r\n    error NoOpenGames();\r\n    error InvalidGameID();\r\n    error NotInGame();\r\n    error StakeAlreadyDeposited();\r\n    error WrongStakeAmount(uint expectedStakeValue);\r\n\r\n    modifier gameExists(uint gameID){\r\n        assert(openGames[gameID].valid);\r\n        _;\r\n    }\r\n\r\n    modifier isInGame(uint gameID){\r\n        assert((openGames[gameID].players[0].playerAddress == msg.sender) || (openGames[gameID].players[1].playerAddress == msg.sender));\r\n        _;\r\n    }\r\n\r\n    modifier assertState(uint gameID, GameStates _state){\r\n        if(_state != GameStates.P0_FIRING && _state != GameStates.P1_FIRING && _state != GameStates.P0_CHECKING && _state != GameStates.P1_CHECKING)\r\n            assert(openGames[gameID].state == _state);\r\n        else{\r\n            // We check firing states with P0_FIRING and checking states with P0_CHECKING, for both players\r\n            uint[2] memory indexes = getIndexSender(gameID);\r\n            if(_state == GameStates.P0_FIRING){\r\n                if(indexes[0] == 0)\r\n                    assert(openGames[gameID].state == _state);\r\n                else\r\n                    assert(openGames[gameID].state == GameStates.P1_FIRING);\r\n            }\r\n            else if(_state == GameStates.P0_CHECKING){\r\n                if(indexes[0] == 0)\r\n                    assert(openGames[gameID].state == _state);\r\n                else\r\n                    assert(openGames[gameID].state == GameStates.P1_CHECKING);\r\n            }\r\n            else assert(false);\r\n        }\r\n        _;\r\n    }\r\n\r\n    modifier playerInRange(uint gameID, uint index){\r\n        assert(openGames[gameID].players[index].valid);\r\n        assert(index < openGames[gameID].players.length);\r\n        _;\r\n    }\r\n\r\n    modifier shotOnBoard(uint8 location){\r\n        assert(location < (BOARD_SIZE*BOARD_SIZE));\r\n        _;\r\n    }\r\n\r\n    modifier isWinner(uint gameID){\r\n        assert(openGames[gameID].winner == msg.sender);\r\n        _;\r\n    }\r\n\r\n    function getIndexSender (uint gameID) view private returns(uint[2] memory) {\r\n        // indexes[0]: msg.sender index\r\n        // indexes[1]: msg.sender opponent's index\r\n        uint[2] memory indexes;\r\n        if(msg.sender == openGames[gameID].players[0].playerAddress){\r\n            indexes[0] = 0;\r\n            indexes[1] = 1;\r\n        } else {\r\n            indexes[0] = 1;\r\n            indexes[1] = 0;\r\n        }\r\n        return indexes;\r\n    }\r\n\r\n    // create a Game value, add it to openGames, populate the Player[0]\r\n    function newGame(bool isPrivate) public {\r\n        uint gameID = gameCounter;\r\n        gameCounter++;\r\n        Game storage game = gameTrampoline;\r\n        Player storage host = playerTrampoline;\r\n        host.playerAddress = msg.sender;\r\n        host.valid = true;\r\n        host.hasPaidStake = false;\r\n        game.players[0] = host;\r\n        game.state = GameStates.WAITING;\r\n        game.privateGame = isPrivate;\r\n        game.valid = true;\r\n        game.canPay = false;\r\n        openGames[gameID] = game;\r\n        emit ShareID(address(this), msg.sender, gameID);\r\n        return;\r\n    }\r\n    \r\n    function joinGame(uint gameID) public {\r\n        if(gameID == 0){\r\n            // pick an unassigned game in sequential order\r\n            gameID = lastOpenGame;\r\n            while (gameID < gameCounter){\r\n                // ignore games with sender as host (you can still join your own games directly if you're that lonely)\r\n                if(openGames[gameID].valid == true && \r\n                    openGames[gameID].state == GameStates.WAITING && \r\n                    openGames[gameID].players[0].playerAddress != msg.sender && \r\n                    !openGames[gameID].privateGame){\r\n                    break;\r\n                }\r\n                gameID++;\r\n            }\r\n        }\r\n        // if the game wasn't valid, throw an error\r\n        if(!openGames[gameID].valid)\r\n            revert NoOpenGames();\r\n\r\n        assert(openGames[gameID].state == GameStates.WAITING);\r\n\r\n        // update the lastOpenGame counter no matter what\r\n        lastOpenGame = gameID + 1;\r\n        // set msg sender as this game's player 2\r\n        Player storage challenger = playerTrampoline;\r\n        challenger.playerAddress = msg.sender;\r\n        challenger.valid = true;\r\n        challenger.hasPaidStake = false;\r\n        openGames[gameID].players[1] = challenger;\r\n        // update this game's status\r\n        openGames[gameID].state = GameStates.PLACING_SHIPS;\r\n        // alert the players\r\n        emit AcceptingBoards(gameID);\r\n        return;\r\n    }\r\n\r\n    function checkGameState(uint gameID) public view returns (GameStates) {\r\n        if (openGames[gameID].valid){\r\n            return openGames[gameID].state;\r\n        }\r\n        else \r\n            return(GameStates.NONE);\r\n    }\r\n\r\n    function checkGamePlayer(uint gameID, uint index) public view returns (address) {\r\n        if (openGames[gameID].valid && openGames[gameID].players[index].valid){\r\n            return openGames[gameID].players[index].playerAddress;\r\n        }\r\n        else \r\n            return(address(0));\r\n    }\r\n\r\n    // Function to propose and agree upon a stake between players\r\n    function proposeStake(uint gameID, uint stakeValue) gameExists(gameID) isInGame(gameID) assertState(gameID, GameStates.SETTING_STAKE) public{\r\n        Game memory game = openGames[gameID];\r\n        // Check whether or not this player's opponent has already proposed a stake\r\n        uint opponentIndex;\r\n        uint stakerIndex;\r\n        if(msg.sender == game.players[0].playerAddress){\r\n            opponentIndex = 1;\r\n            stakerIndex = 0;\r\n        } else {\r\n            opponentIndex = 0;\r\n            stakerIndex = 1;\r\n        }\r\n        uint opponentStake = game.players[opponentIndex].proposedStake;\r\n        // set this player's proposed stake to their message\r\n        openGames[gameID].players[stakerIndex].proposedStake = stakeValue;\r\n        // if the opponent has proposed a stake we check whether or not it equals the one proposed by us\r\n        // 0 is not a valid stake\r\n        if(opponentStake != 0 && opponentStake == stakeValue){\r\n            openGames[gameID].decidedStake = stakeValue;\r\n            openGames[gameID].state = GameStates.ACCEPTING_PAYMENT;\r\n            emit GamePayable(gameID, game.players[0].playerAddress, game.players[1].playerAddress, stakeValue);\r\n        }else{\r\n            emit SuggestedStake(gameID, msg.sender, game.players[opponentIndex].playerAddress, stakeValue);\r\n        }\r\n        return;\r\n    }\r\n\r\n    function checkStakePlayerOne(uint gameID) public view returns (uint) {\r\n        if (openGames[gameID].valid && openGames[gameID].players[0].valid){\r\n            return openGames[gameID].players[0].proposedStake;\r\n        }\r\n        else \r\n            return(0);\r\n    }\r\n\r\n    function checkStakePlayerTwo(uint gameID) public view returns (uint) {\r\n        if (openGames[gameID].valid && openGames[gameID].players[1].valid){\r\n            return openGames[gameID].players[1].proposedStake;\r\n        }\r\n        else \r\n            return(0);\r\n    }\r\n\r\n    function checkStakeGame(uint gameID) public view returns (uint) {\r\n        if (openGames[gameID].valid && openGames[gameID].players[0].valid && openGames[gameID].players[1].valid)\r\n            return openGames[gameID].decidedStake;\r\n        else\r\n            return(0);\r\n    }\r\n    \r\n    function payStake(uint gameID) gameExists(gameID) isInGame(gameID) assertState(gameID, GameStates.ACCEPTING_PAYMENT) external payable {\r\n        if((msg.sender == openGames[gameID].players[0].playerAddress && openGames[gameID].players[0].hasPaidStake) ||\r\n            (msg.sender == openGames[gameID].players[1].playerAddress && openGames[gameID].players[1].hasPaidStake))\r\n            revert StakeAlreadyDeposited();\r\n        // only accept payments for the exact amount owed\r\n        if(msg.value != openGames[gameID].decidedStake)\r\n            revert WrongStakeAmount(openGames[gameID].decidedStake);\r\n        // now we check who the sender is\r\n        uint senderIndex;\r\n        uint challengerIndex;\r\n        if(msg.sender == openGames[gameID].players[0].playerAddress){\r\n            senderIndex = 0;\r\n            challengerIndex = 1;\r\n        }else{\r\n            senderIndex = 1;\r\n            challengerIndex = 0;\r\n        }\r\n        openGames[gameID].players[senderIndex].hasPaidStake = true;\r\n        // Clear possible foul\r\n        ClearFoul(gameID);\r\n        emit StakePaid(gameID, msg.sender);\r\n        // if both players have paid the owed stake the game can move on to its next state\r\n        if(openGames[gameID].players[challengerIndex].hasPaidStake){\r\n            openGames[gameID].state = GameStates.P0_FIRING;\r\n            emit PlayerZeroTurn(gameID);\r\n        }\r\n    }\r\n\r\n    function deleteGame(uint gameID) internal{ \r\n        delete openGames[gameID].players[0].shots_board;\r\n        delete openGames[gameID].players[1].shots_board;\r\n        delete openGames[gameID].players[0];\r\n        delete openGames[gameID].players[1];\r\n        delete openGames[gameID];\r\n    }\r\n\r\n    function declineStake(uint gameID) gameExists(gameID) isInGame(gameID) assertState(gameID, GameStates.ACCEPTING_PAYMENT) external {\r\n        // if this player has already paid the stake, they can't decline it\r\n        if((msg.sender == openGames[gameID].players[0].playerAddress && openGames[gameID].players[0].hasPaidStake) ||\r\n            (msg.sender == openGames[gameID].players[1].playerAddress && openGames[gameID].players[1].hasPaidStake))\r\n            revert StakeAlreadyDeposited();\r\n        // now we check who the sender is\r\n        uint senderIndex;\r\n        uint challengerIndex;\r\n        if(msg.sender == openGames[gameID].players[0].playerAddress){\r\n            senderIndex = 0;\r\n            challengerIndex = 1;\r\n        }else{\r\n            senderIndex = 1;\r\n            challengerIndex = 0;\r\n        }\r\n        // check if the opponent has already paid its stake\r\n        if(openGames[gameID].players[challengerIndex].hasPaidStake){\r\n            // if they have, we refund it\r\n            (bool success, ) = openGames[gameID].players[challengerIndex].playerAddress.call{value:openGames[gameID].decidedStake}(\"\");\r\n            require(success);\r\n        }\r\n        // then we delete the game\r\n        deleteGame(gameID);\r\n        emit GameEnded(gameID);\r\n    }\r\n    \r\n    function checkGamePayable(uint gameID) public view returns (bool) {\r\n        if (openGames[gameID].valid && openGames[gameID].players[0].valid && openGames[gameID].players[1].valid)\r\n            return openGames[gameID].canPay;\r\n        else\r\n            return(false);\r\n    }\r\n    \r\n    function PlaceShips(uint gameID, bytes32 boardRoot) gameExists(gameID) isInGame(gameID) assertState(gameID, GameStates.PLACING_SHIPS) public{\r\n        uint index;\r\n        uint oppIdx;\r\n        msg.sender == openGames[gameID].players[0].playerAddress ? index = 0 : index = 1;\r\n        msg.sender == openGames[gameID].players[0].playerAddress ? oppIdx = 1 : oppIdx = 0;\r\n        require(openGames[gameID].players[index].boardTreeRoot == 0x0);\r\n        // Instantiate a new shots board\r\n        // Instantiate the Board struct itself and assign it to a player\r\n        Board storage playerBoard = trampolineBoard;\r\n        trampolineBoard.valid = true;\r\n        trampolineBoard.totalPieces = NUMBER_OF_SHIP_SQUARES;\r\n        trampolineBoard.totalShots = (BOARD_SIZE*BOARD_SIZE);\r\n        for(uint i = 0; i < (BOARD_SIZE*BOARD_SIZE); i++){\r\n            trampolineBoard.board[i] = false;\r\n        }\r\n        openGames[gameID].players[index].shots_board = playerBoard;\r\n        // save the received boardRoot, finally\r\n        openGames[gameID].players[index].boardTreeRoot = boardRoot;\r\n        emit BoardAcknowledgeEvent(gameID, msg.sender);\r\n        if(openGames[gameID].players[oppIdx].boardTreeRoot != 0x0){\r\n            openGames[gameID].state = GameStates.SETTING_STAKE;\r\n            emit GameStart(gameID, openGames[gameID].players[0].playerAddress, msg.sender);\r\n        }\r\n    }\r\n\r\n    function TestWinner(uint gameID, address claimant) private {\r\n        openGames[gameID].winner = claimant;\r\n        openGames[gameID].state = GameStates.CHECKING_WINNER;\r\n        RequestWinnerBoard(gameID, openGames[gameID].winner);\r\n    }\r\n\r\n    // for info on what location is see \"Implementation of the user-side game board\" in README.md\r\n    function FireTorpedo(uint gameID, uint8 location) gameExists(gameID) isInGame(gameID) shotOnBoard(location) assertState(gameID, GameStates.P0_FIRING) public {\r\n        // if we got past the modifiers, this means the shot is valid\r\n        // let's clear any potential fouls for this user\r\n        ClearFoul(gameID);\r\n        uint[2] memory indexes = getIndexSender(gameID);\r\n        // Rotate into correct next state\r\n        openGames[gameID].state == GameStates.P0_FIRING ? openGames[gameID].state = GameStates.P1_CHECKING : openGames[gameID].state = GameStates.P0_CHECKING;\r\n        // Now for some game logic\r\n        // whatever happens, we lower the totalShots counter of our system by one\r\n        openGames[gameID].players[indexes[0]].shots_board.totalShots--;\r\n        // Then we evaluate whether or not this is zero. If it is, This party wins automatically.\r\n        // We do this here to avoid opponents stalling out on the reply for 5 blocks on what is a foregone conclusion\r\n        if (openGames[gameID].players[indexes[0]].shots_board.totalShots == 0){\r\n            TestWinner(gameID, msg.sender);\r\n        } else {\r\n            emit ShotsFired(gameID, location, msg.sender);\r\n        }\r\n    }\r\n\r\n    function ConfirmShot(uint gameID, uint8 location, bool isHit, bytes32 leaf, bytes32[] calldata proof) public {\r\n        // we assert manually rather than with modifiers to avoid a stack-too-deep error\r\n        assert(openGames[gameID].valid);\r\n        assert(location < (BOARD_SIZE*BOARD_SIZE));\r\n        if(openGames[gameID].players[0].playerAddress == msg.sender){\r\n            assert(openGames[gameID].state == GameStates.P0_CHECKING);\r\n        } else if (openGames[gameID].players[1].playerAddress == msg.sender){\r\n            assert(openGames[gameID].state == GameStates.P1_CHECKING);\r\n        } else {\r\n            assert(false);\r\n        }\r\n        uint[2] memory indexes = getIndexSender(gameID);\r\n        // make sure this node corresponds to the board tile and truth value we are checking\r\n        assert(leaf == GenLeafNode(location, isHit));\r\n        // execute the proof test\r\n        if(Merkle.verifyCalldata(proof, openGames[gameID].players[indexes[0]].boardTreeRoot, leaf)){\r\n            // if we got this far it means the reply is valid\r\n            // let's clear any potential fouls for this user\r\n            ClearFoul(gameID);\r\n            // we could verify this user's proof\r\n            if (isHit){\r\n                // decrement our opponent's view of our total pieces\r\n                // only if the shot landed on a previously undeclared tile\r\n                // alas this is needed as the user might just keep asking for the same time over and over\r\n                // I don't know why they would do this, but they can\r\n                if(!openGames[gameID].players[indexes[1]].shots_board.board[location]){\r\n                    openGames[gameID].players[indexes[1]].shots_board.totalPieces--;\r\n                    openGames[gameID].players[indexes[1]].shots_board.board[location] = true;\r\n                    // if this was our last piece, we lost\r\n                    if(openGames[gameID].players[indexes[1]].shots_board.totalPieces == 0){\r\n                        /*\r\n                        openGames[gameID].winner = openGames[gameID].players[indexes[1]].playerAddress;\r\n                        openGames[gameID].state = GameStates.CHECKING_WINNER;\r\n                        RequestWinnerBoard(gameID, openGames[gameID].winner);\r\n                        */\r\n                        TestWinner(gameID, openGames[gameID].players[indexes[1]].playerAddress);\r\n                        return;\r\n                    }\r\n                }   \r\n            }\r\n            // rotate state\r\n            openGames[gameID].state == GameStates.P1_CHECKING ? openGames[gameID].state = GameStates.P1_FIRING : openGames[gameID].state = GameStates.P0_FIRING;\r\n            emit ShotsChecked(gameID, location, isHit, true, msg.sender);\r\n        } else {\r\n            // else we emit a 'shot failed to validate' message\r\n            // keep in mind the foul for this user is NOT triggered automatically.\r\n            emit ShotsChecked(gameID, location, isHit, false, msg.sender);\r\n        }\r\n    }\r\n\r\n    // this function generates a node locally in the same way a client would generate it\r\n    // it could be internal, we keep it public for now for debug purposes\r\n    function GenLeafNode(uint8 tile, bool ship) pure public returns (bytes32) {\r\n        return keccak256(abi.encode(tile,ship));\r\n    }\r\n\r\n    // a player who sees their address here will need to call VerifyWinner\r\n    function RequestWinnerBoard(uint gameID, address winnerAddress) private {\r\n        emit RequestBoard(gameID, winnerAddress);\r\n    }\r\n\r\n    // sadly using our modifiers here runs into a stack too deep compilation issue\r\n    // ergo we must assert a few security values by hand\r\n    // yes, the 'tiles' array is completely useless but we will leave it there for now\r\n    // it could be useful for future expansions into 5d battleships\r\n    function VerifyWinner(\r\n    uint gameID,  \r\n    uint8[] calldata tiles,\r\n    bool[] calldata ships,\r\n    bytes32[] calldata nodes,\r\n    bytes32[][] calldata proofs,\r\n    bytes32 root\r\n    ) public {\r\n        uint winnerIndex;\r\n        require(openGames[gameID].valid, \"Game does not exist\");\r\n        require(openGames[gameID].state == GameStates.CHECKING_WINNER, \"Game is not in the CHECKING_WINNER state\");\r\n        if(openGames[gameID].winner == openGames[gameID].players[0].playerAddress){\r\n            winnerIndex = 0;\r\n        } else {\r\n            winnerIndex = 1;\r\n        }\r\n        require(openGames[gameID].winner == msg.sender, \"Only the winner can verify their board\");\r\n        require(root == openGames[gameID].players[winnerIndex].boardTreeRoot, \"The root provided does not match the root of the board\");\r\n        require(tiles.length == (BOARD_SIZE*BOARD_SIZE), \"The tiles array is not the correct size\");\r\n        require(ships.length == (BOARD_SIZE*BOARD_SIZE), \"The ships array is not the correct size\");\r\n        // First operation: make sure this board really has the required number of ships on it\r\n        // and make sure the winner didn't send us a different board\r\n        // in the same cycle, verify that the node is part of the tree\r\n        // we already made sure this root is the correct one\r\n        uint8 shipsTotal = 0;\r\n        for(uint8 i = 0; i < (BOARD_SIZE*BOARD_SIZE); i++){\r\n            if(ships[i])\r\n                shipsTotal++;\r\n            require(nodes[i] == GenLeafNode(tiles[i], ships[i]), \"The node does not match the tile and ship provided\");\r\n            require(Merkle.verifyCalldata(proofs[i], root, nodes[i]), \"The proof does not match the root and node provided\");\r\n        }\r\n        require(shipsTotal == NUMBER_OF_SHIP_SQUARES, \"The board does not have the correct number of ships\");\r\n        // we don't use a conditional branch to alert the other player, as a Foul has already been triggered.\r\n        openGames[gameID].canPay = true;\r\n        openGames[gameID].state = GameStates.PAYABLE;\r\n        ClearFoul(gameID);\r\n        emit Victory(gameID, msg.sender);\r\n    }\r\n\r\n    function echoNodeBytes(bytes32 node) public pure returns (bytes32) {\r\n        return node;\r\n    }\r\n\r\n    function AbandonGame(uint gameID) gameExists(gameID) isInGame(gameID) external {\r\n        // see if the game has a second player\r\n        uint opponentIndex;\r\n        if(msg.sender == openGames[gameID].players[0].playerAddress){\r\n            opponentIndex = 1;\r\n        } else {\r\n            opponentIndex = 0;\r\n        }\r\n        // check if both have paid the stake\r\n        if(openGames[gameID].players[opponentIndex].hasPaidStake && openGames[gameID].players[1 - opponentIndex].hasPaidStake){\r\n            // if they have, we declare the opponent the winner\r\n            TestWinner(gameID, openGames[gameID].players[opponentIndex].playerAddress);\r\n        } else {\r\n            // if only the opponent has paid the stake, we refund it\r\n            if(openGames[gameID].players[opponentIndex].hasPaidStake){\r\n                (bool success, ) = openGames[gameID].players[opponentIndex].playerAddress.call{value:openGames[gameID].decidedStake}(\"\");\r\n                require(success);\r\n            }\r\n            // this delition only happens in this branch as the game will be deleted normally from testwinner otherwise\r\n            emit GameEnded(gameID);\r\n            deleteGame(gameID);\r\n        } // we keep the stake if the user cancelling the game has paid it. If they want the stake back because their oppoent is afk they should declare a foul instead of cancelling\r\n    }\r\n\r\n    function WithdrawWinnings(uint gameID) gameExists(gameID) isWinner(gameID) assertState(gameID, GameStates.PAYABLE) external {\r\n        uint amountOwed = openGames[gameID].decidedStake*2;\r\n        openGames[gameID].state = GameStates.DONE;\r\n        (bool success, ) = msg.sender.call{value:amountOwed}(\"\");\r\n        require(success);\r\n        deleteGame(gameID);\r\n    }\r\n\r\n    // a player can accuse another player of being afk if they don't act within X blocks\r\n    // for this to happen, the state has to be one they don't control\r\n    function FoulAccusation(uint gameID) gameExists(gameID) public {\r\n        uint senderIndex;\r\n        if(msg.sender == openGames[gameID].players[0].playerAddress)\r\n            senderIndex = 0;\r\n        else if (msg.sender == openGames[gameID].players[1].playerAddress)\r\n            senderIndex = 1;\r\n        // if the game is stuck waiting on Player 1, only accept accusations from Player 0\r\n        if(openGames[gameID].state == GameStates.P1_FIRING || openGames[gameID].state == GameStates.P1_CHECKING){\r\n            assert(senderIndex == 0);\r\n        // if the game is stuck waiting on Player 0, only accept accusations from Player 1\r\n        } else if (openGames[gameID].state == GameStates.P0_FIRING || openGames[gameID].state == GameStates.P0_CHECKING){\r\n            assert(senderIndex == 1);\r\n        } \r\n        // if the game is stuck accepting payments, only accept accusations by the side which hasn't paid yet\r\n        else if(openGames[gameID].state == GameStates.ACCEPTING_PAYMENT){\r\n            assert(openGames[gameID].players[senderIndex].hasPaidStake);\r\n        }\r\n        // if the game is stuck checking the winner, because a user isn't providing their board, only accept fouls from the non-winner\r\n        else if(openGames[gameID].state == GameStates.CHECKING_WINNER)\r\n            assert(msg.sender != openGames[gameID].winner);\r\n        else {\r\n            assert(false);\r\n        }\r\n        \r\n        require(openGames[gameID].accuser == address(0));\r\n        // very important: this is the only place where accuser can be set to anything other than 0\r\n        openGames[gameID].accuser = msg.sender;\r\n        openGames[gameID].blockNumber = block.number;\r\n        emit Foul(gameID, openGames[gameID].players[1 - senderIndex].playerAddress, openGames[gameID].blockNumber);\r\n    }\r\n\r\n    function CheckFoulTimer(uint gameID) gameExists(gameID) isInGame(gameID) public {\r\n        require(openGames[gameID].accuser != address(0));\r\n        if(openGames[gameID].blockNumber < (block.number + foulBlockLen)){\r\n            // the other player abandoned this game\r\n            TestWinner(gameID, openGames[gameID].accuser);\r\n        }\r\n    }\r\n\r\n    // a foul can only be cleared by properly advancing the state\r\n    // thus this function has to be called from within our check/fire functions\r\n    function ClearFoul(uint gameID) private {\r\n        if(openGames[gameID].accuser != address(0) && openGames[gameID].accuser != msg.sender){\r\n            // if we are out of time to context the foul this function will fail\r\n            assert(openGames[gameID].blockNumber <= (block.number + foulBlockLen));\r\n            // else it will clear the foul\r\n            // just like setting the accuser, this is THE ONLY place in the contract where this assignment is made.\r\n            openGames[gameID].accuser = address(0);\r\n        }\r\n    }\r\n\r\n    // Assortment of debug functions\r\n    // Despite the name, this function also sets the winner to a given address\r\n    // the main use for it is testing endgame stages of the contract without having to manually play a game\r\n    \r\n    function ChangeState(uint gameID, GameStates state, address winner) public {\r\n        assert(msg.sender == owner);\r\n        openGames[gameID].state = state;\r\n        openGames[gameID].winner = winner;\r\n    }\r\n    \r\n}",
  "sourcePath": "C:\\Users\\maste\\Documents\\Code\\Battleships\\contracts\\Battleships.sol",
  "compiler": {
    "name": "solc",
    "version": "0.8.19+commit.7dd6d404.Emscripten.clang"
  },
  "schemaVersion": "3.4.14",
  "updatedAt": "2023-06-01T16:21:14.591Z",
  "networkType": "ethereum",
  "devdoc": {
    "kind": "dev",
    "methods": {},
    "version": 1
  },
  "userdoc": {
    "kind": "user",
    "methods": {},
    "version": 1
  }
}