{
  "contractName": "Battleships",
  "abi": [
    {
      "inputs": [],
      "stateMutability": "nonpayable",
      "type": "constructor"
    },
    {
      "anonymous": false,
      "inputs": [
        {
          "indexed": false,
          "internalType": "uint256",
          "name": "_gameID",
          "type": "uint256"
        },
        {
          "indexed": false,
          "internalType": "address",
          "name": "_host",
          "type": "address"
        },
        {
          "indexed": false,
          "internalType": "address",
          "name": "_challenger",
          "type": "address"
        },
        {
          "indexed": false,
          "internalType": "uint256",
          "name": "_stakeValue",
          "type": "uint256"
        }
      ],
      "name": "GamePayable",
      "type": "event"
    },
    {
      "anonymous": false,
      "inputs": [
        {
          "indexed": false,
          "internalType": "uint256",
          "name": "_gameID",
          "type": "uint256"
        },
        {
          "indexed": false,
          "internalType": "address",
          "name": "_host",
          "type": "address"
        },
        {
          "indexed": false,
          "internalType": "address",
          "name": "_challenger",
          "type": "address"
        }
      ],
      "name": "GameStart",
      "type": "event"
    },
    {
      "anonymous": false,
      "inputs": [
        {
          "indexed": false,
          "internalType": "address",
          "name": "_from",
          "type": "address"
        },
        {
          "indexed": false,
          "internalType": "address",
          "name": "_to",
          "type": "address"
        },
        {
          "indexed": false,
          "internalType": "uint256",
          "name": "_gameID",
          "type": "uint256"
        }
      ],
      "name": "ShareID",
      "type": "event"
    },
    {
      "anonymous": false,
      "inputs": [
        {
          "indexed": false,
          "internalType": "uint256",
          "name": "_gameID",
          "type": "uint256"
        },
        {
          "indexed": false,
          "internalType": "address",
          "name": "_from",
          "type": "address"
        },
        {
          "indexed": false,
          "internalType": "address",
          "name": "_to",
          "type": "address"
        },
        {
          "indexed": false,
          "internalType": "uint256",
          "name": "_stakeValue",
          "type": "uint256"
        }
      ],
      "name": "SuggestedStake",
      "type": "event"
    },
    {
      "inputs": [
        {
          "internalType": "bool",
          "name": "isPrivate",
          "type": "bool"
        }
      ],
      "name": "newGame",
      "outputs": [],
      "stateMutability": "nonpayable",
      "type": "function"
    },
    {
      "inputs": [
        {
          "internalType": "uint256",
          "name": "gameID",
          "type": "uint256"
        }
      ],
      "name": "checkGameState",
      "outputs": [
        {
          "internalType": "enum Battleships.GameStates",
          "name": "",
          "type": "uint8"
        }
      ],
      "stateMutability": "view",
      "type": "function",
      "constant": true
    },
    {
      "inputs": [
        {
          "internalType": "uint256",
          "name": "gameID",
          "type": "uint256"
        }
      ],
      "name": "checkGamePlayerOne",
      "outputs": [
        {
          "internalType": "address",
          "name": "",
          "type": "address"
        }
      ],
      "stateMutability": "view",
      "type": "function",
      "constant": true
    },
    {
      "inputs": [
        {
          "internalType": "uint256",
          "name": "gameID",
          "type": "uint256"
        }
      ],
      "name": "checkGamePlayerTwo",
      "outputs": [
        {
          "internalType": "address",
          "name": "",
          "type": "address"
        }
      ],
      "stateMutability": "view",
      "type": "function",
      "constant": true
    },
    {
      "inputs": [
        {
          "internalType": "uint256",
          "name": "gameID",
          "type": "uint256"
        }
      ],
      "name": "joinGame",
      "outputs": [],
      "stateMutability": "nonpayable",
      "type": "function"
    },
    {
      "inputs": [
        {
          "internalType": "uint256",
          "name": "gameID",
          "type": "uint256"
        },
        {
          "internalType": "uint256",
          "name": "stakeValue",
          "type": "uint256"
        }
      ],
      "name": "proposeStake",
      "outputs": [],
      "stateMutability": "nonpayable",
      "type": "function"
    }
  ],
  "bytecode": "0x608060405234801561001057600080fd5b506001602d819055506001602e81905550611b3b806100306000396000f3fe608060405234801561001057600080fd5b50600436106100625760003560e01c80631de95425146100675780632b170aac146100975780639a7e4cea146100b3578063d46d0777146100e3578063efaa55a014610113578063f28ae7dd1461012f575b600080fd5b610081600480360381019061007c91906117ae565b61014b565b60405161008e919061181c565b60405180910390f35b6100b160048036038101906100ac919061186f565b610197565b005b6100cd60048036038101906100c891906117ae565b6104ed565b6040516100da9190611913565b60405180910390f35b6100fd60048036038101906100f891906117ae565b61051d565b60405161010a919061181c565b60405180910390f35b61012d600480360381019061012891906117ae565b610569565b005b6101496004803603810190610144919061192e565b610b49565b005b600080610157836110c7565b905080600001511561018c57806020015160006002811061017b5761017a61196e565b5b602002015160200151915050610192565b60009150505b919050565b6000602d549050602d60008154809291906101b1906119cc565b9190505550600060019050600060209050338160000160016101000a81548173ffffffffffffffffffffffffffffffffffffffff021916908373ffffffffffffffffffffffffffffffffffffffff16021790555060018160000160006101000a81548160ff021916908315150217905550808260010160006002811061023a5761023961196e565b5b600d02016000820160009054906101000a900460ff168160000160006101000a81548160ff0219169083151502179055506000820160019054906101000a900473ffffffffffffffffffffffffffffffffffffffff168160000160016101000a81548173ffffffffffffffffffffffffffffffffffffffff021916908373ffffffffffffffffffffffffffffffffffffffff160217905550600182015481600101556002820154816002015560038201816003016000820160009054906101000a900460ff168160000160006101000a81548160ff0219169083151502179055506001820181600101906008610331929190611359565b50600982015481600901555050905050600082601b0160006101000a81548160ff021916908360098111156103695761036861189c565b5b02179055508382601e0160016101000a81548160ff02191690831515021790555060018260000160006101000a81548160ff021916908315150217905550816000808581526020019081526020016000206000820160009054906101000a900460ff168160000160006101000a81548160ff02191690831515021790555060018201816001019060026103fd9291906113a3565b50601b820160009054906101000a900460ff1681601b0160006101000a81548160ff021916908360098111156104365761043561189c565b5b0217905550601c82015481601c0155601d82015481601d0155601e820160009054906101000a900460ff1681601e0160006101000a81548160ff021916908315150217905550601e820160019054906101000a900460ff1681601e0160016101000a81548160ff0219169083151502179055509050507f1edfba130181c8da1b98834639c59b5287912fcc01104c5a7a6e6c8cd194e3023033856040516104df93929190611a23565b60405180910390a150505050565b6000806104f9836110c7565b9050806000015115610512578060400151915050610518565b60099150505b919050565b600080610529836110c7565b905080600001511561055e57806020015160016002811061054d5761054c61196e565b5b602002015160200151915050610564565b60009150505b919050565b600081036108b757602e5490505b602d5481116108af5760008060008381526020019081526020016000206040518060e00160405290816000820160009054906101000a900460ff1615151515815260200160018201600280602002604051908101604052809291906000905b8282101561075b578382600d02016040518060a00160405290816000820160009054906101000a900460ff161515151581526020016000820160019054906101000a900473ffffffffffffffffffffffffffffffffffffffff1673ffffffffffffffffffffffffffffffffffffffff1673ffffffffffffffffffffffffffffffffffffffff1681526020016001820154815260200160028201548152602001600382016040518060600160405290816000820160009054906101000a900460ff1615151515815260200160018201600880602002604051908101604052809291906000905b8282101561073657838201600880602002604051908101604052809291908260088015610722576020028201916000905b82829054906101000a900460ff161515815260200190600101906020826000010492830192600103820291508084116106ec5790505b5050505050815260200190600101906106bb565b50505050815260200160098201548152505081525050815260200190600101906105d6565b505050508152602001601b820160009054906101000a900460ff1660098111156107885761078761189c565b5b600981111561079a5761079961189c565b5b8152602001601c8201548152602001601d8201548152602001601e820160009054906101000a900460ff16151515158152602001601e820160019054906101000a900460ff1615151515815250509050600115158160000151151514801561082a5750600060098111156108115761081061189c565b5b816040015160098111156108285761082761189c565b5b145b801561088257503373ffffffffffffffffffffffffffffffffffffffff1681602001516000600281106108605761085f61196e565b5b60200201516020015173ffffffffffffffffffffffffffffffffffffffff1614155b801561089057508060c00151155b1561089b57506108af565b81806108a6906119cc565b92505050610577565b80602e819055505b60008082815260200190815260200160002060000160009054906101000a900460ff166108e7576108e6611a5a565b5b600060209050338160000160016101000a81548173ffffffffffffffffffffffffffffffffffffffff021916908373ffffffffffffffffffffffffffffffffffffffff16021790555060018160000160006101000a81548160ff021916908315150217905550806000808481526020019081526020016000206001016001600281106109765761097561196e565b5b600d02016000820160009054906101000a900460ff168160000160006101000a81548160ff0219169083151502179055506000820160019054906101000a900473ffffffffffffffffffffffffffffffffffffffff168160000160016101000a81548173ffffffffffffffffffffffffffffffffffffffff021916908373ffffffffffffffffffffffffffffffffffffffff160217905550600182015481600101556002820154816002015560038201816003016000820160009054906101000a900460ff168160000160006101000a81548160ff0219169083151502179055506001820181600101906008610a6d929190611359565b506009820154816009015550509050506001600080848152602001908152602001600020601b0160006101000a81548160ff02191690836009811115610ab657610ab561189c565b5b02179055507fdf72bd9cb04731c1dfa0832a380e56504fda45508a7305083a9be0f343e9342182600080858152602001908152602001600020600101600060028110610b0557610b0461196e565b5b600d020160000160019054906101000a900473ffffffffffffffffffffffffffffffffffffffff1633604051610b3d93929190611a89565b60405180910390a15050565b60008060008481526020019081526020016000206040518060e00160405290816000820160009054906101000a900460ff1615151515815260200160018201600280602002604051908101604052809291906000905b82821015610d24578382600d02016040518060a00160405290816000820160009054906101000a900460ff161515151581526020016000820160019054906101000a900473ffffffffffffffffffffffffffffffffffffffff1673ffffffffffffffffffffffffffffffffffffffff1673ffffffffffffffffffffffffffffffffffffffff1681526020016001820154815260200160028201548152602001600382016040518060600160405290816000820160009054906101000a900460ff1615151515815260200160018201600880602002604051908101604052809291906000905b82821015610cff57838201600880602002604051908101604052809291908260088015610ceb576020028201916000905b82829054906101000a900460ff16151581526020019060010190602082600001049283019260010382029150808411610cb55790505b505050505081526020019060010190610c84565b5050505081526020016009820154815250508152505081526020019060010190610b9f565b505050508152602001601b820160009054906101000a900460ff166009811115610d5157610d5061189c565b5b6009811115610d6357610d6261189c565b5b8152602001601c8201548152602001601d8201548152602001601e820160009054906101000a900460ff16151515158152602001601e820160019054906101000a900460ff16151515158152505090508060000151610dc557610dc4611a5a565b5b60016009811115610dd957610dd861189c565b5b81604001516009811115610df057610def61189c565b5b14610dfe57610dfd611a5a565b5b3373ffffffffffffffffffffffffffffffffffffffff168160200151600060028110610e2d57610e2c61196e565b5b60200201516020015173ffffffffffffffffffffffffffffffffffffffff161480610ea357503373ffffffffffffffffffffffffffffffffffffffff168160200151600160028110610e8257610e8161196e565b5b60200201516020015173ffffffffffffffffffffffffffffffffffffffff16145b610eb057610eaf611a5a565b5b6000808260200151600060028110610ecb57610eca61196e565b5b60200201516020015173ffffffffffffffffffffffffffffffffffffffff163373ffffffffffffffffffffffffffffffffffffffff1603610f13576001915060009050610f1c565b60009150600190505b600083602001518360028110610f3557610f3461196e565b5b6020020151604001519050846000808881526020019081526020016000206001018360028110610f6857610f6761196e565b5b600d02016001018190555060008114158015610f8357508481145b156110625784600080888152602001908152602001600020601c01819055506002600080888152602001908152602001600020601b0160006101000a81548160ff02191690836009811115610fdb57610fda61189c565b5b02179055507fa63491c3e48c84a30c1a58128201bca4fd87bb84850cda339020ce19051e5a9086856020015160006002811061101a5761101961196e565b5b602002015160200151866020015160016002811061103b5761103a61196e565b5b602002015160200151886040516110559493929190611ac0565b60405180910390a16110bf565b7f4adf94e8b5302c48b3df6533aa17748538d68a74af46f0a894839b61fbf3f1bf86338660200151866002811061109c5761109b61196e565b5b602002015160200151886040516110b69493929190611ac0565b60405180910390a15b505050505050565b6110cf6114e6565b6110d76114e6565b600083036110e8576110e7611a5a565b5b6000808481526020019081526020016000206040518060e00160405290816000820160009054906101000a900460ff1615151515815260200160018201600280602002604051908101604052809291906000905b828210156112c1578382600d02016040518060a00160405290816000820160009054906101000a900460ff161515151581526020016000820160019054906101000a900473ffffffffffffffffffffffffffffffffffffffff1673ffffffffffffffffffffffffffffffffffffffff1673ffffffffffffffffffffffffffffffffffffffff1681526020016001820154815260200160028201548152602001600382016040518060600160405290816000820160009054906101000a900460ff1615151515815260200160018201600880602002604051908101604052809291906000905b8282101561129c57838201600880602002604051908101604052809291908260088015611288576020028201916000905b82829054906101000a900460ff161515815260200190600101906020826000010492830192600103820291508084116112525790505b505050505081526020019060010190611221565b505050508152602001600982015481525050815250508152602001906001019061113c565b505050508152602001601b820160009054906101000a900460ff1660098111156112ee576112ed61189c565b5b6009811115611300576112ff61189c565b5b8152602001601c8201548152602001601d8201548152602001601e820160009054906101000a900460ff16151515158152602001601e820160019054906101000a900460ff161515151581525050905080915050919050565b8260088101928215611392579182015b82811115611391578282906008611381929190611541565b5091600101919060010190611369565b5b50905061139f919061158c565b5090565b826002600d0281019282156114d55791600d0282015b828111156114d45782826000820160009054906101000a900460ff168160000160006101000a81548160ff0219169083151502179055506000820160019054906101000a900473ffffffffffffffffffffffffffffffffffffffff168160000160016101000a81548173ffffffffffffffffffffffffffffffffffffffff021916908373ffffffffffffffffffffffffffffffffffffffff160217905550600182015481600101556002820154816002015560038201816003016000820160009054906101000a900460ff168160000160006101000a81548160ff02191690831515021790555060018201816001019060086114b6929190611359565b50600982015481600901555050505091600d019190600d01906113b9565b5b5090506114e291906115b0565b5090565b6040518060e00160405280600015158152602001611502611645565b81526020016000600981111561151b5761151a61189c565b5b815260200160008152602001600081526020016000151581526020016000151581525090565b826008601f0160209004810192821561157b5791601f016020900482015b8281111561157a57825482559160010191906001019061155f565b5b5090506115889190611672565b5090565b5b808211156115ac57600081816115a3919061168f565b5060010161158d565b5090565b5b8082111561164157600080820160006101000a81549060ff02191690556000820160016101000a81549073ffffffffffffffffffffffffffffffffffffffff02191690556001820160009055600282016000905560038201600080820160006101000a81549060ff021916905560018201600061162e9190611696565b6009820160009055505050600d016115b1565b5090565b60405180604001604052806002905b61165c6116a9565b8152602001906001900390816116545790505090565b5b8082111561168b576000816000905550600101611673565b5090565b5060009055565b5080600801906116a6919061158c565b50565b6040518060a00160405280600015158152602001600073ffffffffffffffffffffffffffffffffffffffff16815260200160008152602001600080191681526020016116f36116f9565b81525090565b6040518060600160405280600015158152602001611715611722565b8152602001600081525090565b6040518061010001604052806008905b61173a611750565b8152602001906001900390816117325790505090565b604051806101000160405280600890602082028036833780820191505090505090565b600080fd5b6000819050919050565b61178b81611778565b811461179657600080fd5b50565b6000813590506117a881611782565b92915050565b6000602082840312156117c4576117c3611773565b5b60006117d284828501611799565b91505092915050565b600073ffffffffffffffffffffffffffffffffffffffff82169050919050565b6000611806826117db565b9050919050565b611816816117fb565b82525050565b6000602082019050611831600083018461180d565b92915050565b60008115159050919050565b61184c81611837565b811461185757600080fd5b50565b60008135905061186981611843565b92915050565b60006020828403121561188557611884611773565b5b60006118938482850161185a565b91505092915050565b7f4e487b7100000000000000000000000000000000000000000000000000000000600052602160045260246000fd5b600a81106118dc576118db61189c565b5b50565b60008190506118ed826118cb565b919050565b60006118fd826118df565b9050919050565b61190d816118f2565b82525050565b60006020820190506119286000830184611904565b92915050565b6000806040838503121561194557611944611773565b5b600061195385828601611799565b925050602061196485828601611799565b9150509250929050565b7f4e487b7100000000000000000000000000000000000000000000000000000000600052603260045260246000fd5b7f4e487b7100000000000000000000000000000000000000000000000000000000600052601160045260246000fd5b60006119d782611778565b91507fffffffffffffffffffffffffffffffffffffffffffffffffffffffffffffffff8203611a0957611a0861199d565b5b600182019050919050565b611a1d81611778565b82525050565b6000606082019050611a38600083018661180d565b611a45602083018561180d565b611a526040830184611a14565b949350505050565b7f4e487b7100000000000000000000000000000000000000000000000000000000600052600160045260246000fd5b6000606082019050611a9e6000830186611a14565b611aab602083018561180d565b611ab8604083018461180d565b949350505050565b6000608082019050611ad56000830187611a14565b611ae2602083018661180d565b611aef604083018561180d565b611afc6060830184611a14565b9594505050505056fea26469706673582212201832ee3ae091f6d1ab6a08fde413f44f2432999500ac359c0fcf3ccadf0ee19264736f6c63430008130033",
  "immutableReferences": {},
  "source": "// SPDX-License-Identifier: MIT\r\npragma solidity >=0.4.22 <0.9.0;\r\n\r\ncontract Battleships {\r\n        enum GameStates{\r\n            WAITING, \r\n            SETTING_STAKE, \r\n            ACCEPTING_PAYMENT,\r\n            PLACING_SHIPS, \r\n            P0_FIRING,\r\n            P1_CHECKING,\r\n            P1_FIRING,\r\n            P0_CHECKING,\r\n            DONE,\r\n            NONE\r\n        }\r\n\r\n        struct Board{\r\n            bool valid;\r\n            // N*N matrix of bits to store hits\r\n            bool[8][8] shots;\r\n            uint totalPieces;\r\n        }\r\n\r\n        struct Player{\r\n            bool valid;\r\n            address playerAddress;\r\n            uint proposedStake;\r\n            bytes32 boardTreeRoot;\r\n            Board shots_board;\r\n        }\r\n\r\n        struct Game{\r\n            bool valid;\r\n            // host is always player[0]\r\n            Player[2] players;\r\n            GameStates state;\r\n            uint decidedStake;\r\n            // used for foul accusation, a foul is triggered after 5 blocks\r\n            uint blockNumber;\r\n            // player 0 or player 1\r\n            // might turn it into address, we will see\r\n            bool accuser;\r\n            // whether or not this game should be in the public pool of joinable games\r\n            bool privateGame;\r\n        }\r\n\r\n    mapping(uint => Game) private openGames;\r\n\r\n    Game private gameTrampoline;\r\n    Player private playerTrampoline;\r\n    // used in generating UUIDs for the games\r\n    // for now we are gonna use this as-is\r\n    // start at 1 as 0 is used for a non-existing game\r\n    // TODO: deal with it overflowing\r\n    uint private gameCounter;\r\n    uint private lastOpenGame;\r\n\r\n    constructor() {\r\n        gameCounter = 1;\r\n        lastOpenGame = 1;\r\n    }\r\n\r\n    event ShareID(address _from, address _to, uint _gameID);\r\n    event GameStart(uint _gameID, address _host, address _challenger);\r\n    // Stake-agreement events\r\n    event SuggestedStake(uint _gameID, address _from, address _to, uint _stakeValue);\r\n    event GamePayable(uint _gameID, address _host, address _challenger, uint _stakeValue);\r\n\r\n    // create a Game value, add it to openGames, populate the Player[0]\r\n    function newGame(bool isPrivate) public {\r\n        uint gameID = gameCounter;\r\n        gameCounter++;\r\n        Game storage game = gameTrampoline;\r\n        Player storage host = playerTrampoline;\r\n        host.playerAddress = msg.sender;\r\n        host.valid = true;\r\n        game.players[0] = host;\r\n        game.state = GameStates.WAITING;\r\n        game.privateGame = isPrivate;\r\n        game.valid = true;\r\n        openGames[gameID] = game;\r\n        emit ShareID(address(this), msg.sender, gameID);\r\n        return;\r\n    }\r\n\r\n    // fails when called on gameID of 0 (non-existing game)\r\n    function getGamePosition (uint gameID) private view returns (Game memory){\r\n        Game memory gameChecked;\r\n        assert(gameID != 0);\r\n        gameChecked = openGames[gameID];\r\n        return gameChecked;\r\n    }\r\n\r\n    function checkGameState(uint gameID) public view returns (GameStates) {\r\n        Game memory game = getGamePosition(gameID);\r\n        if (game.valid){\r\n            return game.state;\r\n        }\r\n        else \r\n            return(GameStates.NONE);\r\n    }\r\n\r\n    function checkGamePlayerOne(uint gameID) public view returns (address) {\r\n        Game memory game = getGamePosition(gameID);\r\n        if (game.valid){\r\n            return game.players[0].playerAddress;\r\n        }\r\n        else \r\n            return(address(0));\r\n    }\r\n\r\n    function checkGamePlayerTwo(uint gameID) public view returns (address) {\r\n        Game memory game = getGamePosition(gameID);\r\n        if (game.valid){\r\n            return game.players[1].playerAddress;\r\n        }\r\n        else \r\n            return(address(0));\r\n    }\r\n\r\n    function joinGame(uint gameID) public {\r\n        if(gameID == 0){\r\n            // pick an unassigned game in sequential order\r\n            gameID = lastOpenGame;\r\n            while(gameID <= gameCounter){\r\n                Game memory game = openGames[gameID];\r\n                // ignore games with sender as host\r\n                if(game.valid == true && game.state == GameStates.WAITING && game.players[0].playerAddress != msg.sender && !game.privateGame){\r\n                    break;\r\n                }\r\n                gameID++;\r\n            }\r\n            // update the lastOpenGame counter no matter what\r\n            lastOpenGame = gameID;\r\n        }\r\n        // if the game wasn't valid, throw an error\r\n        assert(openGames[gameID].valid);\r\n        // set msg sender as this game's player 2\r\n        Player storage challenger = playerTrampoline;\r\n        challenger.playerAddress = msg.sender;\r\n        challenger.valid = true;\r\n        openGames[gameID].players[1] = challenger;\r\n        // update this game's status\r\n        openGames[gameID].state = GameStates.SETTING_STAKE;\r\n        // alert the players\r\n        emit GameStart(gameID, openGames[gameID].players[0].playerAddress, msg.sender);\r\n        return;\r\n    }\r\n\r\n    // Function to propose and agree upon a stake between players\r\n    function proposeStake(uint gameID, uint stakeValue) public{\r\n        Game memory game = openGames[gameID];\r\n        assert(game.valid);\r\n        assert(game.state == GameStates.SETTING_STAKE);\r\n        assert(game.players[0].playerAddress == msg.sender || game.players[1].playerAddress == msg.sender);\r\n        // Check whether or not this player's opponent has already proposed a stake\r\n        uint opponentIndex;\r\n        uint stakerIndex;\r\n        if(msg.sender == game.players[0].playerAddress){\r\n            opponentIndex = 1;\r\n            stakerIndex = 0;\r\n        } else {\r\n            opponentIndex = 0;\r\n            stakerIndex = 1;\r\n        }\r\n        uint opponentStake = game.players[opponentIndex].proposedStake;\r\n        // set this player's proposed stake to their message\r\n        openGames[gameID].players[stakerIndex].proposedStake = stakeValue;\r\n        // if the opponent has proposed a stake we check whether or not it equals the one proposed by us\r\n        // 0 is not a valid stake\r\n        if(opponentStake != 0 && opponentStake == stakeValue){\r\n            openGames[gameID].decidedStake = stakeValue;\r\n            openGames[gameID].state = GameStates.ACCEPTING_PAYMENT;\r\n            emit GamePayable(gameID, game.players[0].playerAddress, game.players[1].playerAddress, stakeValue);\r\n        }else{\r\n            emit SuggestedStake(gameID, msg.sender, game.players[opponentIndex].playerAddress, stakeValue);\r\n        }\r\n        return;\r\n    }\r\n}",
  "sourcePath": "F:\\Documents\\Code\\School\\P2PBC\\Battleships\\contracts\\Battleships.sol",
  "compiler": {
    "name": "solc",
    "version": "0.8.19+commit.7dd6d404.Emscripten.clang"
  },
  "schemaVersion": "3.4.13",
  "updatedAt": "2023-05-19T16:15:39.586Z",
  "networkType": "ethereum",
  "devdoc": {
    "kind": "dev",
    "methods": {},
    "version": 1
  },
  "userdoc": {
    "kind": "user",
    "methods": {},
    "version": 1
  }
}