{
  "contractName": "Battleships",
  "abi": [
    {
      "inputs": [],
      "stateMutability": "nonpayable",
      "type": "constructor"
    },
    {
      "inputs": [],
      "name": "InvalidGameID",
      "type": "error"
    },
    {
      "inputs": [],
      "name": "NoOpenGames",
      "type": "error"
    },
    {
      "inputs": [],
      "name": "NotInGame",
      "type": "error"
    },
    {
      "inputs": [],
      "name": "StakeAlreadyDeposited",
      "type": "error"
    },
    {
      "inputs": [
        {
          "internalType": "uint256",
          "name": "expectedStakeValue",
          "type": "uint256"
        }
      ],
      "name": "WrongStakeAmount",
      "type": "error"
    },
    {
      "anonymous": false,
      "inputs": [
        {
          "indexed": false,
          "internalType": "uint256",
          "name": "_gameID",
          "type": "uint256"
        }
      ],
      "name": "AcceptingBoards",
      "type": "event"
    },
    {
      "anonymous": false,
      "inputs": [
        {
          "indexed": false,
          "internalType": "uint256",
          "name": "_gameID",
          "type": "uint256"
        },
        {
          "indexed": false,
          "internalType": "address",
          "name": "_player",
          "type": "address"
        }
      ],
      "name": "BoardAcknowledgeEvent",
      "type": "event"
    },
    {
      "anonymous": false,
      "inputs": [
        {
          "indexed": false,
          "internalType": "uint256",
          "name": "_gameID",
          "type": "uint256"
        },
        {
          "indexed": false,
          "internalType": "address",
          "name": "_accused",
          "type": "address"
        },
        {
          "indexed": false,
          "internalType": "uint256",
          "name": "_block",
          "type": "uint256"
        }
      ],
      "name": "Foul",
      "type": "event"
    },
    {
      "anonymous": false,
      "inputs": [
        {
          "indexed": false,
          "internalType": "uint256",
          "name": "_gameID",
          "type": "uint256"
        }
      ],
      "name": "GameEnded",
      "type": "event"
    },
    {
      "anonymous": false,
      "inputs": [
        {
          "indexed": false,
          "internalType": "uint256",
          "name": "_gameID",
          "type": "uint256"
        },
        {
          "indexed": false,
          "internalType": "address",
          "name": "_host",
          "type": "address"
        },
        {
          "indexed": false,
          "internalType": "address",
          "name": "_challenger",
          "type": "address"
        },
        {
          "indexed": false,
          "internalType": "uint256",
          "name": "_stakeValue",
          "type": "uint256"
        }
      ],
      "name": "GamePayable",
      "type": "event"
    },
    {
      "anonymous": false,
      "inputs": [
        {
          "indexed": false,
          "internalType": "uint256",
          "name": "_gameID",
          "type": "uint256"
        },
        {
          "indexed": false,
          "internalType": "address",
          "name": "_host",
          "type": "address"
        },
        {
          "indexed": false,
          "internalType": "address",
          "name": "_challenger",
          "type": "address"
        }
      ],
      "name": "GameStart",
      "type": "event"
    },
    {
      "anonymous": false,
      "inputs": [
        {
          "indexed": false,
          "internalType": "uint256",
          "name": "_gameID",
          "type": "uint256"
        }
      ],
      "name": "PlayerZeroTurn",
      "type": "event"
    },
    {
      "anonymous": false,
      "inputs": [
        {
          "indexed": false,
          "internalType": "uint256",
          "name": "_gameID",
          "type": "uint256"
        },
        {
          "indexed": false,
          "internalType": "address",
          "name": "_winner",
          "type": "address"
        }
      ],
      "name": "RequestBoard",
      "type": "event"
    },
    {
      "anonymous": false,
      "inputs": [
        {
          "indexed": false,
          "internalType": "address",
          "name": "_from",
          "type": "address"
        },
        {
          "indexed": false,
          "internalType": "address",
          "name": "_to",
          "type": "address"
        },
        {
          "indexed": false,
          "internalType": "uint256",
          "name": "_gameID",
          "type": "uint256"
        }
      ],
      "name": "ShareID",
      "type": "event"
    },
    {
      "anonymous": false,
      "inputs": [
        {
          "indexed": false,
          "internalType": "uint256",
          "name": "_gameID",
          "type": "uint256"
        },
        {
          "indexed": false,
          "internalType": "uint8",
          "name": "_location",
          "type": "uint8"
        },
        {
          "indexed": false,
          "internalType": "bool",
          "name": "_claim",
          "type": "bool"
        },
        {
          "indexed": false,
          "internalType": "bool",
          "name": "_validity",
          "type": "bool"
        }
      ],
      "name": "ShotsChecked",
      "type": "event"
    },
    {
      "anonymous": false,
      "inputs": [
        {
          "indexed": false,
          "internalType": "uint256",
          "name": "_gameID",
          "type": "uint256"
        },
        {
          "indexed": false,
          "internalType": "uint8",
          "name": "_location",
          "type": "uint8"
        }
      ],
      "name": "ShotsFired",
      "type": "event"
    },
    {
      "anonymous": false,
      "inputs": [
        {
          "indexed": false,
          "internalType": "uint256",
          "name": "_gameID",
          "type": "uint256"
        },
        {
          "indexed": false,
          "internalType": "address",
          "name": "_whoPaid",
          "type": "address"
        }
      ],
      "name": "StakePaid",
      "type": "event"
    },
    {
      "anonymous": false,
      "inputs": [
        {
          "indexed": false,
          "internalType": "uint256",
          "name": "_gameID",
          "type": "uint256"
        },
        {
          "indexed": false,
          "internalType": "address",
          "name": "_from",
          "type": "address"
        },
        {
          "indexed": false,
          "internalType": "address",
          "name": "_to",
          "type": "address"
        },
        {
          "indexed": false,
          "internalType": "uint256",
          "name": "_stakeValue",
          "type": "uint256"
        }
      ],
      "name": "SuggestedStake",
      "type": "event"
    },
    {
      "anonymous": false,
      "inputs": [
        {
          "indexed": false,
          "internalType": "uint256",
          "name": "_gameID",
          "type": "uint256"
        },
        {
          "indexed": false,
          "internalType": "address",
          "name": "_winner",
          "type": "address"
        }
      ],
      "name": "Victory",
      "type": "event"
    },
    {
      "inputs": [],
      "name": "BOARD_SIZE",
      "outputs": [
        {
          "internalType": "uint8",
          "name": "",
          "type": "uint8"
        }
      ],
      "stateMutability": "view",
      "type": "function",
      "constant": true
    },
    {
      "inputs": [],
      "name": "NUMBER_OF_SHIP_SQUARES",
      "outputs": [
        {
          "internalType": "uint8",
          "name": "",
          "type": "uint8"
        }
      ],
      "stateMutability": "view",
      "type": "function",
      "constant": true
    },
    {
      "inputs": [
        {
          "internalType": "bool",
          "name": "isPrivate",
          "type": "bool"
        }
      ],
      "name": "newGame",
      "outputs": [],
      "stateMutability": "nonpayable",
      "type": "function"
    },
    {
      "inputs": [
        {
          "internalType": "uint256",
          "name": "gameID",
          "type": "uint256"
        }
      ],
      "name": "joinGame",
      "outputs": [],
      "stateMutability": "nonpayable",
      "type": "function"
    },
    {
      "inputs": [
        {
          "internalType": "uint256",
          "name": "gameID",
          "type": "uint256"
        }
      ],
      "name": "checkGameState",
      "outputs": [
        {
          "internalType": "enum Battleships.GameStates",
          "name": "",
          "type": "uint8"
        }
      ],
      "stateMutability": "view",
      "type": "function",
      "constant": true
    },
    {
      "inputs": [
        {
          "internalType": "uint256",
          "name": "gameID",
          "type": "uint256"
        },
        {
          "internalType": "uint256",
          "name": "index",
          "type": "uint256"
        }
      ],
      "name": "checkGamePlayer",
      "outputs": [
        {
          "internalType": "address",
          "name": "",
          "type": "address"
        }
      ],
      "stateMutability": "view",
      "type": "function",
      "constant": true
    },
    {
      "inputs": [
        {
          "internalType": "uint256",
          "name": "gameID",
          "type": "uint256"
        },
        {
          "internalType": "uint256",
          "name": "stakeValue",
          "type": "uint256"
        }
      ],
      "name": "proposeStake",
      "outputs": [],
      "stateMutability": "nonpayable",
      "type": "function"
    },
    {
      "inputs": [
        {
          "internalType": "uint256",
          "name": "gameID",
          "type": "uint256"
        }
      ],
      "name": "checkStakePlayerOne",
      "outputs": [
        {
          "internalType": "uint256",
          "name": "",
          "type": "uint256"
        }
      ],
      "stateMutability": "view",
      "type": "function",
      "constant": true
    },
    {
      "inputs": [
        {
          "internalType": "uint256",
          "name": "gameID",
          "type": "uint256"
        }
      ],
      "name": "checkStakePlayerTwo",
      "outputs": [
        {
          "internalType": "uint256",
          "name": "",
          "type": "uint256"
        }
      ],
      "stateMutability": "view",
      "type": "function",
      "constant": true
    },
    {
      "inputs": [
        {
          "internalType": "uint256",
          "name": "gameID",
          "type": "uint256"
        }
      ],
      "name": "checkStakeGame",
      "outputs": [
        {
          "internalType": "uint256",
          "name": "",
          "type": "uint256"
        }
      ],
      "stateMutability": "view",
      "type": "function",
      "constant": true
    },
    {
      "inputs": [
        {
          "internalType": "uint256",
          "name": "gameID",
          "type": "uint256"
        }
      ],
      "name": "payStake",
      "outputs": [],
      "stateMutability": "payable",
      "type": "function",
      "payable": true
    },
    {
      "inputs": [
        {
          "internalType": "uint256",
          "name": "gameID",
          "type": "uint256"
        }
      ],
      "name": "declineStake",
      "outputs": [],
      "stateMutability": "nonpayable",
      "type": "function"
    },
    {
      "inputs": [
        {
          "internalType": "uint256",
          "name": "gameID",
          "type": "uint256"
        }
      ],
      "name": "checkGamePayable",
      "outputs": [
        {
          "internalType": "bool",
          "name": "",
          "type": "bool"
        }
      ],
      "stateMutability": "view",
      "type": "function",
      "constant": true
    },
    {
      "inputs": [
        {
          "internalType": "uint256",
          "name": "gameID",
          "type": "uint256"
        },
        {
          "internalType": "bytes32",
          "name": "boardRoot",
          "type": "bytes32"
        }
      ],
      "name": "PlaceShips",
      "outputs": [],
      "stateMutability": "nonpayable",
      "type": "function"
    },
    {
      "inputs": [
        {
          "internalType": "uint256",
          "name": "gameID",
          "type": "uint256"
        },
        {
          "internalType": "uint8",
          "name": "location",
          "type": "uint8"
        }
      ],
      "name": "FireTorpedo",
      "outputs": [],
      "stateMutability": "nonpayable",
      "type": "function"
    },
    {
      "inputs": [
        {
          "internalType": "uint256",
          "name": "gameID",
          "type": "uint256"
        },
        {
          "internalType": "uint8",
          "name": "location",
          "type": "uint8"
        },
        {
          "internalType": "bool",
          "name": "isHit",
          "type": "bool"
        },
        {
          "internalType": "bytes32",
          "name": "leaf",
          "type": "bytes32"
        },
        {
          "internalType": "bytes32[]",
          "name": "proof",
          "type": "bytes32[]"
        }
      ],
      "name": "ConfirmShot",
      "outputs": [],
      "stateMutability": "nonpayable",
      "type": "function"
    },
    {
      "inputs": [
        {
          "internalType": "uint8",
          "name": "tile",
          "type": "uint8"
        },
        {
          "internalType": "bool",
          "name": "ship",
          "type": "bool"
        }
      ],
      "name": "GenLeafNode",
      "outputs": [
        {
          "internalType": "bytes32",
          "name": "",
          "type": "bytes32"
        }
      ],
      "stateMutability": "pure",
      "type": "function",
      "constant": true
    },
    {
      "inputs": [
        {
          "internalType": "uint256",
          "name": "gameID",
          "type": "uint256"
        },
        {
          "internalType": "uint8[]",
          "name": "tiles",
          "type": "uint8[]"
        },
        {
          "internalType": "bool[]",
          "name": "ships",
          "type": "bool[]"
        },
        {
          "internalType": "bytes32[]",
          "name": "nodes",
          "type": "bytes32[]"
        },
        {
          "internalType": "bytes32[][]",
          "name": "proofs",
          "type": "bytes32[][]"
        },
        {
          "internalType": "bytes32",
          "name": "root",
          "type": "bytes32"
        }
      ],
      "name": "VerifyWinner",
      "outputs": [],
      "stateMutability": "nonpayable",
      "type": "function"
    },
    {
      "inputs": [
        {
          "internalType": "uint256",
          "name": "gameID",
          "type": "uint256"
        }
      ],
      "name": "WithdrawWinnings",
      "outputs": [],
      "stateMutability": "nonpayable",
      "type": "function"
    },
    {
      "inputs": [
        {
          "internalType": "uint256",
          "name": "gameID",
          "type": "uint256"
        }
      ],
      "name": "FoulAccusation",
      "outputs": [],
      "stateMutability": "nonpayable",
      "type": "function"
    },
    {
      "inputs": [
        {
          "internalType": "uint256",
          "name": "gameID",
          "type": "uint256"
        }
      ],
      "name": "CheckFoulTimer",
      "outputs": [],
      "stateMutability": "nonpayable",
      "type": "function"
    },
    {
      "inputs": [
        {
          "internalType": "uint256",
          "name": "gameID",
          "type": "uint256"
        },
        {
          "internalType": "enum Battleships.GameStates",
          "name": "state",
          "type": "uint8"
        },
        {
          "internalType": "address",
          "name": "winner",
          "type": "address"
        }
      ],
      "name": "ChangeState",
      "outputs": [],
      "stateMutability": "nonpayable",
      "type": "function"
    }
  ],
  "bytecode": "0x608060405234801561001057600080fd5b50600160248190556025556026805460ff196101003302166001600160a81b0319909116176005179055613214806100496000396000f3fe6080604052600436106101355760003560e01c806399396b11116100ab578063e0dd9bb41161006f578063e0dd9bb4146103a0578063e6f4a9b7146103c0578063efaa55a0146103e0578063f28ae7dd14610400578063f7b68ea914610420578063fba523b71461044057600080fd5b806399396b11146102b95780639a7e4cea146102f1578063aa3ee9151461031e578063bd7c88f81461033e578063dc4a3e951461038b57600080fd5b80633c2d3a88116100fd5780633c2d3a88146101e45780636930aa4d14610204578063699f5aeb1461022b57806374f760e41461025957806379fbd95d1461027957806395287e961461029957600080fd5b8063012b61f01461013a57806307e79cb31461016f5780630e37dcd01461019157806316337b89146101a45780632b170aac146101c4575b600080fd5b34801561014657600080fd5b5061015a610155366004612d14565b610460565b60405190151581526020015b60405180910390f35b34801561017b57600080fd5b5061018f61018a366004612d2d565b6104d9565b005b61018f61019f366004612d14565b61055e565b3480156101b057600080fd5b5061018f6101bf366004612d7f565b61085a565b3480156101d057600080fd5b5061018f6101df366004612daf565b610bc8565b3480156101f057600080fd5b5061018f6101ff366004612d14565b610e09565b34801561021057600080fd5b50610219601481565b60405160ff9091168152602001610166565b34801561023757600080fd5b5061024b610246366004612d14565b610efd565b604051908152602001610166565b34801561026557600080fd5b5061018f610274366004612d14565b610f64565b34801561028557600080fd5b5061018f610294366004612e30565b611074565b3480156102a557600080fd5b5061018f6102b4366004612eaa565b61151a565b3480156102c557600080fd5b506102d96102d4366004612d7f565b611886565b6040516001600160a01b039091168152602001610166565b3480156102fd57600080fd5b5061031161030c366004612d14565b611916565b6040516101669190612f9a565b34801561032a57600080fd5b5061024b610339366004612d14565b61194e565b34801561034a57600080fd5b5061024b610359366004612fc2565b6040805160ff939093166020808501919091529115158382015280518084038201815260609093019052815191012090565b34801561039757600080fd5b50610219600881565b3480156103ac57600080fd5b5061018f6103bb366004612ff9565b6119a6565b3480156103cc57600080fd5b5061018f6103db366004612d14565b611c65565b3480156103ec57600080fd5b5061018f6103fb366004612d14565b611fee565b34801561040c57600080fd5b5061018f61041b366004612d7f565b612266565b34801561042c57600080fd5b5061018f61043b366004612d14565b612698565b34801561044c57600080fd5b5061024b61045b366004612d14565b61298e565b60008181526020819052604081205460ff16801561048f575060008281526020819052604090206001015460ff165b80156104ac575060008281526020819052604090206009015460ff165b156104cc5750600090815260208190526040902054610100900460ff1690565b506000919050565b919050565b60265461010090046001600160a01b031633146104f8576104f861303b565b6000838152602081905260409020601101805483919060ff1916600183600b81111561052657610526612f84565b021790555060009283526020839052604090922060150180546001600160a01b0319166001600160a01b039093169290921790915550565b600081815260208190526040902054819060ff1661057e5761057e61303b565b60008281526020819052604090206001015482906001600160a01b0362010000909104163314806105cf57506000818152602081905260409020600901546001600160a01b03620100009091041633145b6105db576105db61303b565b8260038060008381526020819052604090206011015460ff16600b81111561060557610605612f84565b146106125761061261303b565b60008581526020819052604081206001019060080201546201000090046001600160a01b03163314801561065c5750600085815260208190526040902060010154610100900460ff165b806106a757506000858152602081905260409020600901546201000090046001600160a01b0316331480156106a75750600085815260208190526040902060090154610100900460ff165b156106c557604051635e558b2360e01b815260040160405180910390fd5b60008581526020819052604090206012015434146107115760008581526020819052604090819020601201549051633365c34560e11b8152600481019190915260240160405180910390fd5b60008581526020819052604081206001015481906201000090046001600160a01b03163303610746575060009050600161074e565b506001905060005b60008781526020819052604090206001908101836002811061077257610772613025565b6008020180549115156101000261ff001990921691909117905561079587612a31565b604080518881523360208201527f95ddb9abe17699603c18cef7bcfd33947d19c8eb237e01edac0bd509b481339e910160405180910390a1600087815260208190526040902060010181600281106107ef576107ef613025565b6008020154610100900460ff16156108515760008781526020818152604091829020601101805460ff1916600417905590518881527ff751b3d5e96ffa95a434b79874df7e232b82d5c688a5d61fd7b5c5ce8724712791015b60405180910390a15b50505050505050565b600082815260208190526040902054829060ff1661087a5761087a61303b565b60008381526020819052604090206001015483906001600160a01b0362010000909104163314806108cb57506000818152602081905260409020600901546001600160a01b03620100009091041633145b6108d7576108d761303b565b8360018060008381526020819052604090206011015460ff16600b81111561090157610901612f84565b1461090e5761090e61303b565b600086815260208190526040812081906001018160080201546201000090046001600160a01b0316331461094657600191508161094c565b60009150815b5060008881526020819052604081206001019060080201546201000090046001600160a01b031633146109825750600080610987565b506001805b50600088815260208190526040902060010182600281106109aa576109aa613025565b60080201600201546000801b146109c057600080fd5b601f805460ff1916600117815560146020556109dd600880613067565b60ff1660215560005b6109f1600880613067565b60ff16811015610a4257600060228260408110610a1057610a10613025565b602091828204019190066101000a81548160ff0219169083151502179055508080610a3a9061308a565b9150506109e6565b50600089815260208190526040902081906001018460028110610a6757610a67613025565b8254600891909102919091016003818101805460ff191660ff90941615159390931783556001840154600483015560028401546005830155610ab0916006019084016040612b58565b505050600089815260208190526040902088906001018460028110610ad757610ad7613025565b6008020160020155604080518a81523360208201527fde8cdabe60db81138d1e5580b73440f47ba010dbd18575d18bad0b750987001e910160405180910390a160008981526020819052604090206001018260028110610b3957610b39613025565b60080201600201546000801b14610bbd5760008981526020818152604091829020601181018054600260ff199091161790556001015482518c8152620100009091046001600160a01b031691810191909152338183015290517fdf72bd9cb04731c1dfa0832a380e56504fda45508a7305083a9be0f343e934219181900360600190a15b505050505050505050565b602480549081906000610bda8361308a565b90915550506017805461ff001960ff1962010000338102821661ff01600160b01b03199094169390931760019081178381168087556002805462010000600160b01b031961ffff1990911660ff94851615159097169690961761010080840485161515021795909516908690046001600160a01b0316909502949094178355601854600355601954600455601a80546005805490941695161515949094178255601b54600655601c546007559392839291610c996008601d6040612b58565b5050505060118301805460ff1990811690915560148401805460ff60a01b1916600160a01b88151502179055835461ffff1990811660019081178655600087815260208190526040902080549384168217815586549390921660ff61010094859004161515909302929092178217815584925090610d1e908281019084016002612b9b565b50601182810154908201805460ff9092169160ff1916600183600b811115610d4857610d48612f84565b021790555060128281015490820155601380830154908201556014808301805491830180546001600160a01b03198082166001600160a01b039586169081178455935460ff600160a01b91829004161515026001600160a81b03199092169093171790556015938401549390920180549092169216919091179055604080513081523360208201529081018490527f1edfba130181c8da1b98834639c59b5287912fcc01104c5a7a6e6c8cd194e3029060600160405180910390a150505050565b600081815260208190526040902054819060ff16610e2957610e2961303b565b60008281526020819052604090206001015482906001600160a01b036201000090910416331480610e7a57506000818152602081905260409020600901546001600160a01b03620100009091041633145b610e8657610e8661303b565b6000838152602081905260409020601401546001600160a01b0316610eaa57600080fd5b602654610eba9060ff16436130a3565b6000848152602081905260409020601301541015610ef857600083815260208190526040902060140154610ef89084906001600160a01b0316612acc565b505050565b60008181526020819052604081205460ff168015610f2c575060008281526020819052604090206001015460ff165b8015610f49575060008281526020819052604090206009015460ff165b156104cc575060009081526020819052604090206012015490565b600081815260208190526040902054819060ff16610f8457610f8461303b565b60008281526020819052604090206015015482906001600160a01b03163314610faf57610faf61303b565b8260098060008381526020819052604090206011015460ff16600b811115610fd957610fd9612f84565b14610fe657610fe661303b565b6000858152602081905260408120601201546110039060026130b6565b600087815260208190526040808220601101805460ff1916600a1790555191925090339083908381818185875af1925050503d8060008114611061576040519150601f19603f3d011682016040523d82523d6000602084013e611066565b606091505b505090508061085157600080fd5b60008681526020819052604090205460ff166110925761109261303b565b61109d600880613067565b60ff168560ff16106110b1576110b161303b565b60008681526020819052604090206001015433620100009091046001600160a01b0316036111145760075b60008781526020819052604090206011015460ff16600b81111561110257611102612f84565b1461110f5761110f61303b565b61114b565b60008681526020819052604090206009015433620100009091046001600160a01b0316036111435760056110dc565b61114b61303b565b6000611156876129d9565b6040805160ff8916602080830191909152881515828401528251808303840181526060909201909252805191012090915084146111955761119561303b565b6000878152602081905260409020815173__Merkle________________________________91637ffe9d8c9186918691600190910190600281106111db576111db613025565b6008020160020154886040518563ffffffff1660e01b815260040161120394939291906130cd565b602060405180830381865af4158015611220573d6000803e3d6000fd5b505050506040513d601f19601f820116820180604052508101906112449190613113565b156114c75761125287612a31565b841561140657600087815260208181526040909120908201516001909101906002811061128157611281613025565b600802016003016003018660ff166040811061129f5761129f613025565b602081049091015460ff601f9092166101000a9004166114065760008781526020818152604090912090820151600190910190600281106112e2576112e2613025565b6008020160030160010160008154809291906112fd90613130565b909155505060008781526020819052604090206001908101828260200201516002811061132c5761132c613025565b600802016003016003018760ff166040811061134a5761134a613025565b602091828204019190066101000a81548160ff0219169083151502179055506000808881526020019081526020016000206001018160016002811061139157611391613025565b6020020151600281106113a6576113a6613025565b60080201600301600101546000036114065760008781526020818152604090912090820151611400918991600190910190600281106113e7576113e7613025565b60080201546201000090046001600160a01b0316612acc565b50611512565b600560008881526020819052604090206011015460ff16600b81111561142e5761142e612f84565b14611457576000878152602081905260409020601101805460ff19166004908117909155611477565b6000878152602081905260409020601101805460ff191660069081179091555b506040805188815260ff88166020820152861515818301526001606082015290517f6b7f4cb32e4557bb0ec1ac014e9cf98e7eb88491d66436be28084edaf4ae0d079181900360800190a1610851565b6040805188815260ff8816602082015286151591810191909152600060608201527f6b7f4cb32e4557bb0ec1ac014e9cf98e7eb88491d66436be28084edaf4ae0d0790608001610848565b505050505050565b60008a81526020819052604081205460ff166115385761153861303b565b600860008c81526020819052604090206011015460ff16600b81111561156057611560612f84565b1461156d5761156d61303b565b60008b815260208190526040902060018101546015909101546001600160a01b036201000090920482169116036115a6575060006115aa565b5060015b60008b8152602081905260409020601501546001600160a01b031633146115d3576115d361303b565b60008b815260208190526040902060010181600281106115f5576115f5613025565b6008020160020154821461160b5761160b61303b565b611616600880613067565b60ff1689146116275761162761303b565b611632600880613067565b60ff1687146116435761164361303b565b6000805b611652600880613067565b60ff168160ff1610156117f85789898260ff1681811061167457611674613025565b90506020020160208101906116899190612daf565b1561169c578161169881613147565b9250505b6116f38c8c8360ff168181106116b4576116b4613025565b90506020020160208101906116c99190613166565b8b8b8460ff168181106116de576116de613025565b90506020020160208101906103599190612daf565b88888360ff1681811061170857611708613025565b905060200201351461171c5761171c61303b565b73__Merkle________________________________637ffe9d8c87878460ff1681811061174b5761174b613025565b905060200281019061175d9190613181565b878c8c8760ff1681811061177357611773613025565b905060200201356040518563ffffffff1660e01b815260040161179994939291906130cd565b602060405180830381865af41580156117b6573d6000803e3d6000fd5b505050506040513d601f19601f820116820180604052508101906117da9190613113565b6117e6576117e661303b565b806117f081613147565b915050611647565b5060ff811660141461180c5761180c61303b565b60008c8152602081905260409020805461010061ff0019909116178155601101805460ff191660091790556118408c612a31565b604080518d81523360208201527fc2815c82adc4278d6e044948482e0d16acf9a6369fc96eff02ffc7e7cd5f39d0910160405180910390a1505050505050505050505050565b60008281526020819052604081205460ff1680156118ca5750600083815260208190526040902060010182600281106118c1576118c1613025565b600802015460ff165b1561190c57600083815260208190526040902060010182600281106118f1576118f1613025565b60080201546201000090046001600160a01b03169050611910565b5060005b92915050565b60008181526020819052604081205460ff1615611946575060009081526020819052604090206011015460ff1690565b50600b919050565b60008181526020819052604081205460ff16801561197d575060008281526020819052604090206009015460ff165b156104cc5760008281526020819052604090206001908101905b60080201600101549050919050565b600082815260208190526040902054829060ff166119c6576119c661303b565b60008381526020819052604090206001015483906001600160a01b036201000090910416331480611a1757506000818152602081905260409020600901546001600160a01b03620100009091041633145b611a2357611a2361303b565b82611a2f600880613067565b60ff168160ff1610611a4357611a4361303b565b8460046000611a51836129d9565b9050600482600b811115611a6757611a67612f84565b03611ac6578051600003611abf5781600b811115611a8757611a87612f84565b60008481526020819052604090206011015460ff16600b811115611aad57611aad612f84565b14611aba57611aba61303b565b611b09565b6006611a87565b600782600b811115611ada57611ada612f84565b03611b01578051600003611afa5781600b811115611a8757611a87612f84565b6005611a87565b611b0961303b565b50611b1387612a31565b6000611b1e886129d9565b9050600460008981526020819052604090206011015460ff16600b811115611b4857611b48612f84565b14611b71576000888152602081905260409020601101805460ff19166007908117909155611b91565b6000888152602081905260409020601101805460ff191660059081179091555b506000888152602081905260409020815160019091019060028110611bb857611bb8613025565b600802016003016002016000815480929190611bd390613130565b90915550506000888152602081905260409020815160019091019060028110611bfe57611bfe613025565b6008020160030160020154600003611c1f57611c1a8833612acc565b611c5b565b6040805189815260ff891660208201527fdba0500edc5d1049fa27c54a56e9f0313f9a962ae79b418ea0cfdfb556593286910160405180910390a15b5050505050505050565b600081815260208190526040902054819060ff16611c8557611c8561303b565b60008281526020819052604090206001015482906001600160a01b036201000090910416331480611cd657506000818152602081905260409020600901546001600160a01b03620100009091041633145b611ce257611ce261303b565b8260038060008381526020819052604090206011015460ff16600b811115611d0c57611d0c612f84565b14611d1957611d1961303b565b60008581526020819052604081206001019060080201546201000090046001600160a01b031633148015611d635750600085815260208190526040902060010154610100900460ff165b80611dae57506000858152602081905260409020600901546201000090046001600160a01b031633148015611dae5750600085815260208190526040902060090154610100900460ff165b15611dcc57604051635e558b2360e01b815260040160405180910390fd5b60008581526020819052604081206001015481906201000090046001600160a01b03163303611e015750600090506001611e09565b506001905060005b60008781526020819052604090206001018160028110611e2b57611e2b613025565b6008020154610100900460ff1615611edd5760008781526020819052604081206001018260028110611e5f57611e5f613025565b600802015460008981526020819052604090819020601201549051620100009092046001600160a01b03169160006040518083038185875af1925050503d8060008114611ec8576040519150601f19603f3d011682016040523d82523d6000602084013e611ecd565b606091505b5050905080611edb57600080fd5b505b600087815260208190526040812060048101805460ff1990811690915560058201839055600682018390556007820183905560088201839055600c8201805482169055600d8201839055600e8201839055600f8201839055601082018390556001820180546001600160b01b031990811690915560028301849055600383018490556009830180549091169055600a8201839055600b8201839055815461ffff1916825560118201805490911690556012810182905560138101919091556014810180546001600160a81b031916905560150180546001600160a01b03191690556040518781527fce24807f7e4b60b4e641462f13029fa5e5f79075bbc3f8e5cd43ecd19661d76090602001610848565b806000036120b357506025545b6024548110156120b35760008181526020819052604090205460ff161515600114801561204b575060008181526020819052604081206011015460ff16600b81111561204957612049612f84565b145b801561207857506000818152602081905260409020600101546001600160a01b0362010000909104163314155b801561209d5750600081815260208190526040902060140154600160a01b900460ff16155b6120b357806120ab8161308a565b915050611ffb565b60008181526020819052604090205460ff166120e257604051630251ee3760e01b815260040160405180910390fd5b60008181526020819052604081206011015460ff16600b81111561210857612108612f84565b146121155761211561303b565b6121208160016130a3565b6025556017805461ff001960ff1962010000338102821661ff01600160b01b03199094169390931760011782811685556000868152602081905260409081902060098101805480861660ff95861615159081178355895461ffff19909216971696909617610100968790048516151590960295909517808655875462010000600160b01b0319909116908790046001600160a01b0316909602959095178455601854600a860155601954600b860155601a8054600c8701805490951693161515929092178355601b54600d860155601c54600e860155859491929161220d91600f90910190601d90612b58565b50505060008481526020818152604091829020601101805460ff1916600117905590518581527f972651cf62ccc65bd2ba0fd996eb34701d5773844d3303545d5b4cb29738f10493500190505b60405180910390a15050565b600082815260208190526040902054829060ff166122865761228661303b565b60008381526020819052604090206001015483906001600160a01b0362010000909104163314806122d757506000818152602081905260409020600901546001600160a01b03620100009091041633145b6122e3576122e361303b565b8360028060008381526020819052604090206011015460ff16600b81111561230d5761230d612f84565b1461231a5761231a61303b565b600086815260208181526040808320815161012081018352815460ff808216151583526101009091041615159381019390935281518083018352909183019060018301600286835b8282101561245d576040805160c081018252600884028601805460ff80821615158452610100820481161515602080860191909152620100009092046001600160a01b031684860152600183015460608086019190915260028401546080808701919091528651908101875260038501805490931615158152600485015493810193909352600584015483870152855161080081018088529596949560a0880195928501926006880191826000855b825461010083900a900460ff1615158152602060019283018181049485019490930390920291018084116124115790505050505050815250508152505081526020019060010190612362565b50505090825250601182015460209091019060ff16600b81111561248357612483612f84565b600b81111561249457612494612f84565b815260128201546020820152601382015460408083019190915260148301546001600160a01b038082166060850152600160a01b90910460ff161515608084015260159093015490921660a0909101528101519091506000908190816020020151604001516001600160a01b03163303612514575060019050600061251c565b506000905060015b60008360400151836002811061253457612534613025565b6020020151606001519050886000808c8152602001908152602001600020600101836002811061256657612566613025565b60080201600101819055508060001415801561258157508881145b156126105760008a81526020818152604091829020601281018c9055601101805460ff191660031790558582015180518301519082015183015183518e81526001600160a01b03928316938101939093521681830152606081018b905290517fa63491c3e48c84a30c1a58128201bca4fd87bb84850cda339020ce19051e5a90916080908290030190a161268c565b7f4adf94e8b5302c48b3df6533aa17748538d68a74af46f0a894839b61fbf3f1bf8a338660400151866002811061264957612649613025565b6020020151604001518c60405161268394939291909384526001600160a01b03928316602085015291166040830152606082015260800190565b60405180910390a15b50505050505050505050565b600081815260208190526040902054819060ff166126b8576126b861303b565b6000828152602081905260408120600101546201000090046001600160a01b031633036126e757506000612712565b6000838152602081905260409020600901546201000090046001600160a01b03163303612712575060015b600660008481526020819052604090206011015460ff16600b81111561273a5761273a612f84565b148061276b5750600560008481526020819052604090206011015460ff16600b81111561276957612769612f84565b145b1561278357801561277e5761277e61303b565b6128b7565b600460008481526020819052604090206011015460ff16600b8111156127ab576127ab612f84565b14806127dc5750600760008481526020819052604090206011015460ff16600b8111156127da576127da612f84565b145b156127f1578060011461277e5761277e61303b565b600360008481526020819052604090206011015460ff16600b81111561281957612819612f84565b03612859576000838152602081905260409020600101816002811061284057612840613025565b6008020154610100900460ff1661277e5761277e61303b565b600860008481526020819052604090206011015460ff16600b81111561288157612881612f84565b036128af576000838152602081905260409020601501546001600160a01b0316330361277e5761277e61303b565b6128b761303b565b6000838152602081905260409020601401546001600160a01b0316156128dc57600080fd5b60008381526020819052604090206014810180546001600160a01b031916331790554360138201557f0bf978ab2586eab9e083eec06f934bd39c6da770feb9502455f09c4cf17b1bec9084906001908101906129399085906131cb565b6002811061294957612949613025565b600802015460008681526020818152604091829020601301548251948552620100009093046001600160a01b03169084015282015260600160405180910390a1505050565b60008181526020819052604081205460ff1680156129bd575060008281526020819052604090206001015460ff165b156104cc57600082815260208190526040812060010190611997565b6129e1612c8d565b6129e9612c8d565b6000838152602081905260409020600101546201000090046001600160a01b03163303612a20576000815260016020820152611910565b600181526000602082015292915050565b6000818152602081905260409020601401546001600160a01b031615801590612a7457506000818152602081905260409020601401546001600160a01b03163314155b15612ac957602654612a899060ff16436130a3565b6000828152602081905260409020601301541115612aa957612aa961303b565b600081815260208190526040902060140180546001600160a01b03191690555b50565b60008281526020819052604090206015810180546001600160a01b0384166001600160a01b031990911681179091556011909101805460ff19166008179055612b16908390612b1a565b5050565b604080518381526001600160a01b03831660208201527fc53d54ea71e800bb40731cf938b78bbb3e167ca69808d9e2945e2f018b3c4067910161225a565b600283019183908215612b8b5791601f016020900482015b82811115612b8b578254825591600101919060010190612b70565b50612b97929150612cab565b5090565b601083019183908215612c81579160080282015b82811115612c81578254825460ff918216151560ff1980831682178655865461010090819004851615150261ff001990921661ffff19909316929092171780855585546001600160a01b036201000091829004160262010000600160b01b031990911617845560018086015490850155600280860154908501556003808601805491860180549290941615159190921617825560048086015490850155600580860154908501558491849190612c6d60068085019086016040612b58565b505050505091600801919060080190612baf565b50612b97929150612cc0565b60405180604001604052806002906020820280368337509192915050565b5b80821115612b975760008155600101612cac565b80821115612b975780546001600160b01b03191681556000600182018190556002820181905560038201805460ff191690556004820181905560058201819055600682018190556007820155600801612cc0565b600060208284031215612d2657600080fd5b5035919050565b600080600060608486031215612d4257600080fd5b833592506020840135600c8110612d5857600080fd5b915060408401356001600160a01b0381168114612d7457600080fd5b809150509250925092565b60008060408385031215612d9257600080fd5b50508035926020909101359150565b8015158114612ac957600080fd5b600060208284031215612dc157600080fd5b8135612dcc81612da1565b9392505050565b803560ff811681146104d457600080fd5b60008083601f840112612df657600080fd5b50813567ffffffffffffffff811115612e0e57600080fd5b6020830191508360208260051b8501011115612e2957600080fd5b9250929050565b60008060008060008060a08789031215612e4957600080fd5b86359550612e5960208801612dd3565b94506040870135612e6981612da1565b935060608701359250608087013567ffffffffffffffff811115612e8c57600080fd5b612e9889828a01612de4565b979a9699509497509295939492505050565b60008060008060008060008060008060c08b8d031215612ec957600080fd5b8a35995060208b013567ffffffffffffffff80821115612ee857600080fd5b612ef48e838f01612de4565b909b50995060408d0135915080821115612f0d57600080fd5b612f198e838f01612de4565b909950975060608d0135915080821115612f3257600080fd5b612f3e8e838f01612de4565b909750955060808d0135915080821115612f5757600080fd5b50612f648d828e01612de4565b9150809450508092505060a08b013590509295989b9194979a5092959850565b634e487b7160e01b600052602160045260246000fd5b60208101600c8310612fbc57634e487b7160e01b600052602160045260246000fd5b91905290565b60008060408385031215612fd557600080fd5b612fde83612dd3565b91506020830135612fee81612da1565b809150509250929050565b6000806040838503121561300c57600080fd5b8235915061301c60208401612dd3565b90509250929050565b634e487b7160e01b600052603260045260246000fd5b634e487b7160e01b600052600160045260246000fd5b634e487b7160e01b600052601160045260246000fd5b60ff818116838216029081169081811461308357613083613051565b5092915050565b60006001820161309c5761309c613051565b5060010190565b8082018082111561191057611910613051565b808202811582820484141761191057611910613051565b6060808252810184905260006001600160fb1b038511156130ed57600080fd5b8460051b8087608085013760208301949094525060408101919091520160800192915050565b60006020828403121561312557600080fd5b8151612dcc81612da1565b60008161313f5761313f613051565b506000190190565b600060ff821660ff810361315d5761315d613051565b60010192915050565b60006020828403121561317857600080fd5b612dcc82612dd3565b6000808335601e1984360301811261319857600080fd5b83018035915067ffffffffffffffff8211156131b357600080fd5b6020019150600581901b3603821315612e2957600080fd5b818103818111156119105761191061305156fea26469706673582212205bd5101cafef1802d0569de71cfb7429bc4d11e92389184864a7bcb3a2b3873a64736f6c63430008130033",
  "immutableReferences": {},
  "source": "// SPDX-License-Identifier: MIT\r\npragma solidity >=0.4.22 <0.9.0;\r\n\r\nimport { Merkle } from \"./Merkle.sol\";\r\n\r\ncontract Battleships {\r\n    uint8 public constant NUMBER_OF_SHIP_SQUARES = 20;\r\n    uint8 public constant BOARD_SIZE = 8;\r\n    enum GameStates{\r\n        WAITING, \r\n        PLACING_SHIPS, \r\n        SETTING_STAKE, \r\n        ACCEPTING_PAYMENT,\r\n        P0_FIRING,\r\n        P1_CHECKING,\r\n        P1_FIRING,\r\n        P0_CHECKING,\r\n        CHECKING_WINNER,\r\n        PAYABLE,\r\n        DONE,\r\n        NONE\r\n    }\r\n\r\n    // In this struct we save the view a player has of its opponent's board\r\n    struct Board{\r\n        bool valid;\r\n        // N*N matrix of bits to store hits\r\n        // bool[BOARD_SIZE][BOARD_SIZE] shots;\r\n        // # of enemy pieces still left on the board\r\n        // goes down by one each time we receive one 'you hit' event\r\n        uint totalPieces;\r\n        // 8*8, we use this to avoid cheating\r\n        uint totalShots;\r\n        bool[BOARD_SIZE*BOARD_SIZE] board; \r\n    }\r\n\r\n    struct Player{\r\n        bool valid;\r\n        bool hasPaidStake;\r\n        address playerAddress;\r\n        uint proposedStake;\r\n        bytes32 boardTreeRoot;\r\n        Board shots_board;\r\n    }\r\n\r\n    struct Game{\r\n        bool valid;\r\n        bool canPay;\r\n        // host is always player[0]\r\n        Player[2] players;\r\n        GameStates state;\r\n        uint decidedStake;\r\n        // used for foul accusation, a foul is triggered after 5 blocks\r\n        uint blockNumber;\r\n        // player 0 or player 1\r\n        // might turn it into address, we will see\r\n        address accuser;\r\n        // whether or not this game should be in the public pool of joinable games\r\n        bool privateGame;\r\n        address winner;\r\n    }\r\n\r\n    mapping(uint => Game) private openGames;\r\n\r\n    Game private gameTrampoline;\r\n    Player private playerTrampoline;\r\n    Board private trampolineBoard;\r\n    // used in generating UUIDs for the games\r\n    // for now we are gonna use this as-is\r\n    // start at 1 as 0 is used for a non-existing game\r\n    // we just don't deal with it overflowing because it's realistically impossible\r\n    uint private gameCounter;\r\n    uint private lastOpenGame;\r\n    uint8 private foulBlockLen;\r\n    address private owner;\r\n\r\n    constructor() {\r\n        gameCounter = 1;\r\n        lastOpenGame = 1;\r\n        owner = msg.sender;\r\n        // this could be passed as parameter\r\n        foulBlockLen = 5;\r\n    }\r\n\r\n    event ShareID(address _from, address _to, uint _gameID);\r\n    event GameStart(uint _gameID, address _host, address _challenger);\r\n    event SuggestedStake(uint _gameID, address _from, address _to, uint _stakeValue);\r\n    event GamePayable(uint _gameID, address _host, address _challenger, uint _stakeValue);\r\n    event StakePaid(uint _gameID, address _whoPaid);\r\n    event AcceptingBoards(uint _gameID);\r\n    event BoardAcknowledgeEvent(uint _gameID, address _player);\r\n    event PlayerZeroTurn(uint _gameID);\r\n    event ShotsFired(uint _gameID, uint8 _location);\r\n    event ShotsChecked(uint _gameID, uint8 _location, bool _claim, bool _validity);\r\n    event RequestBoard(uint _gameID, address _winner);\r\n    event Victory(uint _gameID, address _winner);\r\n    event Foul(uint _gameID, address _accused, uint _block);\r\n    event GameEnded(uint _gameID);\r\n\r\n    error NoOpenGames();\r\n    error InvalidGameID();\r\n    error NotInGame();\r\n    error StakeAlreadyDeposited();\r\n    error WrongStakeAmount(uint expectedStakeValue);\r\n\r\n    modifier gameExists(uint gameID){\r\n        assert(openGames[gameID].valid);\r\n        _;\r\n    }\r\n\r\n    modifier isInGame(uint gameID){\r\n        assert((openGames[gameID].players[0].playerAddress == msg.sender) || (openGames[gameID].players[1].playerAddress == msg.sender));\r\n        _;\r\n    }\r\n\r\n    modifier assertState(uint gameID, GameStates _state){\r\n        if(_state != GameStates.P0_FIRING && _state != GameStates.P1_FIRING && _state != GameStates.P0_CHECKING && _state != GameStates.P1_CHECKING)\r\n            assert(openGames[gameID].state == _state);\r\n        else{\r\n            // We check firing states with P0_FIRING and checking states with P0_CHECKING, for both players\r\n            uint[2] memory indexes = getIndexSender(gameID);\r\n            if(_state == GameStates.P0_FIRING){\r\n                if(indexes[0] == 0)\r\n                    assert(openGames[gameID].state == _state);\r\n                else\r\n                    assert(openGames[gameID].state == GameStates.P1_FIRING);\r\n            }\r\n            else if(_state == GameStates.P0_CHECKING){\r\n                if(indexes[0] == 0)\r\n                    assert(openGames[gameID].state == _state);\r\n                else\r\n                    assert(openGames[gameID].state == GameStates.P1_CHECKING);\r\n            }\r\n            else assert(false);\r\n        }\r\n        _;\r\n    }\r\n\r\n    modifier playerInRange(uint gameID, uint index){\r\n        assert(openGames[gameID].players[index].valid);\r\n        assert(index < openGames[gameID].players.length);\r\n        _;\r\n    }\r\n\r\n    modifier shotOnBoard(uint8 location){\r\n        assert(location < (BOARD_SIZE*BOARD_SIZE));\r\n        _;\r\n    }\r\n\r\n    modifier isWinner(uint gameID){\r\n        assert(openGames[gameID].winner == msg.sender);\r\n        _;\r\n    }\r\n\r\n    function getIndexSender (uint gameID) view private returns(uint[2] memory) {\r\n        // indexes[0]: msg.sender index\r\n        // indexes[1]: msg.sender opponent's index\r\n        uint[2] memory indexes;\r\n        if(msg.sender == openGames[gameID].players[0].playerAddress){\r\n            indexes[0] = 0;\r\n            indexes[1] = 1;\r\n        } else {\r\n            indexes[0] = 1;\r\n            indexes[1] = 0;\r\n        }\r\n        return indexes;\r\n    }\r\n\r\n    // create a Game value, add it to openGames, populate the Player[0]\r\n    function newGame(bool isPrivate) public {\r\n        uint gameID = gameCounter;\r\n        gameCounter++;\r\n        Game storage game = gameTrampoline;\r\n        Player storage host = playerTrampoline;\r\n        host.playerAddress = msg.sender;\r\n        host.valid = true;\r\n        host.hasPaidStake = false;\r\n        game.players[0] = host;\r\n        game.state = GameStates.WAITING;\r\n        game.privateGame = isPrivate;\r\n        game.valid = true;\r\n        game.canPay = false;\r\n        openGames[gameID] = game;\r\n        emit ShareID(address(this), msg.sender, gameID);\r\n        return;\r\n    }\r\n    \r\n    function joinGame(uint gameID) public {\r\n        if(gameID == 0){\r\n            // pick an unassigned game in sequential order\r\n            gameID = lastOpenGame;\r\n            while (gameID < gameCounter){\r\n                // ignore games with sender as host (you can still join your own games directly if you're that lonely)\r\n                if(openGames[gameID].valid == true && \r\n                    openGames[gameID].state == GameStates.WAITING && \r\n                    openGames[gameID].players[0].playerAddress != msg.sender && \r\n                    !openGames[gameID].privateGame){\r\n                    break;\r\n                }\r\n                gameID++;\r\n            }\r\n        }\r\n        // if the game wasn't valid, throw an error\r\n        if(!openGames[gameID].valid)\r\n            revert NoOpenGames();\r\n\r\n        assert(openGames[gameID].state == GameStates.WAITING);\r\n\r\n        // update the lastOpenGame counter no matter what\r\n        lastOpenGame = gameID + 1;\r\n        // set msg sender as this game's player 2\r\n        Player storage challenger = playerTrampoline;\r\n        challenger.playerAddress = msg.sender;\r\n        challenger.valid = true;\r\n        challenger.hasPaidStake = false;\r\n        openGames[gameID].players[1] = challenger;\r\n        // update this game's status\r\n        openGames[gameID].state = GameStates.PLACING_SHIPS;\r\n        // alert the players\r\n        emit AcceptingBoards(gameID);\r\n        return;\r\n    }\r\n\r\n    function checkGameState(uint gameID) public view returns (GameStates) {\r\n        if (openGames[gameID].valid){\r\n            return openGames[gameID].state;\r\n        }\r\n        else \r\n            return(GameStates.NONE);\r\n    }\r\n\r\n    function checkGamePlayer(uint gameID, uint index) public view returns (address) {\r\n        if (openGames[gameID].valid && openGames[gameID].players[index].valid){\r\n            return openGames[gameID].players[index].playerAddress;\r\n        }\r\n        else \r\n            return(address(0));\r\n    }\r\n\r\n    // Function to propose and agree upon a stake between players\r\n    function proposeStake(uint gameID, uint stakeValue) gameExists(gameID) isInGame(gameID) assertState(gameID, GameStates.SETTING_STAKE) public{\r\n        Game memory game = openGames[gameID];\r\n        // Check whether or not this player's opponent has already proposed a stake\r\n        uint opponentIndex;\r\n        uint stakerIndex;\r\n        if(msg.sender == game.players[0].playerAddress){\r\n            opponentIndex = 1;\r\n            stakerIndex = 0;\r\n        } else {\r\n            opponentIndex = 0;\r\n            stakerIndex = 1;\r\n        }\r\n        uint opponentStake = game.players[opponentIndex].proposedStake;\r\n        // set this player's proposed stake to their message\r\n        openGames[gameID].players[stakerIndex].proposedStake = stakeValue;\r\n        // if the opponent has proposed a stake we check whether or not it equals the one proposed by us\r\n        // 0 is not a valid stake\r\n        if(opponentStake != 0 && opponentStake == stakeValue){\r\n            openGames[gameID].decidedStake = stakeValue;\r\n            openGames[gameID].state = GameStates.ACCEPTING_PAYMENT;\r\n            emit GamePayable(gameID, game.players[0].playerAddress, game.players[1].playerAddress, stakeValue);\r\n        }else{\r\n            emit SuggestedStake(gameID, msg.sender, game.players[opponentIndex].playerAddress, stakeValue);\r\n        }\r\n        return;\r\n    }\r\n\r\n    function checkStakePlayerOne(uint gameID) public view returns (uint) {\r\n        if (openGames[gameID].valid && openGames[gameID].players[0].valid){\r\n            return openGames[gameID].players[0].proposedStake;\r\n        }\r\n        else \r\n            return(0);\r\n    }\r\n\r\n    function checkStakePlayerTwo(uint gameID) public view returns (uint) {\r\n        if (openGames[gameID].valid && openGames[gameID].players[1].valid){\r\n            return openGames[gameID].players[1].proposedStake;\r\n        }\r\n        else \r\n            return(0);\r\n    }\r\n\r\n    function checkStakeGame(uint gameID) public view returns (uint) {\r\n        if (openGames[gameID].valid && openGames[gameID].players[0].valid && openGames[gameID].players[1].valid)\r\n            return openGames[gameID].decidedStake;\r\n        else\r\n            return(0);\r\n    }\r\n    \r\n    function payStake(uint gameID) gameExists(gameID) isInGame(gameID) assertState(gameID, GameStates.ACCEPTING_PAYMENT) external payable {\r\n        if((msg.sender == openGames[gameID].players[0].playerAddress && openGames[gameID].players[0].hasPaidStake) ||\r\n            (msg.sender == openGames[gameID].players[1].playerAddress && openGames[gameID].players[1].hasPaidStake))\r\n            revert StakeAlreadyDeposited();\r\n        // only accept payments for the exact amount owed\r\n        if(msg.value != openGames[gameID].decidedStake)\r\n            revert WrongStakeAmount(openGames[gameID].decidedStake);\r\n        // now we check who the sender is\r\n        uint senderIndex;\r\n        uint challengerIndex;\r\n        if(msg.sender == openGames[gameID].players[0].playerAddress){\r\n            senderIndex = 0;\r\n            challengerIndex = 1;\r\n        }else{\r\n            senderIndex = 1;\r\n            challengerIndex = 0;\r\n        }\r\n        openGames[gameID].players[senderIndex].hasPaidStake = true;\r\n        // Clear possible foul\r\n        ClearFoul(gameID);\r\n        emit StakePaid(gameID, msg.sender);\r\n        // if both players have paid the owed stake the game can move on to its next state\r\n        if(openGames[gameID].players[challengerIndex].hasPaidStake){\r\n            openGames[gameID].state = GameStates.P0_FIRING;\r\n            emit PlayerZeroTurn(gameID);\r\n        }\r\n    }\r\n\r\n    function deleteGame(uint gameID) internal{ \r\n        delete openGames[gameID].players[0].shots_board;\r\n        delete openGames[gameID].players[1].shots_board;\r\n        delete openGames[gameID].players[0];\r\n        delete openGames[gameID].players[1];\r\n        delete openGames[gameID];\r\n    }\r\n\r\n    function declineStake(uint gameID) gameExists(gameID) isInGame(gameID) assertState(gameID, GameStates.ACCEPTING_PAYMENT) external {\r\n        // if this player has already paid the stake, they can't decline it\r\n        if((msg.sender == openGames[gameID].players[0].playerAddress && openGames[gameID].players[0].hasPaidStake) ||\r\n            (msg.sender == openGames[gameID].players[1].playerAddress && openGames[gameID].players[1].hasPaidStake))\r\n            revert StakeAlreadyDeposited();\r\n        // now we check who the sender is\r\n        uint senderIndex;\r\n        uint challengerIndex;\r\n        if(msg.sender == openGames[gameID].players[0].playerAddress){\r\n            senderIndex = 0;\r\n            challengerIndex = 1;\r\n        }else{\r\n            senderIndex = 1;\r\n            challengerIndex = 0;\r\n        }\r\n        // check if the opponent has already paid its stake\r\n        if(openGames[gameID].players[challengerIndex].hasPaidStake){\r\n            // if they have, we refund it\r\n            (bool success, ) = openGames[gameID].players[challengerIndex].playerAddress.call{value:openGames[gameID].decidedStake}(\"\");\r\n            require(success);\r\n        }\r\n        // then we delete the game\r\n        deleteGame(gameID);\r\n        emit GameEnded(gameID);\r\n    }\r\n    \r\n    function checkGamePayable(uint gameID) public view returns (bool) {\r\n        if (openGames[gameID].valid && openGames[gameID].players[0].valid && openGames[gameID].players[1].valid)\r\n            return openGames[gameID].canPay;\r\n        else\r\n            return(false);\r\n    }\r\n    \r\n    function PlaceShips(uint gameID, bytes32 boardRoot) gameExists(gameID) isInGame(gameID) assertState(gameID, GameStates.PLACING_SHIPS) public{\r\n        uint index;\r\n        uint oppIdx;\r\n        msg.sender == openGames[gameID].players[0].playerAddress ? index = 0 : index = 1;\r\n        msg.sender == openGames[gameID].players[0].playerAddress ? oppIdx = 1 : oppIdx = 0;\r\n        require(openGames[gameID].players[index].boardTreeRoot == 0x0);\r\n        // Instantiate a new shots board\r\n        // Instantiate the Board struct itself and assign it to a player\r\n        Board storage playerBoard = trampolineBoard;\r\n        trampolineBoard.valid = true;\r\n        trampolineBoard.totalPieces = NUMBER_OF_SHIP_SQUARES;\r\n        trampolineBoard.totalShots = (BOARD_SIZE*BOARD_SIZE);\r\n        for(uint i = 0; i < (BOARD_SIZE*BOARD_SIZE); i++){\r\n            trampolineBoard.board[i] = false;\r\n        }\r\n        openGames[gameID].players[index].shots_board = playerBoard;\r\n        // save the received boardRoot, finally\r\n        openGames[gameID].players[index].boardTreeRoot = boardRoot;\r\n        emit BoardAcknowledgeEvent(gameID, msg.sender);\r\n        if(openGames[gameID].players[oppIdx].boardTreeRoot != 0x0){\r\n            openGames[gameID].state = GameStates.SETTING_STAKE;\r\n            emit GameStart(gameID, openGames[gameID].players[0].playerAddress, msg.sender);\r\n        }\r\n    }\r\n\r\n    function TestWinner(uint gameID, address claimant) private {\r\n        openGames[gameID].winner = claimant;\r\n        openGames[gameID].state = GameStates.CHECKING_WINNER;\r\n        RequestWinnerBoard(gameID, openGames[gameID].winner);\r\n    }\r\n\r\n    // for info on what location is see \"Implementation of the user-side game board\" in README.md\r\n    function FireTorpedo(uint gameID, uint8 location) gameExists(gameID) isInGame(gameID) shotOnBoard(location) assertState(gameID, GameStates.P0_FIRING) public {\r\n        // if we got past the modifiers, this means the shot is valid\r\n        // let's clear any potential fouls for this user\r\n        ClearFoul(gameID);\r\n        uint[2] memory indexes = getIndexSender(gameID);\r\n        // Rotate into correct next state\r\n        openGames[gameID].state == GameStates.P0_FIRING ? openGames[gameID].state = GameStates.P1_CHECKING : openGames[gameID].state = GameStates.P0_CHECKING;\r\n        // Now for some game logic\r\n        // whatever happens, we lower the totalShots counter of our system by one\r\n        openGames[gameID].players[indexes[0]].shots_board.totalShots--;\r\n        // Then we evaluate whether or not this is zero. If it is, This party wins automatically.\r\n        // We do this here to avoid opponents stalling out on the reply for 5 blocks on what is a foregone conclusion\r\n        if (openGames[gameID].players[indexes[0]].shots_board.totalShots == 0){\r\n            TestWinner(gameID, msg.sender);\r\n        } else {\r\n            emit ShotsFired(gameID, location);\r\n        }\r\n    }\r\n\r\n    function ConfirmShot(uint gameID, uint8 location, bool isHit, bytes32 leaf, bytes32[] calldata proof) public {\r\n        // we assert manually rather than with modifiers to avoid a stack-too-deep error\r\n        assert(openGames[gameID].valid);\r\n        assert(location < (BOARD_SIZE*BOARD_SIZE));\r\n        if(openGames[gameID].players[0].playerAddress == msg.sender){\r\n            assert(openGames[gameID].state == GameStates.P0_CHECKING);\r\n        } else if (openGames[gameID].players[1].playerAddress == msg.sender){\r\n            assert(openGames[gameID].state == GameStates.P1_CHECKING);\r\n        } else {\r\n            assert(false);\r\n        }\r\n        uint[2] memory indexes = getIndexSender(gameID);\r\n        // make sure this node corresponds to the board tile and truth value we are checking\r\n        assert(leaf == GenLeafNode(location, isHit));\r\n        // execute the proof test\r\n        if(Merkle.verifyCalldata(proof, openGames[gameID].players[indexes[0]].boardTreeRoot, leaf)){\r\n            // if we got this far it means the reply is valid\r\n            // let's clear any potential fouls for this user\r\n            ClearFoul(gameID);\r\n            // we could verify this user's proof\r\n            if (isHit){\r\n                // decrement our opponent's view of our total pieces\r\n                // only if the shot landed on a previously undeclared tile\r\n                // alas this is needed as the user might just keep asking for the same time over and over\r\n                // I don't know why they would do this, but they can\r\n                if(!openGames[gameID].players[indexes[1]].shots_board.board[location]){\r\n                    openGames[gameID].players[indexes[1]].shots_board.totalPieces--;\r\n                    openGames[gameID].players[indexes[1]].shots_board.board[location] = true;\r\n                    // if this was our last piece, we lost\r\n                    if(openGames[gameID].players[indexes[1]].shots_board.totalPieces == 0){\r\n                        /*\r\n                        openGames[gameID].winner = openGames[gameID].players[indexes[1]].playerAddress;\r\n                        openGames[gameID].state = GameStates.CHECKING_WINNER;\r\n                        RequestWinnerBoard(gameID, openGames[gameID].winner);\r\n                        */\r\n                        TestWinner(gameID, openGames[gameID].players[indexes[1]].playerAddress);\r\n                        return;\r\n                    }\r\n                }   \r\n            }\r\n            // rotate state\r\n            openGames[gameID].state == GameStates.P1_CHECKING ? openGames[gameID].state = GameStates.P1_FIRING : openGames[gameID].state = GameStates.P0_FIRING;\r\n            emit ShotsChecked(gameID, location, isHit, true);\r\n        } else {\r\n            // else we emit a 'shot failed to validate' message\r\n            // keep in mind the foul for this user is NOT triggered automatically.\r\n            emit ShotsChecked(gameID, location, isHit, false);\r\n        }\r\n    }\r\n\r\n    // this function generates a node locally in the same way a client would generate it\r\n    // it could be internal, we keep it public for now for debug purposes\r\n    function GenLeafNode(uint8 tile, bool ship) pure public returns (bytes32) {\r\n        return keccak256(abi.encode(tile,ship));\r\n    }\r\n\r\n    // a player who sees their address here will need to call VerifyWinner\r\n    function RequestWinnerBoard(uint gameID, address winnerAddress) private {\r\n        emit RequestBoard(gameID, winnerAddress);\r\n    }\r\n\r\n    // sadly using our modifiers here runs into a stack too deep compilation issue\r\n    // ergo we must assert a few security values by hand\r\n    // yes, the 'tiles' array is completely useless but we will leave it there for now\r\n    // it could be useful for future expansions into 5d battleships\r\n    function VerifyWinner(\r\n    uint gameID,  \r\n    uint8[] calldata tiles,\r\n    bool[] calldata ships,\r\n    bytes32[] calldata nodes,\r\n    bytes32[][] calldata proofs,\r\n    bytes32 root\r\n    ) public {\r\n        uint winnerIndex;\r\n        assert(openGames[gameID].valid);\r\n        assert(openGames[gameID].state == GameStates.CHECKING_WINNER);\r\n        if(openGames[gameID].winner == openGames[gameID].players[0].playerAddress){\r\n            winnerIndex = 0;\r\n        } else {\r\n            winnerIndex = 1;\r\n        }\r\n        assert(openGames[gameID].winner == msg.sender);\r\n        assert(root == openGames[gameID].players[winnerIndex].boardTreeRoot);\r\n        assert(tiles.length == (BOARD_SIZE*BOARD_SIZE));\r\n        assert(ships.length == (BOARD_SIZE*BOARD_SIZE));\r\n        // First operation: make sure this board really has the required number of ships on it\r\n        // and make sure the winner didn't send us a different board\r\n        // in the same cycle, verify that the node is part of the tree\r\n        // we already made sure this root is the correct one\r\n        uint8 shipsTotal = 0;\r\n        for(uint8 i = 0; i < (BOARD_SIZE*BOARD_SIZE); i++){\r\n            if(ships[i])\r\n                shipsTotal++;\r\n            assert(nodes[i] == GenLeafNode(tiles[i], ships[i]));\r\n            assert(Merkle.verifyCalldata(proofs[i], root, nodes[i]));\r\n        }\r\n        assert(shipsTotal == NUMBER_OF_SHIP_SQUARES);\r\n        // we don't use a conditional branch to alert the other player, as a Foul has already been triggered.\r\n        openGames[gameID].canPay = true;\r\n        openGames[gameID].state = GameStates.PAYABLE;\r\n        ClearFoul(gameID);\r\n        emit Victory(gameID, msg.sender);\r\n    }\r\n\r\n    function WithdrawWinnings(uint gameID) gameExists(gameID) isWinner(gameID) assertState(gameID, GameStates.PAYABLE) external {\r\n        uint amountOwed = openGames[gameID].decidedStake*2;\r\n        openGames[gameID].state = GameStates.DONE;\r\n        (bool success, ) = msg.sender.call{value:amountOwed}(\"\");\r\n        require(success);\r\n    }\r\n\r\n    // a player can accuse another player of being afk if they don't act within X blocks\r\n    // for this to happen, the state has to be one they don't control\r\n    function FoulAccusation(uint gameID) gameExists(gameID) public {\r\n        uint senderIndex;\r\n        if(msg.sender == openGames[gameID].players[0].playerAddress)\r\n            senderIndex = 0;\r\n        else if (msg.sender == openGames[gameID].players[1].playerAddress)\r\n            senderIndex = 1;\r\n        // if the game is stuck waiting on Player 1, only accept accusations from Player 0\r\n        if(openGames[gameID].state == GameStates.P1_FIRING || openGames[gameID].state == GameStates.P1_CHECKING){\r\n            assert(senderIndex == 0);\r\n        // if the game is stuck waiting on Player 0, only accept accusations from Player 1\r\n        } else if (openGames[gameID].state == GameStates.P0_FIRING || openGames[gameID].state == GameStates.P0_CHECKING){\r\n            assert(senderIndex == 1);\r\n        } \r\n        // if the game is stuck accepting payments, only accept accusations by the side which hasn't paid yet\r\n        else if(openGames[gameID].state == GameStates.ACCEPTING_PAYMENT){\r\n            assert(openGames[gameID].players[senderIndex].hasPaidStake);\r\n        }\r\n        // if the game is stuck checking the winner, because a user isn't providing their board, only accept fouls from the non-winner\r\n        else if(openGames[gameID].state == GameStates.CHECKING_WINNER)\r\n            assert(msg.sender != openGames[gameID].winner);\r\n        else {\r\n            assert(false);\r\n        }\r\n        \r\n        require(openGames[gameID].accuser == address(0));\r\n        // very important: this is the only place where accuser can be set to anything other than 0\r\n        openGames[gameID].accuser = msg.sender;\r\n        openGames[gameID].blockNumber = block.number;\r\n        emit Foul(gameID, openGames[gameID].players[1 - senderIndex].playerAddress, openGames[gameID].blockNumber);\r\n    }\r\n\r\n    function CheckFoulTimer(uint gameID) gameExists(gameID) isInGame(gameID) public {\r\n        require(openGames[gameID].accuser != address(0));\r\n        if(openGames[gameID].blockNumber < (block.number + foulBlockLen)){\r\n            // the other player abandoned this game\r\n            TestWinner(gameID, openGames[gameID].accuser);\r\n        }\r\n    }\r\n\r\n    // a foul can only be cleared by properly advancing the state\r\n    // thus this function has to be called from within our check/fire functions\r\n    function ClearFoul(uint gameID) private {\r\n        if(openGames[gameID].accuser != address(0) && openGames[gameID].accuser != msg.sender){\r\n            // if we are out of time to context the foul this function will fail\r\n            assert(openGames[gameID].blockNumber <= (block.number + foulBlockLen));\r\n            // else it will clear the foul\r\n            // just like setting the accuser, this is THE ONLY place in the contract where this assignment is made.\r\n            openGames[gameID].accuser = address(0);\r\n        }\r\n    }\r\n\r\n    // Assortment of debug functions\r\n    // Despite the name, this function also sets the winner to a given address\r\n    // the main use for it is testing endgame stages of the contract without having to manually play a game\r\n    \r\n    function ChangeState(uint gameID, GameStates state, address winner) public {\r\n        assert(msg.sender == owner);\r\n        openGames[gameID].state = state;\r\n        openGames[gameID].winner = winner;\r\n    }\r\n    \r\n}",
  "sourcePath": "F:\\Documents\\Code\\School\\P2PBC\\Battleships\\contracts\\Battleships.sol",
  "compiler": {
    "name": "solc",
    "version": "0.8.19+commit.7dd6d404.Emscripten.clang"
  },
  "schemaVersion": "3.4.13",
  "updatedAt": "2023-05-30T04:54:04.983Z",
  "networkType": "ethereum",
  "devdoc": {
    "kind": "dev",
    "methods": {},
    "version": 1
  },
  "userdoc": {
    "kind": "user",
    "methods": {},
    "version": 1
  }
}