{
  "contractName": "Battleships",
  "abi": [
    {
      "inputs": [],
      "stateMutability": "nonpayable",
      "type": "constructor"
    },
    {
      "anonymous": false,
      "inputs": [
        {
          "indexed": false,
          "internalType": "address",
          "name": "_from",
          "type": "address"
        },
        {
          "indexed": false,
          "internalType": "address",
          "name": "_to",
          "type": "address"
        },
        {
          "indexed": false,
          "internalType": "uint256",
          "name": "_id",
          "type": "uint256"
        }
      ],
      "name": "ShareID",
      "type": "event"
    },
    {
      "inputs": [
        {
          "internalType": "bool",
          "name": "isPrivate",
          "type": "bool"
        }
      ],
      "name": "newGame",
      "outputs": [],
      "stateMutability": "nonpayable",
      "type": "function"
    },
    {
      "inputs": [
        {
          "internalType": "uint256",
          "name": "gameID",
          "type": "uint256"
        }
      ],
      "name": "checkGameState",
      "outputs": [
        {
          "internalType": "uint256",
          "name": "",
          "type": "uint256"
        }
      ],
      "stateMutability": "view",
      "type": "function",
      "constant": true
    },
    {
      "inputs": [
        {
          "internalType": "uint256",
          "name": "gameID",
          "type": "uint256"
        }
      ],
      "name": "checkGamePlayerOne",
      "outputs": [
        {
          "internalType": "address",
          "name": "",
          "type": "address"
        }
      ],
      "stateMutability": "view",
      "type": "function",
      "constant": true
    },
    {
      "inputs": [
        {
          "internalType": "uint256",
          "name": "gameID",
          "type": "uint256"
        }
      ],
      "name": "checkGamePlayerTwo",
      "outputs": [
        {
          "internalType": "address",
          "name": "",
          "type": "address"
        }
      ],
      "stateMutability": "view",
      "type": "function",
      "constant": true
    }
  ],
  "bytecode": "0x608060405234801561001057600080fd5b506000602d81905550610fee806100286000396000f3fe608060405234801561001057600080fd5b506004361061004c5760003560e01c80631de95425146100515780632b170aac146100815780639a7e4cea1461009d578063d46d0777146100cd575b600080fd5b61006b60048036038101906100669190610dc3565b6100fd565b6040516100789190610e31565b60405180910390f35b61009b60048036038101906100969190610e84565b610149565b005b6100b760048036038101906100b29190610dc3565b61043f565b6040516100c49190610ec0565b60405180910390f35b6100e760048036038101906100e29190610dc3565b61046f565b6040516100f49190610e31565b60405180910390f35b600080610109836104bb565b905080600001511561013e57806020015160006002811061012d5761012c610edb565b5b602002015160200151915050610144565b60009150505b919050565b6000602d549050602d600081548092919061016390610f39565b9190505550600060029050600060209050338160000160016101000a81548173ffffffffffffffffffffffffffffffffffffffff021916908373ffffffffffffffffffffffffffffffffffffffff16021790555060018160000160006101000a81548160ff02191690831515021790555080826001016000600281106101ec576101eb610edb565b5b600d02016000820160009054906101000a900460ff168160000160006101000a81548160ff0219169083151502179055506000820160019054906101000a900473ffffffffffffffffffffffffffffffffffffffff168160000160016101000a81548173ffffffffffffffffffffffffffffffffffffffff021916908373ffffffffffffffffffffffffffffffffffffffff160217905550600182015481600101556002820154816002015560038201816003016000820160009054906101000a900460ff168160000160006101000a81548160ff02191690831515021790555060018201816001019060086102e3929190610987565b50600982015481600901555050905050600082601b01819055508382601d0160016101000a81548160ff02191690831515021790555060018260000160006101000a81548160ff021916908315150217905550816000808581526020019081526020016000206000820160009054906101000a900460ff168160000160006101000a81548160ff021916908315150217905550600182018160010190600261038c9291906109d1565b50601b82015481601b0155601c82015481601c0155601d820160009054906101000a900460ff1681601d0160006101000a81548160ff021916908315150217905550601d820160019054906101000a900460ff1681601d0160016101000a81548160ff0219169083151502179055509050507f1edfba130181c8da1b98834639c59b5287912fcc01104c5a7a6e6c8cd194e30230338560405161043193929190610f81565b60405180910390a150505050565b60008061044b836104bb565b905080600001511561046457806040015191505061046a565b60089150505b919050565b60008061047b836104bb565b90508060000151156104b057806020015160016002811061049f5761049e610edb565b5b6020020151602001519150506104b6565b60009150505b919050565b6104c3610b14565b6104cb610b14565b60008084815260200190815260200160002060000160009054906101000a900460ff1615610725576000808481526020019081526020016000206040518060c00160405290816000820160009054906101000a900460ff1615151515815260200160018201600280602002604051908101604052809291906000905b828210156106cc578382600d02016040518060a00160405290816000820160009054906101000a900460ff161515151581526020016000820160019054906101000a900473ffffffffffffffffffffffffffffffffffffffff1673ffffffffffffffffffffffffffffffffffffffff1673ffffffffffffffffffffffffffffffffffffffff1681526020016001820154815260200160028201548152602001600382016040518060600160405290816000820160009054906101000a900460ff1615151515815260200160018201600880602002604051908101604052809291906000905b828210156106a757838201600880602002604051908101604052809291908260088015610693576020028201916000905b82829054906101000a900460ff1615158152602001906001019060208260000104928301926001038202915080841161065d5790505b50505050508152602001906001019061062c565b5050505081526020016009820154815250508152505081526020019060010190610547565b505050508152602001601b8201548152602001601c8201548152602001601d820160009054906101000a900460ff16151515158152602001601d820160019054906101000a900460ff161515151581525050905061097e565b6001600084815260200190815260200160002060000160009054906101000a900460ff161561097d57600160008481526020019081526020016000206040518060c00160405290816000820160009054906101000a900460ff1615151515815260200160018201600280602002604051908101604052809291906000905b82821015610928578382600d02016040518060a00160405290816000820160009054906101000a900460ff161515151581526020016000820160019054906101000a900473ffffffffffffffffffffffffffffffffffffffff1673ffffffffffffffffffffffffffffffffffffffff1673ffffffffffffffffffffffffffffffffffffffff1681526020016001820154815260200160028201548152602001600382016040518060600160405290816000820160009054906101000a900460ff1615151515815260200160018201600880602002604051908101604052809291906000905b82821015610903578382016008806020026040519081016040528092919082600880156108ef576020028201916000905b82829054906101000a900460ff161515815260200190600101906020826000010492830192600103820291508084116108b95790505b505050505081526020019060010190610888565b50505050815260200160098201548152505081525050815260200190600101906107a3565b505050508152602001601b8201548152602001601c8201548152602001601d820160009054906101000a900460ff16151515158152602001601d820160019054906101000a900460ff16151515158152505090505b5b80915050919050565b82600881019282156109c0579182015b828111156109bf5782829060086109af929190610b56565b5091600101919060010190610997565b5b5090506109cd9190610ba1565b5090565b826002600d028101928215610b035791600d0282015b82811115610b025782826000820160009054906101000a900460ff168160000160006101000a81548160ff0219169083151502179055506000820160019054906101000a900473ffffffffffffffffffffffffffffffffffffffff168160000160016101000a81548173ffffffffffffffffffffffffffffffffffffffff021916908373ffffffffffffffffffffffffffffffffffffffff160217905550600182015481600101556002820154816002015560038201816003016000820160009054906101000a900460ff168160000160006101000a81548160ff0219169083151502179055506001820181600101906008610ae4929190610987565b50600982015481600901555050505091600d019190600d01906109e7565b5b509050610b109190610bc5565b5090565b6040518060c00160405280600015158152602001610b30610c5a565b815260200160008152602001600081526020016000151581526020016000151581525090565b826008601f01602090048101928215610b905791601f016020900482015b82811115610b8f578254825591600101919060010190610b74565b5b509050610b9d9190610c87565b5090565b5b80821115610bc15760008181610bb89190610ca4565b50600101610ba2565b5090565b5b80821115610c5657600080820160006101000a81549060ff02191690556000820160016101000a81549073ffffffffffffffffffffffffffffffffffffffff02191690556001820160009055600282016000905560038201600080820160006101000a81549060ff0219169055600182016000610c439190610cab565b6009820160009055505050600d01610bc6565b5090565b60405180604001604052806002905b610c71610cbe565b815260200190600190039081610c695790505090565b5b80821115610ca0576000816000905550600101610c88565b5090565b5060009055565b508060080190610cbb9190610ba1565b50565b6040518060a00160405280600015158152602001600073ffffffffffffffffffffffffffffffffffffffff1681526020016000815260200160008019168152602001610d08610d0e565b81525090565b6040518060600160405280600015158152602001610d2a610d37565b8152602001600081525090565b6040518061010001604052806008905b610d4f610d65565b815260200190600190039081610d475790505090565b604051806101000160405280600890602082028036833780820191505090505090565b600080fd5b6000819050919050565b610da081610d8d565b8114610dab57600080fd5b50565b600081359050610dbd81610d97565b92915050565b600060208284031215610dd957610dd8610d88565b5b6000610de784828501610dae565b91505092915050565b600073ffffffffffffffffffffffffffffffffffffffff82169050919050565b6000610e1b82610df0565b9050919050565b610e2b81610e10565b82525050565b6000602082019050610e466000830184610e22565b92915050565b60008115159050919050565b610e6181610e4c565b8114610e6c57600080fd5b50565b600081359050610e7e81610e58565b92915050565b600060208284031215610e9a57610e99610d88565b5b6000610ea884828501610e6f565b91505092915050565b610eba81610d8d565b82525050565b6000602082019050610ed56000830184610eb1565b92915050565b7f4e487b7100000000000000000000000000000000000000000000000000000000600052603260045260246000fd5b7f4e487b7100000000000000000000000000000000000000000000000000000000600052601160045260246000fd5b6000610f4482610d8d565b91507fffffffffffffffffffffffffffffffffffffffffffffffffffffffffffffffff8203610f7657610f75610f0a565b5b600182019050919050565b6000606082019050610f966000830186610e22565b610fa36020830185610e22565b610fb06040830184610eb1565b94935050505056fea2646970667358221220278b729088bafd0c334804d889fa8076a17e20891c9bcc15dc11e5cc78fdcfa064736f6c63430008130033",
  "immutableReferences": {},
  "source": "// SPDX-License-Identifier: MIT\r\npragma solidity >=0.4.22 <0.9.0;\r\n\r\ncontract Battleships {\r\n        struct Board{\r\n            bool valid;\r\n            // N*N matrix of bits to store hits\r\n            bool[8][8] shots;\r\n            uint totalPieces;\r\n        }\r\n\r\n        struct Player{\r\n            bool valid;\r\n            address playerAddress;\r\n            uint proposedStake;\r\n            bytes32 boardTreeRoot;\r\n            Board shots_board;\r\n        }\r\n\r\n        struct Game{\r\n            bool valid;\r\n            // host is always player[0]\r\n            Player[2] players;\r\n            // 0: waiting; 1: setting stake; 2: placing ships; \r\n            // 3: player[0] firing turn; 4: player[1] response turn; \r\n            // 5: player[1] firing turn; 6: player[0] response turn; \r\n            // 7: done; 8: doesn't exist\r\n            uint state;\r\n            // used for foul accusation, a foul is triggered after 5 blocks\r\n            uint blockNumber;\r\n            // player 0 or player 1\r\n            // might turn it into address, we will see\r\n            bool accuser;\r\n            // not required: whether or not this game should be in the public pool of joinable games\r\n            bool privateGame;\r\n        }\r\n\r\n    // define a set of games available to join and a set of games already full\r\n    mapping(uint => Game) private openGames;\r\n    mapping(uint => Game) private fullGames;\r\n    Game private gameTrampoline;\r\n    Player private playerTrampoline;\r\n    // used in generating UUIDs for the games\r\n    // for now we are gonna use this as-is\r\n    // TODO: deal with it overflowing\r\n    uint private gameCounter;\r\n\r\n    constructor() {\r\n        gameCounter = 0;\r\n    }\r\n\r\n    event ShareID(address _from, address _to, uint _id);\r\n\r\n    // create a Game value, add it to openGames, populate the Player[0]\r\n    function newGame(bool isPrivate) public {\r\n        uint gameID = gameCounter;\r\n        gameCounter++;\r\n        Game storage game = gameTrampoline;\r\n        Player storage host = playerTrampoline;\r\n        host.playerAddress = msg.sender;\r\n        host.valid = true;\r\n        game.players[0] = host;\r\n        game.state = 0;\r\n        game.privateGame = isPrivate;\r\n        game.valid = true;\r\n        openGames[gameID] = game;\r\n        emit ShareID(address(this), msg.sender, gameID);\r\n        return;\r\n    }\r\n\r\n    function getGamePosition (uint gameID) private view returns (Game memory){\r\n        Game memory gameChecked;\r\n        if(openGames[gameID].valid){\r\n            gameChecked = openGames[gameID];\r\n        }\r\n        else if(fullGames[gameID].valid){\r\n             gameChecked = fullGames[gameID];\r\n        }\r\n        return gameChecked;\r\n    }\r\n\r\n    function checkGameState(uint gameID) public view returns (uint) {\r\n        Game memory game = getGamePosition(gameID);\r\n        if (game.valid){\r\n            return game.state;\r\n        }\r\n        else \r\n            return(8);\r\n    }\r\n\r\n    function checkGamePlayerOne(uint gameID) public view returns (address) {\r\n        Game memory game = getGamePosition(gameID);\r\n        if (game.valid){\r\n            return game.players[0].playerAddress;\r\n        }\r\n        else \r\n            return(address(0));\r\n    }\r\n\r\n    function checkGamePlayerTwo(uint gameID) public view returns (address) {\r\n        Game memory game = getGamePosition(gameID);\r\n        if (game.valid){\r\n            return game.players[1].playerAddress;\r\n        }\r\n        else \r\n            return(address(0));\r\n    }\r\n}",
  "sourcePath": "F:\\Documents\\Code\\School\\P2PBC\\Battleships\\contracts\\Battleships.sol",
  "compiler": {
    "name": "solc",
    "version": "0.8.19+commit.7dd6d404.Emscripten.clang"
  },
  "schemaVersion": "3.4.13",
  "updatedAt": "2023-05-16T22:12:09.165Z",
  "networkType": "ethereum",
  "devdoc": {
    "kind": "dev",
    "methods": {},
    "version": 1
  },
  "userdoc": {
    "kind": "user",
    "methods": {},
    "version": 1
  }
}