{
  "contractName": "Battleships",
  "abi": [
    {
      "inputs": [],
      "stateMutability": "nonpayable",
      "type": "constructor"
    },
    {
      "inputs": [],
      "name": "InvalidGameID",
      "type": "error"
    },
    {
      "inputs": [],
      "name": "NotInGame",
      "type": "error"
    },
    {
      "inputs": [],
      "name": "StakeAlreadyDeposited",
      "type": "error"
    },
    {
      "inputs": [
        {
          "internalType": "uint256",
          "name": "expectedStakeValue",
          "type": "uint256"
        }
      ],
      "name": "WrongStakeAmount",
      "type": "error"
    },
    {
      "anonymous": false,
      "inputs": [
        {
          "indexed": false,
          "internalType": "uint256",
          "name": "_gameID",
          "type": "uint256"
        }
      ],
      "name": "AcceptingBoards",
      "type": "event"
    },
    {
      "anonymous": false,
      "inputs": [
        {
          "indexed": false,
          "internalType": "uint256",
          "name": "_gameID",
          "type": "uint256"
        },
        {
          "indexed": false,
          "internalType": "address",
          "name": "_player",
          "type": "address"
        }
      ],
      "name": "BoardAcknowledgeEvent",
      "type": "event"
    },
    {
      "anonymous": false,
      "inputs": [
        {
          "indexed": false,
          "internalType": "uint256",
          "name": "_gameID",
          "type": "uint256"
        },
        {
          "indexed": false,
          "internalType": "address",
          "name": "_accused",
          "type": "address"
        },
        {
          "indexed": false,
          "internalType": "uint256",
          "name": "_block",
          "type": "uint256"
        }
      ],
      "name": "Foul",
      "type": "event"
    },
    {
      "anonymous": false,
      "inputs": [
        {
          "indexed": false,
          "internalType": "uint256",
          "name": "_gameID",
          "type": "uint256"
        },
        {
          "indexed": false,
          "internalType": "address",
          "name": "_host",
          "type": "address"
        },
        {
          "indexed": false,
          "internalType": "address",
          "name": "_challenger",
          "type": "address"
        },
        {
          "indexed": false,
          "internalType": "uint256",
          "name": "_stakeValue",
          "type": "uint256"
        }
      ],
      "name": "GamePayable",
      "type": "event"
    },
    {
      "anonymous": false,
      "inputs": [
        {
          "indexed": false,
          "internalType": "uint256",
          "name": "_gameID",
          "type": "uint256"
        },
        {
          "indexed": false,
          "internalType": "address",
          "name": "_host",
          "type": "address"
        },
        {
          "indexed": false,
          "internalType": "address",
          "name": "_challenger",
          "type": "address"
        }
      ],
      "name": "GameStart",
      "type": "event"
    },
    {
      "anonymous": false,
      "inputs": [
        {
          "indexed": false,
          "internalType": "uint256",
          "name": "_gameID",
          "type": "uint256"
        }
      ],
      "name": "PlayerZeroTurn",
      "type": "event"
    },
    {
      "anonymous": false,
      "inputs": [
        {
          "indexed": false,
          "internalType": "uint256",
          "name": "_gameID",
          "type": "uint256"
        },
        {
          "indexed": false,
          "internalType": "address",
          "name": "_winner",
          "type": "address"
        }
      ],
      "name": "RequestBoard",
      "type": "event"
    },
    {
      "anonymous": false,
      "inputs": [
        {
          "indexed": false,
          "internalType": "address",
          "name": "_from",
          "type": "address"
        },
        {
          "indexed": false,
          "internalType": "address",
          "name": "_to",
          "type": "address"
        },
        {
          "indexed": false,
          "internalType": "uint256",
          "name": "_gameID",
          "type": "uint256"
        }
      ],
      "name": "ShareID",
      "type": "event"
    },
    {
      "anonymous": false,
      "inputs": [
        {
          "indexed": false,
          "internalType": "uint256",
          "name": "_gameID",
          "type": "uint256"
        },
        {
          "indexed": false,
          "internalType": "uint8",
          "name": "_location",
          "type": "uint8"
        },
        {
          "indexed": false,
          "internalType": "bool",
          "name": "_claim",
          "type": "bool"
        },
        {
          "indexed": false,
          "internalType": "bool",
          "name": "_validity",
          "type": "bool"
        }
      ],
      "name": "ShotsChecked",
      "type": "event"
    },
    {
      "anonymous": false,
      "inputs": [
        {
          "indexed": false,
          "internalType": "uint256",
          "name": "_gameID",
          "type": "uint256"
        },
        {
          "indexed": false,
          "internalType": "uint8",
          "name": "_location",
          "type": "uint8"
        }
      ],
      "name": "ShotsFired",
      "type": "event"
    },
    {
      "anonymous": false,
      "inputs": [
        {
          "indexed": false,
          "internalType": "uint256",
          "name": "_gameID",
          "type": "uint256"
        },
        {
          "indexed": false,
          "internalType": "address",
          "name": "_whoPaid",
          "type": "address"
        }
      ],
      "name": "StakePaid",
      "type": "event"
    },
    {
      "anonymous": false,
      "inputs": [
        {
          "indexed": false,
          "internalType": "uint256",
          "name": "_gameID",
          "type": "uint256"
        },
        {
          "indexed": false,
          "internalType": "address",
          "name": "_from",
          "type": "address"
        },
        {
          "indexed": false,
          "internalType": "address",
          "name": "_to",
          "type": "address"
        },
        {
          "indexed": false,
          "internalType": "uint256",
          "name": "_stakeValue",
          "type": "uint256"
        }
      ],
      "name": "SuggestedStake",
      "type": "event"
    },
    {
      "anonymous": false,
      "inputs": [
        {
          "indexed": false,
          "internalType": "uint256",
          "name": "_gameID",
          "type": "uint256"
        },
        {
          "indexed": false,
          "internalType": "address",
          "name": "_winner",
          "type": "address"
        }
      ],
      "name": "Victory",
      "type": "event"
    },
    {
      "inputs": [],
      "name": "BOARD_SIZE",
      "outputs": [
        {
          "internalType": "uint8",
          "name": "",
          "type": "uint8"
        }
      ],
      "stateMutability": "view",
      "type": "function"
    },
    {
      "inputs": [],
      "name": "NUMBER_OF_SHIP_SQUARES",
      "outputs": [
        {
          "internalType": "uint8",
          "name": "",
          "type": "uint8"
        }
      ],
      "stateMutability": "view",
      "type": "function"
    },
    {
      "inputs": [
        {
          "internalType": "bool",
          "name": "isPrivate",
          "type": "bool"
        }
      ],
      "name": "newGame",
      "outputs": [],
      "stateMutability": "nonpayable",
      "type": "function"
    },
    {
      "inputs": [
        {
          "internalType": "uint256",
          "name": "gameID",
          "type": "uint256"
        }
      ],
      "name": "joinGame",
      "outputs": [],
      "stateMutability": "nonpayable",
      "type": "function"
    },
    {
      "inputs": [
        {
          "internalType": "uint256",
          "name": "gameID",
          "type": "uint256"
        }
      ],
      "name": "checkGameState",
      "outputs": [
        {
          "internalType": "enum Battleships.GameStates",
          "name": "",
          "type": "uint8"
        }
      ],
      "stateMutability": "view",
      "type": "function"
    },
    {
      "inputs": [
        {
          "internalType": "uint256",
          "name": "gameID",
          "type": "uint256"
        },
        {
          "internalType": "uint256",
          "name": "index",
          "type": "uint256"
        }
      ],
      "name": "checkGamePlayer",
      "outputs": [
        {
          "internalType": "address",
          "name": "",
          "type": "address"
        }
      ],
      "stateMutability": "view",
      "type": "function"
    },
    {
      "inputs": [
        {
          "internalType": "uint256",
          "name": "gameID",
          "type": "uint256"
        },
        {
          "internalType": "uint256",
          "name": "stakeValue",
          "type": "uint256"
        }
      ],
      "name": "proposeStake",
      "outputs": [],
      "stateMutability": "nonpayable",
      "type": "function"
    },
    {
      "inputs": [
        {
          "internalType": "uint256",
          "name": "gameID",
          "type": "uint256"
        }
      ],
      "name": "checkStakePlayerOne",
      "outputs": [
        {
          "internalType": "uint256",
          "name": "",
          "type": "uint256"
        }
      ],
      "stateMutability": "view",
      "type": "function"
    },
    {
      "inputs": [
        {
          "internalType": "uint256",
          "name": "gameID",
          "type": "uint256"
        }
      ],
      "name": "checkStakePlayerTwo",
      "outputs": [
        {
          "internalType": "uint256",
          "name": "",
          "type": "uint256"
        }
      ],
      "stateMutability": "view",
      "type": "function"
    },
    {
      "inputs": [
        {
          "internalType": "uint256",
          "name": "gameID",
          "type": "uint256"
        }
      ],
      "name": "checkStakeGame",
      "outputs": [
        {
          "internalType": "uint256",
          "name": "",
          "type": "uint256"
        }
      ],
      "stateMutability": "view",
      "type": "function"
    },
    {
      "inputs": [
        {
          "internalType": "uint256",
          "name": "gameID",
          "type": "uint256"
        }
      ],
      "name": "payStake",
      "outputs": [],
      "stateMutability": "payable",
      "type": "function"
    },
    {
      "inputs": [
        {
          "internalType": "uint256",
          "name": "gameID",
          "type": "uint256"
        }
      ],
      "name": "checkGamePayable",
      "outputs": [
        {
          "internalType": "bool",
          "name": "",
          "type": "bool"
        }
      ],
      "stateMutability": "view",
      "type": "function"
    },
    {
      "inputs": [
        {
          "internalType": "uint256",
          "name": "gameID",
          "type": "uint256"
        },
        {
          "internalType": "bytes32",
          "name": "boardRoot",
          "type": "bytes32"
        }
      ],
      "name": "PlaceShips",
      "outputs": [],
      "stateMutability": "nonpayable",
      "type": "function"
    },
    {
      "inputs": [
        {
          "internalType": "uint256",
          "name": "gameID",
          "type": "uint256"
        },
        {
          "internalType": "uint8",
          "name": "location",
          "type": "uint8"
        }
      ],
      "name": "FireTorpedo",
      "outputs": [],
      "stateMutability": "nonpayable",
      "type": "function"
    },
    {
      "inputs": [
        {
          "internalType": "uint256",
          "name": "gameID",
          "type": "uint256"
        },
        {
          "internalType": "uint8",
          "name": "location",
          "type": "uint8"
        },
        {
          "internalType": "bool",
          "name": "isHit",
          "type": "bool"
        },
        {
          "internalType": "bytes32",
          "name": "leaf",
          "type": "bytes32"
        },
        {
          "internalType": "bytes32[]",
          "name": "proof",
          "type": "bytes32[]"
        }
      ],
      "name": "ConfirmShot",
      "outputs": [],
      "stateMutability": "nonpayable",
      "type": "function"
    },
    {
      "inputs": [
        {
          "internalType": "uint8",
          "name": "tile",
          "type": "uint8"
        },
        {
          "internalType": "bool",
          "name": "ship",
          "type": "bool"
        }
      ],
      "name": "GenLeafNode",
      "outputs": [
        {
          "internalType": "bytes32",
          "name": "",
          "type": "bytes32"
        }
      ],
      "stateMutability": "pure",
      "type": "function"
    },
    {
      "inputs": [
        {
          "internalType": "uint256",
          "name": "gameID",
          "type": "uint256"
        },
        {
          "internalType": "uint8[]",
          "name": "tiles",
          "type": "uint8[]"
        },
        {
          "internalType": "bool[]",
          "name": "ships",
          "type": "bool[]"
        },
        {
          "internalType": "bytes32[]",
          "name": "nodes",
          "type": "bytes32[]"
        },
        {
          "internalType": "bytes32[][]",
          "name": "proofs",
          "type": "bytes32[][]"
        },
        {
          "internalType": "bytes32",
          "name": "root",
          "type": "bytes32"
        }
      ],
      "name": "VerifyWinner",
      "outputs": [],
      "stateMutability": "nonpayable",
      "type": "function"
    },
    {
      "inputs": [
        {
          "internalType": "uint256",
          "name": "gameID",
          "type": "uint256"
        }
      ],
      "name": "WithdrawWinnings",
      "outputs": [],
      "stateMutability": "nonpayable",
      "type": "function"
    },
    {
      "inputs": [
        {
          "internalType": "uint256",
          "name": "gameID",
          "type": "uint256"
        }
      ],
      "name": "FoulAccusation",
      "outputs": [],
      "stateMutability": "nonpayable",
      "type": "function"
    },
    {
      "inputs": [
        {
          "internalType": "uint256",
          "name": "gameID",
          "type": "uint256"
        }
      ],
      "name": "CheckFoulTimer",
      "outputs": [],
      "stateMutability": "nonpayable",
      "type": "function"
    },
    {
      "inputs": [
        {
          "internalType": "uint256",
          "name": "gameID",
          "type": "uint256"
        },
        {
          "internalType": "enum Battleships.GameStates",
          "name": "state",
          "type": "uint8"
        }
      ],
      "name": "ChangeState",
      "outputs": [],
      "stateMutability": "nonpayable",
      "type": "function"
    },
    {
      "inputs": [
        {
          "internalType": "uint256",
          "name": "gameID",
          "type": "uint256"
        },
        {
          "internalType": "address",
          "name": "winner",
          "type": "address"
        }
      ],
      "name": "SetWinner",
      "outputs": [],
      "stateMutability": "nonpayable",
      "type": "function"
    }
  ],
  "bytecode": "0x608060405234801561001057600080fd5b506001602481905550600160258190555033602660016101000a81548173ffffffffffffffffffffffffffffffffffffffff021916908373ffffffffffffffffffffffffffffffffffffffff1602179055506005602660006101000a81548160ff021916908360ff160217905550615fd1806200008e6000396000f3fe6080604052600436106101355760003560e01c80639a7e4cea116100ab578063e0c6b52a1161006f578063e0c6b52a14610439578063e0dd9bb414610462578063efaa55a01461048b578063f28ae7dd146104b4578063f7b68ea9146104dd578063fba523b71461050657610135565b80639a7e4cea1461032e578063aa3ee9151461036b578063ac2f9423146103a8578063bd7c88f8146103d1578063dc4a3e951461040e57610135565b80636930aa4d116100fd5780636930aa4d1461020e578063699f5aeb1461023957806374f760e41461027657806379fbd95d1461029f57806395287e96146102c857806399396b11146102f157610135565b8063012b61f01461013a5780630e37dcd01461017757806316337b89146101935780632b170aac146101bc5780633c2d3a88146101e5575b600080fd5b34801561014657600080fd5b50610161600480360381019061015c9190615385565b610543565b60405161016e91906153cd565b60405180910390f35b610191600480360381019061018c9190615385565b61062b565b005b34801561019f57600080fd5b506101ba60048036038101906101b5919061541e565b610eca565b005b3480156101c857600080fd5b506101e360048036038101906101de919061548a565b61176c565b005b3480156101f157600080fd5b5061020c60048036038101906102079190615385565b611c01565b005b34801561021a57600080fd5b50610223611e30565b60405161023091906154d3565b60405180910390f35b34801561024557600080fd5b50610260600480360381019061025b9190615385565b611e35565b60405161026d91906154fd565b60405180910390f35b34801561028257600080fd5b5061029d60048036038101906102989190615385565b611f10565b005b3480156102ab57600080fd5b506102c660048036038101906102c191906155a9565b6123dd565b005b3480156102d457600080fd5b506102ef60048036038101906102ea9190615745565b612ac9565b005b3480156102fd57600080fd5b5061031860048036038101906103139190615855565b612f29565b60405161032591906158d6565b60405180910390f35b34801561033a57600080fd5b5061035560048036038101906103509190615385565b612ff8565b6040516103629190615968565b60405180910390f35b34801561037757600080fd5b50610392600480360381019061038d9190615385565b613056565b60405161039f91906154fd565b60405180910390f35b3480156103b457600080fd5b506103cf60048036038101906103ca91906159af565b613106565b005b3480156103dd57600080fd5b506103f860048036038101906103f391906159ef565b61315e565b6040516104059190615a3e565b60405180910390f35b34801561041a57600080fd5b50610423613191565b60405161043091906154d3565b60405180910390f35b34801561044557600080fd5b50610460600480360381019061045b9190615a7e565b613196565b005b34801561046e57600080fd5b5061048960048036038101906104849190615abe565b6131d7565b005b34801561049757600080fd5b506104b260048036038101906104ad9190615385565b61386a565b005b3480156104c057600080fd5b506104db60048036038101906104d69190615855565b613c62565b005b3480156104e957600080fd5b5061050460048036038101906104ff9190615385565b61460d565b005b34801561051257600080fd5b5061052d60048036038101906105289190615385565b614b7c565b60405161053a91906154fd565b60405180910390f35b600080600083815260200190815260200160002060000160009054906101000a900460ff1680156105ad575060008083815260200190815260200160002060010160006002811061059757610596615afe565b5b6008020160000160009054906101000a900460ff165b80156105f257506000808381526020019081526020016000206001016001600281106105dc576105db615afe565b5b6008020160000160009054906101000a900460ff165b156106215760008083815260200190815260200160002060000160019054906101000a900460ff169050610626565b600090505b919050565b8060008082815260200190815260200160002060000160009054906101000a900460ff1661065c5761065b615b2d565b5b813373ffffffffffffffffffffffffffffffffffffffff1660008083815260200190815260200160002060010160006002811061069c5761069b615afe565b5b6008020160000160029054906101000a900473ffffffffffffffffffffffffffffffffffffffff1673ffffffffffffffffffffffffffffffffffffffff16148061076057503373ffffffffffffffffffffffffffffffffffffffff166000808381526020019081526020016000206001016001600281106107205761071f615afe565b5b6008020160000160029054906101000a900473ffffffffffffffffffffffffffffffffffffffff1673ffffffffffffffffffffffffffffffffffffffff16145b61076d5761076c615b2d565b5b8260026004600b811115610784576107836158f1565b5b81600b811115610797576107966158f1565b5b141580156107ca57506006600b8111156107b4576107b36158f1565b5b81600b8111156107c7576107c66158f1565b5b14155b80156107fb57506007600b8111156107e5576107e46158f1565b5b81600b8111156107f8576107f76158f1565b5b14155b801561082c57506005600b811115610816576108156158f1565b5b81600b811115610829576108286158f1565b5b14155b1561088c5780600b811115610844576108436158f1565b5b60008084815260200190815260200160002060110160009054906101000a900460ff16600b811115610879576108786158f1565b5b1461088757610886615b2d565b5b610ab4565b600061089783614c2c565b90506004600b8111156108ad576108ac6158f1565b5b82600b8111156108c0576108bf6158f1565b5b0361099d576000816000600281106108db576108da615afe565b5b6020020151036109405781600b8111156108f8576108f76158f1565b5b60008085815260200190815260200160002060110160009054906101000a900460ff16600b81111561092d5761092c6158f1565b5b1461093b5761093a615b2d565b5b610998565b6006600b811115610954576109536158f1565b5b60008085815260200190815260200160002060110160009054906101000a900460ff16600b811115610989576109886158f1565b5b1461099757610996615b2d565b5b5b610ab2565b6007600b8111156109b1576109b06158f1565b5b82600b8111156109c4576109c36158f1565b5b03610aa1576000816000600281106109df576109de615afe565b5b602002015103610a445781600b8111156109fc576109fb6158f1565b5b60008085815260200190815260200160002060110160009054906101000a900460ff16600b811115610a3157610a306158f1565b5b14610a3f57610a3e615b2d565b5b610a9c565b6005600b811115610a5857610a576158f1565b5b60008085815260200190815260200160002060110160009054906101000a900460ff16600b811115610a8d57610a8c6158f1565b5b14610a9b57610a9a615b2d565b5b5b610ab1565b6000610ab057610aaf615b2d565b5b5b5b505b600080868152602001908152602001600020600101600060028110610adc57610adb615afe565b5b6008020160000160029054906101000a900473ffffffffffffffffffffffffffffffffffffffff1673ffffffffffffffffffffffffffffffffffffffff163373ffffffffffffffffffffffffffffffffffffffff16148015610b775750600080868152602001908152602001600020600101600060028110610b6157610b60615afe565b5b6008020160000160019054906101000a900460ff165b80610c415750600080868152602001908152602001600020600101600160028110610ba557610ba4615afe565b5b6008020160000160029054906101000a900473ffffffffffffffffffffffffffffffffffffffff1673ffffffffffffffffffffffffffffffffffffffff163373ffffffffffffffffffffffffffffffffffffffff16148015610c405750600080868152602001908152602001600020600101600160028110610c2a57610c29615afe565b5b6008020160000160019054906101000a900460ff165b5b15610c78576040517f5e558b2300000000000000000000000000000000000000000000000000000000815260040160405180910390fd5b600080868152602001908152602001600020601201543414610ce657600080868152602001908152602001600020601201546040517f66cb868a000000000000000000000000000000000000000000000000000000008152600401610cdd91906154fd565b60405180910390fd5b600080600080888152602001908152602001600020600101600060028110610d1157610d10615afe565b5b6008020160000160029054906101000a900473ffffffffffffffffffffffffffffffffffffffff1673ffffffffffffffffffffffffffffffffffffffff163373ffffffffffffffffffffffffffffffffffffffff1603610d78576000915060019050610d81565b60019150600090505b60016000808981526020019081526020016000206001018360028110610daa57610da9615afe565b5b6008020160000160016101000a81548160ff021916908315150217905550610dd187614d49565b7f95ddb9abe17699603c18cef7bcfd33947d19c8eb237e01edac0bd509b481339e8733604051610e02929190615b5c565b60405180910390a16000808881526020019081526020016000206001018160028110610e3157610e30615afe565b5b6008020160000160019054906101000a900460ff1615610ec157600460008089815260200190815260200160002060110160006101000a81548160ff0219169083600b811115610e8457610e836158f1565b5b02179055507ff751b3d5e96ffa95a434b79874df7e232b82d5c688a5d61fd7b5c5ce8724712787604051610eb891906154fd565b60405180910390a15b50505050505050565b8160008082815260200190815260200160002060000160009054906101000a900460ff16610efb57610efa615b2d565b5b823373ffffffffffffffffffffffffffffffffffffffff16600080838152602001908152602001600020600101600060028110610f3b57610f3a615afe565b5b6008020160000160029054906101000a900473ffffffffffffffffffffffffffffffffffffffff1673ffffffffffffffffffffffffffffffffffffffff161480610fff57503373ffffffffffffffffffffffffffffffffffffffff16600080838152602001908152602001600020600101600160028110610fbf57610fbe615afe565b5b6008020160000160029054906101000a900473ffffffffffffffffffffffffffffffffffffffff1673ffffffffffffffffffffffffffffffffffffffff16145b61100c5761100b615b2d565b5b8360036004600b811115611023576110226158f1565b5b81600b811115611036576110356158f1565b5b1415801561106957506006600b811115611053576110526158f1565b5b81600b811115611066576110656158f1565b5b14155b801561109a57506007600b811115611084576110836158f1565b5b81600b811115611097576110966158f1565b5b14155b80156110cb57506005600b8111156110b5576110b46158f1565b5b81600b8111156110c8576110c76158f1565b5b14155b1561112b5780600b8111156110e3576110e26158f1565b5b60008084815260200190815260200160002060110160009054906101000a900460ff16600b811115611118576111176158f1565b5b1461112657611125615b2d565b5b611353565b600061113683614c2c565b90506004600b81111561114c5761114b6158f1565b5b82600b81111561115f5761115e6158f1565b5b0361123c5760008160006002811061117a57611179615afe565b5b6020020151036111df5781600b811115611197576111966158f1565b5b60008085815260200190815260200160002060110160009054906101000a900460ff16600b8111156111cc576111cb6158f1565b5b146111da576111d9615b2d565b5b611237565b6006600b8111156111f3576111f26158f1565b5b60008085815260200190815260200160002060110160009054906101000a900460ff16600b811115611228576112276158f1565b5b1461123657611235615b2d565b5b5b611351565b6007600b8111156112505761124f6158f1565b5b82600b811115611263576112626158f1565b5b036113405760008160006002811061127e5761127d615afe565b5b6020020151036112e35781600b81111561129b5761129a6158f1565b5b60008085815260200190815260200160002060110160009054906101000a900460ff16600b8111156112d0576112cf6158f1565b5b146112de576112dd615b2d565b5b61133b565b6005600b8111156112f7576112f66158f1565b5b60008085815260200190815260200160002060110160009054906101000a900460ff16600b81111561132c5761132b6158f1565b5b1461133a57611339615b2d565b5b5b611350565b600061134f5761134e615b2d565b5b5b5b505b60008060008089815260200190815260200160002060010160006002811061137e5761137d615afe565b5b6008020160000160029054906101000a900473ffffffffffffffffffffffffffffffffffffffff1673ffffffffffffffffffffffffffffffffffffffff163373ffffffffffffffffffffffffffffffffffffffff16146113e25760019150816113e8565b60009150815b5060008089815260200190815260200160002060010160006002811061141157611410615afe565b5b6008020160000160029054906101000a900473ffffffffffffffffffffffffffffffffffffffff1673ffffffffffffffffffffffffffffffffffffffff163373ffffffffffffffffffffffffffffffffffffffff161461147557600090508061147b565b60019050805b506000801b6000808a815260200190815260200160002060010183600281106114a7576114a6615afe565b5b6008020160020154146114b957600080fd5b6000601f90506001601f60000160006101000a81548160ff021916908315150217905550601460ff16601f600101819055506008806114f89190615bb4565b60ff16601f6002018190555060005b6008806115149190615bb4565b60ff16811015611569576000601f600301826040811061153757611536615afe565b5b602091828204019190066101000a81548160ff021916908315150217905550808061156190615bf1565b915050611507565b50806000808b8152602001908152602001600020600101846002811061159257611591615afe565b5b600802016003016000820160009054906101000a900460ff168160000160006101000a81548160ff021916908315150217905550600182015481600101556002820154816002015560038201816003019060406115f0929190615082565b50905050876000808b8152602001908152602001600020600101846002811061161c5761161b615afe565b5b60080201600201819055507fde8cdabe60db81138d1e5580b73440f47ba010dbd18575d18bad0b750987001e8933604051611658929190615b5c565b60405180910390a16000801b6000808b8152602001908152602001600020600101836002811061168b5761168a615afe565b5b6008020160020154146117615760016000808b815260200190815260200160002060110160006101000a81548160ff0219169083600b8111156116d1576116d06158f1565b5b02179055507fdf72bd9cb04731c1dfa0832a380e56504fda45508a7305083a9be0f343e93421896000808c81526020019081526020016000206001016000600281106117205761171f615afe565b5b6008020160000160029054906101000a900473ffffffffffffffffffffffffffffffffffffffff163360405161175893929190615c39565b60405180910390a15b505050505050505050565b600060245490506024600081548092919061178690615bf1565b9190505550600060019050600060179050338160000160026101000a81548173ffffffffffffffffffffffffffffffffffffffff021916908373ffffffffffffffffffffffffffffffffffffffff16021790555060018160000160006101000a81548160ff02191690831515021790555060008160000160016101000a81548160ff021916908315150217905550808260010160006002811061182c5761182b615afe565b5b600802016000820160009054906101000a900460ff168160000160006101000a81548160ff0219169083151502179055506000820160019054906101000a900460ff168160000160016101000a81548160ff0219169083151502179055506000820160029054906101000a900473ffffffffffffffffffffffffffffffffffffffff168160000160026101000a81548173ffffffffffffffffffffffffffffffffffffffff021916908373ffffffffffffffffffffffffffffffffffffffff160217905550600182015481600101556002820154816002015560038201816003016000820160009054906101000a900460ff168160000160006101000a81548160ff02191690831515021790555060018201548160010155600282015481600201556003820181600301906040611964929190615082565b50505090505060008260110160006101000a81548160ff0219169083600b811115611992576119916158f1565b5b0217905550838260140160146101000a81548160ff02191690831515021790555060018260000160006101000a81548160ff02191690831515021790555060008260000160016101000a81548160ff021916908315150217905550816000808581526020019081526020016000206000820160009054906101000a900460ff168160000160006101000a81548160ff0219169083151502179055506000820160019054906101000a900460ff168160000160016101000a81548160ff0219169083151502179055506001820181600101906002611a709291906150cd565b506011820160009054906101000a900460ff168160110160006101000a81548160ff0219169083600b811115611aa957611aa86158f1565b5b021790555060128201548160120155601382015481601301556014820160009054906101000a900473ffffffffffffffffffffffffffffffffffffffff168160140160006101000a81548173ffffffffffffffffffffffffffffffffffffffff021916908373ffffffffffffffffffffffffffffffffffffffff1602179055506014820160149054906101000a900460ff168160140160146101000a81548160ff0219169083151502179055506015820160009054906101000a900473ffffffffffffffffffffffffffffffffffffffff168160150160006101000a81548173ffffffffffffffffffffffffffffffffffffffff021916908373ffffffffffffffffffffffffffffffffffffffff1602179055509050507f1edfba130181c8da1b98834639c59b5287912fcc01104c5a7a6e6c8cd194e302303385604051611bf393929190615c70565b60405180910390a150505050565b8060008082815260200190815260200160002060000160009054906101000a900460ff16611c3257611c31615b2d565b5b813373ffffffffffffffffffffffffffffffffffffffff16600080838152602001908152602001600020600101600060028110611c7257611c71615afe565b5b6008020160000160029054906101000a900473ffffffffffffffffffffffffffffffffffffffff1673ffffffffffffffffffffffffffffffffffffffff161480611d3657503373ffffffffffffffffffffffffffffffffffffffff16600080838152602001908152602001600020600101600160028110611cf657611cf5615afe565b5b6008020160000160029054906101000a900473ffffffffffffffffffffffffffffffffffffffff1673ffffffffffffffffffffffffffffffffffffffff16145b611d4357611d42615b2d565b5b600073ffffffffffffffffffffffffffffffffffffffff1660008085815260200190815260200160002060140160009054906101000a900473ffffffffffffffffffffffffffffffffffffffff1673ffffffffffffffffffffffffffffffffffffffff1603611db157600080fd5b602660009054906101000a900460ff1660ff1643611dcf9190615ca7565b600080858152602001908152602001600020601301541015611e2b57611e2a8360008086815260200190815260200160002060140160009054906101000a900473ffffffffffffffffffffffffffffffffffffffff16614ebd565b5b505050565b601481565b600080600083815260200190815260200160002060000160009054906101000a900460ff168015611e9f5750600080838152602001908152602001600020600101600060028110611e8957611e88615afe565b5b6008020160000160009054906101000a900460ff165b8015611ee45750600080838152602001908152602001600020600101600160028110611ece57611ecd615afe565b5b6008020160000160009054906101000a900460ff165b15611f0657600080838152602001908152602001600020601201549050611f0b565b600090505b919050565b8060008082815260200190815260200160002060000160009054906101000a900460ff16611f4157611f40615b2d565b5b813373ffffffffffffffffffffffffffffffffffffffff1660008083815260200190815260200160002060150160009054906101000a900473ffffffffffffffffffffffffffffffffffffffff1673ffffffffffffffffffffffffffffffffffffffff1614611fb357611fb2615b2d565b5b8260096004600b811115611fca57611fc96158f1565b5b81600b811115611fdd57611fdc6158f1565b5b1415801561201057506006600b811115611ffa57611ff96158f1565b5b81600b81111561200d5761200c6158f1565b5b14155b801561204157506007600b81111561202b5761202a6158f1565b5b81600b81111561203e5761203d6158f1565b5b14155b801561207257506005600b81111561205c5761205b6158f1565b5b81600b81111561206f5761206e6158f1565b5b14155b156120d25780600b81111561208a576120896158f1565b5b60008084815260200190815260200160002060110160009054906101000a900460ff16600b8111156120bf576120be6158f1565b5b146120cd576120cc615b2d565b5b6122fa565b60006120dd83614c2c565b90506004600b8111156120f3576120f26158f1565b5b82600b811115612106576121056158f1565b5b036121e35760008160006002811061212157612120615afe565b5b6020020151036121865781600b81111561213e5761213d6158f1565b5b60008085815260200190815260200160002060110160009054906101000a900460ff16600b811115612173576121726158f1565b5b1461218157612180615b2d565b5b6121de565b6006600b81111561219a576121996158f1565b5b60008085815260200190815260200160002060110160009054906101000a900460ff16600b8111156121cf576121ce6158f1565b5b146121dd576121dc615b2d565b5b5b6122f8565b6007600b8111156121f7576121f66158f1565b5b82600b81111561220a576122096158f1565b5b036122e75760008160006002811061222557612224615afe565b5b60200201510361228a5781600b811115612242576122416158f1565b5b60008085815260200190815260200160002060110160009054906101000a900460ff16600b811115612277576122766158f1565b5b1461228557612284615b2d565b5b6122e2565b6005600b81111561229e5761229d6158f1565b5b60008085815260200190815260200160002060110160009054906101000a900460ff16600b8111156122d3576122d26158f1565b5b146122e1576122e0615b2d565b5b5b6122f7565b60006122f6576122f5615b2d565b5b5b5b505b600060026000808881526020019081526020016000206012015461231e9190615cdb565b9050600a60008088815260200190815260200160002060110160006101000a81548160ff0219169083600b811115612359576123586158f1565b5b021790555060003373ffffffffffffffffffffffffffffffffffffffff168260405161238490615d4e565b60006040518083038185875af1925050503d80600081146123c1576040519150601f19603f3d011682016040523d82523d6000602084013e6123c6565b606091505b50509050806123d457600080fd5b50505050505050565b60008087815260200190815260200160002060000160009054906101000a900460ff1661240d5761240c615b2d565b5b60088061241a9190615bb4565b60ff168560ff161061242f5761242e615b2d565b5b3373ffffffffffffffffffffffffffffffffffffffff1660008088815260200190815260200160002060010160006002811061246e5761246d615afe565b5b6008020160000160029054906101000a900473ffffffffffffffffffffffffffffffffffffffff1673ffffffffffffffffffffffffffffffffffffffff160361250d576007600b8111156124c5576124c46158f1565b5b60008088815260200190815260200160002060110160009054906101000a900460ff16600b8111156124fa576124f96158f1565b5b1461250857612507615b2d565b5b6125fc565b3373ffffffffffffffffffffffffffffffffffffffff1660008088815260200190815260200160002060010160016002811061254c5761254b615afe565b5b6008020160000160029054906101000a900473ffffffffffffffffffffffffffffffffffffffff1673ffffffffffffffffffffffffffffffffffffffff16036125eb576005600b8111156125a3576125a26158f1565b5b60008088815260200190815260200160002060110160009054906101000a900460ff16600b8111156125d8576125d76158f1565b5b146125e6576125e5615b2d565b5b6125fb565b60006125fa576125f9615b2d565b5b5b5b600061260787614c2c565b9050612613868661315e565b841461262257612621615b2d565b5b61267483836000808b8152602001908152602001600020600101846000600281106126505761264f615afe565b5b60200201516002811061266657612665615afe565b5b600802016002015487614f92565b15612a805761268287614d49565b841561296e57600080888152602001908152602001600020600101816001600281106126b1576126b0615afe565b5b6020020151600281106126c7576126c6615afe565b5b600802016003016003018660ff16604081106126e6576126e5615afe565b5b602091828204019190069054906101000a900460ff1661296d576000808881526020019081526020016000206001018160016002811061272957612728615afe565b5b60200201516002811061273f5761273e615afe565b5b60080201600301600101600081548092919061275a90615d63565b919050555060016000808981526020019081526020016000206001018260016002811061278a57612789615afe565b5b6020020151600281106127a05761279f615afe565b5b600802016003016003018760ff16604081106127bf576127be615afe565b5b602091828204019190066101000a81548160ff02191690831515021790555060008060008981526020019081526020016000206001018260016002811061280957612808615afe565b5b60200201516002811061281f5761281e615afe565b5b60080201600301600101540361296c576000808881526020019081526020016000206001018160016002811061285857612857615afe565b5b60200201516002811061286e5761286d615afe565b5b6008020160000160029054906101000a900473ffffffffffffffffffffffffffffffffffffffff1660008089815260200190815260200160002060150160006101000a81548173ffffffffffffffffffffffffffffffffffffffff021916908373ffffffffffffffffffffffffffffffffffffffff160217905550600860008089815260200190815260200160002060110160006101000a81548160ff0219169083600b811115612922576129216158f1565b5b0217905550612966876000808a815260200190815260200160002060150160009054906101000a900473ffffffffffffffffffffffffffffffffffffffff16614fab565b50612ac1565b5b5b6005600b811115612982576129816158f1565b5b60008089815260200190815260200160002060110160009054906101000a900460ff16600b8111156129b7576129b66158f1565b5b146129fe57600460008089815260200190815260200160002060110160006101000a81548160ff0219169083600b8111156129f5576129f46158f1565b5b02179055612a3c565b600660008089815260200190815260200160002060110160006101000a81548160ff0219169083600b811115612a3757612a366158f1565b5b021790555b507f6b7f4cb32e4557bb0ec1ac014e9cf98e7eb88491d66436be28084edaf4ae0d078787876001604051612a739493929190615d8c565b60405180910390a1612abf565b7f6b7f4cb32e4557bb0ec1ac014e9cf98e7eb88491d66436be28084edaf4ae0d078787876000604051612ab69493929190615d8c565b60405180910390a15b505b505050505050565b60008060008c815260200190815260200160002060000160009054906101000a900460ff16612afb57612afa615b2d565b5b6008600b811115612b0f57612b0e6158f1565b5b6000808d815260200190815260200160002060110160009054906101000a900460ff16600b811115612b4457612b436158f1565b5b14612b5257612b51615b2d565b5b6000808c8152602001908152602001600020600101600060028110612b7a57612b79615afe565b5b6008020160000160029054906101000a900473ffffffffffffffffffffffffffffffffffffffff1673ffffffffffffffffffffffffffffffffffffffff166000808d815260200190815260200160002060150160009054906101000a900473ffffffffffffffffffffffffffffffffffffffff1673ffffffffffffffffffffffffffffffffffffffff1603612c125760009050612c17565b600190505b3373ffffffffffffffffffffffffffffffffffffffff166000808d815260200190815260200160002060150160009054906101000a900473ffffffffffffffffffffffffffffffffffffffff1673ffffffffffffffffffffffffffffffffffffffff1614612c8857612c87615b2d565b5b6000808c81526020019081526020016000206001018160028110612caf57612cae615afe565b5b60080201600201548214612cc657612cc5615b2d565b5b600880612cd39190615bb4565b60ff168a8a905014612ce857612ce7615b2d565b5b600880612cf59190615bb4565b60ff168888905014612d0a57612d09615b2d565b5b6000805b600880612d1b9190615bb4565b60ff168160ff161015612e5e5789898260ff16818110612d3e57612d3d615afe565b5b9050602002016020810190612d53919061548a565b15612d67578180612d6390615dd1565b9250505b612dc58c8c8360ff16818110612d8057612d7f615afe565b5b9050602002016020810190612d959190615dfa565b8b8b8460ff16818110612dab57612daa615afe565b5b9050602002016020810190612dc0919061548a565b61315e565b88888360ff16818110612ddb57612dda615afe565b5b9050602002013514612df057612def615b2d565b5b612e3e86868360ff16818110612e0957612e08615afe565b5b9050602002810190612e1b9190615e36565b868b8b8660ff16818110612e3257612e31615afe565b5b90506020020135614f92565b612e4b57612e4a615b2d565b5b8080612e5690615dd1565b915050612d0e565b50601460ff168160ff1614612e7657612e75615b2d565b5b60016000808e815260200190815260200160002060000160016101000a81548160ff02191690831515021790555060096000808e815260200190815260200160002060110160006101000a81548160ff0219169083600b811115612edd57612edc6158f1565b5b02179055507fc2815c82adc4278d6e044948482e0d16acf9a6369fc96eff02ffc7e7cd5f39d08c33604051612f13929190615b5c565b60405180910390a1505050505050505050505050565b600080600084815260200190815260200160002060000160009054906101000a900460ff168015612f9257506000808481526020019081526020016000206001018260028110612f7c57612f7b615afe565b5b6008020160000160009054906101000a900460ff165b15612fed576000808481526020019081526020016000206001018260028110612fbe57612fbd615afe565b5b6008020160000160029054906101000a900473ffffffffffffffffffffffffffffffffffffffff169050612ff2565b600090505b92915050565b600080600083815260200190815260200160002060000160009054906101000a900460ff161561304c5760008083815260200190815260200160002060110160009054906101000a900460ff169050613051565b600b90505b919050565b600080600083815260200190815260200160002060000160009054906101000a900460ff1680156130c057506000808381526020019081526020016000206001016001600281106130aa576130a9615afe565b5b6008020160000160009054906101000a900460ff165b156130fc576000808381526020019081526020016000206001016001600281106130ed576130ec615afe565b5b60080201600101549050613101565b600090505b919050565b8060008084815260200190815260200160002060150160006101000a81548173ffffffffffffffffffffffffffffffffffffffff021916908373ffffffffffffffffffffffffffffffffffffffff1602179055505050565b60008282604051602001613173929190615e99565b60405160208183030381529060405280519060200120905092915050565b600881565b8060008084815260200190815260200160002060110160006101000a81548160ff0219169083600b8111156131ce576131cd6158f1565b5b02179055505050565b8160008082815260200190815260200160002060000160009054906101000a900460ff1661320857613207615b2d565b5b823373ffffffffffffffffffffffffffffffffffffffff1660008083815260200190815260200160002060010160006002811061324857613247615afe565b5b6008020160000160029054906101000a900473ffffffffffffffffffffffffffffffffffffffff1673ffffffffffffffffffffffffffffffffffffffff16148061330c57503373ffffffffffffffffffffffffffffffffffffffff166000808381526020019081526020016000206001016001600281106132cc576132cb615afe565b5b6008020160000160029054906101000a900473ffffffffffffffffffffffffffffffffffffffff1673ffffffffffffffffffffffffffffffffffffffff16145b61331957613318615b2d565b5b826008806133279190615bb4565b60ff168160ff161061333c5761333b615b2d565b5b84600480600b811115613352576133516158f1565b5b81600b811115613365576133646158f1565b5b1415801561339857506006600b811115613382576133816158f1565b5b81600b811115613395576133946158f1565b5b14155b80156133c957506007600b8111156133b3576133b26158f1565b5b81600b8111156133c6576133c56158f1565b5b14155b80156133fa57506005600b8111156133e4576133e36158f1565b5b81600b8111156133f7576133f66158f1565b5b14155b1561345a5780600b811115613412576134116158f1565b5b60008084815260200190815260200160002060110160009054906101000a900460ff16600b811115613447576134466158f1565b5b1461345557613454615b2d565b5b613682565b600061346583614c2c565b90506004600b81111561347b5761347a6158f1565b5b82600b81111561348e5761348d6158f1565b5b0361356b576000816000600281106134a9576134a8615afe565b5b60200201510361350e5781600b8111156134c6576134c56158f1565b5b60008085815260200190815260200160002060110160009054906101000a900460ff16600b8111156134fb576134fa6158f1565b5b1461350957613508615b2d565b5b613566565b6006600b811115613522576135216158f1565b5b60008085815260200190815260200160002060110160009054906101000a900460ff16600b811115613557576135566158f1565b5b1461356557613564615b2d565b5b5b613680565b6007600b81111561357f5761357e6158f1565b5b82600b811115613592576135916158f1565b5b0361366f576000816000600281106135ad576135ac615afe565b5b6020020151036136125781600b8111156135ca576135c96158f1565b5b60008085815260200190815260200160002060110160009054906101000a900460ff16600b8111156135ff576135fe6158f1565b5b1461360d5761360c615b2d565b5b61366a565b6005600b811115613626576136256158f1565b5b60008085815260200190815260200160002060110160009054906101000a900460ff16600b81111561365b5761365a6158f1565b5b1461366957613668615b2d565b5b5b61367f565b600061367e5761367d615b2d565b5b5b5b505b61368b87614d49565b600061369688614c2c565b90506004600b8111156136ac576136ab6158f1565b5b6000808a815260200190815260200160002060110160009054906101000a900460ff16600b8111156136e1576136e06158f1565b5b146137285760076000808a815260200190815260200160002060110160006101000a81548160ff0219169083600b81111561371f5761371e6158f1565b5b02179055613766565b60056000808a815260200190815260200160002060110160006101000a81548160ff0219169083600b811115613761576137606158f1565b5b021790555b50600080898152602001908152602001600020600101816000600281106137905761378f615afe565b5b6020020151600281106137a6576137a5615afe565b5b6008020160030160020160008154809291906137c190615d63565b919050555060008060008a8152602001908152602001600020600101826000600281106137f1576137f0615afe565b5b60200201516002811061380757613806615afe565b5b600802016003016002015403613826576138218833614ebd565b613860565b7fdba0500edc5d1049fa27c54a56e9f0313f9a962ae79b418ea0cfdfb5565932868888604051613857929190615ec2565b60405180910390a15b5050505050505050565b600081036139cf5760255490505b60245481116139c7576001151560008083815260200190815260200160002060000160009054906101000a900460ff1615151480156138fd57506000600b8111156138c6576138c56158f1565b5b60008083815260200190815260200160002060110160009054906101000a900460ff16600b8111156138fb576138fa6158f1565b5b145b801561398457503373ffffffffffffffffffffffffffffffffffffffff1660008083815260200190815260200160002060010160006002811061394357613942615afe565b5b6008020160000160029054906101000a900473ffffffffffffffffffffffffffffffffffffffff1673ffffffffffffffffffffffffffffffffffffffff1614155b80156139b0575060008082815260200190815260200160002060140160149054906101000a900460ff16155b6139c75780806139bf90615bf1565b915050613878565b806025819055505b60008082815260200190815260200160002060000160009054906101000a900460ff166139ff576139fe615b2d565b5b600060179050338160000160026101000a81548173ffffffffffffffffffffffffffffffffffffffff021916908373ffffffffffffffffffffffffffffffffffffffff16021790555060018160000160006101000a81548160ff02191690831515021790555060008160000160016101000a81548160ff02191690831515021790555080600080848152602001908152602001600020600101600160028110613aab57613aaa615afe565b5b600802016000820160009054906101000a900460ff168160000160006101000a81548160ff0219169083151502179055506000820160019054906101000a900460ff168160000160016101000a81548160ff0219169083151502179055506000820160029054906101000a900473ffffffffffffffffffffffffffffffffffffffff168160000160026101000a81548173ffffffffffffffffffffffffffffffffffffffff021916908373ffffffffffffffffffffffffffffffffffffffff160217905550600182015481600101556002820154816002015560038201816003016000820160009054906101000a900460ff168160000160006101000a81548160ff02191690831515021790555060018201548160010155600282015481600201556003820181600301906040613be3929190615082565b505050905050600360008084815260200190815260200160002060110160006101000a81548160ff0219169083600b811115613c2257613c216158f1565b5b02179055507f972651cf62ccc65bd2ba0fd996eb34701d5773844d3303545d5b4cb29738f10482604051613c5691906154fd565b60405180910390a15050565b8160008082815260200190815260200160002060000160009054906101000a900460ff16613c9357613c92615b2d565b5b823373ffffffffffffffffffffffffffffffffffffffff16600080838152602001908152602001600020600101600060028110613cd357613cd2615afe565b5b6008020160000160029054906101000a900473ffffffffffffffffffffffffffffffffffffffff1673ffffffffffffffffffffffffffffffffffffffff161480613d9757503373ffffffffffffffffffffffffffffffffffffffff16600080838152602001908152602001600020600101600160028110613d5757613d56615afe565b5b6008020160000160029054906101000a900473ffffffffffffffffffffffffffffffffffffffff1673ffffffffffffffffffffffffffffffffffffffff16145b613da457613da3615b2d565b5b8360016004600b811115613dbb57613dba6158f1565b5b81600b811115613dce57613dcd6158f1565b5b14158015613e0157506006600b811115613deb57613dea6158f1565b5b81600b811115613dfe57613dfd6158f1565b5b14155b8015613e3257506007600b811115613e1c57613e1b6158f1565b5b81600b811115613e2f57613e2e6158f1565b5b14155b8015613e6357506005600b811115613e4d57613e4c6158f1565b5b81600b811115613e6057613e5f6158f1565b5b14155b15613ec35780600b811115613e7b57613e7a6158f1565b5b60008084815260200190815260200160002060110160009054906101000a900460ff16600b811115613eb057613eaf6158f1565b5b14613ebe57613ebd615b2d565b5b6140eb565b6000613ece83614c2c565b90506004600b811115613ee457613ee36158f1565b5b82600b811115613ef757613ef66158f1565b5b03613fd457600081600060028110613f1257613f11615afe565b5b602002015103613f775781600b811115613f2f57613f2e6158f1565b5b60008085815260200190815260200160002060110160009054906101000a900460ff16600b811115613f6457613f636158f1565b5b14613f7257613f71615b2d565b5b613fcf565b6006600b811115613f8b57613f8a6158f1565b5b60008085815260200190815260200160002060110160009054906101000a900460ff16600b811115613fc057613fbf6158f1565b5b14613fce57613fcd615b2d565b5b5b6140e9565b6007600b811115613fe857613fe76158f1565b5b82600b811115613ffb57613ffa6158f1565b5b036140d85760008160006002811061401657614015615afe565b5b60200201510361407b5781600b811115614033576140326158f1565b5b60008085815260200190815260200160002060110160009054906101000a900460ff16600b811115614068576140676158f1565b5b1461407657614075615b2d565b5b6140d3565b6005600b81111561408f5761408e6158f1565b5b60008085815260200190815260200160002060110160009054906101000a900460ff16600b8111156140c4576140c36158f1565b5b146140d2576140d1615b2d565b5b5b6140e8565b60006140e7576140e6615b2d565b5b5b5b505b6000806000888152602001908152602001600020604051806101200160405290816000820160009054906101000a900460ff161515151581526020016000820160019054906101000a900460ff1615151515815260200160018201600280602002604051908101604052809291906000905b828210156142d2578382600802016040518060c00160405290816000820160009054906101000a900460ff161515151581526020016000820160019054906101000a900460ff161515151581526020016000820160029054906101000a900473ffffffffffffffffffffffffffffffffffffffff1673ffffffffffffffffffffffffffffffffffffffff1673ffffffffffffffffffffffffffffffffffffffff1681526020016001820154815260200160028201548152602001600382016040518060800160405290816000820160009054906101000a900460ff161515151581526020016001820154815260200160028201548152602001600382016040806020026040519081016040528092919082604080156142b6576020028201916000905b82829054906101000a900460ff161515815260200190600101906020826000010492830192600103820291508084116142805790505b505050505081525050815250508152602001906001019061415d565b5050505081526020016011820160009054906101000a900460ff16600b8111156142ff576142fe6158f1565b5b600b811115614311576143106158f1565b5b815260200160128201548152602001601382015481526020016014820160009054906101000a900473ffffffffffffffffffffffffffffffffffffffff1673ffffffffffffffffffffffffffffffffffffffff1673ffffffffffffffffffffffffffffffffffffffff1681526020016014820160149054906101000a900460ff161515151581526020016015820160009054906101000a900473ffffffffffffffffffffffffffffffffffffffff1673ffffffffffffffffffffffffffffffffffffffff1673ffffffffffffffffffffffffffffffffffffffff16815250509050600080826040015160006002811061440d5761440c615afe565b5b60200201516040015173ffffffffffffffffffffffffffffffffffffffff163373ffffffffffffffffffffffffffffffffffffffff160361445557600191506000905061445e565b60009150600190505b60008360400151836002811061447757614476615afe565b5b6020020151606001519050886000808c815260200190815260200160002060010183600281106144aa576144a9615afe565b5b6008020160010181905550600081141580156144c557508881145b156145a457886000808c81526020019081526020016000206012018190555060026000808c815260200190815260200160002060110160006101000a81548160ff0219169083600b81111561451d5761451c6158f1565b5b02179055507fa63491c3e48c84a30c1a58128201bca4fd87bb84850cda339020ce19051e5a908a856040015160006002811061455c5761455b615afe565b5b602002015160400151866040015160016002811061457d5761457c615afe565b5b6020020151604001518c6040516145979493929190615eeb565b60405180910390a1614601565b7f4adf94e8b5302c48b3df6533aa17748538d68a74af46f0a894839b61fbf3f1bf8a33866040015186600281106145de576145dd615afe565b5b6020020151604001518c6040516145f89493929190615eeb565b60405180910390a15b50505050505050505050565b8060008082815260200190815260200160002060000160009054906101000a900460ff1661463e5761463d615b2d565b5b600080600084815260200190815260200160002060010160006002811061466857614667615afe565b5b6008020160000160029054906101000a900473ffffffffffffffffffffffffffffffffffffffff1673ffffffffffffffffffffffffffffffffffffffff163373ffffffffffffffffffffffffffffffffffffffff16036147c457600090506006600b8111156146da576146d96158f1565b5b60008085815260200190815260200160002060110160009054906101000a900460ff16600b81111561470f5761470e6158f1565b5b148061476157506005600b81111561472a576147296158f1565b5b60008085815260200190815260200160002060110160009054906101000a900460ff16600b81111561475f5761475e6158f1565b5b145b806147b257506002600b81111561477b5761477a6158f1565b5b60008085815260200190815260200160002060110160009054906101000a900460ff16600b8111156147b0576147af6158f1565b5b145b6147bf576147be615b2d565b5b614959565b6000808481526020019081526020016000206001016001600281106147ec576147eb615afe565b5b6008020160000160029054906101000a900473ffffffffffffffffffffffffffffffffffffffff1673ffffffffffffffffffffffffffffffffffffffff163373ffffffffffffffffffffffffffffffffffffffff160361494857600190506004600b81111561485e5761485d6158f1565b5b60008085815260200190815260200160002060110160009054906101000a900460ff16600b811115614893576148926158f1565b5b14806148e557506007600b8111156148ae576148ad6158f1565b5b60008085815260200190815260200160002060110160009054906101000a900460ff16600b8111156148e3576148e26158f1565b5b145b8061493657506002600b8111156148ff576148fe6158f1565b5b60008085815260200190815260200160002060110160009054906101000a900460ff16600b811115614934576149336158f1565b5b145b61494357614942615b2d565b5b614958565b600061495757614956615b2d565b5b5b5b6002600b81111561496d5761496c6158f1565b5b60008085815260200190815260200160002060110160009054906101000a900460ff16600b8111156149a2576149a16158f1565b5b036149f15760008084815260200190815260200160002060010181600281106149ce576149cd615afe565b5b6008020160000160019054906101000a900460ff166149f0576149ef615b2d565b5b5b600073ffffffffffffffffffffffffffffffffffffffff1660008085815260200190815260200160002060140160009054906101000a900473ffffffffffffffffffffffffffffffffffffffff1673ffffffffffffffffffffffffffffffffffffffff1614614a5f57600080fd5b3360008085815260200190815260200160002060140160006101000a81548173ffffffffffffffffffffffffffffffffffffffff021916908373ffffffffffffffffffffffffffffffffffffffff16021790555043600080858152602001908152602001600020601301819055507f0bf978ab2586eab9e083eec06f934bd39c6da770feb9502455f09c4cf17b1bec83600080868152602001908152602001600020600101836001614b119190615f30565b60028110614b2257614b21615afe565b5b6008020160000160029054906101000a900473ffffffffffffffffffffffffffffffffffffffff1660008087815260200190815260200160002060130154604051614b6f93929190615f64565b60405180910390a1505050565b600080600083815260200190815260200160002060000160009054906101000a900460ff168015614be65750600080838152602001908152602001600020600101600060028110614bd057614bcf615afe565b5b6008020160000160009054906101000a900460ff165b15614c2257600080838152602001908152602001600020600101600060028110614c1357614c12615afe565b5b60080201600101549050614c27565b600090505b919050565b614c34615247565b614c3c615247565b600080848152602001908152602001600020600101600060028110614c6457614c63615afe565b5b6008020160000160029054906101000a900473ffffffffffffffffffffffffffffffffffffffff1673ffffffffffffffffffffffffffffffffffffffff163373ffffffffffffffffffffffffffffffffffffffff1603614d0157600081600060028110614cd457614cd3615afe565b5b602002018181525050600181600160028110614cf357614cf2615afe565b5b602002018181525050614d40565b600181600060028110614d1757614d16615afe565b5b602002018181525050600081600160028110614d3657614d35615afe565b5b6020020181815250505b80915050919050565b600073ffffffffffffffffffffffffffffffffffffffff1660008083815260200190815260200160002060140160009054906101000a900473ffffffffffffffffffffffffffffffffffffffff1673ffffffffffffffffffffffffffffffffffffffff1614158015614e1c57503373ffffffffffffffffffffffffffffffffffffffff1660008083815260200190815260200160002060140160009054906101000a900473ffffffffffffffffffffffffffffffffffffffff1673ffffffffffffffffffffffffffffffffffffffff1614155b15614eba57602660009054906101000a900460ff1660ff1643614e3f9190615ca7565b600080838152602001908152602001600020601301541015614e6457614e63615b2d565b5b600080600083815260200190815260200160002060140160006101000a81548173ffffffffffffffffffffffffffffffffffffffff021916908373ffffffffffffffffffffffffffffffffffffffff1602179055505b50565b8060008084815260200190815260200160002060150160006101000a81548173ffffffffffffffffffffffffffffffffffffffff021916908373ffffffffffffffffffffffffffffffffffffffff160217905550600860008084815260200190815260200160002060110160006101000a81548160ff0219169083600b811115614f4a57614f496158f1565b5b0217905550614f8e8260008085815260200190815260200160002060150160009054906101000a900473ffffffffffffffffffffffffffffffffffffffff16614fab565b5050565b600082614fa0868685614fe8565b149050949350505050565b7fc53d54ea71e800bb40731cf938b78bbb3e167ca69808d9e2945e2f018b3c40678282604051614fdc929190615b5c565b60405180910390a15050565b60008082905060005b858590508110156150345761501f8287878481811061501357615012615afe565b5b90506020020135615040565b9150808061502c90615bf1565b915050614ff1565b50809150509392505050565b600081831061505857615053828461506b565b615063565b615062838361506b565b5b905092915050565b600082600052816020526040600020905092915050565b826040601f016020900481019282156150bc5791601f016020900482015b828111156150bb5782548255916001019190600101906150a0565b5b5090506150c99190615269565b5090565b8260026008028101928215615236579160080282015b828111156152355782826000820160009054906101000a900460ff168160000160006101000a81548160ff0219169083151502179055506000820160019054906101000a900460ff168160000160016101000a81548160ff0219169083151502179055506000820160029054906101000a900473ffffffffffffffffffffffffffffffffffffffff168160000160026101000a81548173ffffffffffffffffffffffffffffffffffffffff021916908373ffffffffffffffffffffffffffffffffffffffff160217905550600182015481600101556002820154816002015560038201816003016000820160009054906101000a900460ff168160000160006101000a81548160ff02191690831515021790555060018201548160010155600282015481600201556003820181600301906040615221929190615082565b5050505050916008019190600801906150e3565b5b5090506152439190615286565b5090565b6040518060400160405280600290602082028036833780820191505090505090565b5b8082111561528257600081600090555060010161526a565b5090565b5b8082111561533357600080820160006101000a81549060ff02191690556000820160016101000a81549060ff02191690556000820160026101000a81549073ffffffffffffffffffffffffffffffffffffffff02191690556001820160009055600282016000905560038201600080820160006101000a81549060ff0219169055600182016000905560028201600090556003820160006153289190615337565b505050600801615287565b5090565b506000815560010160009055565b600080fd5b600080fd5b6000819050919050565b6153628161534f565b811461536d57600080fd5b50565b60008135905061537f81615359565b92915050565b60006020828403121561539b5761539a615345565b5b60006153a984828501615370565b91505092915050565b60008115159050919050565b6153c7816153b2565b82525050565b60006020820190506153e260008301846153be565b92915050565b6000819050919050565b6153fb816153e8565b811461540657600080fd5b50565b600081359050615418816153f2565b92915050565b6000806040838503121561543557615434615345565b5b600061544385828601615370565b925050602061545485828601615409565b9150509250929050565b615467816153b2565b811461547257600080fd5b50565b6000813590506154848161545e565b92915050565b6000602082840312156154a05761549f615345565b5b60006154ae84828501615475565b91505092915050565b600060ff82169050919050565b6154cd816154b7565b82525050565b60006020820190506154e860008301846154c4565b92915050565b6154f78161534f565b82525050565b600060208201905061551260008301846154ee565b92915050565b615521816154b7565b811461552c57600080fd5b50565b60008135905061553e81615518565b92915050565b600080fd5b600080fd5b600080fd5b60008083601f84011261556957615568615544565b5b8235905067ffffffffffffffff81111561558657615585615549565b5b6020830191508360208202830111156155a2576155a161554e565b5b9250929050565b60008060008060008060a087890312156155c6576155c5615345565b5b60006155d489828a01615370565b96505060206155e589828a0161552f565b95505060406155f689828a01615475565b945050606061560789828a01615409565b935050608087013567ffffffffffffffff8111156156285761562761534a565b5b61563489828a01615553565b92509250509295509295509295565b60008083601f84011261565957615658615544565b5b8235905067ffffffffffffffff81111561567657615675615549565b5b6020830191508360208202830111156156925761569161554e565b5b9250929050565b60008083601f8401126156af576156ae615544565b5b8235905067ffffffffffffffff8111156156cc576156cb615549565b5b6020830191508360208202830111156156e8576156e761554e565b5b9250929050565b60008083601f84011261570557615704615544565b5b8235905067ffffffffffffffff81111561572257615721615549565b5b60208301915083602082028301111561573e5761573d61554e565b5b9250929050565b60008060008060008060008060008060c08b8d03121561576857615767615345565b5b60006157768d828e01615370565b9a505060208b013567ffffffffffffffff8111156157975761579661534a565b5b6157a38d828e01615643565b995099505060408b013567ffffffffffffffff8111156157c6576157c561534a565b5b6157d28d828e01615699565b975097505060608b013567ffffffffffffffff8111156157f5576157f461534a565b5b6158018d828e01615553565b955095505060808b013567ffffffffffffffff8111156158245761582361534a565b5b6158308d828e016156ef565b935093505060a06158438d828e01615409565b9150509295989b9194979a5092959850565b6000806040838503121561586c5761586b615345565b5b600061587a85828601615370565b925050602061588b85828601615370565b9150509250929050565b600073ffffffffffffffffffffffffffffffffffffffff82169050919050565b60006158c082615895565b9050919050565b6158d0816158b5565b82525050565b60006020820190506158eb60008301846158c7565b92915050565b7f4e487b7100000000000000000000000000000000000000000000000000000000600052602160045260246000fd5b600c8110615931576159306158f1565b5b50565b600081905061594282615920565b919050565b600061595282615934565b9050919050565b61596281615947565b82525050565b600060208201905061597d6000830184615959565b92915050565b61598c816158b5565b811461599757600080fd5b50565b6000813590506159a981615983565b92915050565b600080604083850312156159c6576159c5615345565b5b60006159d485828601615370565b92505060206159e58582860161599a565b9150509250929050565b60008060408385031215615a0657615a05615345565b5b6000615a148582860161552f565b9250506020615a2585828601615475565b9150509250929050565b615a38816153e8565b82525050565b6000602082019050615a536000830184615a2f565b92915050565b600c8110615a6657600080fd5b50565b600081359050615a7881615a59565b92915050565b60008060408385031215615a9557615a94615345565b5b6000615aa385828601615370565b9250506020615ab485828601615a69565b9150509250929050565b60008060408385031215615ad557615ad4615345565b5b6000615ae385828601615370565b9250506020615af48582860161552f565b9150509250929050565b7f4e487b7100000000000000000000000000000000000000000000000000000000600052603260045260246000fd5b7f4e487b7100000000000000000000000000000000000000000000000000000000600052600160045260246000fd5b6000604082019050615b7160008301856154ee565b615b7e60208301846158c7565b9392505050565b7f4e487b7100000000000000000000000000000000000000000000000000000000600052601160045260246000fd5b6000615bbf826154b7565b9150615bca836154b7565b9250828202615bd8816154b7565b9150808214615bea57615be9615b85565b5b5092915050565b6000615bfc8261534f565b91507fffffffffffffffffffffffffffffffffffffffffffffffffffffffffffffffff8203615c2e57615c2d615b85565b5b600182019050919050565b6000606082019050615c4e60008301866154ee565b615c5b60208301856158c7565b615c6860408301846158c7565b949350505050565b6000606082019050615c8560008301866158c7565b615c9260208301856158c7565b615c9f60408301846154ee565b949350505050565b6000615cb28261534f565b9150615cbd8361534f565b9250828201905080821115615cd557615cd4615b85565b5b92915050565b6000615ce68261534f565b9150615cf18361534f565b9250828202615cff8161534f565b91508282048414831517615d1657615d15615b85565b5b5092915050565b600081905092915050565b50565b6000615d38600083615d1d565b9150615d4382615d28565b600082019050919050565b6000615d5982615d2b565b9150819050919050565b6000615d6e8261534f565b915060008203615d8157615d80615b85565b5b600182039050919050565b6000608082019050615da160008301876154ee565b615dae60208301866154c4565b615dbb60408301856153be565b615dc860608301846153be565b95945050505050565b6000615ddc826154b7565b915060ff8203615def57615dee615b85565b5b600182019050919050565b600060208284031215615e1057615e0f615345565b5b6000615e1e8482850161552f565b91505092915050565b600080fd5b600080fd5b600080fd5b60008083356001602003843603038112615e5357615e52615e27565b5b80840192508235915067ffffffffffffffff821115615e7557615e74615e2c565b5b602083019250602082023603831315615e9157615e90615e31565b5b509250929050565b6000604082019050615eae60008301856154c4565b615ebb60208301846153be565b9392505050565b6000604082019050615ed760008301856154ee565b615ee460208301846154c4565b9392505050565b6000608082019050615f0060008301876154ee565b615f0d60208301866158c7565b615f1a60408301856158c7565b615f2760608301846154ee565b95945050505050565b6000615f3b8261534f565b9150615f468361534f565b9250828203905081811115615f5e57615f5d615b85565b5b92915050565b6000606082019050615f7960008301866154ee565b615f8660208301856158c7565b615f9360408301846154ee565b94935050505056fea2646970667358221220c94cd78c4e142f0f814e4d3f3ee02567cf74c4286f738ee1d3fd86f7582fa03b64736f6c63430008130033",
  "immutableReferences": {},
  "source": "// SPDX-License-Identifier: MIT\r\npragma solidity >=0.4.22 <0.9.0;\r\n\r\ncontract Battleships {\r\n    uint8 public constant NUMBER_OF_SHIP_SQUARES = 20;\r\n    uint8 public constant BOARD_SIZE = 8;\r\n    enum GameStates{\r\n        WAITING, \r\n        SETTING_STAKE, \r\n        ACCEPTING_PAYMENT,\r\n        PLACING_SHIPS, \r\n        P0_FIRING,\r\n        P1_CHECKING,\r\n        P1_FIRING,\r\n        P0_CHECKING,\r\n        CHECKING_WINNER,\r\n        PAYABLE,\r\n        DONE,\r\n        NONE\r\n    }\r\n\r\n    // In this struct we save the view a player has of its opponent's board\r\n    struct Board{\r\n        bool valid;\r\n        // N*N matrix of bits to store hits\r\n        // bool[BOARD_SIZE][BOARD_SIZE] shots;\r\n        // # of enemy pieces still left on the board\r\n        // goes down by one each time we receive one 'you hit' event\r\n        uint totalPieces;\r\n        // 8*8, we use this to avoid cheating\r\n        uint totalShots;\r\n        bool[BOARD_SIZE*BOARD_SIZE] board; \r\n    }\r\n\r\n    struct Player{\r\n        bool valid;\r\n        bool hasPaidStake;\r\n        address playerAddress;\r\n        uint proposedStake;\r\n        bytes32 boardTreeRoot;\r\n        Board shots_board;\r\n    }\r\n\r\n    struct Game{\r\n        bool valid;\r\n        bool canPay;\r\n        // host is always player[0]\r\n        Player[2] players;\r\n        GameStates state;\r\n        uint decidedStake;\r\n        // used for foul accusation, a foul is triggered after 5 blocks\r\n        uint blockNumber;\r\n        // player 0 or player 1\r\n        // might turn it into address, we will see\r\n        address accuser;\r\n        // whether or not this game should be in the public pool of joinable games\r\n        bool privateGame;\r\n        address winner;\r\n    }\r\n\r\n    mapping(uint => Game) private openGames;\r\n\r\n    Game private gameTrampoline;\r\n    Player private playerTrampoline;\r\n    Board private trampolineBoard;\r\n    // used in generating UUIDs for the games\r\n    // for now we are gonna use this as-is\r\n    // start at 1 as 0 is used for a non-existing game\r\n    // TODO: deal with it overflowing\r\n    uint private gameCounter;\r\n    uint private lastOpenGame;\r\n    uint8 private foulBlockLen;\r\n    address private owner;\r\n\r\n    constructor() {\r\n        gameCounter = 1;\r\n        lastOpenGame = 1;\r\n        owner = msg.sender;\r\n        // this could be passed as parameter\r\n        foulBlockLen = 5;\r\n    }\r\n\r\n    event ShareID(address _from, address _to, uint _gameID);\r\n    event GameStart(uint _gameID, address _host, address _challenger);\r\n    event SuggestedStake(uint _gameID, address _from, address _to, uint _stakeValue);\r\n    event GamePayable(uint _gameID, address _host, address _challenger, uint _stakeValue);\r\n    event StakePaid(uint _gameID, address _whoPaid);\r\n    event AcceptingBoards(uint _gameID);\r\n    event BoardAcknowledgeEvent(uint _gameID, address _player);\r\n    event PlayerZeroTurn(uint _gameID);\r\n    event ShotsFired(uint _gameID, uint8 _location);\r\n    event ShotsChecked(uint _gameID, uint8 _location, bool _claim, bool _validity);\r\n    event RequestBoard(uint _gameID, address _winner);\r\n    event Victory(uint _gameID, address _winner);\r\n    event Foul(uint _gameID, address _accused, uint _block);\r\n\r\n    error InvalidGameID();\r\n    error NotInGame();\r\n    error StakeAlreadyDeposited();\r\n    error WrongStakeAmount(uint expectedStakeValue);\r\n\r\n    modifier gameExists(uint gameID){\r\n        assert(openGames[gameID].valid);\r\n        _;\r\n    }\r\n\r\n    modifier isInGame(uint gameID){\r\n        assert((openGames[gameID].players[0].playerAddress == msg.sender) || (openGames[gameID].players[1].playerAddress == msg.sender));\r\n        _;\r\n    }\r\n\r\n    modifier assertState(uint gameID, GameStates _state){\r\n        if(_state != GameStates.P0_FIRING && _state != GameStates.P1_FIRING && _state != GameStates.P0_CHECKING && _state != GameStates.P1_CHECKING)\r\n            assert(openGames[gameID].state == _state);\r\n        else{\r\n            // We check firing states with P0_FIRING and checking states with P0_CHECKING, for both players\r\n            uint[2] memory indexes = getIndexSender(gameID);\r\n            if(_state == GameStates.P0_FIRING){\r\n                if(indexes[0] == 0)\r\n                    assert(openGames[gameID].state == _state);\r\n                else\r\n                    assert(openGames[gameID].state == GameStates.P1_FIRING);\r\n            }\r\n            else if(_state == GameStates.P0_CHECKING){\r\n                if(indexes[0] == 0)\r\n                    assert(openGames[gameID].state == _state);\r\n                else\r\n                    assert(openGames[gameID].state == GameStates.P1_CHECKING);\r\n            }\r\n            else assert(false);\r\n        }\r\n        _;\r\n    }\r\n\r\n    modifier playerInRange(uint gameID, uint index){\r\n        assert(openGames[gameID].players[index].valid);\r\n        assert(index < openGames[gameID].players.length);\r\n        _;\r\n    }\r\n\r\n    modifier shotOnBoard(uint8 location){\r\n        assert(location < (BOARD_SIZE*BOARD_SIZE));\r\n        _;\r\n    }\r\n\r\n    modifier isWinner(uint gameID){\r\n        assert(openGames[gameID].winner == msg.sender);\r\n        _;\r\n    }\r\n\r\n    function getIndexSender (uint gameID) view private returns(uint[2] memory) {\r\n        // indexes[0]: msg.sender index\r\n        // indexes[1]: msg.sender opponent's index\r\n        uint[2] memory indexes;\r\n        if(msg.sender == openGames[gameID].players[0].playerAddress){\r\n            indexes[0] = 0;\r\n            indexes[1] = 1;\r\n        } else {\r\n            indexes[0] = 1;\r\n            indexes[1] = 0;\r\n        }\r\n        return indexes;\r\n    }\r\n\r\n    // Code from OpenZeppelin's project\r\n    // https://github.com/OpenZeppelin\r\n    function verifyCalldata(\r\n    bytes32[] calldata proof,\r\n    bytes32 root,\r\n    bytes32 leaf\r\n    ) internal pure returns (bool) {\r\n        return processProofCalldata(proof, leaf) == root;\r\n    }\r\n\r\n    function processProofCalldata(\r\n        bytes32[] calldata proof,\r\n        bytes32 leaf\r\n    ) internal pure returns (bytes32) {\r\n        bytes32 computedHash = leaf;\r\n        for (uint256 i = 0; i < proof.length; i++) {\r\n            computedHash = _hashPair(computedHash, proof[i]);\r\n        }\r\n        return computedHash;\r\n    }\r\n\r\n    function _hashPair(bytes32 a, bytes32 b)\r\n        private\r\n        pure\r\n        returns(bytes32)\r\n    {\r\n        return a < b ? _efficientHash(a, b) : _efficientHash(b, a);\r\n    }\r\n\r\n    function _efficientHash(bytes32 a, bytes32 b)\r\n        private\r\n        pure\r\n        returns (bytes32 value)\r\n    {\r\n        assembly {\r\n            mstore(0x00, a)\r\n            mstore(0x20, b)\r\n            value := keccak256(0x00, 0x40)\r\n        }\r\n    }\r\n    // end of OpenZeppelin code\r\n\r\n    // create a Game value, add it to openGames, populate the Player[0]\r\n    function newGame(bool isPrivate) public {\r\n        uint gameID = gameCounter;\r\n        gameCounter++;\r\n        Game storage game = gameTrampoline;\r\n        Player storage host = playerTrampoline;\r\n        host.playerAddress = msg.sender;\r\n        host.valid = true;\r\n        host.hasPaidStake = false;\r\n        game.players[0] = host;\r\n        game.state = GameStates.WAITING;\r\n        game.privateGame = isPrivate;\r\n        game.valid = true;\r\n        game.canPay = false;\r\n        openGames[gameID] = game;\r\n        emit ShareID(address(this), msg.sender, gameID);\r\n        return;\r\n    }\r\n    \r\n    function joinGame(uint gameID) public {\r\n        if(gameID == 0){\r\n            // pick an unassigned game in sequential order\r\n            gameID = lastOpenGame;\r\n            while(gameID <= gameCounter){\r\n                // ignore games with sender as host (you can still join your own games directly if you're that lonely)\r\n                if(openGames[gameID].valid == true && \r\n                    openGames[gameID].state == GameStates.WAITING && \r\n                    openGames[gameID].players[0].playerAddress != msg.sender && \r\n                    !openGames[gameID].privateGame){\r\n                    break;\r\n                }\r\n                gameID++;\r\n            }\r\n            // update the lastOpenGame counter no matter what\r\n            lastOpenGame = gameID;\r\n        }\r\n        // if the game wasn't valid, throw an error\r\n        assert(openGames[gameID].valid);\r\n        // set msg sender as this game's player 2\r\n        Player storage challenger = playerTrampoline;\r\n        challenger.playerAddress = msg.sender;\r\n        challenger.valid = true;\r\n        challenger.hasPaidStake = false;\r\n        openGames[gameID].players[1] = challenger;\r\n        // update this game's status\r\n        openGames[gameID].state = GameStates.PLACING_SHIPS;\r\n        // alert the players\r\n        emit AcceptingBoards(gameID);\r\n        return;\r\n    }\r\n\r\n    function checkGameState(uint gameID) public view returns (GameStates) {\r\n        if (openGames[gameID].valid){\r\n            return openGames[gameID].state;\r\n        }\r\n        else \r\n            return(GameStates.NONE);\r\n    }\r\n\r\n    function checkGamePlayer(uint gameID, uint index) public view returns (address) {\r\n        if (openGames[gameID].valid && openGames[gameID].players[index].valid){\r\n            return openGames[gameID].players[index].playerAddress;\r\n        }\r\n        else \r\n            return(address(0));\r\n    }\r\n\r\n    // Function to propose and agree upon a stake between players\r\n    function proposeStake(uint gameID, uint stakeValue) gameExists(gameID) isInGame(gameID) assertState(gameID, GameStates.SETTING_STAKE) public{\r\n        Game memory game = openGames[gameID];\r\n        // Check whether or not this player's opponent has already proposed a stake\r\n        uint opponentIndex;\r\n        uint stakerIndex;\r\n        if(msg.sender == game.players[0].playerAddress){\r\n            opponentIndex = 1;\r\n            stakerIndex = 0;\r\n        } else {\r\n            opponentIndex = 0;\r\n            stakerIndex = 1;\r\n        }\r\n        uint opponentStake = game.players[opponentIndex].proposedStake;\r\n        // set this player's proposed stake to their message\r\n        openGames[gameID].players[stakerIndex].proposedStake = stakeValue;\r\n        // if the opponent has proposed a stake we check whether or not it equals the one proposed by us\r\n        // 0 is not a valid stake\r\n        if(opponentStake != 0 && opponentStake == stakeValue){\r\n            openGames[gameID].decidedStake = stakeValue;\r\n            openGames[gameID].state = GameStates.ACCEPTING_PAYMENT;\r\n            emit GamePayable(gameID, game.players[0].playerAddress, game.players[1].playerAddress, stakeValue);\r\n        }else{\r\n            emit SuggestedStake(gameID, msg.sender, game.players[opponentIndex].playerAddress, stakeValue);\r\n        }\r\n        return;\r\n    }\r\n\r\n    function checkStakePlayerOne(uint gameID) public view returns (uint) {\r\n        if (openGames[gameID].valid && openGames[gameID].players[0].valid){\r\n            return openGames[gameID].players[0].proposedStake;\r\n        }\r\n        else \r\n            return(0);\r\n    }\r\n\r\n    function checkStakePlayerTwo(uint gameID) public view returns (uint) {\r\n        if (openGames[gameID].valid && openGames[gameID].players[1].valid){\r\n            return openGames[gameID].players[1].proposedStake;\r\n        }\r\n        else \r\n            return(0);\r\n    }\r\n\r\n    function checkStakeGame(uint gameID) public view returns (uint) {\r\n        if (openGames[gameID].valid && openGames[gameID].players[0].valid && openGames[gameID].players[1].valid)\r\n            return openGames[gameID].decidedStake;\r\n        else\r\n            return(0);\r\n    }\r\n    \r\n    function payStake(uint gameID) gameExists(gameID) isInGame(gameID) assertState(gameID, GameStates.ACCEPTING_PAYMENT) external payable {\r\n        if((msg.sender == openGames[gameID].players[0].playerAddress && openGames[gameID].players[0].hasPaidStake) ||\r\n            (msg.sender == openGames[gameID].players[1].playerAddress && openGames[gameID].players[1].hasPaidStake))\r\n            revert StakeAlreadyDeposited();\r\n        // only accept payments for the exact amount owed\r\n        if(msg.value != openGames[gameID].decidedStake)\r\n            revert WrongStakeAmount(openGames[gameID].decidedStake);\r\n        // now we check who the sender is\r\n        uint senderIndex;\r\n        uint challengerIndex;\r\n        if(msg.sender == openGames[gameID].players[0].playerAddress){\r\n            senderIndex = 0;\r\n            challengerIndex = 1;\r\n        }else{\r\n            senderIndex = 1;\r\n            challengerIndex = 0;\r\n        }\r\n        openGames[gameID].players[senderIndex].hasPaidStake = true;\r\n        // Clear possible foul\r\n        ClearFoul(gameID);\r\n        emit StakePaid(gameID, msg.sender);\r\n        // if both players have paid the owed stake the game can move on to its next state\r\n        if(openGames[gameID].players[challengerIndex].hasPaidStake){\r\n            openGames[gameID].state = GameStates.P0_FIRING;\r\n            emit PlayerZeroTurn(gameID);\r\n        }\r\n    }\r\n    \r\n    function checkGamePayable(uint gameID) public view returns (bool) {\r\n        if (openGames[gameID].valid && openGames[gameID].players[0].valid && openGames[gameID].players[1].valid)\r\n            return openGames[gameID].canPay;\r\n        else\r\n            return(false);\r\n    }\r\n    \r\n    function PlaceShips(uint gameID, bytes32 boardRoot) gameExists(gameID) isInGame(gameID) assertState(gameID, GameStates.PLACING_SHIPS) public{\r\n        uint index;\r\n        uint oppIdx;\r\n        msg.sender == openGames[gameID].players[0].playerAddress ? index = 0 : index = 1;\r\n        msg.sender == openGames[gameID].players[0].playerAddress ? oppIdx = 1 : oppIdx = 0;\r\n        require(openGames[gameID].players[index].boardTreeRoot == 0x0);\r\n        // Instantiate a new shots board\r\n        // Instantiate the Board struct itself and assign it to a player\r\n        Board storage playerBoard = trampolineBoard;\r\n        trampolineBoard.valid = true;\r\n        trampolineBoard.totalPieces = NUMBER_OF_SHIP_SQUARES;\r\n        trampolineBoard.totalShots = (BOARD_SIZE*BOARD_SIZE);\r\n        for(uint i = 0; i < (BOARD_SIZE*BOARD_SIZE); i++){\r\n            trampolineBoard.board[i] = false;\r\n        }\r\n        openGames[gameID].players[index].shots_board = playerBoard;\r\n        // save the received boardRoot, finally\r\n        openGames[gameID].players[index].boardTreeRoot = boardRoot;\r\n        emit BoardAcknowledgeEvent(gameID, msg.sender);\r\n        if(openGames[gameID].players[oppIdx].boardTreeRoot != 0x0){\r\n            openGames[gameID].state = GameStates.SETTING_STAKE;\r\n            emit GameStart(gameID, openGames[gameID].players[0].playerAddress, msg.sender);\r\n        }\r\n    }\r\n\r\n    function TestWinner(uint gameID, address claimant) private {\r\n        openGames[gameID].winner = claimant;\r\n        openGames[gameID].state = GameStates.CHECKING_WINNER;\r\n        RequestWinnerBoard(gameID, openGames[gameID].winner);\r\n    }\r\n\r\n    // for info on what location is see \"Implementation of the user-side game board\" in README.md\r\n    function FireTorpedo(uint gameID, uint8 location) gameExists(gameID) isInGame(gameID) shotOnBoard(location) assertState(gameID, GameStates.P0_FIRING) public {\r\n        // if we got past the modifiers, this means the shot is valid\r\n        // let's clear any potential fouls for this user\r\n        ClearFoul(gameID);\r\n        uint[2] memory indexes = getIndexSender(gameID);\r\n        // Rotate into correct next state\r\n        openGames[gameID].state == GameStates.P0_FIRING ? openGames[gameID].state = GameStates.P1_CHECKING : openGames[gameID].state = GameStates.P0_CHECKING;\r\n        // Now for some game logic\r\n        // whatever happens, we lower the totalShots counter of our system by one\r\n        openGames[gameID].players[indexes[0]].shots_board.totalShots--;\r\n        // Then we evaluate whether or not this is zero. If it is, This party wins automatically.\r\n        // We do this here to avoid opponents stalling out on the reply for 5 blocks on what is a foregone conclusion\r\n        if (openGames[gameID].players[indexes[0]].shots_board.totalShots == 0){\r\n            TestWinner(gameID, msg.sender);\r\n        } else {\r\n            emit ShotsFired(gameID, location);\r\n        }\r\n    }\r\n    /*\r\n     gameExists(gameID) isInGame(gameID) shotOnBoard(location) assertState(gameID, GameStates.P0_CHECKING)\r\n    */\r\n    function ConfirmShot(uint gameID, uint8 location, bool isHit, bytes32 leaf, bytes32[] calldata proof) public {\r\n        // we assert manually rather than with modifiers to avoid a stack-too-deep error\r\n        assert(openGames[gameID].valid);\r\n        assert(location < (BOARD_SIZE*BOARD_SIZE));\r\n        if(openGames[gameID].players[0].playerAddress == msg.sender){\r\n            assert(openGames[gameID].state == GameStates.P0_CHECKING);\r\n        } else if (openGames[gameID].players[1].playerAddress == msg.sender){\r\n            assert(openGames[gameID].state == GameStates.P1_CHECKING);\r\n        } else {\r\n            assert(false);\r\n        }\r\n        uint[2] memory indexes = getIndexSender(gameID);\r\n        // make sure this node corresponds to the board tile and truth value we are checking\r\n        assert(leaf == GenLeafNode(location, isHit));\r\n        // execute the proof test\r\n        if(verifyCalldata(proof, openGames[gameID].players[indexes[0]].boardTreeRoot, leaf)){\r\n            // if we got this far it means the reply is valid\r\n            // let's clear any potential fouls for this user\r\n            ClearFoul(gameID);\r\n            // we could verify this user's proof\r\n            if (isHit){\r\n                // decrement our opponent's view of our total pieces\r\n                // only if the shot landed on a previously undeclared tile\r\n                // alas this is needed as the user might just keep asking for the same time over and over\r\n                // I don't know why they would do this, but they can\r\n                if(!openGames[gameID].players[indexes[1]].shots_board.board[location]){\r\n                    openGames[gameID].players[indexes[1]].shots_board.totalPieces--;\r\n                    openGames[gameID].players[indexes[1]].shots_board.board[location] = true;\r\n                    // if this was our last piece, we lost\r\n                    if(openGames[gameID].players[indexes[1]].shots_board.totalPieces == 0){\r\n                        openGames[gameID].winner = openGames[gameID].players[indexes[1]].playerAddress;\r\n                        openGames[gameID].state = GameStates.CHECKING_WINNER;\r\n                        RequestWinnerBoard(gameID, openGames[gameID].winner);\r\n                        return;\r\n                    }\r\n                }   \r\n            }\r\n            // rotate state\r\n            openGames[gameID].state == GameStates.P1_CHECKING ? openGames[gameID].state = GameStates.P1_FIRING : openGames[gameID].state = GameStates.P0_FIRING;\r\n            emit ShotsChecked(gameID, location, isHit, true);\r\n        } else {\r\n            // else we emit a 'shot failed to validate' message\r\n            // keep in mind the foul for this user is NOT triggered automatically.\r\n            emit ShotsChecked(gameID, location, isHit, false);\r\n        }\r\n    }\r\n\r\n    // this function generates a node locally in the same way a client would generate it\r\n    // it could be internal, we keep it public for now for debug purposes\r\n    function GenLeafNode(uint8 tile, bool ship) pure public returns (bytes32) {\r\n        return keccak256(abi.encode(tile,ship));\r\n    }\r\n\r\n    // a player who sees their address here will need to call VerifyWinner\r\n    function RequestWinnerBoard(uint gameID, address winnerAddress) private {\r\n        emit RequestBoard(gameID, winnerAddress);\r\n        // TODO: start foul counter\r\n    }\r\n\r\n    // sadly using our modifiers here runs into a stack too deep compilation issue\r\n    // ergo we must assert a few security values by hand\r\n    // yes, the 'tiles' array is completely useless but we will leave it there for now\r\n    // it could be useful for future expansions into 5d battleships\r\n    function VerifyWinner(\r\n    uint gameID,  \r\n    uint8[] calldata tiles,\r\n    bool[] calldata ships,\r\n    bytes32[] calldata nodes,\r\n    bytes32[][] calldata proofs,\r\n    bytes32 root\r\n    ) public {\r\n        uint winnerIndex;\r\n        assert(openGames[gameID].valid);\r\n        assert(openGames[gameID].state == GameStates.CHECKING_WINNER);\r\n        if(openGames[gameID].winner == openGames[gameID].players[0].playerAddress){\r\n            winnerIndex = 0;\r\n        } else {\r\n            winnerIndex = 1;\r\n        }\r\n        assert(openGames[gameID].winner == msg.sender);\r\n        assert(root == openGames[gameID].players[winnerIndex].boardTreeRoot);\r\n        assert(tiles.length == (BOARD_SIZE*BOARD_SIZE));\r\n        assert(ships.length == (BOARD_SIZE*BOARD_SIZE));\r\n        // First operation: make sure this board really has the required number of ships on it\r\n        // and make sure the winner didn't send us a different board\r\n        // in the same cycle, verify that the node is part of the tree\r\n        // we already made sure this root is the correct one\r\n        uint8 shipsTotal = 0;\r\n        for(uint8 i = 0; i < (BOARD_SIZE*BOARD_SIZE); i++){\r\n            if(ships[i])\r\n                shipsTotal++;\r\n            assert(nodes[i] == GenLeafNode(tiles[i], ships[i]));\r\n            assert(verifyCalldata(proofs[i], root, nodes[i]));\r\n        }\r\n        assert(shipsTotal == NUMBER_OF_SHIP_SQUARES);\r\n        // we don't use a conditional branch to alert the other player, as a Foul has already been triggered.\r\n        openGames[gameID].canPay = true;\r\n        openGames[gameID].state = GameStates.PAYABLE;\r\n        emit Victory(gameID, msg.sender);\r\n    }\r\n\r\n    function WithdrawWinnings(uint gameID) gameExists(gameID) isWinner(gameID) assertState(gameID, GameStates.PAYABLE) external {\r\n        uint amountOwed = openGames[gameID].decidedStake*2;\r\n        openGames[gameID].state = GameStates.DONE;\r\n        (bool success, ) = msg.sender.call{value:amountOwed}(\"\");\r\n        require(success);\r\n    }\r\n\r\n    // TODO: Unit test everything below this\r\n\r\n    // a player can accuse another player of being afk if they don't act within X blocks\r\n    // for this to happen, the state has to be one they don't control\r\n    function FoulAccusation(uint gameID) gameExists(gameID) public {\r\n        uint senderIndex;\r\n        if(msg.sender == openGames[gameID].players[0].playerAddress){\r\n            senderIndex = 0;\r\n            assert(openGames[gameID].state == GameStates.P1_FIRING || openGames[gameID].state == GameStates.P1_CHECKING || openGames[gameID].state == GameStates.ACCEPTING_PAYMENT);\r\n        } else if (msg.sender == openGames[gameID].players[1].playerAddress){\r\n            senderIndex = 1;\r\n            assert(openGames[gameID].state == GameStates.P0_FIRING || openGames[gameID].state == GameStates.P0_CHECKING || openGames[gameID].state == GameStates.ACCEPTING_PAYMENT);\r\n        } else {\r\n            assert(false);\r\n        }\r\n        if(openGames[gameID].state == GameStates.ACCEPTING_PAYMENT)\r\n            assert(openGames[gameID].players[senderIndex].hasPaidStake);\r\n        require(openGames[gameID].accuser == address(0));\r\n        // very important: this is the only place where accuser can be set to anything other than 0\r\n        openGames[gameID].accuser = msg.sender;\r\n        openGames[gameID].blockNumber = block.number;\r\n        emit Foul(gameID, openGames[gameID].players[1 - senderIndex].playerAddress, openGames[gameID].blockNumber);\r\n    }\r\n\r\n    function CheckFoulTimer(uint gameID) gameExists(gameID) isInGame(gameID) public {\r\n        require(openGames[gameID].accuser != address(0));\r\n        if(openGames[gameID].blockNumber < (block.number + foulBlockLen)){\r\n            // the other player abandoned this game\r\n            TestWinner(gameID, openGames[gameID].accuser);\r\n        }\r\n    }\r\n\r\n    // a foul can only be cleared by properly advancing the state\r\n    // thus this function has to be called from within our check/fire functions\r\n    function ClearFoul(uint gameID) private {\r\n        if(openGames[gameID].accuser != address(0) && openGames[gameID].accuser != msg.sender){\r\n            // if we are out of time to context the foul this function will fail\r\n            assert(openGames[gameID].blockNumber >= (block.number + foulBlockLen));\r\n            // else it will clear the foul\r\n            openGames[gameID].accuser = address(0);\r\n        }\r\n    }\r\n\r\n    // Assortment of debug functions\r\n    // These functions HAVE to be removed before final deployment\r\n    // the only reason they don't have an owner only modifier or inner assertion to the same effect is that we are ENTIRELY out of room\r\n    // this is as fat as the compiled contract can ever be\r\n\r\n    function ChangeState(uint gameID, GameStates state) public {\r\n        openGames[gameID].state = state;\r\n    }\r\n\r\n    function SetWinner(uint gameID, address winner) public {\r\n        openGames[gameID].winner = winner;\r\n    }\r\n    \r\n/*\r\n    // this function is not currently used in any test file\r\n    function checkPaymentPlayer(uint gameID, uint index) public view returns (bool) {\r\n        if (openGames[gameID].valid && openGames[gameID].players[index].valid){\r\n            return openGames[gameID].players[index].hasPaidStake;\r\n        }\r\n        else \r\n            return(false);\r\n    }\r\n\r\n    function getPlayerBoardRoot(uint gameID, uint index) playerInRange(gameID, index) gameExists(gameID) public view returns(bytes32){\r\n        return openGames[gameID].players[index].boardTreeRoot;\r\n    }\r\n\r\n    function getPlayerShotsBoard(uint gameID, uint index) playerInRange(gameID, index) gameExists(gameID) public view returns(bool){\r\n        return openGames[gameID].players[index].shots_board.valid;\r\n    }\r\n\r\n    function ChangeState(uint gameID, GameStates state) ownerOnly() public {\r\n        openGames[gameID].state = state;\r\n    }\r\n\r\n    function SetWinner(uint gameID, address winner) ownerOnly() public {\r\n        openGames[gameID].winner = winner;\r\n    }\r\n    */\r\n}",
  "sourcePath": "F:\\Documents\\Code\\School\\P2PBC\\Battleships\\contracts\\Battleships.sol",
  "compiler": {
    "name": "solc",
    "version": "0.8.19+commit.7dd6d404.Emscripten.clang"
  },
  "schemaVersion": "3.4.13",
  "updatedAt": "2023-05-25T17:19:25.284Z",
  "devdoc": {
    "kind": "dev",
    "methods": {},
    "version": 1
  },
  "userdoc": {
    "kind": "user",
    "methods": {},
    "version": 1
  }
}