{
  "contractName": "Battleships",
  "abi": [
    {
      "inputs": [],
      "stateMutability": "nonpayable",
      "type": "constructor"
    },
    {
      "anonymous": false,
      "inputs": [
        {
          "indexed": false,
          "internalType": "uint256",
          "name": "_id",
          "type": "uint256"
        },
        {
          "indexed": false,
          "internalType": "address",
          "name": "_host",
          "type": "address"
        },
        {
          "indexed": false,
          "internalType": "address",
          "name": "_challenger",
          "type": "address"
        }
      ],
      "name": "GameStart",
      "type": "event"
    },
    {
      "anonymous": false,
      "inputs": [
        {
          "indexed": false,
          "internalType": "address",
          "name": "_from",
          "type": "address"
        },
        {
          "indexed": false,
          "internalType": "address",
          "name": "_to",
          "type": "address"
        },
        {
          "indexed": false,
          "internalType": "uint256",
          "name": "_id",
          "type": "uint256"
        }
      ],
      "name": "ShareID",
      "type": "event"
    },
    {
      "inputs": [
        {
          "internalType": "bool",
          "name": "isPrivate",
          "type": "bool"
        }
      ],
      "name": "newGame",
      "outputs": [],
      "stateMutability": "nonpayable",
      "type": "function"
    },
    {
      "inputs": [
        {
          "internalType": "uint256",
          "name": "gameID",
          "type": "uint256"
        }
      ],
      "name": "checkGameState",
      "outputs": [
        {
          "internalType": "uint256",
          "name": "",
          "type": "uint256"
        }
      ],
      "stateMutability": "view",
      "type": "function",
      "constant": true
    },
    {
      "inputs": [
        {
          "internalType": "uint256",
          "name": "gameID",
          "type": "uint256"
        }
      ],
      "name": "checkGamePlayerOne",
      "outputs": [
        {
          "internalType": "address",
          "name": "",
          "type": "address"
        }
      ],
      "stateMutability": "view",
      "type": "function",
      "constant": true
    },
    {
      "inputs": [
        {
          "internalType": "uint256",
          "name": "gameID",
          "type": "uint256"
        }
      ],
      "name": "checkGamePlayerTwo",
      "outputs": [
        {
          "internalType": "address",
          "name": "",
          "type": "address"
        }
      ],
      "stateMutability": "view",
      "type": "function",
      "constant": true
    },
    {
      "inputs": [
        {
          "internalType": "uint256",
          "name": "gameID",
          "type": "uint256"
        }
      ],
      "name": "joinGame",
      "outputs": [],
      "stateMutability": "nonpayable",
      "type": "function"
    }
  ],
  "bytecode": "0x608060405234801561001057600080fd5b506001602c819055506001602d81905550611364806100306000396000f3fe608060405234801561001057600080fd5b50600436106100575760003560e01c80631de954251461005c5780632b170aac1461008c5780639a7e4cea146100a8578063d46d0777146100d8578063efaa55a014610108575b600080fd5b610076600480360381019061007191906110d3565b610124565b6040516100839190611141565b60405180910390f35b6100a660048036038101906100a19190611194565b610170565b005b6100c260048036038101906100bd91906110d3565b610466565b6040516100cf91906111d0565b60405180910390f35b6100f260048036038101906100ed91906110d3565b610496565b6040516100ff9190611141565b60405180910390f35b610122600480360381019061011d91906110d3565b6104e2565b005b60008061013083610a40565b9050806000015115610165578060200151600060028110610154576101536111eb565b5b60200201516020015191505061016b565b60009150505b919050565b6000602c549050602c600081548092919061018a90611249565b91905055506000600190506000601f9050338160000160016101000a81548173ffffffffffffffffffffffffffffffffffffffff021916908373ffffffffffffffffffffffffffffffffffffffff16021790555060018160000160006101000a81548160ff0219169083151502179055508082600101600060028110610213576102126111eb565b5b600d02016000820160009054906101000a900460ff168160000160006101000a81548160ff0219169083151502179055506000820160019054906101000a900473ffffffffffffffffffffffffffffffffffffffff168160000160016101000a81548173ffffffffffffffffffffffffffffffffffffffff021916908373ffffffffffffffffffffffffffffffffffffffff160217905550600182015481600101556002820154816002015560038201816003016000820160009054906101000a900460ff168160000160006101000a81548160ff021916908315150217905550600182018160010190600861030a929190610c97565b50600982015481600901555050905050600082601b01819055508382601d0160016101000a81548160ff02191690831515021790555060018260000160006101000a81548160ff021916908315150217905550816000808581526020019081526020016000206000820160009054906101000a900460ff168160000160006101000a81548160ff02191690831515021790555060018201816001019060026103b3929190610ce1565b50601b82015481601b0155601c82015481601c0155601d820160009054906101000a900460ff1681601d0160006101000a81548160ff021916908315150217905550601d820160019054906101000a900460ff1681601d0160016101000a81548160ff0219169083151502179055509050507f1edfba130181c8da1b98834639c59b5287912fcc01104c5a7a6e6c8cd194e30230338560405161045893929190611291565b60405180910390a150505050565b60008061047283610a40565b905080600001511561048b578060400151915050610491565b60089150505b919050565b6000806104a283610a40565b90508060000151156104d75780602001516001600281106104c6576104c56111eb565b5b6020020151602001519150506104dd565b60009150505b919050565b600081036107d157602d5490505b602c5481116107c95760008060008381526020019081526020016000206040518060c00160405290816000820160009054906101000a900460ff1615151515815260200160018201600280602002604051908101604052809291906000905b828210156106d4578382600d02016040518060a00160405290816000820160009054906101000a900460ff161515151581526020016000820160019054906101000a900473ffffffffffffffffffffffffffffffffffffffff1673ffffffffffffffffffffffffffffffffffffffff1673ffffffffffffffffffffffffffffffffffffffff1681526020016001820154815260200160028201548152602001600382016040518060600160405290816000820160009054906101000a900460ff1615151515815260200160018201600880602002604051908101604052809291906000905b828210156106af5783820160088060200260405190810160405280929190826008801561069b576020028201916000905b82829054906101000a900460ff161515815260200190600101906020826000010492830192600103820291508084116106655790505b505050505081526020019060010190610634565b505050508152602001600982015481525050815250508152602001906001019061054f565b505050508152602001601b8201548152602001601c8201548152602001601d820160009054906101000a900460ff16151515158152602001601d820160019054906101000a900460ff16151515158152505090506001151581600001511515148015610744575060008160400151145b801561079c57503373ffffffffffffffffffffffffffffffffffffffff16816020015160006002811061077a576107796111eb565b5b60200201516020015173ffffffffffffffffffffffffffffffffffffffff1614155b80156107aa57508060a00151155b156107b557506107c9565b81806107c090611249565b925050506104f0565b80602d819055505b60008082815260200190815260200160002060000160009054906101000a900460ff16610801576108006112c8565b5b6000601f9050338160000160016101000a81548173ffffffffffffffffffffffffffffffffffffffff021916908373ffffffffffffffffffffffffffffffffffffffff16021790555060018160000160006101000a81548160ff021916908315150217905550806000808481526020019081526020016000206001016001600281106108905761088f6111eb565b5b600d02016000820160009054906101000a900460ff168160000160006101000a81548160ff0219169083151502179055506000820160019054906101000a900473ffffffffffffffffffffffffffffffffffffffff168160000160016101000a81548173ffffffffffffffffffffffffffffffffffffffff021916908373ffffffffffffffffffffffffffffffffffffffff160217905550600182015481600101556002820154816002015560038201816003016000820160009054906101000a900460ff168160000160006101000a81548160ff0219169083151502179055506001820181600101906008610987929190610c97565b506009820154816009015550509050506001600080848152602001908152602001600020601b01819055507fdf72bd9cb04731c1dfa0832a380e56504fda45508a7305083a9be0f343e93421826000808581526020019081526020016000206001016000600281106109fc576109fb6111eb565b5b600d020160000160019054906101000a900473ffffffffffffffffffffffffffffffffffffffff1633604051610a34939291906112f7565b60405180910390a15050565b610a48610e24565b610a50610e24565b60008303610a6157610a606112c8565b5b6000808481526020019081526020016000206040518060c00160405290816000820160009054906101000a900460ff1615151515815260200160018201600280602002604051908101604052809291906000905b82821015610c3a578382600d02016040518060a00160405290816000820160009054906101000a900460ff161515151581526020016000820160019054906101000a900473ffffffffffffffffffffffffffffffffffffffff1673ffffffffffffffffffffffffffffffffffffffff1673ffffffffffffffffffffffffffffffffffffffff1681526020016001820154815260200160028201548152602001600382016040518060600160405290816000820160009054906101000a900460ff1615151515815260200160018201600880602002604051908101604052809291906000905b82821015610c1557838201600880602002604051908101604052809291908260088015610c01576020028201916000905b82829054906101000a900460ff16151581526020019060010190602082600001049283019260010382029150808411610bcb5790505b505050505081526020019060010190610b9a565b5050505081526020016009820154815250508152505081526020019060010190610ab5565b505050508152602001601b8201548152602001601c8201548152602001601d820160009054906101000a900460ff16151515158152602001601d820160019054906101000a900460ff161515151581525050905080915050919050565b8260088101928215610cd0579182015b82811115610ccf578282906008610cbf929190610e66565b5091600101919060010190610ca7565b5b509050610cdd9190610eb1565b5090565b826002600d028101928215610e135791600d0282015b82811115610e125782826000820160009054906101000a900460ff168160000160006101000a81548160ff0219169083151502179055506000820160019054906101000a900473ffffffffffffffffffffffffffffffffffffffff168160000160016101000a81548173ffffffffffffffffffffffffffffffffffffffff021916908373ffffffffffffffffffffffffffffffffffffffff160217905550600182015481600101556002820154816002015560038201816003016000820160009054906101000a900460ff168160000160006101000a81548160ff0219169083151502179055506001820181600101906008610df4929190610c97565b50600982015481600901555050505091600d019190600d0190610cf7565b5b509050610e209190610ed5565b5090565b6040518060c00160405280600015158152602001610e40610f6a565b815260200160008152602001600081526020016000151581526020016000151581525090565b826008601f01602090048101928215610ea05791601f016020900482015b82811115610e9f578254825591600101919060010190610e84565b5b509050610ead9190610f97565b5090565b5b80821115610ed15760008181610ec89190610fb4565b50600101610eb2565b5090565b5b80821115610f6657600080820160006101000a81549060ff02191690556000820160016101000a81549073ffffffffffffffffffffffffffffffffffffffff02191690556001820160009055600282016000905560038201600080820160006101000a81549060ff0219169055600182016000610f539190610fbb565b6009820160009055505050600d01610ed6565b5090565b60405180604001604052806002905b610f81610fce565b815260200190600190039081610f795790505090565b5b80821115610fb0576000816000905550600101610f98565b5090565b5060009055565b508060080190610fcb9190610eb1565b50565b6040518060a00160405280600015158152602001600073ffffffffffffffffffffffffffffffffffffffff168152602001600081526020016000801916815260200161101861101e565b81525090565b604051806060016040528060001515815260200161103a611047565b8152602001600081525090565b6040518061010001604052806008905b61105f611075565b8152602001906001900390816110575790505090565b604051806101000160405280600890602082028036833780820191505090505090565b600080fd5b6000819050919050565b6110b08161109d565b81146110bb57600080fd5b50565b6000813590506110cd816110a7565b92915050565b6000602082840312156110e9576110e8611098565b5b60006110f7848285016110be565b91505092915050565b600073ffffffffffffffffffffffffffffffffffffffff82169050919050565b600061112b82611100565b9050919050565b61113b81611120565b82525050565b60006020820190506111566000830184611132565b92915050565b60008115159050919050565b6111718161115c565b811461117c57600080fd5b50565b60008135905061118e81611168565b92915050565b6000602082840312156111aa576111a9611098565b5b60006111b88482850161117f565b91505092915050565b6111ca8161109d565b82525050565b60006020820190506111e560008301846111c1565b92915050565b7f4e487b7100000000000000000000000000000000000000000000000000000000600052603260045260246000fd5b7f4e487b7100000000000000000000000000000000000000000000000000000000600052601160045260246000fd5b60006112548261109d565b91507fffffffffffffffffffffffffffffffffffffffffffffffffffffffffffffffff82036112865761128561121a565b5b600182019050919050565b60006060820190506112a66000830186611132565b6112b36020830185611132565b6112c060408301846111c1565b949350505050565b7f4e487b7100000000000000000000000000000000000000000000000000000000600052600160045260246000fd5b600060608201905061130c60008301866111c1565b6113196020830185611132565b6113266040830184611132565b94935050505056fea264697066735822122084644991513c7ba7fbd00cc719ce1e88e1c8e67db21c0aa7b3ae73f049bd960b64736f6c63430008130033",
  "immutableReferences": {},
  "source": "// SPDX-License-Identifier: MIT\r\npragma solidity >=0.4.22 <0.9.0;\r\n\r\ncontract Battleships {\r\n        struct Board{\r\n            bool valid;\r\n            // N*N matrix of bits to store hits\r\n            bool[8][8] shots;\r\n            uint totalPieces;\r\n        }\r\n\r\n        struct Player{\r\n            bool valid;\r\n            address playerAddress;\r\n            uint proposedStake;\r\n            bytes32 boardTreeRoot;\r\n            Board shots_board;\r\n        }\r\n\r\n        struct Game{\r\n            bool valid;\r\n            // host is always player[0]\r\n            Player[2] players;\r\n            // 0: waiting; 1: setting stake; 2: placing ships; \r\n            // 3: player[0] firing turn; 4: player[1] response turn; \r\n            // 5: player[1] firing turn; 6: player[0] response turn; \r\n            // 7: done; 8: doesn't exist\r\n            uint state;\r\n            // used for foul accusation, a foul is triggered after 5 blocks\r\n            uint blockNumber;\r\n            // player 0 or player 1\r\n            // might turn it into address, we will see\r\n            bool accuser;\r\n            // not required: whether or not this game should be in the public pool of joinable games\r\n            bool privateGame;\r\n        }\r\n\r\n    mapping(uint => Game) private openGames;\r\n\r\n    Game private gameTrampoline;\r\n    Player private playerTrampoline;\r\n    // used in generating UUIDs for the games\r\n    // for now we are gonna use this as-is\r\n    // start at 1 as 0 is used for a non-existing game\r\n    // TODO: deal with it overflowing\r\n    uint private gameCounter;\r\n    uint private lastOpenGame;\r\n\r\n    constructor() {\r\n        gameCounter = 1;\r\n        lastOpenGame = 1;\r\n    }\r\n\r\n    event ShareID(address _from, address _to, uint _id);\r\n    event GameStart(uint _id, address _host, address _challenger);\r\n\r\n    // create a Game value, add it to openGames, populate the Player[0]\r\n    function newGame(bool isPrivate) public {\r\n        uint gameID = gameCounter;\r\n        gameCounter++;\r\n        Game storage game = gameTrampoline;\r\n        Player storage host = playerTrampoline;\r\n        host.playerAddress = msg.sender;\r\n        host.valid = true;\r\n        game.players[0] = host;\r\n        game.state = 0;\r\n        game.privateGame = isPrivate;\r\n        game.valid = true;\r\n        openGames[gameID] = game;\r\n        emit ShareID(address(this), msg.sender, gameID);\r\n        return;\r\n    }\r\n\r\n    // fails when called on gameID of 0 (non-existing game)\r\n    function getGamePosition (uint gameID) private view returns (Game memory){\r\n        Game memory gameChecked;\r\n        assert(gameID != 0);\r\n        gameChecked = openGames[gameID];\r\n        return gameChecked;\r\n    }\r\n\r\n    function checkGameState(uint gameID) public view returns (uint) {\r\n        Game memory game = getGamePosition(gameID);\r\n        if (game.valid){\r\n            return game.state;\r\n        }\r\n        else \r\n            return(8);\r\n    }\r\n\r\n    function checkGamePlayerOne(uint gameID) public view returns (address) {\r\n        Game memory game = getGamePosition(gameID);\r\n        if (game.valid){\r\n            return game.players[0].playerAddress;\r\n        }\r\n        else \r\n            return(address(0));\r\n    }\r\n\r\n    function checkGamePlayerTwo(uint gameID) public view returns (address) {\r\n        Game memory game = getGamePosition(gameID);\r\n        if (game.valid){\r\n            return game.players[1].playerAddress;\r\n        }\r\n        else \r\n            return(address(0));\r\n    }\r\n\r\n    function joinGame(uint gameID) public {\r\n        if(gameID == 0){\r\n            // pick an unassigned game in sequential order\r\n            gameID = lastOpenGame;\r\n            while(gameID <= gameCounter){\r\n                Game memory game = openGames[gameID];\r\n                // ignore games with sender as host\r\n                if(game.valid == true && game.state == 0 && game.players[0].playerAddress != msg.sender && !game.privateGame){\r\n                    break;\r\n                }\r\n                gameID++;\r\n            }\r\n            // update the lastOpenGame counter no matter what\r\n            lastOpenGame = gameID;\r\n        }\r\n        // if the game wasn't valid, throw an error\r\n        assert(openGames[gameID].valid);\r\n        // set msg sender as this game's player 2\r\n        Player storage challenger = playerTrampoline;\r\n        challenger.playerAddress = msg.sender;\r\n        challenger.valid = true;\r\n        openGames[gameID].players[1] = challenger;\r\n        // update this game's status\r\n        openGames[gameID].state = 1;\r\n        // alert the players\r\n        emit GameStart(gameID, openGames[gameID].players[0].playerAddress, msg.sender);\r\n        return;\r\n    }\r\n}",
  "sourcePath": "F:\\Documents\\Code\\School\\P2PBC\\Battleships\\contracts\\Battleships.sol",
  "compiler": {
    "name": "solc",
    "version": "0.8.19+commit.7dd6d404.Emscripten.clang"
  },
  "schemaVersion": "3.4.13",
  "updatedAt": "2023-05-18T19:14:48.821Z",
  "networkType": "ethereum",
  "devdoc": {
    "kind": "dev",
    "methods": {},
    "version": 1
  },
  "userdoc": {
    "kind": "user",
    "methods": {},
    "version": 1
  }
}