{
  "contractName": "Battleships",
  "abi": [
    {
      "inputs": [],
      "stateMutability": "nonpayable",
      "type": "constructor"
    },
    {
      "inputs": [],
      "name": "InvalidGameID",
      "type": "error"
    },
    {
      "inputs": [],
      "name": "NotInGame",
      "type": "error"
    },
    {
      "inputs": [],
      "name": "StakeAlreadyDeposited",
      "type": "error"
    },
    {
      "inputs": [
        {
          "internalType": "uint256",
          "name": "expectedStakeValue",
          "type": "uint256"
        }
      ],
      "name": "WrongStakeAmount",
      "type": "error"
    },
    {
      "anonymous": false,
      "inputs": [
        {
          "indexed": false,
          "internalType": "uint256",
          "name": "_gameID",
          "type": "uint256"
        }
      ],
      "name": "AcceptingBoards",
      "type": "event"
    },
    {
      "anonymous": false,
      "inputs": [
        {
          "indexed": false,
          "internalType": "uint256",
          "name": "_gameID",
          "type": "uint256"
        },
        {
          "indexed": false,
          "internalType": "address",
          "name": "_host",
          "type": "address"
        },
        {
          "indexed": false,
          "internalType": "address",
          "name": "_challenger",
          "type": "address"
        },
        {
          "indexed": false,
          "internalType": "uint256",
          "name": "_stakeValue",
          "type": "uint256"
        }
      ],
      "name": "GamePayable",
      "type": "event"
    },
    {
      "anonymous": false,
      "inputs": [
        {
          "indexed": false,
          "internalType": "uint256",
          "name": "_gameID",
          "type": "uint256"
        },
        {
          "indexed": false,
          "internalType": "address",
          "name": "_host",
          "type": "address"
        },
        {
          "indexed": false,
          "internalType": "address",
          "name": "_challenger",
          "type": "address"
        }
      ],
      "name": "GameStart",
      "type": "event"
    },
    {
      "anonymous": false,
      "inputs": [
        {
          "indexed": false,
          "internalType": "uint256",
          "name": "_gameID",
          "type": "uint256"
        }
      ],
      "name": "PlayerZeroRound",
      "type": "event"
    },
    {
      "anonymous": false,
      "inputs": [
        {
          "indexed": false,
          "internalType": "address",
          "name": "_from",
          "type": "address"
        },
        {
          "indexed": false,
          "internalType": "address",
          "name": "_to",
          "type": "address"
        },
        {
          "indexed": false,
          "internalType": "uint256",
          "name": "_gameID",
          "type": "uint256"
        }
      ],
      "name": "ShareID",
      "type": "event"
    },
    {
      "anonymous": false,
      "inputs": [
        {
          "indexed": false,
          "internalType": "uint256",
          "name": "_gameID",
          "type": "uint256"
        },
        {
          "indexed": false,
          "internalType": "uint8",
          "name": "_x",
          "type": "uint8"
        },
        {
          "indexed": false,
          "internalType": "uint8",
          "name": "y",
          "type": "uint8"
        }
      ],
      "name": "ShotsFired",
      "type": "event"
    },
    {
      "anonymous": false,
      "inputs": [
        {
          "indexed": false,
          "internalType": "uint256",
          "name": "_gameID",
          "type": "uint256"
        },
        {
          "indexed": false,
          "internalType": "address",
          "name": "_whoPaid",
          "type": "address"
        }
      ],
      "name": "StakePaid",
      "type": "event"
    },
    {
      "anonymous": false,
      "inputs": [
        {
          "indexed": false,
          "internalType": "uint256",
          "name": "_gameID",
          "type": "uint256"
        },
        {
          "indexed": false,
          "internalType": "address",
          "name": "_from",
          "type": "address"
        },
        {
          "indexed": false,
          "internalType": "address",
          "name": "_to",
          "type": "address"
        },
        {
          "indexed": false,
          "internalType": "uint256",
          "name": "_stakeValue",
          "type": "uint256"
        }
      ],
      "name": "SuggestedStake",
      "type": "event"
    },
    {
      "anonymous": false,
      "inputs": [
        {
          "indexed": false,
          "internalType": "uint256",
          "name": "_gameID",
          "type": "uint256"
        },
        {
          "indexed": false,
          "internalType": "address",
          "name": "_winner",
          "type": "address"
        }
      ],
      "name": "Victory",
      "type": "event"
    },
    {
      "inputs": [],
      "name": "BOARD_SIZE",
      "outputs": [
        {
          "internalType": "uint8",
          "name": "",
          "type": "uint8"
        }
      ],
      "stateMutability": "view",
      "type": "function",
      "constant": true
    },
    {
      "inputs": [],
      "name": "NUMBER_OF_SHIP_SQUARES",
      "outputs": [
        {
          "internalType": "uint8",
          "name": "",
          "type": "uint8"
        }
      ],
      "stateMutability": "view",
      "type": "function",
      "constant": true
    },
    {
      "inputs": [
        {
          "internalType": "bool",
          "name": "isPrivate",
          "type": "bool"
        }
      ],
      "name": "newGame",
      "outputs": [],
      "stateMutability": "nonpayable",
      "type": "function"
    },
    {
      "inputs": [
        {
          "internalType": "uint256",
          "name": "gameID",
          "type": "uint256"
        }
      ],
      "name": "joinGame",
      "outputs": [],
      "stateMutability": "nonpayable",
      "type": "function"
    },
    {
      "inputs": [
        {
          "internalType": "uint256",
          "name": "gameID",
          "type": "uint256"
        }
      ],
      "name": "checkGameState",
      "outputs": [
        {
          "internalType": "enum Battleships.GameStates",
          "name": "",
          "type": "uint8"
        }
      ],
      "stateMutability": "view",
      "type": "function",
      "constant": true
    },
    {
      "inputs": [
        {
          "internalType": "uint256",
          "name": "gameID",
          "type": "uint256"
        }
      ],
      "name": "checkGamePlayerOne",
      "outputs": [
        {
          "internalType": "address",
          "name": "",
          "type": "address"
        }
      ],
      "stateMutability": "view",
      "type": "function",
      "constant": true
    },
    {
      "inputs": [
        {
          "internalType": "uint256",
          "name": "gameID",
          "type": "uint256"
        }
      ],
      "name": "checkGamePlayerTwo",
      "outputs": [
        {
          "internalType": "address",
          "name": "",
          "type": "address"
        }
      ],
      "stateMutability": "view",
      "type": "function",
      "constant": true
    },
    {
      "inputs": [
        {
          "internalType": "uint256",
          "name": "gameID",
          "type": "uint256"
        },
        {
          "internalType": "uint256",
          "name": "stakeValue",
          "type": "uint256"
        }
      ],
      "name": "proposeStake",
      "outputs": [],
      "stateMutability": "nonpayable",
      "type": "function"
    },
    {
      "inputs": [
        {
          "internalType": "uint256",
          "name": "gameID",
          "type": "uint256"
        }
      ],
      "name": "checkStakePlayerOne",
      "outputs": [
        {
          "internalType": "uint256",
          "name": "",
          "type": "uint256"
        }
      ],
      "stateMutability": "view",
      "type": "function",
      "constant": true
    },
    {
      "inputs": [
        {
          "internalType": "uint256",
          "name": "gameID",
          "type": "uint256"
        }
      ],
      "name": "checkStakePlayerTwo",
      "outputs": [
        {
          "internalType": "uint256",
          "name": "",
          "type": "uint256"
        }
      ],
      "stateMutability": "view",
      "type": "function",
      "constant": true
    },
    {
      "inputs": [
        {
          "internalType": "uint256",
          "name": "gameID",
          "type": "uint256"
        }
      ],
      "name": "checkStakeGame",
      "outputs": [
        {
          "internalType": "uint256",
          "name": "",
          "type": "uint256"
        }
      ],
      "stateMutability": "view",
      "type": "function",
      "constant": true
    },
    {
      "inputs": [
        {
          "internalType": "uint256",
          "name": "gameID",
          "type": "uint256"
        }
      ],
      "name": "payStake",
      "outputs": [],
      "stateMutability": "payable",
      "type": "function",
      "payable": true
    },
    {
      "inputs": [
        {
          "internalType": "uint256",
          "name": "gameID",
          "type": "uint256"
        }
      ],
      "name": "checkPaymentPlayerOne",
      "outputs": [
        {
          "internalType": "bool",
          "name": "",
          "type": "bool"
        }
      ],
      "stateMutability": "view",
      "type": "function",
      "constant": true
    },
    {
      "inputs": [
        {
          "internalType": "uint256",
          "name": "gameID",
          "type": "uint256"
        }
      ],
      "name": "checkPaymentPlayerTwo",
      "outputs": [
        {
          "internalType": "bool",
          "name": "",
          "type": "bool"
        }
      ],
      "stateMutability": "view",
      "type": "function",
      "constant": true
    },
    {
      "inputs": [
        {
          "internalType": "uint256",
          "name": "gameID",
          "type": "uint256"
        }
      ],
      "name": "checkGamePayable",
      "outputs": [
        {
          "internalType": "bool",
          "name": "",
          "type": "bool"
        }
      ],
      "stateMutability": "view",
      "type": "function",
      "constant": true
    },
    {
      "inputs": [
        {
          "internalType": "uint256",
          "name": "gameID",
          "type": "uint256"
        },
        {
          "internalType": "bytes32",
          "name": "boardRoot",
          "type": "bytes32"
        }
      ],
      "name": "PlaceShips",
      "outputs": [],
      "stateMutability": "nonpayable",
      "type": "function"
    },
    {
      "inputs": [
        {
          "internalType": "uint256",
          "name": "gameID",
          "type": "uint256"
        }
      ],
      "name": "getPlayerOneBoardRoot",
      "outputs": [
        {
          "internalType": "bytes32",
          "name": "",
          "type": "bytes32"
        }
      ],
      "stateMutability": "view",
      "type": "function",
      "constant": true
    },
    {
      "inputs": [
        {
          "internalType": "uint256",
          "name": "gameID",
          "type": "uint256"
        }
      ],
      "name": "getPlayerTwoBoardRoot",
      "outputs": [
        {
          "internalType": "bytes32",
          "name": "",
          "type": "bytes32"
        }
      ],
      "stateMutability": "view",
      "type": "function",
      "constant": true
    },
    {
      "inputs": [
        {
          "internalType": "uint256",
          "name": "gameID",
          "type": "uint256"
        }
      ],
      "name": "getPlayerOneShotsBoard",
      "outputs": [
        {
          "components": [
            {
              "internalType": "bool",
              "name": "valid",
              "type": "bool"
            },
            {
              "internalType": "bool[8][8]",
              "name": "shots",
              "type": "bool[8][8]"
            },
            {
              "internalType": "uint256",
              "name": "totalPieces",
              "type": "uint256"
            },
            {
              "internalType": "uint256",
              "name": "totalShots",
              "type": "uint256"
            }
          ],
          "internalType": "struct Battleships.Board",
          "name": "",
          "type": "tuple"
        }
      ],
      "stateMutability": "view",
      "type": "function",
      "constant": true
    },
    {
      "inputs": [
        {
          "internalType": "uint256",
          "name": "gameID",
          "type": "uint256"
        }
      ],
      "name": "getPlayerTwoShotsBoard",
      "outputs": [
        {
          "components": [
            {
              "internalType": "bool",
              "name": "valid",
              "type": "bool"
            },
            {
              "internalType": "bool[8][8]",
              "name": "shots",
              "type": "bool[8][8]"
            },
            {
              "internalType": "uint256",
              "name": "totalPieces",
              "type": "uint256"
            },
            {
              "internalType": "uint256",
              "name": "totalShots",
              "type": "uint256"
            }
          ],
          "internalType": "struct Battleships.Board",
          "name": "",
          "type": "tuple"
        }
      ],
      "stateMutability": "view",
      "type": "function",
      "constant": true
    },
    {
      "inputs": [
        {
          "internalType": "uint256",
          "name": "gameID",
          "type": "uint256"
        },
        {
          "internalType": "uint8",
          "name": "location_x",
          "type": "uint8"
        },
        {
          "internalType": "uint8",
          "name": "location_y",
          "type": "uint8"
        }
      ],
      "name": "FireTorpedo",
      "outputs": [],
      "stateMutability": "nonpayable",
      "type": "function"
    }
  ],
  "bytecode": "0x608060405234801561001057600080fd5b50600160438190555060016044819055506139a6806100306000396000f3fe60806040526004361061012a5760003560e01c806354d83c65116100ab578063aa3ee9151161006f578063aa3ee91514610453578063d46d077714610490578063dc4a3e95146104cd578063efaa55a0146104f8578063f28ae7dd14610521578063fba523b71461054a5761012a565b806354d83c65146103345780635f7dbd2b146103715780636930aa4d146103ae578063699f5aeb146103d95780639a7e4cea146104165761012a565b80632b170aac116100f25780632b170aac1461022b5780634278d986146102545780634f0bdb96146102915780635345f533146102ba578063542c0151146102f75761012a565b8063012b61f01461012f57806302ecb0e81461016c5780630e37dcd0146101a957806316337b89146101c55780631de95425146101ee575b600080fd5b34801561013b57600080fd5b5061015660048036038101906101519190613201565b610587565b6040516101639190613249565b60405180910390f35b34801561017857600080fd5b50610193600480360381019061018e9190613201565b61066f565b6040516101a09190613249565b60405180910390f35b6101c360048036038101906101be9190613201565b61072c565b005b3480156101d157600080fd5b506101ec60048036038101906101e7919061329a565b610cd4565b005b3480156101fa57600080fd5b5061021560048036038101906102109190613201565b611241565b604051610222919061331b565b60405180910390f35b34801561023757600080fd5b50610252600480360381019061024d9190613362565b611311565b005b34801561026057600080fd5b5061027b60048036038101906102769190613201565b61176c565b604051610288919061339e565b60405180910390f35b34801561029d57600080fd5b506102b860048036038101906102b391906133f2565b611780565b005b3480156102c657600080fd5b506102e160048036038101906102dc9190613201565b611b0d565b6040516102ee91906135f4565b60405180910390f35b34801561030357600080fd5b5061031e60048036038101906103199190613201565b611b27565b60405161032b91906135f4565b60405180910390f35b34801561034057600080fd5b5061035b60048036038101906103569190613201565b611b41565b6040516103689190613249565b60405180910390f35b34801561037d57600080fd5b5061039860048036038101906103939190613201565b611bfe565b6040516103a5919061339e565b60405180910390f35b3480156103ba57600080fd5b506103c3611c12565b6040516103d0919061361f565b60405180910390f35b3480156103e557600080fd5b5061040060048036038101906103fb9190613201565b611c17565b60405161040d9190613649565b60405180910390f35b34801561042257600080fd5b5061043d60048036038101906104389190613201565b611cf2565b60405161044a91906136db565b60405180910390f35b34801561045f57600080fd5b5061047a60048036038101906104759190613201565b611d50565b6040516104879190613649565b60405180910390f35b34801561049c57600080fd5b506104b760048036038101906104b29190613201565b611e00565b6040516104c4919061331b565b60405180910390f35b3480156104d957600080fd5b506104e2611ed0565b6040516104ef919061361f565b60405180910390f35b34801561050457600080fd5b5061051f600480360381019061051a9190613201565b611ed5565b005b34801561052d57600080fd5b50610548600480360381019061054391906136f6565b612320565b005b34801561055657600080fd5b50610571600480360381019061056c9190613201565b6129d7565b60405161057e9190613649565b60405180910390f35b600080600083815260200190815260200160002060000160009054906101000a900460ff1680156105f157506000808381526020019081526020016000206001016000600281106105db576105da613736565b5b600e020160000160009054906101000a900460ff165b801561063657506000808381526020019081526020016000206001016001600281106106205761061f613736565b5b600e020160000160009054906101000a900460ff165b156106655760008083815260200190815260200160002060000160019054906101000a900460ff16905061066a565b600090505b919050565b600080600083815260200190815260200160002060000160009054906101000a900460ff1680156106d957506000808381526020019081526020016000206001016001600281106106c3576106c2613736565b5b600e020160000160009054906101000a900460ff165b156107225760008083815260200190815260200160002060010160016002811061070657610705613736565b5b600e020160000160019054906101000a900460ff169050610727565b600090505b919050565b8060008082815260200190815260200160002060000160009054906101000a900460ff1661075d5761075c613765565b5b813373ffffffffffffffffffffffffffffffffffffffff1660008083815260200190815260200160002060010160006002811061079d5761079c613736565b5b600e020160000160029054906101000a900473ffffffffffffffffffffffffffffffffffffffff1673ffffffffffffffffffffffffffffffffffffffff16148061086157503373ffffffffffffffffffffffffffffffffffffffff1660008083815260200190815260200160002060010160016002811061082157610820613736565b5b600e020160000160029054906101000a900473ffffffffffffffffffffffffffffffffffffffff1673ffffffffffffffffffffffffffffffffffffffff16145b61086e5761086d613765565b5b82600280600981111561088457610883613664565b5b600080848152602001908152602001600020601d0160009054906101000a900460ff1660098111156108b9576108b8613664565b5b146108c7576108c6613765565b5b6000808681526020019081526020016000206001016000600281106108ef576108ee613736565b5b600e020160000160029054906101000a900473ffffffffffffffffffffffffffffffffffffffff1673ffffffffffffffffffffffffffffffffffffffff163373ffffffffffffffffffffffffffffffffffffffff1614801561098a575060008086815260200190815260200160002060010160006002811061097457610973613736565b5b600e020160000160019054906101000a900460ff165b80610a5457506000808681526020019081526020016000206001016001600281106109b8576109b7613736565b5b600e020160000160029054906101000a900473ffffffffffffffffffffffffffffffffffffffff1673ffffffffffffffffffffffffffffffffffffffff163373ffffffffffffffffffffffffffffffffffffffff16148015610a535750600080868152602001908152602001600020600101600160028110610a3d57610a3c613736565b5b600e020160000160019054906101000a900460ff165b5b15610a8b576040517f5e558b2300000000000000000000000000000000000000000000000000000000815260040160405180910390fd5b600080868152602001908152602001600020601e01543414610af957600080868152602001908152602001600020601e01546040517f66cb868a000000000000000000000000000000000000000000000000000000008152600401610af09190613649565b60405180910390fd5b600080600080888152602001908152602001600020600101600060028110610b2457610b23613736565b5b600e020160000160029054906101000a900473ffffffffffffffffffffffffffffffffffffffff1673ffffffffffffffffffffffffffffffffffffffff163373ffffffffffffffffffffffffffffffffffffffff1603610b8b576000915060019050610b94565b60019150600090505b60016000808981526020019081526020016000206001018360028110610bbd57610bbc613736565b5b600e020160000160016101000a81548160ff0219169083151502179055507f95ddb9abe17699603c18cef7bcfd33947d19c8eb237e01edac0bd509b481339e8733604051610c0c929190613794565b60405180910390a16000808881526020019081526020016000206001018160028110610c3b57610c3a613736565b5b600e020160000160019054906101000a900460ff1615610ccb576003600080898152602001908152602001600020601d0160006101000a81548160ff02191690836009811115610c8e57610c8d613664565b5b02179055507f972651cf62ccc65bd2ba0fd996eb34701d5773844d3303545d5b4cb29738f10487604051610cc29190613649565b60405180910390a15b50505050505050565b8160008082815260200190815260200160002060000160009054906101000a900460ff16610d0557610d04613765565b5b823373ffffffffffffffffffffffffffffffffffffffff16600080838152602001908152602001600020600101600060028110610d4557610d44613736565b5b600e020160000160029054906101000a900473ffffffffffffffffffffffffffffffffffffffff1673ffffffffffffffffffffffffffffffffffffffff161480610e0957503373ffffffffffffffffffffffffffffffffffffffff16600080838152602001908152602001600020600101600160028110610dc957610dc8613736565b5b600e020160000160029054906101000a900473ffffffffffffffffffffffffffffffffffffffff1673ffffffffffffffffffffffffffffffffffffffff16145b610e1657610e15613765565b5b836003806009811115610e2c57610e2b613664565b5b600080848152602001908152602001600020601d0160009054906101000a900460ff166009811115610e6157610e60613664565b5b14610e6f57610e6e613765565b5b600080600080898152602001908152602001600020600101600060028110610e9a57610e99613736565b5b600e020160000160029054906101000a900473ffffffffffffffffffffffffffffffffffffffff1673ffffffffffffffffffffffffffffffffffffffff163373ffffffffffffffffffffffffffffffffffffffff1614610efe576001915081610f04565b60009150815b50600080898152602001908152602001600020600101600060028110610f2d57610f2c613736565b5b600e020160000160029054906101000a900473ffffffffffffffffffffffffffffffffffffffff1673ffffffffffffffffffffffffffffffffffffffff163373ffffffffffffffffffffffffffffffffffffffff1614610f91576000905080610f97565b60019050805b506000801b6000808a81526020019081526020016000206001018360028110610fc357610fc2613736565b5b600e02016002015414610fd557600080fd5b60005b600860ff168160ff16101561106e5760005b600860ff168160ff16101561105a576000603b8360ff166008811061101257611011613736565b5b018260ff166008811061102857611027613736565b5b602091828204019190066101000a81548160ff0219169083151502179055508080611052906137ec565b915050610fea565b508080611066906137ec565b915050610fd8565b506000603b90506000603090506001603060000160006101000a81548160ff0219169083151502179055508160306001019060086110ad929190612de0565b50601460ff16603060090181905550600860ff166030600a0181905550806000808c815260200190815260200160002060010185600281106110f2576110f1613736565b5b600e02016003016000820160009054906101000a900460ff168160000160006101000a81548160ff021916908315150217905550600182018160010190600861113c929190612e2a565b5060098201548160090155600a82015481600a0155905050886000808c8152602001908152602001600020600101856002811061117c5761117b613736565b5b600e0201600201819055506000801b6000808c815260200190815260200160002060010184600281106111b2576111b1613736565b5b600e020160020154146112355760046000808c8152602001908152602001600020601d0160006101000a81548160ff021916908360098111156111f8576111f7613664565b5b02179055507f634435215205b1bf0c66d892142dc6817dd04fb0fdb9153d12aef7dfb8685df68a60405161122c9190613649565b60405180910390a15b50505050505050505050565b600080600083815260200190815260200160002060000160009054906101000a900460ff1680156112ab575060008083815260200190815260200160002060010160006002811061129557611294613736565b5b600e020160000160009054906101000a900460ff165b15611307576000808381526020019081526020016000206001016000600281106112d8576112d7613736565b5b600e020160000160029054906101000a900473ffffffffffffffffffffffffffffffffffffffff16905061130c565b600090505b919050565b600060435490506043600081548092919061132b90613815565b9190505550600060019050600060229050338160000160026101000a81548173ffffffffffffffffffffffffffffffffffffffff021916908373ffffffffffffffffffffffffffffffffffffffff16021790555060018160000160006101000a81548160ff02191690831515021790555060008160000160016101000a81548160ff02191690831515021790555080826001016000600281106113d1576113d0613736565b5b600e02016000820160009054906101000a900460ff168160000160006101000a81548160ff0219169083151502179055506000820160019054906101000a900460ff168160000160016101000a81548160ff0219169083151502179055506000820160029054906101000a900473ffffffffffffffffffffffffffffffffffffffff168160000160026101000a81548173ffffffffffffffffffffffffffffffffffffffff021916908373ffffffffffffffffffffffffffffffffffffffff160217905550600182015481600101556002820154816002015560038201816003016000820160009054906101000a900460ff168160000160006101000a81548160ff02191690831515021790555060018201816001019060086114f5929190612e2a565b5060098201548160090155600a82015481600a01555050905050600082601d0160006101000a81548160ff0219169083600981111561153757611536613664565b5b0217905550838260200160016101000a81548160ff02191690831515021790555060018260000160006101000a81548160ff02191690831515021790555060008260000160016101000a81548160ff021916908315150217905550816000808581526020019081526020016000206000820160009054906101000a900460ff168160000160006101000a81548160ff0219169083151502179055506000820160019054906101000a900460ff168160000160016101000a81548160ff0219169083151502179055506001820181600101906002611615929190612e74565b50601d820160009054906101000a900460ff1681601d0160006101000a81548160ff0219169083600981111561164e5761164d613664565b5b0217905550601e82015481601e0155601f82015481601f01556020820160009054906101000a900460ff168160200160006101000a81548160ff0219169083151502179055506020820160019054906101000a900460ff168160200160016101000a81548160ff0219169083151502179055506020820160029054906101000a900473ffffffffffffffffffffffffffffffffffffffff168160200160026101000a81548173ffffffffffffffffffffffffffffffffffffffff021916908373ffffffffffffffffffffffffffffffffffffffff1602179055509050507f1edfba130181c8da1b98834639c59b5287912fcc01104c5a7a6e6c8cd194e30230338560405161175e9392919061385d565b60405180910390a150505050565b6000611779826001612a87565b9050919050565b8260008082815260200190815260200160002060000160009054906101000a900460ff166117b1576117b0613765565b5b833373ffffffffffffffffffffffffffffffffffffffff166000808381526020019081526020016000206001016000600281106117f1576117f0613736565b5b600e020160000160029054906101000a900473ffffffffffffffffffffffffffffffffffffffff1673ffffffffffffffffffffffffffffffffffffffff1614806118b557503373ffffffffffffffffffffffffffffffffffffffff1660008083815260200190815260200160002060010160016002811061187557611874613736565b5b600e020160000160029054906101000a900473ffffffffffffffffffffffffffffffffffffffff1673ffffffffffffffffffffffffffffffffffffffff16145b6118c2576118c1613765565b5b60008060008060008981526020019081526020016000206001016000600281106118ef576118ee613736565b5b600e020160000160029054906101000a900473ffffffffffffffffffffffffffffffffffffffff1673ffffffffffffffffffffffffffffffffffffffff163373ffffffffffffffffffffffffffffffffffffffff160361195a57600092506001915060049050611967565b6001925060009150600690505b80600981111561197a57611979613664565b5b6000808a8152602001908152602001600020601d0160009054906101000a900460ff1660098111156119af576119ae613664565b5b146119bd576119bc613765565b5b600460098111156119d1576119d0613664565b5b8160098111156119e4576119e3613664565b5b146119f35760079050806119f9565b60059050805b50806000808a8152602001908152602001600020601d0160006101000a81548160ff02191690836009811115611a3257611a31613664565b5b02179055506000808981526020019081526020016000206001018360028110611a5e57611a5d613736565b5b600e0201600301600a016000815480929190611a7990613894565b919050555060008060008a81526020019081526020016000206001018460028110611aa757611aa6613736565b5b600e0201600301600a015403611ac757611ac2888484612b63565b611b03565b7f82b4f53f1ba969cf3586a92ca6d045b7aa2a6143fdeb1e95fe678548ab53f9f5888888604051611afa939291906138bd565b60405180910390a15b5050505050505050565b611b15612fee565b611b20826001612c26565b9050919050565b611b2f612fee565b611b3a826000612c26565b9050919050565b600080600083815260200190815260200160002060000160009054906101000a900460ff168015611bab5750600080838152602001908152602001600020600101600060028110611b9557611b94613736565b5b600e020160000160009054906101000a900460ff165b15611bf457600080838152602001908152602001600020600101600060028110611bd857611bd7613736565b5b600e020160000160019054906101000a900460ff169050611bf9565b600090505b919050565b6000611c0b826000612a87565b9050919050565b601481565b600080600083815260200190815260200160002060000160009054906101000a900460ff168015611c815750600080838152602001908152602001600020600101600060028110611c6b57611c6a613736565b5b600e020160000160009054906101000a900460ff165b8015611cc65750600080838152602001908152602001600020600101600160028110611cb057611caf613736565b5b600e020160000160009054906101000a900460ff165b15611ce857600080838152602001908152602001600020601e01549050611ced565b600090505b919050565b600080600083815260200190815260200160002060000160009054906101000a900460ff1615611d4657600080838152602001908152602001600020601d0160009054906101000a900460ff169050611d4b565b600990505b919050565b600080600083815260200190815260200160002060000160009054906101000a900460ff168015611dba5750600080838152602001908152602001600020600101600160028110611da457611da3613736565b5b600e020160000160009054906101000a900460ff165b15611df657600080838152602001908152602001600020600101600160028110611de757611de6613736565b5b600e0201600101549050611dfb565b600090505b919050565b600080600083815260200190815260200160002060000160009054906101000a900460ff168015611e6a5750600080838152602001908152602001600020600101600160028110611e5457611e53613736565b5b600e020160000160009054906101000a900460ff165b15611ec657600080838152602001908152602001600020600101600160028110611e9757611e96613736565b5b600e020160000160029054906101000a900473ffffffffffffffffffffffffffffffffffffffff169050611ecb565b600090505b919050565b600881565b6000810361203a5760445490505b6043548111612032576001151560008083815260200190815260200160002060000160009054906101000a900460ff161515148015611f68575060006009811115611f3157611f30613664565b5b600080838152602001908152602001600020601d0160009054906101000a900460ff166009811115611f6657611f65613664565b5b145b8015611fef57503373ffffffffffffffffffffffffffffffffffffffff16600080838152602001908152602001600020600101600060028110611fae57611fad613736565b5b600e020160000160029054906101000a900473ffffffffffffffffffffffffffffffffffffffff1673ffffffffffffffffffffffffffffffffffffffff1614155b801561201b575060008082815260200190815260200160002060200160019054906101000a900460ff16155b61203257808061202a90613815565b915050611ee3565b806044819055505b60008082815260200190815260200160002060000160009054906101000a900460ff1661206a57612069613765565b5b600060229050338160000160026101000a81548173ffffffffffffffffffffffffffffffffffffffff021916908373ffffffffffffffffffffffffffffffffffffffff16021790555060018160000160006101000a81548160ff02191690831515021790555060008160000160016101000a81548160ff0219169083151502179055508060008084815260200190815260200160002060010160016002811061211657612115613736565b5b600e02016000820160009054906101000a900460ff168160000160006101000a81548160ff0219169083151502179055506000820160019054906101000a900460ff168160000160016101000a81548160ff0219169083151502179055506000820160029054906101000a900473ffffffffffffffffffffffffffffffffffffffff168160000160026101000a81548173ffffffffffffffffffffffffffffffffffffffff021916908373ffffffffffffffffffffffffffffffffffffffff160217905550600182015481600101556002820154816002015560038201816003016000820160009054906101000a900460ff168160000160006101000a81548160ff021916908315150217905550600182018160010190600861223a929190612e2a565b5060098201548160090155600a82015481600a015550509050506001600080848152602001908152602001600020601d0160006101000a81548160ff0219169083600981111561228d5761228c613664565b5b02179055507fdf72bd9cb04731c1dfa0832a380e56504fda45508a7305083a9be0f343e93421826000808581526020019081526020016000206001016000600281106122dc576122db613736565b5b600e020160000160029054906101000a900473ffffffffffffffffffffffffffffffffffffffff1633604051612314939291906138f4565b60405180910390a15050565b8160008082815260200190815260200160002060000160009054906101000a900460ff1661235157612350613765565b5b823373ffffffffffffffffffffffffffffffffffffffff1660008083815260200190815260200160002060010160006002811061239157612390613736565b5b600e020160000160029054906101000a900473ffffffffffffffffffffffffffffffffffffffff1673ffffffffffffffffffffffffffffffffffffffff16148061245557503373ffffffffffffffffffffffffffffffffffffffff1660008083815260200190815260200160002060010160016002811061241557612414613736565b5b600e020160000160029054906101000a900473ffffffffffffffffffffffffffffffffffffffff1673ffffffffffffffffffffffffffffffffffffffff16145b61246257612461613765565b5b83600180600981111561247857612477613664565b5b600080848152602001908152602001600020601d0160009054906101000a900460ff1660098111156124ad576124ac613664565b5b146124bb576124ba613765565b5b6000806000888152602001908152602001600020604051806101200160405290816000820160009054906101000a900460ff161515151581526020016000820160019054906101000a900460ff1615151515815260200160018201600280602002604051908101604052809291906000905b828210156126d7578382600e02016040518060c00160405290816000820160009054906101000a900460ff161515151581526020016000820160019054906101000a900460ff161515151581526020016000820160029054906101000a900473ffffffffffffffffffffffffffffffffffffffff1673ffffffffffffffffffffffffffffffffffffffff1673ffffffffffffffffffffffffffffffffffffffff1681526020016001820154815260200160028201548152602001600382016040518060800160405290816000820160009054906101000a900460ff1615151515815260200160018201600880602002604051908101604052809291906000905b828210156126a857838201600880602002604051908101604052809291908260088015612694576020028201916000905b82829054906101000a900460ff1615158152602001906001019060208260000104928301926001038202915080841161265e5790505b50505050508152602001906001019061262d565b50505050815260200160098201548152602001600a82015481525050815250508152602001906001019061252d565b505050508152602001601d820160009054906101000a900460ff16600981111561270457612703613664565b5b600981111561271657612715613664565b5b8152602001601e8201548152602001601f82015481526020016020820160009054906101000a900460ff161515151581526020016020820160019054906101000a900460ff161515151581526020016020820160029054906101000a900473ffffffffffffffffffffffffffffffffffffffff1673ffffffffffffffffffffffffffffffffffffffff1673ffffffffffffffffffffffffffffffffffffffff1681525050905060008082604001516000600281106127d7576127d6613736565b5b60200201516040015173ffffffffffffffffffffffffffffffffffffffff163373ffffffffffffffffffffffffffffffffffffffff160361281f576001915060009050612828565b60009150600190505b60008360400151836002811061284157612840613736565b5b6020020151606001519050886000808c8152602001908152602001600020600101836002811061287457612873613736565b5b600e0201600101819055506000811415801561288f57508881145b1561296e57886000808c8152602001908152602001600020601e018190555060026000808c8152602001908152602001600020601d0160006101000a81548160ff021916908360098111156128e7576128e6613664565b5b02179055507fa63491c3e48c84a30c1a58128201bca4fd87bb84850cda339020ce19051e5a908a856040015160006002811061292657612925613736565b5b602002015160400151866040015160016002811061294757612946613736565b5b6020020151604001518c604051612961949392919061392b565b60405180910390a16129cb565b7f4adf94e8b5302c48b3df6533aa17748538d68a74af46f0a894839b61fbf3f1bf8a33866040015186600281106129a8576129a7613736565b5b6020020151604001518c6040516129c2949392919061392b565b60405180910390a15b50505050505050505050565b600080600083815260200190815260200160002060000160009054906101000a900460ff168015612a415750600080838152602001908152602001600020600101600060028110612a2b57612a2a613736565b5b600e020160000160009054906101000a900460ff165b15612a7d57600080838152602001908152602001600020600101600060028110612a6e57612a6d613736565b5b600e0201600101549050612a82565b600090505b919050565b600082826000808381526020019081526020016000206001018160028110612ab257612ab1613736565b5b600e020160000160009054906101000a900460ff16612ad457612ad3613765565b5b6000808381526020019081526020016000205060028110612af857612af7613765565b5b8460008082815260200190815260200160002060000160009054906101000a900460ff16612b2957612b28613765565b5b6000808781526020019081526020016000206001018560028110612b5057612b4f613736565b5b600e020160020154935050505092915050565b6000600160008086815260200190815260200160002060000160016101000a81548160ff0219169083151502179055508060008086815260200190815260200160002060200160026101000a81548173ffffffffffffffffffffffffffffffffffffffff021916908373ffffffffffffffffffffffffffffffffffffffff1602179055507fc2815c82adc4278d6e044948482e0d16acf9a6369fc96eff02ffc7e7cd5f39d08433604051612c18929190613794565b60405180910390a150505050565b612c2e612fee565b82826000808381526020019081526020016000206001018160028110612c5757612c56613736565b5b600e020160000160009054906101000a900460ff16612c7957612c78613765565b5b6000808381526020019081526020016000205060028110612c9d57612c9c613765565b5b8460008082815260200190815260200160002060000160009054906101000a900460ff16612cce57612ccd613765565b5b6000808781526020019081526020016000206001018560028110612cf557612cf4613736565b5b600e02016003016040518060800160405290816000820160009054906101000a900460ff1615151515815260200160018201600880602002604051908101604052809291906000905b82821015612db957838201600880602002604051908101604052809291908260088015612da5576020028201916000905b82829054906101000a900460ff16151581526020019060010190602082600001049283019260010382029150808411612d6f5790505b505050505081526020019060010190612d3e565b50505050815260200160098201548152602001600a82015481525050935050505092915050565b8260088101928215612e19579182015b82811115612e18578282906008612e0892919061301e565b5091600101919060010190612df0565b5b509050612e269190613069565b5090565b8260088101928215612e63579182015b82811115612e62578282906008612e5292919061301e565b5091600101919060010190612e3a565b5b509050612e709190613069565b5090565b826002600e028101928215612fdd5791600e0282015b82811115612fdc5782826000820160009054906101000a900460ff168160000160006101000a81548160ff0219169083151502179055506000820160019054906101000a900460ff168160000160016101000a81548160ff0219169083151502179055506000820160029054906101000a900473ffffffffffffffffffffffffffffffffffffffff168160000160026101000a81548173ffffffffffffffffffffffffffffffffffffffff021916908373ffffffffffffffffffffffffffffffffffffffff160217905550600182015481600101556002820154816002015560038201816003016000820160009054906101000a900460ff168160000160006101000a81548160ff0219169083151502179055506001820181600101906008612fb4929190612e2a565b5060098201548160090155600a82015481600a01555050505091600e019190600e0190612e8a565b5b509050612fea919061308d565b5090565b604051806080016040528060001515815260200161300a61313e565b815260200160008152602001600081525090565b826008601f016020900481019282156130585791601f016020900482015b8281111561305757825482559160010191906001019061303c565b5b509050613065919061316c565b5090565b5b8082111561308957600081816130809190613189565b5060010161306a565b5090565b5b8082111561313a57600080820160006101000a81549060ff02191690556000820160016101000a81549060ff02191690556000820160026101000a81549073ffffffffffffffffffffffffffffffffffffffff02191690556001820160009055600282016000905560038201600080820160006101000a81549060ff021916905560018201600061311f9190613190565b6009820160009055600a820160009055505050600e0161308e565b5090565b6040518061010001604052806008905b6131566131a3565b81526020019060019003908161314e5790505090565b5b8082111561318557600081600090555060010161316d565b5090565b5060009055565b5080600801906131a09190613069565b50565b604051806101000160405280600890602082028036833780820191505090505090565b600080fd5b6000819050919050565b6131de816131cb565b81146131e957600080fd5b50565b6000813590506131fb816131d5565b92915050565b600060208284031215613217576132166131c6565b5b6000613225848285016131ec565b91505092915050565b60008115159050919050565b6132438161322e565b82525050565b600060208201905061325e600083018461323a565b92915050565b6000819050919050565b61327781613264565b811461328257600080fd5b50565b6000813590506132948161326e565b92915050565b600080604083850312156132b1576132b06131c6565b5b60006132bf858286016131ec565b92505060206132d085828601613285565b9150509250929050565b600073ffffffffffffffffffffffffffffffffffffffff82169050919050565b6000613305826132da565b9050919050565b613315816132fa565b82525050565b6000602082019050613330600083018461330c565b92915050565b61333f8161322e565b811461334a57600080fd5b50565b60008135905061335c81613336565b92915050565b600060208284031215613378576133776131c6565b5b60006133868482850161334d565b91505092915050565b61339881613264565b82525050565b60006020820190506133b3600083018461338f565b92915050565b600060ff82169050919050565b6133cf816133b9565b81146133da57600080fd5b50565b6000813590506133ec816133c6565b92915050565b60008060006060848603121561340b5761340a6131c6565b5b6000613419868287016131ec565b935050602061342a868287016133dd565b925050604061343b868287016133dd565b9150509250925092565b61344e8161322e565b82525050565b600060089050919050565b600081905092915050565b6000819050919050565b600060089050919050565b600081905092915050565b6000819050919050565b60006134a08383613445565b60208301905092915050565b6000602082019050919050565b6134c281613474565b6134cc818461347f565b92506134d78261348a565b8060005b838110156135085781516134ef8782613494565b96506134fa836134ac565b9250506001810190506134db565b505050505050565b600061351c83836134b9565b6101008301905092915050565b6000602082019050919050565b61353f81613454565b613549818461345f565b92506135548261346a565b8060005b8381101561358557815161356c8782613510565b965061357783613529565b925050600181019050613558565b505050505050565b613596816131cb565b82525050565b610860820160008201516135b36000850182613445565b5060208201516135c66020850182613536565b5060408201516135da61082085018261358d565b5060608201516135ee61084085018261358d565b50505050565b60006108608201905061360a600083018461359c565b92915050565b613619816133b9565b82525050565b60006020820190506136346000830184613610565b92915050565b613643816131cb565b82525050565b600060208201905061365e600083018461363a565b92915050565b7f4e487b7100000000000000000000000000000000000000000000000000000000600052602160045260246000fd5b600a81106136a4576136a3613664565b5b50565b60008190506136b582613693565b919050565b60006136c5826136a7565b9050919050565b6136d5816136ba565b82525050565b60006020820190506136f060008301846136cc565b92915050565b6000806040838503121561370d5761370c6131c6565b5b600061371b858286016131ec565b925050602061372c858286016131ec565b9150509250929050565b7f4e487b7100000000000000000000000000000000000000000000000000000000600052603260045260246000fd5b7f4e487b7100000000000000000000000000000000000000000000000000000000600052600160045260246000fd5b60006040820190506137a9600083018561363a565b6137b6602083018461330c565b9392505050565b7f4e487b7100000000000000000000000000000000000000000000000000000000600052601160045260246000fd5b60006137f7826133b9565b915060ff820361380a576138096137bd565b5b600182019050919050565b6000613820826131cb565b91507fffffffffffffffffffffffffffffffffffffffffffffffffffffffffffffffff8203613852576138516137bd565b5b600182019050919050565b6000606082019050613872600083018661330c565b61387f602083018561330c565b61388c604083018461363a565b949350505050565b600061389f826131cb565b9150600082036138b2576138b16137bd565b5b600182039050919050565b60006060820190506138d2600083018661363a565b6138df6020830185613610565b6138ec6040830184613610565b949350505050565b6000606082019050613909600083018661363a565b613916602083018561330c565b613923604083018461330c565b949350505050565b6000608082019050613940600083018761363a565b61394d602083018661330c565b61395a604083018561330c565b613967606083018461363a565b9594505050505056fea2646970667358221220394cdabce5294da2af01160a4fc73496dc5f5892a8c4d0d7b30153a97e657c7664736f6c63430008130033",
  "immutableReferences": {},
  "source": "// SPDX-License-Identifier: MIT\r\npragma solidity >=0.4.22 <0.9.0;\r\n\r\ncontract Battleships {\r\n    uint8 public constant NUMBER_OF_SHIP_SQUARES = 20;\r\n    uint8 public constant BOARD_SIZE = 8;\r\n    enum GameStates{\r\n        WAITING, \r\n        SETTING_STAKE, \r\n        ACCEPTING_PAYMENT,\r\n        PLACING_SHIPS, \r\n        P0_FIRING,\r\n        P1_CHECKING,\r\n        P1_FIRING,\r\n        P0_CHECKING,\r\n        DONE,\r\n        NONE\r\n    }\r\n\r\n    // In this struct we save the view a player has of its opponent's board\r\n    struct Board{\r\n        bool valid;\r\n        // N*N matrix of bits to store hits\r\n        bool[BOARD_SIZE][BOARD_SIZE] shots;\r\n        // # of enemy pieces still left on the board\r\n        // goes down by one each time we receive one 'you hit' event\r\n        uint totalPieces;\r\n        // 8*8, we use this to avoid cheating\r\n        uint totalShots;\r\n    }\r\n\r\n    struct Player{\r\n        bool valid;\r\n        bool hasPaidStake;\r\n        address playerAddress;\r\n        uint proposedStake;\r\n        bytes32 boardTreeRoot;\r\n        Board shots_board;\r\n    }\r\n\r\n    struct Game{\r\n        bool valid;\r\n        bool canPay;\r\n        // host is always player[0]\r\n        Player[2] players;\r\n        GameStates state;\r\n        uint decidedStake;\r\n        // used for foul accusation, a foul is triggered after 5 blocks\r\n        uint blockNumber;\r\n        // player 0 or player 1\r\n        // might turn it into address, we will see\r\n        bool accuser;\r\n        // whether or not this game should be in the public pool of joinable games\r\n        bool privateGame;\r\n        address winner;\r\n    }\r\n\r\n    mapping(uint => Game) private openGames;\r\n\r\n    Game private gameTrampoline;\r\n    Player private playerTrampoline;\r\n    Board private trampolineBoard;\r\n    bool[BOARD_SIZE][BOARD_SIZE] private trampolineShots;\r\n    // used in generating UUIDs for the games\r\n    // for now we are gonna use this as-is\r\n    // start at 1 as 0 is used for a non-existing game\r\n    // TODO: deal with it overflowing\r\n    uint private gameCounter;\r\n    uint private lastOpenGame;\r\n\r\n    constructor() {\r\n        gameCounter = 1;\r\n        lastOpenGame = 1;\r\n    }\r\n\r\n    event ShareID(address _from, address _to, uint _gameID);\r\n    event GameStart(uint _gameID, address _host, address _challenger);\r\n    event SuggestedStake(uint _gameID, address _from, address _to, uint _stakeValue);\r\n    event GamePayable(uint _gameID, address _host, address _challenger, uint _stakeValue);\r\n    event StakePaid(uint _gameID, address _whoPaid);\r\n    event AcceptingBoards(uint _gameID);\r\n    event PlayerZeroRound(uint _gameID);\r\n    event ShotsFired(uint _gameID, uint8 _x, uint8 y);\r\n    event Victory(uint _gameID, address _winner);\r\n\r\n    error InvalidGameID();\r\n    error NotInGame();\r\n    error StakeAlreadyDeposited();\r\n    error WrongStakeAmount(uint expectedStakeValue);\r\n\r\n    modifier gameExists(uint gameID){\r\n        assert(openGames[gameID].valid);\r\n        _;\r\n    }\r\n\r\n    modifier isInGame(uint gameID){\r\n        assert((openGames[gameID].players[0].playerAddress == msg.sender) || (openGames[gameID].players[1].playerAddress == msg.sender));\r\n        _;\r\n    }\r\n\r\n    modifier assertState(uint gameID, GameStates _state){\r\n        assert(openGames[gameID].state == _state);\r\n        _;\r\n    }\r\n\r\n    modifier playerInRange(uint gameID, uint index){\r\n        assert(openGames[gameID].players[index].valid);\r\n        assert(index < openGames[gameID].players.length);\r\n        _;\r\n    }\r\n\r\n    // create a Game value, add it to openGames, populate the Player[0]\r\n    function newGame(bool isPrivate) public {\r\n        uint gameID = gameCounter;\r\n        gameCounter++;\r\n        Game storage game = gameTrampoline;\r\n        Player storage host = playerTrampoline;\r\n        host.playerAddress = msg.sender;\r\n        host.valid = true;\r\n        host.hasPaidStake = false;\r\n        game.players[0] = host;\r\n        game.state = GameStates.WAITING;\r\n        game.privateGame = isPrivate;\r\n        game.valid = true;\r\n        game.canPay = false;\r\n        openGames[gameID] = game;\r\n        emit ShareID(address(this), msg.sender, gameID);\r\n        return;\r\n    }\r\n    \r\n    function joinGame(uint gameID) public {\r\n        if(gameID == 0){\r\n            // pick an unassigned game in sequential order\r\n            gameID = lastOpenGame;\r\n            while(gameID <= gameCounter){\r\n                // ignore games with sender as host (you can still join your own games directly if you're that lonely)\r\n                if(openGames[gameID].valid == true && \r\n                    openGames[gameID].state == GameStates.WAITING && \r\n                    openGames[gameID].players[0].playerAddress != msg.sender && \r\n                    !openGames[gameID].privateGame){\r\n                    break;\r\n                }\r\n                gameID++;\r\n            }\r\n            // update the lastOpenGame counter no matter what\r\n            lastOpenGame = gameID;\r\n        }\r\n        // if the game wasn't valid, throw an error\r\n        assert(openGames[gameID].valid);\r\n        // set msg sender as this game's player 2\r\n        Player storage challenger = playerTrampoline;\r\n        challenger.playerAddress = msg.sender;\r\n        challenger.valid = true;\r\n        challenger.hasPaidStake = false;\r\n        openGames[gameID].players[1] = challenger;\r\n        // update this game's status\r\n        openGames[gameID].state = GameStates.SETTING_STAKE;\r\n        // alert the players\r\n        emit GameStart(gameID, openGames[gameID].players[0].playerAddress, msg.sender);\r\n        return;\r\n    }\r\n\r\n    function checkGameState(uint gameID) public view returns (GameStates) {\r\n        if (openGames[gameID].valid){\r\n            return openGames[gameID].state;\r\n        }\r\n        else \r\n            return(GameStates.NONE);\r\n    }\r\n\r\n    function checkGamePlayerOne(uint gameID) public view returns (address) {\r\n        if (openGames[gameID].valid && openGames[gameID].players[0].valid){\r\n            return openGames[gameID].players[0].playerAddress;\r\n        }\r\n        else \r\n            return(address(0));\r\n    }\r\n\r\n    function checkGamePlayerTwo(uint gameID) public view returns (address) {\r\n        if (openGames[gameID].valid && openGames[gameID].players[1].valid){\r\n            return openGames[gameID].players[1].playerAddress;\r\n        }\r\n        else \r\n            return(address(0));\r\n    }\r\n\r\n    // Function to propose and agree upon a stake between players\r\n    function proposeStake(uint gameID, uint stakeValue) gameExists(gameID) isInGame(gameID) assertState(gameID, GameStates.SETTING_STAKE) public{\r\n        Game memory game = openGames[gameID];\r\n        // Check whether or not this player's opponent has already proposed a stake\r\n        uint opponentIndex;\r\n        uint stakerIndex;\r\n        if(msg.sender == game.players[0].playerAddress){\r\n            opponentIndex = 1;\r\n            stakerIndex = 0;\r\n        } else {\r\n            opponentIndex = 0;\r\n            stakerIndex = 1;\r\n        }\r\n        uint opponentStake = game.players[opponentIndex].proposedStake;\r\n        // set this player's proposed stake to their message\r\n        openGames[gameID].players[stakerIndex].proposedStake = stakeValue;\r\n        // if the opponent has proposed a stake we check whether or not it equals the one proposed by us\r\n        // 0 is not a valid stake\r\n        if(opponentStake != 0 && opponentStake == stakeValue){\r\n            openGames[gameID].decidedStake = stakeValue;\r\n            openGames[gameID].state = GameStates.ACCEPTING_PAYMENT;\r\n            emit GamePayable(gameID, game.players[0].playerAddress, game.players[1].playerAddress, stakeValue);\r\n        }else{\r\n            emit SuggestedStake(gameID, msg.sender, game.players[opponentIndex].playerAddress, stakeValue);\r\n        }\r\n        return;\r\n    }\r\n\r\n    function checkStakePlayerOne(uint gameID) public view returns (uint) {\r\n        if (openGames[gameID].valid && openGames[gameID].players[0].valid){\r\n            return openGames[gameID].players[0].proposedStake;\r\n        }\r\n        else \r\n            return(0);\r\n    }\r\n\r\n    function checkStakePlayerTwo(uint gameID) public view returns (uint) {\r\n        if (openGames[gameID].valid && openGames[gameID].players[1].valid){\r\n            return openGames[gameID].players[1].proposedStake;\r\n        }\r\n        else \r\n            return(0);\r\n    }\r\n\r\n    function checkStakeGame(uint gameID) public view returns (uint) {\r\n        if (openGames[gameID].valid && openGames[gameID].players[0].valid && openGames[gameID].players[1].valid)\r\n            return openGames[gameID].decidedStake;\r\n        else\r\n            return(0);\r\n    }\r\n    \r\n    function payStake(uint gameID) gameExists(gameID) isInGame(gameID) assertState(gameID, GameStates.ACCEPTING_PAYMENT) external payable {\r\n        if((msg.sender == openGames[gameID].players[0].playerAddress && openGames[gameID].players[0].hasPaidStake) ||\r\n            (msg.sender == openGames[gameID].players[1].playerAddress && openGames[gameID].players[1].hasPaidStake))\r\n            revert StakeAlreadyDeposited();\r\n        // only accept payments for the exact amount owed\r\n        if(msg.value != openGames[gameID].decidedStake)\r\n            revert WrongStakeAmount(openGames[gameID].decidedStake);\r\n        // now we check who the sender is\r\n        uint senderIndex;\r\n        uint challengerIndex;\r\n        if(msg.sender == openGames[gameID].players[0].playerAddress){\r\n            senderIndex = 0;\r\n            challengerIndex = 1;\r\n        }else{\r\n            senderIndex = 1;\r\n            challengerIndex = 0;\r\n        }\r\n        openGames[gameID].players[senderIndex].hasPaidStake = true;\r\n        emit StakePaid(gameID, msg.sender);\r\n        // if both players have paid the owed stake the game can move on to its next state\r\n        if(openGames[gameID].players[challengerIndex].hasPaidStake){\r\n            openGames[gameID].state = GameStates.PLACING_SHIPS;\r\n            emit AcceptingBoards(gameID);\r\n        }\r\n    }\r\n\r\n    function checkPaymentPlayerOne(uint gameID) public view returns (bool) {\r\n        if (openGames[gameID].valid && openGames[gameID].players[0].valid){\r\n            return openGames[gameID].players[0].hasPaidStake;\r\n        }\r\n        else \r\n            return(false);\r\n    }\r\n\r\n    function checkPaymentPlayerTwo(uint gameID) public view returns (bool) {\r\n        if (openGames[gameID].valid && openGames[gameID].players[1].valid){\r\n            return openGames[gameID].players[1].hasPaidStake;\r\n        }\r\n        else \r\n            return(false);\r\n    }\r\n\r\n    function checkGamePayable(uint gameID) public view returns (bool) {\r\n        if (openGames[gameID].valid && openGames[gameID].players[0].valid && openGames[gameID].players[1].valid)\r\n            return openGames[gameID].canPay;\r\n        else\r\n            return(false);\r\n    }\r\n    \r\n    // TODO: Write Tests for everything below this line\r\n    // TODO: Maybe move the Board instantiation outside of this function\r\n    function PlaceShips(uint gameID, bytes32 boardRoot) gameExists(gameID) isInGame(gameID) assertState(gameID, GameStates.PLACING_SHIPS) public{\r\n        uint index;\r\n        uint oppIdx;\r\n        msg.sender == openGames[gameID].players[0].playerAddress ? index = 0 : index = 1;\r\n        msg.sender == openGames[gameID].players[0].playerAddress ? oppIdx = 1 : oppIdx = 0;\r\n        require(openGames[gameID].players[index].boardTreeRoot == 0x0);\r\n        // Instantiate a new shots board\r\n        // this would be incredibly inefficient on anything larger than our current values\r\n        // since we are playing HUMAN games, we use human values of BOARD_SIZE\r\n        // otherwise a sparse implementation is preferred\r\n        for(uint8 i = 0; i < BOARD_SIZE; i++){\r\n            for(uint8 j = 0; j < BOARD_SIZE; j++){\r\n                trampolineShots[i][j] = false;\r\n            }\r\n        }\r\n        // Instantiate the Board struct itself and assign it to a player\r\n        bool[BOARD_SIZE][BOARD_SIZE] storage playerShots = trampolineShots;\r\n        Board storage playerBoard = trampolineBoard;\r\n        trampolineBoard.valid = true;\r\n        trampolineBoard.shots = playerShots;\r\n        trampolineBoard.totalPieces = NUMBER_OF_SHIP_SQUARES;\r\n        trampolineBoard.totalShots = BOARD_SIZE;\r\n        openGames[gameID].players[index].shots_board = playerBoard;\r\n        // save the received boardRoot, finally\r\n        openGames[gameID].players[index].boardTreeRoot = boardRoot;\r\n        if(openGames[gameID].players[oppIdx].boardTreeRoot != 0x0){\r\n            openGames[gameID].state = GameStates.P0_FIRING;\r\n            emit PlayerZeroRound(gameID);\r\n        }\r\n    }\r\n\r\n    function getPlayerBoardRoot(uint gameID, uint index) playerInRange(gameID, index) gameExists(gameID) private view returns(bytes32){\r\n        return openGames[gameID].players[index].boardTreeRoot;\r\n    }\r\n\r\n    function getPlayerOneBoardRoot(uint gameID) public view returns (bytes32){\r\n        return getPlayerBoardRoot(gameID, 0);\r\n    }\r\n\r\n    function getPlayerTwoBoardRoot(uint gameID) public view returns (bytes32){\r\n        return getPlayerBoardRoot(gameID, 1);\r\n    }\r\n\r\n    // We should never have any use for these following functions\r\n    // Marking them as DEPRECATED now\r\n    // we will see if they survive the cutting room floor\r\n    \r\n    // DEPRECATED\r\n    function getPlayerShotsBoard(uint gameID, uint index) playerInRange(gameID, index) gameExists(gameID) private view returns(Board memory){\r\n        return openGames[gameID].players[index].shots_board;\r\n    }\r\n\r\n    // DEPRECATED\r\n    function getPlayerOneShotsBoard(uint gameID) public view returns (Board memory){\r\n        return getPlayerShotsBoard(gameID, 0);\r\n    }\r\n\r\n    // DEPRECATED\r\n    function getPlayerTwoShotsBoard(uint gameID) public view returns (Board memory){\r\n        return getPlayerShotsBoard(gameID, 1);\r\n    }\r\n\r\n    function VerifyWinner(uint gameID, uint winnerIndex, uint loserIndex) private {\r\n        address verifiedWinner;\r\n        // TODO: verify the merkle board for the winner first of all\r\n        // this requires asking the winner for their board\r\n        // if that fails, verify it for the loser and pay THEM out if it succeeds\r\n\r\n        // finally set the contract as payable\r\n        openGames[gameID].canPay = true;\r\n        openGames[gameID].winner = verifiedWinner;\r\n        emit Victory(gameID, msg.sender);\r\n    }\r\n\r\n    // locations are 0-indexed\r\n    function FireTorpedo(uint gameID, uint8 location_x, uint8 location_y) gameExists(gameID) isInGame(gameID) public {\r\n        uint index;\r\n        uint oppIdx;\r\n        GameStates legalState;\r\n        if(msg.sender == openGames[gameID].players[0].playerAddress){\r\n            index = 0;\r\n            oppIdx = 1;\r\n            legalState = GameStates.P0_FIRING;\r\n        } else {\r\n            index = 1;\r\n            oppIdx = 0;\r\n            legalState = GameStates.P1_FIRING;\r\n        }\r\n        assert(openGames[gameID].state == legalState);\r\n        // Rotate into correct next state\r\n        legalState == GameStates.P0_FIRING ? legalState = GameStates.P1_CHECKING : legalState = GameStates.P0_CHECKING;\r\n        openGames[gameID].state = legalState;\r\n        // Now for some game logic\r\n        // whatever happens, we lower the totalShots counter of our system by one\r\n        openGames[gameID].players[index].shots_board.totalShots--;\r\n        // Then we evaluate whether or not this is zero. If it is, This party wins automatically.\r\n        // We do this here to avoid opponents stalling out on the reply for 5 blocks on what is a foregone conclusion\r\n        if (openGames[gameID].players[index].shots_board.totalShots == 0){\r\n            VerifyWinner(gameID, index, oppIdx);\r\n        } else {\r\n            emit ShotsFired(gameID, location_x, location_y);\r\n        }\r\n    }\r\n}",
  "sourcePath": "F:\\Documents\\Code\\School\\P2PBC\\Battleships\\contracts\\Battleships.sol",
  "compiler": {
    "name": "solc",
    "version": "0.8.19+commit.7dd6d404.Emscripten.clang"
  },
  "schemaVersion": "3.4.13",
  "updatedAt": "2023-05-21T09:32:15.270Z",
  "networkType": "ethereum",
  "devdoc": {
    "kind": "dev",
    "methods": {},
    "version": 1
  },
  "userdoc": {
    "kind": "user",
    "methods": {},
    "version": 1
  }
}