{
  "contractName": "Battleships",
  "abi": [
    {
      "inputs": [],
      "stateMutability": "nonpayable",
      "type": "constructor"
    },
    {
      "inputs": [],
      "name": "InvalidGameID",
      "type": "error"
    },
    {
      "inputs": [],
      "name": "NotInGame",
      "type": "error"
    },
    {
      "inputs": [],
      "name": "StakeAlreadyDeposited",
      "type": "error"
    },
    {
      "inputs": [
        {
          "internalType": "uint256",
          "name": "expectedStakeValue",
          "type": "uint256"
        }
      ],
      "name": "WrongStakeAmount",
      "type": "error"
    },
    {
      "anonymous": false,
      "inputs": [
        {
          "indexed": false,
          "internalType": "uint256",
          "name": "_gameID",
          "type": "uint256"
        }
      ],
      "name": "AcceptingBoards",
      "type": "event"
    },
    {
      "anonymous": false,
      "inputs": [
        {
          "indexed": false,
          "internalType": "uint256",
          "name": "_gameID",
          "type": "uint256"
        },
        {
          "indexed": false,
          "internalType": "address",
          "name": "_player",
          "type": "address"
        }
      ],
      "name": "BoardAcknowledgeEvent",
      "type": "event"
    },
    {
      "anonymous": false,
      "inputs": [
        {
          "indexed": false,
          "internalType": "uint256",
          "name": "_gameID",
          "type": "uint256"
        },
        {
          "indexed": false,
          "internalType": "address",
          "name": "_host",
          "type": "address"
        },
        {
          "indexed": false,
          "internalType": "address",
          "name": "_challenger",
          "type": "address"
        },
        {
          "indexed": false,
          "internalType": "uint256",
          "name": "_stakeValue",
          "type": "uint256"
        }
      ],
      "name": "GamePayable",
      "type": "event"
    },
    {
      "anonymous": false,
      "inputs": [
        {
          "indexed": false,
          "internalType": "uint256",
          "name": "_gameID",
          "type": "uint256"
        },
        {
          "indexed": false,
          "internalType": "address",
          "name": "_host",
          "type": "address"
        },
        {
          "indexed": false,
          "internalType": "address",
          "name": "_challenger",
          "type": "address"
        }
      ],
      "name": "GameStart",
      "type": "event"
    },
    {
      "anonymous": false,
      "inputs": [
        {
          "indexed": false,
          "internalType": "uint256",
          "name": "_gameID",
          "type": "uint256"
        }
      ],
      "name": "PlayerZeroTurn",
      "type": "event"
    },
    {
      "anonymous": false,
      "inputs": [
        {
          "indexed": false,
          "internalType": "address",
          "name": "_from",
          "type": "address"
        },
        {
          "indexed": false,
          "internalType": "address",
          "name": "_to",
          "type": "address"
        },
        {
          "indexed": false,
          "internalType": "uint256",
          "name": "_gameID",
          "type": "uint256"
        }
      ],
      "name": "ShareID",
      "type": "event"
    },
    {
      "anonymous": false,
      "inputs": [
        {
          "indexed": false,
          "internalType": "uint256",
          "name": "_gameID",
          "type": "uint256"
        },
        {
          "indexed": false,
          "internalType": "uint8",
          "name": "_location",
          "type": "uint8"
        },
        {
          "indexed": false,
          "internalType": "bool",
          "name": "_claim",
          "type": "bool"
        },
        {
          "indexed": false,
          "internalType": "bool",
          "name": "_validity",
          "type": "bool"
        }
      ],
      "name": "ShotsChecked",
      "type": "event"
    },
    {
      "anonymous": false,
      "inputs": [
        {
          "indexed": false,
          "internalType": "uint256",
          "name": "_gameID",
          "type": "uint256"
        },
        {
          "indexed": false,
          "internalType": "uint8",
          "name": "_location",
          "type": "uint8"
        }
      ],
      "name": "ShotsFired",
      "type": "event"
    },
    {
      "anonymous": false,
      "inputs": [
        {
          "indexed": false,
          "internalType": "uint256",
          "name": "_gameID",
          "type": "uint256"
        },
        {
          "indexed": false,
          "internalType": "address",
          "name": "_whoPaid",
          "type": "address"
        }
      ],
      "name": "StakePaid",
      "type": "event"
    },
    {
      "anonymous": false,
      "inputs": [
        {
          "indexed": false,
          "internalType": "uint256",
          "name": "_gameID",
          "type": "uint256"
        },
        {
          "indexed": false,
          "internalType": "address",
          "name": "_from",
          "type": "address"
        },
        {
          "indexed": false,
          "internalType": "address",
          "name": "_to",
          "type": "address"
        },
        {
          "indexed": false,
          "internalType": "uint256",
          "name": "_stakeValue",
          "type": "uint256"
        }
      ],
      "name": "SuggestedStake",
      "type": "event"
    },
    {
      "anonymous": false,
      "inputs": [
        {
          "indexed": false,
          "internalType": "uint256",
          "name": "_gameID",
          "type": "uint256"
        },
        {
          "indexed": false,
          "internalType": "address",
          "name": "_winner",
          "type": "address"
        }
      ],
      "name": "Victory",
      "type": "event"
    },
    {
      "inputs": [],
      "name": "BOARD_SIZE",
      "outputs": [
        {
          "internalType": "uint8",
          "name": "",
          "type": "uint8"
        }
      ],
      "stateMutability": "view",
      "type": "function",
      "constant": true
    },
    {
      "inputs": [],
      "name": "NUMBER_OF_SHIP_SQUARES",
      "outputs": [
        {
          "internalType": "uint8",
          "name": "",
          "type": "uint8"
        }
      ],
      "stateMutability": "view",
      "type": "function",
      "constant": true
    },
    {
      "inputs": [
        {
          "internalType": "bool",
          "name": "isPrivate",
          "type": "bool"
        }
      ],
      "name": "newGame",
      "outputs": [],
      "stateMutability": "nonpayable",
      "type": "function"
    },
    {
      "inputs": [
        {
          "internalType": "uint256",
          "name": "gameID",
          "type": "uint256"
        }
      ],
      "name": "joinGame",
      "outputs": [],
      "stateMutability": "nonpayable",
      "type": "function"
    },
    {
      "inputs": [
        {
          "internalType": "uint256",
          "name": "gameID",
          "type": "uint256"
        }
      ],
      "name": "checkGameState",
      "outputs": [
        {
          "internalType": "enum Battleships.GameStates",
          "name": "",
          "type": "uint8"
        }
      ],
      "stateMutability": "view",
      "type": "function",
      "constant": true
    },
    {
      "inputs": [
        {
          "internalType": "uint256",
          "name": "gameID",
          "type": "uint256"
        }
      ],
      "name": "checkGamePlayerOne",
      "outputs": [
        {
          "internalType": "address",
          "name": "",
          "type": "address"
        }
      ],
      "stateMutability": "view",
      "type": "function",
      "constant": true
    },
    {
      "inputs": [
        {
          "internalType": "uint256",
          "name": "gameID",
          "type": "uint256"
        }
      ],
      "name": "checkGamePlayerTwo",
      "outputs": [
        {
          "internalType": "address",
          "name": "",
          "type": "address"
        }
      ],
      "stateMutability": "view",
      "type": "function",
      "constant": true
    },
    {
      "inputs": [
        {
          "internalType": "uint256",
          "name": "gameID",
          "type": "uint256"
        },
        {
          "internalType": "uint256",
          "name": "stakeValue",
          "type": "uint256"
        }
      ],
      "name": "proposeStake",
      "outputs": [],
      "stateMutability": "nonpayable",
      "type": "function"
    },
    {
      "inputs": [
        {
          "internalType": "uint256",
          "name": "gameID",
          "type": "uint256"
        }
      ],
      "name": "checkStakePlayerOne",
      "outputs": [
        {
          "internalType": "uint256",
          "name": "",
          "type": "uint256"
        }
      ],
      "stateMutability": "view",
      "type": "function",
      "constant": true
    },
    {
      "inputs": [
        {
          "internalType": "uint256",
          "name": "gameID",
          "type": "uint256"
        }
      ],
      "name": "checkStakePlayerTwo",
      "outputs": [
        {
          "internalType": "uint256",
          "name": "",
          "type": "uint256"
        }
      ],
      "stateMutability": "view",
      "type": "function",
      "constant": true
    },
    {
      "inputs": [
        {
          "internalType": "uint256",
          "name": "gameID",
          "type": "uint256"
        }
      ],
      "name": "checkStakeGame",
      "outputs": [
        {
          "internalType": "uint256",
          "name": "",
          "type": "uint256"
        }
      ],
      "stateMutability": "view",
      "type": "function",
      "constant": true
    },
    {
      "inputs": [
        {
          "internalType": "uint256",
          "name": "gameID",
          "type": "uint256"
        }
      ],
      "name": "payStake",
      "outputs": [],
      "stateMutability": "payable",
      "type": "function",
      "payable": true
    },
    {
      "inputs": [
        {
          "internalType": "uint256",
          "name": "gameID",
          "type": "uint256"
        }
      ],
      "name": "checkPaymentPlayerOne",
      "outputs": [
        {
          "internalType": "bool",
          "name": "",
          "type": "bool"
        }
      ],
      "stateMutability": "view",
      "type": "function",
      "constant": true
    },
    {
      "inputs": [
        {
          "internalType": "uint256",
          "name": "gameID",
          "type": "uint256"
        }
      ],
      "name": "checkPaymentPlayerTwo",
      "outputs": [
        {
          "internalType": "bool",
          "name": "",
          "type": "bool"
        }
      ],
      "stateMutability": "view",
      "type": "function",
      "constant": true
    },
    {
      "inputs": [
        {
          "internalType": "uint256",
          "name": "gameID",
          "type": "uint256"
        }
      ],
      "name": "checkGamePayable",
      "outputs": [
        {
          "internalType": "bool",
          "name": "",
          "type": "bool"
        }
      ],
      "stateMutability": "view",
      "type": "function",
      "constant": true
    },
    {
      "inputs": [
        {
          "internalType": "uint256",
          "name": "gameID",
          "type": "uint256"
        },
        {
          "internalType": "bytes32",
          "name": "boardRoot",
          "type": "bytes32"
        }
      ],
      "name": "PlaceShips",
      "outputs": [],
      "stateMutability": "nonpayable",
      "type": "function"
    },
    {
      "inputs": [
        {
          "internalType": "uint256",
          "name": "gameID",
          "type": "uint256"
        }
      ],
      "name": "getPlayerOneBoardRoot",
      "outputs": [
        {
          "internalType": "bytes32",
          "name": "",
          "type": "bytes32"
        }
      ],
      "stateMutability": "view",
      "type": "function",
      "constant": true
    },
    {
      "inputs": [
        {
          "internalType": "uint256",
          "name": "gameID",
          "type": "uint256"
        }
      ],
      "name": "getPlayerTwoBoardRoot",
      "outputs": [
        {
          "internalType": "bytes32",
          "name": "",
          "type": "bytes32"
        }
      ],
      "stateMutability": "view",
      "type": "function",
      "constant": true
    },
    {
      "inputs": [
        {
          "internalType": "uint256",
          "name": "gameID",
          "type": "uint256"
        }
      ],
      "name": "getPlayerOneShotsBoard",
      "outputs": [
        {
          "internalType": "bool",
          "name": "",
          "type": "bool"
        }
      ],
      "stateMutability": "view",
      "type": "function",
      "constant": true
    },
    {
      "inputs": [
        {
          "internalType": "uint256",
          "name": "gameID",
          "type": "uint256"
        }
      ],
      "name": "getPlayerTwoShotsBoard",
      "outputs": [
        {
          "internalType": "bool",
          "name": "",
          "type": "bool"
        }
      ],
      "stateMutability": "view",
      "type": "function",
      "constant": true
    },
    {
      "inputs": [
        {
          "internalType": "uint256",
          "name": "gameID",
          "type": "uint256"
        },
        {
          "internalType": "uint8",
          "name": "location",
          "type": "uint8"
        }
      ],
      "name": "FireTorpedo",
      "outputs": [],
      "stateMutability": "nonpayable",
      "type": "function"
    },
    {
      "inputs": [
        {
          "internalType": "uint256",
          "name": "gameID",
          "type": "uint256"
        },
        {
          "internalType": "uint8",
          "name": "location",
          "type": "uint8"
        },
        {
          "internalType": "bool",
          "name": "isHit",
          "type": "bool"
        },
        {
          "internalType": "bytes32",
          "name": "leaf",
          "type": "bytes32"
        },
        {
          "internalType": "bytes32[]",
          "name": "proof",
          "type": "bytes32[]"
        }
      ],
      "name": "ConfirmShot",
      "outputs": [],
      "stateMutability": "nonpayable",
      "type": "function"
    },
    {
      "inputs": [
        {
          "internalType": "uint8",
          "name": "tile",
          "type": "uint8"
        },
        {
          "internalType": "bool",
          "name": "ship",
          "type": "bool"
        }
      ],
      "name": "GenLeafNode",
      "outputs": [
        {
          "internalType": "bytes32",
          "name": "",
          "type": "bytes32"
        }
      ],
      "stateMutability": "pure",
      "type": "function",
      "constant": true
    },
    {
      "inputs": [
        {
          "internalType": "uint8",
          "name": "tile",
          "type": "uint8"
        },
        {
          "internalType": "bool",
          "name": "ship",
          "type": "bool"
        }
      ],
      "name": "PreviewLeafNode",
      "outputs": [
        {
          "internalType": "bytes",
          "name": "",
          "type": "bytes"
        }
      ],
      "stateMutability": "pure",
      "type": "function",
      "constant": true
    },
    {
      "inputs": [
        {
          "internalType": "bytes32",
          "name": "leaf",
          "type": "bytes32"
        },
        {
          "internalType": "bytes32",
          "name": "root",
          "type": "bytes32"
        },
        {
          "internalType": "bytes32[]",
          "name": "proof",
          "type": "bytes32[]"
        }
      ],
      "name": "QuickCheck",
      "outputs": [
        {
          "internalType": "bool",
          "name": "",
          "type": "bool"
        }
      ],
      "stateMutability": "nonpayable",
      "type": "function"
    },
    {
      "inputs": [
        {
          "internalType": "bytes32",
          "name": "proof",
          "type": "bytes32"
        }
      ],
      "name": "EchoBytes",
      "outputs": [
        {
          "internalType": "bytes32",
          "name": "",
          "type": "bytes32"
        }
      ],
      "stateMutability": "pure",
      "type": "function",
      "constant": true
    },
    {
      "inputs": [
        {
          "internalType": "bytes32[]",
          "name": "proof",
          "type": "bytes32[]"
        }
      ],
      "name": "EchoProof",
      "outputs": [
        {
          "internalType": "bytes32[]",
          "name": "",
          "type": "bytes32[]"
        }
      ],
      "stateMutability": "pure",
      "type": "function",
      "constant": true
    }
  ],
  "bytecode": "0x608060405234801561001057600080fd5b506001601b819055506001601c8190555061509f806100306000396000f3fe60806040526004361061019c5760003560e01c8063699f5aeb116100ec578063d46d07771161008a578063ea8202e911610064578063ea8202e914610688578063efaa55a0146106c5578063f28ae7dd146106ee578063fba523b7146107175761019c565b8063d46d0777146105f7578063dc4a3e9514610634578063e0dd9bb41461065f5761019c565b8063aa3ee915116100c6578063aa3ee91514610503578063aab41fc514610540578063bd7c88f81461057d578063c8e2ef5d146105ba5761019c565b8063699f5aeb1461046057806379fbd95d1461049d5780639a7e4cea146104c65761019c565b80632b170aac11610159578063542c015111610133578063542c01511461037e57806354d83c65146103bb5780635f7dbd2b146103f85780636930aa4d146104355761019c565b80632b170aac146102db5780634278d986146103045780635345f533146103415761019c565b8063012b61f0146101a157806302ecb0e8146101de5780630e37dcd01461021b5780630eeca53e1461023757806316337b89146102755780631de954251461029e575b600080fd5b3480156101ad57600080fd5b506101c860048036038101906101c3919061462b565b610754565b6040516101d59190614673565b60405180910390f35b3480156101ea57600080fd5b506102056004803603810190610200919061462b565b61083c565b6040516102129190614673565b60405180910390f35b6102356004803603810190610230919061462b565b6108f9565b005b34801561024357600080fd5b5061025e600480360381019061025991906146f3565b61118f565b60405161026c9291906147bb565b60405180910390f35b34801561028157600080fd5b5061029c60048036038101906102979190614815565b61119f565b005b3480156102aa57600080fd5b506102c560048036038101906102c0919061462b565b611966565b6040516102d29190614896565b60405180910390f35b3480156102e757600080fd5b5061030260048036038101906102fd91906148dd565b611a36565b005b34801561031057600080fd5b5061032b6004803603810190610326919061462b565b611e7a565b6040516103389190614919565b60405180910390f35b34801561034d57600080fd5b506103686004803603810190610363919061462b565b611e8e565b6040516103759190614673565b60405180910390f35b34801561038a57600080fd5b506103a560048036038101906103a0919061462b565b611ea2565b6040516103b29190614673565b60405180910390f35b3480156103c757600080fd5b506103e260048036038101906103dd919061462b565b611eb6565b6040516103ef9190614673565b60405180910390f35b34801561040457600080fd5b5061041f600480360381019061041a919061462b565b611f73565b60405161042c9190614919565b60405180910390f35b34801561044157600080fd5b5061044a611f87565b6040516104579190614950565b60405180910390f35b34801561046c57600080fd5b506104876004803603810190610482919061462b565b611f8c565b604051610494919061497a565b60405180910390f35b3480156104a957600080fd5b506104c460048036038101906104bf91906149c1565b612067565b005b3480156104d257600080fd5b506104ed60048036038101906104e8919061462b565b612943565b6040516104fa9190614ad2565b60405180910390f35b34801561050f57600080fd5b5061052a6004803603810190610525919061462b565b6129a1565b604051610537919061497a565b60405180910390f35b34801561054c57600080fd5b5061056760048036038101906105629190614aed565b612a51565b6040516105749190614673565b60405180910390f35b34801561058957600080fd5b506105a4600480360381019061059f9190614b61565b612aad565b6040516105b19190614919565b60405180910390f35b3480156105c657600080fd5b506105e160048036038101906105dc9190614b61565b612ae0565b6040516105ee9190614c31565b60405180910390f35b34801561060357600080fd5b5061061e6004803603810190610619919061462b565b612b0c565b60405161062b9190614896565b60405180910390f35b34801561064057600080fd5b50610649612bdc565b6040516106569190614950565b60405180910390f35b34801561066b57600080fd5b5061068660048036038101906106819190614c53565b612be1565b005b34801561069457600080fd5b506106af60048036038101906106aa9190614c93565b613239565b6040516106bc9190614919565b60405180910390f35b3480156106d157600080fd5b506106ec60048036038101906106e7919061462b565b613243565b005b3480156106fa57600080fd5b5061071560048036038101906107109190614cc0565b613677565b005b34801561072357600080fd5b5061073e6004803603810190610739919061462b565b613f7d565b60405161074b919061497a565b60405180910390f35b600080600083815260200190815260200160002060000160009054906101000a900460ff1680156107be57506000808381526020019081526020016000206001016000600281106107a8576107a7614d00565b5b6006020160000160009054906101000a900460ff165b801561080357506000808381526020019081526020016000206001016001600281106107ed576107ec614d00565b5b6006020160000160009054906101000a900460ff165b156108325760008083815260200190815260200160002060000160019054906101000a900460ff169050610837565b600090505b919050565b600080600083815260200190815260200160002060000160009054906101000a900460ff1680156108a657506000808381526020019081526020016000206001016001600281106108905761088f614d00565b5b6006020160000160009054906101000a900460ff165b156108ef576000808381526020019081526020016000206001016001600281106108d3576108d2614d00565b5b6006020160000160019054906101000a900460ff1690506108f4565b600090505b919050565b8060008082815260200190815260200160002060000160009054906101000a900460ff1661092a57610929614d2f565b5b813373ffffffffffffffffffffffffffffffffffffffff1660008083815260200190815260200160002060010160006002811061096a57610969614d00565b5b6006020160000160029054906101000a900473ffffffffffffffffffffffffffffffffffffffff1673ffffffffffffffffffffffffffffffffffffffff161480610a2e57503373ffffffffffffffffffffffffffffffffffffffff166000808381526020019081526020016000206001016001600281106109ee576109ed614d00565b5b6006020160000160029054906101000a900473ffffffffffffffffffffffffffffffffffffffff1673ffffffffffffffffffffffffffffffffffffffff16145b610a3b57610a3a614d2f565b5b82600260046009811115610a5257610a51614a5b565b5b816009811115610a6557610a64614a5b565b5b14158015610a98575060066009811115610a8257610a81614a5b565b5b816009811115610a9557610a94614a5b565b5b14155b8015610ac9575060076009811115610ab357610ab2614a5b565b5b816009811115610ac657610ac5614a5b565b5b14155b8015610afa575060056009811115610ae457610ae3614a5b565b5b816009811115610af757610af6614a5b565b5b14155b15610b5a57806009811115610b1257610b11614a5b565b5b600080848152602001908152602001600020600d0160009054906101000a900460ff166009811115610b4757610b46614a5b565b5b14610b5557610b54614d2f565b5b610d82565b6000610b658361402d565b905060046009811115610b7b57610b7a614a5b565b5b826009811115610b8e57610b8d614a5b565b5b03610c6b57600081600060028110610ba957610ba8614d00565b5b602002015103610c0e57816009811115610bc657610bc5614a5b565b5b600080858152602001908152602001600020600d0160009054906101000a900460ff166009811115610bfb57610bfa614a5b565b5b14610c0957610c08614d2f565b5b610c66565b60066009811115610c2257610c21614a5b565b5b600080858152602001908152602001600020600d0160009054906101000a900460ff166009811115610c5757610c56614a5b565b5b14610c6557610c64614d2f565b5b5b610d80565b60076009811115610c7f57610c7e614a5b565b5b826009811115610c9257610c91614a5b565b5b03610d6f57600081600060028110610cad57610cac614d00565b5b602002015103610d1257816009811115610cca57610cc9614a5b565b5b600080858152602001908152602001600020600d0160009054906101000a900460ff166009811115610cff57610cfe614a5b565b5b14610d0d57610d0c614d2f565b5b610d6a565b60056009811115610d2657610d25614a5b565b5b600080858152602001908152602001600020600d0160009054906101000a900460ff166009811115610d5b57610d5a614a5b565b5b14610d6957610d68614d2f565b5b5b610d7f565b6000610d7e57610d7d614d2f565b5b5b5b505b600080868152602001908152602001600020600101600060028110610daa57610da9614d00565b5b6006020160000160029054906101000a900473ffffffffffffffffffffffffffffffffffffffff1673ffffffffffffffffffffffffffffffffffffffff163373ffffffffffffffffffffffffffffffffffffffff16148015610e455750600080868152602001908152602001600020600101600060028110610e2f57610e2e614d00565b5b6006020160000160019054906101000a900460ff165b80610f0f5750600080868152602001908152602001600020600101600160028110610e7357610e72614d00565b5b6006020160000160029054906101000a900473ffffffffffffffffffffffffffffffffffffffff1673ffffffffffffffffffffffffffffffffffffffff163373ffffffffffffffffffffffffffffffffffffffff16148015610f0e5750600080868152602001908152602001600020600101600160028110610ef857610ef7614d00565b5b6006020160000160019054906101000a900460ff165b5b15610f46576040517f5e558b2300000000000000000000000000000000000000000000000000000000815260040160405180910390fd5b600080868152602001908152602001600020600e01543414610fb457600080868152602001908152602001600020600e01546040517f66cb868a000000000000000000000000000000000000000000000000000000008152600401610fab919061497a565b60405180910390fd5b600080600080888152602001908152602001600020600101600060028110610fdf57610fde614d00565b5b6006020160000160029054906101000a900473ffffffffffffffffffffffffffffffffffffffff1673ffffffffffffffffffffffffffffffffffffffff163373ffffffffffffffffffffffffffffffffffffffff160361104657600091506001905061104f565b60019150600090505b6001600080898152602001908152602001600020600101836002811061107857611077614d00565b5b6006020160000160016101000a81548160ff0219169083151502179055507f95ddb9abe17699603c18cef7bcfd33947d19c8eb237e01edac0bd509b481339e87336040516110c7929190614d5e565b60405180910390a160008088815260200190815260200160002060010181600281106110f6576110f5614d00565b5b6006020160000160019054906101000a900460ff1615611186576003600080898152602001908152602001600020600d0160006101000a81548160ff0219169083600981111561114957611148614a5b565b5b02179055507f972651cf62ccc65bd2ba0fd996eb34701d5773844d3303545d5b4cb29738f1048760405161117d919061497a565b60405180910390a15b50505050505050565b3660008383915091509250929050565b8160008082815260200190815260200160002060000160009054906101000a900460ff166111d0576111cf614d2f565b5b823373ffffffffffffffffffffffffffffffffffffffff166000808381526020019081526020016000206001016000600281106112105761120f614d00565b5b6006020160000160029054906101000a900473ffffffffffffffffffffffffffffffffffffffff1673ffffffffffffffffffffffffffffffffffffffff1614806112d457503373ffffffffffffffffffffffffffffffffffffffff1660008083815260200190815260200160002060010160016002811061129457611293614d00565b5b6006020160000160029054906101000a900473ffffffffffffffffffffffffffffffffffffffff1673ffffffffffffffffffffffffffffffffffffffff16145b6112e1576112e0614d2f565b5b836003600460098111156112f8576112f7614a5b565b5b81600981111561130b5761130a614a5b565b5b1415801561133e57506006600981111561132857611327614a5b565b5b81600981111561133b5761133a614a5b565b5b14155b801561136f57506007600981111561135957611358614a5b565b5b81600981111561136c5761136b614a5b565b5b14155b80156113a057506005600981111561138a57611389614a5b565b5b81600981111561139d5761139c614a5b565b5b14155b15611400578060098111156113b8576113b7614a5b565b5b600080848152602001908152602001600020600d0160009054906101000a900460ff1660098111156113ed576113ec614a5b565b5b146113fb576113fa614d2f565b5b611628565b600061140b8361402d565b90506004600981111561142157611420614a5b565b5b82600981111561143457611433614a5b565b5b036115115760008160006002811061144f5761144e614d00565b5b6020020151036114b45781600981111561146c5761146b614a5b565b5b600080858152602001908152602001600020600d0160009054906101000a900460ff1660098111156114a1576114a0614a5b565b5b146114af576114ae614d2f565b5b61150c565b600660098111156114c8576114c7614a5b565b5b600080858152602001908152602001600020600d0160009054906101000a900460ff1660098111156114fd576114fc614a5b565b5b1461150b5761150a614d2f565b5b5b611626565b6007600981111561152557611524614a5b565b5b82600981111561153857611537614a5b565b5b036116155760008160006002811061155357611552614d00565b5b6020020151036115b8578160098111156115705761156f614a5b565b5b600080858152602001908152602001600020600d0160009054906101000a900460ff1660098111156115a5576115a4614a5b565b5b146115b3576115b2614d2f565b5b611610565b600560098111156115cc576115cb614a5b565b5b600080858152602001908152602001600020600d0160009054906101000a900460ff16600981111561160157611600614a5b565b5b1461160f5761160e614d2f565b5b5b611625565b600061162457611623614d2f565b5b5b5b505b60008060008089815260200190815260200160002060010160006002811061165357611652614d00565b5b6006020160000160029054906101000a900473ffffffffffffffffffffffffffffffffffffffff1673ffffffffffffffffffffffffffffffffffffffff163373ffffffffffffffffffffffffffffffffffffffff16146116b75760019150816116bd565b60009150815b506000808981526020019081526020016000206001016000600281106116e6576116e5614d00565b5b6006020160000160029054906101000a900473ffffffffffffffffffffffffffffffffffffffff1673ffffffffffffffffffffffffffffffffffffffff163373ffffffffffffffffffffffffffffffffffffffff161461174a576000905080611750565b60019050805b506000801b6000808a8152602001908152602001600020600101836002811061177c5761177b614d00565b5b60060201600201541461178e57600080fd5b6000601890506001601860000160006101000a81548160ff021916908315150217905550601460ff16601860010181905550600860ff16601860020181905550806000808b815260200190815260200160002060010184600281106117f6576117f5614d00565b5b600602016003016000820160009054906101000a900460ff168160000160006101000a81548160ff0219169083151502179055506001820154816001015560028201548160020155905050876000808b8152602001908152602001600020600101846002811061186957611868614d00565b5b60060201600201819055507fde8cdabe60db81138d1e5580b73440f47ba010dbd18575d18bad0b750987001e89336040516118a5929190614d5e565b60405180910390a16000801b6000808b815260200190815260200160002060010183600281106118d8576118d7614d00565b5b60060201600201541461195b5760046000808b8152602001908152602001600020600d0160006101000a81548160ff0219169083600981111561191e5761191d614a5b565b5b02179055507ff751b3d5e96ffa95a434b79874df7e232b82d5c688a5d61fd7b5c5ce8724712789604051611952919061497a565b60405180910390a15b505050505050505050565b600080600083815260200190815260200160002060000160009054906101000a900460ff1680156119d057506000808381526020019081526020016000206001016000600281106119ba576119b9614d00565b5b6006020160000160009054906101000a900460ff165b15611a2c576000808381526020019081526020016000206001016000600281106119fd576119fc614d00565b5b6006020160000160029054906101000a900473ffffffffffffffffffffffffffffffffffffffff169050611a31565b600090505b919050565b6000601b549050601b6000815480929190611a5090614db6565b9190505550600060019050600060129050338160000160026101000a81548173ffffffffffffffffffffffffffffffffffffffff021916908373ffffffffffffffffffffffffffffffffffffffff16021790555060018160000160006101000a81548160ff02191690831515021790555060008160000160016101000a81548160ff0219169083151502179055508082600101600060028110611af657611af5614d00565b5b600602016000820160009054906101000a900460ff168160000160006101000a81548160ff0219169083151502179055506000820160019054906101000a900460ff168160000160016101000a81548160ff0219169083151502179055506000820160029054906101000a900473ffffffffffffffffffffffffffffffffffffffff168160000160026101000a81548173ffffffffffffffffffffffffffffffffffffffff021916908373ffffffffffffffffffffffffffffffffffffffff160217905550600182015481600101556002820154816002015560038201816003016000820160009054906101000a900460ff168160000160006101000a81548160ff02191690831515021790555060018201548160010155600282015481600201555050905050600082600d0160006101000a81548160ff02191690836009811115611c4557611c44614a5b565b5b0217905550838260100160016101000a81548160ff02191690831515021790555060018260000160006101000a81548160ff02191690831515021790555060008260000160016101000a81548160ff021916908315150217905550816000808581526020019081526020016000206000820160009054906101000a900460ff168160000160006101000a81548160ff0219169083151502179055506000820160019054906101000a900460ff168160000160016101000a81548160ff0219169083151502179055506001820181600101906002611d239291906143c5565b50600d820160009054906101000a900460ff1681600d0160006101000a81548160ff02191690836009811115611d5c57611d5b614a5b565b5b0217905550600e82015481600e0155600f82015481600f01556010820160009054906101000a900460ff168160100160006101000a81548160ff0219169083151502179055506010820160019054906101000a900460ff168160100160016101000a81548160ff0219169083151502179055506010820160029054906101000a900473ffffffffffffffffffffffffffffffffffffffff168160100160026101000a81548173ffffffffffffffffffffffffffffffffffffffff021916908373ffffffffffffffffffffffffffffffffffffffff1602179055509050507f1edfba130181c8da1b98834639c59b5287912fcc01104c5a7a6e6c8cd194e302303385604051611e6c93929190614dfe565b60405180910390a150505050565b6000611e8782600161414a565b9050919050565b6000611e9b826001614226565b9050919050565b6000611eaf826000614226565b9050919050565b600080600083815260200190815260200160002060000160009054906101000a900460ff168015611f205750600080838152602001908152602001600020600101600060028110611f0a57611f09614d00565b5b6006020160000160009054906101000a900460ff165b15611f6957600080838152602001908152602001600020600101600060028110611f4d57611f4c614d00565b5b6006020160000160019054906101000a900460ff169050611f6e565b600090505b919050565b6000611f8082600061414a565b9050919050565b601481565b600080600083815260200190815260200160002060000160009054906101000a900460ff168015611ff65750600080838152602001908152602001600020600101600060028110611fe057611fdf614d00565b5b6006020160000160009054906101000a900460ff165b801561203b575060008083815260200190815260200160002060010160016002811061202557612024614d00565b5b6006020160000160009054906101000a900460ff165b1561205d57600080838152602001908152602001600020600e01549050612062565b600090505b919050565b8560008082815260200190815260200160002060000160009054906101000a900460ff1661209857612097614d2f565b5b863373ffffffffffffffffffffffffffffffffffffffff166000808381526020019081526020016000206001016000600281106120d8576120d7614d00565b5b6006020160000160029054906101000a900473ffffffffffffffffffffffffffffffffffffffff1673ffffffffffffffffffffffffffffffffffffffff16148061219c57503373ffffffffffffffffffffffffffffffffffffffff1660008083815260200190815260200160002060010160016002811061215c5761215b614d00565b5b6006020160000160029054906101000a900473ffffffffffffffffffffffffffffffffffffffff1673ffffffffffffffffffffffffffffffffffffffff16145b6121a9576121a8614d2f565b5b866008806121b79190614e35565b60ff168160ff16106121cc576121cb614d2f565b5b886007600460098111156121e3576121e2614a5b565b5b8160098111156121f6576121f5614a5b565b5b1415801561222957506006600981111561221357612212614a5b565b5b81600981111561222657612225614a5b565b5b14155b801561225a57506007600981111561224457612243614a5b565b5b81600981111561225757612256614a5b565b5b14155b801561228b57506005600981111561227557612274614a5b565b5b81600981111561228857612287614a5b565b5b14155b156122eb578060098111156122a3576122a2614a5b565b5b600080848152602001908152602001600020600d0160009054906101000a900460ff1660098111156122d8576122d7614a5b565b5b146122e6576122e5614d2f565b5b612513565b60006122f68361402d565b90506004600981111561230c5761230b614a5b565b5b82600981111561231f5761231e614a5b565b5b036123fc5760008160006002811061233a57612339614d00565b5b60200201510361239f5781600981111561235757612356614a5b565b5b600080858152602001908152602001600020600d0160009054906101000a900460ff16600981111561238c5761238b614a5b565b5b1461239a57612399614d2f565b5b6123f7565b600660098111156123b3576123b2614a5b565b5b600080858152602001908152602001600020600d0160009054906101000a900460ff1660098111156123e8576123e7614a5b565b5b146123f6576123f5614d2f565b5b5b612511565b600760098111156124105761240f614a5b565b5b82600981111561242357612422614a5b565b5b036125005760008160006002811061243e5761243d614d00565b5b6020020151036124a35781600981111561245b5761245a614a5b565b5b600080858152602001908152602001600020600d0160009054906101000a900460ff1660098111156124905761248f614a5b565b5b1461249e5761249d614d2f565b5b6124fb565b600560098111156124b7576124b6614a5b565b5b600080858152602001908152602001600020600d0160009054906101000a900460ff1660098111156124ec576124eb614a5b565b5b146124fa576124f9614d2f565b5b5b612510565b600061250f5761250e614d2f565b5b5b5b505b600061251e8c61402d565b905060008060008e8152602001908152602001600020604051806101200160405290816000820160009054906101000a900460ff161515151581526020016000820160019054906101000a900460ff1615151515815260200160018201600280602002604051908101604052809291906000905b8282101561269d578382600602016040518060c00160405290816000820160009054906101000a900460ff161515151581526020016000820160019054906101000a900460ff161515151581526020016000820160029054906101000a900473ffffffffffffffffffffffffffffffffffffffff1673ffffffffffffffffffffffffffffffffffffffff1673ffffffffffffffffffffffffffffffffffffffff1681526020016001820154815260200160028201548152602001600382016040518060600160405290816000820160009054906101000a900460ff16151515158152602001600182015481526020016002820154815250508152505081526020019060010190612592565b505050508152602001600d820160009054906101000a900460ff1660098111156126ca576126c9614a5b565b5b60098111156126dc576126db614a5b565b5b8152602001600e8201548152602001600f82015481526020016010820160009054906101000a900460ff161515151581526020016010820160019054906101000a900460ff161515151581526020016010820160029054906101000a900473ffffffffffffffffffffffffffffffffffffffff1673ffffffffffffffffffffffffffffffffffffffff1673ffffffffffffffffffffffffffffffffffffffff1681525050905061278c8c8c612aad565b8a1461279b5761279a614d2f565b5b6127de89898360400151856000600281106127b9576127b8614d00565b5b6020020151600281106127cf576127ce614d00565b5b6020020151608001518d614312565b156128f557600560098111156127f7576127f6614a5b565b5b6000808f8152602001908152602001600020600d0160009054906101000a900460ff16600981111561282c5761282b614a5b565b5b146128735760046000808f8152602001908152602001600020600d0160006101000a81548160ff0219169083600981111561286a57612869614a5b565b5b021790556128b1565b60066000808f8152602001908152602001600020600d0160006101000a81548160ff021916908360098111156128ac576128ab614a5b565b5b021790555b507f6b7f4cb32e4557bb0ec1ac014e9cf98e7eb88491d66436be28084edaf4ae0d078d8d8d60016040516128e89493929190614e72565b60405180910390a1612934565b7f6b7f4cb32e4557bb0ec1ac014e9cf98e7eb88491d66436be28084edaf4ae0d078d8d8d600060405161292b9493929190614e72565b60405180910390a15b50505050505050505050505050565b600080600083815260200190815260200160002060000160009054906101000a900460ff161561299757600080838152602001908152602001600020600d0160009054906101000a900460ff16905061299c565b600990505b919050565b600080600083815260200190815260200160002060000160009054906101000a900460ff168015612a0b57506000808381526020019081526020016000206001016001600281106129f5576129f4614d00565b5b6006020160000160009054906101000a900460ff165b15612a4757600080838152602001908152602001600020600101600160028110612a3857612a37614d00565b5b60060201600101549050612a4c565b600090505b919050565b600080612a6084848789614312565b90507f6b7f4cb32e4557bb0ec1ac014e9cf98e7eb88491d66436be28084edaf4ae0d07600080600084604051612a999493929190614f2d565b60405180910390a180915050949350505050565b60008282604051602001612ac2929190614f72565b60405160208183030381529060405280519060200120905092915050565b60608282604051602001612af5929190614f72565b604051602081830303815290604052905092915050565b600080600083815260200190815260200160002060000160009054906101000a900460ff168015612b765750600080838152602001908152602001600020600101600160028110612b6057612b5f614d00565b5b6006020160000160009054906101000a900460ff165b15612bd257600080838152602001908152602001600020600101600160028110612ba357612ba2614d00565b5b6006020160000160029054906101000a900473ffffffffffffffffffffffffffffffffffffffff169050612bd7565b600090505b919050565b600881565b8160008082815260200190815260200160002060000160009054906101000a900460ff16612c1257612c11614d2f565b5b823373ffffffffffffffffffffffffffffffffffffffff16600080838152602001908152602001600020600101600060028110612c5257612c51614d00565b5b6006020160000160029054906101000a900473ffffffffffffffffffffffffffffffffffffffff1673ffffffffffffffffffffffffffffffffffffffff161480612d1657503373ffffffffffffffffffffffffffffffffffffffff16600080838152602001908152602001600020600101600160028110612cd657612cd5614d00565b5b6006020160000160029054906101000a900473ffffffffffffffffffffffffffffffffffffffff1673ffffffffffffffffffffffffffffffffffffffff16145b612d2357612d22614d2f565b5b836004806009811115612d3957612d38614a5b565b5b816009811115612d4c57612d4b614a5b565b5b14158015612d7f575060066009811115612d6957612d68614a5b565b5b816009811115612d7c57612d7b614a5b565b5b14155b8015612db0575060076009811115612d9a57612d99614a5b565b5b816009811115612dad57612dac614a5b565b5b14155b8015612de1575060056009811115612dcb57612dca614a5b565b5b816009811115612dde57612ddd614a5b565b5b14155b15612e4157806009811115612df957612df8614a5b565b5b600080848152602001908152602001600020600d0160009054906101000a900460ff166009811115612e2e57612e2d614a5b565b5b14612e3c57612e3b614d2f565b5b613069565b6000612e4c8361402d565b905060046009811115612e6257612e61614a5b565b5b826009811115612e7557612e74614a5b565b5b03612f5257600081600060028110612e9057612e8f614d00565b5b602002015103612ef557816009811115612ead57612eac614a5b565b5b600080858152602001908152602001600020600d0160009054906101000a900460ff166009811115612ee257612ee1614a5b565b5b14612ef057612eef614d2f565b5b612f4d565b60066009811115612f0957612f08614a5b565b5b600080858152602001908152602001600020600d0160009054906101000a900460ff166009811115612f3e57612f3d614a5b565b5b14612f4c57612f4b614d2f565b5b5b613067565b60076009811115612f6657612f65614a5b565b5b826009811115612f7957612f78614a5b565b5b0361305657600081600060028110612f9457612f93614d00565b5b602002015103612ff957816009811115612fb157612fb0614a5b565b5b600080858152602001908152602001600020600d0160009054906101000a900460ff166009811115612fe657612fe5614a5b565b5b14612ff457612ff3614d2f565b5b613051565b6005600981111561300d5761300c614a5b565b5b600080858152602001908152602001600020600d0160009054906101000a900460ff16600981111561304257613041614a5b565b5b146130505761304f614d2f565b5b5b613066565b600061306557613064614d2f565b5b5b5b505b60006130748761402d565b90506004600981111561308a57613089614a5b565b5b600080898152602001908152602001600020600d0160009054906101000a900460ff1660098111156130bf576130be614a5b565b5b14613106576007600080898152602001908152602001600020600d0160006101000a81548160ff021916908360098111156130fd576130fc614a5b565b5b02179055613144565b6005600080898152602001908152602001600020600d0160006101000a81548160ff0219169083600981111561313f5761313e614a5b565b5b021790555b506000808881526020019081526020016000206001018160006002811061316e5761316d614d00565b5b60200201516002811061318457613183614d00565b5b60060201600301600201600081548092919061319f90614f9b565b91905055506000806000898152602001908152602001600020600101826000600281106131cf576131ce614d00565b5b6020020151600281106131e5576131e4614d00565b5b60060201600301600201540315613230577fdba0500edc5d1049fa27c54a56e9f0313f9a962ae79b418ea0cfdfb5565932868787604051613227929190614fc4565b60405180910390a15b50505050505050565b6000819050919050565b600081036133a857601c5490505b601b5481116133a0576001151560008083815260200190815260200160002060000160009054906101000a900460ff1615151480156132d657506000600981111561329f5761329e614a5b565b5b600080838152602001908152602001600020600d0160009054906101000a900460ff1660098111156132d4576132d3614a5b565b5b145b801561335d57503373ffffffffffffffffffffffffffffffffffffffff1660008083815260200190815260200160002060010160006002811061331c5761331b614d00565b5b6006020160000160029054906101000a900473ffffffffffffffffffffffffffffffffffffffff1673ffffffffffffffffffffffffffffffffffffffff1614155b8015613389575060008082815260200190815260200160002060100160019054906101000a900460ff16155b6133a057808061339890614db6565b915050613251565b80601c819055505b60008082815260200190815260200160002060000160009054906101000a900460ff166133d8576133d7614d2f565b5b600060129050338160000160026101000a81548173ffffffffffffffffffffffffffffffffffffffff021916908373ffffffffffffffffffffffffffffffffffffffff16021790555060018160000160006101000a81548160ff02191690831515021790555060008160000160016101000a81548160ff0219169083151502179055508060008084815260200190815260200160002060010160016002811061348457613483614d00565b5b600602016000820160009054906101000a900460ff168160000160006101000a81548160ff0219169083151502179055506000820160019054906101000a900460ff168160000160016101000a81548160ff0219169083151502179055506000820160029054906101000a900473ffffffffffffffffffffffffffffffffffffffff168160000160026101000a81548173ffffffffffffffffffffffffffffffffffffffff021916908373ffffffffffffffffffffffffffffffffffffffff160217905550600182015481600101556002820154816002015560038201816003016000820160009054906101000a900460ff168160000160006101000a81548160ff021916908315150217905550600182015481600101556002820154816002015550509050506001600080848152602001908152602001600020600d0160006101000a81548160ff021916908360098111156135e4576135e3614a5b565b5b02179055507fdf72bd9cb04731c1dfa0832a380e56504fda45508a7305083a9be0f343e934218260008085815260200190815260200160002060010160006002811061363357613632614d00565b5b6006020160000160029054906101000a900473ffffffffffffffffffffffffffffffffffffffff163360405161366b93929190614fed565b60405180910390a15050565b8160008082815260200190815260200160002060000160009054906101000a900460ff166136a8576136a7614d2f565b5b823373ffffffffffffffffffffffffffffffffffffffff166000808381526020019081526020016000206001016000600281106136e8576136e7614d00565b5b6006020160000160029054906101000a900473ffffffffffffffffffffffffffffffffffffffff1673ffffffffffffffffffffffffffffffffffffffff1614806137ac57503373ffffffffffffffffffffffffffffffffffffffff1660008083815260200190815260200160002060010160016002811061376c5761376b614d00565b5b6006020160000160029054906101000a900473ffffffffffffffffffffffffffffffffffffffff1673ffffffffffffffffffffffffffffffffffffffff16145b6137b9576137b8614d2f565b5b836001600460098111156137d0576137cf614a5b565b5b8160098111156137e3576137e2614a5b565b5b14158015613816575060066009811115613800576137ff614a5b565b5b81600981111561381357613812614a5b565b5b14155b801561384757506007600981111561383157613830614a5b565b5b81600981111561384457613843614a5b565b5b14155b801561387857506005600981111561386257613861614a5b565b5b81600981111561387557613874614a5b565b5b14155b156138d8578060098111156138905761388f614a5b565b5b600080848152602001908152602001600020600d0160009054906101000a900460ff1660098111156138c5576138c4614a5b565b5b146138d3576138d2614d2f565b5b613b00565b60006138e38361402d565b9050600460098111156138f9576138f8614a5b565b5b82600981111561390c5761390b614a5b565b5b036139e95760008160006002811061392757613926614d00565b5b60200201510361398c5781600981111561394457613943614a5b565b5b600080858152602001908152602001600020600d0160009054906101000a900460ff16600981111561397957613978614a5b565b5b1461398757613986614d2f565b5b6139e4565b600660098111156139a05761399f614a5b565b5b600080858152602001908152602001600020600d0160009054906101000a900460ff1660098111156139d5576139d4614a5b565b5b146139e3576139e2614d2f565b5b5b613afe565b600760098111156139fd576139fc614a5b565b5b826009811115613a1057613a0f614a5b565b5b03613aed57600081600060028110613a2b57613a2a614d00565b5b602002015103613a9057816009811115613a4857613a47614a5b565b5b600080858152602001908152602001600020600d0160009054906101000a900460ff166009811115613a7d57613a7c614a5b565b5b14613a8b57613a8a614d2f565b5b613ae8565b60056009811115613aa457613aa3614a5b565b5b600080858152602001908152602001600020600d0160009054906101000a900460ff166009811115613ad957613ad8614a5b565b5b14613ae757613ae6614d2f565b5b5b613afd565b6000613afc57613afb614d2f565b5b5b5b505b6000806000888152602001908152602001600020604051806101200160405290816000820160009054906101000a900460ff161515151581526020016000820160019054906101000a900460ff1615151515815260200160018201600280602002604051908101604052809291906000905b82821015613c7d578382600602016040518060c00160405290816000820160009054906101000a900460ff161515151581526020016000820160019054906101000a900460ff161515151581526020016000820160029054906101000a900473ffffffffffffffffffffffffffffffffffffffff1673ffffffffffffffffffffffffffffffffffffffff1673ffffffffffffffffffffffffffffffffffffffff1681526020016001820154815260200160028201548152602001600382016040518060600160405290816000820160009054906101000a900460ff16151515158152602001600182015481526020016002820154815250508152505081526020019060010190613b72565b505050508152602001600d820160009054906101000a900460ff166009811115613caa57613ca9614a5b565b5b6009811115613cbc57613cbb614a5b565b5b8152602001600e8201548152602001600f82015481526020016010820160009054906101000a900460ff161515151581526020016010820160019054906101000a900460ff161515151581526020016010820160029054906101000a900473ffffffffffffffffffffffffffffffffffffffff1673ffffffffffffffffffffffffffffffffffffffff1673ffffffffffffffffffffffffffffffffffffffff168152505090506000808260400151600060028110613d7d57613d7c614d00565b5b60200201516040015173ffffffffffffffffffffffffffffffffffffffff163373ffffffffffffffffffffffffffffffffffffffff1603613dc5576001915060009050613dce565b60009150600190505b600083604001518360028110613de757613de6614d00565b5b6020020151606001519050886000808c81526020019081526020016000206001018360028110613e1a57613e19614d00565b5b600602016001018190555060008114158015613e3557508881145b15613f1457886000808c8152602001908152602001600020600e018190555060026000808c8152602001908152602001600020600d0160006101000a81548160ff02191690836009811115613e8d57613e8c614a5b565b5b02179055507fa63491c3e48c84a30c1a58128201bca4fd87bb84850cda339020ce19051e5a908a8560400151600060028110613ecc57613ecb614d00565b5b6020020151604001518660400151600160028110613eed57613eec614d00565b5b6020020151604001518c604051613f079493929190615024565b60405180910390a1613f71565b7f4adf94e8b5302c48b3df6533aa17748538d68a74af46f0a894839b61fbf3f1bf8a3386604001518660028110613f4e57613f4d614d00565b5b6020020151604001518c604051613f689493929190615024565b60405180910390a15b50505050505050505050565b600080600083815260200190815260200160002060000160009054906101000a900460ff168015613fe75750600080838152602001908152602001600020600101600060028110613fd157613fd0614d00565b5b6006020160000160009054906101000a900460ff165b156140235760008083815260200190815260200160002060010160006002811061401457614013614d00565b5b60060201600101549050614028565b600090505b919050565b614035614528565b61403d614528565b60008084815260200190815260200160002060010160006002811061406557614064614d00565b5b6006020160000160029054906101000a900473ffffffffffffffffffffffffffffffffffffffff1673ffffffffffffffffffffffffffffffffffffffff163373ffffffffffffffffffffffffffffffffffffffff1603614102576000816000600281106140d5576140d4614d00565b5b6020020181815250506001816001600281106140f4576140f3614d00565b5b602002018181525050614141565b60018160006002811061411857614117614d00565b5b60200201818152505060008160016002811061413757614136614d00565b5b6020020181815250505b80915050919050565b60008282600080838152602001908152602001600020600101816002811061417557614174614d00565b5b6006020160000160009054906101000a900460ff1661419757614196614d2f565b5b60008083815260200190815260200160002050600281106141bb576141ba614d2f565b5b8460008082815260200190815260200160002060000160009054906101000a900460ff166141ec576141eb614d2f565b5b600080878152602001908152602001600020600101856002811061421357614212614d00565b5b6006020160020154935050505092915050565b60008282600080838152602001908152602001600020600101816002811061425157614250614d00565b5b6006020160000160009054906101000a900460ff1661427357614272614d2f565b5b600080838152602001908152602001600020506002811061429757614296614d2f565b5b8460008082815260200190815260200160002060000160009054906101000a900460ff166142c8576142c7614d2f565b5b60008087815260200190815260200160002060010185600281106142ef576142ee614d00565b5b6006020160030160000160009054906101000a900460ff16935050505092915050565b60008261432086868561432b565b149050949350505050565b60008082905060005b85859050811015614377576143628287878481811061435657614355614d00565b5b90506020020135614383565b9150808061436f90614db6565b915050614334565b50809150509392505050565b600081831061439b5761439682846143ae565b6143a6565b6143a583836143ae565b5b905092915050565b600082600052816020526040600020905092915050565b8260026006028101928215614517579160060282015b828111156145165782826000820160009054906101000a900460ff168160000160006101000a81548160ff0219169083151502179055506000820160019054906101000a900460ff168160000160016101000a81548160ff0219169083151502179055506000820160029054906101000a900473ffffffffffffffffffffffffffffffffffffffff168160000160026101000a81548173ffffffffffffffffffffffffffffffffffffffff021916908373ffffffffffffffffffffffffffffffffffffffff160217905550600182015481600101556002820154816002015560038201816003016000820160009054906101000a900460ff168160000160006101000a81548160ff021916908315150217905550600182015481600101556002820154816002015550505050916006019190600601906143db565b5b509050614524919061454a565b5090565b6040518060400160405280600290602082028036833780820191505090505090565b5b808211156145e757600080820160006101000a81549060ff02191690556000820160016101000a81549060ff02191690556000820160026101000a81549073ffffffffffffffffffffffffffffffffffffffff02191690556001820160009055600282016000905560038201600080820160006101000a81549060ff02191690556001820160009055600282016000905550505060060161454b565b5090565b600080fd5b600080fd5b6000819050919050565b614608816145f5565b811461461357600080fd5b50565b600081359050614625816145ff565b92915050565b600060208284031215614641576146406145eb565b5b600061464f84828501614616565b91505092915050565b60008115159050919050565b61466d81614658565b82525050565b60006020820190506146886000830184614664565b92915050565b600080fd5b600080fd5b600080fd5b60008083601f8401126146b3576146b261468e565b5b8235905067ffffffffffffffff8111156146d0576146cf614693565b5b6020830191508360208202830111156146ec576146eb614698565b5b9250929050565b6000806020838503121561470a576147096145eb565b5b600083013567ffffffffffffffff811115614728576147276145f0565b5b6147348582860161469d565b92509250509250929050565b600082825260208201905092915050565b600080fd5b82818337505050565b600061476b8385614740565b93507f07ffffffffffffffffffffffffffffffffffffffffffffffffffffffffffffff83111561479e5761479d614751565b5b6020830292506147af838584614756565b82840190509392505050565b600060208201905081810360008301526147d681848661475f565b90509392505050565b6000819050919050565b6147f2816147df565b81146147fd57600080fd5b50565b60008135905061480f816147e9565b92915050565b6000806040838503121561482c5761482b6145eb565b5b600061483a85828601614616565b925050602061484b85828601614800565b9150509250929050565b600073ffffffffffffffffffffffffffffffffffffffff82169050919050565b600061488082614855565b9050919050565b61489081614875565b82525050565b60006020820190506148ab6000830184614887565b92915050565b6148ba81614658565b81146148c557600080fd5b50565b6000813590506148d7816148b1565b92915050565b6000602082840312156148f3576148f26145eb565b5b6000614901848285016148c8565b91505092915050565b614913816147df565b82525050565b600060208201905061492e600083018461490a565b92915050565b600060ff82169050919050565b61494a81614934565b82525050565b60006020820190506149656000830184614941565b92915050565b614974816145f5565b82525050565b600060208201905061498f600083018461496b565b92915050565b61499e81614934565b81146149a957600080fd5b50565b6000813590506149bb81614995565b92915050565b60008060008060008060a087890312156149de576149dd6145eb565b5b60006149ec89828a01614616565b96505060206149fd89828a016149ac565b9550506040614a0e89828a016148c8565b9450506060614a1f89828a01614800565b935050608087013567ffffffffffffffff811115614a4057614a3f6145f0565b5b614a4c89828a0161469d565b92509250509295509295509295565b7f4e487b7100000000000000000000000000000000000000000000000000000000600052602160045260246000fd5b600a8110614a9b57614a9a614a5b565b5b50565b6000819050614aac82614a8a565b919050565b6000614abc82614a9e565b9050919050565b614acc81614ab1565b82525050565b6000602082019050614ae76000830184614ac3565b92915050565b60008060008060608587031215614b0757614b066145eb565b5b6000614b1587828801614800565b9450506020614b2687828801614800565b935050604085013567ffffffffffffffff811115614b4757614b466145f0565b5b614b538782880161469d565b925092505092959194509250565b60008060408385031215614b7857614b776145eb565b5b6000614b86858286016149ac565b9250506020614b97858286016148c8565b9150509250929050565b600081519050919050565b600082825260208201905092915050565b60005b83811015614bdb578082015181840152602081019050614bc0565b60008484015250505050565b6000601f19601f8301169050919050565b6000614c0382614ba1565b614c0d8185614bac565b9350614c1d818560208601614bbd565b614c2681614be7565b840191505092915050565b60006020820190508181036000830152614c4b8184614bf8565b905092915050565b60008060408385031215614c6a57614c696145eb565b5b6000614c7885828601614616565b9250506020614c89858286016149ac565b9150509250929050565b600060208284031215614ca957614ca86145eb565b5b6000614cb784828501614800565b91505092915050565b60008060408385031215614cd757614cd66145eb565b5b6000614ce585828601614616565b9250506020614cf685828601614616565b9150509250929050565b7f4e487b7100000000000000000000000000000000000000000000000000000000600052603260045260246000fd5b7f4e487b7100000000000000000000000000000000000000000000000000000000600052600160045260246000fd5b6000604082019050614d73600083018561496b565b614d806020830184614887565b9392505050565b7f4e487b7100000000000000000000000000000000000000000000000000000000600052601160045260246000fd5b6000614dc1826145f5565b91507fffffffffffffffffffffffffffffffffffffffffffffffffffffffffffffffff8203614df357614df2614d87565b5b600182019050919050565b6000606082019050614e136000830186614887565b614e206020830185614887565b614e2d604083018461496b565b949350505050565b6000614e4082614934565b9150614e4b83614934565b9250828202614e5981614934565b9150808214614e6b57614e6a614d87565b5b5092915050565b6000608082019050614e87600083018761496b565b614e946020830186614941565b614ea16040830185614664565b614eae6060830184614664565b95945050505050565b6000819050919050565b6000819050919050565b6000614ee6614ee1614edc84614eb7565b614ec1565b6145f5565b9050919050565b614ef681614ecb565b82525050565b6000614f17614f12614f0d84614eb7565b614ec1565b614934565b9050919050565b614f2781614efc565b82525050565b6000608082019050614f426000830187614eed565b614f4f6020830186614f1e565b614f5c6040830185614664565b614f696060830184614664565b95945050505050565b6000604082019050614f876000830185614941565b614f946020830184614664565b9392505050565b6000614fa6826145f5565b915060008203614fb957614fb8614d87565b5b600182039050919050565b6000604082019050614fd9600083018561496b565b614fe66020830184614941565b9392505050565b6000606082019050615002600083018661496b565b61500f6020830185614887565b61501c6040830184614887565b949350505050565b6000608082019050615039600083018761496b565b6150466020830186614887565b6150536040830185614887565b615060606083018461496b565b9594505050505056fea26469706673582212202fe920c4b53c8445653b1935702ce9de087803269c395ebfe7fc577e6b8e105064736f6c63430008130033",
  "immutableReferences": {},
  "source": "// SPDX-License-Identifier: MIT\r\npragma solidity >=0.4.22 <0.9.0;\r\n\r\ncontract Battleships {\r\n    uint8 public constant NUMBER_OF_SHIP_SQUARES = 20;\r\n    uint8 public constant BOARD_SIZE = 8;\r\n    enum GameStates{\r\n        WAITING, \r\n        SETTING_STAKE, \r\n        ACCEPTING_PAYMENT,\r\n        PLACING_SHIPS, \r\n        P0_FIRING,\r\n        P1_CHECKING,\r\n        P1_FIRING,\r\n        P0_CHECKING,\r\n        DONE,\r\n        NONE\r\n    }\r\n\r\n    // In this struct we save the view a player has of its opponent's board\r\n    struct Board{\r\n        bool valid;\r\n        // N*N matrix of bits to store hits\r\n        // bool[BOARD_SIZE][BOARD_SIZE] shots;\r\n        // # of enemy pieces still left on the board\r\n        // goes down by one each time we receive one 'you hit' event\r\n        uint totalPieces;\r\n        // 8*8, we use this to avoid cheating\r\n        uint totalShots;\r\n    }\r\n\r\n    struct Player{\r\n        bool valid;\r\n        bool hasPaidStake;\r\n        address playerAddress;\r\n        uint proposedStake;\r\n        bytes32 boardTreeRoot;\r\n        Board shots_board;\r\n    }\r\n\r\n    struct Game{\r\n        bool valid;\r\n        bool canPay;\r\n        // host is always player[0]\r\n        Player[2] players;\r\n        GameStates state;\r\n        uint decidedStake;\r\n        // used for foul accusation, a foul is triggered after 5 blocks\r\n        uint blockNumber;\r\n        // player 0 or player 1\r\n        // might turn it into address, we will see\r\n        bool accuser;\r\n        // whether or not this game should be in the public pool of joinable games\r\n        bool privateGame;\r\n        address winner;\r\n    }\r\n\r\n    mapping(uint => Game) private openGames;\r\n\r\n    Game private gameTrampoline;\r\n    Player private playerTrampoline;\r\n    Board private trampolineBoard;\r\n    // used in generating UUIDs for the games\r\n    // for now we are gonna use this as-is\r\n    // start at 1 as 0 is used for a non-existing game\r\n    // TODO: deal with it overflowing\r\n    uint private gameCounter;\r\n    uint private lastOpenGame;\r\n\r\n    constructor() {\r\n        gameCounter = 1;\r\n        lastOpenGame = 1;\r\n    }\r\n\r\n    event ShareID(address _from, address _to, uint _gameID);\r\n    event GameStart(uint _gameID, address _host, address _challenger);\r\n    event SuggestedStake(uint _gameID, address _from, address _to, uint _stakeValue);\r\n    event GamePayable(uint _gameID, address _host, address _challenger, uint _stakeValue);\r\n    event StakePaid(uint _gameID, address _whoPaid);\r\n    event AcceptingBoards(uint _gameID);\r\n    event BoardAcknowledgeEvent(uint _gameID, address _player);\r\n    event PlayerZeroTurn(uint _gameID);\r\n    event ShotsFired(uint _gameID, uint8 _location);\r\n    event ShotsChecked(uint _gameID, uint8 _location, bool _claim, bool _validity);\r\n    event Victory(uint _gameID, address _winner);\r\n\r\n    error InvalidGameID();\r\n    error NotInGame();\r\n    error StakeAlreadyDeposited();\r\n    error WrongStakeAmount(uint expectedStakeValue);\r\n\r\n    modifier gameExists(uint gameID){\r\n        assert(openGames[gameID].valid);\r\n        _;\r\n    }\r\n\r\n    modifier isInGame(uint gameID){\r\n        assert((openGames[gameID].players[0].playerAddress == msg.sender) || (openGames[gameID].players[1].playerAddress == msg.sender));\r\n        _;\r\n    }\r\n\r\n    modifier assertState(uint gameID, GameStates _state){\r\n        if(_state != GameStates.P0_FIRING && _state != GameStates.P1_FIRING && _state != GameStates.P0_CHECKING && _state != GameStates.P1_CHECKING)\r\n            assert(openGames[gameID].state == _state);\r\n        else{\r\n            // We check firing states with P0_FIRING and checking states with P0_CHECKING, for both players\r\n            uint[2] memory indexes = getIndexSender(gameID);\r\n            if(_state == GameStates.P0_FIRING){\r\n                if(indexes[0] == 0)\r\n                    assert(openGames[gameID].state == _state);\r\n                else\r\n                    assert(openGames[gameID].state == GameStates.P1_FIRING);\r\n            }\r\n            else if(_state == GameStates.P0_CHECKING){\r\n                if(indexes[0] == 0)\r\n                    assert(openGames[gameID].state == _state);\r\n                else\r\n                    assert(openGames[gameID].state == GameStates.P1_CHECKING);\r\n            }\r\n            else assert(false);\r\n        }\r\n        _;\r\n    }\r\n\r\n    modifier playerInRange(uint gameID, uint index){\r\n        assert(openGames[gameID].players[index].valid);\r\n        assert(index < openGames[gameID].players.length);\r\n        _;\r\n    }\r\n\r\n    modifier shotOnBoard(uint8 location){\r\n        assert(location < (BOARD_SIZE*BOARD_SIZE));\r\n        _;\r\n    }\r\n\r\n    function getIndexSender (uint gameID) view private returns(uint[2] memory) {\r\n        // indexes[0]: msg.sender index\r\n        // indexes[1]: msg.sender opponent's index\r\n        uint[2] memory indexes;\r\n        if(msg.sender == openGames[gameID].players[0].playerAddress){\r\n            indexes[0] = 0;\r\n            indexes[1] = 1;\r\n        } else {\r\n            indexes[0] = 1;\r\n            indexes[1] = 0;\r\n        }\r\n        return indexes;\r\n    }\r\n\r\n    // Code from OpenZeppelin's project\r\n    // https://github.com/OpenZeppelin\r\n    function verifyCalldata(\r\n    bytes32[] calldata proof,\r\n    bytes32 root,\r\n    bytes32 leaf\r\n    ) internal pure returns (bool) {\r\n        return processProofCalldata(proof, leaf) == root;\r\n    }\r\n\r\n    function processProofCalldata(\r\n        bytes32[] calldata proof,\r\n        bytes32 leaf\r\n    ) internal pure returns (bytes32) {\r\n        bytes32 computedHash = leaf;\r\n        for (uint256 i = 0; i < proof.length; i++) {\r\n            computedHash = _hashPair(computedHash, proof[i]);\r\n        }\r\n        return computedHash;\r\n    }\r\n\r\n    function _hashPair(bytes32 a, bytes32 b)\r\n        private\r\n        pure\r\n        returns(bytes32)\r\n    {\r\n        return a < b ? _efficientHash(a, b) : _efficientHash(b, a);\r\n    }\r\n\r\n    function _efficientHash(bytes32 a, bytes32 b)\r\n        private\r\n        pure\r\n        returns (bytes32 value)\r\n    {\r\n        assembly {\r\n            mstore(0x00, a)\r\n            mstore(0x20, b)\r\n            value := keccak256(0x00, 0x40)\r\n        }\r\n    }\r\n    // end of OpenZeppelin code\r\n\r\n    // create a Game value, add it to openGames, populate the Player[0]\r\n    function newGame(bool isPrivate) public {\r\n        uint gameID = gameCounter;\r\n        gameCounter++;\r\n        Game storage game = gameTrampoline;\r\n        Player storage host = playerTrampoline;\r\n        host.playerAddress = msg.sender;\r\n        host.valid = true;\r\n        host.hasPaidStake = false;\r\n        game.players[0] = host;\r\n        game.state = GameStates.WAITING;\r\n        game.privateGame = isPrivate;\r\n        game.valid = true;\r\n        game.canPay = false;\r\n        openGames[gameID] = game;\r\n        emit ShareID(address(this), msg.sender, gameID);\r\n        return;\r\n    }\r\n    \r\n    function joinGame(uint gameID) public {\r\n        if(gameID == 0){\r\n            // pick an unassigned game in sequential order\r\n            gameID = lastOpenGame;\r\n            while(gameID <= gameCounter){\r\n                // ignore games with sender as host (you can still join your own games directly if you're that lonely)\r\n                if(openGames[gameID].valid == true && \r\n                    openGames[gameID].state == GameStates.WAITING && \r\n                    openGames[gameID].players[0].playerAddress != msg.sender && \r\n                    !openGames[gameID].privateGame){\r\n                    break;\r\n                }\r\n                gameID++;\r\n            }\r\n            // update the lastOpenGame counter no matter what\r\n            lastOpenGame = gameID;\r\n        }\r\n        // if the game wasn't valid, throw an error\r\n        assert(openGames[gameID].valid);\r\n        // set msg sender as this game's player 2\r\n        Player storage challenger = playerTrampoline;\r\n        challenger.playerAddress = msg.sender;\r\n        challenger.valid = true;\r\n        challenger.hasPaidStake = false;\r\n        openGames[gameID].players[1] = challenger;\r\n        // update this game's status\r\n        openGames[gameID].state = GameStates.SETTING_STAKE;\r\n        // alert the players\r\n        emit GameStart(gameID, openGames[gameID].players[0].playerAddress, msg.sender);\r\n        return;\r\n    }\r\n\r\n    function checkGameState(uint gameID) public view returns (GameStates) {\r\n        if (openGames[gameID].valid){\r\n            return openGames[gameID].state;\r\n        }\r\n        else \r\n            return(GameStates.NONE);\r\n    }\r\n\r\n    function checkGamePlayerOne(uint gameID) public view returns (address) {\r\n        if (openGames[gameID].valid && openGames[gameID].players[0].valid){\r\n            return openGames[gameID].players[0].playerAddress;\r\n        }\r\n        else \r\n            return(address(0));\r\n    }\r\n\r\n    function checkGamePlayerTwo(uint gameID) public view returns (address) {\r\n        if (openGames[gameID].valid && openGames[gameID].players[1].valid){\r\n            return openGames[gameID].players[1].playerAddress;\r\n        }\r\n        else \r\n            return(address(0));\r\n    }\r\n\r\n    // Function to propose and agree upon a stake between players\r\n    function proposeStake(uint gameID, uint stakeValue) gameExists(gameID) isInGame(gameID) assertState(gameID, GameStates.SETTING_STAKE) public{\r\n        Game memory game = openGames[gameID];\r\n        // Check whether or not this player's opponent has already proposed a stake\r\n        uint opponentIndex;\r\n        uint stakerIndex;\r\n        if(msg.sender == game.players[0].playerAddress){\r\n            opponentIndex = 1;\r\n            stakerIndex = 0;\r\n        } else {\r\n            opponentIndex = 0;\r\n            stakerIndex = 1;\r\n        }\r\n        uint opponentStake = game.players[opponentIndex].proposedStake;\r\n        // set this player's proposed stake to their message\r\n        openGames[gameID].players[stakerIndex].proposedStake = stakeValue;\r\n        // if the opponent has proposed a stake we check whether or not it equals the one proposed by us\r\n        // 0 is not a valid stake\r\n        if(opponentStake != 0 && opponentStake == stakeValue){\r\n            openGames[gameID].decidedStake = stakeValue;\r\n            openGames[gameID].state = GameStates.ACCEPTING_PAYMENT;\r\n            emit GamePayable(gameID, game.players[0].playerAddress, game.players[1].playerAddress, stakeValue);\r\n        }else{\r\n            emit SuggestedStake(gameID, msg.sender, game.players[opponentIndex].playerAddress, stakeValue);\r\n        }\r\n        return;\r\n    }\r\n\r\n    function checkStakePlayerOne(uint gameID) public view returns (uint) {\r\n        if (openGames[gameID].valid && openGames[gameID].players[0].valid){\r\n            return openGames[gameID].players[0].proposedStake;\r\n        }\r\n        else \r\n            return(0);\r\n    }\r\n\r\n    function checkStakePlayerTwo(uint gameID) public view returns (uint) {\r\n        if (openGames[gameID].valid && openGames[gameID].players[1].valid){\r\n            return openGames[gameID].players[1].proposedStake;\r\n        }\r\n        else \r\n            return(0);\r\n    }\r\n\r\n    function checkStakeGame(uint gameID) public view returns (uint) {\r\n        if (openGames[gameID].valid && openGames[gameID].players[0].valid && openGames[gameID].players[1].valid)\r\n            return openGames[gameID].decidedStake;\r\n        else\r\n            return(0);\r\n    }\r\n    \r\n    function payStake(uint gameID) gameExists(gameID) isInGame(gameID) assertState(gameID, GameStates.ACCEPTING_PAYMENT) external payable {\r\n        if((msg.sender == openGames[gameID].players[0].playerAddress && openGames[gameID].players[0].hasPaidStake) ||\r\n            (msg.sender == openGames[gameID].players[1].playerAddress && openGames[gameID].players[1].hasPaidStake))\r\n            revert StakeAlreadyDeposited();\r\n        // only accept payments for the exact amount owed\r\n        if(msg.value != openGames[gameID].decidedStake)\r\n            revert WrongStakeAmount(openGames[gameID].decidedStake);\r\n        // now we check who the sender is\r\n        uint senderIndex;\r\n        uint challengerIndex;\r\n        if(msg.sender == openGames[gameID].players[0].playerAddress){\r\n            senderIndex = 0;\r\n            challengerIndex = 1;\r\n        }else{\r\n            senderIndex = 1;\r\n            challengerIndex = 0;\r\n        }\r\n        openGames[gameID].players[senderIndex].hasPaidStake = true;\r\n        emit StakePaid(gameID, msg.sender);\r\n        // if both players have paid the owed stake the game can move on to its next state\r\n        if(openGames[gameID].players[challengerIndex].hasPaidStake){\r\n            openGames[gameID].state = GameStates.PLACING_SHIPS;\r\n            emit AcceptingBoards(gameID);\r\n        }\r\n    }\r\n\r\n    function checkPaymentPlayerOne(uint gameID) public view returns (bool) {\r\n        if (openGames[gameID].valid && openGames[gameID].players[0].valid){\r\n            return openGames[gameID].players[0].hasPaidStake;\r\n        }\r\n        else \r\n            return(false);\r\n    }\r\n\r\n    function checkPaymentPlayerTwo(uint gameID) public view returns (bool) {\r\n        if (openGames[gameID].valid && openGames[gameID].players[1].valid){\r\n            return openGames[gameID].players[1].hasPaidStake;\r\n        }\r\n        else \r\n            return(false);\r\n    }\r\n\r\n    function checkGamePayable(uint gameID) public view returns (bool) {\r\n        if (openGames[gameID].valid && openGames[gameID].players[0].valid && openGames[gameID].players[1].valid)\r\n            return openGames[gameID].canPay;\r\n        else\r\n            return(false);\r\n    }\r\n    \r\n    function PlaceShips(uint gameID, bytes32 boardRoot) gameExists(gameID) isInGame(gameID) assertState(gameID, GameStates.PLACING_SHIPS) public{\r\n        uint index;\r\n        uint oppIdx;\r\n        msg.sender == openGames[gameID].players[0].playerAddress ? index = 0 : index = 1;\r\n        msg.sender == openGames[gameID].players[0].playerAddress ? oppIdx = 1 : oppIdx = 0;\r\n        require(openGames[gameID].players[index].boardTreeRoot == 0x0);\r\n        // Instantiate a new shots board\r\n        // Instantiate the Board struct itself and assign it to a player\r\n        Board storage playerBoard = trampolineBoard;\r\n        trampolineBoard.valid = true;\r\n        trampolineBoard.totalPieces = NUMBER_OF_SHIP_SQUARES;\r\n        trampolineBoard.totalShots = BOARD_SIZE;\r\n        openGames[gameID].players[index].shots_board = playerBoard;\r\n        // save the received boardRoot, finally\r\n        openGames[gameID].players[index].boardTreeRoot = boardRoot;\r\n        emit BoardAcknowledgeEvent(gameID, msg.sender);\r\n        if(openGames[gameID].players[oppIdx].boardTreeRoot != 0x0){\r\n            openGames[gameID].state = GameStates.P0_FIRING;\r\n            emit PlayerZeroTurn(gameID);\r\n        }\r\n    }\r\n\r\n    function getPlayerBoardRoot(uint gameID, uint index) playerInRange(gameID, index) gameExists(gameID) private view returns(bytes32){\r\n        return openGames[gameID].players[index].boardTreeRoot;\r\n    }\r\n\r\n    function getPlayerOneBoardRoot(uint gameID) public view returns (bytes32){\r\n        return getPlayerBoardRoot(gameID, 0);\r\n    }\r\n\r\n    function getPlayerTwoBoardRoot(uint gameID) public view returns (bytes32){\r\n        return getPlayerBoardRoot(gameID, 1);\r\n    }\r\n\r\n    // We should never have any use for these following functions\r\n    // Marking them as DEPRECATED now\r\n    // we will see if they survive the cutting room floor\r\n    \r\n    // DEPRECATED\r\n    function getPlayerShotsBoard(uint gameID, uint index) playerInRange(gameID, index) gameExists(gameID) private view returns(bool){\r\n        return openGames[gameID].players[index].shots_board.valid;\r\n    }\r\n\r\n    // DEPRECATED\r\n    function getPlayerOneShotsBoard(uint gameID) public view returns (bool){\r\n        return getPlayerShotsBoard(gameID, 0);\r\n    }\r\n\r\n    // DEPRECATED\r\n    function getPlayerTwoShotsBoard(uint gameID) public view returns (bool){\r\n        return getPlayerShotsBoard(gameID, 1);\r\n    }\r\n\r\n    // for info on what location is see \"Implementation of the user-side game board\" in README.md\r\n    function FireTorpedo(uint gameID, uint8 location) gameExists(gameID) isInGame(gameID) assertState(gameID, GameStates.P0_FIRING) public {\r\n        uint[2] memory indexes = getIndexSender(gameID);\r\n        // Rotate into correct next state\r\n        openGames[gameID].state == GameStates.P0_FIRING ? openGames[gameID].state = GameStates.P1_CHECKING : openGames[gameID].state = GameStates.P0_CHECKING;\r\n        // Now for some game logic\r\n        // whatever happens, we lower the totalShots counter of our system by one\r\n        openGames[gameID].players[indexes[0]].shots_board.totalShots--;\r\n        // Then we evaluate whether or not this is zero. If it is, This party wins automatically.\r\n        // We do this here to avoid opponents stalling out on the reply for 5 blocks on what is a foregone conclusion\r\n        if (openGames[gameID].players[indexes[0]].shots_board.totalShots == 0){\r\n            // VerifyWinner(gameID, index, oppIdx);\r\n        } else {\r\n            emit ShotsFired(gameID, location);\r\n        }\r\n    }\r\n\r\n\r\n    \r\n    function ConfirmShot(uint gameID, uint8 location, bool isHit, bytes32 leaf, bytes32[] calldata proof) gameExists(gameID) isInGame(gameID) shotOnBoard(location) assertState(gameID, GameStates.P0_CHECKING) public {\r\n        uint[2] memory indexes = getIndexSender(gameID);\r\n        // This very time consuming copy is needed because apparently using gameID directly causes a stack-too-deep issue.\r\n        Game memory tmpGame = openGames[gameID];\r\n        // make sure this node corresponds to the board tile and truth value we are checking\r\n        assert(leaf == GenLeafNode(location, isHit));\r\n        // execute the proof test\r\n        if(verifyCalldata(proof, tmpGame.players[indexes[0]].boardTreeRoot, leaf)){\r\n            // we could verify this user's proof\r\n            // rotate state\r\n            openGames[gameID].state == GameStates.P1_CHECKING ? openGames[gameID].state = GameStates.P1_FIRING : openGames[gameID].state = GameStates.P0_FIRING;\r\n            emit ShotsChecked(gameID, location, isHit, true);\r\n        } else {\r\n            // else we mark him as foul'd but do NOT rotate the state.\r\n            // TODO IMPLEMENT FOUL MECHANICS\r\n            emit ShotsChecked(gameID, location, isHit, false);\r\n        }\r\n    }\r\n\r\n    // this function generates a node locally in the same way a client would generate it\r\n    // it could be internal, we keep it public for now for debug purposes\r\n    function GenLeafNode(uint8 tile, bool ship) pure public returns (bytes32) {\r\n        return keccak256(abi.encode(tile,ship));\r\n    }\r\n\r\n    // Assortment of debug functions\r\n    \r\n     function PreviewLeafNode(uint8 tile, bool ship) pure public returns (bytes memory) {\r\n        return abi.encode(tile, ship);\r\n    }\r\n\r\n    function QuickCheck(bytes32 leaf, bytes32 root, bytes32[] calldata proof) public returns (bool){\r\n        bool forTheDebugger = verifyCalldata(proof, root, leaf);\r\n        emit ShotsChecked(0, 0, false, forTheDebugger);\r\n        return forTheDebugger;\r\n    }\r\n    \r\n\r\n    function EchoBytes(bytes32 proof) pure public returns (bytes32) {\r\n        return proof;\r\n    }\r\n\r\n    function EchoProof(bytes32[] calldata proof) pure public returns (bytes32[] calldata) {\r\n        return proof;\r\n    }\r\n\r\n    /*\r\n    function VerifyWinner(uint gameID, uint winnerIndex, uint loserIndex) private {\r\n        address verifiedWinner;\r\n        // TODO: verify the merkle board for the winner first of all\r\n        // this requires asking the winner for their board\r\n        // if that fails, verify it for the loser and pay THEM out if it succeeds\r\n\r\n        // finally set the contract as payable\r\n        openGames[gameID].canPay = true;\r\n        openGames[gameID].winner = verifiedWinner;\r\n        emit Victory(gameID, msg.sender);\r\n    }\r\n    */\r\n}",
  "sourcePath": "F:\\Documents\\Code\\School\\P2PBC\\Battleships\\contracts\\Battleships.sol",
  "compiler": {
    "name": "solc",
    "version": "0.8.19+commit.7dd6d404.Emscripten.clang"
  },
  "schemaVersion": "3.4.13",
  "updatedAt": "2023-05-24T17:51:02.745Z",
  "networkType": "ethereum",
  "devdoc": {
    "kind": "dev",
    "methods": {},
    "version": 1
  },
  "userdoc": {
    "kind": "user",
    "methods": {},
    "version": 1
  }
}