{
  "contractName": "Battleships",
  "abi": [
    {
      "inputs": [],
      "stateMutability": "nonpayable",
      "type": "constructor"
    },
    {
      "inputs": [],
      "name": "InvalidGameID",
      "type": "error"
    },
    {
      "inputs": [],
      "name": "NotInGame",
      "type": "error"
    },
    {
      "inputs": [],
      "name": "StakeAlreadyDeposited",
      "type": "error"
    },
    {
      "inputs": [
        {
          "internalType": "uint256",
          "name": "expectedStakeValue",
          "type": "uint256"
        }
      ],
      "name": "WrongStakeAmount",
      "type": "error"
    },
    {
      "anonymous": false,
      "inputs": [
        {
          "indexed": false,
          "internalType": "uint256",
          "name": "_gameID",
          "type": "uint256"
        }
      ],
      "name": "AcceptingBoards",
      "type": "event"
    },
    {
      "anonymous": false,
      "inputs": [
        {
          "indexed": false,
          "internalType": "uint256",
          "name": "_gameID",
          "type": "uint256"
        },
        {
          "indexed": false,
          "internalType": "address",
          "name": "_host",
          "type": "address"
        },
        {
          "indexed": false,
          "internalType": "address",
          "name": "_challenger",
          "type": "address"
        },
        {
          "indexed": false,
          "internalType": "uint256",
          "name": "_stakeValue",
          "type": "uint256"
        }
      ],
      "name": "GamePayable",
      "type": "event"
    },
    {
      "anonymous": false,
      "inputs": [
        {
          "indexed": false,
          "internalType": "uint256",
          "name": "_gameID",
          "type": "uint256"
        },
        {
          "indexed": false,
          "internalType": "address",
          "name": "_host",
          "type": "address"
        },
        {
          "indexed": false,
          "internalType": "address",
          "name": "_challenger",
          "type": "address"
        }
      ],
      "name": "GameStart",
      "type": "event"
    },
    {
      "anonymous": false,
      "inputs": [
        {
          "indexed": false,
          "internalType": "address",
          "name": "_from",
          "type": "address"
        },
        {
          "indexed": false,
          "internalType": "address",
          "name": "_to",
          "type": "address"
        },
        {
          "indexed": false,
          "internalType": "uint256",
          "name": "_gameID",
          "type": "uint256"
        }
      ],
      "name": "ShareID",
      "type": "event"
    },
    {
      "anonymous": false,
      "inputs": [
        {
          "indexed": false,
          "internalType": "uint256",
          "name": "_gameID",
          "type": "uint256"
        },
        {
          "indexed": false,
          "internalType": "address",
          "name": "_whoPaid",
          "type": "address"
        }
      ],
      "name": "StakePaid",
      "type": "event"
    },
    {
      "anonymous": false,
      "inputs": [
        {
          "indexed": false,
          "internalType": "uint256",
          "name": "_gameID",
          "type": "uint256"
        },
        {
          "indexed": false,
          "internalType": "address",
          "name": "_from",
          "type": "address"
        },
        {
          "indexed": false,
          "internalType": "address",
          "name": "_to",
          "type": "address"
        },
        {
          "indexed": false,
          "internalType": "uint256",
          "name": "_stakeValue",
          "type": "uint256"
        }
      ],
      "name": "SuggestedStake",
      "type": "event"
    },
    {
      "inputs": [
        {
          "internalType": "bool",
          "name": "isPrivate",
          "type": "bool"
        }
      ],
      "name": "newGame",
      "outputs": [],
      "stateMutability": "nonpayable",
      "type": "function"
    },
    {
      "inputs": [
        {
          "internalType": "uint256",
          "name": "gameID",
          "type": "uint256"
        }
      ],
      "name": "joinGame",
      "outputs": [],
      "stateMutability": "nonpayable",
      "type": "function"
    },
    {
      "inputs": [
        {
          "internalType": "uint256",
          "name": "gameID",
          "type": "uint256"
        }
      ],
      "name": "checkGameState",
      "outputs": [
        {
          "internalType": "enum Battleships.GameStates",
          "name": "",
          "type": "uint8"
        }
      ],
      "stateMutability": "view",
      "type": "function"
    },
    {
      "inputs": [
        {
          "internalType": "uint256",
          "name": "gameID",
          "type": "uint256"
        }
      ],
      "name": "checkGamePlayerOne",
      "outputs": [
        {
          "internalType": "address",
          "name": "",
          "type": "address"
        }
      ],
      "stateMutability": "view",
      "type": "function"
    },
    {
      "inputs": [
        {
          "internalType": "uint256",
          "name": "gameID",
          "type": "uint256"
        }
      ],
      "name": "checkGamePlayerTwo",
      "outputs": [
        {
          "internalType": "address",
          "name": "",
          "type": "address"
        }
      ],
      "stateMutability": "view",
      "type": "function"
    },
    {
      "inputs": [
        {
          "internalType": "uint256",
          "name": "gameID",
          "type": "uint256"
        },
        {
          "internalType": "uint256",
          "name": "stakeValue",
          "type": "uint256"
        }
      ],
      "name": "proposeStake",
      "outputs": [],
      "stateMutability": "nonpayable",
      "type": "function"
    },
    {
      "inputs": [
        {
          "internalType": "uint256",
          "name": "gameID",
          "type": "uint256"
        }
      ],
      "name": "checkStakePlayerOne",
      "outputs": [
        {
          "internalType": "uint256",
          "name": "",
          "type": "uint256"
        }
      ],
      "stateMutability": "view",
      "type": "function"
    },
    {
      "inputs": [
        {
          "internalType": "uint256",
          "name": "gameID",
          "type": "uint256"
        }
      ],
      "name": "checkStakePlayerTwo",
      "outputs": [
        {
          "internalType": "uint256",
          "name": "",
          "type": "uint256"
        }
      ],
      "stateMutability": "view",
      "type": "function"
    },
    {
      "inputs": [
        {
          "internalType": "uint256",
          "name": "gameID",
          "type": "uint256"
        }
      ],
      "name": "checkStakeGame",
      "outputs": [
        {
          "internalType": "uint256",
          "name": "",
          "type": "uint256"
        }
      ],
      "stateMutability": "view",
      "type": "function"
    },
    {
      "inputs": [
        {
          "internalType": "uint256",
          "name": "gameID",
          "type": "uint256"
        }
      ],
      "name": "payStake",
      "outputs": [],
      "stateMutability": "payable",
      "type": "function"
    },
    {
      "inputs": [
        {
          "internalType": "uint256",
          "name": "gameID",
          "type": "uint256"
        }
      ],
      "name": "checkPaymentPlayerOne",
      "outputs": [
        {
          "internalType": "bool",
          "name": "",
          "type": "bool"
        }
      ],
      "stateMutability": "view",
      "type": "function"
    },
    {
      "inputs": [
        {
          "internalType": "uint256",
          "name": "gameID",
          "type": "uint256"
        }
      ],
      "name": "checkPaymentPlayerTwo",
      "outputs": [
        {
          "internalType": "bool",
          "name": "",
          "type": "bool"
        }
      ],
      "stateMutability": "view",
      "type": "function"
    },
    {
      "inputs": [
        {
          "internalType": "uint256",
          "name": "gameID",
          "type": "uint256"
        }
      ],
      "name": "checkGamePayable",
      "outputs": [
        {
          "internalType": "bool",
          "name": "",
          "type": "bool"
        }
      ],
      "stateMutability": "view",
      "type": "function"
    }
  ],
  "bytecode": "0x608060405234801561001057600080fd5b506001602d819055506001602e81905550612587806100306000396000f3fe6080604052600436106100c25760003560e01c8063699f5aeb1161007f578063d46d077711610059578063d46d0777146102b7578063efaa55a0146102f4578063f28ae7dd1461031d578063fba523b714610346576100c2565b8063699f5aeb146102005780639a7e4cea1461023d578063aa3ee9151461027a576100c2565b8063012b61f0146100c757806302ecb0e8146101045780630e37dcd0146101415780631de954251461015d5780632b170aac1461019a57806354d83c65146101c3575b600080fd5b3480156100d357600080fd5b506100ee60048036038101906100e9919061218c565b610383565b6040516100fb91906121d4565b60405180910390f35b34801561011057600080fd5b5061012b6004803603810190610126919061218c565b61046b565b60405161013891906121d4565b60405180910390f35b61015b6004803603810190610156919061218c565b610528565b005b34801561016957600080fd5b50610184600480360381019061017f919061218c565b610ad0565b6040516101919190612230565b60405180910390f35b3480156101a657600080fd5b506101c160048036038101906101bc9190612277565b610ba0565b005b3480156101cf57600080fd5b506101ea60048036038101906101e5919061218c565b610f8a565b6040516101f791906121d4565b60405180910390f35b34801561020c57600080fd5b506102276004803603810190610222919061218c565b611047565b60405161023491906122b3565b60405180910390f35b34801561024957600080fd5b50610264600480360381019061025f919061218c565b611122565b6040516102719190612345565b60405180910390f35b34801561028657600080fd5b506102a1600480360381019061029c919061218c565b611180565b6040516102ae91906122b3565b60405180910390f35b3480156102c357600080fd5b506102de60048036038101906102d9919061218c565b611230565b6040516102eb9190612230565b60405180910390f35b34801561030057600080fd5b5061031b6004803603810190610316919061218c565b611300565b005b34801561032957600080fd5b50610344600480360381019061033f9190612360565b611741565b005b34801561035257600080fd5b5061036d6004803603810190610368919061218c565b611d98565b60405161037a91906122b3565b60405180910390f35b600080600083815260200190815260200160002060000160009054906101000a900460ff1680156103ed57506000808381526020019081526020016000206001016000600281106103d7576103d66123a0565b5b600d020160000160009054906101000a900460ff165b8015610432575060008083815260200190815260200160002060010160016002811061041c5761041b6123a0565b5b600d020160000160009054906101000a900460ff165b156104615760008083815260200190815260200160002060000160019054906101000a900460ff169050610466565b600090505b919050565b600080600083815260200190815260200160002060000160009054906101000a900460ff1680156104d557506000808381526020019081526020016000206001016001600281106104bf576104be6123a0565b5b600d020160000160009054906101000a900460ff165b1561051e57600080838152602001908152602001600020600101600160028110610502576105016123a0565b5b600d020160000160019054906101000a900460ff169050610523565b600090505b919050565b8060008082815260200190815260200160002060000160009054906101000a900460ff16610559576105586123cf565b5b813373ffffffffffffffffffffffffffffffffffffffff16600080838152602001908152602001600020600101600060028110610599576105986123a0565b5b600d020160000160029054906101000a900473ffffffffffffffffffffffffffffffffffffffff1673ffffffffffffffffffffffffffffffffffffffff16148061065d57503373ffffffffffffffffffffffffffffffffffffffff1660008083815260200190815260200160002060010160016002811061061d5761061c6123a0565b5b600d020160000160029054906101000a900473ffffffffffffffffffffffffffffffffffffffff1673ffffffffffffffffffffffffffffffffffffffff16145b61066a576106696123cf565b5b8260028060098111156106805761067f6122ce565b5b600080848152602001908152602001600020601b0160009054906101000a900460ff1660098111156106b5576106b46122ce565b5b146106c3576106c26123cf565b5b6000808681526020019081526020016000206001016000600281106106eb576106ea6123a0565b5b600d020160000160029054906101000a900473ffffffffffffffffffffffffffffffffffffffff1673ffffffffffffffffffffffffffffffffffffffff163373ffffffffffffffffffffffffffffffffffffffff1614801561078657506000808681526020019081526020016000206001016000600281106107705761076f6123a0565b5b600d020160000160019054906101000a900460ff165b8061085057506000808681526020019081526020016000206001016001600281106107b4576107b36123a0565b5b600d020160000160029054906101000a900473ffffffffffffffffffffffffffffffffffffffff1673ffffffffffffffffffffffffffffffffffffffff163373ffffffffffffffffffffffffffffffffffffffff1614801561084f5750600080868152602001908152602001600020600101600160028110610839576108386123a0565b5b600d020160000160019054906101000a900460ff165b5b15610887576040517f5e558b2300000000000000000000000000000000000000000000000000000000815260040160405180910390fd5b600080868152602001908152602001600020601c015434146108f557600080868152602001908152602001600020601c01546040517f66cb868a0000000000000000000000000000000000000000000000000000000081526004016108ec91906122b3565b60405180910390fd5b6000806000808881526020019081526020016000206001016000600281106109205761091f6123a0565b5b600d020160000160029054906101000a900473ffffffffffffffffffffffffffffffffffffffff1673ffffffffffffffffffffffffffffffffffffffff163373ffffffffffffffffffffffffffffffffffffffff1603610987576000915060019050610990565b60019150600090505b600160008089815260200190815260200160002060010183600281106109b9576109b86123a0565b5b600d020160000160016101000a81548160ff0219169083151502179055507f95ddb9abe17699603c18cef7bcfd33947d19c8eb237e01edac0bd509b481339e8733604051610a089291906123fe565b60405180910390a16000808881526020019081526020016000206001018160028110610a3757610a366123a0565b5b600d020160000160019054906101000a900460ff1615610ac7576003600080898152602001908152602001600020601b0160006101000a81548160ff02191690836009811115610a8a57610a896122ce565b5b02179055507f972651cf62ccc65bd2ba0fd996eb34701d5773844d3303545d5b4cb29738f10487604051610abe91906122b3565b60405180910390a15b50505050505050565b600080600083815260200190815260200160002060000160009054906101000a900460ff168015610b3a5750600080838152602001908152602001600020600101600060028110610b2457610b236123a0565b5b600d020160000160009054906101000a900460ff165b15610b9657600080838152602001908152602001600020600101600060028110610b6757610b666123a0565b5b600d020160000160029054906101000a900473ffffffffffffffffffffffffffffffffffffffff169050610b9b565b600090505b919050565b6000602d549050602d6000815480929190610bba90612456565b9190505550600060019050600060209050338160000160026101000a81548173ffffffffffffffffffffffffffffffffffffffff021916908373ffffffffffffffffffffffffffffffffffffffff16021790555060018160000160006101000a81548160ff02191690831515021790555060008160000160016101000a81548160ff0219169083151502179055508082600101600060028110610c6057610c5f6123a0565b5b600d02016000820160009054906101000a900460ff168160000160006101000a81548160ff0219169083151502179055506000820160019054906101000a900460ff168160000160016101000a81548160ff0219169083151502179055506000820160029054906101000a900473ffffffffffffffffffffffffffffffffffffffff168160000160026101000a81548173ffffffffffffffffffffffffffffffffffffffff021916908373ffffffffffffffffffffffffffffffffffffffff160217905550600182015481600101556002820154816002015560038201816003016000820160009054906101000a900460ff168160000160006101000a81548160ff0219169083151502179055506001820181600101906008610d84929190611e48565b50600982015481600901555050905050600082601b0160006101000a81548160ff02191690836009811115610dbc57610dbb6122ce565b5b02179055508382601e0160016101000a81548160ff02191690831515021790555060018260000160006101000a81548160ff02191690831515021790555060008260000160016101000a81548160ff021916908315150217905550816000808581526020019081526020016000206000820160009054906101000a900460ff168160000160006101000a81548160ff0219169083151502179055506000820160019054906101000a900460ff168160000160016101000a81548160ff0219169083151502179055506001820181600101906002610e9a929190611e92565b50601b820160009054906101000a900460ff1681601b0160006101000a81548160ff02191690836009811115610ed357610ed26122ce565b5b0217905550601c82015481601c0155601d82015481601d0155601e820160009054906101000a900460ff1681601e0160006101000a81548160ff021916908315150217905550601e820160019054906101000a900460ff1681601e0160016101000a81548160ff0219169083151502179055509050507f1edfba130181c8da1b98834639c59b5287912fcc01104c5a7a6e6c8cd194e302303385604051610f7c9392919061249e565b60405180910390a150505050565b600080600083815260200190815260200160002060000160009054906101000a900460ff168015610ff45750600080838152602001908152602001600020600101600060028110610fde57610fdd6123a0565b5b600d020160000160009054906101000a900460ff165b1561103d57600080838152602001908152602001600020600101600060028110611021576110206123a0565b5b600d020160000160019054906101000a900460ff169050611042565b600090505b919050565b600080600083815260200190815260200160002060000160009054906101000a900460ff1680156110b1575060008083815260200190815260200160002060010160006002811061109b5761109a6123a0565b5b600d020160000160009054906101000a900460ff165b80156110f657506000808381526020019081526020016000206001016001600281106110e0576110df6123a0565b5b600d020160000160009054906101000a900460ff165b1561111857600080838152602001908152602001600020601c0154905061111d565b600090505b919050565b600080600083815260200190815260200160002060000160009054906101000a900460ff161561117657600080838152602001908152602001600020601b0160009054906101000a900460ff16905061117b565b600990505b919050565b600080600083815260200190815260200160002060000160009054906101000a900460ff1680156111ea57506000808381526020019081526020016000206001016001600281106111d4576111d36123a0565b5b600d020160000160009054906101000a900460ff165b1561122657600080838152602001908152602001600020600101600160028110611217576112166123a0565b5b600d020160010154905061122b565b600090505b919050565b600080600083815260200190815260200160002060000160009054906101000a900460ff16801561129a5750600080838152602001908152602001600020600101600160028110611284576112836123a0565b5b600d020160000160009054906101000a900460ff165b156112f6576000808381526020019081526020016000206001016001600281106112c7576112c66123a0565b5b600d020160000160029054906101000a900473ffffffffffffffffffffffffffffffffffffffff1690506112fb565b600090505b919050565b6000810361146557602e5490505b602d54811161145d576001151560008083815260200190815260200160002060000160009054906101000a900460ff16151514801561139357506000600981111561135c5761135b6122ce565b5b600080838152602001908152602001600020601b0160009054906101000a900460ff166009811115611391576113906122ce565b5b145b801561141a57503373ffffffffffffffffffffffffffffffffffffffff166000808381526020019081526020016000206001016000600281106113d9576113d86123a0565b5b600d020160000160029054906101000a900473ffffffffffffffffffffffffffffffffffffffff1673ffffffffffffffffffffffffffffffffffffffff1614155b80156114465750600080828152602001908152602001600020601e0160019054906101000a900460ff16155b61145d57808061145590612456565b91505061130e565b80602e819055505b60008082815260200190815260200160002060000160009054906101000a900460ff16611495576114946123cf565b5b600060209050338160000160026101000a81548173ffffffffffffffffffffffffffffffffffffffff021916908373ffffffffffffffffffffffffffffffffffffffff16021790555060018160000160006101000a81548160ff02191690831515021790555060008160000160016101000a81548160ff02191690831515021790555080600080848152602001908152602001600020600101600160028110611541576115406123a0565b5b600d02016000820160009054906101000a900460ff168160000160006101000a81548160ff0219169083151502179055506000820160019054906101000a900460ff168160000160016101000a81548160ff0219169083151502179055506000820160029054906101000a900473ffffffffffffffffffffffffffffffffffffffff168160000160026101000a81548173ffffffffffffffffffffffffffffffffffffffff021916908373ffffffffffffffffffffffffffffffffffffffff160217905550600182015481600101556002820154816002015560038201816003016000820160009054906101000a900460ff168160000160006101000a81548160ff0219169083151502179055506001820181600101906008611665929190611e48565b506009820154816009015550509050506001600080848152602001908152602001600020601b0160006101000a81548160ff021916908360098111156116ae576116ad6122ce565b5b02179055507fdf72bd9cb04731c1dfa0832a380e56504fda45508a7305083a9be0f343e93421826000808581526020019081526020016000206001016000600281106116fd576116fc6123a0565b5b600d020160000160029054906101000a900473ffffffffffffffffffffffffffffffffffffffff1633604051611735939291906124d5565b60405180910390a15050565b8160008082815260200190815260200160002060000160009054906101000a900460ff16611772576117716123cf565b5b823373ffffffffffffffffffffffffffffffffffffffff166000808381526020019081526020016000206001016000600281106117b2576117b16123a0565b5b600d020160000160029054906101000a900473ffffffffffffffffffffffffffffffffffffffff1673ffffffffffffffffffffffffffffffffffffffff16148061187657503373ffffffffffffffffffffffffffffffffffffffff16600080838152602001908152602001600020600101600160028110611836576118356123a0565b5b600d020160000160029054906101000a900473ffffffffffffffffffffffffffffffffffffffff1673ffffffffffffffffffffffffffffffffffffffff16145b611883576118826123cf565b5b836001806009811115611899576118986122ce565b5b600080848152602001908152602001600020601b0160009054906101000a900460ff1660098111156118ce576118cd6122ce565b5b146118dc576118db6123cf565b5b6000806000888152602001908152602001600020604051806101000160405290816000820160009054906101000a900460ff161515151581526020016000820160019054906101000a900460ff1615151515815260200160018201600280602002604051908101604052809291906000905b82821015611aee578382600d02016040518060c00160405290816000820160009054906101000a900460ff161515151581526020016000820160019054906101000a900460ff161515151581526020016000820160029054906101000a900473ffffffffffffffffffffffffffffffffffffffff1673ffffffffffffffffffffffffffffffffffffffff1673ffffffffffffffffffffffffffffffffffffffff1681526020016001820154815260200160028201548152602001600382016040518060600160405290816000820160009054906101000a900460ff1615151515815260200160018201600880602002604051908101604052809291906000905b82821015611ac957838201600880602002604051908101604052809291908260088015611ab5576020028201916000905b82829054906101000a900460ff16151581526020019060010190602082600001049283019260010382029150808411611a7f5790505b505050505081526020019060010190611a4e565b505050508152602001600982015481525050815250508152602001906001019061194e565b505050508152602001601b820160009054906101000a900460ff166009811115611b1b57611b1a6122ce565b5b6009811115611b2d57611b2c6122ce565b5b8152602001601c8201548152602001601d8201548152602001601e820160009054906101000a900460ff16151515158152602001601e820160019054906101000a900460ff16151515158152505090506000808260400151600060028110611b9857611b976123a0565b5b60200201516040015173ffffffffffffffffffffffffffffffffffffffff163373ffffffffffffffffffffffffffffffffffffffff1603611be0576001915060009050611be9565b60009150600190505b600083604001518360028110611c0257611c016123a0565b5b6020020151606001519050886000808c81526020019081526020016000206001018360028110611c3557611c346123a0565b5b600d02016001018190555060008114158015611c5057508881145b15611d2f57886000808c8152602001908152602001600020601c018190555060026000808c8152602001908152602001600020601b0160006101000a81548160ff02191690836009811115611ca857611ca76122ce565b5b02179055507fa63491c3e48c84a30c1a58128201bca4fd87bb84850cda339020ce19051e5a908a8560400151600060028110611ce757611ce66123a0565b5b6020020151604001518660400151600160028110611d0857611d076123a0565b5b6020020151604001518c604051611d22949392919061250c565b60405180910390a1611d8c565b7f4adf94e8b5302c48b3df6533aa17748538d68a74af46f0a894839b61fbf3f1bf8a3386604001518660028110611d6957611d686123a0565b5b6020020151604001518c604051611d83949392919061250c565b60405180910390a15b50505050505050505050565b600080600083815260200190815260200160002060000160009054906101000a900460ff168015611e025750600080838152602001908152602001600020600101600060028110611dec57611deb6123a0565b5b600d020160000160009054906101000a900460ff165b15611e3e57600080838152602001908152602001600020600101600060028110611e2f57611e2e6123a0565b5b600d0201600101549050611e43565b600090505b919050565b8260088101928215611e81579182015b82811115611e80578282906008611e70929190612002565b5091600101919060010190611e58565b5b509050611e8e919061204d565b5090565b826002600d028101928215611ff15791600d0282015b82811115611ff05782826000820160009054906101000a900460ff168160000160006101000a81548160ff0219169083151502179055506000820160019054906101000a900460ff168160000160016101000a81548160ff0219169083151502179055506000820160029054906101000a900473ffffffffffffffffffffffffffffffffffffffff168160000160026101000a81548173ffffffffffffffffffffffffffffffffffffffff021916908373ffffffffffffffffffffffffffffffffffffffff160217905550600182015481600101556002820154816002015560038201816003016000820160009054906101000a900460ff168160000160006101000a81548160ff0219169083151502179055506001820181600101906008611fd2929190611e48565b50600982015481600901555050505091600d019190600d0190611ea8565b5b509050611ffe9190612071565b5090565b826008601f0160209004810192821561203c5791601f016020900482015b8281111561203b578254825591600101919060010190612020565b5b509050612049919061211a565b5090565b5b8082111561206d57600081816120649190612137565b5060010161204e565b5090565b5b8082111561211657600080820160006101000a81549060ff02191690556000820160016101000a81549060ff02191690556000820160026101000a81549073ffffffffffffffffffffffffffffffffffffffff02191690556001820160009055600282016000905560038201600080820160006101000a81549060ff0219169055600182016000612103919061213e565b6009820160009055505050600d01612072565b5090565b5b8082111561213357600081600090555060010161211b565b5090565b5060009055565b50806008019061214e919061204d565b50565b600080fd5b6000819050919050565b61216981612156565b811461217457600080fd5b50565b60008135905061218681612160565b92915050565b6000602082840312156121a2576121a1612151565b5b60006121b084828501612177565b91505092915050565b60008115159050919050565b6121ce816121b9565b82525050565b60006020820190506121e960008301846121c5565b92915050565b600073ffffffffffffffffffffffffffffffffffffffff82169050919050565b600061221a826121ef565b9050919050565b61222a8161220f565b82525050565b60006020820190506122456000830184612221565b92915050565b612254816121b9565b811461225f57600080fd5b50565b6000813590506122718161224b565b92915050565b60006020828403121561228d5761228c612151565b5b600061229b84828501612262565b91505092915050565b6122ad81612156565b82525050565b60006020820190506122c860008301846122a4565b92915050565b7f4e487b7100000000000000000000000000000000000000000000000000000000600052602160045260246000fd5b600a811061230e5761230d6122ce565b5b50565b600081905061231f826122fd565b919050565b600061232f82612311565b9050919050565b61233f81612324565b82525050565b600060208201905061235a6000830184612336565b92915050565b6000806040838503121561237757612376612151565b5b600061238585828601612177565b925050602061239685828601612177565b9150509250929050565b7f4e487b7100000000000000000000000000000000000000000000000000000000600052603260045260246000fd5b7f4e487b7100000000000000000000000000000000000000000000000000000000600052600160045260246000fd5b600060408201905061241360008301856122a4565b6124206020830184612221565b9392505050565b7f4e487b7100000000000000000000000000000000000000000000000000000000600052601160045260246000fd5b600061246182612156565b91507fffffffffffffffffffffffffffffffffffffffffffffffffffffffffffffffff820361249357612492612427565b5b600182019050919050565b60006060820190506124b36000830186612221565b6124c06020830185612221565b6124cd60408301846122a4565b949350505050565b60006060820190506124ea60008301866122a4565b6124f76020830185612221565b6125046040830184612221565b949350505050565b600060808201905061252160008301876122a4565b61252e6020830186612221565b61253b6040830185612221565b61254860608301846122a4565b9594505050505056fea2646970667358221220f253c1edffeff18e5bd951242871cc6efd531e961bc6161946094e31b17b9cf364736f6c63430008130033",
  "immutableReferences": {},
  "source": "// SPDX-License-Identifier: MIT\r\npragma solidity >=0.4.22 <0.9.0;\r\n\r\ncontract Battleships {\r\n    enum GameStates{\r\n        WAITING, \r\n        SETTING_STAKE, \r\n        ACCEPTING_PAYMENT,\r\n        PLACING_SHIPS, \r\n        P0_FIRING,\r\n        P1_CHECKING,\r\n        P1_FIRING,\r\n        P0_CHECKING,\r\n        DONE,\r\n        NONE\r\n    }\r\n\r\n    struct Board{\r\n        bool valid;\r\n        // N*N matrix of bits to store hits\r\n        bool[8][8] shots;\r\n        uint totalPieces;\r\n    }\r\n\r\n    struct Player{\r\n        bool valid;\r\n        bool hasPaidStake;\r\n        address playerAddress;\r\n        uint proposedStake;\r\n        bytes32 boardTreeRoot;\r\n        Board shots_board;\r\n    }\r\n\r\n    struct Game{\r\n        bool valid;\r\n        bool canPay;\r\n        // host is always player[0]\r\n        Player[2] players;\r\n        GameStates state;\r\n        uint decidedStake;\r\n        // used for foul accusation, a foul is triggered after 5 blocks\r\n        uint blockNumber;\r\n        // player 0 or player 1\r\n        // might turn it into address, we will see\r\n        bool accuser;\r\n        // whether or not this game should be in the public pool of joinable games\r\n        bool privateGame;\r\n    }\r\n\r\n    mapping(uint => Game) private openGames;\r\n\r\n    Game private gameTrampoline;\r\n    Player private playerTrampoline;\r\n    // used in generating UUIDs for the games\r\n    // for now we are gonna use this as-is\r\n    // start at 1 as 0 is used for a non-existing game\r\n    // TODO: deal with it overflowing\r\n    uint private gameCounter;\r\n    uint private lastOpenGame;\r\n\r\n    constructor() {\r\n        gameCounter = 1;\r\n        lastOpenGame = 1;\r\n    }\r\n\r\n    event ShareID(address _from, address _to, uint _gameID);\r\n    event GameStart(uint _gameID, address _host, address _challenger);\r\n    event SuggestedStake(uint _gameID, address _from, address _to, uint _stakeValue);\r\n    event GamePayable(uint _gameID, address _host, address _challenger, uint _stakeValue);\r\n    event StakePaid(uint _gameID, address _whoPaid);\r\n    event AcceptingBoards(uint _gameID);\r\n\r\n    error InvalidGameID();\r\n    error NotInGame();\r\n    error StakeAlreadyDeposited();\r\n    error WrongStakeAmount(uint expectedStakeValue);\r\n\r\n    modifier gameExists(uint gameID){\r\n        assert(openGames[gameID].valid);\r\n        _;\r\n    }\r\n\r\n    modifier isInGame(uint gameID){\r\n        assert((openGames[gameID].players[0].playerAddress == msg.sender) || (openGames[gameID].players[1].playerAddress == msg.sender));\r\n        _;\r\n    }\r\n\r\n    modifier assertState(uint gameID, GameStates _state){\r\n        assert(openGames[gameID].state == _state);\r\n        _;\r\n    }\r\n\r\n    // create a Game value, add it to openGames, populate the Player[0]\r\n    function newGame(bool isPrivate) public {\r\n        uint gameID = gameCounter;\r\n        gameCounter++;\r\n        Game storage game = gameTrampoline;\r\n        Player storage host = playerTrampoline;\r\n        host.playerAddress = msg.sender;\r\n        host.valid = true;\r\n        host.hasPaidStake = false;\r\n        game.players[0] = host;\r\n        game.state = GameStates.WAITING;\r\n        game.privateGame = isPrivate;\r\n        game.valid = true;\r\n        game.canPay = false;\r\n        openGames[gameID] = game;\r\n        emit ShareID(address(this), msg.sender, gameID);\r\n        return;\r\n    }\r\n    \r\n    function joinGame(uint gameID) public {\r\n        if(gameID == 0){\r\n            // pick an unassigned game in sequential order\r\n            gameID = lastOpenGame;\r\n            while(gameID <= gameCounter){\r\n                // ignore games with sender as host (you can still join your own games directly if you're that lonely)\r\n                if(openGames[gameID].valid == true && \r\n                    openGames[gameID].state == GameStates.WAITING && \r\n                    openGames[gameID].players[0].playerAddress != msg.sender && \r\n                    !openGames[gameID].privateGame){\r\n                    break;\r\n                }\r\n                gameID++;\r\n            }\r\n            // update the lastOpenGame counter no matter what\r\n            lastOpenGame = gameID;\r\n        }\r\n        // if the game wasn't valid, throw an error\r\n        assert(openGames[gameID].valid);\r\n        // set msg sender as this game's player 2\r\n        Player storage challenger = playerTrampoline;\r\n        challenger.playerAddress = msg.sender;\r\n        challenger.valid = true;\r\n        challenger.hasPaidStake = false;\r\n        openGames[gameID].players[1] = challenger;\r\n        // update this game's status\r\n        openGames[gameID].state = GameStates.SETTING_STAKE;\r\n        // alert the players\r\n        emit GameStart(gameID, openGames[gameID].players[0].playerAddress, msg.sender);\r\n        return;\r\n    }\r\n\r\n    function checkGameState(uint gameID) public view returns (GameStates) {\r\n        if (openGames[gameID].valid){\r\n            return openGames[gameID].state;\r\n        }\r\n        else \r\n            return(GameStates.NONE);\r\n    }\r\n\r\n    function checkGamePlayerOne(uint gameID) public view returns (address) {\r\n        if (openGames[gameID].valid && openGames[gameID].players[0].valid){\r\n            return openGames[gameID].players[0].playerAddress;\r\n        }\r\n        else \r\n            return(address(0));\r\n    }\r\n\r\n    function checkGamePlayerTwo(uint gameID) public view returns (address) {\r\n        if (openGames[gameID].valid && openGames[gameID].players[1].valid){\r\n            return openGames[gameID].players[1].playerAddress;\r\n        }\r\n        else \r\n            return(address(0));\r\n    }\r\n\r\n    // Function to propose and agree upon a stake between players\r\n    function proposeStake(uint gameID, uint stakeValue) gameExists(gameID) isInGame(gameID) assertState(gameID, GameStates.SETTING_STAKE) public{\r\n        Game memory game = openGames[gameID];\r\n        // Check whether or not this player's opponent has already proposed a stake\r\n        uint opponentIndex;\r\n        uint stakerIndex;\r\n        if(msg.sender == game.players[0].playerAddress){\r\n            opponentIndex = 1;\r\n            stakerIndex = 0;\r\n        } else {\r\n            opponentIndex = 0;\r\n            stakerIndex = 1;\r\n        }\r\n        uint opponentStake = game.players[opponentIndex].proposedStake;\r\n        // set this player's proposed stake to their message\r\n        openGames[gameID].players[stakerIndex].proposedStake = stakeValue;\r\n        // if the opponent has proposed a stake we check whether or not it equals the one proposed by us\r\n        // 0 is not a valid stake\r\n        if(opponentStake != 0 && opponentStake == stakeValue){\r\n            openGames[gameID].decidedStake = stakeValue;\r\n            openGames[gameID].state = GameStates.ACCEPTING_PAYMENT;\r\n            emit GamePayable(gameID, game.players[0].playerAddress, game.players[1].playerAddress, stakeValue);\r\n        }else{\r\n            emit SuggestedStake(gameID, msg.sender, game.players[opponentIndex].playerAddress, stakeValue);\r\n        }\r\n        return;\r\n    }\r\n\r\n    function checkStakePlayerOne(uint gameID) public view returns (uint) {\r\n        if (openGames[gameID].valid && openGames[gameID].players[0].valid){\r\n            return openGames[gameID].players[0].proposedStake;\r\n        }\r\n        else \r\n            return(0);\r\n    }\r\n\r\n    function checkStakePlayerTwo(uint gameID) public view returns (uint) {\r\n        if (openGames[gameID].valid && openGames[gameID].players[1].valid){\r\n            return openGames[gameID].players[1].proposedStake;\r\n        }\r\n        else \r\n            return(0);\r\n    }\r\n\r\n    function checkStakeGame(uint gameID) public view returns (uint) {\r\n        if (openGames[gameID].valid && openGames[gameID].players[0].valid && openGames[gameID].players[1].valid)\r\n            return openGames[gameID].decidedStake;\r\n        else\r\n            return(0);\r\n    }\r\n    \r\n    function payStake(uint gameID) gameExists(gameID) isInGame(gameID) assertState(gameID, GameStates.ACCEPTING_PAYMENT) external payable {\r\n        // make sure the game exists and has to be paid\r\n        /*\r\n        if(!(openGames[gameID].valid) || !(openGames[gameID].state == GameStates.ACCEPTING_PAYMENT))\r\n            revert InvalidGameID();\r\n        */\r\n        // make sure the sender is part of the game\r\n        /*\r\n        if(!(msg.sender == openGames[gameID].players[0].playerAddress || msg.sender == openGames[gameID].players[1].playerAddress))\r\n            revert NotInGame();\r\n        */\r\n        // check that this user has not paid already\r\n        if((msg.sender == openGames[gameID].players[0].playerAddress && openGames[gameID].players[0].hasPaidStake) ||\r\n            (msg.sender == openGames[gameID].players[1].playerAddress && openGames[gameID].players[1].hasPaidStake))\r\n            revert StakeAlreadyDeposited();\r\n        // only accept payments for the exact amount owed\r\n        if(msg.value != openGames[gameID].decidedStake)\r\n            revert WrongStakeAmount(openGames[gameID].decidedStake);\r\n        // now we check who the sender is\r\n        uint senderIndex;\r\n        uint challengerIndex;\r\n        if(msg.sender == openGames[gameID].players[0].playerAddress){\r\n            senderIndex = 0;\r\n            challengerIndex = 1;\r\n        }else{\r\n            senderIndex = 1;\r\n            challengerIndex = 0;\r\n        }\r\n        openGames[gameID].players[senderIndex].hasPaidStake = true;\r\n        emit StakePaid(gameID, msg.sender);\r\n        // if both players have paid the owed stake the game can move on to its next state\r\n        if(openGames[gameID].players[challengerIndex].hasPaidStake){\r\n            openGames[gameID].state = GameStates.PLACING_SHIPS;\r\n            emit AcceptingBoards(gameID);\r\n        }\r\n    }\r\n\r\n    function checkPaymentPlayerOne(uint gameID) public view returns (bool) {\r\n        if (openGames[gameID].valid && openGames[gameID].players[0].valid){\r\n            return openGames[gameID].players[0].hasPaidStake;\r\n        }\r\n        else \r\n            return(false);\r\n    }\r\n\r\n    function checkPaymentPlayerTwo(uint gameID) public view returns (bool) {\r\n        if (openGames[gameID].valid && openGames[gameID].players[1].valid){\r\n            return openGames[gameID].players[1].hasPaidStake;\r\n        }\r\n        else \r\n            return(false);\r\n    }\r\n\r\n    function checkGamePayable(uint gameID) public view returns (bool) {\r\n        if (openGames[gameID].valid && openGames[gameID].players[0].valid && openGames[gameID].players[1].valid)\r\n            return openGames[gameID].canPay;\r\n        else\r\n            return(false);\r\n    }\r\n    /*\r\n    function PlaceShips(bytes32 boardRoot, gameID){\r\n\r\n    }*/\r\n}",
  "sourcePath": "F:\\Documents\\Code\\School\\P2PBC\\Battleships\\contracts\\Battleships.sol",
  "compiler": {
    "name": "solc",
    "version": "0.8.19+commit.7dd6d404.Emscripten.clang"
  },
  "schemaVersion": "3.4.13",
  "updatedAt": "2023-05-20T21:19:29.930Z",
  "devdoc": {
    "kind": "dev",
    "methods": {},
    "version": 1
  },
  "userdoc": {
    "kind": "user",
    "methods": {},
    "version": 1
  }
}