{
  "contractName": "Battleships",
  "abi": [
    {
      "inputs": [],
      "stateMutability": "nonpayable",
      "type": "constructor"
    },
    {
      "inputs": [],
      "name": "InvalidGameID",
      "type": "error"
    },
    {
      "inputs": [],
      "name": "NoOpenGames",
      "type": "error"
    },
    {
      "inputs": [],
      "name": "NotInGame",
      "type": "error"
    },
    {
      "inputs": [],
      "name": "StakeAlreadyDeposited",
      "type": "error"
    },
    {
      "inputs": [
        {
          "internalType": "uint256",
          "name": "expectedStakeValue",
          "type": "uint256"
        }
      ],
      "name": "WrongStakeAmount",
      "type": "error"
    },
    {
      "anonymous": false,
      "inputs": [
        {
          "indexed": false,
          "internalType": "uint256",
          "name": "_gameID",
          "type": "uint256"
        }
      ],
      "name": "AcceptingBoards",
      "type": "event"
    },
    {
      "anonymous": false,
      "inputs": [
        {
          "indexed": false,
          "internalType": "uint256",
          "name": "_gameID",
          "type": "uint256"
        },
        {
          "indexed": false,
          "internalType": "address",
          "name": "_player",
          "type": "address"
        }
      ],
      "name": "BoardAcknowledgeEvent",
      "type": "event"
    },
    {
      "anonymous": false,
      "inputs": [
        {
          "indexed": false,
          "internalType": "uint256",
          "name": "_gameID",
          "type": "uint256"
        },
        {
          "indexed": false,
          "internalType": "address",
          "name": "_accused",
          "type": "address"
        },
        {
          "indexed": false,
          "internalType": "uint256",
          "name": "_block",
          "type": "uint256"
        }
      ],
      "name": "Foul",
      "type": "event"
    },
    {
      "anonymous": false,
      "inputs": [
        {
          "indexed": false,
          "internalType": "uint256",
          "name": "_gameID",
          "type": "uint256"
        }
      ],
      "name": "GameEnded",
      "type": "event"
    },
    {
      "anonymous": false,
      "inputs": [
        {
          "indexed": false,
          "internalType": "uint256",
          "name": "_gameID",
          "type": "uint256"
        },
        {
          "indexed": false,
          "internalType": "address",
          "name": "_host",
          "type": "address"
        },
        {
          "indexed": false,
          "internalType": "address",
          "name": "_challenger",
          "type": "address"
        },
        {
          "indexed": false,
          "internalType": "uint256",
          "name": "_stakeValue",
          "type": "uint256"
        }
      ],
      "name": "GamePayable",
      "type": "event"
    },
    {
      "anonymous": false,
      "inputs": [
        {
          "indexed": false,
          "internalType": "uint256",
          "name": "_gameID",
          "type": "uint256"
        },
        {
          "indexed": false,
          "internalType": "address",
          "name": "_host",
          "type": "address"
        },
        {
          "indexed": false,
          "internalType": "address",
          "name": "_challenger",
          "type": "address"
        }
      ],
      "name": "GameStart",
      "type": "event"
    },
    {
      "anonymous": false,
      "inputs": [
        {
          "indexed": false,
          "internalType": "uint256",
          "name": "_gameID",
          "type": "uint256"
        }
      ],
      "name": "PlayerZeroTurn",
      "type": "event"
    },
    {
      "anonymous": false,
      "inputs": [
        {
          "indexed": false,
          "internalType": "uint256",
          "name": "_gameID",
          "type": "uint256"
        },
        {
          "indexed": false,
          "internalType": "address",
          "name": "_winner",
          "type": "address"
        }
      ],
      "name": "RequestBoard",
      "type": "event"
    },
    {
      "anonymous": false,
      "inputs": [
        {
          "indexed": false,
          "internalType": "address",
          "name": "_from",
          "type": "address"
        },
        {
          "indexed": false,
          "internalType": "address",
          "name": "_to",
          "type": "address"
        },
        {
          "indexed": false,
          "internalType": "uint256",
          "name": "_gameID",
          "type": "uint256"
        }
      ],
      "name": "ShareID",
      "type": "event"
    },
    {
      "anonymous": false,
      "inputs": [
        {
          "indexed": false,
          "internalType": "uint256",
          "name": "_gameID",
          "type": "uint256"
        },
        {
          "indexed": false,
          "internalType": "uint8",
          "name": "_location",
          "type": "uint8"
        },
        {
          "indexed": false,
          "internalType": "bool",
          "name": "_claim",
          "type": "bool"
        },
        {
          "indexed": false,
          "internalType": "bool",
          "name": "_validity",
          "type": "bool"
        },
        {
          "indexed": false,
          "internalType": "address",
          "name": "_from",
          "type": "address"
        }
      ],
      "name": "ShotsChecked",
      "type": "event"
    },
    {
      "anonymous": false,
      "inputs": [
        {
          "indexed": false,
          "internalType": "uint256",
          "name": "_gameID",
          "type": "uint256"
        },
        {
          "indexed": false,
          "internalType": "uint8",
          "name": "_location",
          "type": "uint8"
        },
        {
          "indexed": false,
          "internalType": "address",
          "name": "_from",
          "type": "address"
        }
      ],
      "name": "ShotsFired",
      "type": "event"
    },
    {
      "anonymous": false,
      "inputs": [
        {
          "indexed": false,
          "internalType": "uint256",
          "name": "_gameID",
          "type": "uint256"
        },
        {
          "indexed": false,
          "internalType": "address",
          "name": "_whoPaid",
          "type": "address"
        }
      ],
      "name": "StakePaid",
      "type": "event"
    },
    {
      "anonymous": false,
      "inputs": [
        {
          "indexed": false,
          "internalType": "uint256",
          "name": "_gameID",
          "type": "uint256"
        },
        {
          "indexed": false,
          "internalType": "address",
          "name": "_from",
          "type": "address"
        },
        {
          "indexed": false,
          "internalType": "address",
          "name": "_to",
          "type": "address"
        },
        {
          "indexed": false,
          "internalType": "uint256",
          "name": "_stakeValue",
          "type": "uint256"
        }
      ],
      "name": "SuggestedStake",
      "type": "event"
    },
    {
      "anonymous": false,
      "inputs": [
        {
          "indexed": false,
          "internalType": "uint256",
          "name": "_gameID",
          "type": "uint256"
        },
        {
          "indexed": false,
          "internalType": "address",
          "name": "_winner",
          "type": "address"
        }
      ],
      "name": "Victory",
      "type": "event"
    },
    {
      "inputs": [],
      "name": "BOARD_SIZE",
      "outputs": [
        {
          "internalType": "uint8",
          "name": "",
          "type": "uint8"
        }
      ],
      "stateMutability": "view",
      "type": "function",
      "constant": true
    },
    {
      "inputs": [],
      "name": "NUMBER_OF_SHIP_SQUARES",
      "outputs": [
        {
          "internalType": "uint8",
          "name": "",
          "type": "uint8"
        }
      ],
      "stateMutability": "view",
      "type": "function",
      "constant": true
    },
    {
      "inputs": [
        {
          "internalType": "bool",
          "name": "isPrivate",
          "type": "bool"
        }
      ],
      "name": "newGame",
      "outputs": [],
      "stateMutability": "nonpayable",
      "type": "function"
    },
    {
      "inputs": [
        {
          "internalType": "uint256",
          "name": "gameID",
          "type": "uint256"
        }
      ],
      "name": "joinGame",
      "outputs": [],
      "stateMutability": "nonpayable",
      "type": "function"
    },
    {
      "inputs": [
        {
          "internalType": "uint256",
          "name": "gameID",
          "type": "uint256"
        }
      ],
      "name": "checkGameState",
      "outputs": [
        {
          "internalType": "enum Battleships.GameStates",
          "name": "",
          "type": "uint8"
        }
      ],
      "stateMutability": "view",
      "type": "function",
      "constant": true
    },
    {
      "inputs": [
        {
          "internalType": "uint256",
          "name": "gameID",
          "type": "uint256"
        },
        {
          "internalType": "uint256",
          "name": "index",
          "type": "uint256"
        }
      ],
      "name": "checkGamePlayer",
      "outputs": [
        {
          "internalType": "address",
          "name": "",
          "type": "address"
        }
      ],
      "stateMutability": "view",
      "type": "function",
      "constant": true
    },
    {
      "inputs": [
        {
          "internalType": "uint256",
          "name": "gameID",
          "type": "uint256"
        },
        {
          "internalType": "uint256",
          "name": "stakeValue",
          "type": "uint256"
        }
      ],
      "name": "proposeStake",
      "outputs": [],
      "stateMutability": "nonpayable",
      "type": "function"
    },
    {
      "inputs": [
        {
          "internalType": "uint256",
          "name": "gameID",
          "type": "uint256"
        }
      ],
      "name": "checkStakePlayerOne",
      "outputs": [
        {
          "internalType": "uint256",
          "name": "",
          "type": "uint256"
        }
      ],
      "stateMutability": "view",
      "type": "function",
      "constant": true
    },
    {
      "inputs": [
        {
          "internalType": "uint256",
          "name": "gameID",
          "type": "uint256"
        }
      ],
      "name": "checkStakePlayerTwo",
      "outputs": [
        {
          "internalType": "uint256",
          "name": "",
          "type": "uint256"
        }
      ],
      "stateMutability": "view",
      "type": "function",
      "constant": true
    },
    {
      "inputs": [
        {
          "internalType": "uint256",
          "name": "gameID",
          "type": "uint256"
        }
      ],
      "name": "checkStakeGame",
      "outputs": [
        {
          "internalType": "uint256",
          "name": "",
          "type": "uint256"
        }
      ],
      "stateMutability": "view",
      "type": "function",
      "constant": true
    },
    {
      "inputs": [
        {
          "internalType": "uint256",
          "name": "gameID",
          "type": "uint256"
        }
      ],
      "name": "payStake",
      "outputs": [],
      "stateMutability": "payable",
      "type": "function",
      "payable": true
    },
    {
      "inputs": [
        {
          "internalType": "uint256",
          "name": "gameID",
          "type": "uint256"
        }
      ],
      "name": "declineStake",
      "outputs": [],
      "stateMutability": "nonpayable",
      "type": "function"
    },
    {
      "inputs": [
        {
          "internalType": "uint256",
          "name": "gameID",
          "type": "uint256"
        }
      ],
      "name": "checkGamePayable",
      "outputs": [
        {
          "internalType": "bool",
          "name": "",
          "type": "bool"
        }
      ],
      "stateMutability": "view",
      "type": "function",
      "constant": true
    },
    {
      "inputs": [
        {
          "internalType": "uint256",
          "name": "gameID",
          "type": "uint256"
        },
        {
          "internalType": "bytes32",
          "name": "boardRoot",
          "type": "bytes32"
        }
      ],
      "name": "PlaceShips",
      "outputs": [],
      "stateMutability": "nonpayable",
      "type": "function"
    },
    {
      "inputs": [
        {
          "internalType": "uint256",
          "name": "gameID",
          "type": "uint256"
        },
        {
          "internalType": "uint8",
          "name": "location",
          "type": "uint8"
        }
      ],
      "name": "FireTorpedo",
      "outputs": [],
      "stateMutability": "nonpayable",
      "type": "function"
    },
    {
      "inputs": [
        {
          "internalType": "uint256",
          "name": "gameID",
          "type": "uint256"
        },
        {
          "internalType": "uint8",
          "name": "location",
          "type": "uint8"
        },
        {
          "internalType": "bool",
          "name": "isHit",
          "type": "bool"
        },
        {
          "internalType": "bytes32",
          "name": "leaf",
          "type": "bytes32"
        },
        {
          "internalType": "bytes32[]",
          "name": "proof",
          "type": "bytes32[]"
        }
      ],
      "name": "ConfirmShot",
      "outputs": [],
      "stateMutability": "nonpayable",
      "type": "function"
    },
    {
      "inputs": [
        {
          "internalType": "uint256",
          "name": "gameID",
          "type": "uint256"
        },
        {
          "internalType": "uint8[]",
          "name": "tiles",
          "type": "uint8[]"
        },
        {
          "internalType": "bool[]",
          "name": "ships",
          "type": "bool[]"
        },
        {
          "internalType": "bytes32[]",
          "name": "nodes",
          "type": "bytes32[]"
        },
        {
          "internalType": "bytes32[][]",
          "name": "proofs",
          "type": "bytes32[][]"
        },
        {
          "internalType": "bytes32",
          "name": "root",
          "type": "bytes32"
        }
      ],
      "name": "VerifyWinner",
      "outputs": [],
      "stateMutability": "nonpayable",
      "type": "function"
    },
    {
      "inputs": [
        {
          "internalType": "uint256",
          "name": "gameID",
          "type": "uint256"
        }
      ],
      "name": "AbandonGame",
      "outputs": [],
      "stateMutability": "nonpayable",
      "type": "function"
    },
    {
      "inputs": [
        {
          "internalType": "uint256",
          "name": "gameID",
          "type": "uint256"
        }
      ],
      "name": "WithdrawWinnings",
      "outputs": [],
      "stateMutability": "nonpayable",
      "type": "function"
    },
    {
      "inputs": [
        {
          "internalType": "uint256",
          "name": "gameID",
          "type": "uint256"
        }
      ],
      "name": "FoulAccusation",
      "outputs": [],
      "stateMutability": "nonpayable",
      "type": "function"
    },
    {
      "inputs": [
        {
          "internalType": "uint256",
          "name": "gameID",
          "type": "uint256"
        }
      ],
      "name": "CheckFoulTimer",
      "outputs": [],
      "stateMutability": "nonpayable",
      "type": "function"
    },
    {
      "inputs": [
        {
          "internalType": "uint256",
          "name": "gameID",
          "type": "uint256"
        },
        {
          "internalType": "enum Battleships.GameStates",
          "name": "state",
          "type": "uint8"
        },
        {
          "internalType": "address",
          "name": "winner",
          "type": "address"
        }
      ],
      "name": "ChangeState",
      "outputs": [],
      "stateMutability": "nonpayable",
      "type": "function"
    }
  ],
  "bytecode": "0x608060405234801561001057600080fd5b50600160248190556025556026805460ff196101003302166001600160a81b031990911617600517905561383a806100496000396000f3fe6080604052600436106101355760003560e01c806399396b11116100ab578063e0dd9bb41161006f578063e0dd9bb414610373578063e6f4a9b714610393578063efaa55a0146103b3578063f28ae7dd146103d3578063f7b68ea9146103f3578063fba523b71461041357600080fd5b806399396b11146102b95780639a2b17be146102f15780639a7e4cea14610311578063aa3ee9151461033e578063dc4a3e951461035e57600080fd5b80633c2d3a88116100fd5780633c2d3a88146101e45780636930aa4d14610204578063699f5aeb1461022b57806374f760e41461025957806379fbd95d1461027957806395287e961461029957600080fd5b8063012b61f01461013a57806307e79cb31461016f5780630e37dcd01461019157806316337b89146101a45780632b170aac146101c4575b600080fd5b34801561014657600080fd5b5061015a610155366004613371565b610433565b60405190151581526020015b60405180910390f35b34801561017b57600080fd5b5061018f61018a36600461338a565b6104ac565b005b61018f61019f366004613371565b610531565b3480156101b057600080fd5b5061018f6101bf3660046133dc565b61082e565b3480156101d057600080fd5b5061018f6101df36600461340c565b610b9c565b3480156101f057600080fd5b5061018f6101ff366004613371565b610ddd565b34801561021057600080fd5b50610219601481565b60405160ff9091168152602001610166565b34801561023757600080fd5b5061024b610246366004613371565b610ed1565b604051908152602001610166565b34801561026557600080fd5b5061018f610274366004613371565b610f38565b34801561028557600080fd5b5061018f61029436600461348d565b611084565b3480156102a557600080fd5b5061018f6102b4366004613507565b611536565b3480156102c557600080fd5b506102d96102d43660046133dc565b611bbc565b6040516001600160a01b039091168152602001610166565b3480156102fd57600080fd5b5061018f61030c366004613371565b611c4c565b34801561031d57600080fd5b5061033161032c366004613371565b611eb7565b60405161016691906135f7565b34801561034a57600080fd5b5061024b610359366004613371565b611eef565b34801561036a57600080fd5b50610219600881565b34801561037f57600080fd5b5061018f61038e36600461361f565b611f47565b34801561039f57600080fd5b5061018f6103ae366004613371565b61220c565b3480156103bf57600080fd5b5061018f6103ce366004613371565b6124bd565b3480156103df57600080fd5b5061018f6103ee3660046133dc565b612735565b3480156103ff57600080fd5b5061018f61040e366004613371565b612b67565b34801561041f57600080fd5b5061024b61042e366004613371565b612e5d565b60008181526020819052604081205460ff168015610462575060008281526020819052604090206001015460ff165b801561047f575060008281526020819052604090206009015460ff165b1561049f5750600090815260208190526040902054610100900460ff1690565b506000919050565b919050565b60265461010090046001600160a01b031633146104cb576104cb613661565b6000838152602081905260409020601101805483919060ff1916600183600b8111156104f9576104f96135e1565b021790555060009283526020839052604090922060150180546001600160a01b0319166001600160a01b039093169290921790915550565b600081815260208190526040902054819060ff1661055157610551613661565b60008281526020819052604090206001015482906001600160a01b0362010000909104163314806105a257506000818152602081905260409020600901546001600160a01b03620100009091041633145b6105ae576105ae613661565b8260038060008381526020819052604090206011015460ff16600b8111156105d8576105d86135e1565b146105e5576105e5613661565b60008581526020819052604081206001019060080201546201000090046001600160a01b03163314801561062f5750600085815260208190526040902060010154610100900460ff165b8061067a57506000858152602081905260409020600901546201000090046001600160a01b03163314801561067a5750600085815260208190526040902060090154610100900460ff165b1561069857604051635e558b2360e01b815260040160405180910390fd5b60008581526020819052604090206012015434146106e55760008581526020819052604090819020601201549051633365c34560e11b815260048101919091526024015b60405180910390fd5b60008581526020819052604081206001015481906201000090046001600160a01b0316330361071a5750600090506001610722565b506001905060005b6000878152602081905260409020600190810183600281106107465761074661364b565b6008020180549115156101000261ff001990921691909117905561076987612f00565b604080518881523360208201527f95ddb9abe17699603c18cef7bcfd33947d19c8eb237e01edac0bd509b481339e910160405180910390a1600087815260208190526040902060010181600281106107c3576107c361364b565b6008020154610100900460ff16156108255760008781526020818152604091829020601101805460ff1916600417905590518881527ff751b3d5e96ffa95a434b79874df7e232b82d5c688a5d61fd7b5c5ce8724712791015b60405180910390a15b50505050505050565b600082815260208190526040902054829060ff1661084e5761084e613661565b60008381526020819052604090206001015483906001600160a01b03620100009091041633148061089f57506000818152602081905260409020600901546001600160a01b03620100009091041633145b6108ab576108ab613661565b8360018060008381526020819052604090206011015460ff16600b8111156108d5576108d56135e1565b146108e2576108e2613661565b600086815260208190526040812081906001018160080201546201000090046001600160a01b0316331461091a576001915081610920565b60009150815b5060008881526020819052604081206001019060080201546201000090046001600160a01b03163314610956575060008061095b565b506001805b506000888152602081905260409020600101826002811061097e5761097e61364b565b60080201600201546000801b1461099457600080fd5b601f805460ff1916600117815560146020556109b160088061368d565b60ff1660215560005b6109c560088061368d565b60ff16811015610a16576000602282604081106109e4576109e461364b565b602091828204019190066101000a81548160ff0219169083151502179055508080610a0e906136b0565b9150506109ba565b50600089815260208190526040902081906001018460028110610a3b57610a3b61364b565b8254600891909102919091016003818101805460ff191660ff90941615159390931783556001840154600483015560028401546005830155610a84916006019084016040613119565b505050600089815260208190526040902088906001018460028110610aab57610aab61364b565b6008020160020155604080518a81523360208201527fde8cdabe60db81138d1e5580b73440f47ba010dbd18575d18bad0b750987001e910160405180910390a160008981526020819052604090206001018260028110610b0d57610b0d61364b565b60080201600201546000801b14610b915760008981526020818152604091829020601181018054600260ff199091161790556001015482518c8152620100009091046001600160a01b031691810191909152338183015290517fdf72bd9cb04731c1dfa0832a380e56504fda45508a7305083a9be0f343e934219181900360600190a15b505050505050505050565b602480549081906000610bae836136b0565b90915550506017805461ff001960ff1962010000338102821661ff01600160b01b03199094169390931760019081178381168087556002805462010000600160b01b031961ffff1990911660ff94851615159097169690961761010080840485161515021795909516908690046001600160a01b0316909502949094178355601854600355601954600455601a80546005805490941695161515949094178255601b54600655601c546007559392839291610c6d6008601d6040613119565b5050505060118301805460ff1990811690915560148401805460ff60a01b1916600160a01b88151502179055835461ffff1990811660019081178655600087815260208190526040902080549384168217815586549390921660ff61010094859004161515909302929092178217815584925090610cf290828101908401600261315c565b50601182810154908201805460ff9092169160ff1916600183600b811115610d1c57610d1c6135e1565b021790555060128281015490820155601380830154908201556014808301805491830180546001600160a01b03198082166001600160a01b039586169081178455935460ff600160a01b91829004161515026001600160a81b03199092169093171790556015938401549390920180549092169216919091179055604080513081523360208201529081018490527f1edfba130181c8da1b98834639c59b5287912fcc01104c5a7a6e6c8cd194e3029060600160405180910390a150505050565b600081815260208190526040902054819060ff16610dfd57610dfd613661565b60008281526020819052604090206001015482906001600160a01b036201000090910416331480610e4e57506000818152602081905260409020600901546001600160a01b03620100009091041633145b610e5a57610e5a613661565b6000838152602081905260409020601401546001600160a01b0316610e7e57600080fd5b602654610e8e9060ff16436136c9565b6000848152602081905260409020601301541015610ecc57600083815260208190526040902060140154610ecc9084906001600160a01b0316612f9b565b505050565b60008181526020819052604081205460ff168015610f00575060008281526020819052604090206001015460ff165b8015610f1d575060008281526020819052604090206009015460ff165b1561049f575060009081526020819052604090206012015490565b600081815260208190526040902054819060ff16610f5857610f58613661565b60008281526020819052604090206015015482906001600160a01b03163314610f8357610f83613661565b8260098060008381526020819052604090206011015460ff16600b811115610fad57610fad6135e1565b14610fba57610fba613661565b600085815260208190526040812060120154610fd79060026136dc565b600087815260208190526040808220601101805460ff1916600a1790555191925090339083908381818185875af1925050503d8060008114611035576040519150601f19603f3d011682016040523d82523d6000602084013e61103a565b606091505b505090508061104857600080fd5b6040518781527fce24807f7e4b60b4e641462f13029fa5e5f79075bbc3f8e5cd43ecd19661d7609060200160405180910390a161082587612fe9565b60008681526020819052604090205460ff166110a2576110a2613661565b6110ad60088061368d565b60ff168560ff16106110c1576110c1613661565b60008681526020819052604090206001015433620100009091046001600160a01b0316036111245760075b60008781526020819052604090206011015460ff16600b811115611112576111126135e1565b1461111f5761111f613661565b61115b565b60008681526020819052604090206009015433620100009091046001600160a01b0316036111535760056110ec565b61115b613661565b600061116687612ea8565b6040805160ff8916602080830191909152881515828401528251808303840181526060909201909252805191012090915084146111a5576111a5613661565b6000878152602081905260409020815173__Merkle________________________________91637ffe9d8c9186918691600190910190600281106111eb576111eb61364b565b6008020160020154886040518563ffffffff1660e01b815260040161121394939291906136f3565b602060405180830381865af4158015611230573d6000803e3d6000fd5b505050506040513d601f19601f820116820180604052508101906112549190613739565b156114dd5761126287612f00565b84156114165760008781526020818152604090912090820151600190910190600281106112915761129161364b565b600802016003016003018660ff16604081106112af576112af61364b565b602081049091015460ff601f9092166101000a9004166114165760008781526020818152604090912090820151600190910190600281106112f2576112f261364b565b60080201600301600101600081548092919061130d90613756565b909155505060008781526020819052604090206001908101828260200201516002811061133c5761133c61364b565b600802016003016003018760ff166040811061135a5761135a61364b565b602091828204019190066101000a81548160ff021916908315150217905550600080888152602001908152602001600020600101816001600281106113a1576113a161364b565b6020020151600281106113b6576113b661364b565b60080201600301600101546000036114165760008781526020818152604090912090820151611410918991600190910190600281106113f7576113f761364b565b60080201546201000090046001600160a01b0316612f9b565b5061152e565b600560008881526020819052604090206011015460ff16600b81111561143e5761143e6135e1565b14611467576000878152602081905260409020601101805460ff19166004908117909155611487565b6000878152602081905260409020601101805460ff191660069081179091555b506040805188815260ff88166020820152861515818301526001606082015233608082015290517f5daf1a84388bd8a6d3801b570a2f677e0915dd586765606221fbc8516e99ca2d9181900360a00190a1610825565b6040805188815260ff8816602082015286151591810191909152600060608201523360808201527f5daf1a84388bd8a6d3801b570a2f677e0915dd586765606221fbc8516e99ca2d9060a00161081c565b505050505050565b60008a81526020819052604081205460ff1661158a5760405162461bcd60e51b815260206004820152601360248201527211d85b5948191bd95cc81b9bdd08195e1a5cdd606a1b60448201526064016106dc565b600860008c81526020819052604090206011015460ff16600b8111156115b2576115b26135e1565b146116105760405162461bcd60e51b815260206004820152602860248201527f47616d65206973206e6f7420696e2074686520434845434b494e475f57494e4e604482015267455220737461746560c01b60648201526084016106dc565b60008b815260208190526040902060018101546015909101546001600160a01b036201000090920482169116036116495750600061164d565b5060015b60008b8152602081905260409020601501546001600160a01b031633146116c55760405162461bcd60e51b815260206004820152602660248201527f4f6e6c79207468652077696e6e65722063616e2076657269667920746865697260448201526508189bd85c9960d21b60648201526084016106dc565b60008b815260208190526040902060010181600281106116e7576116e761364b565b6008020160020154821461175c5760405162461bcd60e51b815260206004820152603660248201527f54686520726f6f742070726f766964656420646f6573206e6f74206d61746368604482015275081d1a19481c9bdbdd081bd9881d1a1948189bd85c9960521b60648201526084016106dc565b61176760088061368d565b60ff1689146117c85760405162461bcd60e51b815260206004820152602760248201527f5468652074696c6573206172726179206973206e6f742074686520636f72726560448201526663742073697a6560c81b60648201526084016106dc565b6117d360088061368d565b60ff1687146118345760405162461bcd60e51b815260206004820152602760248201527f546865207368697073206172726179206973206e6f742074686520636f72726560448201526663742073697a6560c81b60648201526084016106dc565b6000805b61184360088061368d565b60ff168160ff161015611ad25789898260ff168181106118655761186561364b565b905060200201602081019061187a919061340c565b1561188d57816118898161376d565b9250505b6119168c8c8360ff168181106118a5576118a561364b565b90506020020160208101906118ba919061378c565b8b8b8460ff168181106118cf576118cf61364b565b90506020020160208101906118e4919061340c565b6040805160ff939093166020808501919091529115158382015280518084038201815260609093019052815191012090565b88888360ff1681811061192b5761192b61364b565b905060200201351461199a5760405162461bcd60e51b815260206004820152603260248201527f546865206e6f646520646f6573206e6f74206d61746368207468652074696c6560448201527108185b99081cda1a5c081c1c9bdd9a59195960721b60648201526084016106dc565b73__Merkle________________________________637ffe9d8c87878460ff168181106119c9576119c961364b565b90506020028101906119db91906137a7565b878c8c8760ff168181106119f1576119f161364b565b905060200201356040518563ffffffff1660e01b8152600401611a1794939291906136f3565b602060405180830381865af4158015611a34573d6000803e3d6000fd5b505050506040513d601f19601f82011682018060405250810190611a589190613739565b611ac05760405162461bcd60e51b815260206004820152603360248201527f5468652070726f6f6620646f6573206e6f74206d617463682074686520726f6f6044820152721d08185b99081b9bd919481c1c9bdd9a591959606a1b60648201526084016106dc565b80611aca8161376d565b915050611838565b5060ff8116601414611b425760405162461bcd60e51b815260206004820152603360248201527f54686520626f61726420646f6573206e6f7420686176652074686520636f7272604482015272656374206e756d626572206f6620736869707360681b60648201526084016106dc565b60008c8152602081905260409020805461010061ff0019909116178155601101805460ff19166009179055611b768c612f00565b604080518d81523360208201527fc2815c82adc4278d6e044948482e0d16acf9a6369fc96eff02ffc7e7cd5f39d0910160405180910390a1505050505050505050505050565b60008281526020819052604081205460ff168015611c00575060008381526020819052604090206001018260028110611bf757611bf761364b565b600802015460ff165b15611c425760008381526020819052604090206001018260028110611c2757611c2761364b565b60080201546201000090046001600160a01b03169050611c46565b5060005b92915050565b600081815260208190526040902054819060ff16611c6c57611c6c613661565b60008281526020819052604090206001015482906001600160a01b036201000090910416331480611cbd57506000818152602081905260409020600901546001600160a01b03620100009091041633145b611cc957611cc9613661565b6000838152602081905260408120600101546201000090046001600160a01b03163303611cf857506001611cfc565b5060005b60008481526020819052604090206001018160028110611d1e57611d1e61364b565b6008020154610100900460ff168015611d6f57506000848152602081905260409020600190810190611d519083906137f1565b60028110611d6157611d6161364b565b6008020154610100900460ff165b15611da1576000848152602081905260409020611d9c90859060010183600281106113f7576113f761364b565b611eb1565b60008481526020819052604090206001018160028110611dc357611dc361364b565b6008020154610100900460ff1615611e755760008481526020819052604081206001018260028110611df757611df761364b565b600802015460008681526020819052604090819020601201549051620100009092046001600160a01b03169160006040518083038185875af1925050503d8060008114611e60576040519150601f19603f3d011682016040523d82523d6000602084013e611e65565b606091505b5050905080611e7357600080fd5b505b6040518481527fce24807f7e4b60b4e641462f13029fa5e5f79075bbc3f8e5cd43ecd19661d7609060200160405180910390a1611eb184612fe9565b50505050565b60008181526020819052604081205460ff1615611ee7575060009081526020819052604090206011015460ff1690565b50600b919050565b60008181526020819052604081205460ff168015611f1e575060008281526020819052604090206009015460ff165b1561049f5760008281526020819052604090206001908101905b60080201600101549050919050565b600082815260208190526040902054829060ff16611f6757611f67613661565b60008381526020819052604090206001015483906001600160a01b036201000090910416331480611fb857506000818152602081905260409020600901546001600160a01b03620100009091041633145b611fc457611fc4613661565b82611fd060088061368d565b60ff168160ff1610611fe457611fe4613661565b8460046000611ff283612ea8565b9050600482600b811115612008576120086135e1565b036120675780516000036120605781600b811115612028576120286135e1565b60008481526020819052604090206011015460ff16600b81111561204e5761204e6135e1565b1461205b5761205b613661565b6120aa565b6006612028565b600782600b81111561207b5761207b6135e1565b036120a257805160000361209b5781600b811115612028576120286135e1565b6005612028565b6120aa613661565b506120b487612f00565b60006120bf88612ea8565b9050600460008981526020819052604090206011015460ff16600b8111156120e9576120e96135e1565b14612112576000888152602081905260409020601101805460ff19166007908117909155612132565b6000888152602081905260409020601101805460ff191660059081179091555b5060008881526020819052604090208151600190910190600281106121595761215961364b565b60080201600301600201600081548092919061217490613756565b9091555050600088815260208190526040902081516001909101906002811061219f5761219f61364b565b60080201600301600201546000036121c0576121bb8833612f9b565b612202565b6040805189815260ff89166020820152338183015290517f14ba1310e28cb93a7363176f97b4b776f03e7b3d2f8845631ff3fdecd770cc739181900360600190a15b5050505050505050565b600081815260208190526040902054819060ff1661222c5761222c613661565b60008281526020819052604090206001015482906001600160a01b03620100009091041633148061227d57506000818152602081905260409020600901546001600160a01b03620100009091041633145b61228957612289613661565b8260038060008381526020819052604090206011015460ff16600b8111156122b3576122b36135e1565b146122c0576122c0613661565b60008581526020819052604081206001019060080201546201000090046001600160a01b03163314801561230a5750600085815260208190526040902060010154610100900460ff165b8061235557506000858152602081905260409020600901546201000090046001600160a01b0316331480156123555750600085815260208190526040902060090154610100900460ff165b1561237357604051635e558b2360e01b815260040160405180910390fd5b60008581526020819052604081206001015481906201000090046001600160a01b031633036123a857506000905060016123b0565b506001905060005b600087815260208190526040902060010181600281106123d2576123d261364b565b6008020154610100900460ff161561248457600087815260208190526040812060010182600281106124065761240661364b565b600802015460008981526020819052604090819020601201549051620100009092046001600160a01b03169160006040518083038185875af1925050503d806000811461246f576040519150601f19603f3d011682016040523d82523d6000602084013e612474565b606091505b505090508061248257600080fd5b505b61248d87612fe9565b6040518781527fce24807f7e4b60b4e641462f13029fa5e5f79075bbc3f8e5cd43ecd19661d7609060200161081c565b8060000361258257506025545b6024548110156125825760008181526020819052604090205460ff161515600114801561251a575060008181526020819052604081206011015460ff16600b811115612518576125186135e1565b145b801561254757506000818152602081905260409020600101546001600160a01b0362010000909104163314155b801561256c5750600081815260208190526040902060140154600160a01b900460ff16155b612582578061257a816136b0565b9150506124ca565b60008181526020819052604090205460ff166125b157604051630251ee3760e01b815260040160405180910390fd5b60008181526020819052604081206011015460ff16600b8111156125d7576125d76135e1565b146125e4576125e4613661565b6125ef8160016136c9565b6025556017805461ff001960ff1962010000338102821661ff01600160b01b03199094169390931760011782811685556000868152602081905260409081902060098101805480861660ff95861615159081178355895461ffff19909216971696909617610100968790048516151590960295909517808655875462010000600160b01b0319909116908790046001600160a01b0316909602959095178455601854600a860155601954600b860155601a8054600c8701805490951693161515929092178355601b54600d860155601c54600e86015585949192916126dc91600f90910190601d90613119565b50505060008481526020818152604091829020601101805460ff1916600117905590518581527f972651cf62ccc65bd2ba0fd996eb34701d5773844d3303545d5b4cb29738f10493500190505b60405180910390a15050565b600082815260208190526040902054829060ff1661275557612755613661565b60008381526020819052604090206001015483906001600160a01b0362010000909104163314806127a657506000818152602081905260409020600901546001600160a01b03620100009091041633145b6127b2576127b2613661565b8360028060008381526020819052604090206011015460ff16600b8111156127dc576127dc6135e1565b146127e9576127e9613661565b600086815260208181526040808320815161012081018352815460ff808216151583526101009091041615159381019390935281518083018352909183019060018301600286835b8282101561292c576040805160c081018252600884028601805460ff80821615158452610100820481161515602080860191909152620100009092046001600160a01b031684860152600183015460608086019190915260028401546080808701919091528651908101875260038501805490931615158152600485015493810193909352600584015483870152855161080081018088529596949560a0880195928501926006880191826000855b825461010083900a900460ff1615158152602060019283018181049485019490930390920291018084116128e05790505050505050815250508152505081526020019060010190612831565b50505090825250601182015460209091019060ff16600b811115612952576129526135e1565b600b811115612963576129636135e1565b815260128201546020820152601382015460408083019190915260148301546001600160a01b038082166060850152600160a01b90910460ff161515608084015260159093015490921660a0909101528101519091506000908190816020020151604001516001600160a01b031633036129e357506001905060006129eb565b506000905060015b600083604001518360028110612a0357612a0361364b565b6020020151606001519050886000808c81526020019081526020016000206001018360028110612a3557612a3561364b565b600802016001018190555080600014158015612a5057508881145b15612adf5760008a81526020818152604091829020601281018c9055601101805460ff191660031790558582015180518301519082015183015183518e81526001600160a01b03928316938101939093521681830152606081018b905290517fa63491c3e48c84a30c1a58128201bca4fd87bb84850cda339020ce19051e5a90916080908290030190a1612b5b565b7f4adf94e8b5302c48b3df6533aa17748538d68a74af46f0a894839b61fbf3f1bf8a3386604001518660028110612b1857612b1861364b565b6020020151604001518c604051612b5294939291909384526001600160a01b03928316602085015291166040830152606082015260800190565b60405180910390a15b50505050505050505050565b600081815260208190526040902054819060ff16612b8757612b87613661565b6000828152602081905260408120600101546201000090046001600160a01b03163303612bb657506000612be1565b6000838152602081905260409020600901546201000090046001600160a01b03163303612be1575060015b600660008481526020819052604090206011015460ff16600b811115612c0957612c096135e1565b1480612c3a5750600560008481526020819052604090206011015460ff16600b811115612c3857612c386135e1565b145b15612c52578015612c4d57612c4d613661565b612d86565b600460008481526020819052604090206011015460ff16600b811115612c7a57612c7a6135e1565b1480612cab5750600760008481526020819052604090206011015460ff16600b811115612ca957612ca96135e1565b145b15612cc05780600114612c4d57612c4d613661565b600360008481526020819052604090206011015460ff16600b811115612ce857612ce86135e1565b03612d285760008381526020819052604090206001018160028110612d0f57612d0f61364b565b6008020154610100900460ff16612c4d57612c4d613661565b600860008481526020819052604090206011015460ff16600b811115612d5057612d506135e1565b03612d7e576000838152602081905260409020601501546001600160a01b03163303612c4d57612c4d613661565b612d86613661565b6000838152602081905260409020601401546001600160a01b031615612dab57600080fd5b60008381526020819052604090206014810180546001600160a01b031916331790554360138201557f0bf978ab2586eab9e083eec06f934bd39c6da770feb9502455f09c4cf17b1bec908490600190810190612e089085906137f1565b60028110612e1857612e1861364b565b600802015460008681526020818152604091829020601301548251948552620100009093046001600160a01b03169084015282015260600160405180910390a1505050565b60008181526020819052604081205460ff168015612e8c575060008281526020819052604090206001015460ff165b1561049f57600082815260208190526040812060010190611f38565b612eb061324e565b612eb861324e565b6000838152602081905260409020600101546201000090046001600160a01b03163303612eef576000815260016020820152611c46565b600181526000602082015292915050565b6000818152602081905260409020601401546001600160a01b031615801590612f4357506000818152602081905260409020601401546001600160a01b03163314155b15612f9857602654612f589060ff16436136c9565b6000828152602081905260409020601301541115612f7857612f78613661565b600081815260208190526040902060140180546001600160a01b03191690555b50565b60008281526020819052604090206015810180546001600160a01b0384166001600160a01b031990911681179091556011909101805460ff19166008179055612fe59083906130db565b5050565b600081815260208190526040812060048101805460ff1990811690915560058201839055600682018390556007820183905560088201839055600c820180549091169055600d8101829055600e8101829055600f8101829055601081018290556001810180546001600160b01b0319908116825560028301849055600383018490556009830180549091169055600a8201839055600b8201839055815461ffff1916825590919061309a908261326c565b5060118101805460ff1916905560006012820181905560138201556014810180546001600160a81b031916905560150180546001600160a01b031916905550565b604080518381526001600160a01b03831660208201527fc53d54ea71e800bb40731cf938b78bbb3e167ca69808d9e2945e2f018b3c40679101612729565b60028301918390821561314c5791601f016020900482015b8281111561314c578254825591600101919060010190613131565b50613158929150613308565b5090565b601083019183908215613242579160080282015b82811115613242578254825460ff918216151560ff1980831682178655865461010090819004851615150261ff001990921661ffff19909316929092171780855585546001600160a01b036201000091829004160262010000600160b01b03199091161784556001808601549085015560028086015490850155600380860180549186018054929094161515919092161782556004808601549085015560058086015490850155849184919061322e60068085019086016040613119565b505050505091600801919060080190613170565b5061315892915061331d565b60405180604001604052806002906020820280368337509192915050565b5080546001600160b01b03191681556000600182018190556002820181905560038201805460ff191681556004830182905560058301829055600683018290556007830182905550506008810180546001600160b01b0319168155600060098301819055600a8301819055600b8301805460ff19168155600c8401829055600d8401829055600e8401829055600f909301819055909181611eb1565b5b808211156131585760008155600101613309565b808211156131585780546001600160b01b03191681556000600182018190556002820181905560038201805460ff19169055600482018190556005820181905560068201819055600782015560080161331d565b60006020828403121561338357600080fd5b5035919050565b60008060006060848603121561339f57600080fd5b833592506020840135600c81106133b557600080fd5b915060408401356001600160a01b03811681146133d157600080fd5b809150509250925092565b600080604083850312156133ef57600080fd5b50508035926020909101359150565b8015158114612f9857600080fd5b60006020828403121561341e57600080fd5b8135613429816133fe565b9392505050565b803560ff811681146104a757600080fd5b60008083601f84011261345357600080fd5b50813567ffffffffffffffff81111561346b57600080fd5b6020830191508360208260051b850101111561348657600080fd5b9250929050565b60008060008060008060a087890312156134a657600080fd5b863595506134b660208801613430565b945060408701356134c6816133fe565b935060608701359250608087013567ffffffffffffffff8111156134e957600080fd5b6134f589828a01613441565b979a9699509497509295939492505050565b60008060008060008060008060008060c08b8d03121561352657600080fd5b8a35995060208b013567ffffffffffffffff8082111561354557600080fd5b6135518e838f01613441565b909b50995060408d013591508082111561356a57600080fd5b6135768e838f01613441565b909950975060608d013591508082111561358f57600080fd5b61359b8e838f01613441565b909750955060808d01359150808211156135b457600080fd5b506135c18d828e01613441565b9150809450508092505060a08b013590509295989b9194979a5092959850565b634e487b7160e01b600052602160045260246000fd5b60208101600c831061361957634e487b7160e01b600052602160045260246000fd5b91905290565b6000806040838503121561363257600080fd5b8235915061364260208401613430565b90509250929050565b634e487b7160e01b600052603260045260246000fd5b634e487b7160e01b600052600160045260246000fd5b634e487b7160e01b600052601160045260246000fd5b60ff81811683821602908116908181146136a9576136a9613677565b5092915050565b6000600182016136c2576136c2613677565b5060010190565b80820180821115611c4657611c46613677565b8082028115828204841417611c4657611c46613677565b6060808252810184905260006001600160fb1b0385111561371357600080fd5b8460051b8087608085013760208301949094525060408101919091520160800192915050565b60006020828403121561374b57600080fd5b8151613429816133fe565b60008161376557613765613677565b506000190190565b600060ff821660ff810361378357613783613677565b60010192915050565b60006020828403121561379e57600080fd5b61342982613430565b6000808335601e198436030181126137be57600080fd5b83018035915067ffffffffffffffff8211156137d957600080fd5b6020019150600581901b360382131561348657600080fd5b81810381811115611c4657611c4661367756fea2646970667358221220e3bf373f77a59ae09edccd52fd0fa4ec6a4071012a4d8bd512deca74f6b2b52f64736f6c63430008130033",
  "immutableReferences": {},
  "source": "// SPDX-License-Identifier: MIT\r\npragma solidity >=0.4.22 <0.9.0;\r\n\r\nimport { Merkle } from \"./Merkle.sol\";\r\n\r\ncontract Battleships {\r\n    uint8 public constant NUMBER_OF_SHIP_SQUARES = 20;\r\n    uint8 public constant BOARD_SIZE = 8;\r\n    enum GameStates{\r\n        WAITING, \r\n        PLACING_SHIPS, \r\n        SETTING_STAKE, \r\n        ACCEPTING_PAYMENT,\r\n        P0_FIRING,\r\n        P1_CHECKING,\r\n        P1_FIRING,\r\n        P0_CHECKING,\r\n        CHECKING_WINNER,\r\n        PAYABLE,\r\n        DONE,\r\n        NONE\r\n    }\r\n\r\n    // In this struct we save the view a player has of its opponent's board\r\n    struct Board{\r\n        bool valid;\r\n        // N*N matrix of bits to store hits\r\n        // bool[BOARD_SIZE][BOARD_SIZE] shots;\r\n        // # of enemy pieces still left on the board\r\n        // goes down by one each time we receive one 'you hit' event\r\n        uint totalPieces;\r\n        // 8*8, we use this to avoid cheating\r\n        uint totalShots;\r\n        bool[BOARD_SIZE*BOARD_SIZE] board; \r\n    }\r\n\r\n    struct Player{\r\n        bool valid;\r\n        bool hasPaidStake;\r\n        address playerAddress;\r\n        uint proposedStake;\r\n        bytes32 boardTreeRoot;\r\n        Board shots_board;\r\n    }\r\n\r\n    struct Game{\r\n        bool valid;\r\n        bool canPay;\r\n        // host is always player[0]\r\n        Player[2] players;\r\n        GameStates state;\r\n        uint decidedStake;\r\n        // used for foul accusation, a foul is triggered after 5 blocks\r\n        uint blockNumber;\r\n        // player 0 or player 1\r\n        // might turn it into address, we will see\r\n        address accuser;\r\n        // whether or not this game should be in the public pool of joinable games\r\n        bool privateGame;\r\n        address winner;\r\n    }\r\n\r\n    mapping(uint => Game) private openGames;\r\n\r\n    Game private gameTrampoline;\r\n    Player private playerTrampoline;\r\n    Board private trampolineBoard;\r\n    // used in generating UUIDs for the games\r\n    // for now we are gonna use this as-is\r\n    // start at 1 as 0 is used for a non-existing game\r\n    // we just don't deal with it overflowing because it's realistically impossible\r\n    uint private gameCounter;\r\n    uint private lastOpenGame;\r\n    uint8 private foulBlockLen;\r\n    address private owner;\r\n\r\n    constructor() {\r\n        gameCounter = 1;\r\n        lastOpenGame = 1;\r\n        owner = msg.sender;\r\n        // this could be passed as parameter\r\n        foulBlockLen = 5;\r\n    }\r\n\r\n    event ShareID(address _from, address _to, uint _gameID);\r\n    event GameStart(uint _gameID, address _host, address _challenger);\r\n    event SuggestedStake(uint _gameID, address _from, address _to, uint _stakeValue);\r\n    event GamePayable(uint _gameID, address _host, address _challenger, uint _stakeValue);\r\n    event StakePaid(uint _gameID, address _whoPaid);\r\n    event AcceptingBoards(uint _gameID);\r\n    event BoardAcknowledgeEvent(uint _gameID, address _player);\r\n    event PlayerZeroTurn(uint _gameID);\r\n    event ShotsFired(uint _gameID, uint8 _location, address _from);\r\n    event ShotsChecked(uint _gameID, uint8 _location, bool _claim, bool _validity, address _from);\r\n    event RequestBoard(uint _gameID, address _winner);\r\n    event Victory(uint _gameID, address _winner);\r\n    event Foul(uint _gameID, address _accused, uint _block);\r\n    event GameEnded(uint _gameID);\r\n\r\n    error NoOpenGames();\r\n    error InvalidGameID();\r\n    error NotInGame();\r\n    error StakeAlreadyDeposited();\r\n    error WrongStakeAmount(uint expectedStakeValue);\r\n\r\n    modifier gameExists(uint gameID){\r\n        assert(openGames[gameID].valid);\r\n        _;\r\n    }\r\n\r\n    modifier isInGame(uint gameID){\r\n        assert((openGames[gameID].players[0].playerAddress == msg.sender) || (openGames[gameID].players[1].playerAddress == msg.sender));\r\n        _;\r\n    }\r\n\r\n    modifier assertState(uint gameID, GameStates _state){\r\n        if(_state != GameStates.P0_FIRING && _state != GameStates.P1_FIRING && _state != GameStates.P0_CHECKING && _state != GameStates.P1_CHECKING)\r\n            assert(openGames[gameID].state == _state);\r\n        else{\r\n            // We check firing states with P0_FIRING and checking states with P0_CHECKING, for both players\r\n            uint[2] memory indexes = getIndexSender(gameID);\r\n            if(_state == GameStates.P0_FIRING){\r\n                if(indexes[0] == 0)\r\n                    assert(openGames[gameID].state == _state);\r\n                else\r\n                    assert(openGames[gameID].state == GameStates.P1_FIRING);\r\n            }\r\n            else if(_state == GameStates.P0_CHECKING){\r\n                if(indexes[0] == 0)\r\n                    assert(openGames[gameID].state == _state);\r\n                else\r\n                    assert(openGames[gameID].state == GameStates.P1_CHECKING);\r\n            }\r\n            else assert(false);\r\n        }\r\n        _;\r\n    }\r\n\r\n    modifier playerInRange(uint gameID, uint index){\r\n        assert(openGames[gameID].players[index].valid);\r\n        assert(index < openGames[gameID].players.length);\r\n        _;\r\n    }\r\n\r\n    modifier shotOnBoard(uint8 location){\r\n        assert(location < (BOARD_SIZE*BOARD_SIZE));\r\n        _;\r\n    }\r\n\r\n    modifier isWinner(uint gameID){\r\n        assert(openGames[gameID].winner == msg.sender);\r\n        _;\r\n    }\r\n\r\n    function getIndexSender (uint gameID) view private returns(uint[2] memory) {\r\n        // indexes[0]: msg.sender index\r\n        // indexes[1]: msg.sender opponent's index\r\n        uint[2] memory indexes;\r\n        if(msg.sender == openGames[gameID].players[0].playerAddress){\r\n            indexes[0] = 0;\r\n            indexes[1] = 1;\r\n        } else {\r\n            indexes[0] = 1;\r\n            indexes[1] = 0;\r\n        }\r\n        return indexes;\r\n    }\r\n\r\n    // create a Game value, add it to openGames, populate the Player[0]\r\n    function newGame(bool isPrivate) public {\r\n        uint gameID = gameCounter;\r\n        gameCounter++;\r\n        Game storage game = gameTrampoline;\r\n        Player storage host = playerTrampoline;\r\n        host.playerAddress = msg.sender;\r\n        host.valid = true;\r\n        host.hasPaidStake = false;\r\n        game.players[0] = host;\r\n        game.state = GameStates.WAITING;\r\n        game.privateGame = isPrivate;\r\n        game.valid = true;\r\n        game.canPay = false;\r\n        openGames[gameID] = game;\r\n        emit ShareID(address(this), msg.sender, gameID);\r\n        return;\r\n    }\r\n    \r\n    function joinGame(uint gameID) public {\r\n        if(gameID == 0){\r\n            // pick an unassigned game in sequential order\r\n            gameID = lastOpenGame;\r\n            while (gameID < gameCounter){\r\n                // ignore games with sender as host (you can still join your own games directly if you're that lonely)\r\n                if(openGames[gameID].valid == true && \r\n                    openGames[gameID].state == GameStates.WAITING && \r\n                    openGames[gameID].players[0].playerAddress != msg.sender && \r\n                    !openGames[gameID].privateGame){\r\n                    break;\r\n                }\r\n                gameID++;\r\n            }\r\n        }\r\n        // if the game wasn't valid, throw an error\r\n        if(!openGames[gameID].valid)\r\n            revert NoOpenGames();\r\n\r\n        assert(openGames[gameID].state == GameStates.WAITING);\r\n\r\n        // update the lastOpenGame counter no matter what\r\n        lastOpenGame = gameID + 1;\r\n        // set msg sender as this game's player 2\r\n        Player storage challenger = playerTrampoline;\r\n        challenger.playerAddress = msg.sender;\r\n        challenger.valid = true;\r\n        challenger.hasPaidStake = false;\r\n        openGames[gameID].players[1] = challenger;\r\n        // update this game's status\r\n        openGames[gameID].state = GameStates.PLACING_SHIPS;\r\n        // alert the players\r\n        emit AcceptingBoards(gameID);\r\n        return;\r\n    }\r\n\r\n    function checkGameState(uint gameID) public view returns (GameStates) {\r\n        if (openGames[gameID].valid){\r\n            return openGames[gameID].state;\r\n        }\r\n        else \r\n            return(GameStates.NONE);\r\n    }\r\n\r\n    function checkGamePlayer(uint gameID, uint index) public view returns (address) {\r\n        if (openGames[gameID].valid && openGames[gameID].players[index].valid){\r\n            return openGames[gameID].players[index].playerAddress;\r\n        }\r\n        else \r\n            return(address(0));\r\n    }\r\n\r\n    // Function to propose and agree upon a stake between players\r\n    function proposeStake(uint gameID, uint stakeValue) gameExists(gameID) isInGame(gameID) assertState(gameID, GameStates.SETTING_STAKE) public{\r\n        Game memory game = openGames[gameID];\r\n        // Check whether or not this player's opponent has already proposed a stake\r\n        uint opponentIndex;\r\n        uint stakerIndex;\r\n        if(msg.sender == game.players[0].playerAddress){\r\n            opponentIndex = 1;\r\n            stakerIndex = 0;\r\n        } else {\r\n            opponentIndex = 0;\r\n            stakerIndex = 1;\r\n        }\r\n        uint opponentStake = game.players[opponentIndex].proposedStake;\r\n        // set this player's proposed stake to their message\r\n        openGames[gameID].players[stakerIndex].proposedStake = stakeValue;\r\n        // if the opponent has proposed a stake we check whether or not it equals the one proposed by us\r\n        // 0 is not a valid stake\r\n        if(opponentStake != 0 && opponentStake == stakeValue){\r\n            openGames[gameID].decidedStake = stakeValue;\r\n            openGames[gameID].state = GameStates.ACCEPTING_PAYMENT;\r\n            emit GamePayable(gameID, game.players[0].playerAddress, game.players[1].playerAddress, stakeValue);\r\n        }else{\r\n            emit SuggestedStake(gameID, msg.sender, game.players[opponentIndex].playerAddress, stakeValue);\r\n        }\r\n        return;\r\n    }\r\n\r\n    function checkStakePlayerOne(uint gameID) public view returns (uint) {\r\n        if (openGames[gameID].valid && openGames[gameID].players[0].valid){\r\n            return openGames[gameID].players[0].proposedStake;\r\n        }\r\n        else \r\n            return(0);\r\n    }\r\n\r\n    function checkStakePlayerTwo(uint gameID) public view returns (uint) {\r\n        if (openGames[gameID].valid && openGames[gameID].players[1].valid){\r\n            return openGames[gameID].players[1].proposedStake;\r\n        }\r\n        else \r\n            return(0);\r\n    }\r\n\r\n    function checkStakeGame(uint gameID) public view returns (uint) {\r\n        if (openGames[gameID].valid && openGames[gameID].players[0].valid && openGames[gameID].players[1].valid)\r\n            return openGames[gameID].decidedStake;\r\n        else\r\n            return(0);\r\n    }\r\n    \r\n    function payStake(uint gameID) gameExists(gameID) isInGame(gameID) assertState(gameID, GameStates.ACCEPTING_PAYMENT) external payable {\r\n        if((msg.sender == openGames[gameID].players[0].playerAddress && openGames[gameID].players[0].hasPaidStake) ||\r\n            (msg.sender == openGames[gameID].players[1].playerAddress && openGames[gameID].players[1].hasPaidStake))\r\n            revert StakeAlreadyDeposited();\r\n        // only accept payments for the exact amount owed\r\n        if(msg.value != openGames[gameID].decidedStake)\r\n            revert WrongStakeAmount(openGames[gameID].decidedStake);\r\n        // now we check who the sender is\r\n        uint senderIndex;\r\n        uint challengerIndex;\r\n        if(msg.sender == openGames[gameID].players[0].playerAddress){\r\n            senderIndex = 0;\r\n            challengerIndex = 1;\r\n        }else{\r\n            senderIndex = 1;\r\n            challengerIndex = 0;\r\n        }\r\n        openGames[gameID].players[senderIndex].hasPaidStake = true;\r\n        // Clear possible foul\r\n        ClearFoul(gameID);\r\n        emit StakePaid(gameID, msg.sender);\r\n        // if both players have paid the owed stake the game can move on to its next state\r\n        if(openGames[gameID].players[challengerIndex].hasPaidStake){\r\n            openGames[gameID].state = GameStates.P0_FIRING;\r\n            emit PlayerZeroTurn(gameID);\r\n        }\r\n    }\r\n\r\n    function deleteGame(uint gameID) internal{ \r\n        delete openGames[gameID].players[0].shots_board;\r\n        delete openGames[gameID].players[1].shots_board;\r\n        delete openGames[gameID].players[0];\r\n        delete openGames[gameID].players[1];\r\n        delete openGames[gameID];\r\n    }\r\n\r\n    function declineStake(uint gameID) gameExists(gameID) isInGame(gameID) assertState(gameID, GameStates.ACCEPTING_PAYMENT) external {\r\n        // if this player has already paid the stake, they can't decline it\r\n        if((msg.sender == openGames[gameID].players[0].playerAddress && openGames[gameID].players[0].hasPaidStake) ||\r\n            (msg.sender == openGames[gameID].players[1].playerAddress && openGames[gameID].players[1].hasPaidStake))\r\n            revert StakeAlreadyDeposited();\r\n        // now we check who the sender is\r\n        uint senderIndex;\r\n        uint challengerIndex;\r\n        if(msg.sender == openGames[gameID].players[0].playerAddress){\r\n            senderIndex = 0;\r\n            challengerIndex = 1;\r\n        }else{\r\n            senderIndex = 1;\r\n            challengerIndex = 0;\r\n        }\r\n        // check if the opponent has already paid its stake\r\n        if(openGames[gameID].players[challengerIndex].hasPaidStake){\r\n            // if they have, we refund it\r\n            (bool success, ) = openGames[gameID].players[challengerIndex].playerAddress.call{value:openGames[gameID].decidedStake}(\"\");\r\n            require(success);\r\n        }\r\n        // then we delete the game\r\n        deleteGame(gameID);\r\n        emit GameEnded(gameID);\r\n    }\r\n    \r\n    function checkGamePayable(uint gameID) public view returns (bool) {\r\n        if (openGames[gameID].valid && openGames[gameID].players[0].valid && openGames[gameID].players[1].valid)\r\n            return openGames[gameID].canPay;\r\n        else\r\n            return(false);\r\n    }\r\n    \r\n    function PlaceShips(uint gameID, bytes32 boardRoot) gameExists(gameID) isInGame(gameID) assertState(gameID, GameStates.PLACING_SHIPS) public{\r\n        uint index;\r\n        uint oppIdx;\r\n        msg.sender == openGames[gameID].players[0].playerAddress ? index = 0 : index = 1;\r\n        msg.sender == openGames[gameID].players[0].playerAddress ? oppIdx = 1 : oppIdx = 0;\r\n        require(openGames[gameID].players[index].boardTreeRoot == 0x0);\r\n        // Instantiate a new shots board\r\n        // Instantiate the Board struct itself and assign it to a player\r\n        Board storage playerBoard = trampolineBoard;\r\n        trampolineBoard.valid = true;\r\n        trampolineBoard.totalPieces = NUMBER_OF_SHIP_SQUARES;\r\n        trampolineBoard.totalShots = (BOARD_SIZE*BOARD_SIZE);\r\n        for(uint i = 0; i < (BOARD_SIZE*BOARD_SIZE); i++){\r\n            trampolineBoard.board[i] = false;\r\n        }\r\n        openGames[gameID].players[index].shots_board = playerBoard;\r\n        // save the received boardRoot, finally\r\n        openGames[gameID].players[index].boardTreeRoot = boardRoot;\r\n        emit BoardAcknowledgeEvent(gameID, msg.sender);\r\n        if(openGames[gameID].players[oppIdx].boardTreeRoot != 0x0){\r\n            openGames[gameID].state = GameStates.SETTING_STAKE;\r\n            emit GameStart(gameID, openGames[gameID].players[0].playerAddress, msg.sender);\r\n        }\r\n    }\r\n\r\n    function TestWinner(uint gameID, address claimant) private {\r\n        openGames[gameID].winner = claimant;\r\n        openGames[gameID].state = GameStates.CHECKING_WINNER;\r\n        RequestWinnerBoard(gameID, openGames[gameID].winner);\r\n    }\r\n\r\n    // for info on what location is see \"Implementation of the user-side game board\" in README.md\r\n    function FireTorpedo(uint gameID, uint8 location) gameExists(gameID) isInGame(gameID) shotOnBoard(location) assertState(gameID, GameStates.P0_FIRING) public {\r\n        // if we got past the modifiers, this means the shot is valid\r\n        // let's clear any potential fouls for this user\r\n        ClearFoul(gameID);\r\n        uint[2] memory indexes = getIndexSender(gameID);\r\n        // Rotate into correct next state\r\n        openGames[gameID].state == GameStates.P0_FIRING ? openGames[gameID].state = GameStates.P1_CHECKING : openGames[gameID].state = GameStates.P0_CHECKING;\r\n        // Now for some game logic\r\n        // whatever happens, we lower the totalShots counter of our system by one\r\n        openGames[gameID].players[indexes[0]].shots_board.totalShots--;\r\n        // Then we evaluate whether or not this is zero. If it is, This party wins automatically.\r\n        // We do this here to avoid opponents stalling out on the reply for 5 blocks on what is a foregone conclusion\r\n        if (openGames[gameID].players[indexes[0]].shots_board.totalShots == 0){\r\n            TestWinner(gameID, msg.sender);\r\n        } else {\r\n            emit ShotsFired(gameID, location, msg.sender);\r\n        }\r\n    }\r\n\r\n    function ConfirmShot(uint gameID, uint8 location, bool isHit, bytes32 leaf, bytes32[] calldata proof) public {\r\n        // we assert manually rather than with modifiers to avoid a stack-too-deep error\r\n        assert(openGames[gameID].valid);\r\n        assert(location < (BOARD_SIZE*BOARD_SIZE));\r\n        if(openGames[gameID].players[0].playerAddress == msg.sender){\r\n            assert(openGames[gameID].state == GameStates.P0_CHECKING);\r\n        } else if (openGames[gameID].players[1].playerAddress == msg.sender){\r\n            assert(openGames[gameID].state == GameStates.P1_CHECKING);\r\n        } else {\r\n            assert(false);\r\n        }\r\n        uint[2] memory indexes = getIndexSender(gameID);\r\n        // make sure this node corresponds to the board tile and truth value we are checking\r\n        assert(leaf == GenLeafNode(location, isHit));\r\n        // execute the proof test\r\n        if(Merkle.verifyCalldata(proof, openGames[gameID].players[indexes[0]].boardTreeRoot, leaf)){\r\n            // if we got this far it means the reply is valid\r\n            // let's clear any potential fouls for this user\r\n            ClearFoul(gameID);\r\n            // we could verify this user's proof\r\n            if (isHit){\r\n                // decrement our opponent's view of our total pieces\r\n                // only if the shot landed on a previously undeclared tile\r\n                // alas this is needed as the user might just keep asking for the same time over and over\r\n                // I don't know why they would do this, but they can\r\n                if(!openGames[gameID].players[indexes[1]].shots_board.board[location]){\r\n                    openGames[gameID].players[indexes[1]].shots_board.totalPieces--;\r\n                    openGames[gameID].players[indexes[1]].shots_board.board[location] = true;\r\n                    // if this was our last piece, we lost\r\n                    if(openGames[gameID].players[indexes[1]].shots_board.totalPieces == 0){\r\n                        /*\r\n                        openGames[gameID].winner = openGames[gameID].players[indexes[1]].playerAddress;\r\n                        openGames[gameID].state = GameStates.CHECKING_WINNER;\r\n                        RequestWinnerBoard(gameID, openGames[gameID].winner);\r\n                        */\r\n                        TestWinner(gameID, openGames[gameID].players[indexes[1]].playerAddress);\r\n                        return;\r\n                    }\r\n                }   \r\n            }\r\n            // rotate state\r\n            openGames[gameID].state == GameStates.P1_CHECKING ? openGames[gameID].state = GameStates.P1_FIRING : openGames[gameID].state = GameStates.P0_FIRING;\r\n            emit ShotsChecked(gameID, location, isHit, true, msg.sender);\r\n        } else {\r\n            // else we emit a 'shot failed to validate' message\r\n            // keep in mind the foul for this user is NOT triggered automatically.\r\n            emit ShotsChecked(gameID, location, isHit, false, msg.sender);\r\n        }\r\n    }\r\n\r\n    // this function generates a node locally in the same way a client would generate it\r\n    function GenLeafNode(uint8 tile, bool ship) pure internal returns (bytes32) {\r\n        return keccak256(abi.encode(tile,ship));\r\n    }\r\n\r\n    // a player who sees their address here will need to call VerifyWinner\r\n    function RequestWinnerBoard(uint gameID, address winnerAddress) private {\r\n        emit RequestBoard(gameID, winnerAddress);\r\n    }\r\n\r\n    // sadly using our modifiers here runs into a stack too deep compilation issue\r\n    // ergo we must assert a few security values by hand\r\n    // yes, the 'tiles' array is completely useless but we will leave it there for now\r\n    // it could be useful for future expansions into 5d battleships\r\n    function VerifyWinner(\r\n    uint gameID,  \r\n    uint8[] calldata tiles,\r\n    bool[] calldata ships,\r\n    bytes32[] calldata nodes,\r\n    bytes32[][] calldata proofs,\r\n    bytes32 root\r\n    ) public {\r\n        uint winnerIndex;\r\n        require(openGames[gameID].valid, \"Game does not exist\");\r\n        require(openGames[gameID].state == GameStates.CHECKING_WINNER, \"Game is not in the CHECKING_WINNER state\");\r\n        if(openGames[gameID].winner == openGames[gameID].players[0].playerAddress){\r\n            winnerIndex = 0;\r\n        } else {\r\n            winnerIndex = 1;\r\n        }\r\n        require(openGames[gameID].winner == msg.sender, \"Only the winner can verify their board\");\r\n        require(root == openGames[gameID].players[winnerIndex].boardTreeRoot, \"The root provided does not match the root of the board\");\r\n        require(tiles.length == (BOARD_SIZE*BOARD_SIZE), \"The tiles array is not the correct size\");\r\n        require(ships.length == (BOARD_SIZE*BOARD_SIZE), \"The ships array is not the correct size\");\r\n        // First operation: make sure this board really has the required number of ships on it\r\n        // and make sure the winner didn't send us a different board\r\n        // in the same cycle, verify that the node is part of the tree\r\n        // we already made sure this root is the correct one\r\n        uint8 shipsTotal = 0;\r\n        for(uint8 i = 0; i < (BOARD_SIZE*BOARD_SIZE); i++){\r\n            if(ships[i])\r\n                shipsTotal++;\r\n            require(nodes[i] == GenLeafNode(tiles[i], ships[i]), \"The node does not match the tile and ship provided\");\r\n            // TODO: fix the frontend so that the line below can parse the calldata correctly\r\n            // this works in the Chai tests\r\n            require(Merkle.verifyCalldata(proofs[i], root, nodes[i]), \"The proof does not match the root and node provided\");\r\n        }\r\n        require(shipsTotal == NUMBER_OF_SHIP_SQUARES, \"The board does not have the correct number of ships\");\r\n        // we don't use a conditional branch to alert the other player, as a Foul has already been triggered.\r\n        openGames[gameID].canPay = true;\r\n        openGames[gameID].state = GameStates.PAYABLE;\r\n        ClearFoul(gameID);\r\n        emit Victory(gameID, msg.sender);\r\n    }\r\n    \r\n    function AbandonGame(uint gameID) gameExists(gameID) isInGame(gameID) external {\r\n        // see if the game has a second player\r\n        uint opponentIndex;\r\n        if(msg.sender == openGames[gameID].players[0].playerAddress){\r\n            opponentIndex = 1;\r\n        } else {\r\n            opponentIndex = 0;\r\n        }\r\n        // check if both have paid the stake\r\n        if(openGames[gameID].players[opponentIndex].hasPaidStake && openGames[gameID].players[1 - opponentIndex].hasPaidStake){\r\n            // if they have, we declare the opponent the winner\r\n            TestWinner(gameID, openGames[gameID].players[opponentIndex].playerAddress);\r\n        } else {\r\n            // if only the opponent has paid the stake, we refund it\r\n            if(openGames[gameID].players[opponentIndex].hasPaidStake){\r\n                (bool success, ) = openGames[gameID].players[opponentIndex].playerAddress.call{value:openGames[gameID].decidedStake}(\"\");\r\n                require(success);\r\n            }\r\n            // this delition only happens in this branch as the game will be deleted normally from testwinner otherwise\r\n            emit GameEnded(gameID);\r\n            deleteGame(gameID);\r\n        } // we keep the stake if the user cancelling the game has paid it. If they want the stake back because their oppoent is afk they should declare a foul instead of cancelling\r\n    }\r\n\r\n    function WithdrawWinnings(uint gameID) gameExists(gameID) isWinner(gameID) assertState(gameID, GameStates.PAYABLE) external {\r\n        uint amountOwed = openGames[gameID].decidedStake*2;\r\n        openGames[gameID].state = GameStates.DONE;\r\n        (bool success, ) = msg.sender.call{value:amountOwed}(\"\");\r\n        require(success);\r\n        emit GameEnded(gameID);\r\n        deleteGame(gameID);\r\n    }\r\n\r\n    // a player can accuse another player of being afk if they don't act within X blocks\r\n    // for this to happen, the state has to be one they don't control\r\n    function FoulAccusation(uint gameID) gameExists(gameID) public {\r\n        uint senderIndex;\r\n        if(msg.sender == openGames[gameID].players[0].playerAddress)\r\n            senderIndex = 0;\r\n        else if (msg.sender == openGames[gameID].players[1].playerAddress)\r\n            senderIndex = 1;\r\n        // if the game is stuck waiting on Player 1, only accept accusations from Player 0\r\n        if(openGames[gameID].state == GameStates.P1_FIRING || openGames[gameID].state == GameStates.P1_CHECKING){\r\n            assert(senderIndex == 0);\r\n        // if the game is stuck waiting on Player 0, only accept accusations from Player 1\r\n        } else if (openGames[gameID].state == GameStates.P0_FIRING || openGames[gameID].state == GameStates.P0_CHECKING){\r\n            assert(senderIndex == 1);\r\n        } \r\n        // if the game is stuck accepting payments, only accept accusations by the side which hasn't paid yet\r\n        else if(openGames[gameID].state == GameStates.ACCEPTING_PAYMENT){\r\n            assert(openGames[gameID].players[senderIndex].hasPaidStake);\r\n        }\r\n        // if the game is stuck checking the winner, because a user isn't providing their board, only accept fouls from the non-winner\r\n        else if(openGames[gameID].state == GameStates.CHECKING_WINNER)\r\n            assert(msg.sender != openGames[gameID].winner);\r\n        else {\r\n            assert(false);\r\n        }\r\n        \r\n        require(openGames[gameID].accuser == address(0));\r\n        // very important: this is the only place where accuser can be set to anything other than 0\r\n        openGames[gameID].accuser = msg.sender;\r\n        openGames[gameID].blockNumber = block.number;\r\n        emit Foul(gameID, openGames[gameID].players[1 - senderIndex].playerAddress, openGames[gameID].blockNumber);\r\n    }\r\n\r\n    function CheckFoulTimer(uint gameID) gameExists(gameID) isInGame(gameID) public {\r\n        require(openGames[gameID].accuser != address(0));\r\n        if(openGames[gameID].blockNumber < (block.number + foulBlockLen)){\r\n            // the other player abandoned this game\r\n            TestWinner(gameID, openGames[gameID].accuser);\r\n        }\r\n    }\r\n\r\n    // a foul can only be cleared by properly advancing the state\r\n    // thus this function has to be called from within our check/fire functions\r\n    function ClearFoul(uint gameID) private {\r\n        if(openGames[gameID].accuser != address(0) && openGames[gameID].accuser != msg.sender){\r\n            // if we are out of time to context the foul this function will fail\r\n            assert(openGames[gameID].blockNumber <= (block.number + foulBlockLen));\r\n            // else it will clear the foul\r\n            // just like setting the accuser, this is THE ONLY place in the contract where this assignment is made.\r\n            openGames[gameID].accuser = address(0);\r\n        }\r\n    }\r\n\r\n    // Assortment of debug functions\r\n    // Despite the name, this function also sets the winner to a given address\r\n    // the main use for it is testing endgame stages of the contract without having to manually play a game\r\n    \r\n    function ChangeState(uint gameID, GameStates state, address winner) public {\r\n        assert(msg.sender == owner);\r\n        openGames[gameID].state = state;\r\n        openGames[gameID].winner = winner;\r\n    }\r\n    \r\n}",
  "sourcePath": "C:\\Users\\maste\\Documents\\Code\\Battleships\\contracts\\Battleships.sol",
  "compiler": {
    "name": "solc",
    "version": "0.8.19+commit.7dd6d404.Emscripten.clang"
  },
  "schemaVersion": "3.4.14",
  "updatedAt": "2023-06-03T09:20:57.487Z",
  "networkType": "ethereum",
  "devdoc": {
    "kind": "dev",
    "methods": {},
    "version": 1
  },
  "userdoc": {
    "kind": "user",
    "methods": {},
    "version": 1
  }
}