{
  "contractName": "Battleships",
  "abi": [
    {
      "inputs": [],
      "stateMutability": "nonpayable",
      "type": "constructor"
    },
    {
      "inputs": [],
      "name": "InvalidGameID",
      "type": "error"
    },
    {
      "inputs": [],
      "name": "NotInGame",
      "type": "error"
    },
    {
      "inputs": [],
      "name": "StakeAlreadyDeposited",
      "type": "error"
    },
    {
      "inputs": [
        {
          "internalType": "uint256",
          "name": "expectedStakeValue",
          "type": "uint256"
        }
      ],
      "name": "WrongStakeAmount",
      "type": "error"
    },
    {
      "anonymous": false,
      "inputs": [
        {
          "indexed": false,
          "internalType": "uint256",
          "name": "_gameID",
          "type": "uint256"
        }
      ],
      "name": "AcceptingBoards",
      "type": "event"
    },
    {
      "anonymous": false,
      "inputs": [
        {
          "indexed": false,
          "internalType": "uint256",
          "name": "_gameID",
          "type": "uint256"
        },
        {
          "indexed": false,
          "internalType": "address",
          "name": "_player",
          "type": "address"
        }
      ],
      "name": "BoardAcknowledgeEvent",
      "type": "event"
    },
    {
      "anonymous": false,
      "inputs": [
        {
          "indexed": false,
          "internalType": "uint256",
          "name": "_gameID",
          "type": "uint256"
        },
        {
          "indexed": false,
          "internalType": "address",
          "name": "_host",
          "type": "address"
        },
        {
          "indexed": false,
          "internalType": "address",
          "name": "_challenger",
          "type": "address"
        },
        {
          "indexed": false,
          "internalType": "uint256",
          "name": "_stakeValue",
          "type": "uint256"
        }
      ],
      "name": "GamePayable",
      "type": "event"
    },
    {
      "anonymous": false,
      "inputs": [
        {
          "indexed": false,
          "internalType": "uint256",
          "name": "_gameID",
          "type": "uint256"
        },
        {
          "indexed": false,
          "internalType": "address",
          "name": "_host",
          "type": "address"
        },
        {
          "indexed": false,
          "internalType": "address",
          "name": "_challenger",
          "type": "address"
        }
      ],
      "name": "GameStart",
      "type": "event"
    },
    {
      "anonymous": false,
      "inputs": [
        {
          "indexed": false,
          "internalType": "uint256",
          "name": "_gameID",
          "type": "uint256"
        }
      ],
      "name": "PlayerZeroTurn",
      "type": "event"
    },
    {
      "anonymous": false,
      "inputs": [
        {
          "indexed": false,
          "internalType": "address",
          "name": "_from",
          "type": "address"
        },
        {
          "indexed": false,
          "internalType": "address",
          "name": "_to",
          "type": "address"
        },
        {
          "indexed": false,
          "internalType": "uint256",
          "name": "_gameID",
          "type": "uint256"
        }
      ],
      "name": "ShareID",
      "type": "event"
    },
    {
      "anonymous": false,
      "inputs": [
        {
          "indexed": false,
          "internalType": "uint256",
          "name": "_gameID",
          "type": "uint256"
        },
        {
          "indexed": false,
          "internalType": "uint8",
          "name": "_location",
          "type": "uint8"
        },
        {
          "indexed": false,
          "internalType": "bool",
          "name": "_claim",
          "type": "bool"
        },
        {
          "indexed": false,
          "internalType": "bool",
          "name": "_validity",
          "type": "bool"
        }
      ],
      "name": "ShotsChecked",
      "type": "event"
    },
    {
      "anonymous": false,
      "inputs": [
        {
          "indexed": false,
          "internalType": "uint256",
          "name": "_gameID",
          "type": "uint256"
        },
        {
          "indexed": false,
          "internalType": "uint8",
          "name": "_location",
          "type": "uint8"
        }
      ],
      "name": "ShotsFired",
      "type": "event"
    },
    {
      "anonymous": false,
      "inputs": [
        {
          "indexed": false,
          "internalType": "uint256",
          "name": "_gameID",
          "type": "uint256"
        },
        {
          "indexed": false,
          "internalType": "address",
          "name": "_whoPaid",
          "type": "address"
        }
      ],
      "name": "StakePaid",
      "type": "event"
    },
    {
      "anonymous": false,
      "inputs": [
        {
          "indexed": false,
          "internalType": "uint256",
          "name": "_gameID",
          "type": "uint256"
        },
        {
          "indexed": false,
          "internalType": "address",
          "name": "_from",
          "type": "address"
        },
        {
          "indexed": false,
          "internalType": "address",
          "name": "_to",
          "type": "address"
        },
        {
          "indexed": false,
          "internalType": "uint256",
          "name": "_stakeValue",
          "type": "uint256"
        }
      ],
      "name": "SuggestedStake",
      "type": "event"
    },
    {
      "anonymous": false,
      "inputs": [
        {
          "indexed": false,
          "internalType": "uint256",
          "name": "_gameID",
          "type": "uint256"
        },
        {
          "indexed": false,
          "internalType": "address",
          "name": "_winner",
          "type": "address"
        }
      ],
      "name": "Victory",
      "type": "event"
    },
    {
      "inputs": [],
      "name": "BOARD_SIZE",
      "outputs": [
        {
          "internalType": "uint8",
          "name": "",
          "type": "uint8"
        }
      ],
      "stateMutability": "view",
      "type": "function",
      "constant": true
    },
    {
      "inputs": [],
      "name": "NUMBER_OF_SHIP_SQUARES",
      "outputs": [
        {
          "internalType": "uint8",
          "name": "",
          "type": "uint8"
        }
      ],
      "stateMutability": "view",
      "type": "function",
      "constant": true
    },
    {
      "inputs": [
        {
          "internalType": "bool",
          "name": "isPrivate",
          "type": "bool"
        }
      ],
      "name": "newGame",
      "outputs": [],
      "stateMutability": "nonpayable",
      "type": "function"
    },
    {
      "inputs": [
        {
          "internalType": "uint256",
          "name": "gameID",
          "type": "uint256"
        }
      ],
      "name": "joinGame",
      "outputs": [],
      "stateMutability": "nonpayable",
      "type": "function"
    },
    {
      "inputs": [
        {
          "internalType": "uint256",
          "name": "gameID",
          "type": "uint256"
        }
      ],
      "name": "checkGameState",
      "outputs": [
        {
          "internalType": "enum Battleships.GameStates",
          "name": "",
          "type": "uint8"
        }
      ],
      "stateMutability": "view",
      "type": "function",
      "constant": true
    },
    {
      "inputs": [
        {
          "internalType": "uint256",
          "name": "gameID",
          "type": "uint256"
        }
      ],
      "name": "checkGamePlayerOne",
      "outputs": [
        {
          "internalType": "address",
          "name": "",
          "type": "address"
        }
      ],
      "stateMutability": "view",
      "type": "function",
      "constant": true
    },
    {
      "inputs": [
        {
          "internalType": "uint256",
          "name": "gameID",
          "type": "uint256"
        }
      ],
      "name": "checkGamePlayerTwo",
      "outputs": [
        {
          "internalType": "address",
          "name": "",
          "type": "address"
        }
      ],
      "stateMutability": "view",
      "type": "function",
      "constant": true
    },
    {
      "inputs": [
        {
          "internalType": "uint256",
          "name": "gameID",
          "type": "uint256"
        },
        {
          "internalType": "uint256",
          "name": "stakeValue",
          "type": "uint256"
        }
      ],
      "name": "proposeStake",
      "outputs": [],
      "stateMutability": "nonpayable",
      "type": "function"
    },
    {
      "inputs": [
        {
          "internalType": "uint256",
          "name": "gameID",
          "type": "uint256"
        }
      ],
      "name": "checkStakePlayerOne",
      "outputs": [
        {
          "internalType": "uint256",
          "name": "",
          "type": "uint256"
        }
      ],
      "stateMutability": "view",
      "type": "function",
      "constant": true
    },
    {
      "inputs": [
        {
          "internalType": "uint256",
          "name": "gameID",
          "type": "uint256"
        }
      ],
      "name": "checkStakePlayerTwo",
      "outputs": [
        {
          "internalType": "uint256",
          "name": "",
          "type": "uint256"
        }
      ],
      "stateMutability": "view",
      "type": "function",
      "constant": true
    },
    {
      "inputs": [
        {
          "internalType": "uint256",
          "name": "gameID",
          "type": "uint256"
        }
      ],
      "name": "checkStakeGame",
      "outputs": [
        {
          "internalType": "uint256",
          "name": "",
          "type": "uint256"
        }
      ],
      "stateMutability": "view",
      "type": "function",
      "constant": true
    },
    {
      "inputs": [
        {
          "internalType": "uint256",
          "name": "gameID",
          "type": "uint256"
        }
      ],
      "name": "payStake",
      "outputs": [],
      "stateMutability": "payable",
      "type": "function",
      "payable": true
    },
    {
      "inputs": [
        {
          "internalType": "uint256",
          "name": "gameID",
          "type": "uint256"
        }
      ],
      "name": "checkPaymentPlayerOne",
      "outputs": [
        {
          "internalType": "bool",
          "name": "",
          "type": "bool"
        }
      ],
      "stateMutability": "view",
      "type": "function",
      "constant": true
    },
    {
      "inputs": [
        {
          "internalType": "uint256",
          "name": "gameID",
          "type": "uint256"
        }
      ],
      "name": "checkPaymentPlayerTwo",
      "outputs": [
        {
          "internalType": "bool",
          "name": "",
          "type": "bool"
        }
      ],
      "stateMutability": "view",
      "type": "function",
      "constant": true
    },
    {
      "inputs": [
        {
          "internalType": "uint256",
          "name": "gameID",
          "type": "uint256"
        }
      ],
      "name": "checkGamePayable",
      "outputs": [
        {
          "internalType": "bool",
          "name": "",
          "type": "bool"
        }
      ],
      "stateMutability": "view",
      "type": "function",
      "constant": true
    },
    {
      "inputs": [
        {
          "internalType": "uint256",
          "name": "gameID",
          "type": "uint256"
        },
        {
          "internalType": "bytes32",
          "name": "boardRoot",
          "type": "bytes32"
        }
      ],
      "name": "PlaceShips",
      "outputs": [],
      "stateMutability": "nonpayable",
      "type": "function"
    },
    {
      "inputs": [
        {
          "internalType": "uint256",
          "name": "gameID",
          "type": "uint256"
        }
      ],
      "name": "getPlayerOneBoardRoot",
      "outputs": [
        {
          "internalType": "bytes32",
          "name": "",
          "type": "bytes32"
        }
      ],
      "stateMutability": "view",
      "type": "function",
      "constant": true
    },
    {
      "inputs": [
        {
          "internalType": "uint256",
          "name": "gameID",
          "type": "uint256"
        }
      ],
      "name": "getPlayerTwoBoardRoot",
      "outputs": [
        {
          "internalType": "bytes32",
          "name": "",
          "type": "bytes32"
        }
      ],
      "stateMutability": "view",
      "type": "function",
      "constant": true
    },
    {
      "inputs": [
        {
          "internalType": "uint256",
          "name": "gameID",
          "type": "uint256"
        }
      ],
      "name": "getPlayerOneShotsBoard",
      "outputs": [
        {
          "internalType": "bool",
          "name": "",
          "type": "bool"
        }
      ],
      "stateMutability": "view",
      "type": "function",
      "constant": true
    },
    {
      "inputs": [
        {
          "internalType": "uint256",
          "name": "gameID",
          "type": "uint256"
        }
      ],
      "name": "getPlayerTwoShotsBoard",
      "outputs": [
        {
          "internalType": "bool",
          "name": "",
          "type": "bool"
        }
      ],
      "stateMutability": "view",
      "type": "function",
      "constant": true
    },
    {
      "inputs": [
        {
          "internalType": "uint256",
          "name": "gameID",
          "type": "uint256"
        },
        {
          "internalType": "uint8",
          "name": "location",
          "type": "uint8"
        }
      ],
      "name": "FireTorpedo",
      "outputs": [],
      "stateMutability": "nonpayable",
      "type": "function"
    },
    {
      "inputs": [
        {
          "internalType": "uint256",
          "name": "gameID",
          "type": "uint256"
        },
        {
          "internalType": "uint8",
          "name": "location",
          "type": "uint8"
        },
        {
          "internalType": "bool",
          "name": "isHit",
          "type": "bool"
        },
        {
          "internalType": "bytes32",
          "name": "leaf",
          "type": "bytes32"
        },
        {
          "internalType": "bytes32[]",
          "name": "proof",
          "type": "bytes32[]"
        }
      ],
      "name": "ConfirmShot",
      "outputs": [],
      "stateMutability": "nonpayable",
      "type": "function"
    },
    {
      "inputs": [
        {
          "internalType": "bytes32",
          "name": "leaf",
          "type": "bytes32"
        },
        {
          "internalType": "bytes32",
          "name": "root",
          "type": "bytes32"
        },
        {
          "internalType": "bytes32[]",
          "name": "proof",
          "type": "bytes32[]"
        }
      ],
      "name": "QuickCheck",
      "outputs": [
        {
          "internalType": "bool",
          "name": "",
          "type": "bool"
        }
      ],
      "stateMutability": "pure",
      "type": "function",
      "constant": true
    }
  ],
  "bytecode": "0x608060405234801561001057600080fd5b506001601b819055506001601c81905550614b89806100306000396000f3fe6080604052600436106101405760003560e01c80636930aa4d116100b6578063d46d07771161006f578063d46d0777146104e3578063dc4a3e9514610520578063e0dd9bb41461054b578063efaa55a014610574578063f28ae7dd1461059d578063fba523b7146105c657610140565b80636930aa4d1461039b578063699f5aeb146103c657806379fbd95d146104035780639a7e4cea1461042c578063aa3ee91514610469578063aab41fc5146104a657610140565b80632b170aac116101085780632b170aac146102415780634278d9861461026a5780635345f533146102a7578063542c0151146102e457806354d83c65146103215780635f7dbd2b1461035e57610140565b8063012b61f01461014557806302ecb0e8146101825780630e37dcd0146101bf57806316337b89146101db5780631de9542514610204575b600080fd5b34801561015157600080fd5b5061016c60048036038101906101679190614404565b610603565b604051610179919061444c565b60405180910390f35b34801561018e57600080fd5b506101a960048036038101906101a49190614404565b6106eb565b6040516101b6919061444c565b60405180910390f35b6101d960048036038101906101d49190614404565b6107a8565b005b3480156101e757600080fd5b5061020260048036038101906101fd919061449d565b61103d565b005b34801561021057600080fd5b5061022b60048036038101906102269190614404565b611803565b604051610238919061451e565b60405180910390f35b34801561024d57600080fd5b5061026860048036038101906102639190614565565b6118d3565b005b34801561027657600080fd5b50610291600480360381019061028c9190614404565b611d17565b60405161029e91906145a1565b60405180910390f35b3480156102b357600080fd5b506102ce60048036038101906102c99190614404565b611d2b565b6040516102db919061444c565b60405180910390f35b3480156102f057600080fd5b5061030b60048036038101906103069190614404565b611d3f565b604051610318919061444c565b60405180910390f35b34801561032d57600080fd5b5061034860048036038101906103439190614404565b611d53565b604051610355919061444c565b60405180910390f35b34801561036a57600080fd5b5061038560048036038101906103809190614404565b611e10565b60405161039291906145a1565b60405180910390f35b3480156103a757600080fd5b506103b0611e24565b6040516103bd91906145d8565b60405180910390f35b3480156103d257600080fd5b506103ed60048036038101906103e89190614404565b611e29565b6040516103fa9190614602565b60405180910390f35b34801561040f57600080fd5b5061042a600480360381019061042591906146ae565b611f04565b005b34801561043857600080fd5b50610453600480360381019061044e9190614404565b6127c6565b60405161046091906147bf565b60405180910390f35b34801561047557600080fd5b50610490600480360381019061048b9190614404565b612824565b60405161049d9190614602565b60405180910390f35b3480156104b257600080fd5b506104cd60048036038101906104c891906147da565b6128d4565b6040516104da919061444c565b60405180910390f35b3480156104ef57600080fd5b5061050a60048036038101906105059190614404565b6128f1565b604051610517919061451e565b60405180910390f35b34801561052c57600080fd5b506105356129c1565b60405161054291906145d8565b60405180910390f35b34801561055757600080fd5b50610572600480360381019061056d919061484e565b6129c6565b005b34801561058057600080fd5b5061059b60048036038101906105969190614404565b61301d565b005b3480156105a957600080fd5b506105c460048036038101906105bf919061488e565b613451565b005b3480156105d257600080fd5b506105ed60048036038101906105e89190614404565b613d56565b6040516105fa9190614602565b60405180910390f35b600080600083815260200190815260200160002060000160009054906101000a900460ff16801561066d5750600080838152602001908152602001600020600101600060028110610657576106566148ce565b5b6006020160000160009054906101000a900460ff165b80156106b2575060008083815260200190815260200160002060010160016002811061069c5761069b6148ce565b5b6006020160000160009054906101000a900460ff165b156106e15760008083815260200190815260200160002060000160019054906101000a900460ff1690506106e6565b600090505b919050565b600080600083815260200190815260200160002060000160009054906101000a900460ff168015610755575060008083815260200190815260200160002060010160016002811061073f5761073e6148ce565b5b6006020160000160009054906101000a900460ff165b1561079e57600080838152602001908152602001600020600101600160028110610782576107816148ce565b5b6006020160000160019054906101000a900460ff1690506107a3565b600090505b919050565b8060008082815260200190815260200160002060000160009054906101000a900460ff166107d9576107d86148fd565b5b813373ffffffffffffffffffffffffffffffffffffffff16600080838152602001908152602001600020600101600060028110610819576108186148ce565b5b6006020160000160029054906101000a900473ffffffffffffffffffffffffffffffffffffffff1673ffffffffffffffffffffffffffffffffffffffff1614806108dd57503373ffffffffffffffffffffffffffffffffffffffff1660008083815260200190815260200160002060010160016002811061089d5761089c6148ce565b5b6006020160000160029054906101000a900473ffffffffffffffffffffffffffffffffffffffff1673ffffffffffffffffffffffffffffffffffffffff16145b6108ea576108e96148fd565b5b8260026004600981111561090157610900614748565b5b81600981111561091457610913614748565b5b1415801561094757506006600981111561093157610930614748565b5b81600981111561094457610943614748565b5b14155b801561097857506007600981111561096257610961614748565b5b81600981111561097557610974614748565b5b14155b806109a857506005600981111561099257610991614748565b5b8160098111156109a5576109a4614748565b5b14155b15610a08578060098111156109c0576109bf614748565b5b600080848152602001908152602001600020600d0160009054906101000a900460ff1660098111156109f5576109f4614748565b5b14610a0357610a026148fd565b5b610c30565b6000610a1383613e06565b905060046009811115610a2957610a28614748565b5b826009811115610a3c57610a3b614748565b5b03610b1957600081600060028110610a5757610a566148ce565b5b602002015103610abc57816009811115610a7457610a73614748565b5b600080858152602001908152602001600020600d0160009054906101000a900460ff166009811115610aa957610aa8614748565b5b14610ab757610ab66148fd565b5b610b14565b60066009811115610ad057610acf614748565b5b600080858152602001908152602001600020600d0160009054906101000a900460ff166009811115610b0557610b04614748565b5b14610b1357610b126148fd565b5b5b610c2e565b60076009811115610b2d57610b2c614748565b5b826009811115610b4057610b3f614748565b5b03610c1d57600081600060028110610b5b57610b5a6148ce565b5b602002015103610bc057816009811115610b7857610b77614748565b5b600080858152602001908152602001600020600d0160009054906101000a900460ff166009811115610bad57610bac614748565b5b14610bbb57610bba6148fd565b5b610c18565b60056009811115610bd457610bd3614748565b5b600080858152602001908152602001600020600d0160009054906101000a900460ff166009811115610c0957610c08614748565b5b14610c1757610c166148fd565b5b5b610c2d565b6000610c2c57610c2b6148fd565b5b5b5b505b600080868152602001908152602001600020600101600060028110610c5857610c576148ce565b5b6006020160000160029054906101000a900473ffffffffffffffffffffffffffffffffffffffff1673ffffffffffffffffffffffffffffffffffffffff163373ffffffffffffffffffffffffffffffffffffffff16148015610cf35750600080868152602001908152602001600020600101600060028110610cdd57610cdc6148ce565b5b6006020160000160019054906101000a900460ff165b80610dbd5750600080868152602001908152602001600020600101600160028110610d2157610d206148ce565b5b6006020160000160029054906101000a900473ffffffffffffffffffffffffffffffffffffffff1673ffffffffffffffffffffffffffffffffffffffff163373ffffffffffffffffffffffffffffffffffffffff16148015610dbc5750600080868152602001908152602001600020600101600160028110610da657610da56148ce565b5b6006020160000160019054906101000a900460ff165b5b15610df4576040517f5e558b2300000000000000000000000000000000000000000000000000000000815260040160405180910390fd5b600080868152602001908152602001600020600e01543414610e6257600080868152602001908152602001600020600e01546040517f66cb868a000000000000000000000000000000000000000000000000000000008152600401610e599190614602565b60405180910390fd5b600080600080888152602001908152602001600020600101600060028110610e8d57610e8c6148ce565b5b6006020160000160029054906101000a900473ffffffffffffffffffffffffffffffffffffffff1673ffffffffffffffffffffffffffffffffffffffff163373ffffffffffffffffffffffffffffffffffffffff1603610ef4576000915060019050610efd565b60019150600090505b60016000808981526020019081526020016000206001018360028110610f2657610f256148ce565b5b6006020160000160016101000a81548160ff0219169083151502179055507f95ddb9abe17699603c18cef7bcfd33947d19c8eb237e01edac0bd509b481339e8733604051610f7592919061492c565b60405180910390a16000808881526020019081526020016000206001018160028110610fa457610fa36148ce565b5b6006020160000160019054906101000a900460ff1615611034576003600080898152602001908152602001600020600d0160006101000a81548160ff02191690836009811115610ff757610ff6614748565b5b02179055507f972651cf62ccc65bd2ba0fd996eb34701d5773844d3303545d5b4cb29738f1048760405161102b9190614602565b60405180910390a15b50505050505050565b8160008082815260200190815260200160002060000160009054906101000a900460ff1661106e5761106d6148fd565b5b823373ffffffffffffffffffffffffffffffffffffffff166000808381526020019081526020016000206001016000600281106110ae576110ad6148ce565b5b6006020160000160029054906101000a900473ffffffffffffffffffffffffffffffffffffffff1673ffffffffffffffffffffffffffffffffffffffff16148061117257503373ffffffffffffffffffffffffffffffffffffffff16600080838152602001908152602001600020600101600160028110611132576111316148ce565b5b6006020160000160029054906101000a900473ffffffffffffffffffffffffffffffffffffffff1673ffffffffffffffffffffffffffffffffffffffff16145b61117f5761117e6148fd565b5b8360036004600981111561119657611195614748565b5b8160098111156111a9576111a8614748565b5b141580156111dc5750600660098111156111c6576111c5614748565b5b8160098111156111d9576111d8614748565b5b14155b801561120d5750600760098111156111f7576111f6614748565b5b81600981111561120a57611209614748565b5b14155b8061123d57506005600981111561122757611226614748565b5b81600981111561123a57611239614748565b5b14155b1561129d5780600981111561125557611254614748565b5b600080848152602001908152602001600020600d0160009054906101000a900460ff16600981111561128a57611289614748565b5b14611298576112976148fd565b5b6114c5565b60006112a883613e06565b9050600460098111156112be576112bd614748565b5b8260098111156112d1576112d0614748565b5b036113ae576000816000600281106112ec576112eb6148ce565b5b6020020151036113515781600981111561130957611308614748565b5b600080858152602001908152602001600020600d0160009054906101000a900460ff16600981111561133e5761133d614748565b5b1461134c5761134b6148fd565b5b6113a9565b6006600981111561136557611364614748565b5b600080858152602001908152602001600020600d0160009054906101000a900460ff16600981111561139a57611399614748565b5b146113a8576113a76148fd565b5b5b6114c3565b600760098111156113c2576113c1614748565b5b8260098111156113d5576113d4614748565b5b036114b2576000816000600281106113f0576113ef6148ce565b5b6020020151036114555781600981111561140d5761140c614748565b5b600080858152602001908152602001600020600d0160009054906101000a900460ff16600981111561144257611441614748565b5b146114505761144f6148fd565b5b6114ad565b6005600981111561146957611468614748565b5b600080858152602001908152602001600020600d0160009054906101000a900460ff16600981111561149e5761149d614748565b5b146114ac576114ab6148fd565b5b5b6114c2565b60006114c1576114c06148fd565b5b5b5b505b6000806000808981526020019081526020016000206001016000600281106114f0576114ef6148ce565b5b6006020160000160029054906101000a900473ffffffffffffffffffffffffffffffffffffffff1673ffffffffffffffffffffffffffffffffffffffff163373ffffffffffffffffffffffffffffffffffffffff161461155457600191508161155a565b60009150815b50600080898152602001908152602001600020600101600060028110611583576115826148ce565b5b6006020160000160029054906101000a900473ffffffffffffffffffffffffffffffffffffffff1673ffffffffffffffffffffffffffffffffffffffff163373ffffffffffffffffffffffffffffffffffffffff16146115e75760009050806115ed565b60019050805b506000801b6000808a81526020019081526020016000206001018360028110611619576116186148ce565b5b60060201600201541461162b57600080fd5b6000601890506001601860000160006101000a81548160ff021916908315150217905550601460ff16601860010181905550600860ff16601860020181905550806000808b81526020019081526020016000206001018460028110611693576116926148ce565b5b600602016003016000820160009054906101000a900460ff168160000160006101000a81548160ff0219169083151502179055506001820154816001015560028201548160020155905050876000808b81526020019081526020016000206001018460028110611706576117056148ce565b5b60060201600201819055507fde8cdabe60db81138d1e5580b73440f47ba010dbd18575d18bad0b750987001e893360405161174292919061492c565b60405180910390a16000801b6000808b81526020019081526020016000206001018360028110611775576117746148ce565b5b6006020160020154146117f85760046000808b8152602001908152602001600020600d0160006101000a81548160ff021916908360098111156117bb576117ba614748565b5b02179055507ff751b3d5e96ffa95a434b79874df7e232b82d5c688a5d61fd7b5c5ce87247127896040516117ef9190614602565b60405180910390a15b505050505050505050565b600080600083815260200190815260200160002060000160009054906101000a900460ff16801561186d5750600080838152602001908152602001600020600101600060028110611857576118566148ce565b5b6006020160000160009054906101000a900460ff165b156118c95760008083815260200190815260200160002060010160006002811061189a576118996148ce565b5b6006020160000160029054906101000a900473ffffffffffffffffffffffffffffffffffffffff1690506118ce565b600090505b919050565b6000601b549050601b60008154809291906118ed90614984565b9190505550600060019050600060129050338160000160026101000a81548173ffffffffffffffffffffffffffffffffffffffff021916908373ffffffffffffffffffffffffffffffffffffffff16021790555060018160000160006101000a81548160ff02191690831515021790555060008160000160016101000a81548160ff0219169083151502179055508082600101600060028110611993576119926148ce565b5b600602016000820160009054906101000a900460ff168160000160006101000a81548160ff0219169083151502179055506000820160019054906101000a900460ff168160000160016101000a81548160ff0219169083151502179055506000820160029054906101000a900473ffffffffffffffffffffffffffffffffffffffff168160000160026101000a81548173ffffffffffffffffffffffffffffffffffffffff021916908373ffffffffffffffffffffffffffffffffffffffff160217905550600182015481600101556002820154816002015560038201816003016000820160009054906101000a900460ff168160000160006101000a81548160ff02191690831515021790555060018201548160010155600282015481600201555050905050600082600d0160006101000a81548160ff02191690836009811115611ae257611ae1614748565b5b0217905550838260100160016101000a81548160ff02191690831515021790555060018260000160006101000a81548160ff02191690831515021790555060008260000160016101000a81548160ff021916908315150217905550816000808581526020019081526020016000206000820160009054906101000a900460ff168160000160006101000a81548160ff0219169083151502179055506000820160019054906101000a900460ff168160000160016101000a81548160ff0219169083151502179055506001820181600101906002611bc092919061419e565b50600d820160009054906101000a900460ff1681600d0160006101000a81548160ff02191690836009811115611bf957611bf8614748565b5b0217905550600e82015481600e0155600f82015481600f01556010820160009054906101000a900460ff168160100160006101000a81548160ff0219169083151502179055506010820160019054906101000a900460ff168160100160016101000a81548160ff0219169083151502179055506010820160029054906101000a900473ffffffffffffffffffffffffffffffffffffffff168160100160026101000a81548173ffffffffffffffffffffffffffffffffffffffff021916908373ffffffffffffffffffffffffffffffffffffffff1602179055509050507f1edfba130181c8da1b98834639c59b5287912fcc01104c5a7a6e6c8cd194e302303385604051611d09939291906149cc565b60405180910390a150505050565b6000611d24826001613f23565b9050919050565b6000611d38826001613fff565b9050919050565b6000611d4c826000613fff565b9050919050565b600080600083815260200190815260200160002060000160009054906101000a900460ff168015611dbd5750600080838152602001908152602001600020600101600060028110611da757611da66148ce565b5b6006020160000160009054906101000a900460ff165b15611e0657600080838152602001908152602001600020600101600060028110611dea57611de96148ce565b5b6006020160000160019054906101000a900460ff169050611e0b565b600090505b919050565b6000611e1d826000613f23565b9050919050565b601481565b600080600083815260200190815260200160002060000160009054906101000a900460ff168015611e935750600080838152602001908152602001600020600101600060028110611e7d57611e7c6148ce565b5b6006020160000160009054906101000a900460ff165b8015611ed85750600080838152602001908152602001600020600101600160028110611ec257611ec16148ce565b5b6006020160000160009054906101000a900460ff165b15611efa57600080838152602001908152602001600020600e01549050611eff565b600090505b919050565b8560008082815260200190815260200160002060000160009054906101000a900460ff16611f3557611f346148fd565b5b863373ffffffffffffffffffffffffffffffffffffffff16600080838152602001908152602001600020600101600060028110611f7557611f746148ce565b5b6006020160000160029054906101000a900473ffffffffffffffffffffffffffffffffffffffff1673ffffffffffffffffffffffffffffffffffffffff16148061203957503373ffffffffffffffffffffffffffffffffffffffff16600080838152602001908152602001600020600101600160028110611ff957611ff86148ce565b5b6006020160000160029054906101000a900473ffffffffffffffffffffffffffffffffffffffff1673ffffffffffffffffffffffffffffffffffffffff16145b612046576120456148fd565b5b866008806120549190614a03565b60ff168160ff1610612069576120686148fd565b5b886007600460098111156120805761207f614748565b5b81600981111561209357612092614748565b5b141580156120c65750600660098111156120b0576120af614748565b5b8160098111156120c3576120c2614748565b5b14155b80156120f75750600760098111156120e1576120e0614748565b5b8160098111156120f4576120f3614748565b5b14155b8061212757506005600981111561211157612110614748565b5b81600981111561212457612123614748565b5b14155b156121875780600981111561213f5761213e614748565b5b600080848152602001908152602001600020600d0160009054906101000a900460ff16600981111561217457612173614748565b5b14612182576121816148fd565b5b6123af565b600061219283613e06565b9050600460098111156121a8576121a7614748565b5b8260098111156121bb576121ba614748565b5b03612298576000816000600281106121d6576121d56148ce565b5b60200201510361223b578160098111156121f3576121f2614748565b5b600080858152602001908152602001600020600d0160009054906101000a900460ff16600981111561222857612227614748565b5b14612236576122356148fd565b5b612293565b6006600981111561224f5761224e614748565b5b600080858152602001908152602001600020600d0160009054906101000a900460ff16600981111561228457612283614748565b5b14612292576122916148fd565b5b5b6123ad565b600760098111156122ac576122ab614748565b5b8260098111156122bf576122be614748565b5b0361239c576000816000600281106122da576122d96148ce565b5b60200201510361233f578160098111156122f7576122f6614748565b5b600080858152602001908152602001600020600d0160009054906101000a900460ff16600981111561232c5761232b614748565b5b1461233a576123396148fd565b5b612397565b6005600981111561235357612352614748565b5b600080858152602001908152602001600020600d0160009054906101000a900460ff16600981111561238857612387614748565b5b14612396576123956148fd565b5b5b6123ac565b60006123ab576123aa6148fd565b5b5b5b505b60006123ba8c613e06565b905060008060008e8152602001908152602001600020604051806101200160405290816000820160009054906101000a900460ff161515151581526020016000820160019054906101000a900460ff1615151515815260200160018201600280602002604051908101604052809291906000905b82821015612539578382600602016040518060c00160405290816000820160009054906101000a900460ff161515151581526020016000820160019054906101000a900460ff161515151581526020016000820160029054906101000a900473ffffffffffffffffffffffffffffffffffffffff1673ffffffffffffffffffffffffffffffffffffffff1673ffffffffffffffffffffffffffffffffffffffff1681526020016001820154815260200160028201548152602001600382016040518060600160405290816000820160009054906101000a900460ff1615151515815260200160018201548152602001600282015481525050815250508152602001906001019061242e565b505050508152602001600d820160009054906101000a900460ff16600981111561256657612565614748565b5b600981111561257857612577614748565b5b8152602001600e8201548152602001600f82015481526020016010820160009054906101000a900460ff161515151581526020016010820160019054906101000a900460ff161515151581526020016010820160029054906101000a900473ffffffffffffffffffffffffffffffffffffffff1673ffffffffffffffffffffffffffffffffffffffff1673ffffffffffffffffffffffffffffffffffffffff16815250509050612661898983604001518560006002811061263c5761263b6148ce565b5b602002015160028110612652576126516148ce565b5b6020020151608001518d6140eb565b15612778576005600981111561267a57612679614748565b5b6000808f8152602001908152602001600020600d0160009054906101000a900460ff1660098111156126af576126ae614748565b5b146126f65760046000808f8152602001908152602001600020600d0160006101000a81548160ff021916908360098111156126ed576126ec614748565b5b02179055612734565b60066000808f8152602001908152602001600020600d0160006101000a81548160ff0219169083600981111561272f5761272e614748565b5b021790555b507f6b7f4cb32e4557bb0ec1ac014e9cf98e7eb88491d66436be28084edaf4ae0d078d8d8d600160405161276b9493929190614a40565b60405180910390a16127b7565b7f6b7f4cb32e4557bb0ec1ac014e9cf98e7eb88491d66436be28084edaf4ae0d078d8d8d60006040516127ae9493929190614a40565b60405180910390a15b50505050505050505050505050565b600080600083815260200190815260200160002060000160009054906101000a900460ff161561281a57600080838152602001908152602001600020600d0160009054906101000a900460ff16905061281f565b600990505b919050565b600080600083815260200190815260200160002060000160009054906101000a900460ff16801561288e5750600080838152602001908152602001600020600101600160028110612878576128776148ce565b5b6006020160000160009054906101000a900460ff165b156128ca576000808381526020019081526020016000206001016001600281106128bb576128ba6148ce565b5b600602016001015490506128cf565b600090505b919050565b6000806128e3848487896140eb565b905080915050949350505050565b600080600083815260200190815260200160002060000160009054906101000a900460ff16801561295b5750600080838152602001908152602001600020600101600160028110612945576129446148ce565b5b6006020160000160009054906101000a900460ff165b156129b757600080838152602001908152602001600020600101600160028110612988576129876148ce565b5b6006020160000160029054906101000a900473ffffffffffffffffffffffffffffffffffffffff1690506129bc565b600090505b919050565b600881565b8160008082815260200190815260200160002060000160009054906101000a900460ff166129f7576129f66148fd565b5b823373ffffffffffffffffffffffffffffffffffffffff16600080838152602001908152602001600020600101600060028110612a3757612a366148ce565b5b6006020160000160029054906101000a900473ffffffffffffffffffffffffffffffffffffffff1673ffffffffffffffffffffffffffffffffffffffff161480612afb57503373ffffffffffffffffffffffffffffffffffffffff16600080838152602001908152602001600020600101600160028110612abb57612aba6148ce565b5b6006020160000160029054906101000a900473ffffffffffffffffffffffffffffffffffffffff1673ffffffffffffffffffffffffffffffffffffffff16145b612b0857612b076148fd565b5b836004806009811115612b1e57612b1d614748565b5b816009811115612b3157612b30614748565b5b14158015612b64575060066009811115612b4e57612b4d614748565b5b816009811115612b6157612b60614748565b5b14155b8015612b95575060076009811115612b7f57612b7e614748565b5b816009811115612b9257612b91614748565b5b14155b80612bc5575060056009811115612baf57612bae614748565b5b816009811115612bc257612bc1614748565b5b14155b15612c2557806009811115612bdd57612bdc614748565b5b600080848152602001908152602001600020600d0160009054906101000a900460ff166009811115612c1257612c11614748565b5b14612c2057612c1f6148fd565b5b612e4d565b6000612c3083613e06565b905060046009811115612c4657612c45614748565b5b826009811115612c5957612c58614748565b5b03612d3657600081600060028110612c7457612c736148ce565b5b602002015103612cd957816009811115612c9157612c90614748565b5b600080858152602001908152602001600020600d0160009054906101000a900460ff166009811115612cc657612cc5614748565b5b14612cd457612cd36148fd565b5b612d31565b60066009811115612ced57612cec614748565b5b600080858152602001908152602001600020600d0160009054906101000a900460ff166009811115612d2257612d21614748565b5b14612d3057612d2f6148fd565b5b5b612e4b565b60076009811115612d4a57612d49614748565b5b826009811115612d5d57612d5c614748565b5b03612e3a57600081600060028110612d7857612d776148ce565b5b602002015103612ddd57816009811115612d9557612d94614748565b5b600080858152602001908152602001600020600d0160009054906101000a900460ff166009811115612dca57612dc9614748565b5b14612dd857612dd76148fd565b5b612e35565b60056009811115612df157612df0614748565b5b600080858152602001908152602001600020600d0160009054906101000a900460ff166009811115612e2657612e25614748565b5b14612e3457612e336148fd565b5b5b612e4a565b6000612e4957612e486148fd565b5b5b5b505b6000612e5887613e06565b905060046009811115612e6e57612e6d614748565b5b600080898152602001908152602001600020600d0160009054906101000a900460ff166009811115612ea357612ea2614748565b5b14612eea576007600080898152602001908152602001600020600d0160006101000a81548160ff02191690836009811115612ee157612ee0614748565b5b02179055612f28565b6005600080898152602001908152602001600020600d0160006101000a81548160ff02191690836009811115612f2357612f22614748565b5b021790555b5060008088815260200190815260200160002060010181600060028110612f5257612f516148ce565b5b602002015160028110612f6857612f676148ce565b5b600602016003016002016000815480929190612f8390614a85565b9190505550600080600089815260200190815260200160002060010182600060028110612fb357612fb26148ce565b5b602002015160028110612fc957612fc86148ce565b5b60060201600301600201540315613014577fdba0500edc5d1049fa27c54a56e9f0313f9a962ae79b418ea0cfdfb556593286878760405161300b929190614aae565b60405180910390a15b50505050505050565b6000810361318257601c5490505b601b54811161317a576001151560008083815260200190815260200160002060000160009054906101000a900460ff1615151480156130b057506000600981111561307957613078614748565b5b600080838152602001908152602001600020600d0160009054906101000a900460ff1660098111156130ae576130ad614748565b5b145b801561313757503373ffffffffffffffffffffffffffffffffffffffff166000808381526020019081526020016000206001016000600281106130f6576130f56148ce565b5b6006020160000160029054906101000a900473ffffffffffffffffffffffffffffffffffffffff1673ffffffffffffffffffffffffffffffffffffffff1614155b8015613163575060008082815260200190815260200160002060100160019054906101000a900460ff16155b61317a57808061317290614984565b91505061302b565b80601c819055505b60008082815260200190815260200160002060000160009054906101000a900460ff166131b2576131b16148fd565b5b600060129050338160000160026101000a81548173ffffffffffffffffffffffffffffffffffffffff021916908373ffffffffffffffffffffffffffffffffffffffff16021790555060018160000160006101000a81548160ff02191690831515021790555060008160000160016101000a81548160ff0219169083151502179055508060008084815260200190815260200160002060010160016002811061325e5761325d6148ce565b5b600602016000820160009054906101000a900460ff168160000160006101000a81548160ff0219169083151502179055506000820160019054906101000a900460ff168160000160016101000a81548160ff0219169083151502179055506000820160029054906101000a900473ffffffffffffffffffffffffffffffffffffffff168160000160026101000a81548173ffffffffffffffffffffffffffffffffffffffff021916908373ffffffffffffffffffffffffffffffffffffffff160217905550600182015481600101556002820154816002015560038201816003016000820160009054906101000a900460ff168160000160006101000a81548160ff021916908315150217905550600182015481600101556002820154816002015550509050506001600080848152602001908152602001600020600d0160006101000a81548160ff021916908360098111156133be576133bd614748565b5b02179055507fdf72bd9cb04731c1dfa0832a380e56504fda45508a7305083a9be0f343e934218260008085815260200190815260200160002060010160006002811061340d5761340c6148ce565b5b6006020160000160029054906101000a900473ffffffffffffffffffffffffffffffffffffffff163360405161344593929190614ad7565b60405180910390a15050565b8160008082815260200190815260200160002060000160009054906101000a900460ff16613482576134816148fd565b5b823373ffffffffffffffffffffffffffffffffffffffff166000808381526020019081526020016000206001016000600281106134c2576134c16148ce565b5b6006020160000160029054906101000a900473ffffffffffffffffffffffffffffffffffffffff1673ffffffffffffffffffffffffffffffffffffffff16148061358657503373ffffffffffffffffffffffffffffffffffffffff16600080838152602001908152602001600020600101600160028110613546576135456148ce565b5b6006020160000160029054906101000a900473ffffffffffffffffffffffffffffffffffffffff1673ffffffffffffffffffffffffffffffffffffffff16145b613593576135926148fd565b5b836001600460098111156135aa576135a9614748565b5b8160098111156135bd576135bc614748565b5b141580156135f05750600660098111156135da576135d9614748565b5b8160098111156135ed576135ec614748565b5b14155b801561362157506007600981111561360b5761360a614748565b5b81600981111561361e5761361d614748565b5b14155b8061365157506005600981111561363b5761363a614748565b5b81600981111561364e5761364d614748565b5b14155b156136b15780600981111561366957613668614748565b5b600080848152602001908152602001600020600d0160009054906101000a900460ff16600981111561369e5761369d614748565b5b146136ac576136ab6148fd565b5b6138d9565b60006136bc83613e06565b9050600460098111156136d2576136d1614748565b5b8260098111156136e5576136e4614748565b5b036137c257600081600060028110613700576136ff6148ce565b5b6020020151036137655781600981111561371d5761371c614748565b5b600080858152602001908152602001600020600d0160009054906101000a900460ff16600981111561375257613751614748565b5b146137605761375f6148fd565b5b6137bd565b6006600981111561377957613778614748565b5b600080858152602001908152602001600020600d0160009054906101000a900460ff1660098111156137ae576137ad614748565b5b146137bc576137bb6148fd565b5b5b6138d7565b600760098111156137d6576137d5614748565b5b8260098111156137e9576137e8614748565b5b036138c657600081600060028110613804576138036148ce565b5b6020020151036138695781600981111561382157613820614748565b5b600080858152602001908152602001600020600d0160009054906101000a900460ff16600981111561385657613855614748565b5b14613864576138636148fd565b5b6138c1565b6005600981111561387d5761387c614748565b5b600080858152602001908152602001600020600d0160009054906101000a900460ff1660098111156138b2576138b1614748565b5b146138c0576138bf6148fd565b5b5b6138d6565b60006138d5576138d46148fd565b5b5b5b505b6000806000888152602001908152602001600020604051806101200160405290816000820160009054906101000a900460ff161515151581526020016000820160019054906101000a900460ff1615151515815260200160018201600280602002604051908101604052809291906000905b82821015613a56578382600602016040518060c00160405290816000820160009054906101000a900460ff161515151581526020016000820160019054906101000a900460ff161515151581526020016000820160029054906101000a900473ffffffffffffffffffffffffffffffffffffffff1673ffffffffffffffffffffffffffffffffffffffff1673ffffffffffffffffffffffffffffffffffffffff1681526020016001820154815260200160028201548152602001600382016040518060600160405290816000820160009054906101000a900460ff1615151515815260200160018201548152602001600282015481525050815250508152602001906001019061394b565b505050508152602001600d820160009054906101000a900460ff166009811115613a8357613a82614748565b5b6009811115613a9557613a94614748565b5b8152602001600e8201548152602001600f82015481526020016010820160009054906101000a900460ff161515151581526020016010820160019054906101000a900460ff161515151581526020016010820160029054906101000a900473ffffffffffffffffffffffffffffffffffffffff1673ffffffffffffffffffffffffffffffffffffffff1673ffffffffffffffffffffffffffffffffffffffff168152505090506000808260400151600060028110613b5657613b556148ce565b5b60200201516040015173ffffffffffffffffffffffffffffffffffffffff163373ffffffffffffffffffffffffffffffffffffffff1603613b9e576001915060009050613ba7565b60009150600190505b600083604001518360028110613bc057613bbf6148ce565b5b6020020151606001519050886000808c81526020019081526020016000206001018360028110613bf357613bf26148ce565b5b600602016001018190555060008114158015613c0e57508881145b15613ced57886000808c8152602001908152602001600020600e018190555060026000808c8152602001908152602001600020600d0160006101000a81548160ff02191690836009811115613c6657613c65614748565b5b02179055507fa63491c3e48c84a30c1a58128201bca4fd87bb84850cda339020ce19051e5a908a8560400151600060028110613ca557613ca46148ce565b5b6020020151604001518660400151600160028110613cc657613cc56148ce565b5b6020020151604001518c604051613ce09493929190614b0e565b60405180910390a1613d4a565b7f4adf94e8b5302c48b3df6533aa17748538d68a74af46f0a894839b61fbf3f1bf8a3386604001518660028110613d2757613d266148ce565b5b6020020151604001518c604051613d419493929190614b0e565b60405180910390a15b50505050505050505050565b600080600083815260200190815260200160002060000160009054906101000a900460ff168015613dc05750600080838152602001908152602001600020600101600060028110613daa57613da96148ce565b5b6006020160000160009054906101000a900460ff165b15613dfc57600080838152602001908152602001600020600101600060028110613ded57613dec6148ce565b5b60060201600101549050613e01565b600090505b919050565b613e0e614301565b613e16614301565b600080848152602001908152602001600020600101600060028110613e3e57613e3d6148ce565b5b6006020160000160029054906101000a900473ffffffffffffffffffffffffffffffffffffffff1673ffffffffffffffffffffffffffffffffffffffff163373ffffffffffffffffffffffffffffffffffffffff1603613edb57600081600060028110613eae57613ead6148ce565b5b602002018181525050600181600160028110613ecd57613ecc6148ce565b5b602002018181525050613f1a565b600181600060028110613ef157613ef06148ce565b5b602002018181525050600081600160028110613f1057613f0f6148ce565b5b6020020181815250505b80915050919050565b600082826000808381526020019081526020016000206001018160028110613f4e57613f4d6148ce565b5b6006020160000160009054906101000a900460ff16613f7057613f6f6148fd565b5b6000808381526020019081526020016000205060028110613f9457613f936148fd565b5b8460008082815260200190815260200160002060000160009054906101000a900460ff16613fc557613fc46148fd565b5b6000808781526020019081526020016000206001018560028110613fec57613feb6148ce565b5b6006020160020154935050505092915050565b60008282600080838152602001908152602001600020600101816002811061402a576140296148ce565b5b6006020160000160009054906101000a900460ff1661404c5761404b6148fd565b5b60008083815260200190815260200160002050600281106140705761406f6148fd565b5b8460008082815260200190815260200160002060000160009054906101000a900460ff166140a1576140a06148fd565b5b60008087815260200190815260200160002060010185600281106140c8576140c76148ce565b5b6006020160030160000160009054906101000a900460ff16935050505092915050565b6000826140f9868685614104565b149050949350505050565b60008082905060005b858590508110156141505761413b8287878481811061412f5761412e6148ce565b5b9050602002013561415c565b9150808061414890614984565b91505061410d565b50809150509392505050565b60008183106141745761416f8284614187565b61417f565b61417e8383614187565b5b905092915050565b600082600052816020526040600020905092915050565b82600260060281019282156142f0579160060282015b828111156142ef5782826000820160009054906101000a900460ff168160000160006101000a81548160ff0219169083151502179055506000820160019054906101000a900460ff168160000160016101000a81548160ff0219169083151502179055506000820160029054906101000a900473ffffffffffffffffffffffffffffffffffffffff168160000160026101000a81548173ffffffffffffffffffffffffffffffffffffffff021916908373ffffffffffffffffffffffffffffffffffffffff160217905550600182015481600101556002820154816002015560038201816003016000820160009054906101000a900460ff168160000160006101000a81548160ff021916908315150217905550600182015481600101556002820154816002015550505050916006019190600601906141b4565b5b5090506142fd9190614323565b5090565b6040518060400160405280600290602082028036833780820191505090505090565b5b808211156143c057600080820160006101000a81549060ff02191690556000820160016101000a81549060ff02191690556000820160026101000a81549073ffffffffffffffffffffffffffffffffffffffff02191690556001820160009055600282016000905560038201600080820160006101000a81549060ff021916905560018201600090556002820160009055505050600601614324565b5090565b600080fd5b600080fd5b6000819050919050565b6143e1816143ce565b81146143ec57600080fd5b50565b6000813590506143fe816143d8565b92915050565b60006020828403121561441a576144196143c4565b5b6000614428848285016143ef565b91505092915050565b60008115159050919050565b61444681614431565b82525050565b6000602082019050614461600083018461443d565b92915050565b6000819050919050565b61447a81614467565b811461448557600080fd5b50565b60008135905061449781614471565b92915050565b600080604083850312156144b4576144b36143c4565b5b60006144c2858286016143ef565b92505060206144d385828601614488565b9150509250929050565b600073ffffffffffffffffffffffffffffffffffffffff82169050919050565b6000614508826144dd565b9050919050565b614518816144fd565b82525050565b6000602082019050614533600083018461450f565b92915050565b61454281614431565b811461454d57600080fd5b50565b60008135905061455f81614539565b92915050565b60006020828403121561457b5761457a6143c4565b5b600061458984828501614550565b91505092915050565b61459b81614467565b82525050565b60006020820190506145b66000830184614592565b92915050565b600060ff82169050919050565b6145d2816145bc565b82525050565b60006020820190506145ed60008301846145c9565b92915050565b6145fc816143ce565b82525050565b600060208201905061461760008301846145f3565b92915050565b614626816145bc565b811461463157600080fd5b50565b6000813590506146438161461d565b92915050565b600080fd5b600080fd5b600080fd5b60008083601f84011261466e5761466d614649565b5b8235905067ffffffffffffffff81111561468b5761468a61464e565b5b6020830191508360208202830111156146a7576146a6614653565b5b9250929050565b60008060008060008060a087890312156146cb576146ca6143c4565b5b60006146d989828a016143ef565b96505060206146ea89828a01614634565b95505060406146fb89828a01614550565b945050606061470c89828a01614488565b935050608087013567ffffffffffffffff81111561472d5761472c6143c9565b5b61473989828a01614658565b92509250509295509295509295565b7f4e487b7100000000000000000000000000000000000000000000000000000000600052602160045260246000fd5b600a811061478857614787614748565b5b50565b600081905061479982614777565b919050565b60006147a98261478b565b9050919050565b6147b98161479e565b82525050565b60006020820190506147d460008301846147b0565b92915050565b600080600080606085870312156147f4576147f36143c4565b5b600061480287828801614488565b945050602061481387828801614488565b935050604085013567ffffffffffffffff811115614834576148336143c9565b5b61484087828801614658565b925092505092959194509250565b60008060408385031215614865576148646143c4565b5b6000614873858286016143ef565b925050602061488485828601614634565b9150509250929050565b600080604083850312156148a5576148a46143c4565b5b60006148b3858286016143ef565b92505060206148c4858286016143ef565b9150509250929050565b7f4e487b7100000000000000000000000000000000000000000000000000000000600052603260045260246000fd5b7f4e487b7100000000000000000000000000000000000000000000000000000000600052600160045260246000fd5b600060408201905061494160008301856145f3565b61494e602083018461450f565b9392505050565b7f4e487b7100000000000000000000000000000000000000000000000000000000600052601160045260246000fd5b600061498f826143ce565b91507fffffffffffffffffffffffffffffffffffffffffffffffffffffffffffffffff82036149c1576149c0614955565b5b600182019050919050565b60006060820190506149e1600083018661450f565b6149ee602083018561450f565b6149fb60408301846145f3565b949350505050565b6000614a0e826145bc565b9150614a19836145bc565b9250828202614a27816145bc565b9150808214614a3957614a38614955565b5b5092915050565b6000608082019050614a5560008301876145f3565b614a6260208301866145c9565b614a6f604083018561443d565b614a7c606083018461443d565b95945050505050565b6000614a90826143ce565b915060008203614aa357614aa2614955565b5b600182039050919050565b6000604082019050614ac360008301856145f3565b614ad060208301846145c9565b9392505050565b6000606082019050614aec60008301866145f3565b614af9602083018561450f565b614b06604083018461450f565b949350505050565b6000608082019050614b2360008301876145f3565b614b30602083018661450f565b614b3d604083018561450f565b614b4a60608301846145f3565b9594505050505056fea2646970667358221220e8a336441983a2b448f0fe9390f46bd65f1a8b25b97222978c972a2ecbaa324e64736f6c63430008130033",
  "immutableReferences": {},
  "source": "// SPDX-License-Identifier: MIT\r\npragma solidity >=0.4.22 <0.9.0;\r\n\r\ncontract Battleships {\r\n    uint8 public constant NUMBER_OF_SHIP_SQUARES = 20;\r\n    uint8 public constant BOARD_SIZE = 8;\r\n    enum GameStates{\r\n        WAITING, \r\n        SETTING_STAKE, \r\n        ACCEPTING_PAYMENT,\r\n        PLACING_SHIPS, \r\n        P0_FIRING,\r\n        P1_CHECKING,\r\n        P1_FIRING,\r\n        P0_CHECKING,\r\n        DONE,\r\n        NONE\r\n    }\r\n\r\n    // In this struct we save the view a player has of its opponent's board\r\n    struct Board{\r\n        bool valid;\r\n        // N*N matrix of bits to store hits\r\n        // bool[BOARD_SIZE][BOARD_SIZE] shots;\r\n        // # of enemy pieces still left on the board\r\n        // goes down by one each time we receive one 'you hit' event\r\n        uint totalPieces;\r\n        // 8*8, we use this to avoid cheating\r\n        uint totalShots;\r\n    }\r\n\r\n    struct Player{\r\n        bool valid;\r\n        bool hasPaidStake;\r\n        address playerAddress;\r\n        uint proposedStake;\r\n        bytes32 boardTreeRoot;\r\n        Board shots_board;\r\n    }\r\n\r\n    struct Game{\r\n        bool valid;\r\n        bool canPay;\r\n        // host is always player[0]\r\n        Player[2] players;\r\n        GameStates state;\r\n        uint decidedStake;\r\n        // used for foul accusation, a foul is triggered after 5 blocks\r\n        uint blockNumber;\r\n        // player 0 or player 1\r\n        // might turn it into address, we will see\r\n        bool accuser;\r\n        // whether or not this game should be in the public pool of joinable games\r\n        bool privateGame;\r\n        address winner;\r\n    }\r\n\r\n    mapping(uint => Game) private openGames;\r\n\r\n    Game private gameTrampoline;\r\n    Player private playerTrampoline;\r\n    Board private trampolineBoard;\r\n    // used in generating UUIDs for the games\r\n    // for now we are gonna use this as-is\r\n    // start at 1 as 0 is used for a non-existing game\r\n    // TODO: deal with it overflowing\r\n    uint private gameCounter;\r\n    uint private lastOpenGame;\r\n\r\n    constructor() {\r\n        gameCounter = 1;\r\n        lastOpenGame = 1;\r\n    }\r\n\r\n    event ShareID(address _from, address _to, uint _gameID);\r\n    event GameStart(uint _gameID, address _host, address _challenger);\r\n    event SuggestedStake(uint _gameID, address _from, address _to, uint _stakeValue);\r\n    event GamePayable(uint _gameID, address _host, address _challenger, uint _stakeValue);\r\n    event StakePaid(uint _gameID, address _whoPaid);\r\n    event AcceptingBoards(uint _gameID);\r\n    event BoardAcknowledgeEvent(uint _gameID, address _player);\r\n    event PlayerZeroTurn(uint _gameID);\r\n    event ShotsFired(uint _gameID, uint8 _location);\r\n    event ShotsChecked(uint _gameID, uint8 _location, bool _claim, bool _validity);\r\n    event Victory(uint _gameID, address _winner);\r\n\r\n    error InvalidGameID();\r\n    error NotInGame();\r\n    error StakeAlreadyDeposited();\r\n    error WrongStakeAmount(uint expectedStakeValue);\r\n\r\n    modifier gameExists(uint gameID){\r\n        assert(openGames[gameID].valid);\r\n        _;\r\n    }\r\n\r\n    modifier isInGame(uint gameID){\r\n        assert((openGames[gameID].players[0].playerAddress == msg.sender) || (openGames[gameID].players[1].playerAddress == msg.sender));\r\n        _;\r\n    }\r\n\r\n    modifier assertState(uint gameID, GameStates _state){\r\n        if(_state != GameStates.P0_FIRING && _state != GameStates.P1_FIRING && _state != GameStates.P0_CHECKING || _state != GameStates.P1_CHECKING)\r\n            assert(openGames[gameID].state == _state);\r\n        else{\r\n            // We check firing states with P0_FIRING and checking states with P0_CHECKING, for both players\r\n            uint[2] memory indexes = getIndexSender(gameID);\r\n            if(_state == GameStates.P0_FIRING){\r\n                if(indexes[0] == 0)\r\n                    assert(openGames[gameID].state == _state);\r\n                else\r\n                    assert(openGames[gameID].state == GameStates.P1_FIRING);\r\n            }\r\n            else if(_state == GameStates.P0_CHECKING){\r\n                if(indexes[0] == 0)\r\n                    assert(openGames[gameID].state == _state);\r\n                else\r\n                    assert(openGames[gameID].state == GameStates.P1_CHECKING);\r\n            }\r\n            else assert(false);\r\n        }\r\n        _;\r\n    }\r\n\r\n    modifier playerInRange(uint gameID, uint index){\r\n        assert(openGames[gameID].players[index].valid);\r\n        assert(index < openGames[gameID].players.length);\r\n        _;\r\n    }\r\n\r\n    modifier shotOnBoard(uint8 location){\r\n        assert(location < (BOARD_SIZE*BOARD_SIZE));\r\n        _;\r\n    }\r\n\r\n    function getIndexSender (uint gameID) view private returns(uint[2] memory) {\r\n        // indexes[0]: msg.sender index\r\n        // indexes[1]: msg.sender opponent's index\r\n        uint[2] memory indexes;\r\n        if(msg.sender == openGames[gameID].players[0].playerAddress){\r\n            indexes[0] = 0;\r\n            indexes[1] = 1;\r\n        } else {\r\n            indexes[0] = 1;\r\n            indexes[1] = 0;\r\n        }\r\n        return indexes;\r\n    }\r\n\r\n    // Code from OpenZeppelin's project\r\n    // https://github.com/OpenZeppelin\r\n    function verifyCalldata(\r\n    bytes32[] calldata proof,\r\n    bytes32 root,\r\n    bytes32 leaf\r\n    ) internal pure returns (bool) {\r\n        return processProofCalldata(proof, leaf) == root;\r\n    }\r\n\r\n    function processProofCalldata(\r\n        bytes32[] calldata proof,\r\n        bytes32 leaf\r\n    ) internal pure returns (bytes32) {\r\n        bytes32 computedHash = leaf;\r\n        for (uint256 i = 0; i < proof.length; i++) {\r\n            computedHash = _hashPair(computedHash, proof[i]);\r\n        }\r\n        return computedHash;\r\n    }\r\n\r\n    function _hashPair(bytes32 a, bytes32 b)\r\n        private\r\n        pure\r\n        returns(bytes32)\r\n    {\r\n        return a < b ? _efficientHash(a, b) : _efficientHash(b, a);\r\n    }\r\n\r\n    function _efficientHash(bytes32 a, bytes32 b)\r\n        private\r\n        pure\r\n        returns (bytes32 value)\r\n    {\r\n        assembly {\r\n            mstore(0x00, a)\r\n            mstore(0x20, b)\r\n            value := keccak256(0x00, 0x40)\r\n        }\r\n    }\r\n    // end of OpenZeppelin code\r\n\r\n    // create a Game value, add it to openGames, populate the Player[0]\r\n    function newGame(bool isPrivate) public {\r\n        uint gameID = gameCounter;\r\n        gameCounter++;\r\n        Game storage game = gameTrampoline;\r\n        Player storage host = playerTrampoline;\r\n        host.playerAddress = msg.sender;\r\n        host.valid = true;\r\n        host.hasPaidStake = false;\r\n        game.players[0] = host;\r\n        game.state = GameStates.WAITING;\r\n        game.privateGame = isPrivate;\r\n        game.valid = true;\r\n        game.canPay = false;\r\n        openGames[gameID] = game;\r\n        emit ShareID(address(this), msg.sender, gameID);\r\n        return;\r\n    }\r\n    \r\n    function joinGame(uint gameID) public {\r\n        if(gameID == 0){\r\n            // pick an unassigned game in sequential order\r\n            gameID = lastOpenGame;\r\n            while(gameID <= gameCounter){\r\n                // ignore games with sender as host (you can still join your own games directly if you're that lonely)\r\n                if(openGames[gameID].valid == true && \r\n                    openGames[gameID].state == GameStates.WAITING && \r\n                    openGames[gameID].players[0].playerAddress != msg.sender && \r\n                    !openGames[gameID].privateGame){\r\n                    break;\r\n                }\r\n                gameID++;\r\n            }\r\n            // update the lastOpenGame counter no matter what\r\n            lastOpenGame = gameID;\r\n        }\r\n        // if the game wasn't valid, throw an error\r\n        assert(openGames[gameID].valid);\r\n        // set msg sender as this game's player 2\r\n        Player storage challenger = playerTrampoline;\r\n        challenger.playerAddress = msg.sender;\r\n        challenger.valid = true;\r\n        challenger.hasPaidStake = false;\r\n        openGames[gameID].players[1] = challenger;\r\n        // update this game's status\r\n        openGames[gameID].state = GameStates.SETTING_STAKE;\r\n        // alert the players\r\n        emit GameStart(gameID, openGames[gameID].players[0].playerAddress, msg.sender);\r\n        return;\r\n    }\r\n\r\n    function checkGameState(uint gameID) public view returns (GameStates) {\r\n        if (openGames[gameID].valid){\r\n            return openGames[gameID].state;\r\n        }\r\n        else \r\n            return(GameStates.NONE);\r\n    }\r\n\r\n    function checkGamePlayerOne(uint gameID) public view returns (address) {\r\n        if (openGames[gameID].valid && openGames[gameID].players[0].valid){\r\n            return openGames[gameID].players[0].playerAddress;\r\n        }\r\n        else \r\n            return(address(0));\r\n    }\r\n\r\n    function checkGamePlayerTwo(uint gameID) public view returns (address) {\r\n        if (openGames[gameID].valid && openGames[gameID].players[1].valid){\r\n            return openGames[gameID].players[1].playerAddress;\r\n        }\r\n        else \r\n            return(address(0));\r\n    }\r\n\r\n    // Function to propose and agree upon a stake between players\r\n    function proposeStake(uint gameID, uint stakeValue) gameExists(gameID) isInGame(gameID) assertState(gameID, GameStates.SETTING_STAKE) public{\r\n        Game memory game = openGames[gameID];\r\n        // Check whether or not this player's opponent has already proposed a stake\r\n        uint opponentIndex;\r\n        uint stakerIndex;\r\n        if(msg.sender == game.players[0].playerAddress){\r\n            opponentIndex = 1;\r\n            stakerIndex = 0;\r\n        } else {\r\n            opponentIndex = 0;\r\n            stakerIndex = 1;\r\n        }\r\n        uint opponentStake = game.players[opponentIndex].proposedStake;\r\n        // set this player's proposed stake to their message\r\n        openGames[gameID].players[stakerIndex].proposedStake = stakeValue;\r\n        // if the opponent has proposed a stake we check whether or not it equals the one proposed by us\r\n        // 0 is not a valid stake\r\n        if(opponentStake != 0 && opponentStake == stakeValue){\r\n            openGames[gameID].decidedStake = stakeValue;\r\n            openGames[gameID].state = GameStates.ACCEPTING_PAYMENT;\r\n            emit GamePayable(gameID, game.players[0].playerAddress, game.players[1].playerAddress, stakeValue);\r\n        }else{\r\n            emit SuggestedStake(gameID, msg.sender, game.players[opponentIndex].playerAddress, stakeValue);\r\n        }\r\n        return;\r\n    }\r\n\r\n    function checkStakePlayerOne(uint gameID) public view returns (uint) {\r\n        if (openGames[gameID].valid && openGames[gameID].players[0].valid){\r\n            return openGames[gameID].players[0].proposedStake;\r\n        }\r\n        else \r\n            return(0);\r\n    }\r\n\r\n    function checkStakePlayerTwo(uint gameID) public view returns (uint) {\r\n        if (openGames[gameID].valid && openGames[gameID].players[1].valid){\r\n            return openGames[gameID].players[1].proposedStake;\r\n        }\r\n        else \r\n            return(0);\r\n    }\r\n\r\n    function checkStakeGame(uint gameID) public view returns (uint) {\r\n        if (openGames[gameID].valid && openGames[gameID].players[0].valid && openGames[gameID].players[1].valid)\r\n            return openGames[gameID].decidedStake;\r\n        else\r\n            return(0);\r\n    }\r\n    \r\n    function payStake(uint gameID) gameExists(gameID) isInGame(gameID) assertState(gameID, GameStates.ACCEPTING_PAYMENT) external payable {\r\n        if((msg.sender == openGames[gameID].players[0].playerAddress && openGames[gameID].players[0].hasPaidStake) ||\r\n            (msg.sender == openGames[gameID].players[1].playerAddress && openGames[gameID].players[1].hasPaidStake))\r\n            revert StakeAlreadyDeposited();\r\n        // only accept payments for the exact amount owed\r\n        if(msg.value != openGames[gameID].decidedStake)\r\n            revert WrongStakeAmount(openGames[gameID].decidedStake);\r\n        // now we check who the sender is\r\n        uint senderIndex;\r\n        uint challengerIndex;\r\n        if(msg.sender == openGames[gameID].players[0].playerAddress){\r\n            senderIndex = 0;\r\n            challengerIndex = 1;\r\n        }else{\r\n            senderIndex = 1;\r\n            challengerIndex = 0;\r\n        }\r\n        openGames[gameID].players[senderIndex].hasPaidStake = true;\r\n        emit StakePaid(gameID, msg.sender);\r\n        // if both players have paid the owed stake the game can move on to its next state\r\n        if(openGames[gameID].players[challengerIndex].hasPaidStake){\r\n            openGames[gameID].state = GameStates.PLACING_SHIPS;\r\n            emit AcceptingBoards(gameID);\r\n        }\r\n    }\r\n\r\n    function checkPaymentPlayerOne(uint gameID) public view returns (bool) {\r\n        if (openGames[gameID].valid && openGames[gameID].players[0].valid){\r\n            return openGames[gameID].players[0].hasPaidStake;\r\n        }\r\n        else \r\n            return(false);\r\n    }\r\n\r\n    function checkPaymentPlayerTwo(uint gameID) public view returns (bool) {\r\n        if (openGames[gameID].valid && openGames[gameID].players[1].valid){\r\n            return openGames[gameID].players[1].hasPaidStake;\r\n        }\r\n        else \r\n            return(false);\r\n    }\r\n\r\n    function checkGamePayable(uint gameID) public view returns (bool) {\r\n        if (openGames[gameID].valid && openGames[gameID].players[0].valid && openGames[gameID].players[1].valid)\r\n            return openGames[gameID].canPay;\r\n        else\r\n            return(false);\r\n    }\r\n    \r\n    function PlaceShips(uint gameID, bytes32 boardRoot) gameExists(gameID) isInGame(gameID) assertState(gameID, GameStates.PLACING_SHIPS) public{\r\n        uint index;\r\n        uint oppIdx;\r\n        msg.sender == openGames[gameID].players[0].playerAddress ? index = 0 : index = 1;\r\n        msg.sender == openGames[gameID].players[0].playerAddress ? oppIdx = 1 : oppIdx = 0;\r\n        require(openGames[gameID].players[index].boardTreeRoot == 0x0);\r\n        // Instantiate a new shots board\r\n        // Instantiate the Board struct itself and assign it to a player\r\n        Board storage playerBoard = trampolineBoard;\r\n        trampolineBoard.valid = true;\r\n        trampolineBoard.totalPieces = NUMBER_OF_SHIP_SQUARES;\r\n        trampolineBoard.totalShots = BOARD_SIZE;\r\n        openGames[gameID].players[index].shots_board = playerBoard;\r\n        // save the received boardRoot, finally\r\n        openGames[gameID].players[index].boardTreeRoot = boardRoot;\r\n        emit BoardAcknowledgeEvent(gameID, msg.sender);\r\n        if(openGames[gameID].players[oppIdx].boardTreeRoot != 0x0){\r\n            openGames[gameID].state = GameStates.P0_FIRING;\r\n            emit PlayerZeroTurn(gameID);\r\n        }\r\n    }\r\n\r\n    function getPlayerBoardRoot(uint gameID, uint index) playerInRange(gameID, index) gameExists(gameID) private view returns(bytes32){\r\n        return openGames[gameID].players[index].boardTreeRoot;\r\n    }\r\n\r\n    function getPlayerOneBoardRoot(uint gameID) public view returns (bytes32){\r\n        return getPlayerBoardRoot(gameID, 0);\r\n    }\r\n\r\n    function getPlayerTwoBoardRoot(uint gameID) public view returns (bytes32){\r\n        return getPlayerBoardRoot(gameID, 1);\r\n    }\r\n\r\n    // We should never have any use for these following functions\r\n    // Marking them as DEPRECATED now\r\n    // we will see if they survive the cutting room floor\r\n    \r\n    // DEPRECATED\r\n    function getPlayerShotsBoard(uint gameID, uint index) playerInRange(gameID, index) gameExists(gameID) private view returns(bool){\r\n        return openGames[gameID].players[index].shots_board.valid;\r\n    }\r\n\r\n    // DEPRECATED\r\n    function getPlayerOneShotsBoard(uint gameID) public view returns (bool){\r\n        return getPlayerShotsBoard(gameID, 0);\r\n    }\r\n\r\n    // DEPRECATED\r\n    function getPlayerTwoShotsBoard(uint gameID) public view returns (bool){\r\n        return getPlayerShotsBoard(gameID, 1);\r\n    }\r\n\r\n    // for info on what location is see \"Implementation of the user-side game board\" in README.md\r\n    function FireTorpedo(uint gameID, uint8 location) gameExists(gameID) isInGame(gameID) assertState(gameID, GameStates.P0_FIRING) public {\r\n        uint[2] memory indexes = getIndexSender(gameID);\r\n        // Rotate into correct next state\r\n        openGames[gameID].state == GameStates.P0_FIRING ? openGames[gameID].state = GameStates.P1_CHECKING : openGames[gameID].state = GameStates.P0_CHECKING;\r\n        // Now for some game logic\r\n        // whatever happens, we lower the totalShots counter of our system by one\r\n        openGames[gameID].players[indexes[0]].shots_board.totalShots--;\r\n        // Then we evaluate whether or not this is zero. If it is, This party wins automatically.\r\n        // We do this here to avoid opponents stalling out on the reply for 5 blocks on what is a foregone conclusion\r\n        if (openGames[gameID].players[indexes[0]].shots_board.totalShots == 0){\r\n            // VerifyWinner(gameID, index, oppIdx);\r\n        } else {\r\n            emit ShotsFired(gameID, location);\r\n        }\r\n    }\r\n    \r\n    function ConfirmShot(uint gameID, uint8 location, bool isHit, bytes32 leaf, bytes32[] calldata proof) gameExists(gameID) isInGame(gameID) shotOnBoard(location) assertState(gameID, GameStates.P0_CHECKING) public {\r\n        uint[2] memory indexes = getIndexSender(gameID);\r\n        // This very time consuming copy is needed because apparently using gameID directly causes a stack-too-deep issue.\r\n        Game memory tmpGame = openGames[gameID];\r\n        // execute the proof test\r\n        if(verifyCalldata(proof, tmpGame.players[indexes[0]].boardTreeRoot, leaf)){\r\n            // we could verify this user's proof\r\n            // rotate state\r\n            openGames[gameID].state == GameStates.P1_CHECKING ? openGames[gameID].state = GameStates.P1_FIRING : openGames[gameID].state = GameStates.P0_FIRING;\r\n            emit ShotsChecked(gameID, location, isHit, true);\r\n        } else {\r\n            // else we mark him as foul'd but do NOT rotate the state.\r\n            // TODO IMPLEMENT FOUL MECHANICS\r\n            emit ShotsChecked(gameID, location, isHit, false);\r\n        }\r\n    }\r\n    \r\n    function QuickCheck(bytes32 leaf, bytes32 root, bytes32[] calldata proof) public pure returns (bool){\r\n        bool forTheDebugger = verifyCalldata(proof, root, leaf);\r\n        return forTheDebugger;\r\n    }\r\n\r\n    /*\r\n    function EchoBytes(bytes32 proof) pure public returns (bytes32) {\r\n        return proof;\r\n    }\r\n\r\n    function EchoProof(bytes32[] calldata proof) pure public returns (bytes32[] calldata) {\r\n        return proof;\r\n    }\r\n    */\r\n\r\n    /*\r\n    function VerifyWinner(uint gameID, uint winnerIndex, uint loserIndex) private {\r\n        address verifiedWinner;\r\n        // TODO: verify the merkle board for the winner first of all\r\n        // this requires asking the winner for their board\r\n        // if that fails, verify it for the loser and pay THEM out if it succeeds\r\n\r\n        // finally set the contract as payable\r\n        openGames[gameID].canPay = true;\r\n        openGames[gameID].winner = verifiedWinner;\r\n        emit Victory(gameID, msg.sender);\r\n    }\r\n    */\r\n}",
  "sourcePath": "f:\\Documents\\Code\\School\\P2PBC\\Battleships\\contracts\\Battleships.sol",
  "compiler": {
    "name": "solc",
    "version": "0.8.19+commit.7dd6d404.Emscripten.clang"
  },
  "schemaVersion": "3.4.13",
  "updatedAt": "2023-05-23T18:54:18.420Z",
  "networkType": "ethereum",
  "devdoc": {
    "kind": "dev",
    "methods": {},
    "version": 1
  },
  "userdoc": {
    "kind": "user",
    "methods": {},
    "version": 1
  }
}