{
  "contractName": "Battleships",
  "abi": [
    {
      "inputs": [],
      "stateMutability": "nonpayable",
      "type": "constructor"
    },
    {
      "inputs": [],
      "name": "InvalidGameID",
      "type": "error"
    },
    {
      "inputs": [],
      "name": "NoOpenGames",
      "type": "error"
    },
    {
      "inputs": [],
      "name": "NotInGame",
      "type": "error"
    },
    {
      "inputs": [],
      "name": "StakeAlreadyDeposited",
      "type": "error"
    },
    {
      "inputs": [
        {
          "internalType": "uint256",
          "name": "expectedStakeValue",
          "type": "uint256"
        }
      ],
      "name": "WrongStakeAmount",
      "type": "error"
    },
    {
      "anonymous": false,
      "inputs": [
        {
          "indexed": false,
          "internalType": "uint256",
          "name": "_gameID",
          "type": "uint256"
        }
      ],
      "name": "AcceptingBoards",
      "type": "event"
    },
    {
      "anonymous": false,
      "inputs": [
        {
          "indexed": false,
          "internalType": "uint256",
          "name": "_gameID",
          "type": "uint256"
        },
        {
          "indexed": false,
          "internalType": "address",
          "name": "_player",
          "type": "address"
        }
      ],
      "name": "BoardAcknowledgeEvent",
      "type": "event"
    },
    {
      "anonymous": false,
      "inputs": [
        {
          "indexed": false,
          "internalType": "uint256",
          "name": "_gameID",
          "type": "uint256"
        },
        {
          "indexed": false,
          "internalType": "address",
          "name": "_accused",
          "type": "address"
        },
        {
          "indexed": false,
          "internalType": "uint256",
          "name": "_block",
          "type": "uint256"
        }
      ],
      "name": "Foul",
      "type": "event"
    },
    {
      "anonymous": false,
      "inputs": [
        {
          "indexed": false,
          "internalType": "uint256",
          "name": "_gameID",
          "type": "uint256"
        }
      ],
      "name": "GameEnded",
      "type": "event"
    },
    {
      "anonymous": false,
      "inputs": [
        {
          "indexed": false,
          "internalType": "uint256",
          "name": "_gameID",
          "type": "uint256"
        },
        {
          "indexed": false,
          "internalType": "address",
          "name": "_host",
          "type": "address"
        },
        {
          "indexed": false,
          "internalType": "address",
          "name": "_challenger",
          "type": "address"
        },
        {
          "indexed": false,
          "internalType": "uint256",
          "name": "_stakeValue",
          "type": "uint256"
        }
      ],
      "name": "GamePayable",
      "type": "event"
    },
    {
      "anonymous": false,
      "inputs": [
        {
          "indexed": false,
          "internalType": "uint256",
          "name": "_gameID",
          "type": "uint256"
        },
        {
          "indexed": false,
          "internalType": "address",
          "name": "_host",
          "type": "address"
        },
        {
          "indexed": false,
          "internalType": "address",
          "name": "_challenger",
          "type": "address"
        }
      ],
      "name": "GameStart",
      "type": "event"
    },
    {
      "anonymous": false,
      "inputs": [
        {
          "indexed": false,
          "internalType": "uint256",
          "name": "_gameID",
          "type": "uint256"
        }
      ],
      "name": "PlayerZeroTurn",
      "type": "event"
    },
    {
      "anonymous": false,
      "inputs": [
        {
          "indexed": false,
          "internalType": "uint256",
          "name": "_gameID",
          "type": "uint256"
        },
        {
          "indexed": false,
          "internalType": "address",
          "name": "_winner",
          "type": "address"
        }
      ],
      "name": "RequestBoard",
      "type": "event"
    },
    {
      "anonymous": false,
      "inputs": [
        {
          "indexed": false,
          "internalType": "address",
          "name": "_from",
          "type": "address"
        },
        {
          "indexed": false,
          "internalType": "address",
          "name": "_to",
          "type": "address"
        },
        {
          "indexed": false,
          "internalType": "uint256",
          "name": "_gameID",
          "type": "uint256"
        }
      ],
      "name": "ShareID",
      "type": "event"
    },
    {
      "anonymous": false,
      "inputs": [
        {
          "indexed": false,
          "internalType": "uint256",
          "name": "_gameID",
          "type": "uint256"
        },
        {
          "indexed": false,
          "internalType": "uint8",
          "name": "_location",
          "type": "uint8"
        },
        {
          "indexed": false,
          "internalType": "bool",
          "name": "_claim",
          "type": "bool"
        },
        {
          "indexed": false,
          "internalType": "bool",
          "name": "_validity",
          "type": "bool"
        },
        {
          "indexed": false,
          "internalType": "address",
          "name": "_from",
          "type": "address"
        }
      ],
      "name": "ShotsChecked",
      "type": "event"
    },
    {
      "anonymous": false,
      "inputs": [
        {
          "indexed": false,
          "internalType": "uint256",
          "name": "_gameID",
          "type": "uint256"
        },
        {
          "indexed": false,
          "internalType": "uint8",
          "name": "_location",
          "type": "uint8"
        },
        {
          "indexed": false,
          "internalType": "address",
          "name": "_from",
          "type": "address"
        }
      ],
      "name": "ShotsFired",
      "type": "event"
    },
    {
      "anonymous": false,
      "inputs": [
        {
          "indexed": false,
          "internalType": "uint256",
          "name": "_gameID",
          "type": "uint256"
        },
        {
          "indexed": false,
          "internalType": "address",
          "name": "_whoPaid",
          "type": "address"
        }
      ],
      "name": "StakePaid",
      "type": "event"
    },
    {
      "anonymous": false,
      "inputs": [
        {
          "indexed": false,
          "internalType": "uint256",
          "name": "_gameID",
          "type": "uint256"
        },
        {
          "indexed": false,
          "internalType": "address",
          "name": "_from",
          "type": "address"
        },
        {
          "indexed": false,
          "internalType": "address",
          "name": "_to",
          "type": "address"
        },
        {
          "indexed": false,
          "internalType": "uint256",
          "name": "_stakeValue",
          "type": "uint256"
        }
      ],
      "name": "SuggestedStake",
      "type": "event"
    },
    {
      "anonymous": false,
      "inputs": [
        {
          "indexed": false,
          "internalType": "uint256",
          "name": "_gameID",
          "type": "uint256"
        },
        {
          "indexed": false,
          "internalType": "address",
          "name": "_winner",
          "type": "address"
        }
      ],
      "name": "Victory",
      "type": "event"
    },
    {
      "inputs": [],
      "name": "BOARD_SIZE",
      "outputs": [
        {
          "internalType": "uint8",
          "name": "",
          "type": "uint8"
        }
      ],
      "stateMutability": "view",
      "type": "function",
      "constant": true
    },
    {
      "inputs": [],
      "name": "NUMBER_OF_SHIP_SQUARES",
      "outputs": [
        {
          "internalType": "uint8",
          "name": "",
          "type": "uint8"
        }
      ],
      "stateMutability": "view",
      "type": "function",
      "constant": true
    },
    {
      "inputs": [
        {
          "internalType": "bool",
          "name": "isPrivate",
          "type": "bool"
        }
      ],
      "name": "newGame",
      "outputs": [],
      "stateMutability": "nonpayable",
      "type": "function"
    },
    {
      "inputs": [
        {
          "internalType": "uint256",
          "name": "gameID",
          "type": "uint256"
        }
      ],
      "name": "joinGame",
      "outputs": [],
      "stateMutability": "nonpayable",
      "type": "function"
    },
    {
      "inputs": [
        {
          "internalType": "uint256",
          "name": "gameID",
          "type": "uint256"
        }
      ],
      "name": "checkGameState",
      "outputs": [
        {
          "internalType": "enum Battleships.GameStates",
          "name": "",
          "type": "uint8"
        }
      ],
      "stateMutability": "view",
      "type": "function",
      "constant": true
    },
    {
      "inputs": [
        {
          "internalType": "uint256",
          "name": "gameID",
          "type": "uint256"
        },
        {
          "internalType": "uint256",
          "name": "index",
          "type": "uint256"
        }
      ],
      "name": "checkGamePlayer",
      "outputs": [
        {
          "internalType": "address",
          "name": "",
          "type": "address"
        }
      ],
      "stateMutability": "view",
      "type": "function",
      "constant": true
    },
    {
      "inputs": [
        {
          "internalType": "uint256",
          "name": "gameID",
          "type": "uint256"
        },
        {
          "internalType": "uint256",
          "name": "stakeValue",
          "type": "uint256"
        }
      ],
      "name": "proposeStake",
      "outputs": [],
      "stateMutability": "nonpayable",
      "type": "function"
    },
    {
      "inputs": [
        {
          "internalType": "uint256",
          "name": "gameID",
          "type": "uint256"
        }
      ],
      "name": "checkStakePlayerOne",
      "outputs": [
        {
          "internalType": "uint256",
          "name": "",
          "type": "uint256"
        }
      ],
      "stateMutability": "view",
      "type": "function",
      "constant": true
    },
    {
      "inputs": [
        {
          "internalType": "uint256",
          "name": "gameID",
          "type": "uint256"
        }
      ],
      "name": "checkStakePlayerTwo",
      "outputs": [
        {
          "internalType": "uint256",
          "name": "",
          "type": "uint256"
        }
      ],
      "stateMutability": "view",
      "type": "function",
      "constant": true
    },
    {
      "inputs": [
        {
          "internalType": "uint256",
          "name": "gameID",
          "type": "uint256"
        }
      ],
      "name": "checkStakeGame",
      "outputs": [
        {
          "internalType": "uint256",
          "name": "",
          "type": "uint256"
        }
      ],
      "stateMutability": "view",
      "type": "function",
      "constant": true
    },
    {
      "inputs": [
        {
          "internalType": "uint256",
          "name": "gameID",
          "type": "uint256"
        }
      ],
      "name": "payStake",
      "outputs": [],
      "stateMutability": "payable",
      "type": "function",
      "payable": true
    },
    {
      "inputs": [
        {
          "internalType": "uint256",
          "name": "gameID",
          "type": "uint256"
        }
      ],
      "name": "declineStake",
      "outputs": [],
      "stateMutability": "nonpayable",
      "type": "function"
    },
    {
      "inputs": [
        {
          "internalType": "uint256",
          "name": "gameID",
          "type": "uint256"
        }
      ],
      "name": "checkGamePayable",
      "outputs": [
        {
          "internalType": "bool",
          "name": "",
          "type": "bool"
        }
      ],
      "stateMutability": "view",
      "type": "function",
      "constant": true
    },
    {
      "inputs": [
        {
          "internalType": "uint256",
          "name": "gameID",
          "type": "uint256"
        },
        {
          "internalType": "bytes32",
          "name": "boardRoot",
          "type": "bytes32"
        }
      ],
      "name": "PlaceShips",
      "outputs": [],
      "stateMutability": "nonpayable",
      "type": "function"
    },
    {
      "inputs": [
        {
          "internalType": "uint256",
          "name": "gameID",
          "type": "uint256"
        },
        {
          "internalType": "uint8",
          "name": "location",
          "type": "uint8"
        }
      ],
      "name": "FireTorpedo",
      "outputs": [],
      "stateMutability": "nonpayable",
      "type": "function"
    },
    {
      "inputs": [
        {
          "internalType": "uint256",
          "name": "gameID",
          "type": "uint256"
        },
        {
          "internalType": "uint8",
          "name": "location",
          "type": "uint8"
        },
        {
          "internalType": "bool",
          "name": "isHit",
          "type": "bool"
        },
        {
          "internalType": "bytes32",
          "name": "leaf",
          "type": "bytes32"
        },
        {
          "internalType": "bytes32[]",
          "name": "proof",
          "type": "bytes32[]"
        }
      ],
      "name": "ConfirmShot",
      "outputs": [],
      "stateMutability": "nonpayable",
      "type": "function"
    },
    {
      "inputs": [
        {
          "internalType": "uint8",
          "name": "tile",
          "type": "uint8"
        },
        {
          "internalType": "bool",
          "name": "ship",
          "type": "bool"
        }
      ],
      "name": "GenLeafNode",
      "outputs": [
        {
          "internalType": "bytes32",
          "name": "",
          "type": "bytes32"
        }
      ],
      "stateMutability": "pure",
      "type": "function",
      "constant": true
    },
    {
      "inputs": [
        {
          "internalType": "uint256",
          "name": "gameID",
          "type": "uint256"
        },
        {
          "internalType": "uint8[]",
          "name": "tiles",
          "type": "uint8[]"
        },
        {
          "internalType": "bool[]",
          "name": "ships",
          "type": "bool[]"
        },
        {
          "internalType": "bytes32[]",
          "name": "nodes",
          "type": "bytes32[]"
        },
        {
          "internalType": "bytes32[][]",
          "name": "proofs",
          "type": "bytes32[][]"
        },
        {
          "internalType": "bytes32",
          "name": "root",
          "type": "bytes32"
        }
      ],
      "name": "VerifyWinner",
      "outputs": [],
      "stateMutability": "nonpayable",
      "type": "function"
    },
    {
      "inputs": [
        {
          "internalType": "bytes32",
          "name": "node",
          "type": "bytes32"
        }
      ],
      "name": "echoNodeBytes",
      "outputs": [
        {
          "internalType": "bytes32",
          "name": "",
          "type": "bytes32"
        }
      ],
      "stateMutability": "pure",
      "type": "function",
      "constant": true
    },
    {
      "inputs": [
        {
          "internalType": "uint256",
          "name": "gameID",
          "type": "uint256"
        }
      ],
      "name": "AbandonGame",
      "outputs": [],
      "stateMutability": "nonpayable",
      "type": "function"
    },
    {
      "inputs": [
        {
          "internalType": "uint256",
          "name": "gameID",
          "type": "uint256"
        }
      ],
      "name": "WithdrawWinnings",
      "outputs": [],
      "stateMutability": "nonpayable",
      "type": "function"
    },
    {
      "inputs": [
        {
          "internalType": "uint256",
          "name": "gameID",
          "type": "uint256"
        }
      ],
      "name": "FoulAccusation",
      "outputs": [],
      "stateMutability": "nonpayable",
      "type": "function"
    },
    {
      "inputs": [
        {
          "internalType": "uint256",
          "name": "gameID",
          "type": "uint256"
        }
      ],
      "name": "CheckFoulTimer",
      "outputs": [],
      "stateMutability": "nonpayable",
      "type": "function"
    },
    {
      "inputs": [
        {
          "internalType": "uint256",
          "name": "gameID",
          "type": "uint256"
        },
        {
          "internalType": "enum Battleships.GameStates",
          "name": "state",
          "type": "uint8"
        },
        {
          "internalType": "address",
          "name": "winner",
          "type": "address"
        }
      ],
      "name": "ChangeState",
      "outputs": [],
      "stateMutability": "nonpayable",
      "type": "function"
    }
  ],
  "bytecode": "0x608060405234801561001057600080fd5b50600160248190556025556026805460ff196101003302166001600160a81b03199091161760051790556135a4806100496000396000f3fe60806040526004361061014b5760003560e01c80639a2b17be116100b6578063e0dd9bb41161006f578063e0dd9bb4146103f4578063e6f4a9b714610414578063efaa55a014610434578063f28ae7dd14610454578063f7b68ea914610474578063fba523b71461049457600080fd5b80639a2b17be146103075780639a7e4cea14610327578063aa3ee91514610354578063b549fe7014610374578063bd7c88f814610392578063dc4a3e95146103df57600080fd5b80636930aa4d116101085780636930aa4d1461021a578063699f5aeb1461024157806374f760e41461026f57806379fbd95d1461028f57806395287e96146102af57806399396b11146102cf57600080fd5b8063012b61f01461015057806307e79cb3146101855780630e37dcd0146101a757806316337b89146101ba5780632b170aac146101da5780633c2d3a88146101fa575b600080fd5b34801561015c57600080fd5b5061017061016b3660046130a4565b6104b4565b60405190151581526020015b60405180910390f35b34801561019157600080fd5b506101a56101a03660046130bd565b61052d565b005b6101a56101b53660046130a4565b6105b2565b3480156101c657600080fd5b506101a56101d536600461310f565b6108ae565b3480156101e657600080fd5b506101a56101f536600461313f565b610c1c565b34801561020657600080fd5b506101a56102153660046130a4565b610e5d565b34801561022657600080fd5b5061022f601481565b60405160ff909116815260200161017c565b34801561024d57600080fd5b5061026161025c3660046130a4565b610f51565b60405190815260200161017c565b34801561027b57600080fd5b506101a561028a3660046130a4565b610fb8565b34801561029b57600080fd5b506101a56102aa3660046131c0565b6110d1565b3480156102bb57600080fd5b506101a56102ca36600461323a565b611583565b3480156102db57600080fd5b506102ef6102ea36600461310f565b6118ef565b6040516001600160a01b03909116815260200161017c565b34801561031357600080fd5b506101a56103223660046130a4565b61197f565b34801561033357600080fd5b506103476103423660046130a4565b611bea565b60405161017c919061332a565b34801561036057600080fd5b5061026161036f3660046130a4565b611c22565b34801561038057600080fd5b5061026161038f3660046130a4565b90565b34801561039e57600080fd5b506102616103ad366004613352565b6040805160ff939093166020808501919091529115158382015280518084038201815260609093019052815191012090565b3480156103eb57600080fd5b5061022f600881565b34801561040057600080fd5b506101a561040f366004613389565b611c7a565b34801561042057600080fd5b506101a561042f3660046130a4565b611f3f565b34801561044057600080fd5b506101a561044f3660046130a4565b6121f0565b34801561046057600080fd5b506101a561046f36600461310f565b612468565b34801561048057600080fd5b506101a561048f3660046130a4565b61289a565b3480156104a057600080fd5b506102616104af3660046130a4565b612b90565b60008181526020819052604081205460ff1680156104e3575060008281526020819052604090206001015460ff165b8015610500575060008281526020819052604090206009015460ff165b156105205750600090815260208190526040902054610100900460ff1690565b506000919050565b919050565b60265461010090046001600160a01b0316331461054c5761054c6133cb565b6000838152602081905260409020601101805483919060ff1916600183600b81111561057a5761057a613314565b021790555060009283526020839052604090922060150180546001600160a01b0319166001600160a01b039093169290921790915550565b600081815260208190526040902054819060ff166105d2576105d26133cb565b60008281526020819052604090206001015482906001600160a01b03620100009091041633148061062357506000818152602081905260409020600901546001600160a01b03620100009091041633145b61062f5761062f6133cb565b8260038060008381526020819052604090206011015460ff16600b81111561065957610659613314565b14610666576106666133cb565b60008581526020819052604081206001019060080201546201000090046001600160a01b0316331480156106b05750600085815260208190526040902060010154610100900460ff165b806106fb57506000858152602081905260409020600901546201000090046001600160a01b0316331480156106fb5750600085815260208190526040902060090154610100900460ff165b1561071957604051635e558b2360e01b815260040160405180910390fd5b60008581526020819052604090206012015434146107655760008581526020819052604090819020601201549051633365c34560e11b8152600481019190915260240160405180910390fd5b60008581526020819052604081206001015481906201000090046001600160a01b0316330361079a57506000905060016107a2565b506001905060005b6000878152602081905260409020600190810183600281106107c6576107c66133b5565b6008020180549115156101000261ff00199092169190911790556107e987612c33565b604080518881523360208201527f95ddb9abe17699603c18cef7bcfd33947d19c8eb237e01edac0bd509b481339e910160405180910390a160008781526020819052604090206001018160028110610843576108436133b5565b6008020154610100900460ff16156108a55760008781526020818152604091829020601101805460ff1916600417905590518881527ff751b3d5e96ffa95a434b79874df7e232b82d5c688a5d61fd7b5c5ce8724712791015b60405180910390a15b50505050505050565b600082815260208190526040902054829060ff166108ce576108ce6133cb565b60008381526020819052604090206001015483906001600160a01b03620100009091041633148061091f57506000818152602081905260409020600901546001600160a01b03620100009091041633145b61092b5761092b6133cb565b8360018060008381526020819052604090206011015460ff16600b81111561095557610955613314565b14610962576109626133cb565b600086815260208190526040812081906001018160080201546201000090046001600160a01b0316331461099a5760019150816109a0565b60009150815b5060008881526020819052604081206001019060080201546201000090046001600160a01b031633146109d657506000806109db565b506001805b50600088815260208190526040902060010182600281106109fe576109fe6133b5565b60080201600201546000801b14610a1457600080fd5b601f805460ff191660011781556014602055610a316008806133f7565b60ff1660215560005b610a456008806133f7565b60ff16811015610a9657600060228260408110610a6457610a646133b5565b602091828204019190066101000a81548160ff0219169083151502179055508080610a8e9061341a565b915050610a3a565b50600089815260208190526040902081906001018460028110610abb57610abb6133b5565b8254600891909102919091016003818101805460ff191660ff90941615159390931783556001840154600483015560028401546005830155610b04916006019084016040612e4c565b505050600089815260208190526040902088906001018460028110610b2b57610b2b6133b5565b6008020160020155604080518a81523360208201527fde8cdabe60db81138d1e5580b73440f47ba010dbd18575d18bad0b750987001e910160405180910390a160008981526020819052604090206001018260028110610b8d57610b8d6133b5565b60080201600201546000801b14610c115760008981526020818152604091829020601181018054600260ff199091161790556001015482518c8152620100009091046001600160a01b031691810191909152338183015290517fdf72bd9cb04731c1dfa0832a380e56504fda45508a7305083a9be0f343e934219181900360600190a15b505050505050505050565b602480549081906000610c2e8361341a565b90915550506017805461ff001960ff1962010000338102821661ff01600160b01b03199094169390931760019081178381168087556002805462010000600160b01b031961ffff1990911660ff94851615159097169690961761010080840485161515021795909516908690046001600160a01b0316909502949094178355601854600355601954600455601a80546005805490941695161515949094178255601b54600655601c546007559392839291610ced6008601d6040612e4c565b5050505060118301805460ff1990811690915560148401805460ff60a01b1916600160a01b88151502179055835461ffff1990811660019081178655600087815260208190526040902080549384168217815586549390921660ff61010094859004161515909302929092178217815584925090610d72908281019084016002612e8f565b50601182810154908201805460ff9092169160ff1916600183600b811115610d9c57610d9c613314565b021790555060128281015490820155601380830154908201556014808301805491830180546001600160a01b03198082166001600160a01b039586169081178455935460ff600160a01b91829004161515026001600160a81b03199092169093171790556015938401549390920180549092169216919091179055604080513081523360208201529081018490527f1edfba130181c8da1b98834639c59b5287912fcc01104c5a7a6e6c8cd194e3029060600160405180910390a150505050565b600081815260208190526040902054819060ff16610e7d57610e7d6133cb565b60008281526020819052604090206001015482906001600160a01b036201000090910416331480610ece57506000818152602081905260409020600901546001600160a01b03620100009091041633145b610eda57610eda6133cb565b6000838152602081905260409020601401546001600160a01b0316610efe57600080fd5b602654610f0e9060ff1643613433565b6000848152602081905260409020601301541015610f4c57600083815260208190526040902060140154610f4c9084906001600160a01b0316612cce565b505050565b60008181526020819052604081205460ff168015610f80575060008281526020819052604090206001015460ff165b8015610f9d575060008281526020819052604090206009015460ff165b15610520575060009081526020819052604090206012015490565b600081815260208190526040902054819060ff16610fd857610fd86133cb565b60008281526020819052604090206015015482906001600160a01b03163314611003576110036133cb565b8260098060008381526020819052604090206011015460ff16600b81111561102d5761102d613314565b1461103a5761103a6133cb565b600085815260208190526040812060120154611057906002613446565b600087815260208190526040808220601101805460ff1916600a1790555191925090339083908381818185875af1925050503d80600081146110b5576040519150601f19603f3d011682016040523d82523d6000602084013e6110ba565b606091505b50509050806110c857600080fd5b6108a587612d1c565b60008681526020819052604090205460ff166110ef576110ef6133cb565b6110fa6008806133f7565b60ff168560ff161061110e5761110e6133cb565b60008681526020819052604090206001015433620100009091046001600160a01b0316036111715760075b60008781526020819052604090206011015460ff16600b81111561115f5761115f613314565b1461116c5761116c6133cb565b6111a8565b60008681526020819052604090206009015433620100009091046001600160a01b0316036111a0576005611139565b6111a86133cb565b60006111b387612bdb565b6040805160ff8916602080830191909152881515828401528251808303840181526060909201909252805191012090915084146111f2576111f26133cb565b6000878152602081905260409020815173__Merkle________________________________91637ffe9d8c918691869160019091019060028110611238576112386133b5565b6008020160020154886040518563ffffffff1660e01b8152600401611260949392919061345d565b602060405180830381865af415801561127d573d6000803e3d6000fd5b505050506040513d601f19601f820116820180604052508101906112a191906134a3565b1561152a576112af87612c33565b84156114635760008781526020818152604090912090820151600190910190600281106112de576112de6133b5565b600802016003016003018660ff16604081106112fc576112fc6133b5565b602081049091015460ff601f9092166101000a90041661146357600087815260208181526040909120908201516001909101906002811061133f5761133f6133b5565b60080201600301600101600081548092919061135a906134c0565b9091555050600087815260208190526040902060019081018282602002015160028110611389576113896133b5565b600802016003016003018760ff16604081106113a7576113a76133b5565b602091828204019190066101000a81548160ff021916908315150217905550600080888152602001908152602001600020600101816001600281106113ee576113ee6133b5565b602002015160028110611403576114036133b5565b6008020160030160010154600003611463576000878152602081815260409091209082015161145d91899160019091019060028110611444576114446133b5565b60080201546201000090046001600160a01b0316612cce565b5061157b565b600560008881526020819052604090206011015460ff16600b81111561148b5761148b613314565b146114b4576000878152602081905260409020601101805460ff191660049081179091556114d4565b6000878152602081905260409020601101805460ff191660069081179091555b506040805188815260ff88166020820152861515818301526001606082015233608082015290517f5daf1a84388bd8a6d3801b570a2f677e0915dd586765606221fbc8516e99ca2d9181900360a00190a16108a5565b6040805188815260ff8816602082015286151591810191909152600060608201523360808201527f5daf1a84388bd8a6d3801b570a2f677e0915dd586765606221fbc8516e99ca2d9060a00161089c565b505050505050565b60008a81526020819052604081205460ff166115a1576115a16133cb565b600860008c81526020819052604090206011015460ff16600b8111156115c9576115c9613314565b146115d6576115d66133cb565b60008b815260208190526040902060018101546015909101546001600160a01b0362010000909204821691160361160f57506000611613565b5060015b60008b8152602081905260409020601501546001600160a01b0316331461163c5761163c6133cb565b60008b8152602081905260409020600101816002811061165e5761165e6133b5565b60080201600201548214611674576116746133cb565b61167f6008806133f7565b60ff168914611690576116906133cb565b61169b6008806133f7565b60ff1687146116ac576116ac6133cb565b6000805b6116bb6008806133f7565b60ff168160ff1610156118615789898260ff168181106116dd576116dd6133b5565b90506020020160208101906116f2919061313f565b156117055781611701816134d7565b9250505b61175c8c8c8360ff1681811061171d5761171d6133b5565b905060200201602081019061173291906134f6565b8b8b8460ff16818110611747576117476133b5565b90506020020160208101906103ad919061313f565b88888360ff16818110611771576117716133b5565b9050602002013514611785576117856133cb565b73__Merkle________________________________637ffe9d8c87878460ff168181106117b4576117b46133b5565b90506020028101906117c69190613511565b878c8c8760ff168181106117dc576117dc6133b5565b905060200201356040518563ffffffff1660e01b8152600401611802949392919061345d565b602060405180830381865af415801561181f573d6000803e3d6000fd5b505050506040513d601f19601f8201168201806040525081019061184391906134a3565b61184f5761184f6133cb565b80611859816134d7565b9150506116b0565b5060ff8116601414611875576118756133cb565b60008c8152602081905260409020805461010061ff0019909116178155601101805460ff191660091790556118a98c612c33565b604080518d81523360208201527fc2815c82adc4278d6e044948482e0d16acf9a6369fc96eff02ffc7e7cd5f39d0910160405180910390a1505050505050505050505050565b60008281526020819052604081205460ff16801561193357506000838152602081905260409020600101826002811061192a5761192a6133b5565b600802015460ff165b15611975576000838152602081905260409020600101826002811061195a5761195a6133b5565b60080201546201000090046001600160a01b03169050611979565b5060005b92915050565b600081815260208190526040902054819060ff1661199f5761199f6133cb565b60008281526020819052604090206001015482906001600160a01b0362010000909104163314806119f057506000818152602081905260409020600901546001600160a01b03620100009091041633145b6119fc576119fc6133cb565b6000838152602081905260408120600101546201000090046001600160a01b03163303611a2b57506001611a2f565b5060005b60008481526020819052604090206001018160028110611a5157611a516133b5565b6008020154610100900460ff168015611aa257506000848152602081905260409020600190810190611a8490839061355b565b60028110611a9457611a946133b5565b6008020154610100900460ff165b15611ad4576000848152602081905260409020611acf9085906001018360028110611444576114446133b5565b611be4565b60008481526020819052604090206001018160028110611af657611af66133b5565b6008020154610100900460ff1615611ba85760008481526020819052604081206001018260028110611b2a57611b2a6133b5565b600802015460008681526020819052604090819020601201549051620100009092046001600160a01b03169160006040518083038185875af1925050503d8060008114611b93576040519150601f19603f3d011682016040523d82523d6000602084013e611b98565b606091505b5050905080611ba657600080fd5b505b6040518481527fce24807f7e4b60b4e641462f13029fa5e5f79075bbc3f8e5cd43ecd19661d7609060200160405180910390a1611be484612d1c565b50505050565b60008181526020819052604081205460ff1615611c1a575060009081526020819052604090206011015460ff1690565b50600b919050565b60008181526020819052604081205460ff168015611c51575060008281526020819052604090206009015460ff165b156105205760008281526020819052604090206001908101905b60080201600101549050919050565b600082815260208190526040902054829060ff16611c9a57611c9a6133cb565b60008381526020819052604090206001015483906001600160a01b036201000090910416331480611ceb57506000818152602081905260409020600901546001600160a01b03620100009091041633145b611cf757611cf76133cb565b82611d036008806133f7565b60ff168160ff1610611d1757611d176133cb565b8460046000611d2583612bdb565b9050600482600b811115611d3b57611d3b613314565b03611d9a578051600003611d935781600b811115611d5b57611d5b613314565b60008481526020819052604090206011015460ff16600b811115611d8157611d81613314565b14611d8e57611d8e6133cb565b611ddd565b6006611d5b565b600782600b811115611dae57611dae613314565b03611dd5578051600003611dce5781600b811115611d5b57611d5b613314565b6005611d5b565b611ddd6133cb565b50611de787612c33565b6000611df288612bdb565b9050600460008981526020819052604090206011015460ff16600b811115611e1c57611e1c613314565b14611e45576000888152602081905260409020601101805460ff19166007908117909155611e65565b6000888152602081905260409020601101805460ff191660059081179091555b506000888152602081905260409020815160019091019060028110611e8c57611e8c6133b5565b600802016003016002016000815480929190611ea7906134c0565b90915550506000888152602081905260409020815160019091019060028110611ed257611ed26133b5565b6008020160030160020154600003611ef357611eee8833612cce565b611f35565b6040805189815260ff89166020820152338183015290517f14ba1310e28cb93a7363176f97b4b776f03e7b3d2f8845631ff3fdecd770cc739181900360600190a15b5050505050505050565b600081815260208190526040902054819060ff16611f5f57611f5f6133cb565b60008281526020819052604090206001015482906001600160a01b036201000090910416331480611fb057506000818152602081905260409020600901546001600160a01b03620100009091041633145b611fbc57611fbc6133cb565b8260038060008381526020819052604090206011015460ff16600b811115611fe657611fe6613314565b14611ff357611ff36133cb565b60008581526020819052604081206001019060080201546201000090046001600160a01b03163314801561203d5750600085815260208190526040902060010154610100900460ff165b8061208857506000858152602081905260409020600901546201000090046001600160a01b0316331480156120885750600085815260208190526040902060090154610100900460ff165b156120a657604051635e558b2360e01b815260040160405180910390fd5b60008581526020819052604081206001015481906201000090046001600160a01b031633036120db57506000905060016120e3565b506001905060005b60008781526020819052604090206001018160028110612105576121056133b5565b6008020154610100900460ff16156121b75760008781526020819052604081206001018260028110612139576121396133b5565b600802015460008981526020819052604090819020601201549051620100009092046001600160a01b03169160006040518083038185875af1925050503d80600081146121a2576040519150601f19603f3d011682016040523d82523d6000602084013e6121a7565b606091505b50509050806121b557600080fd5b505b6121c087612d1c565b6040518781527fce24807f7e4b60b4e641462f13029fa5e5f79075bbc3f8e5cd43ecd19661d7609060200161089c565b806000036122b557506025545b6024548110156122b55760008181526020819052604090205460ff161515600114801561224d575060008181526020819052604081206011015460ff16600b81111561224b5761224b613314565b145b801561227a57506000818152602081905260409020600101546001600160a01b0362010000909104163314155b801561229f5750600081815260208190526040902060140154600160a01b900460ff16155b6122b557806122ad8161341a565b9150506121fd565b60008181526020819052604090205460ff166122e457604051630251ee3760e01b815260040160405180910390fd5b60008181526020819052604081206011015460ff16600b81111561230a5761230a613314565b14612317576123176133cb565b612322816001613433565b6025556017805461ff001960ff1962010000338102821661ff01600160b01b03199094169390931760011782811685556000868152602081905260409081902060098101805480861660ff95861615159081178355895461ffff19909216971696909617610100968790048516151590960295909517808655875462010000600160b01b0319909116908790046001600160a01b0316909602959095178455601854600a860155601954600b860155601a8054600c8701805490951693161515929092178355601b54600d860155601c54600e860155859491929161240f91600f90910190601d90612e4c565b50505060008481526020818152604091829020601101805460ff1916600117905590518581527f972651cf62ccc65bd2ba0fd996eb34701d5773844d3303545d5b4cb29738f10493500190505b60405180910390a15050565b600082815260208190526040902054829060ff16612488576124886133cb565b60008381526020819052604090206001015483906001600160a01b0362010000909104163314806124d957506000818152602081905260409020600901546001600160a01b03620100009091041633145b6124e5576124e56133cb565b8360028060008381526020819052604090206011015460ff16600b81111561250f5761250f613314565b1461251c5761251c6133cb565b600086815260208181526040808320815161012081018352815460ff808216151583526101009091041615159381019390935281518083018352909183019060018301600286835b8282101561265f576040805160c081018252600884028601805460ff80821615158452610100820481161515602080860191909152620100009092046001600160a01b031684860152600183015460608086019190915260028401546080808701919091528651908101875260038501805490931615158152600485015493810193909352600584015483870152855161080081018088529596949560a0880195928501926006880191826000855b825461010083900a900460ff1615158152602060019283018181049485019490930390920291018084116126135790505050505050815250508152505081526020019060010190612564565b50505090825250601182015460209091019060ff16600b81111561268557612685613314565b600b81111561269657612696613314565b815260128201546020820152601382015460408083019190915260148301546001600160a01b038082166060850152600160a01b90910460ff161515608084015260159093015490921660a0909101528101519091506000908190816020020151604001516001600160a01b03163303612716575060019050600061271e565b506000905060015b600083604001518360028110612736576127366133b5565b6020020151606001519050886000808c81526020019081526020016000206001018360028110612768576127686133b5565b60080201600101819055508060001415801561278357508881145b156128125760008a81526020818152604091829020601281018c9055601101805460ff191660031790558582015180518301519082015183015183518e81526001600160a01b03928316938101939093521681830152606081018b905290517fa63491c3e48c84a30c1a58128201bca4fd87bb84850cda339020ce19051e5a90916080908290030190a161288e565b7f4adf94e8b5302c48b3df6533aa17748538d68a74af46f0a894839b61fbf3f1bf8a338660400151866002811061284b5761284b6133b5565b6020020151604001518c60405161288594939291909384526001600160a01b03928316602085015291166040830152606082015260800190565b60405180910390a15b50505050505050505050565b600081815260208190526040902054819060ff166128ba576128ba6133cb565b6000828152602081905260408120600101546201000090046001600160a01b031633036128e957506000612914565b6000838152602081905260409020600901546201000090046001600160a01b03163303612914575060015b600660008481526020819052604090206011015460ff16600b81111561293c5761293c613314565b148061296d5750600560008481526020819052604090206011015460ff16600b81111561296b5761296b613314565b145b15612985578015612980576129806133cb565b612ab9565b600460008481526020819052604090206011015460ff16600b8111156129ad576129ad613314565b14806129de5750600760008481526020819052604090206011015460ff16600b8111156129dc576129dc613314565b145b156129f35780600114612980576129806133cb565b600360008481526020819052604090206011015460ff16600b811115612a1b57612a1b613314565b03612a5b5760008381526020819052604090206001018160028110612a4257612a426133b5565b6008020154610100900460ff16612980576129806133cb565b600860008481526020819052604090206011015460ff16600b811115612a8357612a83613314565b03612ab1576000838152602081905260409020601501546001600160a01b03163303612980576129806133cb565b612ab96133cb565b6000838152602081905260409020601401546001600160a01b031615612ade57600080fd5b60008381526020819052604090206014810180546001600160a01b031916331790554360138201557f0bf978ab2586eab9e083eec06f934bd39c6da770feb9502455f09c4cf17b1bec908490600190810190612b3b90859061355b565b60028110612b4b57612b4b6133b5565b600802015460008681526020818152604091829020601301548251948552620100009093046001600160a01b03169084015282015260600160405180910390a1505050565b60008181526020819052604081205460ff168015612bbf575060008281526020819052604090206001015460ff165b1561052057600082815260208190526040812060010190611c6b565b612be3612f81565b612beb612f81565b6000838152602081905260409020600101546201000090046001600160a01b03163303612c22576000815260016020820152611979565b600181526000602082015292915050565b6000818152602081905260409020601401546001600160a01b031615801590612c7657506000818152602081905260409020601401546001600160a01b03163314155b15612ccb57602654612c8b9060ff1643613433565b6000828152602081905260409020601301541115612cab57612cab6133cb565b600081815260208190526040902060140180546001600160a01b03191690555b50565b60008281526020819052604090206015810180546001600160a01b0384166001600160a01b031990911681179091556011909101805460ff19166008179055612d18908390612e0e565b5050565b600081815260208190526040812060048101805460ff1990811690915560058201839055600682018390556007820183905560088201839055600c820180549091169055600d8101829055600e8101829055600f8101829055601081018290556001810180546001600160b01b0319908116825560028301849055600383018490556009830180549091169055600a8201839055600b8201839055815461ffff19168255909190612dcd9082612f9f565b5060118101805460ff1916905560006012820181905560138201556014810180546001600160a81b031916905560150180546001600160a01b031916905550565b604080518381526001600160a01b03831660208201527fc53d54ea71e800bb40731cf938b78bbb3e167ca69808d9e2945e2f018b3c4067910161245c565b600283019183908215612e7f5791601f016020900482015b82811115612e7f578254825591600101919060010190612e64565b50612e8b92915061303b565b5090565b601083019183908215612f75579160080282015b82811115612f75578254825460ff918216151560ff1980831682178655865461010090819004851615150261ff001990921661ffff19909316929092171780855585546001600160a01b036201000091829004160262010000600160b01b031990911617845560018086015490850155600280860154908501556003808601805491860180549290941615159190921617825560048086015490850155600580860154908501558491849190612f6160068085019086016040612e4c565b505050505091600801919060080190612ea3565b50612e8b929150613050565b60405180604001604052806002906020820280368337509192915050565b5080546001600160b01b03191681556000600182018190556002820181905560038201805460ff191681556004830182905560058301829055600683018290556007830182905550506008810180546001600160b01b0319168155600060098301819055600a8301819055600b8301805460ff19168155600c8401829055600d8401829055600e8401829055600f909301819055909181611be4565b5b80821115612e8b576000815560010161303c565b80821115612e8b5780546001600160b01b03191681556000600182018190556002820181905560038201805460ff191690556004820181905560058201819055600682018190556007820155600801613050565b6000602082840312156130b657600080fd5b5035919050565b6000806000606084860312156130d257600080fd5b833592506020840135600c81106130e857600080fd5b915060408401356001600160a01b038116811461310457600080fd5b809150509250925092565b6000806040838503121561312257600080fd5b50508035926020909101359150565b8015158114612ccb57600080fd5b60006020828403121561315157600080fd5b813561315c81613131565b9392505050565b803560ff8116811461052857600080fd5b60008083601f84011261318657600080fd5b50813567ffffffffffffffff81111561319e57600080fd5b6020830191508360208260051b85010111156131b957600080fd5b9250929050565b60008060008060008060a087890312156131d957600080fd5b863595506131e960208801613163565b945060408701356131f981613131565b935060608701359250608087013567ffffffffffffffff81111561321c57600080fd5b61322889828a01613174565b979a9699509497509295939492505050565b60008060008060008060008060008060c08b8d03121561325957600080fd5b8a35995060208b013567ffffffffffffffff8082111561327857600080fd5b6132848e838f01613174565b909b50995060408d013591508082111561329d57600080fd5b6132a98e838f01613174565b909950975060608d01359150808211156132c257600080fd5b6132ce8e838f01613174565b909750955060808d01359150808211156132e757600080fd5b506132f48d828e01613174565b9150809450508092505060a08b013590509295989b9194979a5092959850565b634e487b7160e01b600052602160045260246000fd5b60208101600c831061334c57634e487b7160e01b600052602160045260246000fd5b91905290565b6000806040838503121561336557600080fd5b61336e83613163565b9150602083013561337e81613131565b809150509250929050565b6000806040838503121561339c57600080fd5b823591506133ac60208401613163565b90509250929050565b634e487b7160e01b600052603260045260246000fd5b634e487b7160e01b600052600160045260246000fd5b634e487b7160e01b600052601160045260246000fd5b60ff8181168382160290811690818114613413576134136133e1565b5092915050565b60006001820161342c5761342c6133e1565b5060010190565b80820180821115611979576119796133e1565b8082028115828204841417611979576119796133e1565b6060808252810184905260006001600160fb1b0385111561347d57600080fd5b8460051b8087608085013760208301949094525060408101919091520160800192915050565b6000602082840312156134b557600080fd5b815161315c81613131565b6000816134cf576134cf6133e1565b506000190190565b600060ff821660ff81036134ed576134ed6133e1565b60010192915050565b60006020828403121561350857600080fd5b61315c82613163565b6000808335601e1984360301811261352857600080fd5b83018035915067ffffffffffffffff82111561354357600080fd5b6020019150600581901b36038213156131b957600080fd5b81810381811115611979576119796133e156fea2646970667358221220c6938c63a301fcc8053e53c3bb722bc4b5e7cdb4dc2d45ed3b74f58657a0591b64736f6c63430008130033",
  "immutableReferences": {},
  "source": "// SPDX-License-Identifier: MIT\r\npragma solidity >=0.4.22 <0.9.0;\r\n\r\nimport { Merkle } from \"./Merkle.sol\";\r\n\r\ncontract Battleships {\r\n    uint8 public constant NUMBER_OF_SHIP_SQUARES = 20;\r\n    uint8 public constant BOARD_SIZE = 8;\r\n    enum GameStates{\r\n        WAITING, \r\n        PLACING_SHIPS, \r\n        SETTING_STAKE, \r\n        ACCEPTING_PAYMENT,\r\n        P0_FIRING,\r\n        P1_CHECKING,\r\n        P1_FIRING,\r\n        P0_CHECKING,\r\n        CHECKING_WINNER,\r\n        PAYABLE,\r\n        DONE,\r\n        NONE\r\n    }\r\n\r\n    // In this struct we save the view a player has of its opponent's board\r\n    struct Board{\r\n        bool valid;\r\n        // N*N matrix of bits to store hits\r\n        // bool[BOARD_SIZE][BOARD_SIZE] shots;\r\n        // # of enemy pieces still left on the board\r\n        // goes down by one each time we receive one 'you hit' event\r\n        uint totalPieces;\r\n        // 8*8, we use this to avoid cheating\r\n        uint totalShots;\r\n        bool[BOARD_SIZE*BOARD_SIZE] board; \r\n    }\r\n\r\n    struct Player{\r\n        bool valid;\r\n        bool hasPaidStake;\r\n        address playerAddress;\r\n        uint proposedStake;\r\n        bytes32 boardTreeRoot;\r\n        Board shots_board;\r\n    }\r\n\r\n    struct Game{\r\n        bool valid;\r\n        bool canPay;\r\n        // host is always player[0]\r\n        Player[2] players;\r\n        GameStates state;\r\n        uint decidedStake;\r\n        // used for foul accusation, a foul is triggered after 5 blocks\r\n        uint blockNumber;\r\n        // player 0 or player 1\r\n        // might turn it into address, we will see\r\n        address accuser;\r\n        // whether or not this game should be in the public pool of joinable games\r\n        bool privateGame;\r\n        address winner;\r\n    }\r\n\r\n    mapping(uint => Game) private openGames;\r\n\r\n    Game private gameTrampoline;\r\n    Player private playerTrampoline;\r\n    Board private trampolineBoard;\r\n    // used in generating UUIDs for the games\r\n    // for now we are gonna use this as-is\r\n    // start at 1 as 0 is used for a non-existing game\r\n    // we just don't deal with it overflowing because it's realistically impossible\r\n    uint private gameCounter;\r\n    uint private lastOpenGame;\r\n    uint8 private foulBlockLen;\r\n    address private owner;\r\n\r\n    constructor() {\r\n        gameCounter = 1;\r\n        lastOpenGame = 1;\r\n        owner = msg.sender;\r\n        // this could be passed as parameter\r\n        foulBlockLen = 5;\r\n    }\r\n\r\n    event ShareID(address _from, address _to, uint _gameID);\r\n    event GameStart(uint _gameID, address _host, address _challenger);\r\n    event SuggestedStake(uint _gameID, address _from, address _to, uint _stakeValue);\r\n    event GamePayable(uint _gameID, address _host, address _challenger, uint _stakeValue);\r\n    event StakePaid(uint _gameID, address _whoPaid);\r\n    event AcceptingBoards(uint _gameID);\r\n    event BoardAcknowledgeEvent(uint _gameID, address _player);\r\n    event PlayerZeroTurn(uint _gameID);\r\n    event ShotsFired(uint _gameID, uint8 _location, address _from);\r\n    event ShotsChecked(uint _gameID, uint8 _location, bool _claim, bool _validity, address _from);\r\n    event RequestBoard(uint _gameID, address _winner);\r\n    event Victory(uint _gameID, address _winner);\r\n    event Foul(uint _gameID, address _accused, uint _block);\r\n    event GameEnded(uint _gameID);\r\n\r\n    error NoOpenGames();\r\n    error InvalidGameID();\r\n    error NotInGame();\r\n    error StakeAlreadyDeposited();\r\n    error WrongStakeAmount(uint expectedStakeValue);\r\n\r\n    modifier gameExists(uint gameID){\r\n        assert(openGames[gameID].valid);\r\n        _;\r\n    }\r\n\r\n    modifier isInGame(uint gameID){\r\n        assert((openGames[gameID].players[0].playerAddress == msg.sender) || (openGames[gameID].players[1].playerAddress == msg.sender));\r\n        _;\r\n    }\r\n\r\n    modifier assertState(uint gameID, GameStates _state){\r\n        if(_state != GameStates.P0_FIRING && _state != GameStates.P1_FIRING && _state != GameStates.P0_CHECKING && _state != GameStates.P1_CHECKING)\r\n            assert(openGames[gameID].state == _state);\r\n        else{\r\n            // We check firing states with P0_FIRING and checking states with P0_CHECKING, for both players\r\n            uint[2] memory indexes = getIndexSender(gameID);\r\n            if(_state == GameStates.P0_FIRING){\r\n                if(indexes[0] == 0)\r\n                    assert(openGames[gameID].state == _state);\r\n                else\r\n                    assert(openGames[gameID].state == GameStates.P1_FIRING);\r\n            }\r\n            else if(_state == GameStates.P0_CHECKING){\r\n                if(indexes[0] == 0)\r\n                    assert(openGames[gameID].state == _state);\r\n                else\r\n                    assert(openGames[gameID].state == GameStates.P1_CHECKING);\r\n            }\r\n            else assert(false);\r\n        }\r\n        _;\r\n    }\r\n\r\n    modifier playerInRange(uint gameID, uint index){\r\n        assert(openGames[gameID].players[index].valid);\r\n        assert(index < openGames[gameID].players.length);\r\n        _;\r\n    }\r\n\r\n    modifier shotOnBoard(uint8 location){\r\n        assert(location < (BOARD_SIZE*BOARD_SIZE));\r\n        _;\r\n    }\r\n\r\n    modifier isWinner(uint gameID){\r\n        assert(openGames[gameID].winner == msg.sender);\r\n        _;\r\n    }\r\n\r\n    function getIndexSender (uint gameID) view private returns(uint[2] memory) {\r\n        // indexes[0]: msg.sender index\r\n        // indexes[1]: msg.sender opponent's index\r\n        uint[2] memory indexes;\r\n        if(msg.sender == openGames[gameID].players[0].playerAddress){\r\n            indexes[0] = 0;\r\n            indexes[1] = 1;\r\n        } else {\r\n            indexes[0] = 1;\r\n            indexes[1] = 0;\r\n        }\r\n        return indexes;\r\n    }\r\n\r\n    // create a Game value, add it to openGames, populate the Player[0]\r\n    function newGame(bool isPrivate) public {\r\n        uint gameID = gameCounter;\r\n        gameCounter++;\r\n        Game storage game = gameTrampoline;\r\n        Player storage host = playerTrampoline;\r\n        host.playerAddress = msg.sender;\r\n        host.valid = true;\r\n        host.hasPaidStake = false;\r\n        game.players[0] = host;\r\n        game.state = GameStates.WAITING;\r\n        game.privateGame = isPrivate;\r\n        game.valid = true;\r\n        game.canPay = false;\r\n        openGames[gameID] = game;\r\n        emit ShareID(address(this), msg.sender, gameID);\r\n        return;\r\n    }\r\n    \r\n    function joinGame(uint gameID) public {\r\n        if(gameID == 0){\r\n            // pick an unassigned game in sequential order\r\n            gameID = lastOpenGame;\r\n            while (gameID < gameCounter){\r\n                // ignore games with sender as host (you can still join your own games directly if you're that lonely)\r\n                if(openGames[gameID].valid == true && \r\n                    openGames[gameID].state == GameStates.WAITING && \r\n                    openGames[gameID].players[0].playerAddress != msg.sender && \r\n                    !openGames[gameID].privateGame){\r\n                    break;\r\n                }\r\n                gameID++;\r\n            }\r\n        }\r\n        // if the game wasn't valid, throw an error\r\n        if(!openGames[gameID].valid)\r\n            revert NoOpenGames();\r\n\r\n        assert(openGames[gameID].state == GameStates.WAITING);\r\n\r\n        // update the lastOpenGame counter no matter what\r\n        lastOpenGame = gameID + 1;\r\n        // set msg sender as this game's player 2\r\n        Player storage challenger = playerTrampoline;\r\n        challenger.playerAddress = msg.sender;\r\n        challenger.valid = true;\r\n        challenger.hasPaidStake = false;\r\n        openGames[gameID].players[1] = challenger;\r\n        // update this game's status\r\n        openGames[gameID].state = GameStates.PLACING_SHIPS;\r\n        // alert the players\r\n        emit AcceptingBoards(gameID);\r\n        return;\r\n    }\r\n\r\n    function checkGameState(uint gameID) public view returns (GameStates) {\r\n        if (openGames[gameID].valid){\r\n            return openGames[gameID].state;\r\n        }\r\n        else \r\n            return(GameStates.NONE);\r\n    }\r\n\r\n    function checkGamePlayer(uint gameID, uint index) public view returns (address) {\r\n        if (openGames[gameID].valid && openGames[gameID].players[index].valid){\r\n            return openGames[gameID].players[index].playerAddress;\r\n        }\r\n        else \r\n            return(address(0));\r\n    }\r\n\r\n    // Function to propose and agree upon a stake between players\r\n    function proposeStake(uint gameID, uint stakeValue) gameExists(gameID) isInGame(gameID) assertState(gameID, GameStates.SETTING_STAKE) public{\r\n        Game memory game = openGames[gameID];\r\n        // Check whether or not this player's opponent has already proposed a stake\r\n        uint opponentIndex;\r\n        uint stakerIndex;\r\n        if(msg.sender == game.players[0].playerAddress){\r\n            opponentIndex = 1;\r\n            stakerIndex = 0;\r\n        } else {\r\n            opponentIndex = 0;\r\n            stakerIndex = 1;\r\n        }\r\n        uint opponentStake = game.players[opponentIndex].proposedStake;\r\n        // set this player's proposed stake to their message\r\n        openGames[gameID].players[stakerIndex].proposedStake = stakeValue;\r\n        // if the opponent has proposed a stake we check whether or not it equals the one proposed by us\r\n        // 0 is not a valid stake\r\n        if(opponentStake != 0 && opponentStake == stakeValue){\r\n            openGames[gameID].decidedStake = stakeValue;\r\n            openGames[gameID].state = GameStates.ACCEPTING_PAYMENT;\r\n            emit GamePayable(gameID, game.players[0].playerAddress, game.players[1].playerAddress, stakeValue);\r\n        }else{\r\n            emit SuggestedStake(gameID, msg.sender, game.players[opponentIndex].playerAddress, stakeValue);\r\n        }\r\n        return;\r\n    }\r\n\r\n    function checkStakePlayerOne(uint gameID) public view returns (uint) {\r\n        if (openGames[gameID].valid && openGames[gameID].players[0].valid){\r\n            return openGames[gameID].players[0].proposedStake;\r\n        }\r\n        else \r\n            return(0);\r\n    }\r\n\r\n    function checkStakePlayerTwo(uint gameID) public view returns (uint) {\r\n        if (openGames[gameID].valid && openGames[gameID].players[1].valid){\r\n            return openGames[gameID].players[1].proposedStake;\r\n        }\r\n        else \r\n            return(0);\r\n    }\r\n\r\n    function checkStakeGame(uint gameID) public view returns (uint) {\r\n        if (openGames[gameID].valid && openGames[gameID].players[0].valid && openGames[gameID].players[1].valid)\r\n            return openGames[gameID].decidedStake;\r\n        else\r\n            return(0);\r\n    }\r\n    \r\n    function payStake(uint gameID) gameExists(gameID) isInGame(gameID) assertState(gameID, GameStates.ACCEPTING_PAYMENT) external payable {\r\n        if((msg.sender == openGames[gameID].players[0].playerAddress && openGames[gameID].players[0].hasPaidStake) ||\r\n            (msg.sender == openGames[gameID].players[1].playerAddress && openGames[gameID].players[1].hasPaidStake))\r\n            revert StakeAlreadyDeposited();\r\n        // only accept payments for the exact amount owed\r\n        if(msg.value != openGames[gameID].decidedStake)\r\n            revert WrongStakeAmount(openGames[gameID].decidedStake);\r\n        // now we check who the sender is\r\n        uint senderIndex;\r\n        uint challengerIndex;\r\n        if(msg.sender == openGames[gameID].players[0].playerAddress){\r\n            senderIndex = 0;\r\n            challengerIndex = 1;\r\n        }else{\r\n            senderIndex = 1;\r\n            challengerIndex = 0;\r\n        }\r\n        openGames[gameID].players[senderIndex].hasPaidStake = true;\r\n        // Clear possible foul\r\n        ClearFoul(gameID);\r\n        emit StakePaid(gameID, msg.sender);\r\n        // if both players have paid the owed stake the game can move on to its next state\r\n        if(openGames[gameID].players[challengerIndex].hasPaidStake){\r\n            openGames[gameID].state = GameStates.P0_FIRING;\r\n            emit PlayerZeroTurn(gameID);\r\n        }\r\n    }\r\n\r\n    function deleteGame(uint gameID) internal{ \r\n        delete openGames[gameID].players[0].shots_board;\r\n        delete openGames[gameID].players[1].shots_board;\r\n        delete openGames[gameID].players[0];\r\n        delete openGames[gameID].players[1];\r\n        delete openGames[gameID];\r\n    }\r\n\r\n    function declineStake(uint gameID) gameExists(gameID) isInGame(gameID) assertState(gameID, GameStates.ACCEPTING_PAYMENT) external {\r\n        // if this player has already paid the stake, they can't decline it\r\n        if((msg.sender == openGames[gameID].players[0].playerAddress && openGames[gameID].players[0].hasPaidStake) ||\r\n            (msg.sender == openGames[gameID].players[1].playerAddress && openGames[gameID].players[1].hasPaidStake))\r\n            revert StakeAlreadyDeposited();\r\n        // now we check who the sender is\r\n        uint senderIndex;\r\n        uint challengerIndex;\r\n        if(msg.sender == openGames[gameID].players[0].playerAddress){\r\n            senderIndex = 0;\r\n            challengerIndex = 1;\r\n        }else{\r\n            senderIndex = 1;\r\n            challengerIndex = 0;\r\n        }\r\n        // check if the opponent has already paid its stake\r\n        if(openGames[gameID].players[challengerIndex].hasPaidStake){\r\n            // if they have, we refund it\r\n            (bool success, ) = openGames[gameID].players[challengerIndex].playerAddress.call{value:openGames[gameID].decidedStake}(\"\");\r\n            require(success);\r\n        }\r\n        // then we delete the game\r\n        deleteGame(gameID);\r\n        emit GameEnded(gameID);\r\n    }\r\n    \r\n    function checkGamePayable(uint gameID) public view returns (bool) {\r\n        if (openGames[gameID].valid && openGames[gameID].players[0].valid && openGames[gameID].players[1].valid)\r\n            return openGames[gameID].canPay;\r\n        else\r\n            return(false);\r\n    }\r\n    \r\n    function PlaceShips(uint gameID, bytes32 boardRoot) gameExists(gameID) isInGame(gameID) assertState(gameID, GameStates.PLACING_SHIPS) public{\r\n        uint index;\r\n        uint oppIdx;\r\n        msg.sender == openGames[gameID].players[0].playerAddress ? index = 0 : index = 1;\r\n        msg.sender == openGames[gameID].players[0].playerAddress ? oppIdx = 1 : oppIdx = 0;\r\n        require(openGames[gameID].players[index].boardTreeRoot == 0x0);\r\n        // Instantiate a new shots board\r\n        // Instantiate the Board struct itself and assign it to a player\r\n        Board storage playerBoard = trampolineBoard;\r\n        trampolineBoard.valid = true;\r\n        trampolineBoard.totalPieces = NUMBER_OF_SHIP_SQUARES;\r\n        trampolineBoard.totalShots = (BOARD_SIZE*BOARD_SIZE);\r\n        for(uint i = 0; i < (BOARD_SIZE*BOARD_SIZE); i++){\r\n            trampolineBoard.board[i] = false;\r\n        }\r\n        openGames[gameID].players[index].shots_board = playerBoard;\r\n        // save the received boardRoot, finally\r\n        openGames[gameID].players[index].boardTreeRoot = boardRoot;\r\n        emit BoardAcknowledgeEvent(gameID, msg.sender);\r\n        if(openGames[gameID].players[oppIdx].boardTreeRoot != 0x0){\r\n            openGames[gameID].state = GameStates.SETTING_STAKE;\r\n            emit GameStart(gameID, openGames[gameID].players[0].playerAddress, msg.sender);\r\n        }\r\n    }\r\n\r\n    function TestWinner(uint gameID, address claimant) private {\r\n        openGames[gameID].winner = claimant;\r\n        openGames[gameID].state = GameStates.CHECKING_WINNER;\r\n        RequestWinnerBoard(gameID, openGames[gameID].winner);\r\n    }\r\n\r\n    // for info on what location is see \"Implementation of the user-side game board\" in README.md\r\n    function FireTorpedo(uint gameID, uint8 location) gameExists(gameID) isInGame(gameID) shotOnBoard(location) assertState(gameID, GameStates.P0_FIRING) public {\r\n        // if we got past the modifiers, this means the shot is valid\r\n        // let's clear any potential fouls for this user\r\n        ClearFoul(gameID);\r\n        uint[2] memory indexes = getIndexSender(gameID);\r\n        // Rotate into correct next state\r\n        openGames[gameID].state == GameStates.P0_FIRING ? openGames[gameID].state = GameStates.P1_CHECKING : openGames[gameID].state = GameStates.P0_CHECKING;\r\n        // Now for some game logic\r\n        // whatever happens, we lower the totalShots counter of our system by one\r\n        openGames[gameID].players[indexes[0]].shots_board.totalShots--;\r\n        // Then we evaluate whether or not this is zero. If it is, This party wins automatically.\r\n        // We do this here to avoid opponents stalling out on the reply for 5 blocks on what is a foregone conclusion\r\n        if (openGames[gameID].players[indexes[0]].shots_board.totalShots == 0){\r\n            TestWinner(gameID, msg.sender);\r\n        } else {\r\n            emit ShotsFired(gameID, location, msg.sender);\r\n        }\r\n    }\r\n\r\n    function ConfirmShot(uint gameID, uint8 location, bool isHit, bytes32 leaf, bytes32[] calldata proof) public {\r\n        // we assert manually rather than with modifiers to avoid a stack-too-deep error\r\n        assert(openGames[gameID].valid);\r\n        assert(location < (BOARD_SIZE*BOARD_SIZE));\r\n        if(openGames[gameID].players[0].playerAddress == msg.sender){\r\n            assert(openGames[gameID].state == GameStates.P0_CHECKING);\r\n        } else if (openGames[gameID].players[1].playerAddress == msg.sender){\r\n            assert(openGames[gameID].state == GameStates.P1_CHECKING);\r\n        } else {\r\n            assert(false);\r\n        }\r\n        uint[2] memory indexes = getIndexSender(gameID);\r\n        // make sure this node corresponds to the board tile and truth value we are checking\r\n        assert(leaf == GenLeafNode(location, isHit));\r\n        // execute the proof test\r\n        if(Merkle.verifyCalldata(proof, openGames[gameID].players[indexes[0]].boardTreeRoot, leaf)){\r\n            // if we got this far it means the reply is valid\r\n            // let's clear any potential fouls for this user\r\n            ClearFoul(gameID);\r\n            // we could verify this user's proof\r\n            if (isHit){\r\n                // decrement our opponent's view of our total pieces\r\n                // only if the shot landed on a previously undeclared tile\r\n                // alas this is needed as the user might just keep asking for the same time over and over\r\n                // I don't know why they would do this, but they can\r\n                if(!openGames[gameID].players[indexes[1]].shots_board.board[location]){\r\n                    openGames[gameID].players[indexes[1]].shots_board.totalPieces--;\r\n                    openGames[gameID].players[indexes[1]].shots_board.board[location] = true;\r\n                    // if this was our last piece, we lost\r\n                    if(openGames[gameID].players[indexes[1]].shots_board.totalPieces == 0){\r\n                        /*\r\n                        openGames[gameID].winner = openGames[gameID].players[indexes[1]].playerAddress;\r\n                        openGames[gameID].state = GameStates.CHECKING_WINNER;\r\n                        RequestWinnerBoard(gameID, openGames[gameID].winner);\r\n                        */\r\n                        TestWinner(gameID, openGames[gameID].players[indexes[1]].playerAddress);\r\n                        return;\r\n                    }\r\n                }   \r\n            }\r\n            // rotate state\r\n            openGames[gameID].state == GameStates.P1_CHECKING ? openGames[gameID].state = GameStates.P1_FIRING : openGames[gameID].state = GameStates.P0_FIRING;\r\n            emit ShotsChecked(gameID, location, isHit, true, msg.sender);\r\n        } else {\r\n            // else we emit a 'shot failed to validate' message\r\n            // keep in mind the foul for this user is NOT triggered automatically.\r\n            emit ShotsChecked(gameID, location, isHit, false, msg.sender);\r\n        }\r\n    }\r\n\r\n    // this function generates a node locally in the same way a client would generate it\r\n    // it could be internal, we keep it public for now for debug purposes\r\n    function GenLeafNode(uint8 tile, bool ship) pure public returns (bytes32) {\r\n        return keccak256(abi.encode(tile,ship));\r\n    }\r\n\r\n    // a player who sees their address here will need to call VerifyWinner\r\n    function RequestWinnerBoard(uint gameID, address winnerAddress) private {\r\n        emit RequestBoard(gameID, winnerAddress);\r\n    }\r\n\r\n    // sadly using our modifiers here runs into a stack too deep compilation issue\r\n    // ergo we must assert a few security values by hand\r\n    // yes, the 'tiles' array is completely useless but we will leave it there for now\r\n    // it could be useful for future expansions into 5d battleships\r\n    function VerifyWinner(\r\n    uint gameID,  \r\n    uint8[] calldata tiles,\r\n    bool[] calldata ships,\r\n    bytes32[] calldata nodes,\r\n    bytes32[][] calldata proofs,\r\n    bytes32 root\r\n    ) public {\r\n        uint winnerIndex;\r\n        assert(openGames[gameID].valid);\r\n        assert(openGames[gameID].state == GameStates.CHECKING_WINNER);\r\n        if(openGames[gameID].winner == openGames[gameID].players[0].playerAddress){\r\n            winnerIndex = 0;\r\n        } else {\r\n            winnerIndex = 1;\r\n        }\r\n        assert(openGames[gameID].winner == msg.sender);\r\n        assert(root == openGames[gameID].players[winnerIndex].boardTreeRoot);\r\n        assert(tiles.length == (BOARD_SIZE*BOARD_SIZE));\r\n        assert(ships.length == (BOARD_SIZE*BOARD_SIZE));\r\n        // First operation: make sure this board really has the required number of ships on it\r\n        // and make sure the winner didn't send us a different board\r\n        // in the same cycle, verify that the node is part of the tree\r\n        // we already made sure this root is the correct one\r\n        uint8 shipsTotal = 0;\r\n        for(uint8 i = 0; i < (BOARD_SIZE*BOARD_SIZE); i++){\r\n            if(ships[i])\r\n                shipsTotal++;\r\n            assert(nodes[i] == GenLeafNode(tiles[i], ships[i]));\r\n            assert(Merkle.verifyCalldata(proofs[i], root, nodes[i]));\r\n        }\r\n        assert(shipsTotal == NUMBER_OF_SHIP_SQUARES);\r\n        // we don't use a conditional branch to alert the other player, as a Foul has already been triggered.\r\n        openGames[gameID].canPay = true;\r\n        openGames[gameID].state = GameStates.PAYABLE;\r\n        ClearFoul(gameID);\r\n        emit Victory(gameID, msg.sender);\r\n    }\r\n\r\n    function echoNodeBytes(bytes32 node) public pure returns (bytes32) {\r\n        return node;\r\n    }\r\n\r\n    function AbandonGame(uint gameID) gameExists(gameID) isInGame(gameID) external {\r\n        // see if the game has a second player\r\n        uint opponentIndex;\r\n        if(msg.sender == openGames[gameID].players[0].playerAddress){\r\n            opponentIndex = 1;\r\n        } else {\r\n            opponentIndex = 0;\r\n        }\r\n        // check if both have paid the stake\r\n        if(openGames[gameID].players[opponentIndex].hasPaidStake && openGames[gameID].players[1 - opponentIndex].hasPaidStake){\r\n            // if they have, we declare the opponent the winner\r\n            TestWinner(gameID, openGames[gameID].players[opponentIndex].playerAddress);\r\n        } else {\r\n            // if only the opponent has paid the stake, we refund it\r\n            if(openGames[gameID].players[opponentIndex].hasPaidStake){\r\n                (bool success, ) = openGames[gameID].players[opponentIndex].playerAddress.call{value:openGames[gameID].decidedStake}(\"\");\r\n                require(success);\r\n            }\r\n            // this delition only happens in this branch as the game will be deleted normally from testwinner otherwise\r\n            emit GameEnded(gameID);\r\n            deleteGame(gameID);\r\n        } // we keep the stake if the user cancelling the game has paid it. If they want the stake back because their oppoent is afk they should declare a foul instead of cancelling\r\n    }\r\n\r\n    function WithdrawWinnings(uint gameID) gameExists(gameID) isWinner(gameID) assertState(gameID, GameStates.PAYABLE) external {\r\n        uint amountOwed = openGames[gameID].decidedStake*2;\r\n        openGames[gameID].state = GameStates.DONE;\r\n        (bool success, ) = msg.sender.call{value:amountOwed}(\"\");\r\n        require(success);\r\n        deleteGame(gameID);\r\n    }\r\n\r\n    // a player can accuse another player of being afk if they don't act within X blocks\r\n    // for this to happen, the state has to be one they don't control\r\n    function FoulAccusation(uint gameID) gameExists(gameID) public {\r\n        uint senderIndex;\r\n        if(msg.sender == openGames[gameID].players[0].playerAddress)\r\n            senderIndex = 0;\r\n        else if (msg.sender == openGames[gameID].players[1].playerAddress)\r\n            senderIndex = 1;\r\n        // if the game is stuck waiting on Player 1, only accept accusations from Player 0\r\n        if(openGames[gameID].state == GameStates.P1_FIRING || openGames[gameID].state == GameStates.P1_CHECKING){\r\n            assert(senderIndex == 0);\r\n        // if the game is stuck waiting on Player 0, only accept accusations from Player 1\r\n        } else if (openGames[gameID].state == GameStates.P0_FIRING || openGames[gameID].state == GameStates.P0_CHECKING){\r\n            assert(senderIndex == 1);\r\n        } \r\n        // if the game is stuck accepting payments, only accept accusations by the side which hasn't paid yet\r\n        else if(openGames[gameID].state == GameStates.ACCEPTING_PAYMENT){\r\n            assert(openGames[gameID].players[senderIndex].hasPaidStake);\r\n        }\r\n        // if the game is stuck checking the winner, because a user isn't providing their board, only accept fouls from the non-winner\r\n        else if(openGames[gameID].state == GameStates.CHECKING_WINNER)\r\n            assert(msg.sender != openGames[gameID].winner);\r\n        else {\r\n            assert(false);\r\n        }\r\n        \r\n        require(openGames[gameID].accuser == address(0));\r\n        // very important: this is the only place where accuser can be set to anything other than 0\r\n        openGames[gameID].accuser = msg.sender;\r\n        openGames[gameID].blockNumber = block.number;\r\n        emit Foul(gameID, openGames[gameID].players[1 - senderIndex].playerAddress, openGames[gameID].blockNumber);\r\n    }\r\n\r\n    function CheckFoulTimer(uint gameID) gameExists(gameID) isInGame(gameID) public {\r\n        require(openGames[gameID].accuser != address(0));\r\n        if(openGames[gameID].blockNumber < (block.number + foulBlockLen)){\r\n            // the other player abandoned this game\r\n            TestWinner(gameID, openGames[gameID].accuser);\r\n        }\r\n    }\r\n\r\n    // a foul can only be cleared by properly advancing the state\r\n    // thus this function has to be called from within our check/fire functions\r\n    function ClearFoul(uint gameID) private {\r\n        if(openGames[gameID].accuser != address(0) && openGames[gameID].accuser != msg.sender){\r\n            // if we are out of time to context the foul this function will fail\r\n            assert(openGames[gameID].blockNumber <= (block.number + foulBlockLen));\r\n            // else it will clear the foul\r\n            // just like setting the accuser, this is THE ONLY place in the contract where this assignment is made.\r\n            openGames[gameID].accuser = address(0);\r\n        }\r\n    }\r\n\r\n    // Assortment of debug functions\r\n    // Despite the name, this function also sets the winner to a given address\r\n    // the main use for it is testing endgame stages of the contract without having to manually play a game\r\n    \r\n    function ChangeState(uint gameID, GameStates state, address winner) public {\r\n        assert(msg.sender == owner);\r\n        openGames[gameID].state = state;\r\n        openGames[gameID].winner = winner;\r\n    }\r\n    \r\n}",
  "sourcePath": "F:\\Documents\\Code\\School\\P2PBC\\Battleships\\contracts\\Battleships.sol",
  "compiler": {
    "name": "solc",
    "version": "0.8.19+commit.7dd6d404.Emscripten.clang"
  },
  "schemaVersion": "3.4.13",
  "updatedAt": "2023-05-31T12:45:19.296Z",
  "networkType": "ethereum",
  "devdoc": {
    "kind": "dev",
    "methods": {},
    "version": 1
  },
  "userdoc": {
    "kind": "user",
    "methods": {},
    "version": 1
  }
}