{
  "contractName": "Battleships",
  "abi": [
    {
      "inputs": [],
      "stateMutability": "nonpayable",
      "type": "constructor"
    },
    {
      "inputs": [],
      "name": "InvalidGameID",
      "type": "error"
    },
    {
      "inputs": [],
      "name": "NoOpenGames",
      "type": "error"
    },
    {
      "inputs": [],
      "name": "NotInGame",
      "type": "error"
    },
    {
      "inputs": [],
      "name": "StakeAlreadyDeposited",
      "type": "error"
    },
    {
      "inputs": [
        {
          "internalType": "uint256",
          "name": "expectedStakeValue",
          "type": "uint256"
        }
      ],
      "name": "WrongStakeAmount",
      "type": "error"
    },
    {
      "anonymous": false,
      "inputs": [
        {
          "indexed": false,
          "internalType": "uint256",
          "name": "_gameID",
          "type": "uint256"
        }
      ],
      "name": "AcceptingBoards",
      "type": "event"
    },
    {
      "anonymous": false,
      "inputs": [
        {
          "indexed": false,
          "internalType": "uint256",
          "name": "_gameID",
          "type": "uint256"
        },
        {
          "indexed": false,
          "internalType": "address",
          "name": "_player",
          "type": "address"
        }
      ],
      "name": "BoardAcknowledgeEvent",
      "type": "event"
    },
    {
      "anonymous": false,
      "inputs": [
        {
          "indexed": false,
          "internalType": "uint256",
          "name": "_gameID",
          "type": "uint256"
        },
        {
          "indexed": false,
          "internalType": "address",
          "name": "_accused",
          "type": "address"
        },
        {
          "indexed": false,
          "internalType": "uint256",
          "name": "_block",
          "type": "uint256"
        }
      ],
      "name": "Foul",
      "type": "event"
    },
    {
      "anonymous": false,
      "inputs": [
        {
          "indexed": false,
          "internalType": "uint256",
          "name": "_gameID",
          "type": "uint256"
        }
      ],
      "name": "GameEnded",
      "type": "event"
    },
    {
      "anonymous": false,
      "inputs": [
        {
          "indexed": false,
          "internalType": "uint256",
          "name": "_gameID",
          "type": "uint256"
        },
        {
          "indexed": false,
          "internalType": "address",
          "name": "_host",
          "type": "address"
        },
        {
          "indexed": false,
          "internalType": "address",
          "name": "_challenger",
          "type": "address"
        },
        {
          "indexed": false,
          "internalType": "uint256",
          "name": "_stakeValue",
          "type": "uint256"
        }
      ],
      "name": "GamePayable",
      "type": "event"
    },
    {
      "anonymous": false,
      "inputs": [
        {
          "indexed": false,
          "internalType": "uint256",
          "name": "_gameID",
          "type": "uint256"
        },
        {
          "indexed": false,
          "internalType": "address",
          "name": "_host",
          "type": "address"
        },
        {
          "indexed": false,
          "internalType": "address",
          "name": "_challenger",
          "type": "address"
        }
      ],
      "name": "GameStart",
      "type": "event"
    },
    {
      "anonymous": false,
      "inputs": [
        {
          "indexed": false,
          "internalType": "uint256",
          "name": "_gameID",
          "type": "uint256"
        }
      ],
      "name": "PlayerZeroTurn",
      "type": "event"
    },
    {
      "anonymous": false,
      "inputs": [
        {
          "indexed": false,
          "internalType": "uint256",
          "name": "_gameID",
          "type": "uint256"
        },
        {
          "indexed": false,
          "internalType": "address",
          "name": "_winner",
          "type": "address"
        }
      ],
      "name": "RequestBoard",
      "type": "event"
    },
    {
      "anonymous": false,
      "inputs": [
        {
          "indexed": false,
          "internalType": "address",
          "name": "_from",
          "type": "address"
        },
        {
          "indexed": false,
          "internalType": "address",
          "name": "_to",
          "type": "address"
        },
        {
          "indexed": false,
          "internalType": "uint256",
          "name": "_gameID",
          "type": "uint256"
        }
      ],
      "name": "ShareID",
      "type": "event"
    },
    {
      "anonymous": false,
      "inputs": [
        {
          "indexed": false,
          "internalType": "uint256",
          "name": "_gameID",
          "type": "uint256"
        },
        {
          "indexed": false,
          "internalType": "uint8",
          "name": "_location",
          "type": "uint8"
        },
        {
          "indexed": false,
          "internalType": "bool",
          "name": "_claim",
          "type": "bool"
        },
        {
          "indexed": false,
          "internalType": "bool",
          "name": "_validity",
          "type": "bool"
        },
        {
          "indexed": false,
          "internalType": "address",
          "name": "_from",
          "type": "address"
        }
      ],
      "name": "ShotsChecked",
      "type": "event"
    },
    {
      "anonymous": false,
      "inputs": [
        {
          "indexed": false,
          "internalType": "uint256",
          "name": "_gameID",
          "type": "uint256"
        },
        {
          "indexed": false,
          "internalType": "uint8",
          "name": "_location",
          "type": "uint8"
        },
        {
          "indexed": false,
          "internalType": "address",
          "name": "_from",
          "type": "address"
        }
      ],
      "name": "ShotsFired",
      "type": "event"
    },
    {
      "anonymous": false,
      "inputs": [
        {
          "indexed": false,
          "internalType": "uint256",
          "name": "_gameID",
          "type": "uint256"
        },
        {
          "indexed": false,
          "internalType": "address",
          "name": "_whoPaid",
          "type": "address"
        }
      ],
      "name": "StakePaid",
      "type": "event"
    },
    {
      "anonymous": false,
      "inputs": [
        {
          "indexed": false,
          "internalType": "uint256",
          "name": "_gameID",
          "type": "uint256"
        },
        {
          "indexed": false,
          "internalType": "address",
          "name": "_from",
          "type": "address"
        },
        {
          "indexed": false,
          "internalType": "address",
          "name": "_to",
          "type": "address"
        },
        {
          "indexed": false,
          "internalType": "uint256",
          "name": "_stakeValue",
          "type": "uint256"
        }
      ],
      "name": "SuggestedStake",
      "type": "event"
    },
    {
      "anonymous": false,
      "inputs": [
        {
          "indexed": false,
          "internalType": "uint256",
          "name": "_gameID",
          "type": "uint256"
        },
        {
          "indexed": false,
          "internalType": "address",
          "name": "_winner",
          "type": "address"
        }
      ],
      "name": "Victory",
      "type": "event"
    },
    {
      "inputs": [],
      "name": "BOARD_SIZE",
      "outputs": [
        {
          "internalType": "uint8",
          "name": "",
          "type": "uint8"
        }
      ],
      "stateMutability": "view",
      "type": "function",
      "constant": true
    },
    {
      "inputs": [],
      "name": "NUMBER_OF_SHIP_SQUARES",
      "outputs": [
        {
          "internalType": "uint8",
          "name": "",
          "type": "uint8"
        }
      ],
      "stateMutability": "view",
      "type": "function",
      "constant": true
    },
    {
      "inputs": [
        {
          "internalType": "bool",
          "name": "isPrivate",
          "type": "bool"
        }
      ],
      "name": "newGame",
      "outputs": [],
      "stateMutability": "nonpayable",
      "type": "function"
    },
    {
      "inputs": [
        {
          "internalType": "uint256",
          "name": "gameID",
          "type": "uint256"
        }
      ],
      "name": "joinGame",
      "outputs": [],
      "stateMutability": "nonpayable",
      "type": "function"
    },
    {
      "inputs": [
        {
          "internalType": "uint256",
          "name": "gameID",
          "type": "uint256"
        }
      ],
      "name": "checkGameState",
      "outputs": [
        {
          "internalType": "enum Battleships.GameStates",
          "name": "",
          "type": "uint8"
        }
      ],
      "stateMutability": "view",
      "type": "function",
      "constant": true
    },
    {
      "inputs": [
        {
          "internalType": "uint256",
          "name": "gameID",
          "type": "uint256"
        },
        {
          "internalType": "uint256",
          "name": "index",
          "type": "uint256"
        }
      ],
      "name": "checkGamePlayer",
      "outputs": [
        {
          "internalType": "address",
          "name": "",
          "type": "address"
        }
      ],
      "stateMutability": "view",
      "type": "function",
      "constant": true
    },
    {
      "inputs": [
        {
          "internalType": "uint256",
          "name": "gameID",
          "type": "uint256"
        },
        {
          "internalType": "uint256",
          "name": "stakeValue",
          "type": "uint256"
        }
      ],
      "name": "proposeStake",
      "outputs": [],
      "stateMutability": "nonpayable",
      "type": "function"
    },
    {
      "inputs": [
        {
          "internalType": "uint256",
          "name": "gameID",
          "type": "uint256"
        }
      ],
      "name": "checkStakePlayerOne",
      "outputs": [
        {
          "internalType": "uint256",
          "name": "",
          "type": "uint256"
        }
      ],
      "stateMutability": "view",
      "type": "function",
      "constant": true
    },
    {
      "inputs": [
        {
          "internalType": "uint256",
          "name": "gameID",
          "type": "uint256"
        }
      ],
      "name": "checkStakePlayerTwo",
      "outputs": [
        {
          "internalType": "uint256",
          "name": "",
          "type": "uint256"
        }
      ],
      "stateMutability": "view",
      "type": "function",
      "constant": true
    },
    {
      "inputs": [
        {
          "internalType": "uint256",
          "name": "gameID",
          "type": "uint256"
        }
      ],
      "name": "checkStakeGame",
      "outputs": [
        {
          "internalType": "uint256",
          "name": "",
          "type": "uint256"
        }
      ],
      "stateMutability": "view",
      "type": "function",
      "constant": true
    },
    {
      "inputs": [
        {
          "internalType": "uint256",
          "name": "gameID",
          "type": "uint256"
        }
      ],
      "name": "payStake",
      "outputs": [],
      "stateMutability": "payable",
      "type": "function",
      "payable": true
    },
    {
      "inputs": [
        {
          "internalType": "uint256",
          "name": "gameID",
          "type": "uint256"
        }
      ],
      "name": "declineStake",
      "outputs": [],
      "stateMutability": "nonpayable",
      "type": "function"
    },
    {
      "inputs": [
        {
          "internalType": "uint256",
          "name": "gameID",
          "type": "uint256"
        }
      ],
      "name": "checkGamePayable",
      "outputs": [
        {
          "internalType": "bool",
          "name": "",
          "type": "bool"
        }
      ],
      "stateMutability": "view",
      "type": "function",
      "constant": true
    },
    {
      "inputs": [
        {
          "internalType": "uint256",
          "name": "gameID",
          "type": "uint256"
        },
        {
          "internalType": "bytes32",
          "name": "boardRoot",
          "type": "bytes32"
        }
      ],
      "name": "PlaceShips",
      "outputs": [],
      "stateMutability": "nonpayable",
      "type": "function"
    },
    {
      "inputs": [
        {
          "internalType": "uint256",
          "name": "gameID",
          "type": "uint256"
        },
        {
          "internalType": "uint8",
          "name": "location",
          "type": "uint8"
        }
      ],
      "name": "FireTorpedo",
      "outputs": [],
      "stateMutability": "nonpayable",
      "type": "function"
    },
    {
      "inputs": [
        {
          "internalType": "uint256",
          "name": "gameID",
          "type": "uint256"
        },
        {
          "internalType": "uint8",
          "name": "location",
          "type": "uint8"
        },
        {
          "internalType": "bool",
          "name": "isHit",
          "type": "bool"
        },
        {
          "internalType": "bytes32",
          "name": "leaf",
          "type": "bytes32"
        },
        {
          "internalType": "bytes32[]",
          "name": "proof",
          "type": "bytes32[]"
        }
      ],
      "name": "ConfirmShot",
      "outputs": [],
      "stateMutability": "nonpayable",
      "type": "function"
    },
    {
      "inputs": [
        {
          "internalType": "uint8",
          "name": "tile",
          "type": "uint8"
        },
        {
          "internalType": "bool",
          "name": "ship",
          "type": "bool"
        }
      ],
      "name": "GenLeafNode",
      "outputs": [
        {
          "internalType": "bytes32",
          "name": "",
          "type": "bytes32"
        }
      ],
      "stateMutability": "pure",
      "type": "function",
      "constant": true
    },
    {
      "inputs": [
        {
          "internalType": "uint256",
          "name": "gameID",
          "type": "uint256"
        },
        {
          "internalType": "uint8[]",
          "name": "tiles",
          "type": "uint8[]"
        },
        {
          "internalType": "bool[]",
          "name": "ships",
          "type": "bool[]"
        },
        {
          "internalType": "bytes32[]",
          "name": "nodes",
          "type": "bytes32[]"
        },
        {
          "internalType": "bytes32[][]",
          "name": "proofs",
          "type": "bytes32[][]"
        },
        {
          "internalType": "bytes32",
          "name": "root",
          "type": "bytes32"
        }
      ],
      "name": "VerifyWinner",
      "outputs": [],
      "stateMutability": "nonpayable",
      "type": "function"
    },
    {
      "inputs": [
        {
          "internalType": "bytes32[][]",
          "name": "array",
          "type": "bytes32[][]"
        }
      ],
      "name": "echo2dArray",
      "outputs": [
        {
          "internalType": "bytes32[][]",
          "name": "",
          "type": "bytes32[][]"
        }
      ],
      "stateMutability": "pure",
      "type": "function",
      "constant": true
    },
    {
      "inputs": [
        {
          "internalType": "bytes32",
          "name": "node",
          "type": "bytes32"
        }
      ],
      "name": "echoNodeBytes",
      "outputs": [
        {
          "internalType": "bytes32",
          "name": "",
          "type": "bytes32"
        }
      ],
      "stateMutability": "pure",
      "type": "function",
      "constant": true
    },
    {
      "inputs": [
        {
          "internalType": "uint256",
          "name": "gameID",
          "type": "uint256"
        }
      ],
      "name": "AbandonGame",
      "outputs": [],
      "stateMutability": "nonpayable",
      "type": "function"
    },
    {
      "inputs": [
        {
          "internalType": "uint256",
          "name": "gameID",
          "type": "uint256"
        }
      ],
      "name": "WithdrawWinnings",
      "outputs": [],
      "stateMutability": "nonpayable",
      "type": "function"
    },
    {
      "inputs": [
        {
          "internalType": "uint256",
          "name": "gameID",
          "type": "uint256"
        }
      ],
      "name": "FoulAccusation",
      "outputs": [],
      "stateMutability": "nonpayable",
      "type": "function"
    },
    {
      "inputs": [
        {
          "internalType": "uint256",
          "name": "gameID",
          "type": "uint256"
        }
      ],
      "name": "CheckFoulTimer",
      "outputs": [],
      "stateMutability": "nonpayable",
      "type": "function"
    },
    {
      "inputs": [
        {
          "internalType": "uint256",
          "name": "gameID",
          "type": "uint256"
        },
        {
          "internalType": "enum Battleships.GameStates",
          "name": "state",
          "type": "uint8"
        },
        {
          "internalType": "address",
          "name": "winner",
          "type": "address"
        }
      ],
      "name": "ChangeState",
      "outputs": [],
      "stateMutability": "nonpayable",
      "type": "function"
    }
  ],
  "bytecode": "0x608060405234801561001057600080fd5b50600160248190556025556026805460ff196101003302166001600160a81b0319909116176005179055613a00806100496000396000f3fe6080604052600436106101665760003560e01c806399396b11116100d1578063dc4a3e951161008a578063efaa55a011610064578063efaa55a01461047d578063f28ae7dd1461049d578063f7b68ea9146104bd578063fba523b7146104dd57600080fd5b8063dc4a3e9514610428578063e0dd9bb41461043d578063e6f4a9b71461045d57600080fd5b806399396b11146103185780639a2b17be146103505780639a7e4cea14610370578063aa3ee9151461039d578063b549fe70146103bd578063bd7c88f8146103db57600080fd5b80636930aa4d116101235780636930aa4d14610235578063699f5aeb1461025c57806374f760e41461028a578063780b1236146102aa57806379fbd95d146102d857806395287e96146102f857600080fd5b8063012b61f01461016b57806307e79cb3146101a05780630e37dcd0146101c257806316337b89146101d55780632b170aac146101f55780633c2d3a8814610215575b600080fd5b34801561017757600080fd5b5061018b610186366004613413565b6104fd565b60405190151581526020015b60405180910390f35b3480156101ac57600080fd5b506101c06101bb36600461342c565b610576565b005b6101c06101d0366004613413565b6105fb565b3480156101e157600080fd5b506101c06101f036600461347e565b6108f8565b34801561020157600080fd5b506101c06102103660046134ae565b610c66565b34801561022157600080fd5b506101c0610230366004613413565b610ea7565b34801561024157600080fd5b5061024a601481565b60405160ff9091168152602001610197565b34801561026857600080fd5b5061027c610277366004613413565b610f9b565b604051908152602001610197565b34801561029657600080fd5b506101c06102a5366004613413565b611002565b3480156102b657600080fd5b506102ca6102c5366004613517565b61114e565b60405161019792919061358b565b3480156102e457600080fd5b506101c06102f336600461363b565b611158565b34801561030457600080fd5b506101c06103133660046136b5565b61160a565b34801561032457600080fd5b5061033861033336600461347e565b611c5e565b6040516001600160a01b039091168152602001610197565b34801561035c57600080fd5b506101c061036b366004613413565b611cee565b34801561037c57600080fd5b5061039061038b366004613413565b611f59565b60405161019791906137a5565b3480156103a957600080fd5b5061027c6103b8366004613413565b611f91565b3480156103c957600080fd5b5061027c6103d8366004613413565b90565b3480156103e757600080fd5b5061027c6103f63660046137cd565b6040805160ff939093166020808501919091529115158382015280518084038201815260609093019052815191012090565b34801561043457600080fd5b5061024a600881565b34801561044957600080fd5b506101c0610458366004613804565b611fe9565b34801561046957600080fd5b506101c0610478366004613413565b6122ae565b34801561048957600080fd5b506101c0610498366004613413565b61255f565b3480156104a957600080fd5b506101c06104b836600461347e565b6127d7565b3480156104c957600080fd5b506101c06104d8366004613413565b612c09565b3480156104e957600080fd5b5061027c6104f8366004613413565b612eff565b60008181526020819052604081205460ff16801561052c575060008281526020819052604090206001015460ff165b8015610549575060008281526020819052604090206009015460ff165b156105695750600090815260208190526040902054610100900460ff1690565b506000919050565b919050565b60265461010090046001600160a01b0316331461059557610595613846565b6000838152602081905260409020601101805483919060ff1916600183600b8111156105c3576105c361378f565b021790555060009283526020839052604090922060150180546001600160a01b0319166001600160a01b039093169290921790915550565b600081815260208190526040902054819060ff1661061b5761061b613846565b60008281526020819052604090206001015482906001600160a01b03620100009091041633148061066c57506000818152602081905260409020600901546001600160a01b03620100009091041633145b61067857610678613846565b8260038060008381526020819052604090206011015460ff16600b8111156106a2576106a261378f565b146106af576106af613846565b60008581526020819052604081206001019060080201546201000090046001600160a01b0316331480156106f95750600085815260208190526040902060010154610100900460ff165b8061074457506000858152602081905260409020600901546201000090046001600160a01b0316331480156107445750600085815260208190526040902060090154610100900460ff165b1561076257604051635e558b2360e01b815260040160405180910390fd5b60008581526020819052604090206012015434146107af5760008581526020819052604090819020601201549051633365c34560e11b815260048101919091526024015b60405180910390fd5b60008581526020819052604081206001015481906201000090046001600160a01b031633036107e457506000905060016107ec565b506001905060005b60008781526020819052604090206001908101836002811061081057610810613830565b6008020180549115156101000261ff001990921691909117905561083387612fa2565b604080518881523360208201527f95ddb9abe17699603c18cef7bcfd33947d19c8eb237e01edac0bd509b481339e910160405180910390a16000878152602081905260409020600101816002811061088d5761088d613830565b6008020154610100900460ff16156108ef5760008781526020818152604091829020601101805460ff1916600417905590518881527ff751b3d5e96ffa95a434b79874df7e232b82d5c688a5d61fd7b5c5ce8724712791015b60405180910390a15b50505050505050565b600082815260208190526040902054829060ff1661091857610918613846565b60008381526020819052604090206001015483906001600160a01b03620100009091041633148061096957506000818152602081905260409020600901546001600160a01b03620100009091041633145b61097557610975613846565b8360018060008381526020819052604090206011015460ff16600b81111561099f5761099f61378f565b146109ac576109ac613846565b600086815260208190526040812081906001018160080201546201000090046001600160a01b031633146109e45760019150816109ea565b60009150815b5060008881526020819052604081206001019060080201546201000090046001600160a01b03163314610a205750600080610a25565b506001805b5060008881526020819052604090206001018260028110610a4857610a48613830565b60080201600201546000801b14610a5e57600080fd5b601f805460ff191660011781556014602055610a7b600880613872565b60ff1660215560005b610a8f600880613872565b60ff16811015610ae057600060228260408110610aae57610aae613830565b602091828204019190066101000a81548160ff0219169083151502179055508080610ad890613895565b915050610a84565b50600089815260208190526040902081906001018460028110610b0557610b05613830565b8254600891909102919091016003818101805460ff191660ff90941615159390931783556001840154600483015560028401546005830155610b4e9160060190840160406131bb565b505050600089815260208190526040902088906001018460028110610b7557610b75613830565b6008020160020155604080518a81523360208201527fde8cdabe60db81138d1e5580b73440f47ba010dbd18575d18bad0b750987001e910160405180910390a160008981526020819052604090206001018260028110610bd757610bd7613830565b60080201600201546000801b14610c5b5760008981526020818152604091829020601181018054600260ff199091161790556001015482518c8152620100009091046001600160a01b031691810191909152338183015290517fdf72bd9cb04731c1dfa0832a380e56504fda45508a7305083a9be0f343e934219181900360600190a15b505050505050505050565b602480549081906000610c7883613895565b90915550506017805461ff001960ff1962010000338102821661ff01600160b01b03199094169390931760019081178381168087556002805462010000600160b01b031961ffff1990911660ff94851615159097169690961761010080840485161515021795909516908690046001600160a01b0316909502949094178355601854600355601954600455601a80546005805490941695161515949094178255601b54600655601c546007559392839291610d376008601d60406131bb565b5050505060118301805460ff1990811690915560148401805460ff60a01b1916600160a01b88151502179055835461ffff1990811660019081178655600087815260208190526040902080549384168217815586549390921660ff61010094859004161515909302929092178217815584925090610dbc9082810190840160026131fe565b50601182810154908201805460ff9092169160ff1916600183600b811115610de657610de661378f565b021790555060128281015490820155601380830154908201556014808301805491830180546001600160a01b03198082166001600160a01b039586169081178455935460ff600160a01b91829004161515026001600160a81b03199092169093171790556015938401549390920180549092169216919091179055604080513081523360208201529081018490527f1edfba130181c8da1b98834639c59b5287912fcc01104c5a7a6e6c8cd194e3029060600160405180910390a150505050565b600081815260208190526040902054819060ff16610ec757610ec7613846565b60008281526020819052604090206001015482906001600160a01b036201000090910416331480610f1857506000818152602081905260409020600901546001600160a01b03620100009091041633145b610f2457610f24613846565b6000838152602081905260409020601401546001600160a01b0316610f4857600080fd5b602654610f589060ff16436138ae565b6000848152602081905260409020601301541015610f9657600083815260208190526040902060140154610f969084906001600160a01b031661303d565b505050565b60008181526020819052604081205460ff168015610fca575060008281526020819052604090206001015460ff165b8015610fe7575060008281526020819052604090206009015460ff165b15610569575060009081526020819052604090206012015490565b600081815260208190526040902054819060ff1661102257611022613846565b60008281526020819052604090206015015482906001600160a01b0316331461104d5761104d613846565b8260098060008381526020819052604090206011015460ff16600b8111156110775761107761378f565b1461108457611084613846565b6000858152602081905260408120601201546110a19060026138c1565b600087815260208190526040808220601101805460ff1916600a1790555191925090339083908381818185875af1925050503d80600081146110ff576040519150601f19603f3d011682016040523d82523d6000602084013e611104565b606091505b505090508061111257600080fd5b6040518781527fce24807f7e4b60b4e641462f13029fa5e5f79075bbc3f8e5cd43ecd19661d7609060200160405180910390a16108ef8761308b565b81815b9250929050565b60008681526020819052604090205460ff1661117657611176613846565b611181600880613872565b60ff168560ff161061119557611195613846565b60008681526020819052604090206001015433620100009091046001600160a01b0316036111f85760075b60008781526020819052604090206011015460ff16600b8111156111e6576111e661378f565b146111f3576111f3613846565b61122f565b60008681526020819052604090206009015433620100009091046001600160a01b0316036112275760056111c0565b61122f613846565b600061123a87612f4a565b6040805160ff89166020808301919091528815158284015282518083038401815260609092019092528051910120909150841461127957611279613846565b6000878152602081905260409020815173__Merkle________________________________91637ffe9d8c9186918691600190910190600281106112bf576112bf613830565b6008020160020154886040518563ffffffff1660e01b81526004016112e794939291906138d8565b602060405180830381865af4158015611304573d6000803e3d6000fd5b505050506040513d601f19601f8201168201806040525081019061132891906138ff565b156115b15761133687612fa2565b84156114ea57600087815260208181526040909120908201516001909101906002811061136557611365613830565b600802016003016003018660ff166040811061138357611383613830565b602081049091015460ff601f9092166101000a9004166114ea5760008781526020818152604090912090820151600190910190600281106113c6576113c6613830565b6008020160030160010160008154809291906113e19061391c565b909155505060008781526020819052604090206001908101828260200201516002811061141057611410613830565b600802016003016003018760ff166040811061142e5761142e613830565b602091828204019190066101000a81548160ff0219169083151502179055506000808881526020019081526020016000206001018160016002811061147557611475613830565b60200201516002811061148a5761148a613830565b60080201600301600101546000036114ea57600087815260208181526040909120908201516114e4918991600190910190600281106114cb576114cb613830565b60080201546201000090046001600160a01b031661303d565b50611602565b600560008881526020819052604090206011015460ff16600b8111156115125761151261378f565b1461153b576000878152602081905260409020601101805460ff1916600490811790915561155b565b6000878152602081905260409020601101805460ff191660069081179091555b506040805188815260ff88166020820152861515818301526001606082015233608082015290517f5daf1a84388bd8a6d3801b570a2f677e0915dd586765606221fbc8516e99ca2d9181900360a00190a16108ef565b6040805188815260ff8816602082015286151591810191909152600060608201523360808201527f5daf1a84388bd8a6d3801b570a2f677e0915dd586765606221fbc8516e99ca2d9060a0016108e6565b505050505050565b60008a81526020819052604081205460ff1661165e5760405162461bcd60e51b815260206004820152601360248201527211d85b5948191bd95cc81b9bdd08195e1a5cdd606a1b60448201526064016107a6565b600860008c81526020819052604090206011015460ff16600b8111156116865761168661378f565b146116e45760405162461bcd60e51b815260206004820152602860248201527f47616d65206973206e6f7420696e2074686520434845434b494e475f57494e4e604482015267455220737461746560c01b60648201526084016107a6565b60008b815260208190526040902060018101546015909101546001600160a01b0362010000909204821691160361171d57506000611721565b5060015b60008b8152602081905260409020601501546001600160a01b031633146117995760405162461bcd60e51b815260206004820152602660248201527f4f6e6c79207468652077696e6e65722063616e2076657269667920746865697260448201526508189bd85c9960d21b60648201526084016107a6565b60008b815260208190526040902060010181600281106117bb576117bb613830565b600802016002015482146118305760405162461bcd60e51b815260206004820152603660248201527f54686520726f6f742070726f766964656420646f6573206e6f74206d61746368604482015275081d1a19481c9bdbdd081bd9881d1a1948189bd85c9960521b60648201526084016107a6565b61183b600880613872565b60ff16891461189c5760405162461bcd60e51b815260206004820152602760248201527f5468652074696c6573206172726179206973206e6f742074686520636f72726560448201526663742073697a6560c81b60648201526084016107a6565b6118a7600880613872565b60ff1687146119085760405162461bcd60e51b815260206004820152602760248201527f546865207368697073206172726179206973206e6f742074686520636f72726560448201526663742073697a6560c81b60648201526084016107a6565b6000805b611917600880613872565b60ff168160ff161015611b745789898260ff1681811061193957611939613830565b905060200201602081019061194e91906134ae565b15611961578161195d81613933565b9250505b6119b88c8c8360ff1681811061197957611979613830565b905060200201602081019061198e9190613952565b8b8b8460ff168181106119a3576119a3613830565b90506020020160208101906103f691906134ae565b88888360ff168181106119cd576119cd613830565b9050602002013514611a3c5760405162461bcd60e51b815260206004820152603260248201527f546865206e6f646520646f6573206e6f74206d61746368207468652074696c6560448201527108185b99081cda1a5c081c1c9bdd9a59195960721b60648201526084016107a6565b73__Merkle________________________________637ffe9d8c87878460ff16818110611a6b57611a6b613830565b9050602002810190611a7d919061396d565b878c8c8760ff16818110611a9357611a93613830565b905060200201356040518563ffffffff1660e01b8152600401611ab994939291906138d8565b602060405180830381865af4158015611ad6573d6000803e3d6000fd5b505050506040513d601f19601f82011682018060405250810190611afa91906138ff565b611b625760405162461bcd60e51b815260206004820152603360248201527f5468652070726f6f6620646f6573206e6f74206d617463682074686520726f6f6044820152721d08185b99081b9bd919481c1c9bdd9a591959606a1b60648201526084016107a6565b80611b6c81613933565b91505061190c565b5060ff8116601414611be45760405162461bcd60e51b815260206004820152603360248201527f54686520626f61726420646f6573206e6f7420686176652074686520636f7272604482015272656374206e756d626572206f6620736869707360681b60648201526084016107a6565b60008c8152602081905260409020805461010061ff0019909116178155601101805460ff19166009179055611c188c612fa2565b604080518d81523360208201527fc2815c82adc4278d6e044948482e0d16acf9a6369fc96eff02ffc7e7cd5f39d0910160405180910390a1505050505050505050505050565b60008281526020819052604081205460ff168015611ca2575060008381526020819052604090206001018260028110611c9957611c99613830565b600802015460ff165b15611ce45760008381526020819052604090206001018260028110611cc957611cc9613830565b60080201546201000090046001600160a01b03169050611ce8565b5060005b92915050565b600081815260208190526040902054819060ff16611d0e57611d0e613846565b60008281526020819052604090206001015482906001600160a01b036201000090910416331480611d5f57506000818152602081905260409020600901546001600160a01b03620100009091041633145b611d6b57611d6b613846565b6000838152602081905260408120600101546201000090046001600160a01b03163303611d9a57506001611d9e565b5060005b60008481526020819052604090206001018160028110611dc057611dc0613830565b6008020154610100900460ff168015611e1157506000848152602081905260409020600190810190611df39083906139b7565b60028110611e0357611e03613830565b6008020154610100900460ff165b15611e43576000848152602081905260409020611e3e90859060010183600281106114cb576114cb613830565b611f53565b60008481526020819052604090206001018160028110611e6557611e65613830565b6008020154610100900460ff1615611f175760008481526020819052604081206001018260028110611e9957611e99613830565b600802015460008681526020819052604090819020601201549051620100009092046001600160a01b03169160006040518083038185875af1925050503d8060008114611f02576040519150601f19603f3d011682016040523d82523d6000602084013e611f07565b606091505b5050905080611f1557600080fd5b505b6040518481527fce24807f7e4b60b4e641462f13029fa5e5f79075bbc3f8e5cd43ecd19661d7609060200160405180910390a1611f538461308b565b50505050565b60008181526020819052604081205460ff1615611f89575060009081526020819052604090206011015460ff1690565b50600b919050565b60008181526020819052604081205460ff168015611fc0575060008281526020819052604090206009015460ff165b156105695760008281526020819052604090206001908101905b60080201600101549050919050565b600082815260208190526040902054829060ff1661200957612009613846565b60008381526020819052604090206001015483906001600160a01b03620100009091041633148061205a57506000818152602081905260409020600901546001600160a01b03620100009091041633145b61206657612066613846565b82612072600880613872565b60ff168160ff161061208657612086613846565b846004600061209483612f4a565b9050600482600b8111156120aa576120aa61378f565b036121095780516000036121025781600b8111156120ca576120ca61378f565b60008481526020819052604090206011015460ff16600b8111156120f0576120f061378f565b146120fd576120fd613846565b61214c565b60066120ca565b600782600b81111561211d5761211d61378f565b0361214457805160000361213d5781600b8111156120ca576120ca61378f565b60056120ca565b61214c613846565b5061215687612fa2565b600061216188612f4a565b9050600460008981526020819052604090206011015460ff16600b81111561218b5761218b61378f565b146121b4576000888152602081905260409020601101805460ff191660079081179091556121d4565b6000888152602081905260409020601101805460ff191660059081179091555b5060008881526020819052604090208151600190910190600281106121fb576121fb613830565b6008020160030160020160008154809291906122169061391c565b9091555050600088815260208190526040902081516001909101906002811061224157612241613830565b60080201600301600201546000036122625761225d883361303d565b6122a4565b6040805189815260ff89166020820152338183015290517f14ba1310e28cb93a7363176f97b4b776f03e7b3d2f8845631ff3fdecd770cc739181900360600190a15b5050505050505050565b600081815260208190526040902054819060ff166122ce576122ce613846565b60008281526020819052604090206001015482906001600160a01b03620100009091041633148061231f57506000818152602081905260409020600901546001600160a01b03620100009091041633145b61232b5761232b613846565b8260038060008381526020819052604090206011015460ff16600b8111156123555761235561378f565b1461236257612362613846565b60008581526020819052604081206001019060080201546201000090046001600160a01b0316331480156123ac5750600085815260208190526040902060010154610100900460ff165b806123f757506000858152602081905260409020600901546201000090046001600160a01b0316331480156123f75750600085815260208190526040902060090154610100900460ff165b1561241557604051635e558b2360e01b815260040160405180910390fd5b60008581526020819052604081206001015481906201000090046001600160a01b0316330361244a5750600090506001612452565b506001905060005b6000878152602081905260409020600101816002811061247457612474613830565b6008020154610100900460ff161561252657600087815260208190526040812060010182600281106124a8576124a8613830565b600802015460008981526020819052604090819020601201549051620100009092046001600160a01b03169160006040518083038185875af1925050503d8060008114612511576040519150601f19603f3d011682016040523d82523d6000602084013e612516565b606091505b505090508061252457600080fd5b505b61252f8761308b565b6040518781527fce24807f7e4b60b4e641462f13029fa5e5f79075bbc3f8e5cd43ecd19661d760906020016108e6565b8060000361262457506025545b6024548110156126245760008181526020819052604090205460ff16151560011480156125bc575060008181526020819052604081206011015460ff16600b8111156125ba576125ba61378f565b145b80156125e957506000818152602081905260409020600101546001600160a01b0362010000909104163314155b801561260e5750600081815260208190526040902060140154600160a01b900460ff16155b612624578061261c81613895565b91505061256c565b60008181526020819052604090205460ff1661265357604051630251ee3760e01b815260040160405180910390fd5b60008181526020819052604081206011015460ff16600b8111156126795761267961378f565b1461268657612686613846565b6126918160016138ae565b6025556017805461ff001960ff1962010000338102821661ff01600160b01b03199094169390931760011782811685556000868152602081905260409081902060098101805480861660ff95861615159081178355895461ffff19909216971696909617610100968790048516151590960295909517808655875462010000600160b01b0319909116908790046001600160a01b0316909602959095178455601854600a860155601954600b860155601a8054600c8701805490951693161515929092178355601b54600d860155601c54600e860155859491929161277e91600f90910190601d906131bb565b50505060008481526020818152604091829020601101805460ff1916600117905590518581527f972651cf62ccc65bd2ba0fd996eb34701d5773844d3303545d5b4cb29738f10493500190505b60405180910390a15050565b600082815260208190526040902054829060ff166127f7576127f7613846565b60008381526020819052604090206001015483906001600160a01b03620100009091041633148061284857506000818152602081905260409020600901546001600160a01b03620100009091041633145b61285457612854613846565b8360028060008381526020819052604090206011015460ff16600b81111561287e5761287e61378f565b1461288b5761288b613846565b600086815260208181526040808320815161012081018352815460ff808216151583526101009091041615159381019390935281518083018352909183019060018301600286835b828210156129ce576040805160c081018252600884028601805460ff80821615158452610100820481161515602080860191909152620100009092046001600160a01b031684860152600183015460608086019190915260028401546080808701919091528651908101875260038501805490931615158152600485015493810193909352600584015483870152855161080081018088529596949560a0880195928501926006880191826000855b825461010083900a900460ff16151581526020600192830181810494850194909303909202910180841161298257905050505050508152505081525050815260200190600101906128d3565b50505090825250601182015460209091019060ff16600b8111156129f4576129f461378f565b600b811115612a0557612a0561378f565b815260128201546020820152601382015460408083019190915260148301546001600160a01b038082166060850152600160a01b90910460ff161515608084015260159093015490921660a0909101528101519091506000908190816020020151604001516001600160a01b03163303612a855750600190506000612a8d565b506000905060015b600083604001518360028110612aa557612aa5613830565b6020020151606001519050886000808c81526020019081526020016000206001018360028110612ad757612ad7613830565b600802016001018190555080600014158015612af257508881145b15612b815760008a81526020818152604091829020601281018c9055601101805460ff191660031790558582015180518301519082015183015183518e81526001600160a01b03928316938101939093521681830152606081018b905290517fa63491c3e48c84a30c1a58128201bca4fd87bb84850cda339020ce19051e5a90916080908290030190a1612bfd565b7f4adf94e8b5302c48b3df6533aa17748538d68a74af46f0a894839b61fbf3f1bf8a3386604001518660028110612bba57612bba613830565b6020020151604001518c604051612bf494939291909384526001600160a01b03928316602085015291166040830152606082015260800190565b60405180910390a15b50505050505050505050565b600081815260208190526040902054819060ff16612c2957612c29613846565b6000828152602081905260408120600101546201000090046001600160a01b03163303612c5857506000612c83565b6000838152602081905260409020600901546201000090046001600160a01b03163303612c83575060015b600660008481526020819052604090206011015460ff16600b811115612cab57612cab61378f565b1480612cdc5750600560008481526020819052604090206011015460ff16600b811115612cda57612cda61378f565b145b15612cf4578015612cef57612cef613846565b612e28565b600460008481526020819052604090206011015460ff16600b811115612d1c57612d1c61378f565b1480612d4d5750600760008481526020819052604090206011015460ff16600b811115612d4b57612d4b61378f565b145b15612d625780600114612cef57612cef613846565b600360008481526020819052604090206011015460ff16600b811115612d8a57612d8a61378f565b03612dca5760008381526020819052604090206001018160028110612db157612db1613830565b6008020154610100900460ff16612cef57612cef613846565b600860008481526020819052604090206011015460ff16600b811115612df257612df261378f565b03612e20576000838152602081905260409020601501546001600160a01b03163303612cef57612cef613846565b612e28613846565b6000838152602081905260409020601401546001600160a01b031615612e4d57600080fd5b60008381526020819052604090206014810180546001600160a01b031916331790554360138201557f0bf978ab2586eab9e083eec06f934bd39c6da770feb9502455f09c4cf17b1bec908490600190810190612eaa9085906139b7565b60028110612eba57612eba613830565b600802015460008681526020818152604091829020601301548251948552620100009093046001600160a01b03169084015282015260600160405180910390a1505050565b60008181526020819052604081205460ff168015612f2e575060008281526020819052604090206001015460ff165b1561056957600082815260208190526040812060010190611fda565b612f526132f0565b612f5a6132f0565b6000838152602081905260409020600101546201000090046001600160a01b03163303612f91576000815260016020820152611ce8565b600181526000602082015292915050565b6000818152602081905260409020601401546001600160a01b031615801590612fe557506000818152602081905260409020601401546001600160a01b03163314155b1561303a57602654612ffa9060ff16436138ae565b600082815260208190526040902060130154111561301a5761301a613846565b600081815260208190526040902060140180546001600160a01b03191690555b50565b60008281526020819052604090206015810180546001600160a01b0384166001600160a01b031990911681179091556011909101805460ff1916600817905561308790839061317d565b5050565b600081815260208190526040812060048101805460ff1990811690915560058201839055600682018390556007820183905560088201839055600c820180549091169055600d8101829055600e8101829055600f8101829055601081018290556001810180546001600160b01b0319908116825560028301849055600383018490556009830180549091169055600a8201839055600b8201839055815461ffff1916825590919061313c908261330e565b5060118101805460ff1916905560006012820181905560138201556014810180546001600160a81b031916905560150180546001600160a01b031916905550565b604080518381526001600160a01b03831660208201527fc53d54ea71e800bb40731cf938b78bbb3e167ca69808d9e2945e2f018b3c406791016127cb565b6002830191839082156131ee5791601f016020900482015b828111156131ee5782548255916001019190600101906131d3565b506131fa9291506133aa565b5090565b6010830191839082156132e4579160080282015b828111156132e4578254825460ff918216151560ff1980831682178655865461010090819004851615150261ff001990921661ffff19909316929092171780855585546001600160a01b036201000091829004160262010000600160b01b0319909116178455600180860154908501556002808601549085015560038086018054918601805492909416151591909216178255600480860154908501556005808601549085015584918491906132d0600680850190860160406131bb565b505050505091600801919060080190613212565b506131fa9291506133bf565b60405180604001604052806002906020820280368337509192915050565b5080546001600160b01b03191681556000600182018190556002820181905560038201805460ff191681556004830182905560058301829055600683018290556007830182905550506008810180546001600160b01b0319168155600060098301819055600a8301819055600b8301805460ff19168155600c8401829055600d8401829055600e8401829055600f909301819055909181611f53565b5b808211156131fa57600081556001016133ab565b808211156131fa5780546001600160b01b03191681556000600182018190556002820181905560038201805460ff1916905560048201819055600582018190556006820181905560078201556008016133bf565b60006020828403121561342557600080fd5b5035919050565b60008060006060848603121561344157600080fd5b833592506020840135600c811061345757600080fd5b915060408401356001600160a01b038116811461347357600080fd5b809150509250925092565b6000806040838503121561349157600080fd5b50508035926020909101359150565b801515811461303a57600080fd5b6000602082840312156134c057600080fd5b81356134cb816134a0565b9392505050565b60008083601f8401126134e457600080fd5b50813567ffffffffffffffff8111156134fc57600080fd5b6020830191508360208260051b850101111561115157600080fd5b6000806020838503121561352a57600080fd5b823567ffffffffffffffff81111561354157600080fd5b61354d858286016134d2565b90969095509350505050565b81835260006001600160fb1b0383111561357257600080fd5b8260051b80836020870137939093016020019392505050565b6020808252818101839052600090600560408085019086831b86010187855b8881101561361c57878303603f190184528135368b9003601e190181126135d057600080fd5b8a01868101903567ffffffffffffffff8111156135ec57600080fd5b80871b36038213156135fd57600080fd5b613608858284613559565b9588019594505050908501906001016135aa565b509098975050505050505050565b803560ff8116811461057157600080fd5b60008060008060008060a0878903121561365457600080fd5b863595506136646020880161362a565b94506040870135613674816134a0565b935060608701359250608087013567ffffffffffffffff81111561369757600080fd5b6136a389828a016134d2565b979a9699509497509295939492505050565b60008060008060008060008060008060c08b8d0312156136d457600080fd5b8a35995060208b013567ffffffffffffffff808211156136f357600080fd5b6136ff8e838f016134d2565b909b50995060408d013591508082111561371857600080fd5b6137248e838f016134d2565b909950975060608d013591508082111561373d57600080fd5b6137498e838f016134d2565b909750955060808d013591508082111561376257600080fd5b5061376f8d828e016134d2565b9150809450508092505060a08b013590509295989b9194979a5092959850565b634e487b7160e01b600052602160045260246000fd5b60208101600c83106137c757634e487b7160e01b600052602160045260246000fd5b91905290565b600080604083850312156137e057600080fd5b6137e98361362a565b915060208301356137f9816134a0565b809150509250929050565b6000806040838503121561381757600080fd5b823591506138276020840161362a565b90509250929050565b634e487b7160e01b600052603260045260246000fd5b634e487b7160e01b600052600160045260246000fd5b634e487b7160e01b600052601160045260246000fd5b60ff818116838216029081169081811461388e5761388e61385c565b5092915050565b6000600182016138a7576138a761385c565b5060010190565b80820180821115611ce857611ce861385c565b8082028115828204841417611ce857611ce861385c565b6060815260006138ec606083018688613559565b6020830194909452506040015292915050565b60006020828403121561391157600080fd5b81516134cb816134a0565b60008161392b5761392b61385c565b506000190190565b600060ff821660ff81036139495761394961385c565b60010192915050565b60006020828403121561396457600080fd5b6134cb8261362a565b6000808335601e1984360301811261398457600080fd5b83018035915067ffffffffffffffff82111561399f57600080fd5b6020019150600581901b360382131561115157600080fd5b81810381811115611ce857611ce861385c56fea264697066735822122063606d89767a01db249e523e32a346b00ddef02fc224eba4330f370fc556a20564736f6c63430008130033",
  "immutableReferences": {},
  "source": "// SPDX-License-Identifier: MIT\r\npragma solidity >=0.4.22 <0.9.0;\r\n\r\nimport { Merkle } from \"./Merkle.sol\";\r\n\r\ncontract Battleships {\r\n    uint8 public constant NUMBER_OF_SHIP_SQUARES = 20;\r\n    uint8 public constant BOARD_SIZE = 8;\r\n    enum GameStates{\r\n        WAITING, \r\n        PLACING_SHIPS, \r\n        SETTING_STAKE, \r\n        ACCEPTING_PAYMENT,\r\n        P0_FIRING,\r\n        P1_CHECKING,\r\n        P1_FIRING,\r\n        P0_CHECKING,\r\n        CHECKING_WINNER,\r\n        PAYABLE,\r\n        DONE,\r\n        NONE\r\n    }\r\n\r\n    // In this struct we save the view a player has of its opponent's board\r\n    struct Board{\r\n        bool valid;\r\n        // N*N matrix of bits to store hits\r\n        // bool[BOARD_SIZE][BOARD_SIZE] shots;\r\n        // # of enemy pieces still left on the board\r\n        // goes down by one each time we receive one 'you hit' event\r\n        uint totalPieces;\r\n        // 8*8, we use this to avoid cheating\r\n        uint totalShots;\r\n        bool[BOARD_SIZE*BOARD_SIZE] board; \r\n    }\r\n\r\n    struct Player{\r\n        bool valid;\r\n        bool hasPaidStake;\r\n        address playerAddress;\r\n        uint proposedStake;\r\n        bytes32 boardTreeRoot;\r\n        Board shots_board;\r\n    }\r\n\r\n    struct Game{\r\n        bool valid;\r\n        bool canPay;\r\n        // host is always player[0]\r\n        Player[2] players;\r\n        GameStates state;\r\n        uint decidedStake;\r\n        // used for foul accusation, a foul is triggered after 5 blocks\r\n        uint blockNumber;\r\n        // player 0 or player 1\r\n        // might turn it into address, we will see\r\n        address accuser;\r\n        // whether or not this game should be in the public pool of joinable games\r\n        bool privateGame;\r\n        address winner;\r\n    }\r\n\r\n    mapping(uint => Game) private openGames;\r\n\r\n    Game private gameTrampoline;\r\n    Player private playerTrampoline;\r\n    Board private trampolineBoard;\r\n    // used in generating UUIDs for the games\r\n    // for now we are gonna use this as-is\r\n    // start at 1 as 0 is used for a non-existing game\r\n    // we just don't deal with it overflowing because it's realistically impossible\r\n    uint private gameCounter;\r\n    uint private lastOpenGame;\r\n    uint8 private foulBlockLen;\r\n    address private owner;\r\n\r\n    constructor() {\r\n        gameCounter = 1;\r\n        lastOpenGame = 1;\r\n        owner = msg.sender;\r\n        // this could be passed as parameter\r\n        foulBlockLen = 5;\r\n    }\r\n\r\n    event ShareID(address _from, address _to, uint _gameID);\r\n    event GameStart(uint _gameID, address _host, address _challenger);\r\n    event SuggestedStake(uint _gameID, address _from, address _to, uint _stakeValue);\r\n    event GamePayable(uint _gameID, address _host, address _challenger, uint _stakeValue);\r\n    event StakePaid(uint _gameID, address _whoPaid);\r\n    event AcceptingBoards(uint _gameID);\r\n    event BoardAcknowledgeEvent(uint _gameID, address _player);\r\n    event PlayerZeroTurn(uint _gameID);\r\n    event ShotsFired(uint _gameID, uint8 _location, address _from);\r\n    event ShotsChecked(uint _gameID, uint8 _location, bool _claim, bool _validity, address _from);\r\n    event RequestBoard(uint _gameID, address _winner);\r\n    event Victory(uint _gameID, address _winner);\r\n    event Foul(uint _gameID, address _accused, uint _block);\r\n    event GameEnded(uint _gameID);\r\n\r\n    error NoOpenGames();\r\n    error InvalidGameID();\r\n    error NotInGame();\r\n    error StakeAlreadyDeposited();\r\n    error WrongStakeAmount(uint expectedStakeValue);\r\n\r\n    modifier gameExists(uint gameID){\r\n        assert(openGames[gameID].valid);\r\n        _;\r\n    }\r\n\r\n    modifier isInGame(uint gameID){\r\n        assert((openGames[gameID].players[0].playerAddress == msg.sender) || (openGames[gameID].players[1].playerAddress == msg.sender));\r\n        _;\r\n    }\r\n\r\n    modifier assertState(uint gameID, GameStates _state){\r\n        if(_state != GameStates.P0_FIRING && _state != GameStates.P1_FIRING && _state != GameStates.P0_CHECKING && _state != GameStates.P1_CHECKING)\r\n            assert(openGames[gameID].state == _state);\r\n        else{\r\n            // We check firing states with P0_FIRING and checking states with P0_CHECKING, for both players\r\n            uint[2] memory indexes = getIndexSender(gameID);\r\n            if(_state == GameStates.P0_FIRING){\r\n                if(indexes[0] == 0)\r\n                    assert(openGames[gameID].state == _state);\r\n                else\r\n                    assert(openGames[gameID].state == GameStates.P1_FIRING);\r\n            }\r\n            else if(_state == GameStates.P0_CHECKING){\r\n                if(indexes[0] == 0)\r\n                    assert(openGames[gameID].state == _state);\r\n                else\r\n                    assert(openGames[gameID].state == GameStates.P1_CHECKING);\r\n            }\r\n            else assert(false);\r\n        }\r\n        _;\r\n    }\r\n\r\n    modifier playerInRange(uint gameID, uint index){\r\n        assert(openGames[gameID].players[index].valid);\r\n        assert(index < openGames[gameID].players.length);\r\n        _;\r\n    }\r\n\r\n    modifier shotOnBoard(uint8 location){\r\n        assert(location < (BOARD_SIZE*BOARD_SIZE));\r\n        _;\r\n    }\r\n\r\n    modifier isWinner(uint gameID){\r\n        assert(openGames[gameID].winner == msg.sender);\r\n        _;\r\n    }\r\n\r\n    function getIndexSender (uint gameID) view private returns(uint[2] memory) {\r\n        // indexes[0]: msg.sender index\r\n        // indexes[1]: msg.sender opponent's index\r\n        uint[2] memory indexes;\r\n        if(msg.sender == openGames[gameID].players[0].playerAddress){\r\n            indexes[0] = 0;\r\n            indexes[1] = 1;\r\n        } else {\r\n            indexes[0] = 1;\r\n            indexes[1] = 0;\r\n        }\r\n        return indexes;\r\n    }\r\n\r\n    // create a Game value, add it to openGames, populate the Player[0]\r\n    function newGame(bool isPrivate) public {\r\n        uint gameID = gameCounter;\r\n        gameCounter++;\r\n        Game storage game = gameTrampoline;\r\n        Player storage host = playerTrampoline;\r\n        host.playerAddress = msg.sender;\r\n        host.valid = true;\r\n        host.hasPaidStake = false;\r\n        game.players[0] = host;\r\n        game.state = GameStates.WAITING;\r\n        game.privateGame = isPrivate;\r\n        game.valid = true;\r\n        game.canPay = false;\r\n        openGames[gameID] = game;\r\n        emit ShareID(address(this), msg.sender, gameID);\r\n        return;\r\n    }\r\n    \r\n    function joinGame(uint gameID) public {\r\n        if(gameID == 0){\r\n            // pick an unassigned game in sequential order\r\n            gameID = lastOpenGame;\r\n            while (gameID < gameCounter){\r\n                // ignore games with sender as host (you can still join your own games directly if you're that lonely)\r\n                if(openGames[gameID].valid == true && \r\n                    openGames[gameID].state == GameStates.WAITING && \r\n                    openGames[gameID].players[0].playerAddress != msg.sender && \r\n                    !openGames[gameID].privateGame){\r\n                    break;\r\n                }\r\n                gameID++;\r\n            }\r\n        }\r\n        // if the game wasn't valid, throw an error\r\n        if(!openGames[gameID].valid)\r\n            revert NoOpenGames();\r\n\r\n        assert(openGames[gameID].state == GameStates.WAITING);\r\n\r\n        // update the lastOpenGame counter no matter what\r\n        lastOpenGame = gameID + 1;\r\n        // set msg sender as this game's player 2\r\n        Player storage challenger = playerTrampoline;\r\n        challenger.playerAddress = msg.sender;\r\n        challenger.valid = true;\r\n        challenger.hasPaidStake = false;\r\n        openGames[gameID].players[1] = challenger;\r\n        // update this game's status\r\n        openGames[gameID].state = GameStates.PLACING_SHIPS;\r\n        // alert the players\r\n        emit AcceptingBoards(gameID);\r\n        return;\r\n    }\r\n\r\n    function checkGameState(uint gameID) public view returns (GameStates) {\r\n        if (openGames[gameID].valid){\r\n            return openGames[gameID].state;\r\n        }\r\n        else \r\n            return(GameStates.NONE);\r\n    }\r\n\r\n    function checkGamePlayer(uint gameID, uint index) public view returns (address) {\r\n        if (openGames[gameID].valid && openGames[gameID].players[index].valid){\r\n            return openGames[gameID].players[index].playerAddress;\r\n        }\r\n        else \r\n            return(address(0));\r\n    }\r\n\r\n    // Function to propose and agree upon a stake between players\r\n    function proposeStake(uint gameID, uint stakeValue) gameExists(gameID) isInGame(gameID) assertState(gameID, GameStates.SETTING_STAKE) public{\r\n        Game memory game = openGames[gameID];\r\n        // Check whether or not this player's opponent has already proposed a stake\r\n        uint opponentIndex;\r\n        uint stakerIndex;\r\n        if(msg.sender == game.players[0].playerAddress){\r\n            opponentIndex = 1;\r\n            stakerIndex = 0;\r\n        } else {\r\n            opponentIndex = 0;\r\n            stakerIndex = 1;\r\n        }\r\n        uint opponentStake = game.players[opponentIndex].proposedStake;\r\n        // set this player's proposed stake to their message\r\n        openGames[gameID].players[stakerIndex].proposedStake = stakeValue;\r\n        // if the opponent has proposed a stake we check whether or not it equals the one proposed by us\r\n        // 0 is not a valid stake\r\n        if(opponentStake != 0 && opponentStake == stakeValue){\r\n            openGames[gameID].decidedStake = stakeValue;\r\n            openGames[gameID].state = GameStates.ACCEPTING_PAYMENT;\r\n            emit GamePayable(gameID, game.players[0].playerAddress, game.players[1].playerAddress, stakeValue);\r\n        }else{\r\n            emit SuggestedStake(gameID, msg.sender, game.players[opponentIndex].playerAddress, stakeValue);\r\n        }\r\n        return;\r\n    }\r\n\r\n    function checkStakePlayerOne(uint gameID) public view returns (uint) {\r\n        if (openGames[gameID].valid && openGames[gameID].players[0].valid){\r\n            return openGames[gameID].players[0].proposedStake;\r\n        }\r\n        else \r\n            return(0);\r\n    }\r\n\r\n    function checkStakePlayerTwo(uint gameID) public view returns (uint) {\r\n        if (openGames[gameID].valid && openGames[gameID].players[1].valid){\r\n            return openGames[gameID].players[1].proposedStake;\r\n        }\r\n        else \r\n            return(0);\r\n    }\r\n\r\n    function checkStakeGame(uint gameID) public view returns (uint) {\r\n        if (openGames[gameID].valid && openGames[gameID].players[0].valid && openGames[gameID].players[1].valid)\r\n            return openGames[gameID].decidedStake;\r\n        else\r\n            return(0);\r\n    }\r\n    \r\n    function payStake(uint gameID) gameExists(gameID) isInGame(gameID) assertState(gameID, GameStates.ACCEPTING_PAYMENT) external payable {\r\n        if((msg.sender == openGames[gameID].players[0].playerAddress && openGames[gameID].players[0].hasPaidStake) ||\r\n            (msg.sender == openGames[gameID].players[1].playerAddress && openGames[gameID].players[1].hasPaidStake))\r\n            revert StakeAlreadyDeposited();\r\n        // only accept payments for the exact amount owed\r\n        if(msg.value != openGames[gameID].decidedStake)\r\n            revert WrongStakeAmount(openGames[gameID].decidedStake);\r\n        // now we check who the sender is\r\n        uint senderIndex;\r\n        uint challengerIndex;\r\n        if(msg.sender == openGames[gameID].players[0].playerAddress){\r\n            senderIndex = 0;\r\n            challengerIndex = 1;\r\n        }else{\r\n            senderIndex = 1;\r\n            challengerIndex = 0;\r\n        }\r\n        openGames[gameID].players[senderIndex].hasPaidStake = true;\r\n        // Clear possible foul\r\n        ClearFoul(gameID);\r\n        emit StakePaid(gameID, msg.sender);\r\n        // if both players have paid the owed stake the game can move on to its next state\r\n        if(openGames[gameID].players[challengerIndex].hasPaidStake){\r\n            openGames[gameID].state = GameStates.P0_FIRING;\r\n            emit PlayerZeroTurn(gameID);\r\n        }\r\n    }\r\n\r\n    function deleteGame(uint gameID) internal{ \r\n        delete openGames[gameID].players[0].shots_board;\r\n        delete openGames[gameID].players[1].shots_board;\r\n        delete openGames[gameID].players[0];\r\n        delete openGames[gameID].players[1];\r\n        delete openGames[gameID];\r\n    }\r\n\r\n    function declineStake(uint gameID) gameExists(gameID) isInGame(gameID) assertState(gameID, GameStates.ACCEPTING_PAYMENT) external {\r\n        // if this player has already paid the stake, they can't decline it\r\n        if((msg.sender == openGames[gameID].players[0].playerAddress && openGames[gameID].players[0].hasPaidStake) ||\r\n            (msg.sender == openGames[gameID].players[1].playerAddress && openGames[gameID].players[1].hasPaidStake))\r\n            revert StakeAlreadyDeposited();\r\n        // now we check who the sender is\r\n        uint senderIndex;\r\n        uint challengerIndex;\r\n        if(msg.sender == openGames[gameID].players[0].playerAddress){\r\n            senderIndex = 0;\r\n            challengerIndex = 1;\r\n        }else{\r\n            senderIndex = 1;\r\n            challengerIndex = 0;\r\n        }\r\n        // check if the opponent has already paid its stake\r\n        if(openGames[gameID].players[challengerIndex].hasPaidStake){\r\n            // if they have, we refund it\r\n            (bool success, ) = openGames[gameID].players[challengerIndex].playerAddress.call{value:openGames[gameID].decidedStake}(\"\");\r\n            require(success);\r\n        }\r\n        // then we delete the game\r\n        deleteGame(gameID);\r\n        emit GameEnded(gameID);\r\n    }\r\n    \r\n    function checkGamePayable(uint gameID) public view returns (bool) {\r\n        if (openGames[gameID].valid && openGames[gameID].players[0].valid && openGames[gameID].players[1].valid)\r\n            return openGames[gameID].canPay;\r\n        else\r\n            return(false);\r\n    }\r\n    \r\n    function PlaceShips(uint gameID, bytes32 boardRoot) gameExists(gameID) isInGame(gameID) assertState(gameID, GameStates.PLACING_SHIPS) public{\r\n        uint index;\r\n        uint oppIdx;\r\n        msg.sender == openGames[gameID].players[0].playerAddress ? index = 0 : index = 1;\r\n        msg.sender == openGames[gameID].players[0].playerAddress ? oppIdx = 1 : oppIdx = 0;\r\n        require(openGames[gameID].players[index].boardTreeRoot == 0x0);\r\n        // Instantiate a new shots board\r\n        // Instantiate the Board struct itself and assign it to a player\r\n        Board storage playerBoard = trampolineBoard;\r\n        trampolineBoard.valid = true;\r\n        trampolineBoard.totalPieces = NUMBER_OF_SHIP_SQUARES;\r\n        trampolineBoard.totalShots = (BOARD_SIZE*BOARD_SIZE);\r\n        for(uint i = 0; i < (BOARD_SIZE*BOARD_SIZE); i++){\r\n            trampolineBoard.board[i] = false;\r\n        }\r\n        openGames[gameID].players[index].shots_board = playerBoard;\r\n        // save the received boardRoot, finally\r\n        openGames[gameID].players[index].boardTreeRoot = boardRoot;\r\n        emit BoardAcknowledgeEvent(gameID, msg.sender);\r\n        if(openGames[gameID].players[oppIdx].boardTreeRoot != 0x0){\r\n            openGames[gameID].state = GameStates.SETTING_STAKE;\r\n            emit GameStart(gameID, openGames[gameID].players[0].playerAddress, msg.sender);\r\n        }\r\n    }\r\n\r\n    function TestWinner(uint gameID, address claimant) private {\r\n        openGames[gameID].winner = claimant;\r\n        openGames[gameID].state = GameStates.CHECKING_WINNER;\r\n        RequestWinnerBoard(gameID, openGames[gameID].winner);\r\n    }\r\n\r\n    // for info on what location is see \"Implementation of the user-side game board\" in README.md\r\n    function FireTorpedo(uint gameID, uint8 location) gameExists(gameID) isInGame(gameID) shotOnBoard(location) assertState(gameID, GameStates.P0_FIRING) public {\r\n        // if we got past the modifiers, this means the shot is valid\r\n        // let's clear any potential fouls for this user\r\n        ClearFoul(gameID);\r\n        uint[2] memory indexes = getIndexSender(gameID);\r\n        // Rotate into correct next state\r\n        openGames[gameID].state == GameStates.P0_FIRING ? openGames[gameID].state = GameStates.P1_CHECKING : openGames[gameID].state = GameStates.P0_CHECKING;\r\n        // Now for some game logic\r\n        // whatever happens, we lower the totalShots counter of our system by one\r\n        openGames[gameID].players[indexes[0]].shots_board.totalShots--;\r\n        // Then we evaluate whether or not this is zero. If it is, This party wins automatically.\r\n        // We do this here to avoid opponents stalling out on the reply for 5 blocks on what is a foregone conclusion\r\n        if (openGames[gameID].players[indexes[0]].shots_board.totalShots == 0){\r\n            TestWinner(gameID, msg.sender);\r\n        } else {\r\n            emit ShotsFired(gameID, location, msg.sender);\r\n        }\r\n    }\r\n\r\n    function ConfirmShot(uint gameID, uint8 location, bool isHit, bytes32 leaf, bytes32[] calldata proof) public {\r\n        // we assert manually rather than with modifiers to avoid a stack-too-deep error\r\n        assert(openGames[gameID].valid);\r\n        assert(location < (BOARD_SIZE*BOARD_SIZE));\r\n        if(openGames[gameID].players[0].playerAddress == msg.sender){\r\n            assert(openGames[gameID].state == GameStates.P0_CHECKING);\r\n        } else if (openGames[gameID].players[1].playerAddress == msg.sender){\r\n            assert(openGames[gameID].state == GameStates.P1_CHECKING);\r\n        } else {\r\n            assert(false);\r\n        }\r\n        uint[2] memory indexes = getIndexSender(gameID);\r\n        // make sure this node corresponds to the board tile and truth value we are checking\r\n        assert(leaf == GenLeafNode(location, isHit));\r\n        // execute the proof test\r\n        if(Merkle.verifyCalldata(proof, openGames[gameID].players[indexes[0]].boardTreeRoot, leaf)){\r\n            // if we got this far it means the reply is valid\r\n            // let's clear any potential fouls for this user\r\n            ClearFoul(gameID);\r\n            // we could verify this user's proof\r\n            if (isHit){\r\n                // decrement our opponent's view of our total pieces\r\n                // only if the shot landed on a previously undeclared tile\r\n                // alas this is needed as the user might just keep asking for the same time over and over\r\n                // I don't know why they would do this, but they can\r\n                if(!openGames[gameID].players[indexes[1]].shots_board.board[location]){\r\n                    openGames[gameID].players[indexes[1]].shots_board.totalPieces--;\r\n                    openGames[gameID].players[indexes[1]].shots_board.board[location] = true;\r\n                    // if this was our last piece, we lost\r\n                    if(openGames[gameID].players[indexes[1]].shots_board.totalPieces == 0){\r\n                        /*\r\n                        openGames[gameID].winner = openGames[gameID].players[indexes[1]].playerAddress;\r\n                        openGames[gameID].state = GameStates.CHECKING_WINNER;\r\n                        RequestWinnerBoard(gameID, openGames[gameID].winner);\r\n                        */\r\n                        TestWinner(gameID, openGames[gameID].players[indexes[1]].playerAddress);\r\n                        return;\r\n                    }\r\n                }   \r\n            }\r\n            // rotate state\r\n            openGames[gameID].state == GameStates.P1_CHECKING ? openGames[gameID].state = GameStates.P1_FIRING : openGames[gameID].state = GameStates.P0_FIRING;\r\n            emit ShotsChecked(gameID, location, isHit, true, msg.sender);\r\n        } else {\r\n            // else we emit a 'shot failed to validate' message\r\n            // keep in mind the foul for this user is NOT triggered automatically.\r\n            emit ShotsChecked(gameID, location, isHit, false, msg.sender);\r\n        }\r\n    }\r\n\r\n    // this function generates a node locally in the same way a client would generate it\r\n    // it could be internal, we keep it public for now for debug purposes\r\n    function GenLeafNode(uint8 tile, bool ship) pure public returns (bytes32) {\r\n        return keccak256(abi.encode(tile,ship));\r\n    }\r\n\r\n    // a player who sees their address here will need to call VerifyWinner\r\n    function RequestWinnerBoard(uint gameID, address winnerAddress) private {\r\n        emit RequestBoard(gameID, winnerAddress);\r\n    }\r\n\r\n    // sadly using our modifiers here runs into a stack too deep compilation issue\r\n    // ergo we must assert a few security values by hand\r\n    // yes, the 'tiles' array is completely useless but we will leave it there for now\r\n    // it could be useful for future expansions into 5d battleships\r\n    function VerifyWinner(\r\n    uint gameID,  \r\n    uint8[] calldata tiles,\r\n    bool[] calldata ships,\r\n    bytes32[] calldata nodes,\r\n    bytes32[][] calldata proofs,\r\n    bytes32 root\r\n    ) public {\r\n        uint winnerIndex;\r\n        require(openGames[gameID].valid, \"Game does not exist\");\r\n        require(openGames[gameID].state == GameStates.CHECKING_WINNER, \"Game is not in the CHECKING_WINNER state\");\r\n        if(openGames[gameID].winner == openGames[gameID].players[0].playerAddress){\r\n            winnerIndex = 0;\r\n        } else {\r\n            winnerIndex = 1;\r\n        }\r\n        require(openGames[gameID].winner == msg.sender, \"Only the winner can verify their board\");\r\n        require(root == openGames[gameID].players[winnerIndex].boardTreeRoot, \"The root provided does not match the root of the board\");\r\n        require(tiles.length == (BOARD_SIZE*BOARD_SIZE), \"The tiles array is not the correct size\");\r\n        require(ships.length == (BOARD_SIZE*BOARD_SIZE), \"The ships array is not the correct size\");\r\n        // First operation: make sure this board really has the required number of ships on it\r\n        // and make sure the winner didn't send us a different board\r\n        // in the same cycle, verify that the node is part of the tree\r\n        // we already made sure this root is the correct one\r\n        uint8 shipsTotal = 0;\r\n        for(uint8 i = 0; i < (BOARD_SIZE*BOARD_SIZE); i++){\r\n            if(ships[i])\r\n                shipsTotal++;\r\n            require(nodes[i] == GenLeafNode(tiles[i], ships[i]), \"The node does not match the tile and ship provided\");\r\n            // TODO: fix the frontend so that the line below can parse the calldata correctly\r\n            // this works in the Chai tests\r\n            require(Merkle.verifyCalldata(proofs[i], root, nodes[i]), \"The proof does not match the root and node provided\");\r\n        }\r\n        require(shipsTotal == NUMBER_OF_SHIP_SQUARES, \"The board does not have the correct number of ships\");\r\n        // we don't use a conditional branch to alert the other player, as a Foul has already been triggered.\r\n        openGames[gameID].canPay = true;\r\n        openGames[gameID].state = GameStates.PAYABLE;\r\n        ClearFoul(gameID);\r\n        emit Victory(gameID, msg.sender);\r\n    }\r\n\r\n    function echo2dArray(bytes32[][] calldata array) public pure returns (bytes32[][] calldata){\r\n        return array;\r\n    }\r\n\r\n    function echoNodeBytes(bytes32 node) public pure returns (bytes32) {\r\n        return node;\r\n    }\r\n\r\n    function AbandonGame(uint gameID) gameExists(gameID) isInGame(gameID) external {\r\n        // see if the game has a second player\r\n        uint opponentIndex;\r\n        if(msg.sender == openGames[gameID].players[0].playerAddress){\r\n            opponentIndex = 1;\r\n        } else {\r\n            opponentIndex = 0;\r\n        }\r\n        // check if both have paid the stake\r\n        if(openGames[gameID].players[opponentIndex].hasPaidStake && openGames[gameID].players[1 - opponentIndex].hasPaidStake){\r\n            // if they have, we declare the opponent the winner\r\n            TestWinner(gameID, openGames[gameID].players[opponentIndex].playerAddress);\r\n        } else {\r\n            // if only the opponent has paid the stake, we refund it\r\n            if(openGames[gameID].players[opponentIndex].hasPaidStake){\r\n                (bool success, ) = openGames[gameID].players[opponentIndex].playerAddress.call{value:openGames[gameID].decidedStake}(\"\");\r\n                require(success);\r\n            }\r\n            // this delition only happens in this branch as the game will be deleted normally from testwinner otherwise\r\n            emit GameEnded(gameID);\r\n            deleteGame(gameID);\r\n        } // we keep the stake if the user cancelling the game has paid it. If they want the stake back because their oppoent is afk they should declare a foul instead of cancelling\r\n    }\r\n\r\n    function WithdrawWinnings(uint gameID) gameExists(gameID) isWinner(gameID) assertState(gameID, GameStates.PAYABLE) external {\r\n        uint amountOwed = openGames[gameID].decidedStake*2;\r\n        openGames[gameID].state = GameStates.DONE;\r\n        (bool success, ) = msg.sender.call{value:amountOwed}(\"\");\r\n        require(success);\r\n        emit GameEnded(gameID);\r\n        deleteGame(gameID);\r\n    }\r\n\r\n    // a player can accuse another player of being afk if they don't act within X blocks\r\n    // for this to happen, the state has to be one they don't control\r\n    function FoulAccusation(uint gameID) gameExists(gameID) public {\r\n        uint senderIndex;\r\n        if(msg.sender == openGames[gameID].players[0].playerAddress)\r\n            senderIndex = 0;\r\n        else if (msg.sender == openGames[gameID].players[1].playerAddress)\r\n            senderIndex = 1;\r\n        // if the game is stuck waiting on Player 1, only accept accusations from Player 0\r\n        if(openGames[gameID].state == GameStates.P1_FIRING || openGames[gameID].state == GameStates.P1_CHECKING){\r\n            assert(senderIndex == 0);\r\n        // if the game is stuck waiting on Player 0, only accept accusations from Player 1\r\n        } else if (openGames[gameID].state == GameStates.P0_FIRING || openGames[gameID].state == GameStates.P0_CHECKING){\r\n            assert(senderIndex == 1);\r\n        } \r\n        // if the game is stuck accepting payments, only accept accusations by the side which hasn't paid yet\r\n        else if(openGames[gameID].state == GameStates.ACCEPTING_PAYMENT){\r\n            assert(openGames[gameID].players[senderIndex].hasPaidStake);\r\n        }\r\n        // if the game is stuck checking the winner, because a user isn't providing their board, only accept fouls from the non-winner\r\n        else if(openGames[gameID].state == GameStates.CHECKING_WINNER)\r\n            assert(msg.sender != openGames[gameID].winner);\r\n        else {\r\n            assert(false);\r\n        }\r\n        \r\n        require(openGames[gameID].accuser == address(0));\r\n        // very important: this is the only place where accuser can be set to anything other than 0\r\n        openGames[gameID].accuser = msg.sender;\r\n        openGames[gameID].blockNumber = block.number;\r\n        emit Foul(gameID, openGames[gameID].players[1 - senderIndex].playerAddress, openGames[gameID].blockNumber);\r\n    }\r\n\r\n    function CheckFoulTimer(uint gameID) gameExists(gameID) isInGame(gameID) public {\r\n        require(openGames[gameID].accuser != address(0));\r\n        if(openGames[gameID].blockNumber < (block.number + foulBlockLen)){\r\n            // the other player abandoned this game\r\n            TestWinner(gameID, openGames[gameID].accuser);\r\n        }\r\n    }\r\n\r\n    // a foul can only be cleared by properly advancing the state\r\n    // thus this function has to be called from within our check/fire functions\r\n    function ClearFoul(uint gameID) private {\r\n        if(openGames[gameID].accuser != address(0) && openGames[gameID].accuser != msg.sender){\r\n            // if we are out of time to context the foul this function will fail\r\n            assert(openGames[gameID].blockNumber <= (block.number + foulBlockLen));\r\n            // else it will clear the foul\r\n            // just like setting the accuser, this is THE ONLY place in the contract where this assignment is made.\r\n            openGames[gameID].accuser = address(0);\r\n        }\r\n    }\r\n\r\n    // Assortment of debug functions\r\n    // Despite the name, this function also sets the winner to a given address\r\n    // the main use for it is testing endgame stages of the contract without having to manually play a game\r\n    \r\n    function ChangeState(uint gameID, GameStates state, address winner) public {\r\n        assert(msg.sender == owner);\r\n        openGames[gameID].state = state;\r\n        openGames[gameID].winner = winner;\r\n    }\r\n    \r\n}",
  "sourcePath": "C:\\Users\\maste\\Documents\\Code\\Battleships\\contracts\\Battleships.sol",
  "compiler": {
    "name": "solc",
    "version": "0.8.19+commit.7dd6d404.Emscripten.clang"
  },
  "schemaVersion": "3.4.14",
  "updatedAt": "2023-06-01T21:36:36.588Z",
  "networkType": "ethereum",
  "devdoc": {
    "kind": "dev",
    "methods": {},
    "version": 1
  },
  "userdoc": {
    "kind": "user",
    "methods": {},
    "version": 1
  }
}