{
  "contractName": "Battleships",
  "abi": [
    {
      "inputs": [],
      "stateMutability": "nonpayable",
      "type": "constructor"
    },
    {
      "inputs": [],
      "name": "InvalidGameID",
      "type": "error"
    },
    {
      "inputs": [],
      "name": "NotInGame",
      "type": "error"
    },
    {
      "inputs": [],
      "name": "StakeAlreadyDeposited",
      "type": "error"
    },
    {
      "inputs": [
        {
          "internalType": "uint256",
          "name": "expectedStakeValue",
          "type": "uint256"
        }
      ],
      "name": "WrongStakeAmount",
      "type": "error"
    },
    {
      "anonymous": false,
      "inputs": [
        {
          "indexed": false,
          "internalType": "uint256",
          "name": "_gameID",
          "type": "uint256"
        }
      ],
      "name": "AcceptingBoards",
      "type": "event"
    },
    {
      "anonymous": false,
      "inputs": [
        {
          "indexed": false,
          "internalType": "uint256",
          "name": "_gameID",
          "type": "uint256"
        },
        {
          "indexed": false,
          "internalType": "address",
          "name": "_host",
          "type": "address"
        },
        {
          "indexed": false,
          "internalType": "address",
          "name": "_challenger",
          "type": "address"
        },
        {
          "indexed": false,
          "internalType": "uint256",
          "name": "_stakeValue",
          "type": "uint256"
        }
      ],
      "name": "GamePayable",
      "type": "event"
    },
    {
      "anonymous": false,
      "inputs": [
        {
          "indexed": false,
          "internalType": "uint256",
          "name": "_gameID",
          "type": "uint256"
        },
        {
          "indexed": false,
          "internalType": "address",
          "name": "_host",
          "type": "address"
        },
        {
          "indexed": false,
          "internalType": "address",
          "name": "_challenger",
          "type": "address"
        }
      ],
      "name": "GameStart",
      "type": "event"
    },
    {
      "anonymous": false,
      "inputs": [
        {
          "indexed": false,
          "internalType": "address",
          "name": "_from",
          "type": "address"
        },
        {
          "indexed": false,
          "internalType": "address",
          "name": "_to",
          "type": "address"
        },
        {
          "indexed": false,
          "internalType": "uint256",
          "name": "_gameID",
          "type": "uint256"
        }
      ],
      "name": "ShareID",
      "type": "event"
    },
    {
      "anonymous": false,
      "inputs": [
        {
          "indexed": false,
          "internalType": "uint256",
          "name": "_gameID",
          "type": "uint256"
        },
        {
          "indexed": false,
          "internalType": "address",
          "name": "_whoPaid",
          "type": "address"
        }
      ],
      "name": "StakePaid",
      "type": "event"
    },
    {
      "anonymous": false,
      "inputs": [
        {
          "indexed": false,
          "internalType": "uint256",
          "name": "_gameID",
          "type": "uint256"
        },
        {
          "indexed": false,
          "internalType": "address",
          "name": "_from",
          "type": "address"
        },
        {
          "indexed": false,
          "internalType": "address",
          "name": "_to",
          "type": "address"
        },
        {
          "indexed": false,
          "internalType": "uint256",
          "name": "_stakeValue",
          "type": "uint256"
        }
      ],
      "name": "SuggestedStake",
      "type": "event"
    },
    {
      "inputs": [
        {
          "internalType": "bool",
          "name": "isPrivate",
          "type": "bool"
        }
      ],
      "name": "newGame",
      "outputs": [],
      "stateMutability": "nonpayable",
      "type": "function"
    },
    {
      "inputs": [
        {
          "internalType": "uint256",
          "name": "gameID",
          "type": "uint256"
        }
      ],
      "name": "joinGame",
      "outputs": [],
      "stateMutability": "nonpayable",
      "type": "function"
    },
    {
      "inputs": [
        {
          "internalType": "uint256",
          "name": "gameID",
          "type": "uint256"
        }
      ],
      "name": "checkGameState",
      "outputs": [
        {
          "internalType": "enum Battleships.GameStates",
          "name": "",
          "type": "uint8"
        }
      ],
      "stateMutability": "view",
      "type": "function",
      "constant": true
    },
    {
      "inputs": [
        {
          "internalType": "uint256",
          "name": "gameID",
          "type": "uint256"
        }
      ],
      "name": "checkGamePlayerOne",
      "outputs": [
        {
          "internalType": "address",
          "name": "",
          "type": "address"
        }
      ],
      "stateMutability": "view",
      "type": "function",
      "constant": true
    },
    {
      "inputs": [
        {
          "internalType": "uint256",
          "name": "gameID",
          "type": "uint256"
        }
      ],
      "name": "checkGamePlayerTwo",
      "outputs": [
        {
          "internalType": "address",
          "name": "",
          "type": "address"
        }
      ],
      "stateMutability": "view",
      "type": "function",
      "constant": true
    },
    {
      "inputs": [
        {
          "internalType": "uint256",
          "name": "gameID",
          "type": "uint256"
        },
        {
          "internalType": "uint256",
          "name": "stakeValue",
          "type": "uint256"
        }
      ],
      "name": "proposeStake",
      "outputs": [],
      "stateMutability": "nonpayable",
      "type": "function"
    },
    {
      "inputs": [
        {
          "internalType": "uint256",
          "name": "gameID",
          "type": "uint256"
        }
      ],
      "name": "checkStakePlayerOne",
      "outputs": [
        {
          "internalType": "uint256",
          "name": "",
          "type": "uint256"
        }
      ],
      "stateMutability": "view",
      "type": "function",
      "constant": true
    },
    {
      "inputs": [
        {
          "internalType": "uint256",
          "name": "gameID",
          "type": "uint256"
        }
      ],
      "name": "checkStakePlayerTwo",
      "outputs": [
        {
          "internalType": "uint256",
          "name": "",
          "type": "uint256"
        }
      ],
      "stateMutability": "view",
      "type": "function",
      "constant": true
    },
    {
      "inputs": [
        {
          "internalType": "uint256",
          "name": "gameID",
          "type": "uint256"
        }
      ],
      "name": "checkStakeGame",
      "outputs": [
        {
          "internalType": "uint256",
          "name": "",
          "type": "uint256"
        }
      ],
      "stateMutability": "view",
      "type": "function",
      "constant": true
    },
    {
      "inputs": [
        {
          "internalType": "uint256",
          "name": "gameID",
          "type": "uint256"
        }
      ],
      "name": "payStake",
      "outputs": [],
      "stateMutability": "payable",
      "type": "function",
      "payable": true
    },
    {
      "inputs": [
        {
          "internalType": "uint256",
          "name": "gameID",
          "type": "uint256"
        }
      ],
      "name": "checkPaymentPlayerOne",
      "outputs": [
        {
          "internalType": "bool",
          "name": "",
          "type": "bool"
        }
      ],
      "stateMutability": "view",
      "type": "function",
      "constant": true
    },
    {
      "inputs": [
        {
          "internalType": "uint256",
          "name": "gameID",
          "type": "uint256"
        }
      ],
      "name": "checkPaymentPlayerTwo",
      "outputs": [
        {
          "internalType": "bool",
          "name": "",
          "type": "bool"
        }
      ],
      "stateMutability": "view",
      "type": "function",
      "constant": true
    },
    {
      "inputs": [
        {
          "internalType": "uint256",
          "name": "gameID",
          "type": "uint256"
        }
      ],
      "name": "checkGamePayable",
      "outputs": [
        {
          "internalType": "bool",
          "name": "",
          "type": "bool"
        }
      ],
      "stateMutability": "view",
      "type": "function",
      "constant": true
    }
  ],
  "bytecode": "0x608060405234801561001057600080fd5b506001602d819055506001602e819055506128d4806100306000396000f3fe6080604052600436106100c25760003560e01c8063699f5aeb1161007f578063d46d077711610059578063d46d0777146102b7578063efaa55a0146102f4578063f28ae7dd1461031d578063fba523b714610346576100c2565b8063699f5aeb146102005780639a7e4cea1461023d578063aa3ee9151461027a576100c2565b8063012b61f0146100c757806302ecb0e8146101045780630e37dcd0146101415780631de954251461015d5780632b170aac1461019a57806354d83c65146101c3575b600080fd5b3480156100d357600080fd5b506100ee60048036038101906100e991906124d9565b610383565b6040516100fb9190612521565b60405180910390f35b34801561011057600080fd5b5061012b600480360381019061012691906124d9565b610405565b6040516101389190612521565b60405180910390f35b61015b600480360381019061015691906124d9565b61047a565b005b34801561016957600080fd5b50610184600480360381019061017f91906124d9565b610a6c565b604051610191919061257d565b60405180910390f35b3480156101a657600080fd5b506101c160048036038101906101bc91906125c4565b610ae1565b005b3480156101cf57600080fd5b506101ea60048036038101906101e591906124d9565b610ecb565b6040516101f79190612521565b60405180910390f35b34801561020c57600080fd5b50610227600480360381019061022291906124d9565b610f40565b6040516102349190612600565b60405180910390f35b34801561024957600080fd5b50610264600480360381019061025f91906124d9565b610fc2565b6040516102719190612692565b60405180910390f35b34801561028657600080fd5b506102a1600480360381019061029c91906124d9565b610ff2565b6040516102ae9190612600565b60405180910390f35b3480156102c357600080fd5b506102de60048036038101906102d991906124d9565b611067565b6040516102eb919061257d565b60405180910390f35b34801561030057600080fd5b5061031b600480360381019061031691906124d9565b6110dc565b005b34801561032957600080fd5b50610344600480360381019061033f91906126ad565b61173d565b005b34801561035257600080fd5b5061036d600480360381019061036891906124d9565b611cf2565b60405161037a9190612600565b60405180910390f35b60008061038f83611d67565b9050806000015180156103bf575080604001516000600281106103b5576103b46126ed565b5b6020020151600001515b80156103e8575080604001516001600281106103de576103dd6126ed565b5b6020020151600001515b156103fa578060200151915050610400565b60009150505b919050565b60008061041183611d67565b90508060000151801561044157508060400151600160028110610437576104366126ed565b5b6020020151600001515b1561046f57806040015160016002811061045e5761045d6126ed565b5b602002015160200151915050610475565b60009150505b919050565b60008082815260200190815260200160002060000160009054906101000a900460ff1615806104f05750600260098111156104b8576104b761261b565b5b600080838152602001908152602001600020601b0160009054906101000a900460ff1660098111156104ed576104ec61261b565b5b14155b15610527576040517fbbec4dc200000000000000000000000000000000000000000000000000000000815260040160405180910390fd5b60008082815260200190815260200160002060010160006002811061054f5761054e6126ed565b5b600d020160000160029054906101000a900473ffffffffffffffffffffffffffffffffffffffff1673ffffffffffffffffffffffffffffffffffffffff163373ffffffffffffffffffffffffffffffffffffffff1614158061062c57506000808281526020019081526020016000206001016001600281106105d4576105d36126ed565b5b600d020160000160029054906101000a900473ffffffffffffffffffffffffffffffffffffffff1673ffffffffffffffffffffffffffffffffffffffff163373ffffffffffffffffffffffffffffffffffffffff1614155b15610663576040517f43050d9600000000000000000000000000000000000000000000000000000000815260040160405180910390fd5b60008082815260200190815260200160002060010160006002811061068b5761068a6126ed565b5b600d020160000160029054906101000a900473ffffffffffffffffffffffffffffffffffffffff1673ffffffffffffffffffffffffffffffffffffffff163373ffffffffffffffffffffffffffffffffffffffff1614801561072657506000808281526020019081526020016000206001016000600281106107105761070f6126ed565b5b600d020160000160019054906101000a900460ff165b806107f05750600080828152602001908152602001600020600101600160028110610754576107536126ed565b5b600d020160000160029054906101000a900473ffffffffffffffffffffffffffffffffffffffff1673ffffffffffffffffffffffffffffffffffffffff163373ffffffffffffffffffffffffffffffffffffffff161480156107ef57506000808281526020019081526020016000206001016001600281106107d9576107d86126ed565b5b600d020160000160019054906101000a900460ff165b5b15610827576040517f5e558b2300000000000000000000000000000000000000000000000000000000815260040160405180910390fd5b600080828152602001908152602001600020601c0154341461089557600080828152602001908152602001600020601c01546040517f66cb868a00000000000000000000000000000000000000000000000000000000815260040161088c9190612600565b60405180910390fd5b6000806000808481526020019081526020016000206001016000600281106108c0576108bf6126ed565b5b600d020160000160029054906101000a900473ffffffffffffffffffffffffffffffffffffffff1673ffffffffffffffffffffffffffffffffffffffff163373ffffffffffffffffffffffffffffffffffffffff1603610927576000915060019050610930565b60019150600090505b60016000808581526020019081526020016000206001018360028110610959576109586126ed565b5b600d020160000160016101000a81548160ff0219169083151502179055507f95ddb9abe17699603c18cef7bcfd33947d19c8eb237e01edac0bd509b481339e83336040516109a892919061271c565b60405180910390a160008084815260200190815260200160002060010181600281106109d7576109d66126ed565b5b600d020160000160019054906101000a900460ff1615610a67576003600080858152602001908152602001600020601b0160006101000a81548160ff02191690836009811115610a2a57610a2961261b565b5b02179055507f972651cf62ccc65bd2ba0fd996eb34701d5773844d3303545d5b4cb29738f10483604051610a5e9190612600565b60405180910390a15b505050565b600080610a7883611d67565b905080600001518015610aa857508060400151600060028110610a9e57610a9d6126ed565b5b6020020151600001515b15610ad6578060400151600060028110610ac557610ac46126ed565b5b602002015160400151915050610adc565b60009150505b919050565b6000602d549050602d6000815480929190610afb90612774565b9190505550600060019050600060209050338160000160026101000a81548173ffffffffffffffffffffffffffffffffffffffff021916908373ffffffffffffffffffffffffffffffffffffffff16021790555060018160000160006101000a81548160ff02191690831515021790555060008160000160016101000a81548160ff0219169083151502179055508082600101600060028110610ba157610ba06126ed565b5b600d02016000820160009054906101000a900460ff168160000160006101000a81548160ff0219169083151502179055506000820160019054906101000a900460ff168160000160016101000a81548160ff0219169083151502179055506000820160029054906101000a900473ffffffffffffffffffffffffffffffffffffffff168160000160026101000a81548173ffffffffffffffffffffffffffffffffffffffff021916908373ffffffffffffffffffffffffffffffffffffffff160217905550600182015481600101556002820154816002015560038201816003016000820160009054906101000a900460ff168160000160006101000a81548160ff0219169083151502179055506001820181600101906008610cc5929190612030565b50600982015481600901555050905050600082601b0160006101000a81548160ff02191690836009811115610cfd57610cfc61261b565b5b02179055508382601e0160016101000a81548160ff02191690831515021790555060018260000160006101000a81548160ff02191690831515021790555060008260000160016101000a81548160ff021916908315150217905550816000808581526020019081526020016000206000820160009054906101000a900460ff168160000160006101000a81548160ff0219169083151502179055506000820160019054906101000a900460ff168160000160016101000a81548160ff0219169083151502179055506001820181600101906002610ddb92919061207a565b50601b820160009054906101000a900460ff1681601b0160006101000a81548160ff02191690836009811115610e1457610e1361261b565b5b0217905550601c82015481601c0155601d82015481601d0155601e820160009054906101000a900460ff1681601e0160006101000a81548160ff021916908315150217905550601e820160019054906101000a900460ff1681601e0160016101000a81548160ff0219169083151502179055509050507f1edfba130181c8da1b98834639c59b5287912fcc01104c5a7a6e6c8cd194e302303385604051610ebd939291906127bc565b60405180910390a150505050565b600080610ed783611d67565b905080600001518015610f0757508060400151600060028110610efd57610efc6126ed565b5b6020020151600001515b15610f35578060400151600060028110610f2457610f236126ed565b5b602002015160200151915050610f3b565b60009150505b919050565b600080610f4c83611d67565b905080600001518015610f7c57508060400151600060028110610f7257610f716126ed565b5b6020020151600001515b8015610fa557508060400151600160028110610f9b57610f9a6126ed565b5b6020020151600001515b15610fb7578060800151915050610fbd565b60009150505b919050565b600080610fce83611d67565b9050806000015115610fe7578060600151915050610fed565b60099150505b919050565b600080610ffe83611d67565b90508060000151801561102e57508060400151600160028110611024576110236126ed565b5b6020020151600001515b1561105c57806040015160016002811061104b5761104a6126ed565b5b602002015160600151915050611062565b60009150505b919050565b60008061107383611d67565b9050806000015180156110a357508060400151600160028110611099576110986126ed565b5b6020020151600001515b156110d15780604001516001600281106110c0576110bf6126ed565b5b6020020151604001519150506110d7565b60009150505b919050565b6000810361146157602e5490505b602d548111611459576000806000838152602001908152602001600020604051806101000160405290816000820160009054906101000a900460ff161515151581526020016000820160019054906101000a900460ff1615151515815260200160018201600280602002604051908101604052809291906000905b82821015611305578382600d02016040518060c00160405290816000820160009054906101000a900460ff161515151581526020016000820160019054906101000a900460ff161515151581526020016000820160029054906101000a900473ffffffffffffffffffffffffffffffffffffffff1673ffffffffffffffffffffffffffffffffffffffff1673ffffffffffffffffffffffffffffffffffffffff1681526020016001820154815260200160028201548152602001600382016040518060600160405290816000820160009054906101000a900460ff1615151515815260200160018201600880602002604051908101604052809291906000905b828210156112e0578382016008806020026040519081016040528092919082600880156112cc576020028201916000905b82829054906101000a900460ff161515815260200190600101906020826000010492830192600103820291508084116112965790505b505050505081526020019060010190611265565b5050505081526020016009820154815250508152505081526020019060010190611165565b505050508152602001601b820160009054906101000a900460ff1660098111156113325761133161261b565b5b60098111156113445761134361261b565b5b8152602001601c8201548152602001601d8201548152602001601e820160009054906101000a900460ff16151515158152602001601e820160019054906101000a900460ff161515151581525050905060011515816000015115151480156113d45750600060098111156113bb576113ba61261b565b5b816060015160098111156113d2576113d161261b565b5b145b801561142c57503373ffffffffffffffffffffffffffffffffffffffff16816040015160006002811061140a576114096126ed565b5b60200201516040015173ffffffffffffffffffffffffffffffffffffffff1614155b801561143a57508060e00151155b156114455750611459565b818061145090612774565b925050506110ea565b80602e819055505b60008082815260200190815260200160002060000160009054906101000a900460ff16611491576114906127f3565b5b600060209050338160000160026101000a81548173ffffffffffffffffffffffffffffffffffffffff021916908373ffffffffffffffffffffffffffffffffffffffff16021790555060018160000160006101000a81548160ff02191690831515021790555060008160000160016101000a81548160ff0219169083151502179055508060008084815260200190815260200160002060010160016002811061153d5761153c6126ed565b5b600d02016000820160009054906101000a900460ff168160000160006101000a81548160ff0219169083151502179055506000820160019054906101000a900460ff168160000160016101000a81548160ff0219169083151502179055506000820160029054906101000a900473ffffffffffffffffffffffffffffffffffffffff168160000160026101000a81548173ffffffffffffffffffffffffffffffffffffffff021916908373ffffffffffffffffffffffffffffffffffffffff160217905550600182015481600101556002820154816002015560038201816003016000820160009054906101000a900460ff168160000160006101000a81548160ff0219169083151502179055506001820181600101906008611661929190612030565b506009820154816009015550509050506001600080848152602001908152602001600020601b0160006101000a81548160ff021916908360098111156116aa576116a961261b565b5b02179055507fdf72bd9cb04731c1dfa0832a380e56504fda45508a7305083a9be0f343e93421826000808581526020019081526020016000206001016000600281106116f9576116f86126ed565b5b600d020160000160029054906101000a900473ffffffffffffffffffffffffffffffffffffffff163360405161173193929190612822565b60405180910390a15050565b6000806000848152602001908152602001600020604051806101000160405290816000820160009054906101000a900460ff161515151581526020016000820160019054906101000a900460ff1615151515815260200160018201600280602002604051908101604052809291906000905b8282101561194f578382600d02016040518060c00160405290816000820160009054906101000a900460ff161515151581526020016000820160019054906101000a900460ff161515151581526020016000820160029054906101000a900473ffffffffffffffffffffffffffffffffffffffff1673ffffffffffffffffffffffffffffffffffffffff1673ffffffffffffffffffffffffffffffffffffffff1681526020016001820154815260200160028201548152602001600382016040518060600160405290816000820160009054906101000a900460ff1615151515815260200160018201600880602002604051908101604052809291906000905b8282101561192a57838201600880602002604051908101604052809291908260088015611916576020028201916000905b82829054906101000a900460ff161515815260200190600101906020826000010492830192600103820291508084116118e05790505b5050505050815260200190600101906118af565b50505050815260200160098201548152505081525050815260200190600101906117af565b505050508152602001601b820160009054906101000a900460ff16600981111561197c5761197b61261b565b5b600981111561198e5761198d61261b565b5b8152602001601c8201548152602001601d8201548152602001601e820160009054906101000a900460ff16151515158152602001601e820160019054906101000a900460ff161515151581525050905080600001516119f0576119ef6127f3565b5b60016009811115611a0457611a0361261b565b5b81606001516009811115611a1b57611a1a61261b565b5b14611a2957611a286127f3565b5b3373ffffffffffffffffffffffffffffffffffffffff168160400151600060028110611a5857611a576126ed565b5b60200201516040015173ffffffffffffffffffffffffffffffffffffffff161480611ace57503373ffffffffffffffffffffffffffffffffffffffff168160400151600160028110611aad57611aac6126ed565b5b60200201516040015173ffffffffffffffffffffffffffffffffffffffff16145b611adb57611ada6127f3565b5b6000808260400151600060028110611af657611af56126ed565b5b60200201516040015173ffffffffffffffffffffffffffffffffffffffff163373ffffffffffffffffffffffffffffffffffffffff1603611b3e576001915060009050611b47565b60009150600190505b600083604001518360028110611b6057611b5f6126ed565b5b6020020151606001519050846000808881526020019081526020016000206001018360028110611b9357611b926126ed565b5b600d02016001018190555060008114158015611bae57508481145b15611c8d5784600080888152602001908152602001600020601c01819055506002600080888152602001908152602001600020601b0160006101000a81548160ff02191690836009811115611c0657611c0561261b565b5b02179055507fa63491c3e48c84a30c1a58128201bca4fd87bb84850cda339020ce19051e5a90868560400151600060028110611c4557611c446126ed565b5b6020020151604001518660400151600160028110611c6657611c656126ed565b5b60200201516040015188604051611c809493929190612859565b60405180910390a1611cea565b7f4adf94e8b5302c48b3df6533aa17748538d68a74af46f0a894839b61fbf3f1bf863386604001518660028110611cc757611cc66126ed565b5b60200201516040015188604051611ce19493929190612859565b60405180910390a15b505050505050565b600080611cfe83611d67565b905080600001518015611d2e57508060400151600060028110611d2457611d236126ed565b5b6020020151600001515b15611d5c578060400151600060028110611d4b57611d4a6126ed565b5b602002015160600151915050611d62565b60009150505b919050565b611d6f6121ea565b611d776121ea565b60008303611d8857611d876127f3565b5b600080848152602001908152602001600020604051806101000160405290816000820160009054906101000a900460ff161515151581526020016000820160019054906101000a900460ff1615151515815260200160018201600280602002604051908101604052809291906000905b82821015611f98578382600d02016040518060c00160405290816000820160009054906101000a900460ff161515151581526020016000820160019054906101000a900460ff161515151581526020016000820160029054906101000a900473ffffffffffffffffffffffffffffffffffffffff1673ffffffffffffffffffffffffffffffffffffffff1673ffffffffffffffffffffffffffffffffffffffff1681526020016001820154815260200160028201548152602001600382016040518060600160405290816000820160009054906101000a900460ff1615151515815260200160018201600880602002604051908101604052809291906000905b82821015611f7357838201600880602002604051908101604052809291908260088015611f5f576020028201916000905b82829054906101000a900460ff16151581526020019060010190602082600001049283019260010382029150808411611f295790505b505050505081526020019060010190611ef8565b5050505081526020016009820154815250508152505081526020019060010190611df8565b505050508152602001601b820160009054906101000a900460ff166009811115611fc557611fc461261b565b5b6009811115611fd757611fd661261b565b5b8152602001601c8201548152602001601d8201548152602001601e820160009054906101000a900460ff16151515158152602001601e820160019054906101000a900460ff161515151581525050905080915050919050565b8260088101928215612069579182015b8281111561206857828290600861205892919061224f565b5091600101919060010190612040565b5b509050612076919061229a565b5090565b826002600d0281019282156121d95791600d0282015b828111156121d85782826000820160009054906101000a900460ff168160000160006101000a81548160ff0219169083151502179055506000820160019054906101000a900460ff168160000160016101000a81548160ff0219169083151502179055506000820160029054906101000a900473ffffffffffffffffffffffffffffffffffffffff168160000160026101000a81548173ffffffffffffffffffffffffffffffffffffffff021916908373ffffffffffffffffffffffffffffffffffffffff160217905550600182015481600101556002820154816002015560038201816003016000820160009054906101000a900460ff168160000160006101000a81548160ff02191690831515021790555060018201816001019060086121ba929190612030565b50600982015481600901555050505091600d019190600d0190612090565b5b5090506121e691906122be565b5090565b604051806101000160405280600015158152602001600015158152602001612210612367565b8152602001600060098111156122295761222861261b565b5b815260200160008152602001600081526020016000151581526020016000151581525090565b826008601f016020900481019282156122895791601f016020900482015b8281111561228857825482559160010191906001019061226d565b5b5090506122969190612394565b5090565b5b808211156122ba57600081816122b191906123b1565b5060010161229b565b5090565b5b8082111561236357600080820160006101000a81549060ff02191690556000820160016101000a81549060ff02191690556000820160026101000a81549073ffffffffffffffffffffffffffffffffffffffff02191690556001820160009055600282016000905560038201600080820160006101000a81549060ff021916905560018201600061235091906123b8565b6009820160009055505050600d016122bf565b5090565b60405180604001604052806002905b61237e6123cb565b8152602001906001900390816123765790505090565b5b808211156123ad576000816000905550600101612395565b5090565b5060009055565b5080600801906123c8919061229a565b50565b6040518060c00160405280600015158152602001600015158152602001600073ffffffffffffffffffffffffffffffffffffffff168152602001600081526020016000801916815260200161241e612424565b81525090565b604051806060016040528060001515815260200161244061244d565b8152602001600081525090565b6040518061010001604052806008905b61246561247b565b81526020019060019003908161245d5790505090565b604051806101000160405280600890602082028036833780820191505090505090565b600080fd5b6000819050919050565b6124b6816124a3565b81146124c157600080fd5b50565b6000813590506124d3816124ad565b92915050565b6000602082840312156124ef576124ee61249e565b5b60006124fd848285016124c4565b91505092915050565b60008115159050919050565b61251b81612506565b82525050565b60006020820190506125366000830184612512565b92915050565b600073ffffffffffffffffffffffffffffffffffffffff82169050919050565b60006125678261253c565b9050919050565b6125778161255c565b82525050565b6000602082019050612592600083018461256e565b92915050565b6125a181612506565b81146125ac57600080fd5b50565b6000813590506125be81612598565b92915050565b6000602082840312156125da576125d961249e565b5b60006125e8848285016125af565b91505092915050565b6125fa816124a3565b82525050565b600060208201905061261560008301846125f1565b92915050565b7f4e487b7100000000000000000000000000000000000000000000000000000000600052602160045260246000fd5b600a811061265b5761265a61261b565b5b50565b600081905061266c8261264a565b919050565b600061267c8261265e565b9050919050565b61268c81612671565b82525050565b60006020820190506126a76000830184612683565b92915050565b600080604083850312156126c4576126c361249e565b5b60006126d2858286016124c4565b92505060206126e3858286016124c4565b9150509250929050565b7f4e487b7100000000000000000000000000000000000000000000000000000000600052603260045260246000fd5b600060408201905061273160008301856125f1565b61273e602083018461256e565b9392505050565b7f4e487b7100000000000000000000000000000000000000000000000000000000600052601160045260246000fd5b600061277f826124a3565b91507fffffffffffffffffffffffffffffffffffffffffffffffffffffffffffffffff82036127b1576127b0612745565b5b600182019050919050565b60006060820190506127d1600083018661256e565b6127de602083018561256e565b6127eb60408301846125f1565b949350505050565b7f4e487b7100000000000000000000000000000000000000000000000000000000600052600160045260246000fd5b600060608201905061283760008301866125f1565b612844602083018561256e565b612851604083018461256e565b949350505050565b600060808201905061286e60008301876125f1565b61287b602083018661256e565b612888604083018561256e565b61289560608301846125f1565b9594505050505056fea26469706673582212203be6e808972a5ea6980a713dcdcee94cbd1e1d620a7e1f4bd9df33dbf5d6e89b64736f6c63430008130033",
  "immutableReferences": {},
  "source": "// SPDX-License-Identifier: MIT\r\npragma solidity >=0.4.22 <0.9.0;\r\n\r\ncontract Battleships {\r\n    enum GameStates{\r\n        WAITING, \r\n        SETTING_STAKE, \r\n        ACCEPTING_PAYMENT,\r\n        PLACING_SHIPS, \r\n        P0_FIRING,\r\n        P1_CHECKING,\r\n        P1_FIRING,\r\n        P0_CHECKING,\r\n        DONE,\r\n        NONE\r\n    }\r\n\r\n    struct Board{\r\n        bool valid;\r\n        // N*N matrix of bits to store hits\r\n        bool[8][8] shots;\r\n        uint totalPieces;\r\n    }\r\n\r\n    struct Player{\r\n        bool valid;\r\n        bool hasPaidStake;\r\n        address playerAddress;\r\n        uint proposedStake;\r\n        bytes32 boardTreeRoot;\r\n        Board shots_board;\r\n    }\r\n\r\n    struct Game{\r\n        bool valid;\r\n        bool canPay;\r\n        // host is always player[0]\r\n        Player[2] players;\r\n        GameStates state;\r\n        uint decidedStake;\r\n        // used for foul accusation, a foul is triggered after 5 blocks\r\n        uint blockNumber;\r\n        // player 0 or player 1\r\n        // might turn it into address, we will see\r\n        bool accuser;\r\n        // whether or not this game should be in the public pool of joinable games\r\n        bool privateGame;\r\n    }\r\n\r\n    mapping(uint => Game) private openGames;\r\n\r\n    Game private gameTrampoline;\r\n    Player private playerTrampoline;\r\n    // used in generating UUIDs for the games\r\n    // for now we are gonna use this as-is\r\n    // start at 1 as 0 is used for a non-existing game\r\n    // TODO: deal with it overflowing\r\n    uint private gameCounter;\r\n    uint private lastOpenGame;\r\n\r\n    constructor() {\r\n        gameCounter = 1;\r\n        lastOpenGame = 1;\r\n    }\r\n\r\n    event ShareID(address _from, address _to, uint _gameID);\r\n    event GameStart(uint _gameID, address _host, address _challenger);\r\n    event SuggestedStake(uint _gameID, address _from, address _to, uint _stakeValue);\r\n    event GamePayable(uint _gameID, address _host, address _challenger, uint _stakeValue);\r\n    event StakePaid(uint _gameID, address _whoPaid);\r\n    event AcceptingBoards(uint _gameID);\r\n\r\n    error InvalidGameID();\r\n    error NotInGame();\r\n    error StakeAlreadyDeposited();\r\n    error WrongStakeAmount(uint expectedStakeValue);\r\n\r\n    // create a Game value, add it to openGames, populate the Player[0]\r\n    function newGame(bool isPrivate) public {\r\n        uint gameID = gameCounter;\r\n        gameCounter++;\r\n        Game storage game = gameTrampoline;\r\n        Player storage host = playerTrampoline;\r\n        host.playerAddress = msg.sender;\r\n        host.valid = true;\r\n        host.hasPaidStake = false;\r\n        game.players[0] = host;\r\n        game.state = GameStates.WAITING;\r\n        game.privateGame = isPrivate;\r\n        game.valid = true;\r\n        game.canPay = false;\r\n        openGames[gameID] = game;\r\n        emit ShareID(address(this), msg.sender, gameID);\r\n        return;\r\n    }\r\n    \r\n    function joinGame(uint gameID) public {\r\n        if(gameID == 0){\r\n            // pick an unassigned game in sequential order\r\n            gameID = lastOpenGame;\r\n            while(gameID <= gameCounter){\r\n                Game memory game = openGames[gameID];\r\n                // ignore games with sender as host\r\n                if(game.valid == true && game.state == GameStates.WAITING && game.players[0].playerAddress != msg.sender && !game.privateGame){\r\n                    break;\r\n                }\r\n                gameID++;\r\n            }\r\n            // update the lastOpenGame counter no matter what\r\n            lastOpenGame = gameID;\r\n        }\r\n        // if the game wasn't valid, throw an error\r\n        assert(openGames[gameID].valid);\r\n        // set msg sender as this game's player 2\r\n        Player storage challenger = playerTrampoline;\r\n        challenger.playerAddress = msg.sender;\r\n        challenger.valid = true;\r\n        challenger.hasPaidStake = false;\r\n        openGames[gameID].players[1] = challenger;\r\n        // update this game's status\r\n        openGames[gameID].state = GameStates.SETTING_STAKE;\r\n        // alert the players\r\n        emit GameStart(gameID, openGames[gameID].players[0].playerAddress, msg.sender);\r\n        return;\r\n    }\r\n\r\n    // fails when called on gameID of 0 (non-existing game)\r\n    function getGamePosition (uint gameID) private view returns (Game memory){\r\n        Game memory gameChecked;\r\n        assert(gameID != 0);\r\n        gameChecked = openGames[gameID];\r\n        return gameChecked;\r\n    }\r\n\r\n    function checkGameState(uint gameID) public view returns (GameStates) {\r\n        Game memory game = getGamePosition(gameID);\r\n        if (game.valid){\r\n            return game.state;\r\n        }\r\n        else \r\n            return(GameStates.NONE);\r\n    }\r\n\r\n    function checkGamePlayerOne(uint gameID) public view returns (address) {\r\n        Game memory game = getGamePosition(gameID);\r\n        if (game.valid && game.players[0].valid){\r\n            return game.players[0].playerAddress;\r\n        }\r\n        else \r\n            return(address(0));\r\n    }\r\n\r\n    function checkGamePlayerTwo(uint gameID) public view returns (address) {\r\n        Game memory game = getGamePosition(gameID);\r\n        if (game.valid && game.players[1].valid){\r\n            return game.players[1].playerAddress;\r\n        }\r\n        else \r\n            return(address(0));\r\n    }\r\n\r\n    // Function to propose and agree upon a stake between players\r\n    function proposeStake(uint gameID, uint stakeValue) public{\r\n        Game memory game = openGames[gameID];\r\n        assert(game.valid);\r\n        assert(game.state == GameStates.SETTING_STAKE);\r\n        assert(game.players[0].playerAddress == msg.sender || game.players[1].playerAddress == msg.sender);\r\n        // Check whether or not this player's opponent has already proposed a stake\r\n        uint opponentIndex;\r\n        uint stakerIndex;\r\n        if(msg.sender == game.players[0].playerAddress){\r\n            opponentIndex = 1;\r\n            stakerIndex = 0;\r\n        } else {\r\n            opponentIndex = 0;\r\n            stakerIndex = 1;\r\n        }\r\n        uint opponentStake = game.players[opponentIndex].proposedStake;\r\n        // set this player's proposed stake to their message\r\n        openGames[gameID].players[stakerIndex].proposedStake = stakeValue;\r\n        // if the opponent has proposed a stake we check whether or not it equals the one proposed by us\r\n        // 0 is not a valid stake\r\n        if(opponentStake != 0 && opponentStake == stakeValue){\r\n            openGames[gameID].decidedStake = stakeValue;\r\n            openGames[gameID].state = GameStates.ACCEPTING_PAYMENT;\r\n            emit GamePayable(gameID, game.players[0].playerAddress, game.players[1].playerAddress, stakeValue);\r\n        }else{\r\n            emit SuggestedStake(gameID, msg.sender, game.players[opponentIndex].playerAddress, stakeValue);\r\n        }\r\n        return;\r\n    }\r\n\r\n    function checkStakePlayerOne(uint gameID) public view returns (uint) {\r\n        Game memory game = getGamePosition(gameID);\r\n        if (game.valid && game.players[0].valid){\r\n            return game.players[0].proposedStake;\r\n        }\r\n        else \r\n            return(0);\r\n    }\r\n\r\n    function checkStakePlayerTwo(uint gameID) public view returns (uint) {\r\n        Game memory game = getGamePosition(gameID);\r\n        if (game.valid && game.players[1].valid){\r\n            return game.players[1].proposedStake;\r\n        }\r\n        else \r\n            return(0);\r\n    }\r\n\r\n    function checkStakeGame(uint gameID) public view returns (uint) {\r\n        Game memory game = getGamePosition(gameID);\r\n        if (game.valid && game.players[0].valid && game.players[1].valid)\r\n            return game.decidedStake;\r\n        else\r\n            return(0);\r\n    }\r\n    \r\n    // TODO: write unit tests for this\r\n    function payStake(uint gameID) external payable {\r\n        // make sure the game exists and has to be paid\r\n        if(!(openGames[gameID].valid) || !(openGames[gameID].state == GameStates.ACCEPTING_PAYMENT))\r\n            revert InvalidGameID();\r\n        // make sure the sender is part of the game\r\n        if(!(msg.sender == openGames[gameID].players[0].playerAddress) || !(msg.sender == openGames[gameID].players[1].playerAddress))\r\n            revert NotInGame();\r\n        // check that this user has not paid already\r\n        if((msg.sender == openGames[gameID].players[0].playerAddress && openGames[gameID].players[0].hasPaidStake) ||\r\n            (msg.sender == openGames[gameID].players[1].playerAddress && openGames[gameID].players[1].hasPaidStake))\r\n            revert StakeAlreadyDeposited();\r\n        // only accept payments for the exact amount owed\r\n        if(msg.value != openGames[gameID].decidedStake)\r\n            revert WrongStakeAmount(openGames[gameID].decidedStake);\r\n        // now we check who the sender is\r\n        uint senderIndex;\r\n        uint challengerIndex;\r\n        if(msg.sender == openGames[gameID].players[0].playerAddress){\r\n            senderIndex = 0;\r\n            challengerIndex = 1;\r\n        }else{\r\n            senderIndex = 1;\r\n            challengerIndex = 0;\r\n        }\r\n        openGames[gameID].players[senderIndex].hasPaidStake = true;\r\n        emit StakePaid(gameID, msg.sender);\r\n        // if both players have paid the owed stake the game can move on to its next state\r\n        if(openGames[gameID].players[challengerIndex].hasPaidStake){\r\n            openGames[gameID].state = GameStates.PLACING_SHIPS;\r\n            emit AcceptingBoards(gameID);\r\n        }\r\n    }\r\n\r\n    function checkPaymentPlayerOne(uint gameID) public view returns (bool) {\r\n        Game memory game = getGamePosition(gameID);\r\n        if (game.valid && game.players[0].valid){\r\n            return game.players[0].hasPaidStake;\r\n        }\r\n        else \r\n            return(false);\r\n    }\r\n\r\n    function checkPaymentPlayerTwo(uint gameID) public view returns (bool) {\r\n        Game memory game = getGamePosition(gameID);\r\n        if (game.valid && game.players[1].valid){\r\n            return game.players[1].hasPaidStake;\r\n        }\r\n        else \r\n            return(false);\r\n    }\r\n\r\n    function checkGamePayable(uint gameID) public view returns (bool) {\r\n        Game memory game = getGamePosition(gameID);\r\n        if (game.valid && game.players[0].valid && game.players[1].valid)\r\n            return game.canPay;\r\n        else\r\n            return(false);\r\n    }\r\n}",
  "sourcePath": "F:\\Documents\\Code\\School\\P2PBC\\Battleships\\contracts\\Battleships.sol",
  "compiler": {
    "name": "solc",
    "version": "0.8.19+commit.7dd6d404.Emscripten.clang"
  },
  "schemaVersion": "3.4.13",
  "updatedAt": "2023-05-20T01:30:14.865Z",
  "networkType": "ethereum",
  "devdoc": {
    "kind": "dev",
    "methods": {},
    "version": 1
  },
  "userdoc": {
    "kind": "user",
    "methods": {},
    "version": 1
  }
}